{
  "contractName": "HealthRecords",
  "abi": [
    {
      "inputs": [],
      "stateMutability": "nonpayable",
      "type": "constructor"
    },
    {
      "anonymous": false,
      "inputs": [
        {
          "indexed": true,
          "internalType": "address",
          "name": "patient",
          "type": "address"
        },
        {
          "indexed": true,
          "internalType": "address",
          "name": "doctor",
          "type": "address"
        }
      ],
      "name": "ConsentGranted",
      "type": "event"
    },
    {
      "anonymous": false,
      "inputs": [
        {
          "indexed": true,
          "internalType": "address",
          "name": "patient",
          "type": "address"
        },
        {
          "indexed": true,
          "internalType": "address",
          "name": "doctor",
          "type": "address"
        }
      ],
      "name": "ConsentRevoked",
      "type": "event"
    },
    {
      "anonymous": false,
      "inputs": [
        {
          "indexed": true,
          "internalType": "address",
          "name": "doctor",
          "type": "address"
        }
      ],
      "name": "DoctorAdded",
      "type": "event"
    },
    {
      "anonymous": false,
      "inputs": [
        {
          "indexed": true,
          "internalType": "address",
          "name": "doctor",
          "type": "address"
        }
      ],
      "name": "DoctorRemoved",
      "type": "event"
    },
    {
      "anonymous": false,
      "inputs": [
        {
          "indexed": true,
          "internalType": "address",
          "name": "patient",
          "type": "address"
        },
        {
          "indexed": true,
          "internalType": "address",
          "name": "doctor",
          "type": "address"
        },
        {
          "indexed": false,
          "internalType": "uint256",
          "name": "timestamp",
          "type": "uint256"
        }
      ],
      "name": "VisitAdded",
      "type": "event"
    },
    {
      "inputs": [
        {
          "internalType": "address",
          "name": "",
          "type": "address"
        }
      ],
      "name": "isDoctor",
      "outputs": [
        {
          "internalType": "bool",
          "name": "",
          "type": "bool"
        }
      ],
      "stateMutability": "view",
      "type": "function",
      "constant": true
    },
    {
      "inputs": [],
      "name": "owner",
      "outputs": [
        {
          "internalType": "address",
          "name": "",
          "type": "address"
        }
      ],
      "stateMutability": "view",
      "type": "function",
      "constant": true
    },
    {
      "inputs": [
        {
          "internalType": "address",
          "name": "",
          "type": "address"
        },
        {
          "internalType": "address",
          "name": "",
          "type": "address"
        }
      ],
      "name": "patientConsent",
      "outputs": [
        {
          "internalType": "bool",
          "name": "",
          "type": "bool"
        }
      ],
      "stateMutability": "view",
      "type": "function",
      "constant": true
    },
    {
      "inputs": [
        {
          "internalType": "address",
          "name": "_doctor",
          "type": "address"
        }
      ],
      "name": "addDoctor",
      "outputs": [],
      "stateMutability": "nonpayable",
      "type": "function"
    },
    {
      "inputs": [
        {
          "internalType": "address",
          "name": "_doctor",
          "type": "address"
        }
      ],
      "name": "removeDoctor",
      "outputs": [],
      "stateMutability": "nonpayable",
      "type": "function"
    },
    {
      "inputs": [
        {
          "internalType": "address",
          "name": "_doctor",
          "type": "address"
        }
      ],
      "name": "grantConsent",
      "outputs": [],
      "stateMutability": "nonpayable",
      "type": "function"
    },
    {
      "inputs": [
        {
          "internalType": "address",
          "name": "_doctor",
          "type": "address"
        }
      ],
      "name": "revokeConsent",
      "outputs": [],
      "stateMutability": "nonpayable",
      "type": "function"
    },
    {
      "inputs": [
        {
          "internalType": "address",
          "name": "_patient",
          "type": "address"
        },
        {
          "internalType": "bytes",
          "name": "_encryptedData",
          "type": "bytes"
        }
      ],
      "name": "addVisit",
      "outputs": [],
      "stateMutability": "nonpayable",
      "type": "function"
    },
    {
      "inputs": [
        {
          "internalType": "address",
          "name": "_patient",
          "type": "address"
        },
        {
          "internalType": "uint256",
          "name": "_offset",
          "type": "uint256"
        },
        {
          "internalType": "uint256",
          "name": "_limit",
          "type": "uint256"
        }
      ],
      "name": "getHistory",
      "outputs": [
        {
          "components": [
            {
              "internalType": "address",
              "name": "doctor",
              "type": "address"
            },
            {
              "internalType": "bytes",
              "name": "encryptedData",
              "type": "bytes"
            },
            {
              "internalType": "uint256",
              "name": "timestamp",
              "type": "uint256"
            }
          ],
          "internalType": "struct HealthRecords.Visit[]",
          "name": "",
          "type": "tuple[]"
        }
      ],
      "stateMutability": "view",
      "type": "function",
      "constant": true
    },
    {
      "inputs": [
        {
          "internalType": "address",
          "name": "_patient",
          "type": "address"
        }
      ],
      "name": "getVisitCount",
      "outputs": [
        {
          "internalType": "uint256",
          "name": "",
          "type": "uint256"
        }
      ],
      "stateMutability": "view",
      "type": "function",
      "constant": true
    }
  ],
  "bytecode": "0x608060405234801561001057600080fd5b50336000806101000a81548173ffffffffffffffffffffffffffffffffffffffff021916908373ffffffffffffffffffffffffffffffffffffffff1602179055506001600260003373ffffffffffffffffffffffffffffffffffffffff1673ffffffffffffffffffffffffffffffffffffffff16815260200190815260200160002060006101000a81548160ff0219169083151502179055503373ffffffffffffffffffffffffffffffffffffffff167f69908b2e63170aa89ef89719bbe3b4c92cccc38653968ab25f4464eff7c28ac860405160405180910390a2611f70806100fb6000396000f3fe608060405234801561001057600080fd5b506004361061009e5760003560e01c8063a79861f111610066578063a79861f114610145578063ac440a9f14610161578063d1a4862714610191578063ec29f4e9146101ad578063f68b68f6146101dd5761009e565b80634780468f146100a357806387fee61c146100bf5780638da5cb5b146100db57806398fc90e9146100f9578063996440c614610115575b600080fd5b6100bd60048036038101906100b8919061119a565b61020d565b005b6100d960048036038101906100d4919061130d565b6103c6565b005b6100e36106d0565b6040516100f09190611378565b60405180910390f35b610113600480360381019061010e919061119a565b6106f4565b005b61012f600480360381019061012a919061119a565b61093a565b60405161013c91906113ae565b60405180910390f35b61015f600480360381019061015a919061119a565b61095a565b005b61017b6004803603810190610176919061119a565b610ad8565b60405161018891906113e2565b60405180910390f35b6101ab60048036038101906101a6919061119a565b610c23565b005b6101c760048036038101906101c29190611429565b610d15565b6040516101d4919061162b565b60405180910390f35b6101f760048036038101906101f2919061164d565b6110c2565b60405161020491906113ae565b60405180910390f35b60008054906101000a900473ffffffffffffffffffffffffffffffffffffffff1673ffffffffffffffffffffffffffffffffffffffff163373ffffffffffffffffffffffffffffffffffffffff161461029b576040517f08c379a000000000000000000000000000000000000000000000000000000000815260040161029290611710565b60405180910390fd5b600260008273ffffffffffffffffffffffffffffffffffffffff1673ffffffffffffffffffffffffffffffffffffffff16815260200190815260200160002060009054906101000a900460ff1615610328576040517f08c379a000000000000000000000000000000000000000000000000000000000815260040161031f9061177c565b60405180910390fd5b6001600260008373ffffffffffffffffffffffffffffffffffffffff1673ffffffffffffffffffffffffffffffffffffffff16815260200190815260200160002060006101000a81548160ff0219169083151502179055508073ffffffffffffffffffffffffffffffffffffffff167f69908b2e63170aa89ef89719bbe3b4c92cccc38653968ab25f4464eff7c28ac860405160405180910390a250565b600260003373ffffffffffffffffffffffffffffffffffffffff1673ffffffffffffffffffffffffffffffffffffffff16815260200190815260200160002060009054906101000a900460ff16610452576040517f08c379a00000000000000000000000000000000000000000000000000000000081526004016104499061180e565b60405180910390fd5b600360008373ffffffffffffffffffffffffffffffffffffffff1673ffffffffffffffffffffffffffffffffffffffff16815260200190815260200160002060003373ffffffffffffffffffffffffffffffffffffffff1673ffffffffffffffffffffffffffffffffffffffff16815260200190815260200160002060009054906101000a900460ff1661051b576040517f08c379a0000000000000000000000000000000000000000000000000000000008152600401610512906118a0565b60405180910390fd5b600081511161055f576040517f08c379a00000000000000000000000000000000000000000000000000000000081526004016105569061190c565b60405180910390fd5b600060405180606001604052803373ffffffffffffffffffffffffffffffffffffffff168152602001838152602001428152509050600160008473ffffffffffffffffffffffffffffffffffffffff1673ffffffffffffffffffffffffffffffffffffffff16815260200190815260200160002081908060018154018082558091505060019003906000526020600020906003020160009091909190915060008201518160000160006101000a81548173ffffffffffffffffffffffffffffffffffffffff021916908373ffffffffffffffffffffffffffffffffffffffff16021790555060208201518160010190816106599190611b38565b506040820151816002015550503373ffffffffffffffffffffffffffffffffffffffff168373ffffffffffffffffffffffffffffffffffffffff167ff298554cada977a5e7c458fcf4673a28bfd9cb79e7c65a4f0ba7eec601eafbdc426040516106c391906113e2565b60405180910390a3505050565b60008054906101000a900473ffffffffffffffffffffffffffffffffffffffff1681565b60008054906101000a900473ffffffffffffffffffffffffffffffffffffffff1673ffffffffffffffffffffffffffffffffffffffff163373ffffffffffffffffffffffffffffffffffffffff1614610782576040517f08c379a000000000000000000000000000000000000000000000000000000000815260040161077990611710565b60405180910390fd5b600260008273ffffffffffffffffffffffffffffffffffffffff1673ffffffffffffffffffffffffffffffffffffffff16815260200190815260200160002060009054906101000a900460ff1661080e576040517f08c379a000000000000000000000000000000000000000000000000000000000815260040161080590611c56565b60405180910390fd5b60008054906101000a900473ffffffffffffffffffffffffffffffffffffffff1673ffffffffffffffffffffffffffffffffffffffff168173ffffffffffffffffffffffffffffffffffffffff160361089c576040517f08c379a000000000000000000000000000000000000000000000000000000000815260040161089390611ce8565b60405180910390fd5b6000600260008373ffffffffffffffffffffffffffffffffffffffff1673ffffffffffffffffffffffffffffffffffffffff16815260200190815260200160002060006101000a81548160ff0219169083151502179055508073ffffffffffffffffffffffffffffffffffffffff167f493d7cf6a7c880406a55654d6727464ea088bd01d40498e1987a327e68961ab860405160405180910390a250565b60026020528060005260406000206000915054906101000a900460ff1681565b600260008273ffffffffffffffffffffffffffffffffffffffff1673ffffffffffffffffffffffffffffffffffffffff16815260200190815260200160002060009054906101000a900460ff166109e6576040517f08c379a00000000000000000000000000000000000000000000000000000000081526004016109dd90611d7a565b60405180910390fd5b6001600360003373ffffffffffffffffffffffffffffffffffffffff1673ffffffffffffffffffffffffffffffffffffffff16815260200190815260200160002060008373ffffffffffffffffffffffffffffffffffffffff1673ffffffffffffffffffffffffffffffffffffffff16815260200190815260200160002060006101000a81548160ff0219169083151502179055508073ffffffffffffffffffffffffffffffffffffffff163373ffffffffffffffffffffffffffffffffffffffff167f8105c574d2239a3a4f73f5efc5bc253cffb275647df535adfa2c240739cc922060405160405180910390a350565b60008173ffffffffffffffffffffffffffffffffffffffff163373ffffffffffffffffffffffffffffffffffffffff161480610b9a5750600360008373ffffffffffffffffffffffffffffffffffffffff1673ffffffffffffffffffffffffffffffffffffffff16815260200190815260200160002060003373ffffffffffffffffffffffffffffffffffffffff1673ffffffffffffffffffffffffffffffffffffffff16815260200190815260200160002060009054906101000a900460ff165b610bd9576040517f08c379a0000000000000000000000000000000000000000000000000000000008152600401610bd090611e0c565b60405180910390fd5b600160008373ffffffffffffffffffffffffffffffffffffffff1673ffffffffffffffffffffffffffffffffffffffff168152602001908152602001600020805490509050919050565b6000600360003373ffffffffffffffffffffffffffffffffffffffff1673ffffffffffffffffffffffffffffffffffffffff16815260200190815260200160002060008373ffffffffffffffffffffffffffffffffffffffff1673ffffffffffffffffffffffffffffffffffffffff16815260200190815260200160002060006101000a81548160ff0219169083151502179055508073ffffffffffffffffffffffffffffffffffffffff163373ffffffffffffffffffffffffffffffffffffffff167febecee2d3f2ea272f73dd9d9ccc0bacd11280d61240332cbcd8a68173ae5cc2c60405160405180910390a350565b60608373ffffffffffffffffffffffffffffffffffffffff163373ffffffffffffffffffffffffffffffffffffffff161480610dd75750600360008573ffffffffffffffffffffffffffffffffffffffff1673ffffffffffffffffffffffffffffffffffffffff16815260200190815260200160002060003373ffffffffffffffffffffffffffffffffffffffff1673ffffffffffffffffffffffffffffffffffffffff16815260200190815260200160002060009054906101000a900460ff165b610e16576040517f08c379a0000000000000000000000000000000000000000000000000000000008152600401610e0d90611e0c565b60405180910390fd5b6000600160008673ffffffffffffffffffffffffffffffffffffffff1673ffffffffffffffffffffffffffffffffffffffff168152602001908152602001600020905080805490508410610ec157600067ffffffffffffffff811115610e7f57610e7e6111e2565b5b604051908082528060200260200182016040528015610eb857816020015b610ea56110f1565b815260200190600190039081610e9d5790505b509150506110bb565b60008385610ecf9190611e5b565b90508180549050811115610ee557818054905090505b60008582610ef39190611e8f565b905060008167ffffffffffffffff811115610f1157610f106111e2565b5b604051908082528060200260200182016040528015610f4a57816020015b610f376110f1565b815260200190600190039081610f2f5790505b50905060005b828110156110b257848189610f659190611e5b565b81548110610f7657610f75611ec3565b5b90600052602060002090600302016040518060600160405290816000820160009054906101000a900473ffffffffffffffffffffffffffffffffffffffff1673ffffffffffffffffffffffffffffffffffffffff1673ffffffffffffffffffffffffffffffffffffffff168152602001600182018054610ff59061195b565b80601f01602080910402602001604051908101604052809291908181526020018280546110219061195b565b801561106e5780601f106110435761010080835404028352916020019161106e565b820191906000526020600020905b81548152906001019060200180831161105157829003601f168201915b5050505050815260200160028201548152505082828151811061109457611093611ec3565b5b602002602001018190525080806110aa90611ef2565b915050610f50565b50809450505050505b9392505050565b60036020528160005260406000206020528060005260406000206000915091509054906101000a900460ff1681565b6040518060600160405280600073ffffffffffffffffffffffffffffffffffffffff16815260200160608152602001600081525090565b6000604051905090565b600080fd5b600080fd5b600073ffffffffffffffffffffffffffffffffffffffff82169050919050565b60006111678261113c565b9050919050565b6111778161115c565b811461118257600080fd5b50565b6000813590506111948161116e565b92915050565b6000602082840312156111b0576111af611132565b5b60006111be84828501611185565b91505092915050565b600080fd5b600080fd5b6000601f19601f8301169050919050565b7f4e487b7100000000000000000000000000000000000000000000000000000000600052604160045260246000fd5b61121a826111d1565b810181811067ffffffffffffffff82111715611239576112386111e2565b5b80604052505050565b600061124c611128565b90506112588282611211565b919050565b600067ffffffffffffffff821115611278576112776111e2565b5b611281826111d1565b9050602081019050919050565b82818337600083830152505050565b60006112b06112ab8461125d565b611242565b9050828152602081018484840111156112cc576112cb6111cc565b5b6112d784828561128e565b509392505050565b600082601f8301126112f4576112f36111c7565b5b813561130484826020860161129d565b91505092915050565b6000806040838503121561132457611323611132565b5b600061133285828601611185565b925050602083013567ffffffffffffffff81111561135357611352611137565b5b61135f858286016112df565b9150509250929050565b6113728161115c565b82525050565b600060208201905061138d6000830184611369565b92915050565b60008115159050919050565b6113a881611393565b82525050565b60006020820190506113c3600083018461139f565b92915050565b6000819050919050565b6113dc816113c9565b82525050565b60006020820190506113f760008301846113d3565b92915050565b611406816113c9565b811461141157600080fd5b50565b600081359050611423816113fd565b92915050565b60008060006060848603121561144257611441611132565b5b600061145086828701611185565b935050602061146186828701611414565b925050604061147286828701611414565b9150509250925092565b600081519050919050565b600082825260208201905092915050565b6000819050602082019050919050565b6114b18161115c565b82525050565b600081519050919050565b600082825260208201905092915050565b60005b838110156114f15780820151818401526020810190506114d6565b60008484015250505050565b6000611508826114b7565b61151281856114c2565b93506115228185602086016114d3565b61152b816111d1565b840191505092915050565b61153f816113c9565b82525050565b600060608301600083015161155d60008601826114a8565b506020830151848203602086015261157582826114fd565b915050604083015161158a6040860182611536565b508091505092915050565b60006115a18383611545565b905092915050565b6000602082019050919050565b60006115c18261147c565b6115cb8185611487565b9350836020820285016115dd85611498565b8060005b8581101561161957848403895281516115fa8582611595565b9450611605836115a9565b925060208a019950506001810190506115e1565b50829750879550505050505092915050565b6000602082019050818103600083015261164581846115b6565b905092915050565b6000806040838503121561166457611663611132565b5b600061167285828601611185565b925050602061168385828601611185565b9150509250929050565b600082825260208201905092915050565b7f4f6e6c79206f776e65722063616e20706572666f726d2074686973206163746960008201527f6f6e2e0000000000000000000000000000000000000000000000000000000000602082015250565b60006116fa60238361168d565b91506117058261169e565b604082019050919050565b60006020820190508181036000830152611729816116ed565b9050919050565b7f4164647265737320697320616c7265616479206120646f63746f722e00000000600082015250565b6000611766601c8361168d565b915061177182611730565b602082019050919050565b6000602082019050818103600083015261179581611759565b9050919050565b7f4f6e6c7920617574686f72697a656420646f63746f72732063616e206164642060008201527f7669736974732e00000000000000000000000000000000000000000000000000602082015250565b60006117f860278361168d565b91506118038261179c565b604082019050919050565b60006020820190508181036000830152611827816117eb565b9050919050565b7f50617469656e7420686173206e6f74206772616e74656420636f6e73656e742060008201527f746f207468697320646f63746f722e0000000000000000000000000000000000602082015250565b600061188a602f8361168d565b91506118958261182e565b604082019050919050565b600060208201905081810360008301526118b98161187d565b9050919050565b7f456e6372797074656420646174612063616e6e6f7420626520656d7074792e00600082015250565b60006118f6601f8361168d565b9150611901826118c0565b602082019050919050565b60006020820190508181036000830152611925816118e9565b9050919050565b7f4e487b7100000000000000000000000000000000000000000000000000000000600052602260045260246000fd5b6000600282049050600182168061197357607f821691505b6020821081036119865761198561192c565b5b50919050565b60008190508160005260206000209050919050565b60006020601f8301049050919050565b600082821b905092915050565b6000600883026119ee7fffffffffffffffffffffffffffffffffffffffffffffffffffffffffffffffff826119b1565b6119f886836119b1565b95508019841693508086168417925050509392505050565b6000819050919050565b6000611a35611a30611a2b846113c9565b611a10565b6113c9565b9050919050565b6000819050919050565b611a4f83611a1a565b611a63611a5b82611a3c565b8484546119be565b825550505050565b600090565b611a78611a6b565b611a83818484611a46565b505050565b5b81811015611aa757611a9c600082611a70565b600181019050611a89565b5050565b601f821115611aec57611abd8161198c565b611ac6846119a1565b81016020851015611ad5578190505b611ae9611ae1856119a1565b830182611a88565b50505b505050565b600082821c905092915050565b6000611b0f60001984600802611af1565b1980831691505092915050565b6000611b288383611afe565b9150826002028217905092915050565b611b41826114b7565b67ffffffffffffffff811115611b5a57611b596111e2565b5b611b64825461195b565b611b6f828285611aab565b600060209050601f831160018114611ba25760008415611b90578287015190505b611b9a8582611b1c565b865550611c02565b601f198416611bb08661198c565b60005b82811015611bd857848901518255600182019150602085019450602081019050611bb3565b86831015611bf55784890151611bf1601f891682611afe565b8355505b6001600288020188555050505b505050505050565b7f41646472657373206973206e6f74206120646f63746f722e0000000000000000600082015250565b6000611c4060188361168d565b9150611c4b82611c0a565b602082019050919050565b60006020820190508181036000830152611c6f81611c33565b9050919050565b7f43616e6e6f742072656d6f766520746865206f776e657220617320646f63746f60008201527f722e000000000000000000000000000000000000000000000000000000000000602082015250565b6000611cd260228361168d565b9150611cdd82611c76565b604082019050919050565b60006020820190508181036000830152611d0181611cc5565b9050919050565b7f41646472657373206973206e6f7420616e20617574686f72697a656420646f6360008201527f746f722e00000000000000000000000000000000000000000000000000000000602082015250565b6000611d6460248361168d565b9150611d6f82611d08565b604082019050919050565b60006020820190508181036000830152611d9381611d57565b9050919050565b7f4e6f7420617574686f72697a656420746f20766965772074686973206869737460008201527f6f72792e00000000000000000000000000000000000000000000000000000000602082015250565b6000611df660248361168d565b9150611e0182611d9a565b604082019050919050565b60006020820190508181036000830152611e2581611de9565b9050919050565b7f4e487b7100000000000000000000000000000000000000000000000000000000600052601160045260246000fd5b6000611e66826113c9565b9150611e71836113c9565b9250828201905080821115611e8957611e88611e2c565b5b92915050565b6000611e9a826113c9565b9150611ea5836113c9565b9250828203905081811115611ebd57611ebc611e2c565b5b92915050565b7f4e487b7100000000000000000000000000000000000000000000000000000000600052603260045260246000fd5b6000611efd826113c9565b91507fffffffffffffffffffffffffffffffffffffffffffffffffffffffffffffffff8203611f2f57611f2e611e2c565b5b60018201905091905056fea2646970667358221220263a19a17166a0e17092d83b6b04c13e6208aaa526186ec7c3df84a54366500f64736f6c63430008150033",
  "immutableReferences": {},
  "source": "// SPDX-License-Identifier: MIT\r\npragma solidity ^0.8.0;\r\n\r\ncontract HealthRecords {\r\n    address public owner;\r\n\r\n    struct Visit {\r\n        address doctor;\r\n        bytes encryptedData; // AES-encrypted medical record\r\n        uint256 timestamp;\r\n    }\r\n\r\n    mapping(address => Visit[]) private patientHistory;\r\n    mapping(address => bool) public isDoctor;\r\n    mapping(address => mapping(address => bool)) public patientConsent;\r\n\r\n    // You can have up to three indexed parameters per event\r\n    event DoctorAdded(address indexed doctor);\r\n    event DoctorRemoved(address indexed doctor);\r\n    event VisitAdded(address indexed patient, address indexed doctor, uint256 timestamp);\r\n    event ConsentGranted(address indexed patient, address indexed doctor);\r\n    event ConsentRevoked(address indexed patient, address indexed doctor);\r\n\r\n    modifier onlyOwner() {\r\n        require(msg.sender == owner, \"Only owner can perform this action.\");\r\n        _;\r\n    }\r\n\r\n    modifier onlyDoctor() {\r\n        require(isDoctor[msg.sender], \"Only authorized doctors can add visits.\");\r\n        _;\r\n    }\r\n\r\n    constructor() {\r\n        owner = msg.sender;\r\n        isDoctor[msg.sender] = true;\r\n        emit DoctorAdded(msg.sender);\r\n    }\r\n\r\n    // --- Doctor Management (owner only) ---\r\n\r\n    function addDoctor(address _doctor) public onlyOwner {\r\n        require(!isDoctor[_doctor], \"Address is already a doctor.\");\r\n        isDoctor[_doctor] = true;\r\n        emit DoctorAdded(_doctor);\r\n    }\r\n\r\n    function removeDoctor(address _doctor) public onlyOwner {\r\n        require(isDoctor[_doctor], \"Address is not a doctor.\");\r\n        require(_doctor != owner, \"Cannot remove the owner as doctor.\");\r\n        isDoctor[_doctor] = false;\r\n        emit DoctorRemoved(_doctor);\r\n    }\r\n\r\n    // --- Patient Consent ---\r\n\r\n    function grantConsent(address _doctor) public {\r\n        require(isDoctor[_doctor], \"Address is not an authorized doctor.\");\r\n        patientConsent[msg.sender][_doctor] = true;\r\n        emit ConsentGranted(msg.sender, _doctor);\r\n    }\r\n\r\n    function revokeConsent(address _doctor) public {\r\n        patientConsent[msg.sender][_doctor] = false;\r\n        emit ConsentRevoked(msg.sender, _doctor);\r\n    }\r\n\r\n    // --- Medical Records ---\r\n\r\n    function addVisit(address _patient, bytes memory _encryptedData) public onlyDoctor {\r\n        require(patientConsent[_patient][msg.sender], \"Patient has not granted consent to this doctor.\");\r\n        require(_encryptedData.length > 0, \"Encrypted data cannot be empty.\");\r\n\r\n        Visit memory newVisit = Visit({\r\n            doctor: msg.sender,\r\n            encryptedData: _encryptedData,\r\n            timestamp: block.timestamp\r\n        });\r\n\r\n        patientHistory[_patient].push(newVisit);\r\n        emit VisitAdded(_patient, msg.sender, block.timestamp);\r\n    }\r\n\r\n    function getHistory(address _patient, uint256 _offset, uint256 _limit) public view returns (Visit[] memory) {\r\n        require(msg.sender == _patient || patientConsent[_patient][msg.sender], \"Not authorized to view this history.\");\r\n\r\n        Visit[] storage allVisits = patientHistory[_patient];\r\n\r\n        if (_offset >= allVisits.length) {\r\n            return new Visit[](0);\r\n        }\r\n\r\n        uint256 end = _offset + _limit;\r\n        if (end > allVisits.length) {\r\n            end = allVisits.length;\r\n        }\r\n\r\n        uint256 resultLength = end - _offset;\r\n        Visit[] memory result = new Visit[](resultLength);\r\n        for (uint256 i = 0; i < resultLength; i++) {\r\n            result[i] = allVisits[_offset + i];\r\n        }\r\n        return result;\r\n    }\r\n\r\n    function getVisitCount(address _patient) public view returns (uint256) {\r\n        require(msg.sender == _patient || patientConsent[_patient][msg.sender], \"Not authorized to view this history.\");\r\n        return patientHistory[_patient].length;\r\n    }\r\n}",
  "sourcePath": "C:\\Users\\abdoi\\OneDrive\\Documents\\Studies\\master ai\\Securité blockchain\\Project\\Blockchain\\contracts\\HealthRecords.sol",
  "compiler": {
    "name": "solc",
    "version": "0.8.21+commit.d9974bed.Emscripten.clang"
  },
  "schemaVersion": "3.4.16",
  "updatedAt": "2026-03-11T16:02:05.469Z",
  "networkType": "ethereum",
  "devdoc": {
    "kind": "dev",
    "methods": {},
    "version": 1
  },
  "userdoc": {
    "kind": "user",
    "methods": {},
    "version": 1
  }
}