{
	"contracts/HealthRecords.sol": {
		"HealthRecords": {
			"abi": [
				{
					"inputs": [],
					"stateMutability": "nonpayable",
					"type": "constructor"
				},
				{
					"anonymous": false,
					"inputs": [
						{
							"indexed": true,
							"internalType": "address",
							"name": "patient",
							"type": "address"
						},
						{
							"indexed": true,
							"internalType": "address",
							"name": "doctor",
							"type": "address"
						}
					],
					"name": "ConsentGranted",
					"type": "event"
				},
				{
					"anonymous": false,
					"inputs": [
						{
							"indexed": true,
							"internalType": "address",
							"name": "patient",
							"type": "address"
						},
						{
							"indexed": true,
							"internalType": "address",
							"name": "doctor",
							"type": "address"
						}
					],
					"name": "ConsentRefused",
					"type": "event"
				},
				{
					"anonymous": false,
					"inputs": [
						{
							"indexed": true,
							"internalType": "address",
							"name": "patient",
							"type": "address"
						},
						{
							"indexed": true,
							"internalType": "address",
							"name": "doctor",
							"type": "address"
						}
					],
					"name": "ConsentRequested",
					"type": "event"
				},
				{
					"anonymous": false,
					"inputs": [
						{
							"indexed": true,
							"internalType": "address",
							"name": "patient",
							"type": "address"
						},
						{
							"indexed": true,
							"internalType": "address",
							"name": "doctor",
							"type": "address"
						}
					],
					"name": "ConsentRevoked",
					"type": "event"
				},
				{
					"anonymous": false,
					"inputs": [
						{
							"indexed": true,
							"internalType": "address",
							"name": "doctor",
							"type": "address"
						},
						{
							"indexed": true,
							"internalType": "address",
							"name": "patient",
							"type": "address"
						},
						{
							"indexed": false,
							"internalType": "string",
							"name": "primaryCondition",
							"type": "string"
						},
						{
							"indexed": false,
							"internalType": "uint8",
							"name": "status",
							"type": "uint8"
						}
					],
					"name": "DirectoryMetadataUpdated",
					"type": "event"
				},
				{
					"anonymous": false,
					"inputs": [
						{
							"indexed": true,
							"internalType": "address",
							"name": "doctor",
							"type": "address"
						},
						{
							"indexed": false,
							"internalType": "string",
							"name": "name",
							"type": "string"
						},
						{
							"indexed": false,
							"internalType": "string",
							"name": "clinic",
							"type": "string"
						}
					],
					"name": "DoctorAdded",
					"type": "event"
				},
				{
					"anonymous": false,
					"inputs": [
						{
							"indexed": true,
							"internalType": "address",
							"name": "doctor",
							"type": "address"
						}
					],
					"name": "DoctorRemoved",
					"type": "event"
				},
				{
					"anonymous": false,
					"inputs": [
						{
							"indexed": true,
							"internalType": "address",
							"name": "patient",
							"type": "address"
						},
						{
							"indexed": false,
							"internalType": "string",
							"name": "name",
							"type": "string"
						}
					],
					"name": "PatientRegistered",
					"type": "event"
				},
				{
					"anonymous": false,
					"inputs": [
						{
							"indexed": true,
							"internalType": "address",
							"name": "patient",
							"type": "address"
						},
						{
							"indexed": true,
							"internalType": "address",
							"name": "doctor",
							"type": "address"
						},
						{
							"indexed": false,
							"internalType": "uint256",
							"name": "timestamp",
							"type": "uint256"
						},
						{
							"indexed": false,
							"internalType": "bytes",
							"name": "encryptedData",
							"type": "bytes"
						}
					],
					"name": "VisitAdded",
					"type": "event"
				},
				{
					"inputs": [
						{
							"internalType": "address",
							"name": "_doctor",
							"type": "address"
						},
						{
							"internalType": "string",
							"name": "_name",
							"type": "string"
						},
						{
							"internalType": "string",
							"name": "_clinic",
							"type": "string"
						},
						{
							"internalType": "string",
							"name": "_timezone",
							"type": "string"
						},
						{
							"internalType": "string",
							"name": "_workingHoursStart",
							"type": "string"
						},
						{
							"internalType": "string",
							"name": "_workingHoursEnd",
							"type": "string"
						}
					],
					"name": "addDoctor",
					"outputs": [],
					"stateMutability": "nonpayable",
					"type": "function"
				},
				{
					"inputs": [
						{
							"internalType": "address",
							"name": "_patient",
							"type": "address"
						},
						{
							"internalType": "bytes",
							"name": "_encryptedData",
							"type": "bytes"
						}
					],
					"name": "addVisit",
					"outputs": [],
					"stateMutability": "nonpayable",
					"type": "function"
				},
				{
					"inputs": [
						{
							"internalType": "address",
							"name": "",
							"type": "address"
						}
					],
					"name": "doctors",
					"outputs": [
						{
							"internalType": "bool",
							"name": "isRegistered",
							"type": "bool"
						},
						{
							"internalType": "string",
							"name": "name",
							"type": "string"
						},
						{
							"internalType": "string",
							"name": "clinic",
							"type": "string"
						},
						{
							"internalType": "string",
							"name": "timezone",
							"type": "string"
						},
						{
							"internalType": "string",
							"name": "workingHoursStart",
							"type": "string"
						},
						{
							"internalType": "string",
							"name": "workingHoursEnd",
							"type": "string"
						}
					],
					"stateMutability": "view",
					"type": "function"
				},
				{
					"inputs": [
						{
							"internalType": "address",
							"name": "_doctor",
							"type": "address"
						},
						{
							"internalType": "address",
							"name": "_patient",
							"type": "address"
						}
					],
					"name": "getDirectoryMetadata",
					"outputs": [
						{
							"internalType": "string",
							"name": "primaryCondition",
							"type": "string"
						},
						{
							"internalType": "uint8",
							"name": "status",
							"type": "uint8"
						},
						{
							"internalType": "bool",
							"name": "isSet",
							"type": "bool"
						}
					],
					"stateMutability": "view",
					"type": "function"
				},
				{
					"inputs": [
						{
							"internalType": "address",
							"name": "_doctor",
							"type": "address"
						}
					],
					"name": "getDoctorProfile",
					"outputs": [
						{
							"internalType": "string",
							"name": "name",
							"type": "string"
						}
					],
					"stateMutability": "view",
					"type": "function"
				},
				{
					"inputs": [
						{
							"internalType": "address",
							"name": "_patient",
							"type": "address"
						}
					],
					"name": "getPatientProfile",
					"outputs": [
						{
							"internalType": "string",
							"name": "name",
							"type": "string"
						},
						{
							"internalType": "string",
							"name": "bloodType",
							"type": "string"
						},
						{
							"internalType": "string",
							"name": "phone",
							"type": "string"
						},
						{
							"internalType": "string",
							"name": "email",
							"type": "string"
						}
					],
					"stateMutability": "view",
					"type": "function"
				},
				{
					"inputs": [
						{
							"internalType": "address",
							"name": "_doctor",
							"type": "address"
						}
					],
					"name": "grantConsent",
					"outputs": [],
					"stateMutability": "nonpayable",
					"type": "function"
				},
				{
					"inputs": [],
					"name": "owner",
					"outputs": [
						{
							"internalType": "address",
							"name": "",
							"type": "address"
						}
					],
					"stateMutability": "view",
					"type": "function"
				},
				{
					"inputs": [
						{
							"internalType": "address",
							"name": "",
							"type": "address"
						},
						{
							"internalType": "address",
							"name": "",
							"type": "address"
						}
					],
					"name": "patientConsent",
					"outputs": [
						{
							"internalType": "bool",
							"name": "",
							"type": "bool"
						}
					],
					"stateMutability": "view",
					"type": "function"
				},
				{
					"inputs": [
						{
							"internalType": "address",
							"name": "",
							"type": "address"
						}
					],
					"name": "patients",
					"outputs": [
						{
							"internalType": "bool",
							"name": "isRegistered",
							"type": "bool"
						},
						{
							"internalType": "string",
							"name": "name",
							"type": "string"
						},
						{
							"internalType": "string",
							"name": "bloodType",
							"type": "string"
						},
						{
							"internalType": "string",
							"name": "phone",
							"type": "string"
						},
						{
							"internalType": "string",
							"name": "email",
							"type": "string"
						}
					],
					"stateMutability": "view",
					"type": "function"
				},
				{
					"inputs": [
						{
							"internalType": "address",
							"name": "",
							"type": "address"
						},
						{
							"internalType": "address",
							"name": "",
							"type": "address"
						}
					],
					"name": "pendingConsent",
					"outputs": [
						{
							"internalType": "bool",
							"name": "",
							"type": "bool"
						}
					],
					"stateMutability": "view",
					"type": "function"
				},
				{
					"inputs": [
						{
							"internalType": "address",
							"name": "_doctor",
							"type": "address"
						}
					],
					"name": "refuseConsent",
					"outputs": [],
					"stateMutability": "nonpayable",
					"type": "function"
				},
				{
					"inputs": [
						{
							"internalType": "string",
							"name": "_name",
							"type": "string"
						},
						{
							"internalType": "string",
							"name": "_bloodType",
							"type": "string"
						},
						{
							"internalType": "string",
							"name": "_phone",
							"type": "string"
						},
						{
							"internalType": "string",
							"name": "_email",
							"type": "string"
						}
					],
					"name": "registerPatient",
					"outputs": [],
					"stateMutability": "nonpayable",
					"type": "function"
				},
				{
					"inputs": [
						{
							"internalType": "address",
							"name": "_doctor",
							"type": "address"
						}
					],
					"name": "removeDoctor",
					"outputs": [],
					"stateMutability": "nonpayable",
					"type": "function"
				},
				{
					"inputs": [
						{
							"internalType": "address",
							"name": "_patient",
							"type": "address"
						}
					],
					"name": "requestConsent",
					"outputs": [],
					"stateMutability": "nonpayable",
					"type": "function"
				},
				{
					"inputs": [
						{
							"internalType": "address",
							"name": "_doctor",
							"type": "address"
						}
					],
					"name": "revokeConsent",
					"outputs": [],
					"stateMutability": "nonpayable",
					"type": "function"
				},
				{
					"inputs": [
						{
							"internalType": "address",
							"name": "_patient",
							"type": "address"
						},
						{
							"internalType": "string",
							"name": "_primaryCondition",
							"type": "string"
						},
						{
							"internalType": "uint8",
							"name": "_status",
							"type": "uint8"
						}
					],
					"name": "setDirectoryMetadata",
					"outputs": [],
					"stateMutability": "nonpayable",
					"type": "function"
				}
			],
			"devdoc": {
				"kind": "dev",
				"methods": {},
				"version": 1
			},
			"evm": {
				"assembly": "    /* \"contracts/HealthRecords.sol\":60:7502  contract HealthRecords {... */\n  mstore(0x40, 0xa0)\n    /* \"contracts/HealthRecords.sol\":2213:2586  constructor() {... */\n  callvalue\n  dup1\n  iszero\n  tag_1\n  jumpi\n  0x00\n  dup1\n  revert\ntag_1:\n  pop\n    /* \"contracts/HealthRecords.sol\":2246:2256  msg.sender */\n  caller\n    /* \"contracts/HealthRecords.sol\":2238:2256  owner = msg.sender */\n  0xffffffffffffffffffffffffffffffffffffffff\n  and\n  0x80\n  dup2\n  0xffffffffffffffffffffffffffffffffffffffff\n  and\n  dup2\n  mstore\n  pop\n  pop\n    /* \"contracts/HealthRecords.sol\":2284:2520  Doctor({... */\n  mload(0x40)\n  dup1\n  0xc0\n  add\n  0x40\n  mstore\n  dup1\n    /* \"contracts/HealthRecords.sol\":2320:2324  true */\n  0x01\n    /* \"contracts/HealthRecords.sol\":2284:2520  Doctor({... */\n  iszero\n  iszero\n  dup2\n  mstore\n  0x20\n  add\n  mload(0x40)\n  dup1\n  0x40\n  add\n  0x40\n  mstore\n  dup1\n  0x05\n  dup2\n  mstore\n  0x20\n  add\n  0x41646d696e000000000000000000000000000000000000000000000000000000\n  dup2\n  mstore\n  pop\n  dup2\n  mstore\n  0x20\n  add\n  mload(0x40)\n  dup1\n  0x40\n  add\n  0x40\n  mstore\n  dup1\n  0x0b\n  dup2\n  mstore\n  0x20\n  add\n  0x436c696e69632053616c65000000000000000000000000000000000000000000\n  dup2\n  mstore\n  pop\n  dup2\n  mstore\n  0x20\n  add\n  mload(0x40)\n  dup1\n  0x40\n  add\n  0x40\n  mstore\n  dup1\n  0x0d\n  dup2\n  mstore\n  0x20\n  add\n  0x4d6f726f63636f2f526162617400000000000000000000000000000000000000\n  dup2\n  mstore\n  pop\n  dup2\n  mstore\n  0x20\n  add\n  mload(0x40)\n  dup1\n  0x40\n  add\n  0x40\n  mstore\n  dup1\n  0x05\n  dup2\n  mstore\n  0x20\n  add\n  0x30383a3030000000000000000000000000000000000000000000000000000000\n  dup2\n  mstore\n  pop\n  dup2\n  mstore\n  0x20\n  add\n  mload(0x40)\n  dup1\n  0x40\n  add\n  0x40\n  mstore\n  dup1\n  0x05\n  dup2\n  mstore\n  0x20\n  add\n  0x31383a3030000000000000000000000000000000000000000000000000000000\n  dup2\n  mstore\n  pop\n  dup2\n  mstore\n  pop\n    /* \"contracts/HealthRecords.sol\":2267:2274  doctors */\n  0x01\n    /* \"contracts/HealthRecords.sol\":2267:2281  doctors[owner] */\n  0x00\n    /* \"contracts/HealthRecords.sol\":2275:2280  owner */\n  mload(0x80)\n    /* \"contracts/HealthRecords.sol\":2267:2281  doctors[owner] */\n  0xffffffffffffffffffffffffffffffffffffffff\n  and\n  0xffffffffffffffffffffffffffffffffffffffff\n  and\n  dup2\n  mstore\n  0x20\n  add\n  swap1\n  dup2\n  mstore\n  0x20\n  add\n  0x00\n  keccak256\n    /* \"contracts/HealthRecords.sol\":2267:2520  doctors[owner] = Doctor({... */\n  0x00\n  dup3\n  add\n  mload\n  dup2\n  0x00\n  add\n  exp(0x0100, 0x00)\n  dup2\n  sload\n  dup2\n  0xff\n  mul\n  not\n  and\n  swap1\n  dup4\n  iszero\n  iszero\n  mul\n  or\n  swap1\n  sstore\n  pop\n  0x20\n  dup3\n  add\n  mload\n  dup2\n  0x01\n  add\n  swap1\n  dup2\n  tag_4\n  swap2\n  swap1\n  tag_5\n  jump\t// in\ntag_4:\n  pop\n  0x40\n  dup3\n  add\n  mload\n  dup2\n  0x02\n  add\n  swap1\n  dup2\n  tag_6\n  swap2\n  swap1\n  tag_5\n  jump\t// in\ntag_6:\n  pop\n  0x60\n  dup3\n  add\n  mload\n  dup2\n  0x03\n  add\n  swap1\n  dup2\n  tag_7\n  swap2\n  swap1\n  tag_5\n  jump\t// in\ntag_7:\n  pop\n  0x80\n  dup3\n  add\n  mload\n  dup2\n  0x04\n  add\n  swap1\n  dup2\n  tag_8\n  swap2\n  swap1\n  tag_5\n  jump\t// in\ntag_8:\n  pop\n  0xa0\n  dup3\n  add\n  mload\n  dup2\n  0x05\n  add\n  swap1\n  dup2\n  tag_9\n  swap2\n  swap1\n  tag_5\n  jump\t// in\ntag_9:\n  pop\n  swap1\n  pop\n  pop\n    /* \"contracts/HealthRecords.sol\":2548:2553  owner */\n  mload(0x80)\n    /* \"contracts/HealthRecords.sol\":2536:2578  DoctorAdded(owner, \"Admin\", \"Clinic Sale\") */\n  0xffffffffffffffffffffffffffffffffffffffff\n  and\n  0x9388661dcd7dc6cff9b4e22ab9459ac0a2682f86cb52fc7a669a6e7f062bce4c\n  mload(0x40)\n  tag_10\n  swap1\n  tag_11\n  jump\t// in\ntag_10:\n  mload(0x40)\n  dup1\n  swap2\n  sub\n  swap1\n  log2\n    /* \"contracts/HealthRecords.sol\":60:7502  contract HealthRecords {... */\n  jump(tag_12)\n    /* \"#utility.yul\":7:106   */\ntag_13:\n    /* \"#utility.yul\":59:65   */\n  0x00\n    /* \"#utility.yul\":93:98   */\n  dup2\n    /* \"#utility.yul\":87:99   */\n  mload\n    /* \"#utility.yul\":77:99   */\n  swap1\n  pop\n    /* \"#utility.yul\":7:106   */\n  swap2\n  swap1\n  pop\n  jump\t// out\n    /* \"#utility.yul\":112:292   */\ntag_14:\n    /* \"#utility.yul\":160:237   */\n  0x4e487b7100000000000000000000000000000000000000000000000000000000\n    /* \"#utility.yul\":157:158   */\n  0x00\n    /* \"#utility.yul\":150:238   */\n  mstore\n    /* \"#utility.yul\":257:261   */\n  0x41\n    /* \"#utility.yul\":254:255   */\n  0x04\n    /* \"#utility.yul\":247:262   */\n  mstore\n    /* \"#utility.yul\":281:285   */\n  0x24\n    /* \"#utility.yul\":278:279   */\n  0x00\n    /* \"#utility.yul\":271:286   */\n  revert\n    /* \"#utility.yul\":298:478   */\ntag_15:\n    /* \"#utility.yul\":346:423   */\n  0x4e487b7100000000000000000000000000000000000000000000000000000000\n    /* \"#utility.yul\":343:344   */\n  0x00\n    /* \"#utility.yul\":336:424   */\n  mstore\n    /* \"#utility.yul\":443:447   */\n  0x22\n    /* \"#utility.yul\":440:441   */\n  0x04\n    /* \"#utility.yul\":433:448   */\n  mstore\n    /* \"#utility.yul\":467:471   */\n  0x24\n    /* \"#utility.yul\":464:465   */\n  0x00\n    /* \"#utility.yul\":457:472   */\n  revert\n    /* \"#utility.yul\":484:804   */\ntag_16:\n    /* \"#utility.yul\":528:534   */\n  0x00\n    /* \"#utility.yul\":565:566   */\n  0x02\n    /* \"#utility.yul\":559:563   */\n  dup3\n    /* \"#utility.yul\":555:567   */\n  div\n    /* \"#utility.yul\":545:567   */\n  swap1\n  pop\n    /* \"#utility.yul\":612:613   */\n  0x01\n    /* \"#utility.yul\":606:610   */\n  dup3\n    /* \"#utility.yul\":602:614   */\n  and\n    /* \"#utility.yul\":633:651   */\n  dup1\n    /* \"#utility.yul\":623:704   */\n  tag_43\n  jumpi\n    /* \"#utility.yul\":689:693   */\n  0x7f\n    /* \"#utility.yul\":681:687   */\n  dup3\n    /* \"#utility.yul\":677:694   */\n  and\n    /* \"#utility.yul\":667:694   */\n  swap2\n  pop\n    /* \"#utility.yul\":623:704   */\ntag_43:\n    /* \"#utility.yul\":751:753   */\n  0x20\n    /* \"#utility.yul\":743:749   */\n  dup3\n    /* \"#utility.yul\":740:754   */\n  lt\n    /* \"#utility.yul\":720:738   */\n  dup2\n    /* \"#utility.yul\":717:755   */\n  sub\n    /* \"#utility.yul\":714:798   */\n  tag_44\n  jumpi\n    /* \"#utility.yul\":770:788   */\n  tag_45\n  tag_15\n  jump\t// in\ntag_45:\n    /* \"#utility.yul\":714:798   */\ntag_44:\n    /* \"#utility.yul\":535:804   */\n  pop\n    /* \"#utility.yul\":484:804   */\n  swap2\n  swap1\n  pop\n  jump\t// out\n    /* \"#utility.yul\":810:951   */\ntag_17:\n    /* \"#utility.yul\":859:863   */\n  0x00\n    /* \"#utility.yul\":882:885   */\n  dup2\n    /* \"#utility.yul\":874:885   */\n  swap1\n  pop\n    /* \"#utility.yul\":905:908   */\n  dup2\n    /* \"#utility.yul\":902:903   */\n  0x00\n    /* \"#utility.yul\":895:909   */\n  mstore\n    /* \"#utility.yul\":939:943   */\n  0x20\n    /* \"#utility.yul\":936:937   */\n  0x00\n    /* \"#utility.yul\":926:944   */\n  keccak256\n    /* \"#utility.yul\":918:944   */\n  swap1\n  pop\n    /* \"#utility.yul\":810:951   */\n  swap2\n  swap1\n  pop\n  jump\t// out\n    /* \"#utility.yul\":957:1050   */\ntag_18:\n    /* \"#utility.yul\":994:1000   */\n  0x00\n    /* \"#utility.yul\":1041:1043   */\n  0x20\n    /* \"#utility.yul\":1036:1038   */\n  0x1f\n    /* \"#utility.yul\":1029:1034   */\n  dup4\n    /* \"#utility.yul\":1025:1039   */\n  add\n    /* \"#utility.yul\":1021:1044   */\n  div\n    /* \"#utility.yul\":1011:1044   */\n  swap1\n  pop\n    /* \"#utility.yul\":957:1050   */\n  swap2\n  swap1\n  pop\n  jump\t// out\n    /* \"#utility.yul\":1056:1163   */\ntag_19:\n    /* \"#utility.yul\":1100:1108   */\n  0x00\n    /* \"#utility.yul\":1150:1155   */\n  dup3\n    /* \"#utility.yul\":1144:1148   */\n  dup3\n    /* \"#utility.yul\":1140:1156   */\n  shl\n    /* \"#utility.yul\":1119:1156   */\n  swap1\n  pop\n    /* \"#utility.yul\":1056:1163   */\n  swap3\n  swap2\n  pop\n  pop\n  jump\t// out\n    /* \"#utility.yul\":1169:1562   */\ntag_20:\n    /* \"#utility.yul\":1238:1244   */\n  0x00\n    /* \"#utility.yul\":1288:1289   */\n  0x08\n    /* \"#utility.yul\":1276:1286   */\n  dup4\n    /* \"#utility.yul\":1272:1290   */\n  mul\n    /* \"#utility.yul\":1311:1408   */\n  tag_50\n    /* \"#utility.yul\":1341:1407   */\n  0xffffffffffffffffffffffffffffffffffffffffffffffffffffffffffffffff\n    /* \"#utility.yul\":1330:1339   */\n  dup3\n    /* \"#utility.yul\":1311:1408   */\n  tag_19\n  jump\t// in\ntag_50:\n    /* \"#utility.yul\":1429:1468   */\n  tag_51\n    /* \"#utility.yul\":1459:1467   */\n  dup7\n    /* \"#utility.yul\":1448:1457   */\n  dup4\n    /* \"#utility.yul\":1429:1468   */\n  tag_19\n  jump\t// in\ntag_51:\n    /* \"#utility.yul\":1417:1468   */\n  swap6\n  pop\n    /* \"#utility.yul\":1501:1505   */\n  dup1\n    /* \"#utility.yul\":1497:1506   */\n  not\n    /* \"#utility.yul\":1490:1495   */\n  dup5\n    /* \"#utility.yul\":1486:1507   */\n  and\n    /* \"#utility.yul\":1477:1507   */\n  swap4\n  pop\n    /* \"#utility.yul\":1550:1554   */\n  dup1\n    /* \"#utility.yul\":1540:1548   */\n  dup7\n    /* \"#utility.yul\":1536:1555   */\n  and\n    /* \"#utility.yul\":1529:1534   */\n  dup5\n    /* \"#utility.yul\":1526:1556   */\n  or\n    /* \"#utility.yul\":1516:1556   */\n  swap3\n  pop\n    /* \"#utility.yul\":1245:1562   */\n  pop\n  pop\n    /* \"#utility.yul\":1169:1562   */\n  swap4\n  swap3\n  pop\n  pop\n  pop\n  jump\t// out\n    /* \"#utility.yul\":1568:1645   */\ntag_21:\n    /* \"#utility.yul\":1605:1612   */\n  0x00\n    /* \"#utility.yul\":1634:1639   */\n  dup2\n    /* \"#utility.yul\":1623:1639   */\n  swap1\n  pop\n    /* \"#utility.yul\":1568:1645   */\n  swap2\n  swap1\n  pop\n  jump\t// out\n    /* \"#utility.yul\":1651:1711   */\ntag_22:\n    /* \"#utility.yul\":1679:1682   */\n  0x00\n    /* \"#utility.yul\":1700:1705   */\n  dup2\n    /* \"#utility.yul\":1693:1705   */\n  swap1\n  pop\n    /* \"#utility.yul\":1651:1711   */\n  swap2\n  swap1\n  pop\n  jump\t// out\n    /* \"#utility.yul\":1717:1859   */\ntag_23:\n    /* \"#utility.yul\":1767:1776   */\n  0x00\n    /* \"#utility.yul\":1800:1853   */\n  tag_55\n    /* \"#utility.yul\":1818:1852   */\n  tag_56\n    /* \"#utility.yul\":1827:1851   */\n  tag_57\n    /* \"#utility.yul\":1845:1850   */\n  dup5\n    /* \"#utility.yul\":1827:1851   */\n  tag_21\n  jump\t// in\ntag_57:\n    /* \"#utility.yul\":1818:1852   */\n  tag_22\n  jump\t// in\ntag_56:\n    /* \"#utility.yul\":1800:1853   */\n  tag_21\n  jump\t// in\ntag_55:\n    /* \"#utility.yul\":1787:1853   */\n  swap1\n  pop\n    /* \"#utility.yul\":1717:1859   */\n  swap2\n  swap1\n  pop\n  jump\t// out\n    /* \"#utility.yul\":1865:1940   */\ntag_24:\n    /* \"#utility.yul\":1908:1911   */\n  0x00\n    /* \"#utility.yul\":1929:1934   */\n  dup2\n    /* \"#utility.yul\":1922:1934   */\n  swap1\n  pop\n    /* \"#utility.yul\":1865:1940   */\n  swap2\n  swap1\n  pop\n  jump\t// out\n    /* \"#utility.yul\":1946:2215   */\ntag_25:\n    /* \"#utility.yul\":2056:2095   */\n  tag_60\n    /* \"#utility.yul\":2087:2094   */\n  dup4\n    /* \"#utility.yul\":2056:2095   */\n  tag_23\n  jump\t// in\ntag_60:\n    /* \"#utility.yul\":2117:2208   */\n  tag_61\n    /* \"#utility.yul\":2166:2207   */\n  tag_62\n    /* \"#utility.yul\":2190:2206   */\n  dup3\n    /* \"#utility.yul\":2166:2207   */\n  tag_24\n  jump\t// in\ntag_62:\n    /* \"#utility.yul\":2158:2164   */\n  dup5\n    /* \"#utility.yul\":2151:2155   */\n  dup5\n    /* \"#utility.yul\":2145:2156   */\n  sload\n    /* \"#utility.yul\":2117:2208   */\n  tag_20\n  jump\t// in\ntag_61:\n    /* \"#utility.yul\":2111:2115   */\n  dup3\n    /* \"#utility.yul\":2104:2209   */\n  sstore\n    /* \"#utility.yul\":2022:2215   */\n  pop\n    /* \"#utility.yul\":1946:2215   */\n  pop\n  pop\n  pop\n  jump\t// out\n    /* \"#utility.yul\":2221:2294   */\ntag_26:\n    /* \"#utility.yul\":2266:2269   */\n  0x00\n    /* \"#utility.yul\":2221:2294   */\n  swap1\n  jump\t// out\n    /* \"#utility.yul\":2300:2489   */\ntag_27:\n    /* \"#utility.yul\":2377:2409   */\n  tag_65\n  tag_26\n  jump\t// in\ntag_65:\n    /* \"#utility.yul\":2418:2483   */\n  tag_66\n    /* \"#utility.yul\":2476:2482   */\n  dup2\n    /* \"#utility.yul\":2468:2474   */\n  dup5\n    /* \"#utility.yul\":2462:2466   */\n  dup5\n    /* \"#utility.yul\":2418:2483   */\n  tag_25\n  jump\t// in\ntag_66:\n    /* \"#utility.yul\":2353:2489   */\n  pop\n    /* \"#utility.yul\":2300:2489   */\n  pop\n  pop\n  jump\t// out\n    /* \"#utility.yul\":2495:2681   */\ntag_28:\n    /* \"#utility.yul\":2555:2675   */\ntag_68:\n    /* \"#utility.yul\":2572:2575   */\n  dup2\n    /* \"#utility.yul\":2565:2570   */\n  dup2\n    /* \"#utility.yul\":2562:2576   */\n  lt\n    /* \"#utility.yul\":2555:2675   */\n  iszero\n  tag_70\n  jumpi\n    /* \"#utility.yul\":2626:2665   */\n  tag_71\n    /* \"#utility.yul\":2663:2664   */\n  0x00\n    /* \"#utility.yul\":2656:2661   */\n  dup3\n    /* \"#utility.yul\":2626:2665   */\n  tag_27\n  jump\t// in\ntag_71:\n    /* \"#utility.yul\":2599:2600   */\n  0x01\n    /* \"#utility.yul\":2592:2597   */\n  dup2\n    /* \"#utility.yul\":2588:2601   */\n  add\n    /* \"#utility.yul\":2579:2601   */\n  swap1\n  pop\n    /* \"#utility.yul\":2555:2675   */\n  jump(tag_68)\ntag_70:\n    /* \"#utility.yul\":2495:2681   */\n  pop\n  pop\n  jump\t// out\n    /* \"#utility.yul\":2687:3230   */\ntag_29:\n    /* \"#utility.yul\":2788:2790   */\n  0x1f\n    /* \"#utility.yul\":2783:2786   */\n  dup3\n    /* \"#utility.yul\":2780:2791   */\n  gt\n    /* \"#utility.yul\":2777:3223   */\n  iszero\n  tag_73\n  jumpi\n    /* \"#utility.yul\":2822:2860   */\n  tag_74\n    /* \"#utility.yul\":2854:2859   */\n  dup2\n    /* \"#utility.yul\":2822:2860   */\n  tag_17\n  jump\t// in\ntag_74:\n    /* \"#utility.yul\":2906:2935   */\n  tag_75\n    /* \"#utility.yul\":2924:2934   */\n  dup5\n    /* \"#utility.yul\":2906:2935   */\n  tag_18\n  jump\t// in\ntag_75:\n    /* \"#utility.yul\":2896:2904   */\n  dup2\n    /* \"#utility.yul\":2892:2936   */\n  add\n    /* \"#utility.yul\":3089:3091   */\n  0x20\n    /* \"#utility.yul\":3077:3087   */\n  dup6\n    /* \"#utility.yul\":3074:3092   */\n  lt\n    /* \"#utility.yul\":3071:3120   */\n  iszero\n  tag_76\n  jumpi\n    /* \"#utility.yul\":3110:3118   */\n  dup2\n    /* \"#utility.yul\":3095:3118   */\n  swap1\n  pop\n    /* \"#utility.yul\":3071:3120   */\ntag_76:\n    /* \"#utility.yul\":3133:3213   */\n  tag_77\n    /* \"#utility.yul\":3189:3211   */\n  tag_78\n    /* \"#utility.yul\":3207:3210   */\n  dup6\n    /* \"#utility.yul\":3189:3211   */\n  tag_18\n  jump\t// in\ntag_78:\n    /* \"#utility.yul\":3179:3187   */\n  dup4\n    /* \"#utility.yul\":3175:3212   */\n  add\n    /* \"#utility.yul\":3162:3173   */\n  dup3\n    /* \"#utility.yul\":3133:3213   */\n  tag_28\n  jump\t// in\ntag_77:\n    /* \"#utility.yul\":2792:3223   */\n  pop\n  pop\n    /* \"#utility.yul\":2777:3223   */\ntag_73:\n    /* \"#utility.yul\":2687:3230   */\n  pop\n  pop\n  pop\n  jump\t// out\n    /* \"#utility.yul\":3236:3353   */\ntag_30:\n    /* \"#utility.yul\":3290:3298   */\n  0x00\n    /* \"#utility.yul\":3340:3345   */\n  dup3\n    /* \"#utility.yul\":3334:3338   */\n  dup3\n    /* \"#utility.yul\":3330:3346   */\n  shr\n    /* \"#utility.yul\":3309:3346   */\n  swap1\n  pop\n    /* \"#utility.yul\":3236:3353   */\n  swap3\n  swap2\n  pop\n  pop\n  jump\t// out\n    /* \"#utility.yul\":3359:3528   */\ntag_31:\n    /* \"#utility.yul\":3403:3409   */\n  0x00\n    /* \"#utility.yul\":3436:3487   */\n  tag_81\n    /* \"#utility.yul\":3484:3485   */\n  0x00\n    /* \"#utility.yul\":3480:3486   */\n  not\n    /* \"#utility.yul\":3472:3477   */\n  dup5\n    /* \"#utility.yul\":3469:3470   */\n  0x08\n    /* \"#utility.yul\":3465:3478   */\n  mul\n    /* \"#utility.yul\":3436:3487   */\n  tag_30\n  jump\t// in\ntag_81:\n    /* \"#utility.yul\":3432:3488   */\n  not\n    /* \"#utility.yul\":3517:3521   */\n  dup1\n    /* \"#utility.yul\":3511:3515   */\n  dup4\n    /* \"#utility.yul\":3507:3522   */\n  and\n    /* \"#utility.yul\":3497:3522   */\n  swap2\n  pop\n    /* \"#utility.yul\":3410:3528   */\n  pop\n    /* \"#utility.yul\":3359:3528   */\n  swap3\n  swap2\n  pop\n  pop\n  jump\t// out\n    /* \"#utility.yul\":3533:3828   */\ntag_32:\n    /* \"#utility.yul\":3609:3613   */\n  0x00\n    /* \"#utility.yul\":3755:3784   */\n  tag_83\n    /* \"#utility.yul\":3780:3783   */\n  dup4\n    /* \"#utility.yul\":3774:3778   */\n  dup4\n    /* \"#utility.yul\":3755:3784   */\n  tag_31\n  jump\t// in\ntag_83:\n    /* \"#utility.yul\":3747:3784   */\n  swap2\n  pop\n    /* \"#utility.yul\":3817:3820   */\n  dup3\n    /* \"#utility.yul\":3814:3815   */\n  0x02\n    /* \"#utility.yul\":3810:3821   */\n  mul\n    /* \"#utility.yul\":3804:3808   */\n  dup3\n    /* \"#utility.yul\":3801:3822   */\n  or\n    /* \"#utility.yul\":3793:3822   */\n  swap1\n  pop\n    /* \"#utility.yul\":3533:3828   */\n  swap3\n  swap2\n  pop\n  pop\n  jump\t// out\n    /* \"#utility.yul\":3833:5228   */\ntag_5:\n    /* \"#utility.yul\":3950:3987   */\n  tag_85\n    /* \"#utility.yul\":3983:3986   */\n  dup3\n    /* \"#utility.yul\":3950:3987   */\n  tag_13\n  jump\t// in\ntag_85:\n    /* \"#utility.yul\":4052:4070   */\n  0xffffffffffffffff\n    /* \"#utility.yul\":4044:4050   */\n  dup2\n    /* \"#utility.yul\":4041:4071   */\n  gt\n    /* \"#utility.yul\":4038:4094   */\n  iszero\n  tag_86\n  jumpi\n    /* \"#utility.yul\":4074:4092   */\n  tag_87\n  tag_14\n  jump\t// in\ntag_87:\n    /* \"#utility.yul\":4038:4094   */\ntag_86:\n    /* \"#utility.yul\":4118:4156   */\n  tag_88\n    /* \"#utility.yul\":4150:4154   */\n  dup3\n    /* \"#utility.yul\":4144:4155   */\n  sload\n    /* \"#utility.yul\":4118:4156   */\n  tag_16\n  jump\t// in\ntag_88:\n    /* \"#utility.yul\":4203:4270   */\n  tag_89\n    /* \"#utility.yul\":4263:4269   */\n  dup3\n    /* \"#utility.yul\":4255:4261   */\n  dup3\n    /* \"#utility.yul\":4249:4253   */\n  dup6\n    /* \"#utility.yul\":4203:4270   */\n  tag_29\n  jump\t// in\ntag_89:\n    /* \"#utility.yul\":4297:4298   */\n  0x00\n    /* \"#utility.yul\":4321:4325   */\n  0x20\n    /* \"#utility.yul\":4308:4325   */\n  swap1\n  pop\n    /* \"#utility.yul\":4353:4355   */\n  0x1f\n    /* \"#utility.yul\":4345:4351   */\n  dup4\n    /* \"#utility.yul\":4342:4356   */\n  gt\n    /* \"#utility.yul\":4370:4371   */\n  0x01\n    /* \"#utility.yul\":4365:4983   */\n  dup2\n  eq\n  tag_91\n  jumpi\n    /* \"#utility.yul\":5027:5028   */\n  0x00\n    /* \"#utility.yul\":5044:5050   */\n  dup5\n    /* \"#utility.yul\":5041:5118   */\n  iszero\n  tag_92\n  jumpi\n    /* \"#utility.yul\":5093:5102   */\n  dup3\n    /* \"#utility.yul\":5088:5091   */\n  dup8\n    /* \"#utility.yul\":5084:5103   */\n  add\n    /* \"#utility.yul\":5078:5104   */\n  mload\n    /* \"#utility.yul\":5069:5104   */\n  swap1\n  pop\n    /* \"#utility.yul\":5041:5118   */\ntag_92:\n    /* \"#utility.yul\":5144:5211   */\n  tag_93\n    /* \"#utility.yul\":5204:5210   */\n  dup6\n    /* \"#utility.yul\":5197:5202   */\n  dup3\n    /* \"#utility.yul\":5144:5211   */\n  tag_32\n  jump\t// in\ntag_93:\n    /* \"#utility.yul\":5138:5142   */\n  dup7\n    /* \"#utility.yul\":5131:5212   */\n  sstore\n    /* \"#utility.yul\":5000:5222   */\n  pop\n    /* \"#utility.yul\":4335:5222   */\n  jump(tag_90)\n    /* \"#utility.yul\":4365:4983   */\ntag_91:\n    /* \"#utility.yul\":4417:4421   */\n  0x1f\n    /* \"#utility.yul\":4413:4422   */\n  not\n    /* \"#utility.yul\":4405:4411   */\n  dup5\n    /* \"#utility.yul\":4401:4423   */\n  and\n    /* \"#utility.yul\":4451:4488   */\n  tag_94\n    /* \"#utility.yul\":4483:4487   */\n  dup7\n    /* \"#utility.yul\":4451:4488   */\n  tag_17\n  jump\t// in\ntag_94:\n    /* \"#utility.yul\":4510:4511   */\n  0x00\n    /* \"#utility.yul\":4524:4732   */\ntag_95:\n    /* \"#utility.yul\":4538:4545   */\n  dup3\n    /* \"#utility.yul\":4535:4536   */\n  dup2\n    /* \"#utility.yul\":4532:4546   */\n  lt\n    /* \"#utility.yul\":4524:4732   */\n  iszero\n  tag_97\n  jumpi\n    /* \"#utility.yul\":4617:4626   */\n  dup5\n    /* \"#utility.yul\":4612:4615   */\n  dup10\n    /* \"#utility.yul\":4608:4627   */\n  add\n    /* \"#utility.yul\":4602:4628   */\n  mload\n    /* \"#utility.yul\":4594:4600   */\n  dup3\n    /* \"#utility.yul\":4587:4629   */\n  sstore\n    /* \"#utility.yul\":4668:4669   */\n  0x01\n    /* \"#utility.yul\":4660:4666   */\n  dup3\n    /* \"#utility.yul\":4656:4670   */\n  add\n    /* \"#utility.yul\":4646:4670   */\n  swap2\n  pop\n    /* \"#utility.yul\":4715:4717   */\n  0x20\n    /* \"#utility.yul\":4704:4713   */\n  dup6\n    /* \"#utility.yul\":4700:4718   */\n  add\n    /* \"#utility.yul\":4687:4718   */\n  swap5\n  pop\n    /* \"#utility.yul\":4561:4565   */\n  0x20\n    /* \"#utility.yul\":4558:4559   */\n  dup2\n    /* \"#utility.yul\":4554:4566   */\n  add\n    /* \"#utility.yul\":4549:4566   */\n  swap1\n  pop\n    /* \"#utility.yul\":4524:4732   */\n  jump(tag_95)\ntag_97:\n    /* \"#utility.yul\":4760:4766   */\n  dup7\n    /* \"#utility.yul\":4751:4758   */\n  dup4\n    /* \"#utility.yul\":4748:4767   */\n  lt\n    /* \"#utility.yul\":4745:4924   */\n  iszero\n  tag_98\n  jumpi\n    /* \"#utility.yul\":4818:4827   */\n  dup5\n    /* \"#utility.yul\":4813:4816   */\n  dup10\n    /* \"#utility.yul\":4809:4828   */\n  add\n    /* \"#utility.yul\":4803:4829   */\n  mload\n    /* \"#utility.yul\":4861:4909   */\n  tag_99\n    /* \"#utility.yul\":4903:4907   */\n  0x1f\n    /* \"#utility.yul\":4895:4901   */\n  dup10\n    /* \"#utility.yul\":4891:4908   */\n  and\n    /* \"#utility.yul\":4880:4889   */\n  dup3\n    /* \"#utility.yul\":4861:4909   */\n  tag_31\n  jump\t// in\ntag_99:\n    /* \"#utility.yul\":4853:4859   */\n  dup4\n    /* \"#utility.yul\":4846:4910   */\n  sstore\n    /* \"#utility.yul\":4768:4924   */\n  pop\n    /* \"#utility.yul\":4745:4924   */\ntag_98:\n    /* \"#utility.yul\":4970:4971   */\n  0x01\n    /* \"#utility.yul\":4966:4967   */\n  0x02\n    /* \"#utility.yul\":4958:4964   */\n  dup9\n    /* \"#utility.yul\":4954:4968   */\n  mul\n    /* \"#utility.yul\":4950:4972   */\n  add\n    /* \"#utility.yul\":4944:4948   */\n  dup9\n    /* \"#utility.yul\":4937:4973   */\n  sstore\n    /* \"#utility.yul\":4372:4983   */\n  pop\n  pop\n  pop\n    /* \"#utility.yul\":4335:5222   */\ntag_90:\n  pop\n    /* \"#utility.yul\":3925:5228   */\n  pop\n  pop\n  pop\n    /* \"#utility.yul\":3833:5228   */\n  pop\n  pop\n  jump\t// out\n    /* \"#utility.yul\":5234:5403   */\ntag_33:\n    /* \"#utility.yul\":5318:5329   */\n  0x00\n    /* \"#utility.yul\":5352:5358   */\n  dup3\n    /* \"#utility.yul\":5347:5350   */\n  dup3\n    /* \"#utility.yul\":5340:5359   */\n  mstore\n    /* \"#utility.yul\":5392:5396   */\n  0x20\n    /* \"#utility.yul\":5387:5390   */\n  dup3\n    /* \"#utility.yul\":5383:5397   */\n  add\n    /* \"#utility.yul\":5368:5397   */\n  swap1\n  pop\n    /* \"#utility.yul\":5234:5403   */\n  swap3\n  swap2\n  pop\n  pop\n  jump\t// out\n    /* \"#utility.yul\":5409:5564   */\ntag_34:\n    /* \"#utility.yul\":5549:5556   */\n  0x41646d696e000000000000000000000000000000000000000000000000000000\n    /* \"#utility.yul\":5545:5546   */\n  0x00\n    /* \"#utility.yul\":5537:5543   */\n  dup3\n    /* \"#utility.yul\":5533:5547   */\n  add\n    /* \"#utility.yul\":5526:5557   */\n  mstore\n    /* \"#utility.yul\":5409:5564   */\n  pop\n  jump\t// out\n    /* \"#utility.yul\":5570:5935   */\ntag_35:\n    /* \"#utility.yul\":5712:5715   */\n  0x00\n    /* \"#utility.yul\":5733:5799   */\n  tag_103\n    /* \"#utility.yul\":5797:5798   */\n  0x05\n    /* \"#utility.yul\":5792:5795   */\n  dup4\n    /* \"#utility.yul\":5733:5799   */\n  tag_33\n  jump\t// in\ntag_103:\n    /* \"#utility.yul\":5726:5799   */\n  swap2\n  pop\n    /* \"#utility.yul\":5808:5901   */\n  tag_104\n    /* \"#utility.yul\":5897:5900   */\n  dup3\n    /* \"#utility.yul\":5808:5901   */\n  tag_34\n  jump\t// in\ntag_104:\n    /* \"#utility.yul\":5926:5928   */\n  0x20\n    /* \"#utility.yul\":5921:5924   */\n  dup3\n    /* \"#utility.yul\":5917:5929   */\n  add\n    /* \"#utility.yul\":5910:5929   */\n  swap1\n  pop\n    /* \"#utility.yul\":5570:5935   */\n  swap2\n  swap1\n  pop\n  jump\t// out\n    /* \"#utility.yul\":5941:6102   */\ntag_36:\n    /* \"#utility.yul\":6081:6094   */\n  0x436c696e69632053616c65000000000000000000000000000000000000000000\n    /* \"#utility.yul\":6077:6078   */\n  0x00\n    /* \"#utility.yul\":6069:6075   */\n  dup3\n    /* \"#utility.yul\":6065:6079   */\n  add\n    /* \"#utility.yul\":6058:6095   */\n  mstore\n    /* \"#utility.yul\":5941:6102   */\n  pop\n  jump\t// out\n    /* \"#utility.yul\":6108:6474   */\ntag_37:\n    /* \"#utility.yul\":6250:6253   */\n  0x00\n    /* \"#utility.yul\":6271:6338   */\n  tag_107\n    /* \"#utility.yul\":6335:6337   */\n  0x0b\n    /* \"#utility.yul\":6330:6333   */\n  dup4\n    /* \"#utility.yul\":6271:6338   */\n  tag_33\n  jump\t// in\ntag_107:\n    /* \"#utility.yul\":6264:6338   */\n  swap2\n  pop\n    /* \"#utility.yul\":6347:6440   */\n  tag_108\n    /* \"#utility.yul\":6436:6439   */\n  dup3\n    /* \"#utility.yul\":6347:6440   */\n  tag_36\n  jump\t// in\ntag_108:\n    /* \"#utility.yul\":6465:6467   */\n  0x20\n    /* \"#utility.yul\":6460:6463   */\n  dup3\n    /* \"#utility.yul\":6456:6468   */\n  add\n    /* \"#utility.yul\":6449:6468   */\n  swap1\n  pop\n    /* \"#utility.yul\":6108:6474   */\n  swap2\n  swap1\n  pop\n  jump\t// out\n    /* \"#utility.yul\":6480:7206   */\ntag_11:\n    /* \"#utility.yul\":6747:6751   */\n  0x00\n    /* \"#utility.yul\":6785:6787   */\n  0x40\n    /* \"#utility.yul\":6774:6783   */\n  dup3\n    /* \"#utility.yul\":6770:6788   */\n  add\n    /* \"#utility.yul\":6762:6788   */\n  swap1\n  pop\n    /* \"#utility.yul\":6834:6843   */\n  dup2\n    /* \"#utility.yul\":6828:6832   */\n  dup2\n    /* \"#utility.yul\":6824:6844   */\n  sub\n    /* \"#utility.yul\":6820:6821   */\n  0x00\n    /* \"#utility.yul\":6809:6818   */\n  dup4\n    /* \"#utility.yul\":6805:6822   */\n  add\n    /* \"#utility.yul\":6798:6845   */\n  mstore\n    /* \"#utility.yul\":6862:6993   */\n  tag_110\n    /* \"#utility.yul\":6988:6992   */\n  dup2\n    /* \"#utility.yul\":6862:6993   */\n  tag_35\n  jump\t// in\ntag_110:\n    /* \"#utility.yul\":6854:6993   */\n  swap1\n  pop\n    /* \"#utility.yul\":7040:7049   */\n  dup2\n    /* \"#utility.yul\":7034:7038   */\n  dup2\n    /* \"#utility.yul\":7030:7050   */\n  sub\n    /* \"#utility.yul\":7025:7027   */\n  0x20\n    /* \"#utility.yul\":7014:7023   */\n  dup4\n    /* \"#utility.yul\":7010:7028   */\n  add\n    /* \"#utility.yul\":7003:7051   */\n  mstore\n    /* \"#utility.yul\":7068:7199   */\n  tag_111\n    /* \"#utility.yul\":7194:7198   */\n  dup2\n    /* \"#utility.yul\":7068:7199   */\n  tag_37\n  jump\t// in\ntag_111:\n    /* \"#utility.yul\":7060:7199   */\n  swap1\n  pop\n    /* \"#utility.yul\":6480:7206   */\n  swap2\n  swap1\n  pop\n  jump\t// out\n    /* \"contracts/HealthRecords.sol\":60:7502  contract HealthRecords {... */\ntag_12:\n  mload(0x80)\n  codecopy(0x00, dataOffset(sub_0), dataSize(sub_0))\n  0x00\n  assignImmutable(\"0x2a80e1ef1d7842f27f2e6be0972bb708b9a135c38860dbe73c27c3486c34f4de\")\n  return(0x00, dataSize(sub_0))\nstop\n\nsub_0: assembly {\n        /* \"contracts/HealthRecords.sol\":60:7502  contract HealthRecords {... */\n      mstore(0x40, 0x80)\n      callvalue\n      dup1\n      iszero\n      tag_1\n      jumpi\n      0x00\n      dup1\n      revert\n    tag_1:\n      pop\n      jumpi(tag_2, lt(calldatasize, 0x04))\n      shr(0xe0, calldataload(0x00))\n      dup1\n      0x87fee61c\n      gt\n      tag_20\n      jumpi\n      dup1\n      0xa46aef40\n      gt\n      tag_21\n      jumpi\n      dup1\n      0xa46aef40\n      eq\n      tag_15\n      jumpi\n      dup1\n      0xa79861f1\n      eq\n      tag_16\n      jumpi\n      dup1\n      0xa9583c22\n      eq\n      tag_17\n      jumpi\n      dup1\n      0xd1a48627\n      eq\n      tag_18\n      jumpi\n      dup1\n      0xf68b68f6\n      eq\n      tag_19\n      jumpi\n      jump(tag_2)\n    tag_21:\n      dup1\n      0x87fee61c\n      eq\n      tag_11\n      jumpi\n      dup1\n      0x8da5cb5b\n      eq\n      tag_12\n      jumpi\n      dup1\n      0x9897cf96\n      eq\n      tag_13\n      jumpi\n      dup1\n      0x98fc90e9\n      eq\n      tag_14\n      jumpi\n      jump(tag_2)\n    tag_20:\n      dup1\n      0x461a2082\n      gt\n      tag_22\n      jumpi\n      dup1\n      0x461a2082\n      eq\n      tag_7\n      jumpi\n      dup1\n      0x4ba0a020\n      eq\n      tag_8\n      jumpi\n      dup1\n      0x53c1a042\n      eq\n      tag_9\n      jumpi\n      dup1\n      0x5cbcd8eb\n      eq\n      tag_10\n      jumpi\n      jump(tag_2)\n    tag_22:\n      dup1\n      0x037f8248\n      eq\n      tag_3\n      jumpi\n      dup1\n      0x0869cfbc\n      eq\n      tag_4\n      jumpi\n      dup1\n      0x1128c9ea\n      eq\n      tag_5\n      jumpi\n      dup1\n      0x1e6a315c\n      eq\n      tag_6\n      jumpi\n    tag_2:\n      0x00\n      dup1\n      revert\n        /* \"contracts/HealthRecords.sol\":5829:6290  function requestConsent(address _patient) public onlyDoctor {... */\n    tag_3:\n      tag_23\n      0x04\n      dup1\n      calldatasize\n      sub\n      dup2\n      add\n      swap1\n      tag_24\n      swap2\n      swap1\n      tag_25\n      jump\t// in\n    tag_24:\n      tag_26\n      jump\t// in\n    tag_23:\n      stop\n        /* \"contracts/HealthRecords.sol\":624:667  mapping(address => Patient) public patients */\n    tag_4:\n      tag_27\n      0x04\n      dup1\n      calldatasize\n      sub\n      dup2\n      add\n      swap1\n      tag_28\n      swap2\n      swap1\n      tag_25\n      jump\t// in\n    tag_28:\n      tag_29\n      jump\t// in\n    tag_27:\n      mload(0x40)\n      tag_30\n      swap6\n      swap5\n      swap4\n      swap3\n      swap2\n      swap1\n      tag_31\n      jump\t// in\n    tag_30:\n      mload(0x40)\n      dup1\n      swap2\n      sub\n      swap1\n      return\n        /* \"contracts/HealthRecords.sol\":3223:3988  function addDoctor(... */\n    tag_5:\n      tag_32\n      0x04\n      dup1\n      calldatasize\n      sub\n      dup2\n      add\n      swap1\n      tag_33\n      swap2\n      swap1\n      tag_34\n      jump\t// in\n    tag_33:\n      tag_35\n      jump\t// in\n    tag_32:\n      stop\n        /* \"contracts/HealthRecords.sol\":5474:5787  function getDirectoryMetadata(address _doctor, address _patient) public view returns (string memory primaryCondition, uint8 status, bool isSet) {... */\n    tag_6:\n      tag_36\n      0x04\n      dup1\n      calldatasize\n      sub\n      dup2\n      add\n      swap1\n      tag_37\n      swap2\n      swap1\n      tag_38\n      jump\t// in\n    tag_37:\n      tag_39\n      jump\t// in\n    tag_36:\n      mload(0x40)\n      tag_40\n      swap4\n      swap3\n      swap2\n      swap1\n      tag_41\n      jump\t// in\n    tag_40:\n      mload(0x40)\n      dup1\n      swap2\n      sub\n      swap1\n      return\n        /* \"contracts/HealthRecords.sol\":4559:4905  function getPatientProfile(address _patient) public view returns (string memory name, string memory bloodType, string memory phone, string memory email) {... */\n    tag_7:\n      tag_42\n      0x04\n      dup1\n      calldatasize\n      sub\n      dup2\n      add\n      swap1\n      tag_43\n      swap2\n      swap1\n      tag_25\n      jump\t// in\n    tag_43:\n      tag_44\n      jump\t// in\n    tag_42:\n      mload(0x40)\n      tag_45\n      swap5\n      swap4\n      swap3\n      swap2\n      swap1\n      tag_46\n      jump\t// in\n    tag_45:\n      mload(0x40)\n      dup1\n      swap2\n      sub\n      swap1\n      return\n        /* \"contracts/HealthRecords.sol\":2634:3215  function registerPatient(string memory _name, string memory _bloodType, string memory _phone, string memory _email) public {... */\n    tag_8:\n      tag_47\n      0x04\n      dup1\n      calldatasize\n      sub\n      dup2\n      add\n      swap1\n      tag_48\n      swap2\n      swap1\n      tag_49\n      jump\t// in\n    tag_48:\n      tag_50\n      jump\t// in\n    tag_47:\n      stop\n        /* \"contracts/HealthRecords.sol\":958:1024  mapping(address => mapping(address => bool)) public pendingConsent */\n    tag_9:\n      tag_51\n      0x04\n      dup1\n      calldatasize\n      sub\n      dup2\n      add\n      swap1\n      tag_52\n      swap2\n      swap1\n      tag_38\n      jump\t// in\n    tag_52:\n      tag_53\n      jump\t// in\n    tag_51:\n      mload(0x40)\n      tag_54\n      swap2\n      swap1\n      tag_55\n      jump\t// in\n    tag_54:\n      mload(0x40)\n      dup1\n      swap2\n      sub\n      swap1\n      return\n        /* \"contracts/HealthRecords.sol\":4342:4551  function getDoctorProfile(address _doctor) public view returns (string memory name) {... */\n    tag_10:\n      tag_56\n      0x04\n      dup1\n      calldatasize\n      sub\n      dup2\n      add\n      swap1\n      tag_57\n      swap2\n      swap1\n      tag_25\n      jump\t// in\n    tag_57:\n      tag_58\n      jump\t// in\n    tag_56:\n      mload(0x40)\n      tag_59\n      swap2\n      swap1\n      tag_60\n      jump\t// in\n    tag_59:\n      mload(0x40)\n      dup1\n      swap2\n      sub\n      swap1\n      return\n        /* \"contracts/HealthRecords.sol\":7136:7497  function addVisit(address _patient, bytes memory _encryptedData) public onlyDoctor {... */\n    tag_11:\n      tag_61\n      0x04\n      dup1\n      calldatasize\n      sub\n      dup2\n      add\n      swap1\n      tag_62\n      swap2\n      swap1\n      tag_63\n      jump\t// in\n    tag_62:\n      tag_64\n      jump\t// in\n    tag_61:\n      stop\n        /* \"contracts/HealthRecords.sol\":90:120  address public immutable owner */\n    tag_12:\n      tag_65\n      tag_66\n      jump\t// in\n    tag_65:\n      mload(0x40)\n      tag_67\n      swap2\n      swap1\n      tag_68\n      jump\t// in\n    tag_67:\n      mload(0x40)\n      dup1\n      swap2\n      sub\n      swap1\n      return\n        /* \"contracts/HealthRecords.sol\":4913:5466  function setDirectoryMetadata(address _patient, string memory _primaryCondition, uint8 _status) public onlyDoctor {... */\n    tag_13:\n      tag_69\n      0x04\n      dup1\n      calldatasize\n      sub\n      dup2\n      add\n      swap1\n      tag_70\n      swap2\n      swap1\n      tag_71\n      jump\t// in\n    tag_70:\n      tag_72\n      jump\t// in\n    tag_69:\n      stop\n        /* \"contracts/HealthRecords.sol\":3996:4299  function removeDoctor(address _doctor) public onlyOwner {... */\n    tag_14:\n      tag_73\n      0x04\n      dup1\n      calldatasize\n      sub\n      dup2\n      add\n      swap1\n      tag_74\n      swap2\n      swap1\n      tag_25\n      jump\t// in\n    tag_74:\n      tag_75\n      jump\t// in\n    tag_73:\n      stop\n        /* \"contracts/HealthRecords.sol\":6629:6914  function refuseConsent(address _doctor) public onlyPatient {... */\n    tag_15:\n      tag_76\n      0x04\n      dup1\n      calldatasize\n      sub\n      dup2\n      add\n      swap1\n      tag_77\n      swap2\n      swap1\n      tag_25\n      jump\t// in\n    tag_77:\n      tag_78\n      jump\t// in\n    tag_76:\n      stop\n        /* \"contracts/HealthRecords.sol\":6298:6621  function grantConsent(address _doctor) public onlyPatient {... */\n    tag_16:\n      tag_79\n      0x04\n      dup1\n      calldatasize\n      sub\n      dup2\n      add\n      swap1\n      tag_80\n      swap2\n      swap1\n      tag_25\n      jump\t// in\n    tag_80:\n      tag_81\n      jump\t// in\n    tag_79:\n      stop\n        /* \"contracts/HealthRecords.sol\":674:715  mapping(address => Doctor) public doctors */\n    tag_17:\n      tag_82\n      0x04\n      dup1\n      calldatasize\n      sub\n      dup2\n      add\n      swap1\n      tag_83\n      swap2\n      swap1\n      tag_25\n      jump\t// in\n    tag_83:\n      tag_84\n      jump\t// in\n    tag_82:\n      mload(0x40)\n      tag_85\n      swap7\n      swap6\n      swap5\n      swap4\n      swap3\n      swap2\n      swap1\n      tag_86\n      jump\t// in\n    tag_85:\n      mload(0x40)\n      dup1\n      swap2\n      sub\n      swap1\n      return\n        /* \"contracts/HealthRecords.sol\":6922:7094  function revokeConsent(address _doctor) public onlyPatient {... */\n    tag_18:\n      tag_87\n      0x04\n      dup1\n      calldatasize\n      sub\n      dup2\n      add\n      swap1\n      tag_88\n      swap2\n      swap1\n      tag_25\n      jump\t// in\n    tag_88:\n      tag_89\n      jump\t// in\n    tag_87:\n      stop\n        /* \"contracts/HealthRecords.sol\":885:951  mapping(address => mapping(address => bool)) public patientConsent */\n    tag_19:\n      tag_90\n      0x04\n      dup1\n      calldatasize\n      sub\n      dup2\n      add\n      swap1\n      tag_91\n      swap2\n      swap1\n      tag_38\n      jump\t// in\n    tag_91:\n      tag_92\n      jump\t// in\n    tag_90:\n      mload(0x40)\n      tag_93\n      swap2\n      swap1\n      tag_55\n      jump\t// in\n    tag_93:\n      mload(0x40)\n      dup1\n      swap2\n      sub\n      swap1\n      return\n        /* \"contracts/HealthRecords.sol\":5829:6290  function requestConsent(address _patient) public onlyDoctor {... */\n    tag_26:\n        /* \"contracts/HealthRecords.sol\":1972:1979  doctors */\n      0x01\n        /* \"contracts/HealthRecords.sol\":1972:1991  doctors[msg.sender] */\n      0x00\n        /* \"contracts/HealthRecords.sol\":1980:1990  msg.sender */\n      caller\n        /* \"contracts/HealthRecords.sol\":1972:1991  doctors[msg.sender] */\n      0xffffffffffffffffffffffffffffffffffffffff\n      and\n      0xffffffffffffffffffffffffffffffffffffffff\n      and\n      dup2\n      mstore\n      0x20\n      add\n      swap1\n      dup2\n      mstore\n      0x20\n      add\n      0x00\n      keccak256\n        /* \"contracts/HealthRecords.sol\":1972:2004  doctors[msg.sender].isRegistered */\n      0x00\n      add\n      0x00\n      swap1\n      sload\n      swap1\n      0x0100\n      exp\n      swap1\n      div\n      0xff\n      and\n        /* \"contracts/HealthRecords.sol\":1964:2043  require(doctors[msg.sender].isRegistered, \"Caller is not an authorized doctor\") */\n      tag_95\n      jumpi\n      mload(0x40)\n      0x08c379a000000000000000000000000000000000000000000000000000000000\n      dup2\n      mstore\n      0x04\n      add\n      tag_96\n      swap1\n      tag_97\n      jump\t// in\n    tag_96:\n      mload(0x40)\n      dup1\n      swap2\n      sub\n      swap1\n      revert\n    tag_95:\n        /* \"contracts/HealthRecords.sol\":5908:5916  patients */\n      0x00\n        /* \"contracts/HealthRecords.sol\":5908:5926  patients[_patient] */\n      dup1\n        /* \"contracts/HealthRecords.sol\":5917:5925  _patient */\n      dup3\n        /* \"contracts/HealthRecords.sol\":5908:5926  patients[_patient] */\n      0xffffffffffffffffffffffffffffffffffffffff\n      and\n      0xffffffffffffffffffffffffffffffffffffffff\n      and\n      dup2\n      mstore\n      0x20\n      add\n      swap1\n      dup2\n      mstore\n      0x20\n      add\n      0x00\n      keccak256\n        /* \"contracts/HealthRecords.sol\":5908:5939  patients[_patient].isRegistered */\n      0x00\n      add\n      0x00\n      swap1\n      sload\n      swap1\n      0x0100\n      exp\n      swap1\n      div\n      0xff\n      and\n        /* \"contracts/HealthRecords.sol\":5900:5980  require(patients[_patient].isRegistered, \"Address is not a registered patient.\") */\n      tag_99\n      jumpi\n      mload(0x40)\n      0x08c379a000000000000000000000000000000000000000000000000000000000\n      dup2\n      mstore\n      0x04\n      add\n      tag_100\n      swap1\n      tag_101\n      jump\t// in\n    tag_100:\n      mload(0x40)\n      dup1\n      swap2\n      sub\n      swap1\n      revert\n    tag_99:\n        /* \"contracts/HealthRecords.sol\":6000:6014  patientConsent */\n      0x03\n        /* \"contracts/HealthRecords.sol\":6000:6024  patientConsent[_patient] */\n      0x00\n        /* \"contracts/HealthRecords.sol\":6015:6023  _patient */\n      dup3\n        /* \"contracts/HealthRecords.sol\":6000:6024  patientConsent[_patient] */\n      0xffffffffffffffffffffffffffffffffffffffff\n      and\n      0xffffffffffffffffffffffffffffffffffffffff\n      and\n      dup2\n      mstore\n      0x20\n      add\n      swap1\n      dup2\n      mstore\n      0x20\n      add\n      0x00\n      keccak256\n        /* \"contracts/HealthRecords.sol\":6000:6036  patientConsent[_patient][msg.sender] */\n      0x00\n        /* \"contracts/HealthRecords.sol\":6025:6035  msg.sender */\n      caller\n        /* \"contracts/HealthRecords.sol\":6000:6036  patientConsent[_patient][msg.sender] */\n      0xffffffffffffffffffffffffffffffffffffffff\n      and\n      0xffffffffffffffffffffffffffffffffffffffff\n      and\n      dup2\n      mstore\n      0x20\n      add\n      swap1\n      dup2\n      mstore\n      0x20\n      add\n      0x00\n      keccak256\n      0x00\n      swap1\n      sload\n      swap1\n      0x0100\n      exp\n      swap1\n      div\n      0xff\n      and\n        /* \"contracts/HealthRecords.sol\":5999:6036  !patientConsent[_patient][msg.sender] */\n      iszero\n        /* \"contracts/HealthRecords.sol\":5991:6068  require(!patientConsent[_patient][msg.sender], \"Consent is already granted.\") */\n      tag_102\n      jumpi\n      mload(0x40)\n      0x08c379a000000000000000000000000000000000000000000000000000000000\n      dup2\n      mstore\n      0x04\n      add\n      tag_103\n      swap1\n      tag_104\n      jump\t// in\n    tag_103:\n      mload(0x40)\n      dup1\n      swap2\n      sub\n      swap1\n      revert\n    tag_102:\n        /* \"contracts/HealthRecords.sol\":6088:6102  pendingConsent */\n      0x04\n        /* \"contracts/HealthRecords.sol\":6088:6112  pendingConsent[_patient] */\n      0x00\n        /* \"contracts/HealthRecords.sol\":6103:6111  _patient */\n      dup3\n        /* \"contracts/HealthRecords.sol\":6088:6112  pendingConsent[_patient] */\n      0xffffffffffffffffffffffffffffffffffffffff\n      and\n      0xffffffffffffffffffffffffffffffffffffffff\n      and\n      dup2\n      mstore\n      0x20\n      add\n      swap1\n      dup2\n      mstore\n      0x20\n      add\n      0x00\n      keccak256\n        /* \"contracts/HealthRecords.sol\":6088:6124  pendingConsent[_patient][msg.sender] */\n      0x00\n        /* \"contracts/HealthRecords.sol\":6113:6123  msg.sender */\n      caller\n        /* \"contracts/HealthRecords.sol\":6088:6124  pendingConsent[_patient][msg.sender] */\n      0xffffffffffffffffffffffffffffffffffffffff\n      and\n      0xffffffffffffffffffffffffffffffffffffffff\n      and\n      dup2\n      mstore\n      0x20\n      add\n      swap1\n      dup2\n      mstore\n      0x20\n      add\n      0x00\n      keccak256\n      0x00\n      swap1\n      sload\n      swap1\n      0x0100\n      exp\n      swap1\n      div\n      0xff\n      and\n        /* \"contracts/HealthRecords.sol\":6087:6124  !pendingConsent[_patient][msg.sender] */\n      iszero\n        /* \"contracts/HealthRecords.sol\":6079:6164  require(!pendingConsent[_patient][msg.sender], \"Consent request is already pending.\") */\n      tag_105\n      jumpi\n      mload(0x40)\n      0x08c379a000000000000000000000000000000000000000000000000000000000\n      dup2\n      mstore\n      0x04\n      add\n      tag_106\n      swap1\n      tag_107\n      jump\t// in\n    tag_106:\n      mload(0x40)\n      dup1\n      swap2\n      sub\n      swap1\n      revert\n    tag_105:\n        /* \"contracts/HealthRecords.sol\":6224:6228  true */\n      0x01\n        /* \"contracts/HealthRecords.sol\":6185:6199  pendingConsent */\n      0x04\n        /* \"contracts/HealthRecords.sol\":6185:6209  pendingConsent[_patient] */\n      0x00\n        /* \"contracts/HealthRecords.sol\":6200:6208  _patient */\n      dup4\n        /* \"contracts/HealthRecords.sol\":6185:6209  pendingConsent[_patient] */\n      0xffffffffffffffffffffffffffffffffffffffff\n      and\n      0xffffffffffffffffffffffffffffffffffffffff\n      and\n      dup2\n      mstore\n      0x20\n      add\n      swap1\n      dup2\n      mstore\n      0x20\n      add\n      0x00\n      keccak256\n        /* \"contracts/HealthRecords.sol\":6185:6221  pendingConsent[_patient][msg.sender] */\n      0x00\n        /* \"contracts/HealthRecords.sol\":6210:6220  msg.sender */\n      caller\n        /* \"contracts/HealthRecords.sol\":6185:6221  pendingConsent[_patient][msg.sender] */\n      0xffffffffffffffffffffffffffffffffffffffff\n      and\n      0xffffffffffffffffffffffffffffffffffffffff\n      and\n      dup2\n      mstore\n      0x20\n      add\n      swap1\n      dup2\n      mstore\n      0x20\n      add\n      0x00\n      keccak256\n      0x00\n        /* \"contracts/HealthRecords.sol\":6185:6228  pendingConsent[_patient][msg.sender] = true */\n      0x0100\n      exp\n      dup2\n      sload\n      dup2\n      0xff\n      mul\n      not\n      and\n      swap1\n      dup4\n      iszero\n      iszero\n      mul\n      or\n      swap1\n      sstore\n      pop\n        /* \"contracts/HealthRecords.sol\":6271:6281  msg.sender */\n      caller\n        /* \"contracts/HealthRecords.sol\":6244:6282  ConsentRequested(_patient, msg.sender) */\n      0xffffffffffffffffffffffffffffffffffffffff\n      and\n        /* \"contracts/HealthRecords.sol\":6261:6269  _patient */\n      dup2\n        /* \"contracts/HealthRecords.sol\":6244:6282  ConsentRequested(_patient, msg.sender) */\n      0xffffffffffffffffffffffffffffffffffffffff\n      and\n      0x2836b27da25b9b18fc3a89b2e06ebbe3b7268f8291437c0bb6923b2b19212bcb\n      mload(0x40)\n      mload(0x40)\n      dup1\n      swap2\n      sub\n      swap1\n      log3\n        /* \"contracts/HealthRecords.sol\":5829:6290  function requestConsent(address _patient) public onlyDoctor {... */\n      pop\n      jump\t// out\n        /* \"contracts/HealthRecords.sol\":624:667  mapping(address => Patient) public patients */\n    tag_29:\n      mstore(0x20, 0x00)\n      dup1\n      0x00\n      mstore\n      keccak256(0x00, 0x40)\n      0x00\n      swap2\n      pop\n      swap1\n      pop\n      dup1\n      0x00\n      add\n      0x00\n      swap1\n      sload\n      swap1\n      0x0100\n      exp\n      swap1\n      div\n      0xff\n      and\n      swap1\n      dup1\n      0x01\n      add\n      dup1\n      sload\n      tag_108\n      swap1\n      tag_109\n      jump\t// in\n    tag_108:\n      dup1\n      0x1f\n      add\n      0x20\n      dup1\n      swap2\n      div\n      mul\n      0x20\n      add\n      mload(0x40)\n      swap1\n      dup2\n      add\n      0x40\n      mstore\n      dup1\n      swap3\n      swap2\n      swap1\n      dup2\n      dup2\n      mstore\n      0x20\n      add\n      dup3\n      dup1\n      sload\n      tag_110\n      swap1\n      tag_109\n      jump\t// in\n    tag_110:\n      dup1\n      iszero\n      tag_111\n      jumpi\n      dup1\n      0x1f\n      lt\n      tag_112\n      jumpi\n      0x0100\n      dup1\n      dup4\n      sload\n      div\n      mul\n      dup4\n      mstore\n      swap2\n      0x20\n      add\n      swap2\n      jump(tag_111)\n    tag_112:\n      dup3\n      add\n      swap2\n      swap1\n      0x00\n      mstore\n      keccak256(0x00, 0x20)\n      swap1\n    tag_113:\n      dup2\n      sload\n      dup2\n      mstore\n      swap1\n      0x01\n      add\n      swap1\n      0x20\n      add\n      dup1\n      dup4\n      gt\n      tag_113\n      jumpi\n      dup3\n      swap1\n      sub\n      0x1f\n      and\n      dup3\n      add\n      swap2\n    tag_111:\n      pop\n      pop\n      pop\n      pop\n      pop\n      swap1\n      dup1\n      0x02\n      add\n      dup1\n      sload\n      tag_114\n      swap1\n      tag_109\n      jump\t// in\n    tag_114:\n      dup1\n      0x1f\n      add\n      0x20\n      dup1\n      swap2\n      div\n      mul\n      0x20\n      add\n      mload(0x40)\n      swap1\n      dup2\n      add\n      0x40\n      mstore\n      dup1\n      swap3\n      swap2\n      swap1\n      dup2\n      dup2\n      mstore\n      0x20\n      add\n      dup3\n      dup1\n      sload\n      tag_115\n      swap1\n      tag_109\n      jump\t// in\n    tag_115:\n      dup1\n      iszero\n      tag_116\n      jumpi\n      dup1\n      0x1f\n      lt\n      tag_117\n      jumpi\n      0x0100\n      dup1\n      dup4\n      sload\n      div\n      mul\n      dup4\n      mstore\n      swap2\n      0x20\n      add\n      swap2\n      jump(tag_116)\n    tag_117:\n      dup3\n      add\n      swap2\n      swap1\n      0x00\n      mstore\n      keccak256(0x00, 0x20)\n      swap1\n    tag_118:\n      dup2\n      sload\n      dup2\n      mstore\n      swap1\n      0x01\n      add\n      swap1\n      0x20\n      add\n      dup1\n      dup4\n      gt\n      tag_118\n      jumpi\n      dup3\n      swap1\n      sub\n      0x1f\n      and\n      dup3\n      add\n      swap2\n    tag_116:\n      pop\n      pop\n      pop\n      pop\n      pop\n      swap1\n      dup1\n      0x03\n      add\n      dup1\n      sload\n      tag_119\n      swap1\n      tag_109\n      jump\t// in\n    tag_119:\n      dup1\n      0x1f\n      add\n      0x20\n      dup1\n      swap2\n      div\n      mul\n      0x20\n      add\n      mload(0x40)\n      swap1\n      dup2\n      add\n      0x40\n      mstore\n      dup1\n      swap3\n      swap2\n      swap1\n      dup2\n      dup2\n      mstore\n      0x20\n      add\n      dup3\n      dup1\n      sload\n      tag_120\n      swap1\n      tag_109\n      jump\t// in\n    tag_120:\n      dup1\n      iszero\n      tag_121\n      jumpi\n      dup1\n      0x1f\n      lt\n      tag_122\n      jumpi\n      0x0100\n      dup1\n      dup4\n      sload\n      div\n      mul\n      dup4\n      mstore\n      swap2\n      0x20\n      add\n      swap2\n      jump(tag_121)\n    tag_122:\n      dup3\n      add\n      swap2\n      swap1\n      0x00\n      mstore\n      keccak256(0x00, 0x20)\n      swap1\n    tag_123:\n      dup2\n      sload\n      dup2\n      mstore\n      swap1\n      0x01\n      add\n      swap1\n      0x20\n      add\n      dup1\n      dup4\n      gt\n      tag_123\n      jumpi\n      dup3\n      swap1\n      sub\n      0x1f\n      and\n      dup3\n      add\n      swap2\n    tag_121:\n      pop\n      pop\n      pop\n      pop\n      pop\n      swap1\n      dup1\n      0x04\n      add\n      dup1\n      sload\n      tag_124\n      swap1\n      tag_109\n      jump\t// in\n    tag_124:\n      dup1\n      0x1f\n      add\n      0x20\n      dup1\n      swap2\n      div\n      mul\n      0x20\n      add\n      mload(0x40)\n      swap1\n      dup2\n      add\n      0x40\n      mstore\n      dup1\n      swap3\n      swap2\n      swap1\n      dup2\n      dup2\n      mstore\n      0x20\n      add\n      dup3\n      dup1\n      sload\n      tag_125\n      swap1\n      tag_109\n      jump\t// in\n    tag_125:\n      dup1\n      iszero\n      tag_126\n      jumpi\n      dup1\n      0x1f\n      lt\n      tag_127\n      jumpi\n      0x0100\n      dup1\n      dup4\n      sload\n      div\n      mul\n      dup4\n      mstore\n      swap2\n      0x20\n      add\n      swap2\n      jump(tag_126)\n    tag_127:\n      dup3\n      add\n      swap2\n      swap1\n      0x00\n      mstore\n      keccak256(0x00, 0x20)\n      swap1\n    tag_128:\n      dup2\n      sload\n      dup2\n      mstore\n      swap1\n      0x01\n      add\n      swap1\n      0x20\n      add\n      dup1\n      dup4\n      gt\n      tag_128\n      jumpi\n      dup3\n      swap1\n      sub\n      0x1f\n      and\n      dup3\n      add\n      swap2\n    tag_126:\n      pop\n      pop\n      pop\n      pop\n      pop\n      swap1\n      pop\n      dup6\n      jump\t// out\n        /* \"contracts/HealthRecords.sol\":3223:3988  function addDoctor(... */\n    tag_35:\n        /* \"contracts/HealthRecords.sol\":1859:1864  owner */\n      immutable(\"0x2a80e1ef1d7842f27f2e6be0972bb708b9a135c38860dbe73c27c3486c34f4de\")\n        /* \"contracts/HealthRecords.sol\":1845:1864  msg.sender == owner */\n      0xffffffffffffffffffffffffffffffffffffffff\n      and\n        /* \"contracts/HealthRecords.sol\":1845:1855  msg.sender */\n      caller\n        /* \"contracts/HealthRecords.sol\":1845:1864  msg.sender == owner */\n      0xffffffffffffffffffffffffffffffffffffffff\n      and\n      eq\n        /* \"contracts/HealthRecords.sol\":1837:1903  require(msg.sender == owner, \"Only owner can perform this action\") */\n      tag_130\n      jumpi\n      mload(0x40)\n      0x08c379a000000000000000000000000000000000000000000000000000000000\n      dup2\n      mstore\n      0x04\n      add\n      tag_131\n      swap1\n      tag_132\n      jump\t// in\n    tag_131:\n      mload(0x40)\n      dup1\n      swap2\n      sub\n      swap1\n      revert\n    tag_130:\n        /* \"contracts/HealthRecords.sol\":3493:3500  doctors */\n      0x01\n        /* \"contracts/HealthRecords.sol\":3493:3509  doctors[_doctor] */\n      0x00\n        /* \"contracts/HealthRecords.sol\":3501:3508  _doctor */\n      dup8\n        /* \"contracts/HealthRecords.sol\":3493:3509  doctors[_doctor] */\n      0xffffffffffffffffffffffffffffffffffffffff\n      and\n      0xffffffffffffffffffffffffffffffffffffffff\n      and\n      dup2\n      mstore\n      0x20\n      add\n      swap1\n      dup2\n      mstore\n      0x20\n      add\n      0x00\n      keccak256\n        /* \"contracts/HealthRecords.sol\":3493:3522  doctors[_doctor].isRegistered */\n      0x00\n      add\n      0x00\n      swap1\n      sload\n      swap1\n      0x0100\n      exp\n      swap1\n      div\n      0xff\n      and\n        /* \"contracts/HealthRecords.sol\":3492:3522  !doctors[_doctor].isRegistered */\n      iszero\n        /* \"contracts/HealthRecords.sol\":3484:3555  require(!doctors[_doctor].isRegistered, \"Doctor is already registered\") */\n      tag_134\n      jumpi\n      mload(0x40)\n      0x08c379a000000000000000000000000000000000000000000000000000000000\n      dup2\n      mstore\n      0x04\n      add\n      tag_135\n      swap1\n      tag_136\n      jump\t// in\n    tag_135:\n      mload(0x40)\n      dup1\n      swap2\n      sub\n      swap1\n      revert\n    tag_134:\n        /* \"contracts/HealthRecords.sol\":3575:3583  patients */\n      0x00\n        /* \"contracts/HealthRecords.sol\":3575:3592  patients[_doctor] */\n      dup1\n        /* \"contracts/HealthRecords.sol\":3584:3591  _doctor */\n      dup8\n        /* \"contracts/HealthRecords.sol\":3575:3592  patients[_doctor] */\n      0xffffffffffffffffffffffffffffffffffffffff\n      and\n      0xffffffffffffffffffffffffffffffffffffffff\n      and\n      dup2\n      mstore\n      0x20\n      add\n      swap1\n      dup2\n      mstore\n      0x20\n      add\n      0x00\n      keccak256\n        /* \"contracts/HealthRecords.sol\":3575:3605  patients[_doctor].isRegistered */\n      0x00\n      add\n      0x00\n      swap1\n      sload\n      swap1\n      0x0100\n      exp\n      swap1\n      div\n      0xff\n      and\n        /* \"contracts/HealthRecords.sol\":3574:3605  !patients[_doctor].isRegistered */\n      iszero\n        /* \"contracts/HealthRecords.sol\":3566:3652  require(!patients[_doctor].isRegistered, \"Address is already registered as a patient\") */\n      tag_137\n      jumpi\n      mload(0x40)\n      0x08c379a000000000000000000000000000000000000000000000000000000000\n      dup2\n      mstore\n      0x04\n      add\n      tag_138\n      swap1\n      tag_139\n      jump\t// in\n    tag_138:\n      mload(0x40)\n      dup1\n      swap2\n      sub\n      swap1\n      revert\n    tag_137:\n        /* \"contracts/HealthRecords.sol\":3684:3926  Doctor({... */\n      mload(0x40)\n      dup1\n      0xc0\n      add\n      0x40\n      mstore\n      dup1\n        /* \"contracts/HealthRecords.sol\":3720:3724  true */\n      0x01\n        /* \"contracts/HealthRecords.sol\":3684:3926  Doctor({... */\n      iszero\n      iszero\n      dup2\n      mstore\n      0x20\n      add\n        /* \"contracts/HealthRecords.sol\":3745:3750  _name */\n      dup7\n        /* \"contracts/HealthRecords.sol\":3684:3926  Doctor({... */\n      dup2\n      mstore\n      0x20\n      add\n        /* \"contracts/HealthRecords.sol\":3773:3780  _clinic */\n      dup6\n        /* \"contracts/HealthRecords.sol\":3684:3926  Doctor({... */\n      dup2\n      mstore\n      0x20\n      add\n        /* \"contracts/HealthRecords.sol\":3805:3814  _timezone */\n      dup5\n        /* \"contracts/HealthRecords.sol\":3684:3926  Doctor({... */\n      dup2\n      mstore\n      0x20\n      add\n        /* \"contracts/HealthRecords.sol\":3848:3866  _workingHoursStart */\n      dup4\n        /* \"contracts/HealthRecords.sol\":3684:3926  Doctor({... */\n      dup2\n      mstore\n      0x20\n      add\n        /* \"contracts/HealthRecords.sol\":3898:3914  _workingHoursEnd */\n      dup3\n        /* \"contracts/HealthRecords.sol\":3684:3926  Doctor({... */\n      dup2\n      mstore\n      pop\n        /* \"contracts/HealthRecords.sol\":3665:3672  doctors */\n      0x01\n        /* \"contracts/HealthRecords.sol\":3665:3681  doctors[_doctor] */\n      0x00\n        /* \"contracts/HealthRecords.sol\":3673:3680  _doctor */\n      dup9\n        /* \"contracts/HealthRecords.sol\":3665:3681  doctors[_doctor] */\n      0xffffffffffffffffffffffffffffffffffffffff\n      and\n      0xffffffffffffffffffffffffffffffffffffffff\n      and\n      dup2\n      mstore\n      0x20\n      add\n      swap1\n      dup2\n      mstore\n      0x20\n      add\n      0x00\n      keccak256\n        /* \"contracts/HealthRecords.sol\":3665:3926  doctors[_doctor] = Doctor({... */\n      0x00\n      dup3\n      add\n      mload\n      dup2\n      0x00\n      add\n      exp(0x0100, 0x00)\n      dup2\n      sload\n      dup2\n      0xff\n      mul\n      not\n      and\n      swap1\n      dup4\n      iszero\n      iszero\n      mul\n      or\n      swap1\n      sstore\n      pop\n      0x20\n      dup3\n      add\n      mload\n      dup2\n      0x01\n      add\n      swap1\n      dup2\n      tag_140\n      swap2\n      swap1\n      tag_141\n      jump\t// in\n    tag_140:\n      pop\n      0x40\n      dup3\n      add\n      mload\n      dup2\n      0x02\n      add\n      swap1\n      dup2\n      tag_142\n      swap2\n      swap1\n      tag_141\n      jump\t// in\n    tag_142:\n      pop\n      0x60\n      dup3\n      add\n      mload\n      dup2\n      0x03\n      add\n      swap1\n      dup2\n      tag_143\n      swap2\n      swap1\n      tag_141\n      jump\t// in\n    tag_143:\n      pop\n      0x80\n      dup3\n      add\n      mload\n      dup2\n      0x04\n      add\n      swap1\n      dup2\n      tag_144\n      swap2\n      swap1\n      tag_141\n      jump\t// in\n    tag_144:\n      pop\n      0xa0\n      dup3\n      add\n      mload\n      dup2\n      0x05\n      add\n      swap1\n      dup2\n      tag_145\n      swap2\n      swap1\n      tag_141\n      jump\t// in\n    tag_145:\n      pop\n      swap1\n      pop\n      pop\n        /* \"contracts/HealthRecords.sol\":3956:3963  _doctor */\n      dup6\n        /* \"contracts/HealthRecords.sol\":3944:3980  DoctorAdded(_doctor, _name, _clinic) */\n      0xffffffffffffffffffffffffffffffffffffffff\n      and\n      0x9388661dcd7dc6cff9b4e22ab9459ac0a2682f86cb52fc7a669a6e7f062bce4c\n        /* \"contracts/HealthRecords.sol\":3965:3970  _name */\n      dup7\n        /* \"contracts/HealthRecords.sol\":3972:3979  _clinic */\n      dup7\n        /* \"contracts/HealthRecords.sol\":3944:3980  DoctorAdded(_doctor, _name, _clinic) */\n      mload(0x40)\n      tag_146\n      swap3\n      swap2\n      swap1\n      tag_147\n      jump\t// in\n    tag_146:\n      mload(0x40)\n      dup1\n      swap2\n      sub\n      swap1\n      log2\n        /* \"contracts/HealthRecords.sol\":3223:3988  function addDoctor(... */\n      pop\n      pop\n      pop\n      pop\n      pop\n      pop\n      jump\t// out\n        /* \"contracts/HealthRecords.sol\":5474:5787  function getDirectoryMetadata(address _doctor, address _patient) public view returns (string memory primaryCondition, uint8 status, bool isSet) {... */\n    tag_39:\n        /* \"contracts/HealthRecords.sol\":5560:5590  string memory primaryCondition */\n      0x60\n        /* \"contracts/HealthRecords.sol\":5592:5604  uint8 status */\n      0x00\n        /* \"contracts/HealthRecords.sol\":5606:5616  bool isSet */\n      dup1\n        /* \"contracts/HealthRecords.sol\":5629:5662  DirectoryMetadata memory metadata */\n      0x00\n        /* \"contracts/HealthRecords.sol\":5665:5682  directoryMetadata */\n      0x02\n        /* \"contracts/HealthRecords.sol\":5665:5691  directoryMetadata[_doctor] */\n      0x00\n        /* \"contracts/HealthRecords.sol\":5683:5690  _doctor */\n      dup8\n        /* \"contracts/HealthRecords.sol\":5665:5691  directoryMetadata[_doctor] */\n      0xffffffffffffffffffffffffffffffffffffffff\n      and\n      0xffffffffffffffffffffffffffffffffffffffff\n      and\n      dup2\n      mstore\n      0x20\n      add\n      swap1\n      dup2\n      mstore\n      0x20\n      add\n      0x00\n      keccak256\n        /* \"contracts/HealthRecords.sol\":5665:5701  directoryMetadata[_doctor][_patient] */\n      0x00\n        /* \"contracts/HealthRecords.sol\":5692:5700  _patient */\n      dup7\n        /* \"contracts/HealthRecords.sol\":5665:5701  directoryMetadata[_doctor][_patient] */\n      0xffffffffffffffffffffffffffffffffffffffff\n      and\n      0xffffffffffffffffffffffffffffffffffffffff\n      and\n      dup2\n      mstore\n      0x20\n      add\n      swap1\n      dup2\n      mstore\n      0x20\n      add\n      0x00\n      keccak256\n        /* \"contracts/HealthRecords.sol\":5629:5701  DirectoryMetadata memory metadata = directoryMetadata[_doctor][_patient] */\n      mload(0x40)\n      dup1\n      0x60\n      add\n      0x40\n      mstore\n      swap1\n      dup2\n      0x00\n      dup3\n      add\n      dup1\n      sload\n      tag_149\n      swap1\n      tag_109\n      jump\t// in\n    tag_149:\n      dup1\n      0x1f\n      add\n      0x20\n      dup1\n      swap2\n      div\n      mul\n      0x20\n      add\n      mload(0x40)\n      swap1\n      dup2\n      add\n      0x40\n      mstore\n      dup1\n      swap3\n      swap2\n      swap1\n      dup2\n      dup2\n      mstore\n      0x20\n      add\n      dup3\n      dup1\n      sload\n      tag_150\n      swap1\n      tag_109\n      jump\t// in\n    tag_150:\n      dup1\n      iszero\n      tag_151\n      jumpi\n      dup1\n      0x1f\n      lt\n      tag_152\n      jumpi\n      0x0100\n      dup1\n      dup4\n      sload\n      div\n      mul\n      dup4\n      mstore\n      swap2\n      0x20\n      add\n      swap2\n      jump(tag_151)\n    tag_152:\n      dup3\n      add\n      swap2\n      swap1\n      0x00\n      mstore\n      keccak256(0x00, 0x20)\n      swap1\n    tag_153:\n      dup2\n      sload\n      dup2\n      mstore\n      swap1\n      0x01\n      add\n      swap1\n      0x20\n      add\n      dup1\n      dup4\n      gt\n      tag_153\n      jumpi\n      dup3\n      swap1\n      sub\n      0x1f\n      and\n      dup3\n      add\n      swap2\n    tag_151:\n      pop\n      pop\n      pop\n      pop\n      pop\n      dup2\n      mstore\n      0x20\n      add\n      0x01\n      dup3\n      add\n      0x00\n      swap1\n      sload\n      swap1\n      0x0100\n      exp\n      swap1\n      div\n      0xff\n      and\n      0xff\n      and\n      0xff\n      and\n      dup2\n      mstore\n      0x20\n      add\n      0x01\n      dup3\n      add\n      0x01\n      swap1\n      sload\n      swap1\n      0x0100\n      exp\n      swap1\n      div\n      0xff\n      and\n      iszero\n      iszero\n      iszero\n      iszero\n      dup2\n      mstore\n      pop\n      pop\n      swap1\n      pop\n        /* \"contracts/HealthRecords.sol\":5720:5728  metadata */\n      dup1\n        /* \"contracts/HealthRecords.sol\":5720:5745  metadata.primaryCondition */\n      0x00\n      add\n      mload\n        /* \"contracts/HealthRecords.sol\":5747:5755  metadata */\n      dup2\n        /* \"contracts/HealthRecords.sol\":5747:5762  metadata.status */\n      0x20\n      add\n      mload\n        /* \"contracts/HealthRecords.sol\":5764:5772  metadata */\n      dup3\n        /* \"contracts/HealthRecords.sol\":5764:5778  metadata.isSet */\n      0x40\n      add\n      mload\n        /* \"contracts/HealthRecords.sol\":5712:5779  return (metadata.primaryCondition, metadata.status, metadata.isSet) */\n      swap4\n      pop\n      swap4\n      pop\n      swap4\n      pop\n      pop\n        /* \"contracts/HealthRecords.sol\":5474:5787  function getDirectoryMetadata(address _doctor, address _patient) public view returns (string memory primaryCondition, uint8 status, bool isSet) {... */\n      swap3\n      pop\n      swap3\n      pop\n      swap3\n      jump\t// out\n        /* \"contracts/HealthRecords.sol\":4559:4905  function getPatientProfile(address _patient) public view returns (string memory name, string memory bloodType, string memory phone, string memory email) {... */\n    tag_44:\n        /* \"contracts/HealthRecords.sol\":4625:4643  string memory name */\n      0x60\n        /* \"contracts/HealthRecords.sol\":4645:4668  string memory bloodType */\n      dup1\n        /* \"contracts/HealthRecords.sol\":4670:4689  string memory phone */\n      0x60\n        /* \"contracts/HealthRecords.sol\":4691:4710  string memory email */\n      dup1\n        /* \"contracts/HealthRecords.sol\":4731:4739  patients */\n      0x00\n        /* \"contracts/HealthRecords.sol\":4731:4749  patients[_patient] */\n      dup1\n        /* \"contracts/HealthRecords.sol\":4740:4748  _patient */\n      dup7\n        /* \"contracts/HealthRecords.sol\":4731:4749  patients[_patient] */\n      0xffffffffffffffffffffffffffffffffffffffff\n      and\n      0xffffffffffffffffffffffffffffffffffffffff\n      and\n      dup2\n      mstore\n      0x20\n      add\n      swap1\n      dup2\n      mstore\n      0x20\n      add\n      0x00\n      keccak256\n        /* \"contracts/HealthRecords.sol\":4731:4762  patients[_patient].isRegistered */\n      0x00\n      add\n      0x00\n      swap1\n      sload\n      swap1\n      0x0100\n      exp\n      swap1\n      div\n      0xff\n      and\n        /* \"contracts/HealthRecords.sol\":4723:4792  require(patients[_patient].isRegistered, \"Not a registered patient.\") */\n      tag_155\n      jumpi\n      mload(0x40)\n      0x08c379a000000000000000000000000000000000000000000000000000000000\n      dup2\n      mstore\n      0x04\n      add\n      tag_156\n      swap1\n      tag_157\n      jump\t// in\n    tag_156:\n      mload(0x40)\n      dup1\n      swap2\n      sub\n      swap1\n      revert\n    tag_155:\n        /* \"contracts/HealthRecords.sol\":4803:4819  Patient memory p */\n      0x00\n        /* \"contracts/HealthRecords.sol\":4822:4830  patients */\n      dup1\n        /* \"contracts/HealthRecords.sol\":4822:4840  patients[_patient] */\n      0x00\n        /* \"contracts/HealthRecords.sol\":4831:4839  _patient */\n      dup8\n        /* \"contracts/HealthRecords.sol\":4822:4840  patients[_patient] */\n      0xffffffffffffffffffffffffffffffffffffffff\n      and\n      0xffffffffffffffffffffffffffffffffffffffff\n      and\n      dup2\n      mstore\n      0x20\n      add\n      swap1\n      dup2\n      mstore\n      0x20\n      add\n      0x00\n      keccak256\n        /* \"contracts/HealthRecords.sol\":4803:4840  Patient memory p = patients[_patient] */\n      mload(0x40)\n      dup1\n      0xa0\n      add\n      0x40\n      mstore\n      swap1\n      dup2\n      0x00\n      dup3\n      add\n      0x00\n      swap1\n      sload\n      swap1\n      0x0100\n      exp\n      swap1\n      div\n      0xff\n      and\n      iszero\n      iszero\n      iszero\n      iszero\n      dup2\n      mstore\n      0x20\n      add\n      0x01\n      dup3\n      add\n      dup1\n      sload\n      tag_158\n      swap1\n      tag_109\n      jump\t// in\n    tag_158:\n      dup1\n      0x1f\n      add\n      0x20\n      dup1\n      swap2\n      div\n      mul\n      0x20\n      add\n      mload(0x40)\n      swap1\n      dup2\n      add\n      0x40\n      mstore\n      dup1\n      swap3\n      swap2\n      swap1\n      dup2\n      dup2\n      mstore\n      0x20\n      add\n      dup3\n      dup1\n      sload\n      tag_159\n      swap1\n      tag_109\n      jump\t// in\n    tag_159:\n      dup1\n      iszero\n      tag_160\n      jumpi\n      dup1\n      0x1f\n      lt\n      tag_161\n      jumpi\n      0x0100\n      dup1\n      dup4\n      sload\n      div\n      mul\n      dup4\n      mstore\n      swap2\n      0x20\n      add\n      swap2\n      jump(tag_160)\n    tag_161:\n      dup3\n      add\n      swap2\n      swap1\n      0x00\n      mstore\n      keccak256(0x00, 0x20)\n      swap1\n    tag_162:\n      dup2\n      sload\n      dup2\n      mstore\n      swap1\n      0x01\n      add\n      swap1\n      0x20\n      add\n      dup1\n      dup4\n      gt\n      tag_162\n      jumpi\n      dup3\n      swap1\n      sub\n      0x1f\n      and\n      dup3\n      add\n      swap2\n    tag_160:\n      pop\n      pop\n      pop\n      pop\n      pop\n      dup2\n      mstore\n      0x20\n      add\n      0x02\n      dup3\n      add\n      dup1\n      sload\n      tag_163\n      swap1\n      tag_109\n      jump\t// in\n    tag_163:\n      dup1\n      0x1f\n      add\n      0x20\n      dup1\n      swap2\n      div\n      mul\n      0x20\n      add\n      mload(0x40)\n      swap1\n      dup2\n      add\n      0x40\n      mstore\n      dup1\n      swap3\n      swap2\n      swap1\n      dup2\n      dup2\n      mstore\n      0x20\n      add\n      dup3\n      dup1\n      sload\n      tag_164\n      swap1\n      tag_109\n      jump\t// in\n    tag_164:\n      dup1\n      iszero\n      tag_165\n      jumpi\n      dup1\n      0x1f\n      lt\n      tag_166\n      jumpi\n      0x0100\n      dup1\n      dup4\n      sload\n      div\n      mul\n      dup4\n      mstore\n      swap2\n      0x20\n      add\n      swap2\n      jump(tag_165)\n    tag_166:\n      dup3\n      add\n      swap2\n      swap1\n      0x00\n      mstore\n      keccak256(0x00, 0x20)\n      swap1\n    tag_167:\n      dup2\n      sload\n      dup2\n      mstore\n      swap1\n      0x01\n      add\n      swap1\n      0x20\n      add\n      dup1\n      dup4\n      gt\n      tag_167\n      jumpi\n      dup3\n      swap1\n      sub\n      0x1f\n      and\n      dup3\n      add\n      swap2\n    tag_165:\n      pop\n      pop\n      pop\n      pop\n      pop\n      dup2\n      mstore\n      0x20\n      add\n      0x03\n      dup3\n      add\n      dup1\n      sload\n      tag_168\n      swap1\n      tag_109\n      jump\t// in\n    tag_168:\n      dup1\n      0x1f\n      add\n      0x20\n      dup1\n      swap2\n      div\n      mul\n      0x20\n      add\n      mload(0x40)\n      swap1\n      dup2\n      add\n      0x40\n      mstore\n      dup1\n      swap3\n      swap2\n      swap1\n      dup2\n      dup2\n      mstore\n      0x20\n      add\n      dup3\n      dup1\n      sload\n      tag_169\n      swap1\n      tag_109\n      jump\t// in\n    tag_169:\n      dup1\n      iszero\n      tag_170\n      jumpi\n      dup1\n      0x1f\n      lt\n      tag_171\n      jumpi\n      0x0100\n      dup1\n      dup4\n      sload\n      div\n      mul\n      dup4\n      mstore\n      swap2\n      0x20\n      add\n      swap2\n      jump(tag_170)\n    tag_171:\n      dup3\n      add\n      swap2\n      swap1\n      0x00\n      mstore\n      keccak256(0x00, 0x20)\n      swap1\n    tag_172:\n      dup2\n      sload\n      dup2\n      mstore\n      swap1\n      0x01\n      add\n      swap1\n      0x20\n      add\n      dup1\n      dup4\n      gt\n      tag_172\n      jumpi\n      dup3\n      swap1\n      sub\n      0x1f\n      and\n      dup3\n      add\n      swap2\n    tag_170:\n      pop\n      pop\n      pop\n      pop\n      pop\n      dup2\n      mstore\n      0x20\n      add\n      0x04\n      dup3\n      add\n      dup1\n      sload\n      tag_173\n      swap1\n      tag_109\n      jump\t// in\n    tag_173:\n      dup1\n      0x1f\n      add\n      0x20\n      dup1\n      swap2\n      div\n      mul\n      0x20\n      add\n      mload(0x40)\n      swap1\n      dup2\n      add\n      0x40\n      mstore\n      dup1\n      swap3\n      swap2\n      swap1\n      dup2\n      dup2\n      mstore\n      0x20\n      add\n      dup3\n      dup1\n      sload\n      tag_174\n      swap1\n      tag_109\n      jump\t// in\n    tag_174:\n      dup1\n      iszero\n      tag_175\n      jumpi\n      dup1\n      0x1f\n      lt\n      tag_176\n      jumpi\n      0x0100\n      dup1\n      dup4\n      sload\n      div\n      mul\n      dup4\n      mstore\n      swap2\n      0x20\n      add\n      swap2\n      jump(tag_175)\n    tag_176:\n      dup3\n      add\n      swap2\n      swap1\n      0x00\n      mstore\n      keccak256(0x00, 0x20)\n      swap1\n    tag_177:\n      dup2\n      sload\n      dup2\n      mstore\n      swap1\n      0x01\n      add\n      swap1\n      0x20\n      add\n      dup1\n      dup4\n      gt\n      tag_177\n      jumpi\n      dup3\n      swap1\n      sub\n      0x1f\n      and\n      dup3\n      add\n      swap2\n    tag_175:\n      pop\n      pop\n      pop\n      pop\n      pop\n      dup2\n      mstore\n      pop\n      pop\n      swap1\n      pop\n        /* \"contracts/HealthRecords.sol\":4859:4860  p */\n      dup1\n        /* \"contracts/HealthRecords.sol\":4859:4865  p.name */\n      0x20\n      add\n      mload\n        /* \"contracts/HealthRecords.sol\":4867:4868  p */\n      dup2\n        /* \"contracts/HealthRecords.sol\":4867:4878  p.bloodType */\n      0x40\n      add\n      mload\n        /* \"contracts/HealthRecords.sol\":4880:4881  p */\n      dup3\n        /* \"contracts/HealthRecords.sol\":4880:4887  p.phone */\n      0x60\n      add\n      mload\n        /* \"contracts/HealthRecords.sol\":4889:4890  p */\n      dup4\n        /* \"contracts/HealthRecords.sol\":4889:4896  p.email */\n      0x80\n      add\n      mload\n        /* \"contracts/HealthRecords.sol\":4851:4897  return (p.name, p.bloodType, p.phone, p.email) */\n      swap5\n      pop\n      swap5\n      pop\n      swap5\n      pop\n      swap5\n      pop\n      pop\n        /* \"contracts/HealthRecords.sol\":4559:4905  function getPatientProfile(address _patient) public view returns (string memory name, string memory bloodType, string memory phone, string memory email) {... */\n      swap2\n      swap4\n      pop\n      swap2\n      swap4\n      jump\t// out\n        /* \"contracts/HealthRecords.sol\":2634:3215  function registerPatient(string memory _name, string memory _bloodType, string memory _phone, string memory _email) public {... */\n    tag_50:\n        /* \"contracts/HealthRecords.sol\":2777:2785  patients */\n      0x00\n        /* \"contracts/HealthRecords.sol\":2777:2797  patients[msg.sender] */\n      dup1\n        /* \"contracts/HealthRecords.sol\":2786:2796  msg.sender */\n      caller\n        /* \"contracts/HealthRecords.sol\":2777:2797  patients[msg.sender] */\n      0xffffffffffffffffffffffffffffffffffffffff\n      and\n      0xffffffffffffffffffffffffffffffffffffffff\n      and\n      dup2\n      mstore\n      0x20\n      add\n      swap1\n      dup2\n      mstore\n      0x20\n      add\n      0x00\n      keccak256\n        /* \"contracts/HealthRecords.sol\":2777:2810  patients[msg.sender].isRegistered */\n      0x00\n      add\n      0x00\n      swap1\n      sload\n      swap1\n      0x0100\n      exp\n      swap1\n      div\n      0xff\n      and\n        /* \"contracts/HealthRecords.sol\":2776:2810  !patients[msg.sender].isRegistered */\n      iszero\n        /* \"contracts/HealthRecords.sol\":2768:2847  require(!patients[msg.sender].isRegistered, \"Already registered as a patient.\") */\n      tag_179\n      jumpi\n      mload(0x40)\n      0x08c379a000000000000000000000000000000000000000000000000000000000\n      dup2\n      mstore\n      0x04\n      add\n      tag_180\n      swap1\n      tag_181\n      jump\t// in\n    tag_180:\n      mload(0x40)\n      dup1\n      swap2\n      sub\n      swap1\n      revert\n    tag_179:\n        /* \"contracts/HealthRecords.sol\":2867:2874  doctors */\n      0x01\n        /* \"contracts/HealthRecords.sol\":2867:2886  doctors[msg.sender] */\n      0x00\n        /* \"contracts/HealthRecords.sol\":2875:2885  msg.sender */\n      caller\n        /* \"contracts/HealthRecords.sol\":2867:2886  doctors[msg.sender] */\n      0xffffffffffffffffffffffffffffffffffffffff\n      and\n      0xffffffffffffffffffffffffffffffffffffffff\n      and\n      dup2\n      mstore\n      0x20\n      add\n      swap1\n      dup2\n      mstore\n      0x20\n      add\n      0x00\n      keccak256\n        /* \"contracts/HealthRecords.sol\":2867:2899  doctors[msg.sender].isRegistered */\n      0x00\n      add\n      0x00\n      swap1\n      sload\n      swap1\n      0x0100\n      exp\n      swap1\n      div\n      0xff\n      and\n        /* \"contracts/HealthRecords.sol\":2866:2899  !doctors[msg.sender].isRegistered */\n      iszero\n        /* \"contracts/HealthRecords.sol\":2858:2940  require(!doctors[msg.sender].isRegistered, \"Doctors cannot register as patients.\") */\n      tag_182\n      jumpi\n      mload(0x40)\n      0x08c379a000000000000000000000000000000000000000000000000000000000\n      dup2\n      mstore\n      0x04\n      add\n      tag_183\n      swap1\n      tag_184\n      jump\t// in\n    tag_183:\n      mload(0x40)\n      dup1\n      swap2\n      sub\n      swap1\n      revert\n    tag_182:\n        /* \"contracts/HealthRecords.sol\":2984:3155  Patient({... */\n      mload(0x40)\n      dup1\n      0xa0\n      add\n      0x40\n      mstore\n      dup1\n        /* \"contracts/HealthRecords.sol\":3021:3025  true */\n      0x01\n        /* \"contracts/HealthRecords.sol\":2984:3155  Patient({... */\n      iszero\n      iszero\n      dup2\n      mstore\n      0x20\n      add\n        /* \"contracts/HealthRecords.sol\":3046:3051  _name */\n      dup6\n        /* \"contracts/HealthRecords.sol\":2984:3155  Patient({... */\n      dup2\n      mstore\n      0x20\n      add\n        /* \"contracts/HealthRecords.sol\":3077:3087  _bloodType */\n      dup5\n        /* \"contracts/HealthRecords.sol\":2984:3155  Patient({... */\n      dup2\n      mstore\n      0x20\n      add\n        /* \"contracts/HealthRecords.sol\":3109:3115  _phone */\n      dup4\n        /* \"contracts/HealthRecords.sol\":2984:3155  Patient({... */\n      dup2\n      mstore\n      0x20\n      add\n        /* \"contracts/HealthRecords.sol\":3137:3143  _email */\n      dup3\n        /* \"contracts/HealthRecords.sol\":2984:3155  Patient({... */\n      dup2\n      mstore\n      pop\n        /* \"contracts/HealthRecords.sol\":2961:2969  patients */\n      0x00\n        /* \"contracts/HealthRecords.sol\":2961:2981  patients[msg.sender] */\n      dup1\n        /* \"contracts/HealthRecords.sol\":2970:2980  msg.sender */\n      caller\n        /* \"contracts/HealthRecords.sol\":2961:2981  patients[msg.sender] */\n      0xffffffffffffffffffffffffffffffffffffffff\n      and\n      0xffffffffffffffffffffffffffffffffffffffff\n      and\n      dup2\n      mstore\n      0x20\n      add\n      swap1\n      dup2\n      mstore\n      0x20\n      add\n      0x00\n      keccak256\n        /* \"contracts/HealthRecords.sol\":2961:3155  patients[msg.sender] = Patient({... */\n      0x00\n      dup3\n      add\n      mload\n      dup2\n      0x00\n      add\n      exp(0x0100, 0x00)\n      dup2\n      sload\n      dup2\n      0xff\n      mul\n      not\n      and\n      swap1\n      dup4\n      iszero\n      iszero\n      mul\n      or\n      swap1\n      sstore\n      pop\n      0x20\n      dup3\n      add\n      mload\n      dup2\n      0x01\n      add\n      swap1\n      dup2\n      tag_185\n      swap2\n      swap1\n      tag_141\n      jump\t// in\n    tag_185:\n      pop\n      0x40\n      dup3\n      add\n      mload\n      dup2\n      0x02\n      add\n      swap1\n      dup2\n      tag_186\n      swap2\n      swap1\n      tag_141\n      jump\t// in\n    tag_186:\n      pop\n      0x60\n      dup3\n      add\n      mload\n      dup2\n      0x03\n      add\n      swap1\n      dup2\n      tag_187\n      swap2\n      swap1\n      tag_141\n      jump\t// in\n    tag_187:\n      pop\n      0x80\n      dup3\n      add\n      mload\n      dup2\n      0x04\n      add\n      swap1\n      dup2\n      tag_188\n      swap2\n      swap1\n      tag_141\n      jump\t// in\n    tag_188:\n      pop\n      swap1\n      pop\n      pop\n        /* \"contracts/HealthRecords.sol\":3189:3199  msg.sender */\n      caller\n        /* \"contracts/HealthRecords.sol\":3171:3207  PatientRegistered(msg.sender, _name) */\n      0xffffffffffffffffffffffffffffffffffffffff\n      and\n      0xc85b128388b9c331a2a5485dce4cd0f3db9f7c279d327ce95d6d39d6c94644c7\n        /* \"contracts/HealthRecords.sol\":3201:3206  _name */\n      dup6\n        /* \"contracts/HealthRecords.sol\":3171:3207  PatientRegistered(msg.sender, _name) */\n      mload(0x40)\n      tag_189\n      swap2\n      swap1\n      tag_60\n      jump\t// in\n    tag_189:\n      mload(0x40)\n      dup1\n      swap2\n      sub\n      swap1\n      log2\n        /* \"contracts/HealthRecords.sol\":2634:3215  function registerPatient(string memory _name, string memory _bloodType, string memory _phone, string memory _email) public {... */\n      pop\n      pop\n      pop\n      pop\n      jump\t// out\n        /* \"contracts/HealthRecords.sol\":958:1024  mapping(address => mapping(address => bool)) public pendingConsent */\n    tag_53:\n      mstore(0x20, 0x04)\n      dup2\n      0x00\n      mstore\n      mstore(0x20, keccak256(0x00, 0x40))\n      dup1\n      0x00\n      mstore\n      keccak256(0x00, 0x40)\n      0x00\n      swap2\n      pop\n      swap2\n      pop\n      swap1\n      sload\n      swap1\n      0x0100\n      exp\n      swap1\n      div\n      0xff\n      and\n      dup2\n      jump\t// out\n        /* \"contracts/HealthRecords.sol\":4342:4551  function getDoctorProfile(address _doctor) public view returns (string memory name) {... */\n    tag_58:\n        /* \"contracts/HealthRecords.sol\":4406:4424  string memory name */\n      0x60\n        /* \"contracts/HealthRecords.sol\":4445:4452  doctors */\n      0x01\n        /* \"contracts/HealthRecords.sol\":4445:4461  doctors[_doctor] */\n      0x00\n        /* \"contracts/HealthRecords.sol\":4453:4460  _doctor */\n      dup4\n        /* \"contracts/HealthRecords.sol\":4445:4461  doctors[_doctor] */\n      0xffffffffffffffffffffffffffffffffffffffff\n      and\n      0xffffffffffffffffffffffffffffffffffffffff\n      and\n      dup2\n      mstore\n      0x20\n      add\n      swap1\n      dup2\n      mstore\n      0x20\n      add\n      0x00\n      keccak256\n        /* \"contracts/HealthRecords.sol\":4445:4474  doctors[_doctor].isRegistered */\n      0x00\n      add\n      0x00\n      swap1\n      sload\n      swap1\n      0x0100\n      exp\n      swap1\n      div\n      0xff\n      and\n        /* \"contracts/HealthRecords.sol\":4437:4504  require(doctors[_doctor].isRegistered, \"Not an authorized doctor.\") */\n      tag_191\n      jumpi\n      mload(0x40)\n      0x08c379a000000000000000000000000000000000000000000000000000000000\n      dup2\n      mstore\n      0x04\n      add\n      tag_192\n      swap1\n      tag_193\n      jump\t// in\n    tag_192:\n      mload(0x40)\n      dup1\n      swap2\n      sub\n      swap1\n      revert\n    tag_191:\n        /* \"contracts/HealthRecords.sol\":4522:4529  doctors */\n      0x01\n        /* \"contracts/HealthRecords.sol\":4522:4538  doctors[_doctor] */\n      0x00\n        /* \"contracts/HealthRecords.sol\":4530:4537  _doctor */\n      dup4\n        /* \"contracts/HealthRecords.sol\":4522:4538  doctors[_doctor] */\n      0xffffffffffffffffffffffffffffffffffffffff\n      and\n      0xffffffffffffffffffffffffffffffffffffffff\n      and\n      dup2\n      mstore\n      0x20\n      add\n      swap1\n      dup2\n      mstore\n      0x20\n      add\n      0x00\n      keccak256\n        /* \"contracts/HealthRecords.sol\":4522:4543  doctors[_doctor].name */\n      0x01\n      add\n        /* \"contracts/HealthRecords.sol\":4515:4543  return doctors[_doctor].name */\n      dup1\n      sload\n      tag_194\n      swap1\n      tag_109\n      jump\t// in\n    tag_194:\n      dup1\n      0x1f\n      add\n      0x20\n      dup1\n      swap2\n      div\n      mul\n      0x20\n      add\n      mload(0x40)\n      swap1\n      dup2\n      add\n      0x40\n      mstore\n      dup1\n      swap3\n      swap2\n      swap1\n      dup2\n      dup2\n      mstore\n      0x20\n      add\n      dup3\n      dup1\n      sload\n      tag_195\n      swap1\n      tag_109\n      jump\t// in\n    tag_195:\n      dup1\n      iszero\n      tag_196\n      jumpi\n      dup1\n      0x1f\n      lt\n      tag_197\n      jumpi\n      0x0100\n      dup1\n      dup4\n      sload\n      div\n      mul\n      dup4\n      mstore\n      swap2\n      0x20\n      add\n      swap2\n      jump(tag_196)\n    tag_197:\n      dup3\n      add\n      swap2\n      swap1\n      0x00\n      mstore\n      keccak256(0x00, 0x20)\n      swap1\n    tag_198:\n      dup2\n      sload\n      dup2\n      mstore\n      swap1\n      0x01\n      add\n      swap1\n      0x20\n      add\n      dup1\n      dup4\n      gt\n      tag_198\n      jumpi\n      dup3\n      swap1\n      sub\n      0x1f\n      and\n      dup3\n      add\n      swap2\n    tag_196:\n      pop\n      pop\n      pop\n      pop\n      pop\n      swap1\n      pop\n        /* \"contracts/HealthRecords.sol\":4342:4551  function getDoctorProfile(address _doctor) public view returns (string memory name) {... */\n      swap2\n      swap1\n      pop\n      jump\t// out\n        /* \"contracts/HealthRecords.sol\":7136:7497  function addVisit(address _patient, bytes memory _encryptedData) public onlyDoctor {... */\n    tag_64:\n        /* \"contracts/HealthRecords.sol\":1972:1979  doctors */\n      0x01\n        /* \"contracts/HealthRecords.sol\":1972:1991  doctors[msg.sender] */\n      0x00\n        /* \"contracts/HealthRecords.sol\":1980:1990  msg.sender */\n      caller\n        /* \"contracts/HealthRecords.sol\":1972:1991  doctors[msg.sender] */\n      0xffffffffffffffffffffffffffffffffffffffff\n      and\n      0xffffffffffffffffffffffffffffffffffffffff\n      and\n      dup2\n      mstore\n      0x20\n      add\n      swap1\n      dup2\n      mstore\n      0x20\n      add\n      0x00\n      keccak256\n        /* \"contracts/HealthRecords.sol\":1972:2004  doctors[msg.sender].isRegistered */\n      0x00\n      add\n      0x00\n      swap1\n      sload\n      swap1\n      0x0100\n      exp\n      swap1\n      div\n      0xff\n      and\n        /* \"contracts/HealthRecords.sol\":1964:2043  require(doctors[msg.sender].isRegistered, \"Caller is not an authorized doctor\") */\n      tag_200\n      jumpi\n      mload(0x40)\n      0x08c379a000000000000000000000000000000000000000000000000000000000\n      dup2\n      mstore\n      0x04\n      add\n      tag_201\n      swap1\n      tag_97\n      jump\t// in\n    tag_201:\n      mload(0x40)\n      dup1\n      swap2\n      sub\n      swap1\n      revert\n    tag_200:\n        /* \"contracts/HealthRecords.sol\":7238:7252  patientConsent */\n      0x03\n        /* \"contracts/HealthRecords.sol\":7238:7262  patientConsent[_patient] */\n      0x00\n        /* \"contracts/HealthRecords.sol\":7253:7261  _patient */\n      dup4\n        /* \"contracts/HealthRecords.sol\":7238:7262  patientConsent[_patient] */\n      0xffffffffffffffffffffffffffffffffffffffff\n      and\n      0xffffffffffffffffffffffffffffffffffffffff\n      and\n      dup2\n      mstore\n      0x20\n      add\n      swap1\n      dup2\n      mstore\n      0x20\n      add\n      0x00\n      keccak256\n        /* \"contracts/HealthRecords.sol\":7238:7274  patientConsent[_patient][msg.sender] */\n      0x00\n        /* \"contracts/HealthRecords.sol\":7263:7273  msg.sender */\n      caller\n        /* \"contracts/HealthRecords.sol\":7238:7274  patientConsent[_patient][msg.sender] */\n      0xffffffffffffffffffffffffffffffffffffffff\n      and\n      0xffffffffffffffffffffffffffffffffffffffff\n      and\n      dup2\n      mstore\n      0x20\n      add\n      swap1\n      dup2\n      mstore\n      0x20\n      add\n      0x00\n      keccak256\n      0x00\n      swap1\n      sload\n      swap1\n      0x0100\n      exp\n      swap1\n      div\n      0xff\n      and\n        /* \"contracts/HealthRecords.sol\":7230:7326  require(patientConsent[_patient][msg.sender], \"Patient has not granted consent to this doctor.\") */\n      tag_203\n      jumpi\n      mload(0x40)\n      0x08c379a000000000000000000000000000000000000000000000000000000000\n      dup2\n      mstore\n      0x04\n      add\n      tag_204\n      swap1\n      tag_205\n      jump\t// in\n    tag_204:\n      mload(0x40)\n      dup1\n      swap2\n      sub\n      swap1\n      revert\n    tag_203:\n        /* \"contracts/HealthRecords.sol\":7369:7370  0 */\n      0x00\n        /* \"contracts/HealthRecords.sol\":7345:7359  _encryptedData */\n      dup2\n        /* \"contracts/HealthRecords.sol\":7345:7366  _encryptedData.length */\n      mload\n        /* \"contracts/HealthRecords.sol\":7345:7370  _encryptedData.length > 0 */\n      gt\n        /* \"contracts/HealthRecords.sol\":7337:7406  require(_encryptedData.length > 0, \"Encrypted data cannot be empty.\") */\n      tag_206\n      jumpi\n      mload(0x40)\n      0x08c379a000000000000000000000000000000000000000000000000000000000\n      dup2\n      mstore\n      0x04\n      add\n      tag_207\n      swap1\n      tag_208\n      jump\t// in\n    tag_207:\n      mload(0x40)\n      dup1\n      swap2\n      sub\n      swap1\n      revert\n    tag_206:\n        /* \"contracts/HealthRecords.sol\":7445:7455  msg.sender */\n      caller\n        /* \"contracts/HealthRecords.sol\":7424:7489  VisitAdded(_patient, msg.sender, block.timestamp, _encryptedData) */\n      0xffffffffffffffffffffffffffffffffffffffff\n      and\n        /* \"contracts/HealthRecords.sol\":7435:7443  _patient */\n      dup3\n        /* \"contracts/HealthRecords.sol\":7424:7489  VisitAdded(_patient, msg.sender, block.timestamp, _encryptedData) */\n      0xffffffffffffffffffffffffffffffffffffffff\n      and\n      0x8fed6a2b6c4b373ec8518dd42cb708c88beb55d8806492942025f2d86118bcb7\n        /* \"contracts/HealthRecords.sol\":7457:7472  block.timestamp */\n      timestamp\n        /* \"contracts/HealthRecords.sol\":7474:7488  _encryptedData */\n      dup5\n        /* \"contracts/HealthRecords.sol\":7424:7489  VisitAdded(_patient, msg.sender, block.timestamp, _encryptedData) */\n      mload(0x40)\n      tag_209\n      swap3\n      swap2\n      swap1\n      tag_210\n      jump\t// in\n    tag_209:\n      mload(0x40)\n      dup1\n      swap2\n      sub\n      swap1\n      log3\n        /* \"contracts/HealthRecords.sol\":7136:7497  function addVisit(address _patient, bytes memory _encryptedData) public onlyDoctor {... */\n      pop\n      pop\n      jump\t// out\n        /* \"contracts/HealthRecords.sol\":90:120  address public immutable owner */\n    tag_66:\n      immutable(\"0x2a80e1ef1d7842f27f2e6be0972bb708b9a135c38860dbe73c27c3486c34f4de\")\n      dup2\n      jump\t// out\n        /* \"contracts/HealthRecords.sol\":4913:5466  function setDirectoryMetadata(address _patient, string memory _primaryCondition, uint8 _status) public onlyDoctor {... */\n    tag_72:\n        /* \"contracts/HealthRecords.sol\":1972:1979  doctors */\n      0x01\n        /* \"contracts/HealthRecords.sol\":1972:1991  doctors[msg.sender] */\n      0x00\n        /* \"contracts/HealthRecords.sol\":1980:1990  msg.sender */\n      caller\n        /* \"contracts/HealthRecords.sol\":1972:1991  doctors[msg.sender] */\n      0xffffffffffffffffffffffffffffffffffffffff\n      and\n      0xffffffffffffffffffffffffffffffffffffffff\n      and\n      dup2\n      mstore\n      0x20\n      add\n      swap1\n      dup2\n      mstore\n      0x20\n      add\n      0x00\n      keccak256\n        /* \"contracts/HealthRecords.sol\":1972:2004  doctors[msg.sender].isRegistered */\n      0x00\n      add\n      0x00\n      swap1\n      sload\n      swap1\n      0x0100\n      exp\n      swap1\n      div\n      0xff\n      and\n        /* \"contracts/HealthRecords.sol\":1964:2043  require(doctors[msg.sender].isRegistered, \"Caller is not an authorized doctor\") */\n      tag_212\n      jumpi\n      mload(0x40)\n      0x08c379a000000000000000000000000000000000000000000000000000000000\n      dup2\n      mstore\n      0x04\n      add\n      tag_213\n      swap1\n      tag_97\n      jump\t// in\n    tag_213:\n      mload(0x40)\n      dup1\n      swap2\n      sub\n      swap1\n      revert\n    tag_212:\n        /* \"contracts/HealthRecords.sol\":5046:5054  patients */\n      0x00\n        /* \"contracts/HealthRecords.sol\":5046:5064  patients[_patient] */\n      dup1\n        /* \"contracts/HealthRecords.sol\":5055:5063  _patient */\n      dup5\n        /* \"contracts/HealthRecords.sol\":5046:5064  patients[_patient] */\n      0xffffffffffffffffffffffffffffffffffffffff\n      and\n      0xffffffffffffffffffffffffffffffffffffffff\n      and\n      dup2\n      mstore\n      0x20\n      add\n      swap1\n      dup2\n      mstore\n      0x20\n      add\n      0x00\n      keccak256\n        /* \"contracts/HealthRecords.sol\":5046:5077  patients[_patient].isRegistered */\n      0x00\n      add\n      0x00\n      swap1\n      sload\n      swap1\n      0x0100\n      exp\n      swap1\n      div\n      0xff\n      and\n        /* \"contracts/HealthRecords.sol\":5038:5118  require(patients[_patient].isRegistered, \"Address is not a registered patient.\") */\n      tag_215\n      jumpi\n      mload(0x40)\n      0x08c379a000000000000000000000000000000000000000000000000000000000\n      dup2\n      mstore\n      0x04\n      add\n      tag_216\n      swap1\n      tag_101\n      jump\t// in\n    tag_216:\n      mload(0x40)\n      dup1\n      swap2\n      sub\n      swap1\n      revert\n    tag_215:\n        /* \"contracts/HealthRecords.sol\":5148:5149  2 */\n      0x02\n        /* \"contracts/HealthRecords.sol\":5137:5144  _status */\n      dup2\n        /* \"contracts/HealthRecords.sol\":5137:5149  _status <= 2 */\n      0xff\n      and\n      gt\n      iszero\n        /* \"contracts/HealthRecords.sol\":5129:5175  require(_status <= 2, \"Invalid status value.\") */\n      tag_217\n      jumpi\n      mload(0x40)\n      0x08c379a000000000000000000000000000000000000000000000000000000000\n      dup2\n      mstore\n      0x04\n      add\n      tag_218\n      swap1\n      tag_219\n      jump\t// in\n    tag_218:\n      mload(0x40)\n      dup1\n      swap2\n      sub\n      swap1\n      revert\n    tag_217:\n        /* \"contracts/HealthRecords.sol\":5230:5366  DirectoryMetadata({... */\n      mload(0x40)\n      dup1\n      0x60\n      add\n      0x40\n      mstore\n      dup1\n        /* \"contracts/HealthRecords.sol\":5281:5298  _primaryCondition */\n      dup4\n        /* \"contracts/HealthRecords.sol\":5230:5366  DirectoryMetadata({... */\n      dup2\n      mstore\n      0x20\n      add\n        /* \"contracts/HealthRecords.sol\":5321:5328  _status */\n      dup3\n        /* \"contracts/HealthRecords.sol\":5230:5366  DirectoryMetadata({... */\n      0xff\n      and\n      dup2\n      mstore\n      0x20\n      add\n        /* \"contracts/HealthRecords.sol\":5350:5354  true */\n      0x01\n        /* \"contracts/HealthRecords.sol\":5230:5366  DirectoryMetadata({... */\n      iszero\n      iszero\n      dup2\n      mstore\n      pop\n        /* \"contracts/HealthRecords.sol\":5188:5205  directoryMetadata */\n      0x02\n        /* \"contracts/HealthRecords.sol\":5188:5217  directoryMetadata[msg.sender] */\n      0x00\n        /* \"contracts/HealthRecords.sol\":5206:5216  msg.sender */\n      caller\n        /* \"contracts/HealthRecords.sol\":5188:5217  directoryMetadata[msg.sender] */\n      0xffffffffffffffffffffffffffffffffffffffff\n      and\n      0xffffffffffffffffffffffffffffffffffffffff\n      and\n      dup2\n      mstore\n      0x20\n      add\n      swap1\n      dup2\n      mstore\n      0x20\n      add\n      0x00\n      keccak256\n        /* \"contracts/HealthRecords.sol\":5188:5227  directoryMetadata[msg.sender][_patient] */\n      0x00\n        /* \"contracts/HealthRecords.sol\":5218:5226  _patient */\n      dup6\n        /* \"contracts/HealthRecords.sol\":5188:5227  directoryMetadata[msg.sender][_patient] */\n      0xffffffffffffffffffffffffffffffffffffffff\n      and\n      0xffffffffffffffffffffffffffffffffffffffff\n      and\n      dup2\n      mstore\n      0x20\n      add\n      swap1\n      dup2\n      mstore\n      0x20\n      add\n      0x00\n      keccak256\n        /* \"contracts/HealthRecords.sol\":5188:5366  directoryMetadata[msg.sender][_patient] = DirectoryMetadata({... */\n      0x00\n      dup3\n      add\n      mload\n      dup2\n      0x00\n      add\n      swap1\n      dup2\n      tag_220\n      swap2\n      swap1\n      tag_141\n      jump\t// in\n    tag_220:\n      pop\n      0x20\n      dup3\n      add\n      mload\n      dup2\n      0x01\n      add\n      exp(0x0100, 0x00)\n      dup2\n      sload\n      dup2\n      0xff\n      mul\n      not\n      and\n      swap1\n      dup4\n      0xff\n      and\n      mul\n      or\n      swap1\n      sstore\n      pop\n      0x40\n      dup3\n      add\n      mload\n      dup2\n      0x01\n      add\n      exp(0x0100, 0x01)\n      dup2\n      sload\n      dup2\n      0xff\n      mul\n      not\n      and\n      swap1\n      dup4\n      iszero\n      iszero\n      mul\n      or\n      swap1\n      sstore\n      pop\n      swap1\n      pop\n      pop\n        /* \"contracts/HealthRecords.sol\":5421:5429  _patient */\n      dup3\n        /* \"contracts/HealthRecords.sol\":5384:5458  DirectoryMetadataUpdated(msg.sender, _patient, _primaryCondition, _status) */\n      0xffffffffffffffffffffffffffffffffffffffff\n      and\n        /* \"contracts/HealthRecords.sol\":5409:5419  msg.sender */\n      caller\n        /* \"contracts/HealthRecords.sol\":5384:5458  DirectoryMetadataUpdated(msg.sender, _patient, _primaryCondition, _status) */\n      0xffffffffffffffffffffffffffffffffffffffff\n      and\n      0x2c82a2c170dc5e4dab70455f69309153b0feae1684efcfab731978937b34d7cf\n        /* \"contracts/HealthRecords.sol\":5431:5448  _primaryCondition */\n      dup5\n        /* \"contracts/HealthRecords.sol\":5450:5457  _status */\n      dup5\n        /* \"contracts/HealthRecords.sol\":5384:5458  DirectoryMetadataUpdated(msg.sender, _patient, _primaryCondition, _status) */\n      mload(0x40)\n      tag_221\n      swap3\n      swap2\n      swap1\n      tag_222\n      jump\t// in\n    tag_221:\n      mload(0x40)\n      dup1\n      swap2\n      sub\n      swap1\n      log3\n        /* \"contracts/HealthRecords.sol\":4913:5466  function setDirectoryMetadata(address _patient, string memory _primaryCondition, uint8 _status) public onlyDoctor {... */\n      pop\n      pop\n      pop\n      jump\t// out\n        /* \"contracts/HealthRecords.sol\":3996:4299  function removeDoctor(address _doctor) public onlyOwner {... */\n    tag_75:\n        /* \"contracts/HealthRecords.sol\":1859:1864  owner */\n      immutable(\"0x2a80e1ef1d7842f27f2e6be0972bb708b9a135c38860dbe73c27c3486c34f4de\")\n        /* \"contracts/HealthRecords.sol\":1845:1864  msg.sender == owner */\n      0xffffffffffffffffffffffffffffffffffffffff\n      and\n        /* \"contracts/HealthRecords.sol\":1845:1855  msg.sender */\n      caller\n        /* \"contracts/HealthRecords.sol\":1845:1864  msg.sender == owner */\n      0xffffffffffffffffffffffffffffffffffffffff\n      and\n      eq\n        /* \"contracts/HealthRecords.sol\":1837:1903  require(msg.sender == owner, \"Only owner can perform this action\") */\n      tag_224\n      jumpi\n      mload(0x40)\n      0x08c379a000000000000000000000000000000000000000000000000000000000\n      dup2\n      mstore\n      0x04\n      add\n      tag_225\n      swap1\n      tag_132\n      jump\t// in\n    tag_225:\n      mload(0x40)\n      dup1\n      swap2\n      sub\n      swap1\n      revert\n    tag_224:\n        /* \"contracts/HealthRecords.sol\":4071:4078  doctors */\n      0x01\n        /* \"contracts/HealthRecords.sol\":4071:4087  doctors[_doctor] */\n      0x00\n        /* \"contracts/HealthRecords.sol\":4079:4086  _doctor */\n      dup3\n        /* \"contracts/HealthRecords.sol\":4071:4087  doctors[_doctor] */\n      0xffffffffffffffffffffffffffffffffffffffff\n      and\n      0xffffffffffffffffffffffffffffffffffffffff\n      and\n      dup2\n      mstore\n      0x20\n      add\n      swap1\n      dup2\n      mstore\n      0x20\n      add\n      0x00\n      keccak256\n        /* \"contracts/HealthRecords.sol\":4071:4100  doctors[_doctor].isRegistered */\n      0x00\n      add\n      0x00\n      swap1\n      sload\n      swap1\n      0x0100\n      exp\n      swap1\n      div\n      0xff\n      and\n        /* \"contracts/HealthRecords.sol\":4063:4129  require(doctors[_doctor].isRegistered, \"Address is not a doctor.\") */\n      tag_227\n      jumpi\n      mload(0x40)\n      0x08c379a000000000000000000000000000000000000000000000000000000000\n      dup2\n      mstore\n      0x04\n      add\n      tag_228\n      swap1\n      tag_229\n      jump\t// in\n    tag_228:\n      mload(0x40)\n      dup1\n      swap2\n      sub\n      swap1\n      revert\n    tag_227:\n        /* \"contracts/HealthRecords.sol\":4159:4164  owner */\n      immutable(\"0x2a80e1ef1d7842f27f2e6be0972bb708b9a135c38860dbe73c27c3486c34f4de\")\n        /* \"contracts/HealthRecords.sol\":4148:4164  _doctor != owner */\n      0xffffffffffffffffffffffffffffffffffffffff\n      and\n        /* \"contracts/HealthRecords.sol\":4148:4155  _doctor */\n      dup2\n        /* \"contracts/HealthRecords.sol\":4148:4164  _doctor != owner */\n      0xffffffffffffffffffffffffffffffffffffffff\n      and\n      sub\n        /* \"contracts/HealthRecords.sol\":4140:4203  require(_doctor != owner, \"Cannot remove the owner as doctor.\") */\n      tag_230\n      jumpi\n      mload(0x40)\n      0x08c379a000000000000000000000000000000000000000000000000000000000\n      dup2\n      mstore\n      0x04\n      add\n      tag_231\n      swap1\n      tag_232\n      jump\t// in\n    tag_231:\n      mload(0x40)\n      dup1\n      swap2\n      sub\n      swap1\n      revert\n    tag_230:\n        /* \"contracts/HealthRecords.sol\":4246:4251  false */\n      0x00\n        /* \"contracts/HealthRecords.sol\":4214:4221  doctors */\n      0x01\n        /* \"contracts/HealthRecords.sol\":4214:4230  doctors[_doctor] */\n      0x00\n        /* \"contracts/HealthRecords.sol\":4222:4229  _doctor */\n      dup4\n        /* \"contracts/HealthRecords.sol\":4214:4230  doctors[_doctor] */\n      0xffffffffffffffffffffffffffffffffffffffff\n      and\n      0xffffffffffffffffffffffffffffffffffffffff\n      and\n      dup2\n      mstore\n      0x20\n      add\n      swap1\n      dup2\n      mstore\n      0x20\n      add\n      0x00\n      keccak256\n        /* \"contracts/HealthRecords.sol\":4214:4243  doctors[_doctor].isRegistered */\n      0x00\n      add\n      0x00\n        /* \"contracts/HealthRecords.sol\":4214:4251  doctors[_doctor].isRegistered = false */\n      0x0100\n      exp\n      dup2\n      sload\n      dup2\n      0xff\n      mul\n      not\n      and\n      swap1\n      dup4\n      iszero\n      iszero\n      mul\n      or\n      swap1\n      sstore\n      pop\n        /* \"contracts/HealthRecords.sol\":4283:4290  _doctor */\n      dup1\n        /* \"contracts/HealthRecords.sol\":4269:4291  DoctorRemoved(_doctor) */\n      0xffffffffffffffffffffffffffffffffffffffff\n      and\n      0x493d7cf6a7c880406a55654d6727464ea088bd01d40498e1987a327e68961ab8\n      mload(0x40)\n      mload(0x40)\n      dup1\n      swap2\n      sub\n      swap1\n      log2\n        /* \"contracts/HealthRecords.sol\":3996:4299  function removeDoctor(address _doctor) public onlyOwner {... */\n      pop\n      jump\t// out\n        /* \"contracts/HealthRecords.sol\":6629:6914  function refuseConsent(address _doctor) public onlyPatient {... */\n    tag_78:\n        /* \"contracts/HealthRecords.sol\":2113:2121  patients */\n      0x00\n        /* \"contracts/HealthRecords.sol\":2113:2133  patients[msg.sender] */\n      dup1\n        /* \"contracts/HealthRecords.sol\":2122:2132  msg.sender */\n      caller\n        /* \"contracts/HealthRecords.sol\":2113:2133  patients[msg.sender] */\n      0xffffffffffffffffffffffffffffffffffffffff\n      and\n      0xffffffffffffffffffffffffffffffffffffffff\n      and\n      dup2\n      mstore\n      0x20\n      add\n      swap1\n      dup2\n      mstore\n      0x20\n      add\n      0x00\n      keccak256\n        /* \"contracts/HealthRecords.sol\":2113:2146  patients[msg.sender].isRegistered */\n      0x00\n      add\n      0x00\n      swap1\n      sload\n      swap1\n      0x0100\n      exp\n      swap1\n      div\n      0xff\n      and\n        /* \"contracts/HealthRecords.sol\":2105:2185  require(patients[msg.sender].isRegistered, \"Caller is not a registered patient\") */\n      tag_234\n      jumpi\n      mload(0x40)\n      0x08c379a000000000000000000000000000000000000000000000000000000000\n      dup2\n      mstore\n      0x04\n      add\n      tag_235\n      swap1\n      tag_236\n      jump\t// in\n    tag_235:\n      mload(0x40)\n      dup1\n      swap2\n      sub\n      swap1\n      revert\n    tag_234:\n        /* \"contracts/HealthRecords.sol\":6707:6721  pendingConsent */\n      0x04\n        /* \"contracts/HealthRecords.sol\":6707:6733  pendingConsent[msg.sender] */\n      0x00\n        /* \"contracts/HealthRecords.sol\":6722:6732  msg.sender */\n      caller\n        /* \"contracts/HealthRecords.sol\":6707:6733  pendingConsent[msg.sender] */\n      0xffffffffffffffffffffffffffffffffffffffff\n      and\n      0xffffffffffffffffffffffffffffffffffffffff\n      and\n      dup2\n      mstore\n      0x20\n      add\n      swap1\n      dup2\n      mstore\n      0x20\n      add\n      0x00\n      keccak256\n        /* \"contracts/HealthRecords.sol\":6707:6742  pendingConsent[msg.sender][_doctor] */\n      0x00\n        /* \"contracts/HealthRecords.sol\":6734:6741  _doctor */\n      dup3\n        /* \"contracts/HealthRecords.sol\":6707:6742  pendingConsent[msg.sender][_doctor] */\n      0xffffffffffffffffffffffffffffffffffffffff\n      and\n      0xffffffffffffffffffffffffffffffffffffffff\n      and\n      dup2\n      mstore\n      0x20\n      add\n      swap1\n      dup2\n      mstore\n      0x20\n      add\n      0x00\n      keccak256\n      0x00\n      swap1\n      sload\n      swap1\n      0x0100\n      exp\n      swap1\n      div\n      0xff\n      and\n        /* \"contracts/HealthRecords.sol\":6699:6791  require(pendingConsent[msg.sender][_doctor], \"No pending consent request from this doctor.\") */\n      tag_238\n      jumpi\n      mload(0x40)\n      0x08c379a000000000000000000000000000000000000000000000000000000000\n      dup2\n      mstore\n      0x04\n      add\n      tag_239\n      swap1\n      tag_240\n      jump\t// in\n    tag_239:\n      mload(0x40)\n      dup1\n      swap2\n      sub\n      swap1\n      revert\n    tag_238:\n        /* \"contracts/HealthRecords.sol\":6850:6855  false */\n      0x00\n        /* \"contracts/HealthRecords.sol\":6812:6826  pendingConsent */\n      0x04\n        /* \"contracts/HealthRecords.sol\":6812:6838  pendingConsent[msg.sender] */\n      0x00\n        /* \"contracts/HealthRecords.sol\":6827:6837  msg.sender */\n      caller\n        /* \"contracts/HealthRecords.sol\":6812:6838  pendingConsent[msg.sender] */\n      0xffffffffffffffffffffffffffffffffffffffff\n      and\n      0xffffffffffffffffffffffffffffffffffffffff\n      and\n      dup2\n      mstore\n      0x20\n      add\n      swap1\n      dup2\n      mstore\n      0x20\n      add\n      0x00\n      keccak256\n        /* \"contracts/HealthRecords.sol\":6812:6847  pendingConsent[msg.sender][_doctor] */\n      0x00\n        /* \"contracts/HealthRecords.sol\":6839:6846  _doctor */\n      dup4\n        /* \"contracts/HealthRecords.sol\":6812:6847  pendingConsent[msg.sender][_doctor] */\n      0xffffffffffffffffffffffffffffffffffffffff\n      and\n      0xffffffffffffffffffffffffffffffffffffffff\n      and\n      dup2\n      mstore\n      0x20\n      add\n      swap1\n      dup2\n      mstore\n      0x20\n      add\n      0x00\n      keccak256\n      0x00\n        /* \"contracts/HealthRecords.sol\":6812:6855  pendingConsent[msg.sender][_doctor] = false */\n      0x0100\n      exp\n      dup2\n      sload\n      dup2\n      0xff\n      mul\n      not\n      and\n      swap1\n      dup4\n      iszero\n      iszero\n      mul\n      or\n      swap1\n      sstore\n      pop\n        /* \"contracts/HealthRecords.sol\":6898:6905  _doctor */\n      dup1\n        /* \"contracts/HealthRecords.sol\":6871:6906  ConsentRefused(msg.sender, _doctor) */\n      0xffffffffffffffffffffffffffffffffffffffff\n      and\n        /* \"contracts/HealthRecords.sol\":6886:6896  msg.sender */\n      caller\n        /* \"contracts/HealthRecords.sol\":6871:6906  ConsentRefused(msg.sender, _doctor) */\n      0xffffffffffffffffffffffffffffffffffffffff\n      and\n      0xee666520c6fbc392d1a1e9c8845f759abf986e12b9927e3a452c94ce2c05d1df\n      mload(0x40)\n      mload(0x40)\n      dup1\n      swap2\n      sub\n      swap1\n      log3\n        /* \"contracts/HealthRecords.sol\":6629:6914  function refuseConsent(address _doctor) public onlyPatient {... */\n      pop\n      jump\t// out\n        /* \"contracts/HealthRecords.sol\":6298:6621  function grantConsent(address _doctor) public onlyPatient {... */\n    tag_81:\n        /* \"contracts/HealthRecords.sol\":2113:2121  patients */\n      0x00\n        /* \"contracts/HealthRecords.sol\":2113:2133  patients[msg.sender] */\n      dup1\n        /* \"contracts/HealthRecords.sol\":2122:2132  msg.sender */\n      caller\n        /* \"contracts/HealthRecords.sol\":2113:2133  patients[msg.sender] */\n      0xffffffffffffffffffffffffffffffffffffffff\n      and\n      0xffffffffffffffffffffffffffffffffffffffff\n      and\n      dup2\n      mstore\n      0x20\n      add\n      swap1\n      dup2\n      mstore\n      0x20\n      add\n      0x00\n      keccak256\n        /* \"contracts/HealthRecords.sol\":2113:2146  patients[msg.sender].isRegistered */\n      0x00\n      add\n      0x00\n      swap1\n      sload\n      swap1\n      0x0100\n      exp\n      swap1\n      div\n      0xff\n      and\n        /* \"contracts/HealthRecords.sol\":2105:2185  require(patients[msg.sender].isRegistered, \"Caller is not a registered patient\") */\n      tag_242\n      jumpi\n      mload(0x40)\n      0x08c379a000000000000000000000000000000000000000000000000000000000\n      dup2\n      mstore\n      0x04\n      add\n      tag_243\n      swap1\n      tag_236\n      jump\t// in\n    tag_243:\n      mload(0x40)\n      dup1\n      swap2\n      sub\n      swap1\n      revert\n    tag_242:\n        /* \"contracts/HealthRecords.sol\":6375:6382  doctors */\n      0x01\n        /* \"contracts/HealthRecords.sol\":6375:6391  doctors[_doctor] */\n      0x00\n        /* \"contracts/HealthRecords.sol\":6383:6390  _doctor */\n      dup3\n        /* \"contracts/HealthRecords.sol\":6375:6391  doctors[_doctor] */\n      0xffffffffffffffffffffffffffffffffffffffff\n      and\n      0xffffffffffffffffffffffffffffffffffffffff\n      and\n      dup2\n      mstore\n      0x20\n      add\n      swap1\n      dup2\n      mstore\n      0x20\n      add\n      0x00\n      keccak256\n        /* \"contracts/HealthRecords.sol\":6375:6404  doctors[_doctor].isRegistered */\n      0x00\n      add\n      0x00\n      swap1\n      sload\n      swap1\n      0x0100\n      exp\n      swap1\n      div\n      0xff\n      and\n        /* \"contracts/HealthRecords.sol\":6367:6445  require(doctors[_doctor].isRegistered, \"Address is not an authorized doctor.\") */\n      tag_245\n      jumpi\n      mload(0x40)\n      0x08c379a000000000000000000000000000000000000000000000000000000000\n      dup2\n      mstore\n      0x04\n      add\n      tag_246\n      swap1\n      tag_247\n      jump\t// in\n    tag_246:\n      mload(0x40)\n      dup1\n      swap2\n      sub\n      swap1\n      revert\n    tag_245:\n        /* \"contracts/HealthRecords.sol\":6504:6509  false */\n      0x00\n        /* \"contracts/HealthRecords.sol\":6466:6480  pendingConsent */\n      0x04\n        /* \"contracts/HealthRecords.sol\":6466:6492  pendingConsent[msg.sender] */\n      0x00\n        /* \"contracts/HealthRecords.sol\":6481:6491  msg.sender */\n      caller\n        /* \"contracts/HealthRecords.sol\":6466:6492  pendingConsent[msg.sender] */\n      0xffffffffffffffffffffffffffffffffffffffff\n      and\n      0xffffffffffffffffffffffffffffffffffffffff\n      and\n      dup2\n      mstore\n      0x20\n      add\n      swap1\n      dup2\n      mstore\n      0x20\n      add\n      0x00\n      keccak256\n        /* \"contracts/HealthRecords.sol\":6466:6501  pendingConsent[msg.sender][_doctor] */\n      0x00\n        /* \"contracts/HealthRecords.sol\":6493:6500  _doctor */\n      dup4\n        /* \"contracts/HealthRecords.sol\":6466:6501  pendingConsent[msg.sender][_doctor] */\n      0xffffffffffffffffffffffffffffffffffffffff\n      and\n      0xffffffffffffffffffffffffffffffffffffffff\n      and\n      dup2\n      mstore\n      0x20\n      add\n      swap1\n      dup2\n      mstore\n      0x20\n      add\n      0x00\n      keccak256\n      0x00\n        /* \"contracts/HealthRecords.sol\":6466:6509  pendingConsent[msg.sender][_doctor] = false */\n      0x0100\n      exp\n      dup2\n      sload\n      dup2\n      0xff\n      mul\n      not\n      and\n      swap1\n      dup4\n      iszero\n      iszero\n      mul\n      or\n      swap1\n      sstore\n      pop\n        /* \"contracts/HealthRecords.sol\":6558:6562  true */\n      0x01\n        /* \"contracts/HealthRecords.sol\":6520:6534  patientConsent */\n      0x03\n        /* \"contracts/HealthRecords.sol\":6520:6546  patientConsent[msg.sender] */\n      0x00\n        /* \"contracts/HealthRecords.sol\":6535:6545  msg.sender */\n      caller\n        /* \"contracts/HealthRecords.sol\":6520:6546  patientConsent[msg.sender] */\n      0xffffffffffffffffffffffffffffffffffffffff\n      and\n      0xffffffffffffffffffffffffffffffffffffffff\n      and\n      dup2\n      mstore\n      0x20\n      add\n      swap1\n      dup2\n      mstore\n      0x20\n      add\n      0x00\n      keccak256\n        /* \"contracts/HealthRecords.sol\":6520:6555  patientConsent[msg.sender][_doctor] */\n      0x00\n        /* \"contracts/HealthRecords.sol\":6547:6554  _doctor */\n      dup4\n        /* \"contracts/HealthRecords.sol\":6520:6555  patientConsent[msg.sender][_doctor] */\n      0xffffffffffffffffffffffffffffffffffffffff\n      and\n      0xffffffffffffffffffffffffffffffffffffffff\n      and\n      dup2\n      mstore\n      0x20\n      add\n      swap1\n      dup2\n      mstore\n      0x20\n      add\n      0x00\n      keccak256\n      0x00\n        /* \"contracts/HealthRecords.sol\":6520:6562  patientConsent[msg.sender][_doctor] = true */\n      0x0100\n      exp\n      dup2\n      sload\n      dup2\n      0xff\n      mul\n      not\n      and\n      swap1\n      dup4\n      iszero\n      iszero\n      mul\n      or\n      swap1\n      sstore\n      pop\n        /* \"contracts/HealthRecords.sol\":6605:6612  _doctor */\n      dup1\n        /* \"contracts/HealthRecords.sol\":6578:6613  ConsentGranted(msg.sender, _doctor) */\n      0xffffffffffffffffffffffffffffffffffffffff\n      and\n        /* \"contracts/HealthRecords.sol\":6593:6603  msg.sender */\n      caller\n        /* \"contracts/HealthRecords.sol\":6578:6613  ConsentGranted(msg.sender, _doctor) */\n      0xffffffffffffffffffffffffffffffffffffffff\n      and\n      0x8105c574d2239a3a4f73f5efc5bc253cffb275647df535adfa2c240739cc9220\n      mload(0x40)\n      mload(0x40)\n      dup1\n      swap2\n      sub\n      swap1\n      log3\n        /* \"contracts/HealthRecords.sol\":6298:6621  function grantConsent(address _doctor) public onlyPatient {... */\n      pop\n      jump\t// out\n        /* \"contracts/HealthRecords.sol\":674:715  mapping(address => Doctor) public doctors */\n    tag_84:\n      mstore(0x20, 0x01)\n      dup1\n      0x00\n      mstore\n      keccak256(0x00, 0x40)\n      0x00\n      swap2\n      pop\n      swap1\n      pop\n      dup1\n      0x00\n      add\n      0x00\n      swap1\n      sload\n      swap1\n      0x0100\n      exp\n      swap1\n      div\n      0xff\n      and\n      swap1\n      dup1\n      0x01\n      add\n      dup1\n      sload\n      tag_248\n      swap1\n      tag_109\n      jump\t// in\n    tag_248:\n      dup1\n      0x1f\n      add\n      0x20\n      dup1\n      swap2\n      div\n      mul\n      0x20\n      add\n      mload(0x40)\n      swap1\n      dup2\n      add\n      0x40\n      mstore\n      dup1\n      swap3\n      swap2\n      swap1\n      dup2\n      dup2\n      mstore\n      0x20\n      add\n      dup3\n      dup1\n      sload\n      tag_249\n      swap1\n      tag_109\n      jump\t// in\n    tag_249:\n      dup1\n      iszero\n      tag_250\n      jumpi\n      dup1\n      0x1f\n      lt\n      tag_251\n      jumpi\n      0x0100\n      dup1\n      dup4\n      sload\n      div\n      mul\n      dup4\n      mstore\n      swap2\n      0x20\n      add\n      swap2\n      jump(tag_250)\n    tag_251:\n      dup3\n      add\n      swap2\n      swap1\n      0x00\n      mstore\n      keccak256(0x00, 0x20)\n      swap1\n    tag_252:\n      dup2\n      sload\n      dup2\n      mstore\n      swap1\n      0x01\n      add\n      swap1\n      0x20\n      add\n      dup1\n      dup4\n      gt\n      tag_252\n      jumpi\n      dup3\n      swap1\n      sub\n      0x1f\n      and\n      dup3\n      add\n      swap2\n    tag_250:\n      pop\n      pop\n      pop\n      pop\n      pop\n      swap1\n      dup1\n      0x02\n      add\n      dup1\n      sload\n      tag_253\n      swap1\n      tag_109\n      jump\t// in\n    tag_253:\n      dup1\n      0x1f\n      add\n      0x20\n      dup1\n      swap2\n      div\n      mul\n      0x20\n      add\n      mload(0x40)\n      swap1\n      dup2\n      add\n      0x40\n      mstore\n      dup1\n      swap3\n      swap2\n      swap1\n      dup2\n      dup2\n      mstore\n      0x20\n      add\n      dup3\n      dup1\n      sload\n      tag_254\n      swap1\n      tag_109\n      jump\t// in\n    tag_254:\n      dup1\n      iszero\n      tag_255\n      jumpi\n      dup1\n      0x1f\n      lt\n      tag_256\n      jumpi\n      0x0100\n      dup1\n      dup4\n      sload\n      div\n      mul\n      dup4\n      mstore\n      swap2\n      0x20\n      add\n      swap2\n      jump(tag_255)\n    tag_256:\n      dup3\n      add\n      swap2\n      swap1\n      0x00\n      mstore\n      keccak256(0x00, 0x20)\n      swap1\n    tag_257:\n      dup2\n      sload\n      dup2\n      mstore\n      swap1\n      0x01\n      add\n      swap1\n      0x20\n      add\n      dup1\n      dup4\n      gt\n      tag_257\n      jumpi\n      dup3\n      swap1\n      sub\n      0x1f\n      and\n      dup3\n      add\n      swap2\n    tag_255:\n      pop\n      pop\n      pop\n      pop\n      pop\n      swap1\n      dup1\n      0x03\n      add\n      dup1\n      sload\n      tag_258\n      swap1\n      tag_109\n      jump\t// in\n    tag_258:\n      dup1\n      0x1f\n      add\n      0x20\n      dup1\n      swap2\n      div\n      mul\n      0x20\n      add\n      mload(0x40)\n      swap1\n      dup2\n      add\n      0x40\n      mstore\n      dup1\n      swap3\n      swap2\n      swap1\n      dup2\n      dup2\n      mstore\n      0x20\n      add\n      dup3\n      dup1\n      sload\n      tag_259\n      swap1\n      tag_109\n      jump\t// in\n    tag_259:\n      dup1\n      iszero\n      tag_260\n      jumpi\n      dup1\n      0x1f\n      lt\n      tag_261\n      jumpi\n      0x0100\n      dup1\n      dup4\n      sload\n      div\n      mul\n      dup4\n      mstore\n      swap2\n      0x20\n      add\n      swap2\n      jump(tag_260)\n    tag_261:\n      dup3\n      add\n      swap2\n      swap1\n      0x00\n      mstore\n      keccak256(0x00, 0x20)\n      swap1\n    tag_262:\n      dup2\n      sload\n      dup2\n      mstore\n      swap1\n      0x01\n      add\n      swap1\n      0x20\n      add\n      dup1\n      dup4\n      gt\n      tag_262\n      jumpi\n      dup3\n      swap1\n      sub\n      0x1f\n      and\n      dup3\n      add\n      swap2\n    tag_260:\n      pop\n      pop\n      pop\n      pop\n      pop\n      swap1\n      dup1\n      0x04\n      add\n      dup1\n      sload\n      tag_263\n      swap1\n      tag_109\n      jump\t// in\n    tag_263:\n      dup1\n      0x1f\n      add\n      0x20\n      dup1\n      swap2\n      div\n      mul\n      0x20\n      add\n      mload(0x40)\n      swap1\n      dup2\n      add\n      0x40\n      mstore\n      dup1\n      swap3\n      swap2\n      swap1\n      dup2\n      dup2\n      mstore\n      0x20\n      add\n      dup3\n      dup1\n      sload\n      tag_264\n      swap1\n      tag_109\n      jump\t// in\n    tag_264:\n      dup1\n      iszero\n      tag_265\n      jumpi\n      dup1\n      0x1f\n      lt\n      tag_266\n      jumpi\n      0x0100\n      dup1\n      dup4\n      sload\n      div\n      mul\n      dup4\n      mstore\n      swap2\n      0x20\n      add\n      swap2\n      jump(tag_265)\n    tag_266:\n      dup3\n      add\n      swap2\n      swap1\n      0x00\n      mstore\n      keccak256(0x00, 0x20)\n      swap1\n    tag_267:\n      dup2\n      sload\n      dup2\n      mstore\n      swap1\n      0x01\n      add\n      swap1\n      0x20\n      add\n      dup1\n      dup4\n      gt\n      tag_267\n      jumpi\n      dup3\n      swap1\n      sub\n      0x1f\n      and\n      dup3\n      add\n      swap2\n    tag_265:\n      pop\n      pop\n      pop\n      pop\n      pop\n      swap1\n      dup1\n      0x05\n      add\n      dup1\n      sload\n      tag_268\n      swap1\n      tag_109\n      jump\t// in\n    tag_268:\n      dup1\n      0x1f\n      add\n      0x20\n      dup1\n      swap2\n      div\n      mul\n      0x20\n      add\n      mload(0x40)\n      swap1\n      dup2\n      add\n      0x40\n      mstore\n      dup1\n      swap3\n      swap2\n      swap1\n      dup2\n      dup2\n      mstore\n      0x20\n      add\n      dup3\n      dup1\n      sload\n      tag_269\n      swap1\n      tag_109\n      jump\t// in\n    tag_269:\n      dup1\n      iszero\n      tag_270\n      jumpi\n      dup1\n      0x1f\n      lt\n      tag_271\n      jumpi\n      0x0100\n      dup1\n      dup4\n      sload\n      div\n      mul\n      dup4\n      mstore\n      swap2\n      0x20\n      add\n      swap2\n      jump(tag_270)\n    tag_271:\n      dup3\n      add\n      swap2\n      swap1\n      0x00\n      mstore\n      keccak256(0x00, 0x20)\n      swap1\n    tag_272:\n      dup2\n      sload\n      dup2\n      mstore\n      swap1\n      0x01\n      add\n      swap1\n      0x20\n      add\n      dup1\n      dup4\n      gt\n      tag_272\n      jumpi\n      dup3\n      swap1\n      sub\n      0x1f\n      and\n      dup3\n      add\n      swap2\n    tag_270:\n      pop\n      pop\n      pop\n      pop\n      pop\n      swap1\n      pop\n      dup7\n      jump\t// out\n        /* \"contracts/HealthRecords.sol\":6922:7094  function revokeConsent(address _doctor) public onlyPatient {... */\n    tag_89:\n        /* \"contracts/HealthRecords.sol\":2113:2121  patients */\n      0x00\n        /* \"contracts/HealthRecords.sol\":2113:2133  patients[msg.sender] */\n      dup1\n        /* \"contracts/HealthRecords.sol\":2122:2132  msg.sender */\n      caller\n        /* \"contracts/HealthRecords.sol\":2113:2133  patients[msg.sender] */\n      0xffffffffffffffffffffffffffffffffffffffff\n      and\n      0xffffffffffffffffffffffffffffffffffffffff\n      and\n      dup2\n      mstore\n      0x20\n      add\n      swap1\n      dup2\n      mstore\n      0x20\n      add\n      0x00\n      keccak256\n        /* \"contracts/HealthRecords.sol\":2113:2146  patients[msg.sender].isRegistered */\n      0x00\n      add\n      0x00\n      swap1\n      sload\n      swap1\n      0x0100\n      exp\n      swap1\n      div\n      0xff\n      and\n        /* \"contracts/HealthRecords.sol\":2105:2185  require(patients[msg.sender].isRegistered, \"Caller is not a registered patient\") */\n      tag_274\n      jumpi\n      mload(0x40)\n      0x08c379a000000000000000000000000000000000000000000000000000000000\n      dup2\n      mstore\n      0x04\n      add\n      tag_275\n      swap1\n      tag_236\n      jump\t// in\n    tag_275:\n      mload(0x40)\n      dup1\n      swap2\n      sub\n      swap1\n      revert\n    tag_274:\n        /* \"contracts/HealthRecords.sol\":7030:7035  false */\n      0x00\n        /* \"contracts/HealthRecords.sol\":6992:7006  patientConsent */\n      0x03\n        /* \"contracts/HealthRecords.sol\":6992:7018  patientConsent[msg.sender] */\n      0x00\n        /* \"contracts/HealthRecords.sol\":7007:7017  msg.sender */\n      caller\n        /* \"contracts/HealthRecords.sol\":6992:7018  patientConsent[msg.sender] */\n      0xffffffffffffffffffffffffffffffffffffffff\n      and\n      0xffffffffffffffffffffffffffffffffffffffff\n      and\n      dup2\n      mstore\n      0x20\n      add\n      swap1\n      dup2\n      mstore\n      0x20\n      add\n      0x00\n      keccak256\n        /* \"contracts/HealthRecords.sol\":6992:7027  patientConsent[msg.sender][_doctor] */\n      0x00\n        /* \"contracts/HealthRecords.sol\":7019:7026  _doctor */\n      dup4\n        /* \"contracts/HealthRecords.sol\":6992:7027  patientConsent[msg.sender][_doctor] */\n      0xffffffffffffffffffffffffffffffffffffffff\n      and\n      0xffffffffffffffffffffffffffffffffffffffff\n      and\n      dup2\n      mstore\n      0x20\n      add\n      swap1\n      dup2\n      mstore\n      0x20\n      add\n      0x00\n      keccak256\n      0x00\n        /* \"contracts/HealthRecords.sol\":6992:7035  patientConsent[msg.sender][_doctor] = false */\n      0x0100\n      exp\n      dup2\n      sload\n      dup2\n      0xff\n      mul\n      not\n      and\n      swap1\n      dup4\n      iszero\n      iszero\n      mul\n      or\n      swap1\n      sstore\n      pop\n        /* \"contracts/HealthRecords.sol\":7078:7085  _doctor */\n      dup1\n        /* \"contracts/HealthRecords.sol\":7051:7086  ConsentRevoked(msg.sender, _doctor) */\n      0xffffffffffffffffffffffffffffffffffffffff\n      and\n        /* \"contracts/HealthRecords.sol\":7066:7076  msg.sender */\n      caller\n        /* \"contracts/HealthRecords.sol\":7051:7086  ConsentRevoked(msg.sender, _doctor) */\n      0xffffffffffffffffffffffffffffffffffffffff\n      and\n      0xebecee2d3f2ea272f73dd9d9ccc0bacd11280d61240332cbcd8a68173ae5cc2c\n      mload(0x40)\n      mload(0x40)\n      dup1\n      swap2\n      sub\n      swap1\n      log3\n        /* \"contracts/HealthRecords.sol\":6922:7094  function revokeConsent(address _doctor) public onlyPatient {... */\n      pop\n      jump\t// out\n        /* \"contracts/HealthRecords.sol\":885:951  mapping(address => mapping(address => bool)) public patientConsent */\n    tag_92:\n      mstore(0x20, 0x03)\n      dup2\n      0x00\n      mstore\n      mstore(0x20, keccak256(0x00, 0x40))\n      dup1\n      0x00\n      mstore\n      keccak256(0x00, 0x40)\n      0x00\n      swap2\n      pop\n      swap2\n      pop\n      swap1\n      sload\n      swap1\n      0x0100\n      exp\n      swap1\n      div\n      0xff\n      and\n      dup2\n      jump\t// out\n        /* \"#utility.yul\":7:82   */\n    tag_277:\n        /* \"#utility.yul\":40:46   */\n      0x00\n        /* \"#utility.yul\":73:75   */\n      0x40\n        /* \"#utility.yul\":67:76   */\n      mload\n        /* \"#utility.yul\":57:76   */\n      swap1\n      pop\n        /* \"#utility.yul\":7:82   */\n      swap1\n      jump\t// out\n        /* \"#utility.yul\":88:205   */\n    tag_278:\n        /* \"#utility.yul\":197:198   */\n      0x00\n        /* \"#utility.yul\":194:195   */\n      dup1\n        /* \"#utility.yul\":187:199   */\n      revert\n        /* \"#utility.yul\":211:328   */\n    tag_279:\n        /* \"#utility.yul\":320:321   */\n      0x00\n        /* \"#utility.yul\":317:318   */\n      dup1\n        /* \"#utility.yul\":310:322   */\n      revert\n        /* \"#utility.yul\":334:460   */\n    tag_280:\n        /* \"#utility.yul\":371:378   */\n      0x00\n        /* \"#utility.yul\":411:453   */\n      0xffffffffffffffffffffffffffffffffffffffff\n        /* \"#utility.yul\":404:409   */\n      dup3\n        /* \"#utility.yul\":400:454   */\n      and\n        /* \"#utility.yul\":389:454   */\n      swap1\n      pop\n        /* \"#utility.yul\":334:460   */\n      swap2\n      swap1\n      pop\n      jump\t// out\n        /* \"#utility.yul\":466:562   */\n    tag_281:\n        /* \"#utility.yul\":503:510   */\n      0x00\n        /* \"#utility.yul\":532:556   */\n      tag_373\n        /* \"#utility.yul\":550:555   */\n      dup3\n        /* \"#utility.yul\":532:556   */\n      tag_280\n      jump\t// in\n    tag_373:\n        /* \"#utility.yul\":521:556   */\n      swap1\n      pop\n        /* \"#utility.yul\":466:562   */\n      swap2\n      swap1\n      pop\n      jump\t// out\n        /* \"#utility.yul\":568:690   */\n    tag_282:\n        /* \"#utility.yul\":641:665   */\n      tag_375\n        /* \"#utility.yul\":659:664   */\n      dup2\n        /* \"#utility.yul\":641:665   */\n      tag_281\n      jump\t// in\n    tag_375:\n        /* \"#utility.yul\":634:639   */\n      dup2\n        /* \"#utility.yul\":631:666   */\n      eq\n        /* \"#utility.yul\":621:684   */\n      tag_376\n      jumpi\n        /* \"#utility.yul\":680:681   */\n      0x00\n        /* \"#utility.yul\":677:678   */\n      dup1\n        /* \"#utility.yul\":670:682   */\n      revert\n        /* \"#utility.yul\":621:684   */\n    tag_376:\n        /* \"#utility.yul\":568:690   */\n      pop\n      jump\t// out\n        /* \"#utility.yul\":696:835   */\n    tag_283:\n        /* \"#utility.yul\":742:747   */\n      0x00\n        /* \"#utility.yul\":780:786   */\n      dup2\n        /* \"#utility.yul\":767:787   */\n      calldataload\n        /* \"#utility.yul\":758:787   */\n      swap1\n      pop\n        /* \"#utility.yul\":796:829   */\n      tag_378\n        /* \"#utility.yul\":823:828   */\n      dup2\n        /* \"#utility.yul\":796:829   */\n      tag_282\n      jump\t// in\n    tag_378:\n        /* \"#utility.yul\":696:835   */\n      swap3\n      swap2\n      pop\n      pop\n      jump\t// out\n        /* \"#utility.yul\":841:1170   */\n    tag_25:\n        /* \"#utility.yul\":900:906   */\n      0x00\n        /* \"#utility.yul\":949:951   */\n      0x20\n        /* \"#utility.yul\":937:946   */\n      dup3\n        /* \"#utility.yul\":928:935   */\n      dup5\n        /* \"#utility.yul\":924:947   */\n      sub\n        /* \"#utility.yul\":920:952   */\n      slt\n        /* \"#utility.yul\":917:1036   */\n      iszero\n      tag_380\n      jumpi\n        /* \"#utility.yul\":955:1034   */\n      tag_381\n      tag_278\n      jump\t// in\n    tag_381:\n        /* \"#utility.yul\":917:1036   */\n    tag_380:\n        /* \"#utility.yul\":1075:1076   */\n      0x00\n        /* \"#utility.yul\":1100:1153   */\n      tag_382\n        /* \"#utility.yul\":1145:1152   */\n      dup5\n        /* \"#utility.yul\":1136:1142   */\n      dup3\n        /* \"#utility.yul\":1125:1134   */\n      dup6\n        /* \"#utility.yul\":1121:1143   */\n      add\n        /* \"#utility.yul\":1100:1153   */\n      tag_283\n      jump\t// in\n    tag_382:\n        /* \"#utility.yul\":1090:1153   */\n      swap2\n      pop\n        /* \"#utility.yul\":1046:1163   */\n      pop\n        /* \"#utility.yul\":841:1170   */\n      swap3\n      swap2\n      pop\n      pop\n      jump\t// out\n        /* \"#utility.yul\":1176:1266   */\n    tag_284:\n        /* \"#utility.yul\":1210:1217   */\n      0x00\n        /* \"#utility.yul\":1253:1258   */\n      dup2\n        /* \"#utility.yul\":1246:1259   */\n      iszero\n        /* \"#utility.yul\":1239:1260   */\n      iszero\n        /* \"#utility.yul\":1228:1260   */\n      swap1\n      pop\n        /* \"#utility.yul\":1176:1266   */\n      swap2\n      swap1\n      pop\n      jump\t// out\n        /* \"#utility.yul\":1272:1381   */\n    tag_285:\n        /* \"#utility.yul\":1353:1374   */\n      tag_385\n        /* \"#utility.yul\":1368:1373   */\n      dup2\n        /* \"#utility.yul\":1353:1374   */\n      tag_284\n      jump\t// in\n    tag_385:\n        /* \"#utility.yul\":1348:1351   */\n      dup3\n        /* \"#utility.yul\":1341:1375   */\n      mstore\n        /* \"#utility.yul\":1272:1381   */\n      pop\n      pop\n      jump\t// out\n        /* \"#utility.yul\":1387:1486   */\n    tag_286:\n        /* \"#utility.yul\":1439:1445   */\n      0x00\n        /* \"#utility.yul\":1473:1478   */\n      dup2\n        /* \"#utility.yul\":1467:1479   */\n      mload\n        /* \"#utility.yul\":1457:1479   */\n      swap1\n      pop\n        /* \"#utility.yul\":1387:1486   */\n      swap2\n      swap1\n      pop\n      jump\t// out\n        /* \"#utility.yul\":1492:1661   */\n    tag_287:\n        /* \"#utility.yul\":1576:1587   */\n      0x00\n        /* \"#utility.yul\":1610:1616   */\n      dup3\n        /* \"#utility.yul\":1605:1608   */\n      dup3\n        /* \"#utility.yul\":1598:1617   */\n      mstore\n        /* \"#utility.yul\":1650:1654   */\n      0x20\n        /* \"#utility.yul\":1645:1648   */\n      dup3\n        /* \"#utility.yul\":1641:1655   */\n      add\n        /* \"#utility.yul\":1626:1655   */\n      swap1\n      pop\n        /* \"#utility.yul\":1492:1661   */\n      swap3\n      swap2\n      pop\n      pop\n      jump\t// out\n        /* \"#utility.yul\":1667:1913   */\n    tag_288:\n        /* \"#utility.yul\":1748:1749   */\n      0x00\n        /* \"#utility.yul\":1758:1871   */\n    tag_389:\n        /* \"#utility.yul\":1772:1778   */\n      dup4\n        /* \"#utility.yul\":1769:1770   */\n      dup2\n        /* \"#utility.yul\":1766:1779   */\n      lt\n        /* \"#utility.yul\":1758:1871   */\n      iszero\n      tag_391\n      jumpi\n        /* \"#utility.yul\":1857:1858   */\n      dup1\n        /* \"#utility.yul\":1852:1855   */\n      dup3\n        /* \"#utility.yul\":1848:1859   */\n      add\n        /* \"#utility.yul\":1842:1860   */\n      mload\n        /* \"#utility.yul\":1838:1839   */\n      dup2\n        /* \"#utility.yul\":1833:1836   */\n      dup5\n        /* \"#utility.yul\":1829:1840   */\n      add\n        /* \"#utility.yul\":1822:1861   */\n      mstore\n        /* \"#utility.yul\":1794:1796   */\n      0x20\n        /* \"#utility.yul\":1791:1792   */\n      dup2\n        /* \"#utility.yul\":1787:1797   */\n      add\n        /* \"#utility.yul\":1782:1797   */\n      swap1\n      pop\n        /* \"#utility.yul\":1758:1871   */\n      jump(tag_389)\n    tag_391:\n        /* \"#utility.yul\":1905:1906   */\n      0x00\n        /* \"#utility.yul\":1896:1902   */\n      dup5\n        /* \"#utility.yul\":1891:1894   */\n      dup5\n        /* \"#utility.yul\":1887:1903   */\n      add\n        /* \"#utility.yul\":1880:1907   */\n      mstore\n        /* \"#utility.yul\":1729:1913   */\n      pop\n        /* \"#utility.yul\":1667:1913   */\n      pop\n      pop\n      pop\n      jump\t// out\n        /* \"#utility.yul\":1919:2021   */\n    tag_289:\n        /* \"#utility.yul\":1960:1966   */\n      0x00\n        /* \"#utility.yul\":2011:2013   */\n      0x1f\n        /* \"#utility.yul\":2007:2014   */\n      not\n        /* \"#utility.yul\":2002:2004   */\n      0x1f\n        /* \"#utility.yul\":1995:2000   */\n      dup4\n        /* \"#utility.yul\":1991:2005   */\n      add\n        /* \"#utility.yul\":1987:2015   */\n      and\n        /* \"#utility.yul\":1977:2015   */\n      swap1\n      pop\n        /* \"#utility.yul\":1919:2021   */\n      swap2\n      swap1\n      pop\n      jump\t// out\n        /* \"#utility.yul\":2027:2404   */\n    tag_290:\n        /* \"#utility.yul\":2115:2118   */\n      0x00\n        /* \"#utility.yul\":2143:2182   */\n      tag_394\n        /* \"#utility.yul\":2176:2181   */\n      dup3\n        /* \"#utility.yul\":2143:2182   */\n      tag_286\n      jump\t// in\n    tag_394:\n        /* \"#utility.yul\":2198:2269   */\n      tag_395\n        /* \"#utility.yul\":2262:2268   */\n      dup2\n        /* \"#utility.yul\":2257:2260   */\n      dup6\n        /* \"#utility.yul\":2198:2269   */\n      tag_287\n      jump\t// in\n    tag_395:\n        /* \"#utility.yul\":2191:2269   */\n      swap4\n      pop\n        /* \"#utility.yul\":2278:2343   */\n      tag_396\n        /* \"#utility.yul\":2336:2342   */\n      dup2\n        /* \"#utility.yul\":2331:2334   */\n      dup6\n        /* \"#utility.yul\":2324:2328   */\n      0x20\n        /* \"#utility.yul\":2317:2322   */\n      dup7\n        /* \"#utility.yul\":2313:2329   */\n      add\n        /* \"#utility.yul\":2278:2343   */\n      tag_288\n      jump\t// in\n    tag_396:\n        /* \"#utility.yul\":2368:2397   */\n      tag_397\n        /* \"#utility.yul\":2390:2396   */\n      dup2\n        /* \"#utility.yul\":2368:2397   */\n      tag_289\n      jump\t// in\n    tag_397:\n        /* \"#utility.yul\":2363:2366   */\n      dup5\n        /* \"#utility.yul\":2359:2398   */\n      add\n        /* \"#utility.yul\":2352:2398   */\n      swap2\n      pop\n        /* \"#utility.yul\":2119:2404   */\n      pop\n        /* \"#utility.yul\":2027:2404   */\n      swap3\n      swap2\n      pop\n      pop\n      jump\t// out\n        /* \"#utility.yul\":2410:3426   */\n    tag_31:\n        /* \"#utility.yul\":2689:2693   */\n      0x00\n        /* \"#utility.yul\":2727:2730   */\n      0xa0\n        /* \"#utility.yul\":2716:2725   */\n      dup3\n        /* \"#utility.yul\":2712:2731   */\n      add\n        /* \"#utility.yul\":2704:2731   */\n      swap1\n      pop\n        /* \"#utility.yul\":2741:2806   */\n      tag_399\n        /* \"#utility.yul\":2803:2804   */\n      0x00\n        /* \"#utility.yul\":2792:2801   */\n      dup4\n        /* \"#utility.yul\":2788:2805   */\n      add\n        /* \"#utility.yul\":2779:2785   */\n      dup9\n        /* \"#utility.yul\":2741:2806   */\n      tag_285\n      jump\t// in\n    tag_399:\n        /* \"#utility.yul\":2853:2862   */\n      dup2\n        /* \"#utility.yul\":2847:2851   */\n      dup2\n        /* \"#utility.yul\":2843:2863   */\n      sub\n        /* \"#utility.yul\":2838:2840   */\n      0x20\n        /* \"#utility.yul\":2827:2836   */\n      dup4\n        /* \"#utility.yul\":2823:2841   */\n      add\n        /* \"#utility.yul\":2816:2864   */\n      mstore\n        /* \"#utility.yul\":2881:2959   */\n      tag_400\n        /* \"#utility.yul\":2954:2958   */\n      dup2\n        /* \"#utility.yul\":2945:2951   */\n      dup8\n        /* \"#utility.yul\":2881:2959   */\n      tag_290\n      jump\t// in\n    tag_400:\n        /* \"#utility.yul\":2873:2959   */\n      swap1\n      pop\n        /* \"#utility.yul\":3006:3015   */\n      dup2\n        /* \"#utility.yul\":3000:3004   */\n      dup2\n        /* \"#utility.yul\":2996:3016   */\n      sub\n        /* \"#utility.yul\":2991:2993   */\n      0x40\n        /* \"#utility.yul\":2980:2989   */\n      dup4\n        /* \"#utility.yul\":2976:2994   */\n      add\n        /* \"#utility.yul\":2969:3017   */\n      mstore\n        /* \"#utility.yul\":3034:3112   */\n      tag_401\n        /* \"#utility.yul\":3107:3111   */\n      dup2\n        /* \"#utility.yul\":3098:3104   */\n      dup7\n        /* \"#utility.yul\":3034:3112   */\n      tag_290\n      jump\t// in\n    tag_401:\n        /* \"#utility.yul\":3026:3112   */\n      swap1\n      pop\n        /* \"#utility.yul\":3159:3168   */\n      dup2\n        /* \"#utility.yul\":3153:3157   */\n      dup2\n        /* \"#utility.yul\":3149:3169   */\n      sub\n        /* \"#utility.yul\":3144:3146   */\n      0x60\n        /* \"#utility.yul\":3133:3142   */\n      dup4\n        /* \"#utility.yul\":3129:3147   */\n      add\n        /* \"#utility.yul\":3122:3170   */\n      mstore\n        /* \"#utility.yul\":3187:3265   */\n      tag_402\n        /* \"#utility.yul\":3260:3264   */\n      dup2\n        /* \"#utility.yul\":3251:3257   */\n      dup6\n        /* \"#utility.yul\":3187:3265   */\n      tag_290\n      jump\t// in\n    tag_402:\n        /* \"#utility.yul\":3179:3265   */\n      swap1\n      pop\n        /* \"#utility.yul\":3313:3322   */\n      dup2\n        /* \"#utility.yul\":3307:3311   */\n      dup2\n        /* \"#utility.yul\":3303:3323   */\n      sub\n        /* \"#utility.yul\":3297:3300   */\n      0x80\n        /* \"#utility.yul\":3286:3295   */\n      dup4\n        /* \"#utility.yul\":3282:3301   */\n      add\n        /* \"#utility.yul\":3275:3324   */\n      mstore\n        /* \"#utility.yul\":3341:3419   */\n      tag_403\n        /* \"#utility.yul\":3414:3418   */\n      dup2\n        /* \"#utility.yul\":3405:3411   */\n      dup5\n        /* \"#utility.yul\":3341:3419   */\n      tag_290\n      jump\t// in\n    tag_403:\n        /* \"#utility.yul\":3333:3419   */\n      swap1\n      pop\n        /* \"#utility.yul\":2410:3426   */\n      swap7\n      swap6\n      pop\n      pop\n      pop\n      pop\n      pop\n      pop\n      jump\t// out\n        /* \"#utility.yul\":3432:3549   */\n    tag_291:\n        /* \"#utility.yul\":3541:3542   */\n      0x00\n        /* \"#utility.yul\":3538:3539   */\n      dup1\n        /* \"#utility.yul\":3531:3543   */\n      revert\n        /* \"#utility.yul\":3555:3672   */\n    tag_292:\n        /* \"#utility.yul\":3664:3665   */\n      0x00\n        /* \"#utility.yul\":3661:3662   */\n      dup1\n        /* \"#utility.yul\":3654:3666   */\n      revert\n        /* \"#utility.yul\":3678:3858   */\n    tag_293:\n        /* \"#utility.yul\":3726:3803   */\n      0x4e487b7100000000000000000000000000000000000000000000000000000000\n        /* \"#utility.yul\":3723:3724   */\n      0x00\n        /* \"#utility.yul\":3716:3804   */\n      mstore\n        /* \"#utility.yul\":3823:3827   */\n      0x41\n        /* \"#utility.yul\":3820:3821   */\n      0x04\n        /* \"#utility.yul\":3813:3828   */\n      mstore\n        /* \"#utility.yul\":3847:3851   */\n      0x24\n        /* \"#utility.yul\":3844:3845   */\n      0x00\n        /* \"#utility.yul\":3837:3852   */\n      revert\n        /* \"#utility.yul\":3864:4145   */\n    tag_294:\n        /* \"#utility.yul\":3947:3974   */\n      tag_408\n        /* \"#utility.yul\":3969:3973   */\n      dup3\n        /* \"#utility.yul\":3947:3974   */\n      tag_289\n      jump\t// in\n    tag_408:\n        /* \"#utility.yul\":3939:3945   */\n      dup2\n        /* \"#utility.yul\":3935:3975   */\n      add\n        /* \"#utility.yul\":4077:4083   */\n      dup2\n        /* \"#utility.yul\":4065:4075   */\n      dup2\n        /* \"#utility.yul\":4062:4084   */\n      lt\n        /* \"#utility.yul\":4041:4059   */\n      0xffffffffffffffff\n        /* \"#utility.yul\":4029:4039   */\n      dup3\n        /* \"#utility.yul\":4026:4060   */\n      gt\n        /* \"#utility.yul\":4023:4085   */\n      or\n        /* \"#utility.yul\":4020:4108   */\n      iszero\n      tag_409\n      jumpi\n        /* \"#utility.yul\":4088:4106   */\n      tag_410\n      tag_293\n      jump\t// in\n    tag_410:\n        /* \"#utility.yul\":4020:4108   */\n    tag_409:\n        /* \"#utility.yul\":4128:4138   */\n      dup1\n        /* \"#utility.yul\":4124:4126   */\n      0x40\n        /* \"#utility.yul\":4117:4139   */\n      mstore\n        /* \"#utility.yul\":3907:4145   */\n      pop\n        /* \"#utility.yul\":3864:4145   */\n      pop\n      pop\n      jump\t// out\n        /* \"#utility.yul\":4151:4280   */\n    tag_295:\n        /* \"#utility.yul\":4185:4191   */\n      0x00\n        /* \"#utility.yul\":4212:4232   */\n      tag_412\n      tag_277\n      jump\t// in\n    tag_412:\n        /* \"#utility.yul\":4202:4232   */\n      swap1\n      pop\n        /* \"#utility.yul\":4241:4274   */\n      tag_413\n        /* \"#utility.yul\":4269:4273   */\n      dup3\n        /* \"#utility.yul\":4261:4267   */\n      dup3\n        /* \"#utility.yul\":4241:4274   */\n      tag_294\n      jump\t// in\n    tag_413:\n        /* \"#utility.yul\":4151:4280   */\n      swap2\n      swap1\n      pop\n      jump\t// out\n        /* \"#utility.yul\":4286:4594   */\n    tag_296:\n        /* \"#utility.yul\":4348:4352   */\n      0x00\n        /* \"#utility.yul\":4438:4456   */\n      0xffffffffffffffff\n        /* \"#utility.yul\":4430:4436   */\n      dup3\n        /* \"#utility.yul\":4427:4457   */\n      gt\n        /* \"#utility.yul\":4424:4480   */\n      iszero\n      tag_415\n      jumpi\n        /* \"#utility.yul\":4460:4478   */\n      tag_416\n      tag_293\n      jump\t// in\n    tag_416:\n        /* \"#utility.yul\":4424:4480   */\n    tag_415:\n        /* \"#utility.yul\":4498:4527   */\n      tag_417\n        /* \"#utility.yul\":4520:4526   */\n      dup3\n        /* \"#utility.yul\":4498:4527   */\n      tag_289\n      jump\t// in\n    tag_417:\n        /* \"#utility.yul\":4490:4527   */\n      swap1\n      pop\n        /* \"#utility.yul\":4582:4586   */\n      0x20\n        /* \"#utility.yul\":4576:4580   */\n      dup2\n        /* \"#utility.yul\":4572:4587   */\n      add\n        /* \"#utility.yul\":4564:4587   */\n      swap1\n      pop\n        /* \"#utility.yul\":4286:4594   */\n      swap2\n      swap1\n      pop\n      jump\t// out\n        /* \"#utility.yul\":4600:4746   */\n    tag_297:\n        /* \"#utility.yul\":4697:4703   */\n      dup3\n        /* \"#utility.yul\":4692:4695   */\n      dup2\n        /* \"#utility.yul\":4687:4690   */\n      dup4\n        /* \"#utility.yul\":4674:4704   */\n      calldatacopy\n        /* \"#utility.yul\":4738:4739   */\n      0x00\n        /* \"#utility.yul\":4729:4735   */\n      dup4\n        /* \"#utility.yul\":4724:4727   */\n      dup4\n        /* \"#utility.yul\":4720:4736   */\n      add\n        /* \"#utility.yul\":4713:4740   */\n      mstore\n        /* \"#utility.yul\":4600:4746   */\n      pop\n      pop\n      pop\n      jump\t// out\n        /* \"#utility.yul\":4752:5177   */\n    tag_298:\n        /* \"#utility.yul\":4830:4835   */\n      0x00\n        /* \"#utility.yul\":4855:4921   */\n      tag_420\n        /* \"#utility.yul\":4871:4920   */\n      tag_421\n        /* \"#utility.yul\":4913:4919   */\n      dup5\n        /* \"#utility.yul\":4871:4920   */\n      tag_296\n      jump\t// in\n    tag_421:\n        /* \"#utility.yul\":4855:4921   */\n      tag_295\n      jump\t// in\n    tag_420:\n        /* \"#utility.yul\":4846:4921   */\n      swap1\n      pop\n        /* \"#utility.yul\":4944:4950   */\n      dup3\n        /* \"#utility.yul\":4937:4942   */\n      dup2\n        /* \"#utility.yul\":4930:4951   */\n      mstore\n        /* \"#utility.yul\":4982:4986   */\n      0x20\n        /* \"#utility.yul\":4975:4980   */\n      dup2\n        /* \"#utility.yul\":4971:4987   */\n      add\n        /* \"#utility.yul\":5020:5023   */\n      dup5\n        /* \"#utility.yul\":5011:5017   */\n      dup5\n        /* \"#utility.yul\":5006:5009   */\n      dup5\n        /* \"#utility.yul\":5002:5018   */\n      add\n        /* \"#utility.yul\":4999:5024   */\n      gt\n        /* \"#utility.yul\":4996:5108   */\n      iszero\n      tag_422\n      jumpi\n        /* \"#utility.yul\":5027:5106   */\n      tag_423\n      tag_292\n      jump\t// in\n    tag_423:\n        /* \"#utility.yul\":4996:5108   */\n    tag_422:\n        /* \"#utility.yul\":5117:5171   */\n      tag_424\n        /* \"#utility.yul\":5164:5170   */\n      dup5\n        /* \"#utility.yul\":5159:5162   */\n      dup3\n        /* \"#utility.yul\":5154:5157   */\n      dup6\n        /* \"#utility.yul\":5117:5171   */\n      tag_297\n      jump\t// in\n    tag_424:\n        /* \"#utility.yul\":4836:5177   */\n      pop\n        /* \"#utility.yul\":4752:5177   */\n      swap4\n      swap3\n      pop\n      pop\n      pop\n      jump\t// out\n        /* \"#utility.yul\":5197:5537   */\n    tag_299:\n        /* \"#utility.yul\":5253:5258   */\n      0x00\n        /* \"#utility.yul\":5302:5305   */\n      dup3\n        /* \"#utility.yul\":5295:5299   */\n      0x1f\n        /* \"#utility.yul\":5287:5293   */\n      dup4\n        /* \"#utility.yul\":5283:5300   */\n      add\n        /* \"#utility.yul\":5279:5306   */\n      slt\n        /* \"#utility.yul\":5269:5391   */\n      tag_426\n      jumpi\n        /* \"#utility.yul\":5310:5389   */\n      tag_427\n      tag_291\n      jump\t// in\n    tag_427:\n        /* \"#utility.yul\":5269:5391   */\n    tag_426:\n        /* \"#utility.yul\":5427:5433   */\n      dup2\n        /* \"#utility.yul\":5414:5434   */\n      calldataload\n        /* \"#utility.yul\":5452:5531   */\n      tag_428\n        /* \"#utility.yul\":5527:5530   */\n      dup5\n        /* \"#utility.yul\":5519:5525   */\n      dup3\n        /* \"#utility.yul\":5512:5516   */\n      0x20\n        /* \"#utility.yul\":5504:5510   */\n      dup7\n        /* \"#utility.yul\":5500:5517   */\n      add\n        /* \"#utility.yul\":5452:5531   */\n      tag_298\n      jump\t// in\n    tag_428:\n        /* \"#utility.yul\":5443:5531   */\n      swap2\n      pop\n        /* \"#utility.yul\":5259:5537   */\n      pop\n        /* \"#utility.yul\":5197:5537   */\n      swap3\n      swap2\n      pop\n      pop\n      jump\t// out\n        /* \"#utility.yul\":5543:7500   */\n    tag_34:\n        /* \"#utility.yul\":5697:5703   */\n      0x00\n        /* \"#utility.yul\":5705:5711   */\n      dup1\n        /* \"#utility.yul\":5713:5719   */\n      0x00\n        /* \"#utility.yul\":5721:5727   */\n      dup1\n        /* \"#utility.yul\":5729:5735   */\n      0x00\n        /* \"#utility.yul\":5737:5743   */\n      dup1\n        /* \"#utility.yul\":5786:5789   */\n      0xc0\n        /* \"#utility.yul\":5774:5783   */\n      dup8\n        /* \"#utility.yul\":5765:5772   */\n      dup10\n        /* \"#utility.yul\":5761:5784   */\n      sub\n        /* \"#utility.yul\":5757:5790   */\n      slt\n        /* \"#utility.yul\":5754:5874   */\n      iszero\n      tag_430\n      jumpi\n        /* \"#utility.yul\":5793:5872   */\n      tag_431\n      tag_278\n      jump\t// in\n    tag_431:\n        /* \"#utility.yul\":5754:5874   */\n    tag_430:\n        /* \"#utility.yul\":5913:5914   */\n      0x00\n        /* \"#utility.yul\":5938:5991   */\n      tag_432\n        /* \"#utility.yul\":5983:5990   */\n      dup10\n        /* \"#utility.yul\":5974:5980   */\n      dup3\n        /* \"#utility.yul\":5963:5972   */\n      dup11\n        /* \"#utility.yul\":5959:5981   */\n      add\n        /* \"#utility.yul\":5938:5991   */\n      tag_283\n      jump\t// in\n    tag_432:\n        /* \"#utility.yul\":5928:5991   */\n      swap7\n      pop\n        /* \"#utility.yul\":5884:6001   */\n      pop\n        /* \"#utility.yul\":6068:6070   */\n      0x20\n        /* \"#utility.yul\":6057:6066   */\n      dup8\n        /* \"#utility.yul\":6053:6071   */\n      add\n        /* \"#utility.yul\":6040:6072   */\n      calldataload\n        /* \"#utility.yul\":6099:6117   */\n      0xffffffffffffffff\n        /* \"#utility.yul\":6091:6097   */\n      dup2\n        /* \"#utility.yul\":6088:6118   */\n      gt\n        /* \"#utility.yul\":6085:6202   */\n      iszero\n      tag_433\n      jumpi\n        /* \"#utility.yul\":6121:6200   */\n      tag_434\n      tag_279\n      jump\t// in\n    tag_434:\n        /* \"#utility.yul\":6085:6202   */\n    tag_433:\n        /* \"#utility.yul\":6226:6289   */\n      tag_435\n        /* \"#utility.yul\":6281:6288   */\n      dup10\n        /* \"#utility.yul\":6272:6278   */\n      dup3\n        /* \"#utility.yul\":6261:6270   */\n      dup11\n        /* \"#utility.yul\":6257:6279   */\n      add\n        /* \"#utility.yul\":6226:6289   */\n      tag_299\n      jump\t// in\n    tag_435:\n        /* \"#utility.yul\":6216:6289   */\n      swap6\n      pop\n        /* \"#utility.yul\":6011:6299   */\n      pop\n        /* \"#utility.yul\":6366:6368   */\n      0x40\n        /* \"#utility.yul\":6355:6364   */\n      dup8\n        /* \"#utility.yul\":6351:6369   */\n      add\n        /* \"#utility.yul\":6338:6370   */\n      calldataload\n        /* \"#utility.yul\":6397:6415   */\n      0xffffffffffffffff\n        /* \"#utility.yul\":6389:6395   */\n      dup2\n        /* \"#utility.yul\":6386:6416   */\n      gt\n        /* \"#utility.yul\":6383:6500   */\n      iszero\n      tag_436\n      jumpi\n        /* \"#utility.yul\":6419:6498   */\n      tag_437\n      tag_279\n      jump\t// in\n    tag_437:\n        /* \"#utility.yul\":6383:6500   */\n    tag_436:\n        /* \"#utility.yul\":6524:6587   */\n      tag_438\n        /* \"#utility.yul\":6579:6586   */\n      dup10\n        /* \"#utility.yul\":6570:6576   */\n      dup3\n        /* \"#utility.yul\":6559:6568   */\n      dup11\n        /* \"#utility.yul\":6555:6577   */\n      add\n        /* \"#utility.yul\":6524:6587   */\n      tag_299\n      jump\t// in\n    tag_438:\n        /* \"#utility.yul\":6514:6587   */\n      swap5\n      pop\n        /* \"#utility.yul\":6309:6597   */\n      pop\n        /* \"#utility.yul\":6664:6666   */\n      0x60\n        /* \"#utility.yul\":6653:6662   */\n      dup8\n        /* \"#utility.yul\":6649:6667   */\n      add\n        /* \"#utility.yul\":6636:6668   */\n      calldataload\n        /* \"#utility.yul\":6695:6713   */\n      0xffffffffffffffff\n        /* \"#utility.yul\":6687:6693   */\n      dup2\n        /* \"#utility.yul\":6684:6714   */\n      gt\n        /* \"#utility.yul\":6681:6798   */\n      iszero\n      tag_439\n      jumpi\n        /* \"#utility.yul\":6717:6796   */\n      tag_440\n      tag_279\n      jump\t// in\n    tag_440:\n        /* \"#utility.yul\":6681:6798   */\n    tag_439:\n        /* \"#utility.yul\":6822:6885   */\n      tag_441\n        /* \"#utility.yul\":6877:6884   */\n      dup10\n        /* \"#utility.yul\":6868:6874   */\n      dup3\n        /* \"#utility.yul\":6857:6866   */\n      dup11\n        /* \"#utility.yul\":6853:6875   */\n      add\n        /* \"#utility.yul\":6822:6885   */\n      tag_299\n      jump\t// in\n    tag_441:\n        /* \"#utility.yul\":6812:6885   */\n      swap4\n      pop\n        /* \"#utility.yul\":6607:6895   */\n      pop\n        /* \"#utility.yul\":6962:6965   */\n      0x80\n        /* \"#utility.yul\":6951:6960   */\n      dup8\n        /* \"#utility.yul\":6947:6966   */\n      add\n        /* \"#utility.yul\":6934:6967   */\n      calldataload\n        /* \"#utility.yul\":6994:7012   */\n      0xffffffffffffffff\n        /* \"#utility.yul\":6986:6992   */\n      dup2\n        /* \"#utility.yul\":6983:7013   */\n      gt\n        /* \"#utility.yul\":6980:7097   */\n      iszero\n      tag_442\n      jumpi\n        /* \"#utility.yul\":7016:7095   */\n      tag_443\n      tag_279\n      jump\t// in\n    tag_443:\n        /* \"#utility.yul\":6980:7097   */\n    tag_442:\n        /* \"#utility.yul\":7121:7184   */\n      tag_444\n        /* \"#utility.yul\":7176:7183   */\n      dup10\n        /* \"#utility.yul\":7167:7173   */\n      dup3\n        /* \"#utility.yul\":7156:7165   */\n      dup11\n        /* \"#utility.yul\":7152:7174   */\n      add\n        /* \"#utility.yul\":7121:7184   */\n      tag_299\n      jump\t// in\n    tag_444:\n        /* \"#utility.yul\":7111:7184   */\n      swap3\n      pop\n        /* \"#utility.yul\":6905:7194   */\n      pop\n        /* \"#utility.yul\":7261:7264   */\n      0xa0\n        /* \"#utility.yul\":7250:7259   */\n      dup8\n        /* \"#utility.yul\":7246:7265   */\n      add\n        /* \"#utility.yul\":7233:7266   */\n      calldataload\n        /* \"#utility.yul\":7293:7311   */\n      0xffffffffffffffff\n        /* \"#utility.yul\":7285:7291   */\n      dup2\n        /* \"#utility.yul\":7282:7312   */\n      gt\n        /* \"#utility.yul\":7279:7396   */\n      iszero\n      tag_445\n      jumpi\n        /* \"#utility.yul\":7315:7394   */\n      tag_446\n      tag_279\n      jump\t// in\n    tag_446:\n        /* \"#utility.yul\":7279:7396   */\n    tag_445:\n        /* \"#utility.yul\":7420:7483   */\n      tag_447\n        /* \"#utility.yul\":7475:7482   */\n      dup10\n        /* \"#utility.yul\":7466:7472   */\n      dup3\n        /* \"#utility.yul\":7455:7464   */\n      dup11\n        /* \"#utility.yul\":7451:7473   */\n      add\n        /* \"#utility.yul\":7420:7483   */\n      tag_299\n      jump\t// in\n    tag_447:\n        /* \"#utility.yul\":7410:7483   */\n      swap2\n      pop\n        /* \"#utility.yul\":7204:7493   */\n      pop\n        /* \"#utility.yul\":5543:7500   */\n      swap3\n      swap6\n      pop\n      swap3\n      swap6\n      pop\n      swap3\n      swap6\n      jump\t// out\n        /* \"#utility.yul\":7506:7980   */\n    tag_38:\n        /* \"#utility.yul\":7574:7580   */\n      0x00\n        /* \"#utility.yul\":7582:7588   */\n      dup1\n        /* \"#utility.yul\":7631:7633   */\n      0x40\n        /* \"#utility.yul\":7619:7628   */\n      dup4\n        /* \"#utility.yul\":7610:7617   */\n      dup6\n        /* \"#utility.yul\":7606:7629   */\n      sub\n        /* \"#utility.yul\":7602:7634   */\n      slt\n        /* \"#utility.yul\":7599:7718   */\n      iszero\n      tag_449\n      jumpi\n        /* \"#utility.yul\":7637:7716   */\n      tag_450\n      tag_278\n      jump\t// in\n    tag_450:\n        /* \"#utility.yul\":7599:7718   */\n    tag_449:\n        /* \"#utility.yul\":7757:7758   */\n      0x00\n        /* \"#utility.yul\":7782:7835   */\n      tag_451\n        /* \"#utility.yul\":7827:7834   */\n      dup6\n        /* \"#utility.yul\":7818:7824   */\n      dup3\n        /* \"#utility.yul\":7807:7816   */\n      dup7\n        /* \"#utility.yul\":7803:7825   */\n      add\n        /* \"#utility.yul\":7782:7835   */\n      tag_283\n      jump\t// in\n    tag_451:\n        /* \"#utility.yul\":7772:7835   */\n      swap3\n      pop\n        /* \"#utility.yul\":7728:7845   */\n      pop\n        /* \"#utility.yul\":7884:7886   */\n      0x20\n        /* \"#utility.yul\":7910:7963   */\n      tag_452\n        /* \"#utility.yul\":7955:7962   */\n      dup6\n        /* \"#utility.yul\":7946:7952   */\n      dup3\n        /* \"#utility.yul\":7935:7944   */\n      dup7\n        /* \"#utility.yul\":7931:7953   */\n      add\n        /* \"#utility.yul\":7910:7963   */\n      tag_283\n      jump\t// in\n    tag_452:\n        /* \"#utility.yul\":7900:7963   */\n      swap2\n      pop\n        /* \"#utility.yul\":7855:7973   */\n      pop\n        /* \"#utility.yul\":7506:7980   */\n      swap3\n      pop\n      swap3\n      swap1\n      pop\n      jump\t// out\n        /* \"#utility.yul\":7986:8072   */\n    tag_300:\n        /* \"#utility.yul\":8021:8028   */\n      0x00\n        /* \"#utility.yul\":8061:8065   */\n      0xff\n        /* \"#utility.yul\":8054:8059   */\n      dup3\n        /* \"#utility.yul\":8050:8066   */\n      and\n        /* \"#utility.yul\":8039:8066   */\n      swap1\n      pop\n        /* \"#utility.yul\":7986:8072   */\n      swap2\n      swap1\n      pop\n      jump\t// out\n        /* \"#utility.yul\":8078:8190   */\n    tag_301:\n        /* \"#utility.yul\":8161:8183   */\n      tag_455\n        /* \"#utility.yul\":8177:8182   */\n      dup2\n        /* \"#utility.yul\":8161:8183   */\n      tag_300\n      jump\t// in\n    tag_455:\n        /* \"#utility.yul\":8156:8159   */\n      dup3\n        /* \"#utility.yul\":8149:8184   */\n      mstore\n        /* \"#utility.yul\":8078:8190   */\n      pop\n      pop\n      jump\t// out\n        /* \"#utility.yul\":8196:8709   */\n    tag_41:\n        /* \"#utility.yul\":8355:8359   */\n      0x00\n        /* \"#utility.yul\":8393:8395   */\n      0x60\n        /* \"#utility.yul\":8382:8391   */\n      dup3\n        /* \"#utility.yul\":8378:8396   */\n      add\n        /* \"#utility.yul\":8370:8396   */\n      swap1\n      pop\n        /* \"#utility.yul\":8442:8451   */\n      dup2\n        /* \"#utility.yul\":8436:8440   */\n      dup2\n        /* \"#utility.yul\":8432:8452   */\n      sub\n        /* \"#utility.yul\":8428:8429   */\n      0x00\n        /* \"#utility.yul\":8417:8426   */\n      dup4\n        /* \"#utility.yul\":8413:8430   */\n      add\n        /* \"#utility.yul\":8406:8453   */\n      mstore\n        /* \"#utility.yul\":8470:8548   */\n      tag_457\n        /* \"#utility.yul\":8543:8547   */\n      dup2\n        /* \"#utility.yul\":8534:8540   */\n      dup7\n        /* \"#utility.yul\":8470:8548   */\n      tag_290\n      jump\t// in\n    tag_457:\n        /* \"#utility.yul\":8462:8548   */\n      swap1\n      pop\n        /* \"#utility.yul\":8558:8626   */\n      tag_458\n        /* \"#utility.yul\":8622:8624   */\n      0x20\n        /* \"#utility.yul\":8611:8620   */\n      dup4\n        /* \"#utility.yul\":8607:8625   */\n      add\n        /* \"#utility.yul\":8598:8604   */\n      dup6\n        /* \"#utility.yul\":8558:8626   */\n      tag_301\n      jump\t// in\n    tag_458:\n        /* \"#utility.yul\":8636:8702   */\n      tag_459\n        /* \"#utility.yul\":8698:8700   */\n      0x40\n        /* \"#utility.yul\":8687:8696   */\n      dup4\n        /* \"#utility.yul\":8683:8701   */\n      add\n        /* \"#utility.yul\":8674:8680   */\n      dup5\n        /* \"#utility.yul\":8636:8702   */\n      tag_285\n      jump\t// in\n    tag_459:\n        /* \"#utility.yul\":8196:8709   */\n      swap5\n      swap4\n      pop\n      pop\n      pop\n      pop\n      jump\t// out\n        /* \"#utility.yul\":8715:9632   */\n    tag_46:\n        /* \"#utility.yul\":8972:8976   */\n      0x00\n        /* \"#utility.yul\":9010:9013   */\n      0x80\n        /* \"#utility.yul\":8999:9008   */\n      dup3\n        /* \"#utility.yul\":8995:9014   */\n      add\n        /* \"#utility.yul\":8987:9014   */\n      swap1\n      pop\n        /* \"#utility.yul\":9060:9069   */\n      dup2\n        /* \"#utility.yul\":9054:9058   */\n      dup2\n        /* \"#utility.yul\":9050:9070   */\n      sub\n        /* \"#utility.yul\":9046:9047   */\n      0x00\n        /* \"#utility.yul\":9035:9044   */\n      dup4\n        /* \"#utility.yul\":9031:9048   */\n      add\n        /* \"#utility.yul\":9024:9071   */\n      mstore\n        /* \"#utility.yul\":9088:9166   */\n      tag_461\n        /* \"#utility.yul\":9161:9165   */\n      dup2\n        /* \"#utility.yul\":9152:9158   */\n      dup8\n        /* \"#utility.yul\":9088:9166   */\n      tag_290\n      jump\t// in\n    tag_461:\n        /* \"#utility.yul\":9080:9166   */\n      swap1\n      pop\n        /* \"#utility.yul\":9213:9222   */\n      dup2\n        /* \"#utility.yul\":9207:9211   */\n      dup2\n        /* \"#utility.yul\":9203:9223   */\n      sub\n        /* \"#utility.yul\":9198:9200   */\n      0x20\n        /* \"#utility.yul\":9187:9196   */\n      dup4\n        /* \"#utility.yul\":9183:9201   */\n      add\n        /* \"#utility.yul\":9176:9224   */\n      mstore\n        /* \"#utility.yul\":9241:9319   */\n      tag_462\n        /* \"#utility.yul\":9314:9318   */\n      dup2\n        /* \"#utility.yul\":9305:9311   */\n      dup7\n        /* \"#utility.yul\":9241:9319   */\n      tag_290\n      jump\t// in\n    tag_462:\n        /* \"#utility.yul\":9233:9319   */\n      swap1\n      pop\n        /* \"#utility.yul\":9366:9375   */\n      dup2\n        /* \"#utility.yul\":9360:9364   */\n      dup2\n        /* \"#utility.yul\":9356:9376   */\n      sub\n        /* \"#utility.yul\":9351:9353   */\n      0x40\n        /* \"#utility.yul\":9340:9349   */\n      dup4\n        /* \"#utility.yul\":9336:9354   */\n      add\n        /* \"#utility.yul\":9329:9377   */\n      mstore\n        /* \"#utility.yul\":9394:9472   */\n      tag_463\n        /* \"#utility.yul\":9467:9471   */\n      dup2\n        /* \"#utility.yul\":9458:9464   */\n      dup6\n        /* \"#utility.yul\":9394:9472   */\n      tag_290\n      jump\t// in\n    tag_463:\n        /* \"#utility.yul\":9386:9472   */\n      swap1\n      pop\n        /* \"#utility.yul\":9519:9528   */\n      dup2\n        /* \"#utility.yul\":9513:9517   */\n      dup2\n        /* \"#utility.yul\":9509:9529   */\n      sub\n        /* \"#utility.yul\":9504:9506   */\n      0x60\n        /* \"#utility.yul\":9493:9502   */\n      dup4\n        /* \"#utility.yul\":9489:9507   */\n      add\n        /* \"#utility.yul\":9482:9530   */\n      mstore\n        /* \"#utility.yul\":9547:9625   */\n      tag_464\n        /* \"#utility.yul\":9620:9624   */\n      dup2\n        /* \"#utility.yul\":9611:9617   */\n      dup5\n        /* \"#utility.yul\":9547:9625   */\n      tag_290\n      jump\t// in\n    tag_464:\n        /* \"#utility.yul\":9539:9625   */\n      swap1\n      pop\n        /* \"#utility.yul\":8715:9632   */\n      swap6\n      swap5\n      pop\n      pop\n      pop\n      pop\n      pop\n      jump\t// out\n        /* \"#utility.yul\":9638:11123   */\n    tag_49:\n        /* \"#utility.yul\":9764:9770   */\n      0x00\n        /* \"#utility.yul\":9772:9778   */\n      dup1\n        /* \"#utility.yul\":9780:9786   */\n      0x00\n        /* \"#utility.yul\":9788:9794   */\n      dup1\n        /* \"#utility.yul\":9837:9840   */\n      0x80\n        /* \"#utility.yul\":9825:9834   */\n      dup6\n        /* \"#utility.yul\":9816:9823   */\n      dup8\n        /* \"#utility.yul\":9812:9835   */\n      sub\n        /* \"#utility.yul\":9808:9841   */\n      slt\n        /* \"#utility.yul\":9805:9925   */\n      iszero\n      tag_466\n      jumpi\n        /* \"#utility.yul\":9844:9923   */\n      tag_467\n      tag_278\n      jump\t// in\n    tag_467:\n        /* \"#utility.yul\":9805:9925   */\n    tag_466:\n        /* \"#utility.yul\":9992:9993   */\n      0x00\n        /* \"#utility.yul\":9981:9990   */\n      dup6\n        /* \"#utility.yul\":9977:9994   */\n      add\n        /* \"#utility.yul\":9964:9995   */\n      calldataload\n        /* \"#utility.yul\":10022:10040   */\n      0xffffffffffffffff\n        /* \"#utility.yul\":10014:10020   */\n      dup2\n        /* \"#utility.yul\":10011:10041   */\n      gt\n        /* \"#utility.yul\":10008:10125   */\n      iszero\n      tag_468\n      jumpi\n        /* \"#utility.yul\":10044:10123   */\n      tag_469\n      tag_279\n      jump\t// in\n    tag_469:\n        /* \"#utility.yul\":10008:10125   */\n    tag_468:\n        /* \"#utility.yul\":10149:10212   */\n      tag_470\n        /* \"#utility.yul\":10204:10211   */\n      dup8\n        /* \"#utility.yul\":10195:10201   */\n      dup3\n        /* \"#utility.yul\":10184:10193   */\n      dup9\n        /* \"#utility.yul\":10180:10202   */\n      add\n        /* \"#utility.yul\":10149:10212   */\n      tag_299\n      jump\t// in\n    tag_470:\n        /* \"#utility.yul\":10139:10212   */\n      swap5\n      pop\n        /* \"#utility.yul\":9935:10222   */\n      pop\n        /* \"#utility.yul\":10289:10291   */\n      0x20\n        /* \"#utility.yul\":10278:10287   */\n      dup6\n        /* \"#utility.yul\":10274:10292   */\n      add\n        /* \"#utility.yul\":10261:10293   */\n      calldataload\n        /* \"#utility.yul\":10320:10338   */\n      0xffffffffffffffff\n        /* \"#utility.yul\":10312:10318   */\n      dup2\n        /* \"#utility.yul\":10309:10339   */\n      gt\n        /* \"#utility.yul\":10306:10423   */\n      iszero\n      tag_471\n      jumpi\n        /* \"#utility.yul\":10342:10421   */\n      tag_472\n      tag_279\n      jump\t// in\n    tag_472:\n        /* \"#utility.yul\":10306:10423   */\n    tag_471:\n        /* \"#utility.yul\":10447:10510   */\n      tag_473\n        /* \"#utility.yul\":10502:10509   */\n      dup8\n        /* \"#utility.yul\":10493:10499   */\n      dup3\n        /* \"#utility.yul\":10482:10491   */\n      dup9\n        /* \"#utility.yul\":10478:10500   */\n      add\n        /* \"#utility.yul\":10447:10510   */\n      tag_299\n      jump\t// in\n    tag_473:\n        /* \"#utility.yul\":10437:10510   */\n      swap4\n      pop\n        /* \"#utility.yul\":10232:10520   */\n      pop\n        /* \"#utility.yul\":10587:10589   */\n      0x40\n        /* \"#utility.yul\":10576:10585   */\n      dup6\n        /* \"#utility.yul\":10572:10590   */\n      add\n        /* \"#utility.yul\":10559:10591   */\n      calldataload\n        /* \"#utility.yul\":10618:10636   */\n      0xffffffffffffffff\n        /* \"#utility.yul\":10610:10616   */\n      dup2\n        /* \"#utility.yul\":10607:10637   */\n      gt\n        /* \"#utility.yul\":10604:10721   */\n      iszero\n      tag_474\n      jumpi\n        /* \"#utility.yul\":10640:10719   */\n      tag_475\n      tag_279\n      jump\t// in\n    tag_475:\n        /* \"#utility.yul\":10604:10721   */\n    tag_474:\n        /* \"#utility.yul\":10745:10808   */\n      tag_476\n        /* \"#utility.yul\":10800:10807   */\n      dup8\n        /* \"#utility.yul\":10791:10797   */\n      dup3\n        /* \"#utility.yul\":10780:10789   */\n      dup9\n        /* \"#utility.yul\":10776:10798   */\n      add\n        /* \"#utility.yul\":10745:10808   */\n      tag_299\n      jump\t// in\n    tag_476:\n        /* \"#utility.yul\":10735:10808   */\n      swap3\n      pop\n        /* \"#utility.yul\":10530:10818   */\n      pop\n        /* \"#utility.yul\":10885:10887   */\n      0x60\n        /* \"#utility.yul\":10874:10883   */\n      dup6\n        /* \"#utility.yul\":10870:10888   */\n      add\n        /* \"#utility.yul\":10857:10889   */\n      calldataload\n        /* \"#utility.yul\":10916:10934   */\n      0xffffffffffffffff\n        /* \"#utility.yul\":10908:10914   */\n      dup2\n        /* \"#utility.yul\":10905:10935   */\n      gt\n        /* \"#utility.yul\":10902:11019   */\n      iszero\n      tag_477\n      jumpi\n        /* \"#utility.yul\":10938:11017   */\n      tag_478\n      tag_279\n      jump\t// in\n    tag_478:\n        /* \"#utility.yul\":10902:11019   */\n    tag_477:\n        /* \"#utility.yul\":11043:11106   */\n      tag_479\n        /* \"#utility.yul\":11098:11105   */\n      dup8\n        /* \"#utility.yul\":11089:11095   */\n      dup3\n        /* \"#utility.yul\":11078:11087   */\n      dup9\n        /* \"#utility.yul\":11074:11096   */\n      add\n        /* \"#utility.yul\":11043:11106   */\n      tag_299\n      jump\t// in\n    tag_479:\n        /* \"#utility.yul\":11033:11106   */\n      swap2\n      pop\n        /* \"#utility.yul\":10828:11116   */\n      pop\n        /* \"#utility.yul\":9638:11123   */\n      swap3\n      swap6\n      swap2\n      swap5\n      pop\n      swap3\n      pop\n      jump\t// out\n        /* \"#utility.yul\":11129:11339   */\n    tag_55:\n        /* \"#utility.yul\":11216:11220   */\n      0x00\n        /* \"#utility.yul\":11254:11256   */\n      0x20\n        /* \"#utility.yul\":11243:11252   */\n      dup3\n        /* \"#utility.yul\":11239:11257   */\n      add\n        /* \"#utility.yul\":11231:11257   */\n      swap1\n      pop\n        /* \"#utility.yul\":11267:11332   */\n      tag_481\n        /* \"#utility.yul\":11329:11330   */\n      0x00\n        /* \"#utility.yul\":11318:11327   */\n      dup4\n        /* \"#utility.yul\":11314:11331   */\n      add\n        /* \"#utility.yul\":11305:11311   */\n      dup5\n        /* \"#utility.yul\":11267:11332   */\n      tag_285\n      jump\t// in\n    tag_481:\n        /* \"#utility.yul\":11129:11339   */\n      swap3\n      swap2\n      pop\n      pop\n      jump\t// out\n        /* \"#utility.yul\":11345:11658   */\n    tag_60:\n        /* \"#utility.yul\":11458:11462   */\n      0x00\n        /* \"#utility.yul\":11496:11498   */\n      0x20\n        /* \"#utility.yul\":11485:11494   */\n      dup3\n        /* \"#utility.yul\":11481:11499   */\n      add\n        /* \"#utility.yul\":11473:11499   */\n      swap1\n      pop\n        /* \"#utility.yul\":11545:11554   */\n      dup2\n        /* \"#utility.yul\":11539:11543   */\n      dup2\n        /* \"#utility.yul\":11535:11555   */\n      sub\n        /* \"#utility.yul\":11531:11532   */\n      0x00\n        /* \"#utility.yul\":11520:11529   */\n      dup4\n        /* \"#utility.yul\":11516:11533   */\n      add\n        /* \"#utility.yul\":11509:11556   */\n      mstore\n        /* \"#utility.yul\":11573:11651   */\n      tag_483\n        /* \"#utility.yul\":11646:11650   */\n      dup2\n        /* \"#utility.yul\":11637:11643   */\n      dup5\n        /* \"#utility.yul\":11573:11651   */\n      tag_290\n      jump\t// in\n    tag_483:\n        /* \"#utility.yul\":11565:11651   */\n      swap1\n      pop\n        /* \"#utility.yul\":11345:11658   */\n      swap3\n      swap2\n      pop\n      pop\n      jump\t// out\n        /* \"#utility.yul\":11664:11971   */\n    tag_302:\n        /* \"#utility.yul\":11725:11729   */\n      0x00\n        /* \"#utility.yul\":11815:11833   */\n      0xffffffffffffffff\n        /* \"#utility.yul\":11807:11813   */\n      dup3\n        /* \"#utility.yul\":11804:11834   */\n      gt\n        /* \"#utility.yul\":11801:11857   */\n      iszero\n      tag_485\n      jumpi\n        /* \"#utility.yul\":11837:11855   */\n      tag_486\n      tag_293\n      jump\t// in\n    tag_486:\n        /* \"#utility.yul\":11801:11857   */\n    tag_485:\n        /* \"#utility.yul\":11875:11904   */\n      tag_487\n        /* \"#utility.yul\":11897:11903   */\n      dup3\n        /* \"#utility.yul\":11875:11904   */\n      tag_289\n      jump\t// in\n    tag_487:\n        /* \"#utility.yul\":11867:11904   */\n      swap1\n      pop\n        /* \"#utility.yul\":11959:11963   */\n      0x20\n        /* \"#utility.yul\":11953:11957   */\n      dup2\n        /* \"#utility.yul\":11949:11964   */\n      add\n        /* \"#utility.yul\":11941:11964   */\n      swap1\n      pop\n        /* \"#utility.yul\":11664:11971   */\n      swap2\n      swap1\n      pop\n      jump\t// out\n        /* \"#utility.yul\":11977:12400   */\n    tag_303:\n        /* \"#utility.yul\":12054:12059   */\n      0x00\n        /* \"#utility.yul\":12079:12144   */\n      tag_489\n        /* \"#utility.yul\":12095:12143   */\n      tag_490\n        /* \"#utility.yul\":12136:12142   */\n      dup5\n        /* \"#utility.yul\":12095:12143   */\n      tag_302\n      jump\t// in\n    tag_490:\n        /* \"#utility.yul\":12079:12144   */\n      tag_295\n      jump\t// in\n    tag_489:\n        /* \"#utility.yul\":12070:12144   */\n      swap1\n      pop\n        /* \"#utility.yul\":12167:12173   */\n      dup3\n        /* \"#utility.yul\":12160:12165   */\n      dup2\n        /* \"#utility.yul\":12153:12174   */\n      mstore\n        /* \"#utility.yul\":12205:12209   */\n      0x20\n        /* \"#utility.yul\":12198:12203   */\n      dup2\n        /* \"#utility.yul\":12194:12210   */\n      add\n        /* \"#utility.yul\":12243:12246   */\n      dup5\n        /* \"#utility.yul\":12234:12240   */\n      dup5\n        /* \"#utility.yul\":12229:12232   */\n      dup5\n        /* \"#utility.yul\":12225:12241   */\n      add\n        /* \"#utility.yul\":12222:12247   */\n      gt\n        /* \"#utility.yul\":12219:12331   */\n      iszero\n      tag_491\n      jumpi\n        /* \"#utility.yul\":12250:12329   */\n      tag_492\n      tag_292\n      jump\t// in\n    tag_492:\n        /* \"#utility.yul\":12219:12331   */\n    tag_491:\n        /* \"#utility.yul\":12340:12394   */\n      tag_493\n        /* \"#utility.yul\":12387:12393   */\n      dup5\n        /* \"#utility.yul\":12382:12385   */\n      dup3\n        /* \"#utility.yul\":12377:12380   */\n      dup6\n        /* \"#utility.yul\":12340:12394   */\n      tag_297\n      jump\t// in\n    tag_493:\n        /* \"#utility.yul\":12060:12400   */\n      pop\n        /* \"#utility.yul\":11977:12400   */\n      swap4\n      swap3\n      pop\n      pop\n      pop\n      jump\t// out\n        /* \"#utility.yul\":12419:12757   */\n    tag_304:\n        /* \"#utility.yul\":12474:12479   */\n      0x00\n        /* \"#utility.yul\":12523:12526   */\n      dup3\n        /* \"#utility.yul\":12516:12520   */\n      0x1f\n        /* \"#utility.yul\":12508:12514   */\n      dup4\n        /* \"#utility.yul\":12504:12521   */\n      add\n        /* \"#utility.yul\":12500:12527   */\n      slt\n        /* \"#utility.yul\":12490:12612   */\n      tag_495\n      jumpi\n        /* \"#utility.yul\":12531:12610   */\n      tag_496\n      tag_291\n      jump\t// in\n    tag_496:\n        /* \"#utility.yul\":12490:12612   */\n    tag_495:\n        /* \"#utility.yul\":12648:12654   */\n      dup2\n        /* \"#utility.yul\":12635:12655   */\n      calldataload\n        /* \"#utility.yul\":12673:12751   */\n      tag_497\n        /* \"#utility.yul\":12747:12750   */\n      dup5\n        /* \"#utility.yul\":12739:12745   */\n      dup3\n        /* \"#utility.yul\":12732:12736   */\n      0x20\n        /* \"#utility.yul\":12724:12730   */\n      dup7\n        /* \"#utility.yul\":12720:12737   */\n      add\n        /* \"#utility.yul\":12673:12751   */\n      tag_303\n      jump\t// in\n    tag_497:\n        /* \"#utility.yul\":12664:12751   */\n      swap2\n      pop\n        /* \"#utility.yul\":12480:12757   */\n      pop\n        /* \"#utility.yul\":12419:12757   */\n      swap3\n      swap2\n      pop\n      pop\n      jump\t// out\n        /* \"#utility.yul\":12763:13415   */\n    tag_63:\n        /* \"#utility.yul\":12840:12846   */\n      0x00\n        /* \"#utility.yul\":12848:12854   */\n      dup1\n        /* \"#utility.yul\":12897:12899   */\n      0x40\n        /* \"#utility.yul\":12885:12894   */\n      dup4\n        /* \"#utility.yul\":12876:12883   */\n      dup6\n        /* \"#utility.yul\":12872:12895   */\n      sub\n        /* \"#utility.yul\":12868:12900   */\n      slt\n        /* \"#utility.yul\":12865:12984   */\n      iszero\n      tag_499\n      jumpi\n        /* \"#utility.yul\":12903:12982   */\n      tag_500\n      tag_278\n      jump\t// in\n    tag_500:\n        /* \"#utility.yul\":12865:12984   */\n    tag_499:\n        /* \"#utility.yul\":13023:13024   */\n      0x00\n        /* \"#utility.yul\":13048:13101   */\n      tag_501\n        /* \"#utility.yul\":13093:13100   */\n      dup6\n        /* \"#utility.yul\":13084:13090   */\n      dup3\n        /* \"#utility.yul\":13073:13082   */\n      dup7\n        /* \"#utility.yul\":13069:13091   */\n      add\n        /* \"#utility.yul\":13048:13101   */\n      tag_283\n      jump\t// in\n    tag_501:\n        /* \"#utility.yul\":13038:13101   */\n      swap3\n      pop\n        /* \"#utility.yul\":12994:13111   */\n      pop\n        /* \"#utility.yul\":13178:13180   */\n      0x20\n        /* \"#utility.yul\":13167:13176   */\n      dup4\n        /* \"#utility.yul\":13163:13181   */\n      add\n        /* \"#utility.yul\":13150:13182   */\n      calldataload\n        /* \"#utility.yul\":13209:13227   */\n      0xffffffffffffffff\n        /* \"#utility.yul\":13201:13207   */\n      dup2\n        /* \"#utility.yul\":13198:13228   */\n      gt\n        /* \"#utility.yul\":13195:13312   */\n      iszero\n      tag_502\n      jumpi\n        /* \"#utility.yul\":13231:13310   */\n      tag_503\n      tag_279\n      jump\t// in\n    tag_503:\n        /* \"#utility.yul\":13195:13312   */\n    tag_502:\n        /* \"#utility.yul\":13336:13398   */\n      tag_504\n        /* \"#utility.yul\":13390:13397   */\n      dup6\n        /* \"#utility.yul\":13381:13387   */\n      dup3\n        /* \"#utility.yul\":13370:13379   */\n      dup7\n        /* \"#utility.yul\":13366:13388   */\n      add\n        /* \"#utility.yul\":13336:13398   */\n      tag_304\n      jump\t// in\n    tag_504:\n        /* \"#utility.yul\":13326:13398   */\n      swap2\n      pop\n        /* \"#utility.yul\":13121:13408   */\n      pop\n        /* \"#utility.yul\":12763:13415   */\n      swap3\n      pop\n      swap3\n      swap1\n      pop\n      jump\t// out\n        /* \"#utility.yul\":13421:13539   */\n    tag_305:\n        /* \"#utility.yul\":13508:13532   */\n      tag_506\n        /* \"#utility.yul\":13526:13531   */\n      dup2\n        /* \"#utility.yul\":13508:13532   */\n      tag_281\n      jump\t// in\n    tag_506:\n        /* \"#utility.yul\":13503:13506   */\n      dup3\n        /* \"#utility.yul\":13496:13533   */\n      mstore\n        /* \"#utility.yul\":13421:13539   */\n      pop\n      pop\n      jump\t// out\n        /* \"#utility.yul\":13545:13767   */\n    tag_68:\n        /* \"#utility.yul\":13638:13642   */\n      0x00\n        /* \"#utility.yul\":13676:13678   */\n      0x20\n        /* \"#utility.yul\":13665:13674   */\n      dup3\n        /* \"#utility.yul\":13661:13679   */\n      add\n        /* \"#utility.yul\":13653:13679   */\n      swap1\n      pop\n        /* \"#utility.yul\":13689:13760   */\n      tag_508\n        /* \"#utility.yul\":13757:13758   */\n      0x00\n        /* \"#utility.yul\":13746:13755   */\n      dup4\n        /* \"#utility.yul\":13742:13759   */\n      add\n        /* \"#utility.yul\":13733:13739   */\n      dup5\n        /* \"#utility.yul\":13689:13760   */\n      tag_305\n      jump\t// in\n    tag_508:\n        /* \"#utility.yul\":13545:13767   */\n      swap3\n      swap2\n      pop\n      pop\n      jump\t// out\n        /* \"#utility.yul\":13773:13891   */\n    tag_306:\n        /* \"#utility.yul\":13844:13866   */\n      tag_510\n        /* \"#utility.yul\":13860:13865   */\n      dup2\n        /* \"#utility.yul\":13844:13866   */\n      tag_300\n      jump\t// in\n    tag_510:\n        /* \"#utility.yul\":13837:13842   */\n      dup2\n        /* \"#utility.yul\":13834:13867   */\n      eq\n        /* \"#utility.yul\":13824:13885   */\n      tag_511\n      jumpi\n        /* \"#utility.yul\":13881:13882   */\n      0x00\n        /* \"#utility.yul\":13878:13879   */\n      dup1\n        /* \"#utility.yul\":13871:13883   */\n      revert\n        /* \"#utility.yul\":13824:13885   */\n    tag_511:\n        /* \"#utility.yul\":13773:13891   */\n      pop\n      jump\t// out\n        /* \"#utility.yul\":13897:14032   */\n    tag_307:\n        /* \"#utility.yul\":13941:13946   */\n      0x00\n        /* \"#utility.yul\":13979:13985   */\n      dup2\n        /* \"#utility.yul\":13966:13986   */\n      calldataload\n        /* \"#utility.yul\":13957:13986   */\n      swap1\n      pop\n        /* \"#utility.yul\":13995:14026   */\n      tag_513\n        /* \"#utility.yul\":14020:14025   */\n      dup2\n        /* \"#utility.yul\":13995:14026   */\n      tag_306\n      jump\t// in\n    tag_513:\n        /* \"#utility.yul\":13897:14032   */\n      swap3\n      swap2\n      pop\n      pop\n      jump\t// out\n        /* \"#utility.yul\":14038:14833   */\n    tag_71:\n        /* \"#utility.yul\":14123:14129   */\n      0x00\n        /* \"#utility.yul\":14131:14137   */\n      dup1\n        /* \"#utility.yul\":14139:14145   */\n      0x00\n        /* \"#utility.yul\":14188:14190   */\n      0x60\n        /* \"#utility.yul\":14176:14185   */\n      dup5\n        /* \"#utility.yul\":14167:14174   */\n      dup7\n        /* \"#utility.yul\":14163:14186   */\n      sub\n        /* \"#utility.yul\":14159:14191   */\n      slt\n        /* \"#utility.yul\":14156:14275   */\n      iszero\n      tag_515\n      jumpi\n        /* \"#utility.yul\":14194:14273   */\n      tag_516\n      tag_278\n      jump\t// in\n    tag_516:\n        /* \"#utility.yul\":14156:14275   */\n    tag_515:\n        /* \"#utility.yul\":14314:14315   */\n      0x00\n        /* \"#utility.yul\":14339:14392   */\n      tag_517\n        /* \"#utility.yul\":14384:14391   */\n      dup7\n        /* \"#utility.yul\":14375:14381   */\n      dup3\n        /* \"#utility.yul\":14364:14373   */\n      dup8\n        /* \"#utility.yul\":14360:14382   */\n      add\n        /* \"#utility.yul\":14339:14392   */\n      tag_283\n      jump\t// in\n    tag_517:\n        /* \"#utility.yul\":14329:14392   */\n      swap4\n      pop\n        /* \"#utility.yul\":14285:14402   */\n      pop\n        /* \"#utility.yul\":14469:14471   */\n      0x20\n        /* \"#utility.yul\":14458:14467   */\n      dup5\n        /* \"#utility.yul\":14454:14472   */\n      add\n        /* \"#utility.yul\":14441:14473   */\n      calldataload\n        /* \"#utility.yul\":14500:14518   */\n      0xffffffffffffffff\n        /* \"#utility.yul\":14492:14498   */\n      dup2\n        /* \"#utility.yul\":14489:14519   */\n      gt\n        /* \"#utility.yul\":14486:14603   */\n      iszero\n      tag_518\n      jumpi\n        /* \"#utility.yul\":14522:14601   */\n      tag_519\n      tag_279\n      jump\t// in\n    tag_519:\n        /* \"#utility.yul\":14486:14603   */\n    tag_518:\n        /* \"#utility.yul\":14627:14690   */\n      tag_520\n        /* \"#utility.yul\":14682:14689   */\n      dup7\n        /* \"#utility.yul\":14673:14679   */\n      dup3\n        /* \"#utility.yul\":14662:14671   */\n      dup8\n        /* \"#utility.yul\":14658:14680   */\n      add\n        /* \"#utility.yul\":14627:14690   */\n      tag_299\n      jump\t// in\n    tag_520:\n        /* \"#utility.yul\":14617:14690   */\n      swap3\n      pop\n        /* \"#utility.yul\":14412:14700   */\n      pop\n        /* \"#utility.yul\":14739:14741   */\n      0x40\n        /* \"#utility.yul\":14765:14816   */\n      tag_521\n        /* \"#utility.yul\":14808:14815   */\n      dup7\n        /* \"#utility.yul\":14799:14805   */\n      dup3\n        /* \"#utility.yul\":14788:14797   */\n      dup8\n        /* \"#utility.yul\":14784:14806   */\n      add\n        /* \"#utility.yul\":14765:14816   */\n      tag_307\n      jump\t// in\n    tag_521:\n        /* \"#utility.yul\":14755:14816   */\n      swap2\n      pop\n        /* \"#utility.yul\":14710:14826   */\n      pop\n        /* \"#utility.yul\":14038:14833   */\n      swap3\n      pop\n      swap3\n      pop\n      swap3\n      jump\t// out\n        /* \"#utility.yul\":14839:16057   */\n    tag_86:\n        /* \"#utility.yul\":15166:15170   */\n      0x00\n        /* \"#utility.yul\":15204:15207   */\n      0xc0\n        /* \"#utility.yul\":15193:15202   */\n      dup3\n        /* \"#utility.yul\":15189:15208   */\n      add\n        /* \"#utility.yul\":15181:15208   */\n      swap1\n      pop\n        /* \"#utility.yul\":15218:15283   */\n      tag_523\n        /* \"#utility.yul\":15280:15281   */\n      0x00\n        /* \"#utility.yul\":15269:15278   */\n      dup4\n        /* \"#utility.yul\":15265:15282   */\n      add\n        /* \"#utility.yul\":15256:15262   */\n      dup10\n        /* \"#utility.yul\":15218:15283   */\n      tag_285\n      jump\t// in\n    tag_523:\n        /* \"#utility.yul\":15330:15339   */\n      dup2\n        /* \"#utility.yul\":15324:15328   */\n      dup2\n        /* \"#utility.yul\":15320:15340   */\n      sub\n        /* \"#utility.yul\":15315:15317   */\n      0x20\n        /* \"#utility.yul\":15304:15313   */\n      dup4\n        /* \"#utility.yul\":15300:15318   */\n      add\n        /* \"#utility.yul\":15293:15341   */\n      mstore\n        /* \"#utility.yul\":15358:15436   */\n      tag_524\n        /* \"#utility.yul\":15431:15435   */\n      dup2\n        /* \"#utility.yul\":15422:15428   */\n      dup9\n        /* \"#utility.yul\":15358:15436   */\n      tag_290\n      jump\t// in\n    tag_524:\n        /* \"#utility.yul\":15350:15436   */\n      swap1\n      pop\n        /* \"#utility.yul\":15483:15492   */\n      dup2\n        /* \"#utility.yul\":15477:15481   */\n      dup2\n        /* \"#utility.yul\":15473:15493   */\n      sub\n        /* \"#utility.yul\":15468:15470   */\n      0x40\n        /* \"#utility.yul\":15457:15466   */\n      dup4\n        /* \"#utility.yul\":15453:15471   */\n      add\n        /* \"#utility.yul\":15446:15494   */\n      mstore\n        /* \"#utility.yul\":15511:15589   */\n      tag_525\n        /* \"#utility.yul\":15584:15588   */\n      dup2\n        /* \"#utility.yul\":15575:15581   */\n      dup8\n        /* \"#utility.yul\":15511:15589   */\n      tag_290\n      jump\t// in\n    tag_525:\n        /* \"#utility.yul\":15503:15589   */\n      swap1\n      pop\n        /* \"#utility.yul\":15636:15645   */\n      dup2\n        /* \"#utility.yul\":15630:15634   */\n      dup2\n        /* \"#utility.yul\":15626:15646   */\n      sub\n        /* \"#utility.yul\":15621:15623   */\n      0x60\n        /* \"#utility.yul\":15610:15619   */\n      dup4\n        /* \"#utility.yul\":15606:15624   */\n      add\n        /* \"#utility.yul\":15599:15647   */\n      mstore\n        /* \"#utility.yul\":15664:15742   */\n      tag_526\n        /* \"#utility.yul\":15737:15741   */\n      dup2\n        /* \"#utility.yul\":15728:15734   */\n      dup7\n        /* \"#utility.yul\":15664:15742   */\n      tag_290\n      jump\t// in\n    tag_526:\n        /* \"#utility.yul\":15656:15742   */\n      swap1\n      pop\n        /* \"#utility.yul\":15790:15799   */\n      dup2\n        /* \"#utility.yul\":15784:15788   */\n      dup2\n        /* \"#utility.yul\":15780:15800   */\n      sub\n        /* \"#utility.yul\":15774:15777   */\n      0x80\n        /* \"#utility.yul\":15763:15772   */\n      dup4\n        /* \"#utility.yul\":15759:15778   */\n      add\n        /* \"#utility.yul\":15752:15801   */\n      mstore\n        /* \"#utility.yul\":15818:15896   */\n      tag_527\n        /* \"#utility.yul\":15891:15895   */\n      dup2\n        /* \"#utility.yul\":15882:15888   */\n      dup6\n        /* \"#utility.yul\":15818:15896   */\n      tag_290\n      jump\t// in\n    tag_527:\n        /* \"#utility.yul\":15810:15896   */\n      swap1\n      pop\n        /* \"#utility.yul\":15944:15953   */\n      dup2\n        /* \"#utility.yul\":15938:15942   */\n      dup2\n        /* \"#utility.yul\":15934:15954   */\n      sub\n        /* \"#utility.yul\":15928:15931   */\n      0xa0\n        /* \"#utility.yul\":15917:15926   */\n      dup4\n        /* \"#utility.yul\":15913:15932   */\n      add\n        /* \"#utility.yul\":15906:15955   */\n      mstore\n        /* \"#utility.yul\":15972:16050   */\n      tag_528\n        /* \"#utility.yul\":16045:16049   */\n      dup2\n        /* \"#utility.yul\":16036:16042   */\n      dup5\n        /* \"#utility.yul\":15972:16050   */\n      tag_290\n      jump\t// in\n    tag_528:\n        /* \"#utility.yul\":15964:16050   */\n      swap1\n      pop\n        /* \"#utility.yul\":14839:16057   */\n      swap8\n      swap7\n      pop\n      pop\n      pop\n      pop\n      pop\n      pop\n      pop\n      jump\t// out\n        /* \"#utility.yul\":16063:16284   */\n    tag_308:\n        /* \"#utility.yul\":16203:16237   */\n      0x43616c6c6572206973206e6f7420616e20617574686f72697a656420646f6374\n        /* \"#utility.yul\":16199:16200   */\n      0x00\n        /* \"#utility.yul\":16191:16197   */\n      dup3\n        /* \"#utility.yul\":16187:16201   */\n      add\n        /* \"#utility.yul\":16180:16238   */\n      mstore\n        /* \"#utility.yul\":16272:16276   */\n      0x6f72000000000000000000000000000000000000000000000000000000000000\n        /* \"#utility.yul\":16267:16269   */\n      0x20\n        /* \"#utility.yul\":16259:16265   */\n      dup3\n        /* \"#utility.yul\":16255:16270   */\n      add\n        /* \"#utility.yul\":16248:16277   */\n      mstore\n        /* \"#utility.yul\":16063:16284   */\n      pop\n      jump\t// out\n        /* \"#utility.yul\":16290:16656   */\n    tag_309:\n        /* \"#utility.yul\":16432:16435   */\n      0x00\n        /* \"#utility.yul\":16453:16520   */\n      tag_531\n        /* \"#utility.yul\":16517:16519   */\n      0x22\n        /* \"#utility.yul\":16512:16515   */\n      dup4\n        /* \"#utility.yul\":16453:16520   */\n      tag_287\n      jump\t// in\n    tag_531:\n        /* \"#utility.yul\":16446:16520   */\n      swap2\n      pop\n        /* \"#utility.yul\":16529:16622   */\n      tag_532\n        /* \"#utility.yul\":16618:16621   */\n      dup3\n        /* \"#utility.yul\":16529:16622   */\n      tag_308\n      jump\t// in\n    tag_532:\n        /* \"#utility.yul\":16647:16649   */\n      0x40\n        /* \"#utility.yul\":16642:16645   */\n      dup3\n        /* \"#utility.yul\":16638:16650   */\n      add\n        /* \"#utility.yul\":16631:16650   */\n      swap1\n      pop\n        /* \"#utility.yul\":16290:16656   */\n      swap2\n      swap1\n      pop\n      jump\t// out\n        /* \"#utility.yul\":16662:17081   */\n    tag_97:\n        /* \"#utility.yul\":16828:16832   */\n      0x00\n        /* \"#utility.yul\":16866:16868   */\n      0x20\n        /* \"#utility.yul\":16855:16864   */\n      dup3\n        /* \"#utility.yul\":16851:16869   */\n      add\n        /* \"#utility.yul\":16843:16869   */\n      swap1\n      pop\n        /* \"#utility.yul\":16915:16924   */\n      dup2\n        /* \"#utility.yul\":16909:16913   */\n      dup2\n        /* \"#utility.yul\":16905:16925   */\n      sub\n        /* \"#utility.yul\":16901:16902   */\n      0x00\n        /* \"#utility.yul\":16890:16899   */\n      dup4\n        /* \"#utility.yul\":16886:16903   */\n      add\n        /* \"#utility.yul\":16879:16926   */\n      mstore\n        /* \"#utility.yul\":16943:17074   */\n      tag_534\n        /* \"#utility.yul\":17069:17073   */\n      dup2\n        /* \"#utility.yul\":16943:17074   */\n      tag_309\n      jump\t// in\n    tag_534:\n        /* \"#utility.yul\":16935:17074   */\n      swap1\n      pop\n        /* \"#utility.yul\":16662:17081   */\n      swap2\n      swap1\n      pop\n      jump\t// out\n        /* \"#utility.yul\":17087:17310   */\n    tag_310:\n        /* \"#utility.yul\":17227:17261   */\n      0x41646472657373206973206e6f74206120726567697374657265642070617469\n        /* \"#utility.yul\":17223:17224   */\n      0x00\n        /* \"#utility.yul\":17215:17221   */\n      dup3\n        /* \"#utility.yul\":17211:17225   */\n      add\n        /* \"#utility.yul\":17204:17262   */\n      mstore\n        /* \"#utility.yul\":17296:17302   */\n      0x656e742e00000000000000000000000000000000000000000000000000000000\n        /* \"#utility.yul\":17291:17293   */\n      0x20\n        /* \"#utility.yul\":17283:17289   */\n      dup3\n        /* \"#utility.yul\":17279:17294   */\n      add\n        /* \"#utility.yul\":17272:17303   */\n      mstore\n        /* \"#utility.yul\":17087:17310   */\n      pop\n      jump\t// out\n        /* \"#utility.yul\":17316:17682   */\n    tag_311:\n        /* \"#utility.yul\":17458:17461   */\n      0x00\n        /* \"#utility.yul\":17479:17546   */\n      tag_537\n        /* \"#utility.yul\":17543:17545   */\n      0x24\n        /* \"#utility.yul\":17538:17541   */\n      dup4\n        /* \"#utility.yul\":17479:17546   */\n      tag_287\n      jump\t// in\n    tag_537:\n        /* \"#utility.yul\":17472:17546   */\n      swap2\n      pop\n        /* \"#utility.yul\":17555:17648   */\n      tag_538\n        /* \"#utility.yul\":17644:17647   */\n      dup3\n        /* \"#utility.yul\":17555:17648   */\n      tag_310\n      jump\t// in\n    tag_538:\n        /* \"#utility.yul\":17673:17675   */\n      0x40\n        /* \"#utility.yul\":17668:17671   */\n      dup3\n        /* \"#utility.yul\":17664:17676   */\n      add\n        /* \"#utility.yul\":17657:17676   */\n      swap1\n      pop\n        /* \"#utility.yul\":17316:17682   */\n      swap2\n      swap1\n      pop\n      jump\t// out\n        /* \"#utility.yul\":17688:18107   */\n    tag_101:\n        /* \"#utility.yul\":17854:17858   */\n      0x00\n        /* \"#utility.yul\":17892:17894   */\n      0x20\n        /* \"#utility.yul\":17881:17890   */\n      dup3\n        /* \"#utility.yul\":17877:17895   */\n      add\n        /* \"#utility.yul\":17869:17895   */\n      swap1\n      pop\n        /* \"#utility.yul\":17941:17950   */\n      dup2\n        /* \"#utility.yul\":17935:17939   */\n      dup2\n        /* \"#utility.yul\":17931:17951   */\n      sub\n        /* \"#utility.yul\":17927:17928   */\n      0x00\n        /* \"#utility.yul\":17916:17925   */\n      dup4\n        /* \"#utility.yul\":17912:17929   */\n      add\n        /* \"#utility.yul\":17905:17952   */\n      mstore\n        /* \"#utility.yul\":17969:18100   */\n      tag_540\n        /* \"#utility.yul\":18095:18099   */\n      dup2\n        /* \"#utility.yul\":17969:18100   */\n      tag_311\n      jump\t// in\n    tag_540:\n        /* \"#utility.yul\":17961:18100   */\n      swap1\n      pop\n        /* \"#utility.yul\":17688:18107   */\n      swap2\n      swap1\n      pop\n      jump\t// out\n        /* \"#utility.yul\":18113:18290   */\n    tag_312:\n        /* \"#utility.yul\":18253:18282   */\n      0x436f6e73656e7420697320616c7265616479206772616e7465642e0000000000\n        /* \"#utility.yul\":18249:18250   */\n      0x00\n        /* \"#utility.yul\":18241:18247   */\n      dup3\n        /* \"#utility.yul\":18237:18251   */\n      add\n        /* \"#utility.yul\":18230:18283   */\n      mstore\n        /* \"#utility.yul\":18113:18290   */\n      pop\n      jump\t// out\n        /* \"#utility.yul\":18296:18662   */\n    tag_313:\n        /* \"#utility.yul\":18438:18441   */\n      0x00\n        /* \"#utility.yul\":18459:18526   */\n      tag_543\n        /* \"#utility.yul\":18523:18525   */\n      0x1b\n        /* \"#utility.yul\":18518:18521   */\n      dup4\n        /* \"#utility.yul\":18459:18526   */\n      tag_287\n      jump\t// in\n    tag_543:\n        /* \"#utility.yul\":18452:18526   */\n      swap2\n      pop\n        /* \"#utility.yul\":18535:18628   */\n      tag_544\n        /* \"#utility.yul\":18624:18627   */\n      dup3\n        /* \"#utility.yul\":18535:18628   */\n      tag_312\n      jump\t// in\n    tag_544:\n        /* \"#utility.yul\":18653:18655   */\n      0x20\n        /* \"#utility.yul\":18648:18651   */\n      dup3\n        /* \"#utility.yul\":18644:18656   */\n      add\n        /* \"#utility.yul\":18637:18656   */\n      swap1\n      pop\n        /* \"#utility.yul\":18296:18662   */\n      swap2\n      swap1\n      pop\n      jump\t// out\n        /* \"#utility.yul\":18668:19087   */\n    tag_104:\n        /* \"#utility.yul\":18834:18838   */\n      0x00\n        /* \"#utility.yul\":18872:18874   */\n      0x20\n        /* \"#utility.yul\":18861:18870   */\n      dup3\n        /* \"#utility.yul\":18857:18875   */\n      add\n        /* \"#utility.yul\":18849:18875   */\n      swap1\n      pop\n        /* \"#utility.yul\":18921:18930   */\n      dup2\n        /* \"#utility.yul\":18915:18919   */\n      dup2\n        /* \"#utility.yul\":18911:18931   */\n      sub\n        /* \"#utility.yul\":18907:18908   */\n      0x00\n        /* \"#utility.yul\":18896:18905   */\n      dup4\n        /* \"#utility.yul\":18892:18909   */\n      add\n        /* \"#utility.yul\":18885:18932   */\n      mstore\n        /* \"#utility.yul\":18949:19080   */\n      tag_546\n        /* \"#utility.yul\":19075:19079   */\n      dup2\n        /* \"#utility.yul\":18949:19080   */\n      tag_313\n      jump\t// in\n    tag_546:\n        /* \"#utility.yul\":18941:19080   */\n      swap1\n      pop\n        /* \"#utility.yul\":18668:19087   */\n      swap2\n      swap1\n      pop\n      jump\t// out\n        /* \"#utility.yul\":19093:19315   */\n    tag_314:\n        /* \"#utility.yul\":19233:19267   */\n      0x436f6e73656e74207265717565737420697320616c72656164792070656e6469\n        /* \"#utility.yul\":19229:19230   */\n      0x00\n        /* \"#utility.yul\":19221:19227   */\n      dup3\n        /* \"#utility.yul\":19217:19231   */\n      add\n        /* \"#utility.yul\":19210:19268   */\n      mstore\n        /* \"#utility.yul\":19302:19307   */\n      0x6e672e0000000000000000000000000000000000000000000000000000000000\n        /* \"#utility.yul\":19297:19299   */\n      0x20\n        /* \"#utility.yul\":19289:19295   */\n      dup3\n        /* \"#utility.yul\":19285:19300   */\n      add\n        /* \"#utility.yul\":19278:19308   */\n      mstore\n        /* \"#utility.yul\":19093:19315   */\n      pop\n      jump\t// out\n        /* \"#utility.yul\":19321:19687   */\n    tag_315:\n        /* \"#utility.yul\":19463:19466   */\n      0x00\n        /* \"#utility.yul\":19484:19551   */\n      tag_549\n        /* \"#utility.yul\":19548:19550   */\n      0x23\n        /* \"#utility.yul\":19543:19546   */\n      dup4\n        /* \"#utility.yul\":19484:19551   */\n      tag_287\n      jump\t// in\n    tag_549:\n        /* \"#utility.yul\":19477:19551   */\n      swap2\n      pop\n        /* \"#utility.yul\":19560:19653   */\n      tag_550\n        /* \"#utility.yul\":19649:19652   */\n      dup3\n        /* \"#utility.yul\":19560:19653   */\n      tag_314\n      jump\t// in\n    tag_550:\n        /* \"#utility.yul\":19678:19680   */\n      0x40\n        /* \"#utility.yul\":19673:19676   */\n      dup3\n        /* \"#utility.yul\":19669:19681   */\n      add\n        /* \"#utility.yul\":19662:19681   */\n      swap1\n      pop\n        /* \"#utility.yul\":19321:19687   */\n      swap2\n      swap1\n      pop\n      jump\t// out\n        /* \"#utility.yul\":19693:20112   */\n    tag_107:\n        /* \"#utility.yul\":19859:19863   */\n      0x00\n        /* \"#utility.yul\":19897:19899   */\n      0x20\n        /* \"#utility.yul\":19886:19895   */\n      dup3\n        /* \"#utility.yul\":19882:19900   */\n      add\n        /* \"#utility.yul\":19874:19900   */\n      swap1\n      pop\n        /* \"#utility.yul\":19946:19955   */\n      dup2\n        /* \"#utility.yul\":19940:19944   */\n      dup2\n        /* \"#utility.yul\":19936:19956   */\n      sub\n        /* \"#utility.yul\":19932:19933   */\n      0x00\n        /* \"#utility.yul\":19921:19930   */\n      dup4\n        /* \"#utility.yul\":19917:19934   */\n      add\n        /* \"#utility.yul\":19910:19957   */\n      mstore\n        /* \"#utility.yul\":19974:20105   */\n      tag_552\n        /* \"#utility.yul\":20100:20104   */\n      dup2\n        /* \"#utility.yul\":19974:20105   */\n      tag_315\n      jump\t// in\n    tag_552:\n        /* \"#utility.yul\":19966:20105   */\n      swap1\n      pop\n        /* \"#utility.yul\":19693:20112   */\n      swap2\n      swap1\n      pop\n      jump\t// out\n        /* \"#utility.yul\":20118:20298   */\n    tag_316:\n        /* \"#utility.yul\":20166:20243   */\n      0x4e487b7100000000000000000000000000000000000000000000000000000000\n        /* \"#utility.yul\":20163:20164   */\n      0x00\n        /* \"#utility.yul\":20156:20244   */\n      mstore\n        /* \"#utility.yul\":20263:20267   */\n      0x22\n        /* \"#utility.yul\":20260:20261   */\n      0x04\n        /* \"#utility.yul\":20253:20268   */\n      mstore\n        /* \"#utility.yul\":20287:20291   */\n      0x24\n        /* \"#utility.yul\":20284:20285   */\n      0x00\n        /* \"#utility.yul\":20277:20292   */\n      revert\n        /* \"#utility.yul\":20304:20624   */\n    tag_109:\n        /* \"#utility.yul\":20348:20354   */\n      0x00\n        /* \"#utility.yul\":20385:20386   */\n      0x02\n        /* \"#utility.yul\":20379:20383   */\n      dup3\n        /* \"#utility.yul\":20375:20387   */\n      div\n        /* \"#utility.yul\":20365:20387   */\n      swap1\n      pop\n        /* \"#utility.yul\":20432:20433   */\n      0x01\n        /* \"#utility.yul\":20426:20430   */\n      dup3\n        /* \"#utility.yul\":20422:20434   */\n      and\n        /* \"#utility.yul\":20453:20471   */\n      dup1\n        /* \"#utility.yul\":20443:20524   */\n      tag_555\n      jumpi\n        /* \"#utility.yul\":20509:20513   */\n      0x7f\n        /* \"#utility.yul\":20501:20507   */\n      dup3\n        /* \"#utility.yul\":20497:20514   */\n      and\n        /* \"#utility.yul\":20487:20514   */\n      swap2\n      pop\n        /* \"#utility.yul\":20443:20524   */\n    tag_555:\n        /* \"#utility.yul\":20571:20573   */\n      0x20\n        /* \"#utility.yul\":20563:20569   */\n      dup3\n        /* \"#utility.yul\":20560:20574   */\n      lt\n        /* \"#utility.yul\":20540:20558   */\n      dup2\n        /* \"#utility.yul\":20537:20575   */\n      sub\n        /* \"#utility.yul\":20534:20618   */\n      tag_556\n      jumpi\n        /* \"#utility.yul\":20590:20608   */\n      tag_557\n      tag_316\n      jump\t// in\n    tag_557:\n        /* \"#utility.yul\":20534:20618   */\n    tag_556:\n        /* \"#utility.yul\":20355:20624   */\n      pop\n        /* \"#utility.yul\":20304:20624   */\n      swap2\n      swap1\n      pop\n      jump\t// out\n        /* \"#utility.yul\":20630:20851   */\n    tag_317:\n        /* \"#utility.yul\":20770:20804   */\n      0x4f6e6c79206f776e65722063616e20706572666f726d20746869732061637469\n        /* \"#utility.yul\":20766:20767   */\n      0x00\n        /* \"#utility.yul\":20758:20764   */\n      dup3\n        /* \"#utility.yul\":20754:20768   */\n      add\n        /* \"#utility.yul\":20747:20805   */\n      mstore\n        /* \"#utility.yul\":20839:20843   */\n      0x6f6e000000000000000000000000000000000000000000000000000000000000\n        /* \"#utility.yul\":20834:20836   */\n      0x20\n        /* \"#utility.yul\":20826:20832   */\n      dup3\n        /* \"#utility.yul\":20822:20837   */\n      add\n        /* \"#utility.yul\":20815:20844   */\n      mstore\n        /* \"#utility.yul\":20630:20851   */\n      pop\n      jump\t// out\n        /* \"#utility.yul\":20857:21223   */\n    tag_318:\n        /* \"#utility.yul\":20999:21002   */\n      0x00\n        /* \"#utility.yul\":21020:21087   */\n      tag_560\n        /* \"#utility.yul\":21084:21086   */\n      0x22\n        /* \"#utility.yul\":21079:21082   */\n      dup4\n        /* \"#utility.yul\":21020:21087   */\n      tag_287\n      jump\t// in\n    tag_560:\n        /* \"#utility.yul\":21013:21087   */\n      swap2\n      pop\n        /* \"#utility.yul\":21096:21189   */\n      tag_561\n        /* \"#utility.yul\":21185:21188   */\n      dup3\n        /* \"#utility.yul\":21096:21189   */\n      tag_317\n      jump\t// in\n    tag_561:\n        /* \"#utility.yul\":21214:21216   */\n      0x40\n        /* \"#utility.yul\":21209:21212   */\n      dup3\n        /* \"#utility.yul\":21205:21217   */\n      add\n        /* \"#utility.yul\":21198:21217   */\n      swap1\n      pop\n        /* \"#utility.yul\":20857:21223   */\n      swap2\n      swap1\n      pop\n      jump\t// out\n        /* \"#utility.yul\":21229:21648   */\n    tag_132:\n        /* \"#utility.yul\":21395:21399   */\n      0x00\n        /* \"#utility.yul\":21433:21435   */\n      0x20\n        /* \"#utility.yul\":21422:21431   */\n      dup3\n        /* \"#utility.yul\":21418:21436   */\n      add\n        /* \"#utility.yul\":21410:21436   */\n      swap1\n      pop\n        /* \"#utility.yul\":21482:21491   */\n      dup2\n        /* \"#utility.yul\":21476:21480   */\n      dup2\n        /* \"#utility.yul\":21472:21492   */\n      sub\n        /* \"#utility.yul\":21468:21469   */\n      0x00\n        /* \"#utility.yul\":21457:21466   */\n      dup4\n        /* \"#utility.yul\":21453:21470   */\n      add\n        /* \"#utility.yul\":21446:21493   */\n      mstore\n        /* \"#utility.yul\":21510:21641   */\n      tag_563\n        /* \"#utility.yul\":21636:21640   */\n      dup2\n        /* \"#utility.yul\":21510:21641   */\n      tag_318\n      jump\t// in\n    tag_563:\n        /* \"#utility.yul\":21502:21641   */\n      swap1\n      pop\n        /* \"#utility.yul\":21229:21648   */\n      swap2\n      swap1\n      pop\n      jump\t// out\n        /* \"#utility.yul\":21654:21832   */\n    tag_319:\n        /* \"#utility.yul\":21794:21824   */\n      0x446f63746f7220697320616c7265616479207265676973746572656400000000\n        /* \"#utility.yul\":21790:21791   */\n      0x00\n        /* \"#utility.yul\":21782:21788   */\n      dup3\n        /* \"#utility.yul\":21778:21792   */\n      add\n        /* \"#utility.yul\":21771:21825   */\n      mstore\n        /* \"#utility.yul\":21654:21832   */\n      pop\n      jump\t// out\n        /* \"#utility.yul\":21838:22204   */\n    tag_320:\n        /* \"#utility.yul\":21980:21983   */\n      0x00\n        /* \"#utility.yul\":22001:22068   */\n      tag_566\n        /* \"#utility.yul\":22065:22067   */\n      0x1c\n        /* \"#utility.yul\":22060:22063   */\n      dup4\n        /* \"#utility.yul\":22001:22068   */\n      tag_287\n      jump\t// in\n    tag_566:\n        /* \"#utility.yul\":21994:22068   */\n      swap2\n      pop\n        /* \"#utility.yul\":22077:22170   */\n      tag_567\n        /* \"#utility.yul\":22166:22169   */\n      dup3\n        /* \"#utility.yul\":22077:22170   */\n      tag_319\n      jump\t// in\n    tag_567:\n        /* \"#utility.yul\":22195:22197   */\n      0x20\n        /* \"#utility.yul\":22190:22193   */\n      dup3\n        /* \"#utility.yul\":22186:22198   */\n      add\n        /* \"#utility.yul\":22179:22198   */\n      swap1\n      pop\n        /* \"#utility.yul\":21838:22204   */\n      swap2\n      swap1\n      pop\n      jump\t// out\n        /* \"#utility.yul\":22210:22629   */\n    tag_136:\n        /* \"#utility.yul\":22376:22380   */\n      0x00\n        /* \"#utility.yul\":22414:22416   */\n      0x20\n        /* \"#utility.yul\":22403:22412   */\n      dup3\n        /* \"#utility.yul\":22399:22417   */\n      add\n        /* \"#utility.yul\":22391:22417   */\n      swap1\n      pop\n        /* \"#utility.yul\":22463:22472   */\n      dup2\n        /* \"#utility.yul\":22457:22461   */\n      dup2\n        /* \"#utility.yul\":22453:22473   */\n      sub\n        /* \"#utility.yul\":22449:22450   */\n      0x00\n        /* \"#utility.yul\":22438:22447   */\n      dup4\n        /* \"#utility.yul\":22434:22451   */\n      add\n        /* \"#utility.yul\":22427:22474   */\n      mstore\n        /* \"#utility.yul\":22491:22622   */\n      tag_569\n        /* \"#utility.yul\":22617:22621   */\n      dup2\n        /* \"#utility.yul\":22491:22622   */\n      tag_320\n      jump\t// in\n    tag_569:\n        /* \"#utility.yul\":22483:22622   */\n      swap1\n      pop\n        /* \"#utility.yul\":22210:22629   */\n      swap2\n      swap1\n      pop\n      jump\t// out\n        /* \"#utility.yul\":22635:22864   */\n    tag_321:\n        /* \"#utility.yul\":22775:22809   */\n      0x4164647265737320697320616c72656164792072656769737465726564206173\n        /* \"#utility.yul\":22771:22772   */\n      0x00\n        /* \"#utility.yul\":22763:22769   */\n      dup3\n        /* \"#utility.yul\":22759:22773   */\n      add\n        /* \"#utility.yul\":22752:22810   */\n      mstore\n        /* \"#utility.yul\":22844:22856   */\n      0x20612070617469656e7400000000000000000000000000000000000000000000\n        /* \"#utility.yul\":22839:22841   */\n      0x20\n        /* \"#utility.yul\":22831:22837   */\n      dup3\n        /* \"#utility.yul\":22827:22842   */\n      add\n        /* \"#utility.yul\":22820:22857   */\n      mstore\n        /* \"#utility.yul\":22635:22864   */\n      pop\n      jump\t// out\n        /* \"#utility.yul\":22870:23236   */\n    tag_322:\n        /* \"#utility.yul\":23012:23015   */\n      0x00\n        /* \"#utility.yul\":23033:23100   */\n      tag_572\n        /* \"#utility.yul\":23097:23099   */\n      0x2a\n        /* \"#utility.yul\":23092:23095   */\n      dup4\n        /* \"#utility.yul\":23033:23100   */\n      tag_287\n      jump\t// in\n    tag_572:\n        /* \"#utility.yul\":23026:23100   */\n      swap2\n      pop\n        /* \"#utility.yul\":23109:23202   */\n      tag_573\n        /* \"#utility.yul\":23198:23201   */\n      dup3\n        /* \"#utility.yul\":23109:23202   */\n      tag_321\n      jump\t// in\n    tag_573:\n        /* \"#utility.yul\":23227:23229   */\n      0x40\n        /* \"#utility.yul\":23222:23225   */\n      dup3\n        /* \"#utility.yul\":23218:23230   */\n      add\n        /* \"#utility.yul\":23211:23230   */\n      swap1\n      pop\n        /* \"#utility.yul\":22870:23236   */\n      swap2\n      swap1\n      pop\n      jump\t// out\n        /* \"#utility.yul\":23242:23661   */\n    tag_139:\n        /* \"#utility.yul\":23408:23412   */\n      0x00\n        /* \"#utility.yul\":23446:23448   */\n      0x20\n        /* \"#utility.yul\":23435:23444   */\n      dup3\n        /* \"#utility.yul\":23431:23449   */\n      add\n        /* \"#utility.yul\":23423:23449   */\n      swap1\n      pop\n        /* \"#utility.yul\":23495:23504   */\n      dup2\n        /* \"#utility.yul\":23489:23493   */\n      dup2\n        /* \"#utility.yul\":23485:23505   */\n      sub\n        /* \"#utility.yul\":23481:23482   */\n      0x00\n        /* \"#utility.yul\":23470:23479   */\n      dup4\n        /* \"#utility.yul\":23466:23483   */\n      add\n        /* \"#utility.yul\":23459:23506   */\n      mstore\n        /* \"#utility.yul\":23523:23654   */\n      tag_575\n        /* \"#utility.yul\":23649:23653   */\n      dup2\n        /* \"#utility.yul\":23523:23654   */\n      tag_322\n      jump\t// in\n    tag_575:\n        /* \"#utility.yul\":23515:23654   */\n      swap1\n      pop\n        /* \"#utility.yul\":23242:23661   */\n      swap2\n      swap1\n      pop\n      jump\t// out\n        /* \"#utility.yul\":23667:23808   */\n    tag_323:\n        /* \"#utility.yul\":23716:23720   */\n      0x00\n        /* \"#utility.yul\":23739:23742   */\n      dup2\n        /* \"#utility.yul\":23731:23742   */\n      swap1\n      pop\n        /* \"#utility.yul\":23762:23765   */\n      dup2\n        /* \"#utility.yul\":23759:23760   */\n      0x00\n        /* \"#utility.yul\":23752:23766   */\n      mstore\n        /* \"#utility.yul\":23796:23800   */\n      0x20\n        /* \"#utility.yul\":23793:23794   */\n      0x00\n        /* \"#utility.yul\":23783:23801   */\n      keccak256\n        /* \"#utility.yul\":23775:23801   */\n      swap1\n      pop\n        /* \"#utility.yul\":23667:23808   */\n      swap2\n      swap1\n      pop\n      jump\t// out\n        /* \"#utility.yul\":23814:23907   */\n    tag_324:\n        /* \"#utility.yul\":23851:23857   */\n      0x00\n        /* \"#utility.yul\":23898:23900   */\n      0x20\n        /* \"#utility.yul\":23893:23895   */\n      0x1f\n        /* \"#utility.yul\":23886:23891   */\n      dup4\n        /* \"#utility.yul\":23882:23896   */\n      add\n        /* \"#utility.yul\":23878:23901   */\n      div\n        /* \"#utility.yul\":23868:23901   */\n      swap1\n      pop\n        /* \"#utility.yul\":23814:23907   */\n      swap2\n      swap1\n      pop\n      jump\t// out\n        /* \"#utility.yul\":23913:24020   */\n    tag_325:\n        /* \"#utility.yul\":23957:23965   */\n      0x00\n        /* \"#utility.yul\":24007:24012   */\n      dup3\n        /* \"#utility.yul\":24001:24005   */\n      dup3\n        /* \"#utility.yul\":23997:24013   */\n      shl\n        /* \"#utility.yul\":23976:24013   */\n      swap1\n      pop\n        /* \"#utility.yul\":23913:24020   */\n      swap3\n      swap2\n      pop\n      pop\n      jump\t// out\n        /* \"#utility.yul\":24026:24419   */\n    tag_326:\n        /* \"#utility.yul\":24095:24101   */\n      0x00\n        /* \"#utility.yul\":24145:24146   */\n      0x08\n        /* \"#utility.yul\":24133:24143   */\n      dup4\n        /* \"#utility.yul\":24129:24147   */\n      mul\n        /* \"#utility.yul\":24168:24265   */\n      tag_580\n        /* \"#utility.yul\":24198:24264   */\n      0xffffffffffffffffffffffffffffffffffffffffffffffffffffffffffffffff\n        /* \"#utility.yul\":24187:24196   */\n      dup3\n        /* \"#utility.yul\":24168:24265   */\n      tag_325\n      jump\t// in\n    tag_580:\n        /* \"#utility.yul\":24286:24325   */\n      tag_581\n        /* \"#utility.yul\":24316:24324   */\n      dup7\n        /* \"#utility.yul\":24305:24314   */\n      dup4\n        /* \"#utility.yul\":24286:24325   */\n      tag_325\n      jump\t// in\n    tag_581:\n        /* \"#utility.yul\":24274:24325   */\n      swap6\n      pop\n        /* \"#utility.yul\":24358:24362   */\n      dup1\n        /* \"#utility.yul\":24354:24363   */\n      not\n        /* \"#utility.yul\":24347:24352   */\n      dup5\n        /* \"#utility.yul\":24343:24364   */\n      and\n        /* \"#utility.yul\":24334:24364   */\n      swap4\n      pop\n        /* \"#utility.yul\":24407:24411   */\n      dup1\n        /* \"#utility.yul\":24397:24405   */\n      dup7\n        /* \"#utility.yul\":24393:24412   */\n      and\n        /* \"#utility.yul\":24386:24391   */\n      dup5\n        /* \"#utility.yul\":24383:24413   */\n      or\n        /* \"#utility.yul\":24373:24413   */\n      swap3\n      pop\n        /* \"#utility.yul\":24102:24419   */\n      pop\n      pop\n        /* \"#utility.yul\":24026:24419   */\n      swap4\n      swap3\n      pop\n      pop\n      pop\n      jump\t// out\n        /* \"#utility.yul\":24425:24502   */\n    tag_327:\n        /* \"#utility.yul\":24462:24469   */\n      0x00\n        /* \"#utility.yul\":24491:24496   */\n      dup2\n        /* \"#utility.yul\":24480:24496   */\n      swap1\n      pop\n        /* \"#utility.yul\":24425:24502   */\n      swap2\n      swap1\n      pop\n      jump\t// out\n        /* \"#utility.yul\":24508:24568   */\n    tag_328:\n        /* \"#utility.yul\":24536:24539   */\n      0x00\n        /* \"#utility.yul\":24557:24562   */\n      dup2\n        /* \"#utility.yul\":24550:24562   */\n      swap1\n      pop\n        /* \"#utility.yul\":24508:24568   */\n      swap2\n      swap1\n      pop\n      jump\t// out\n        /* \"#utility.yul\":24574:24716   */\n    tag_329:\n        /* \"#utility.yul\":24624:24633   */\n      0x00\n        /* \"#utility.yul\":24657:24710   */\n      tag_585\n        /* \"#utility.yul\":24675:24709   */\n      tag_586\n        /* \"#utility.yul\":24684:24708   */\n      tag_587\n        /* \"#utility.yul\":24702:24707   */\n      dup5\n        /* \"#utility.yul\":24684:24708   */\n      tag_327\n      jump\t// in\n    tag_587:\n        /* \"#utility.yul\":24675:24709   */\n      tag_328\n      jump\t// in\n    tag_586:\n        /* \"#utility.yul\":24657:24710   */\n      tag_327\n      jump\t// in\n    tag_585:\n        /* \"#utility.yul\":24644:24710   */\n      swap1\n      pop\n        /* \"#utility.yul\":24574:24716   */\n      swap2\n      swap1\n      pop\n      jump\t// out\n        /* \"#utility.yul\":24722:24797   */\n    tag_330:\n        /* \"#utility.yul\":24765:24768   */\n      0x00\n        /* \"#utility.yul\":24786:24791   */\n      dup2\n        /* \"#utility.yul\":24779:24791   */\n      swap1\n      pop\n        /* \"#utility.yul\":24722:24797   */\n      swap2\n      swap1\n      pop\n      jump\t// out\n        /* \"#utility.yul\":24803:25072   */\n    tag_331:\n        /* \"#utility.yul\":24913:24952   */\n      tag_590\n        /* \"#utility.yul\":24944:24951   */\n      dup4\n        /* \"#utility.yul\":24913:24952   */\n      tag_329\n      jump\t// in\n    tag_590:\n        /* \"#utility.yul\":24974:25065   */\n      tag_591\n        /* \"#utility.yul\":25023:25064   */\n      tag_592\n        /* \"#utility.yul\":25047:25063   */\n      dup3\n        /* \"#utility.yul\":25023:25064   */\n      tag_330\n      jump\t// in\n    tag_592:\n        /* \"#utility.yul\":25015:25021   */\n      dup5\n        /* \"#utility.yul\":25008:25012   */\n      dup5\n        /* \"#utility.yul\":25002:25013   */\n      sload\n        /* \"#utility.yul\":24974:25065   */\n      tag_326\n      jump\t// in\n    tag_591:\n        /* \"#utility.yul\":24968:24972   */\n      dup3\n        /* \"#utility.yul\":24961:25066   */\n      sstore\n        /* \"#utility.yul\":24879:25072   */\n      pop\n        /* \"#utility.yul\":24803:25072   */\n      pop\n      pop\n      pop\n      jump\t// out\n        /* \"#utility.yul\":25078:25151   */\n    tag_332:\n        /* \"#utility.yul\":25123:25126   */\n      0x00\n        /* \"#utility.yul\":25078:25151   */\n      swap1\n      jump\t// out\n        /* \"#utility.yul\":25157:25346   */\n    tag_333:\n        /* \"#utility.yul\":25234:25266   */\n      tag_595\n      tag_332\n      jump\t// in\n    tag_595:\n        /* \"#utility.yul\":25275:25340   */\n      tag_596\n        /* \"#utility.yul\":25333:25339   */\n      dup2\n        /* \"#utility.yul\":25325:25331   */\n      dup5\n        /* \"#utility.yul\":25319:25323   */\n      dup5\n        /* \"#utility.yul\":25275:25340   */\n      tag_331\n      jump\t// in\n    tag_596:\n        /* \"#utility.yul\":25210:25346   */\n      pop\n        /* \"#utility.yul\":25157:25346   */\n      pop\n      pop\n      jump\t// out\n        /* \"#utility.yul\":25352:25538   */\n    tag_334:\n        /* \"#utility.yul\":25412:25532   */\n    tag_598:\n        /* \"#utility.yul\":25429:25432   */\n      dup2\n        /* \"#utility.yul\":25422:25427   */\n      dup2\n        /* \"#utility.yul\":25419:25433   */\n      lt\n        /* \"#utility.yul\":25412:25532   */\n      iszero\n      tag_600\n      jumpi\n        /* \"#utility.yul\":25483:25522   */\n      tag_601\n        /* \"#utility.yul\":25520:25521   */\n      0x00\n        /* \"#utility.yul\":25513:25518   */\n      dup3\n        /* \"#utility.yul\":25483:25522   */\n      tag_333\n      jump\t// in\n    tag_601:\n        /* \"#utility.yul\":25456:25457   */\n      0x01\n        /* \"#utility.yul\":25449:25454   */\n      dup2\n        /* \"#utility.yul\":25445:25458   */\n      add\n        /* \"#utility.yul\":25436:25458   */\n      swap1\n      pop\n        /* \"#utility.yul\":25412:25532   */\n      jump(tag_598)\n    tag_600:\n        /* \"#utility.yul\":25352:25538   */\n      pop\n      pop\n      jump\t// out\n        /* \"#utility.yul\":25544:26087   */\n    tag_335:\n        /* \"#utility.yul\":25645:25647   */\n      0x1f\n        /* \"#utility.yul\":25640:25643   */\n      dup3\n        /* \"#utility.yul\":25637:25648   */\n      gt\n        /* \"#utility.yul\":25634:26080   */\n      iszero\n      tag_603\n      jumpi\n        /* \"#utility.yul\":25679:25717   */\n      tag_604\n        /* \"#utility.yul\":25711:25716   */\n      dup2\n        /* \"#utility.yul\":25679:25717   */\n      tag_323\n      jump\t// in\n    tag_604:\n        /* \"#utility.yul\":25763:25792   */\n      tag_605\n        /* \"#utility.yul\":25781:25791   */\n      dup5\n        /* \"#utility.yul\":25763:25792   */\n      tag_324\n      jump\t// in\n    tag_605:\n        /* \"#utility.yul\":25753:25761   */\n      dup2\n        /* \"#utility.yul\":25749:25793   */\n      add\n        /* \"#utility.yul\":25946:25948   */\n      0x20\n        /* \"#utility.yul\":25934:25944   */\n      dup6\n        /* \"#utility.yul\":25931:25949   */\n      lt\n        /* \"#utility.yul\":25928:25977   */\n      iszero\n      tag_606\n      jumpi\n        /* \"#utility.yul\":25967:25975   */\n      dup2\n        /* \"#utility.yul\":25952:25975   */\n      swap1\n      pop\n        /* \"#utility.yul\":25928:25977   */\n    tag_606:\n        /* \"#utility.yul\":25990:26070   */\n      tag_607\n        /* \"#utility.yul\":26046:26068   */\n      tag_608\n        /* \"#utility.yul\":26064:26067   */\n      dup6\n        /* \"#utility.yul\":26046:26068   */\n      tag_324\n      jump\t// in\n    tag_608:\n        /* \"#utility.yul\":26036:26044   */\n      dup4\n        /* \"#utility.yul\":26032:26069   */\n      add\n        /* \"#utility.yul\":26019:26030   */\n      dup3\n        /* \"#utility.yul\":25990:26070   */\n      tag_334\n      jump\t// in\n    tag_607:\n        /* \"#utility.yul\":25649:26080   */\n      pop\n      pop\n        /* \"#utility.yul\":25634:26080   */\n    tag_603:\n        /* \"#utility.yul\":25544:26087   */\n      pop\n      pop\n      pop\n      jump\t// out\n        /* \"#utility.yul\":26093:26210   */\n    tag_336:\n        /* \"#utility.yul\":26147:26155   */\n      0x00\n        /* \"#utility.yul\":26197:26202   */\n      dup3\n        /* \"#utility.yul\":26191:26195   */\n      dup3\n        /* \"#utility.yul\":26187:26203   */\n      shr\n        /* \"#utility.yul\":26166:26203   */\n      swap1\n      pop\n        /* \"#utility.yul\":26093:26210   */\n      swap3\n      swap2\n      pop\n      pop\n      jump\t// out\n        /* \"#utility.yul\":26216:26385   */\n    tag_337:\n        /* \"#utility.yul\":26260:26266   */\n      0x00\n        /* \"#utility.yul\":26293:26344   */\n      tag_611\n        /* \"#utility.yul\":26341:26342   */\n      0x00\n        /* \"#utility.yul\":26337:26343   */\n      not\n        /* \"#utility.yul\":26329:26334   */\n      dup5\n        /* \"#utility.yul\":26326:26327   */\n      0x08\n        /* \"#utility.yul\":26322:26335   */\n      mul\n        /* \"#utility.yul\":26293:26344   */\n      tag_336\n      jump\t// in\n    tag_611:\n        /* \"#utility.yul\":26289:26345   */\n      not\n        /* \"#utility.yul\":26374:26378   */\n      dup1\n        /* \"#utility.yul\":26368:26372   */\n      dup4\n        /* \"#utility.yul\":26364:26379   */\n      and\n        /* \"#utility.yul\":26354:26379   */\n      swap2\n      pop\n        /* \"#utility.yul\":26267:26385   */\n      pop\n        /* \"#utility.yul\":26216:26385   */\n      swap3\n      swap2\n      pop\n      pop\n      jump\t// out\n        /* \"#utility.yul\":26390:26685   */\n    tag_338:\n        /* \"#utility.yul\":26466:26470   */\n      0x00\n        /* \"#utility.yul\":26612:26641   */\n      tag_613\n        /* \"#utility.yul\":26637:26640   */\n      dup4\n        /* \"#utility.yul\":26631:26635   */\n      dup4\n        /* \"#utility.yul\":26612:26641   */\n      tag_337\n      jump\t// in\n    tag_613:\n        /* \"#utility.yul\":26604:26641   */\n      swap2\n      pop\n        /* \"#utility.yul\":26674:26677   */\n      dup3\n        /* \"#utility.yul\":26671:26672   */\n      0x02\n        /* \"#utility.yul\":26667:26678   */\n      mul\n        /* \"#utility.yul\":26661:26665   */\n      dup3\n        /* \"#utility.yul\":26658:26679   */\n      or\n        /* \"#utility.yul\":26650:26679   */\n      swap1\n      pop\n        /* \"#utility.yul\":26390:26685   */\n      swap3\n      swap2\n      pop\n      pop\n      jump\t// out\n        /* \"#utility.yul\":26690:28085   */\n    tag_141:\n        /* \"#utility.yul\":26807:26844   */\n      tag_615\n        /* \"#utility.yul\":26840:26843   */\n      dup3\n        /* \"#utility.yul\":26807:26844   */\n      tag_286\n      jump\t// in\n    tag_615:\n        /* \"#utility.yul\":26909:26927   */\n      0xffffffffffffffff\n        /* \"#utility.yul\":26901:26907   */\n      dup2\n        /* \"#utility.yul\":26898:26928   */\n      gt\n        /* \"#utility.yul\":26895:26951   */\n      iszero\n      tag_616\n      jumpi\n        /* \"#utility.yul\":26931:26949   */\n      tag_617\n      tag_293\n      jump\t// in\n    tag_617:\n        /* \"#utility.yul\":26895:26951   */\n    tag_616:\n        /* \"#utility.yul\":26975:27013   */\n      tag_618\n        /* \"#utility.yul\":27007:27011   */\n      dup3\n        /* \"#utility.yul\":27001:27012   */\n      sload\n        /* \"#utility.yul\":26975:27013   */\n      tag_109\n      jump\t// in\n    tag_618:\n        /* \"#utility.yul\":27060:27127   */\n      tag_619\n        /* \"#utility.yul\":27120:27126   */\n      dup3\n        /* \"#utility.yul\":27112:27118   */\n      dup3\n        /* \"#utility.yul\":27106:27110   */\n      dup6\n        /* \"#utility.yul\":27060:27127   */\n      tag_335\n      jump\t// in\n    tag_619:\n        /* \"#utility.yul\":27154:27155   */\n      0x00\n        /* \"#utility.yul\":27178:27182   */\n      0x20\n        /* \"#utility.yul\":27165:27182   */\n      swap1\n      pop\n        /* \"#utility.yul\":27210:27212   */\n      0x1f\n        /* \"#utility.yul\":27202:27208   */\n      dup4\n        /* \"#utility.yul\":27199:27213   */\n      gt\n        /* \"#utility.yul\":27227:27228   */\n      0x01\n        /* \"#utility.yul\":27222:27840   */\n      dup2\n      eq\n      tag_621\n      jumpi\n        /* \"#utility.yul\":27884:27885   */\n      0x00\n        /* \"#utility.yul\":27901:27907   */\n      dup5\n        /* \"#utility.yul\":27898:27975   */\n      iszero\n      tag_622\n      jumpi\n        /* \"#utility.yul\":27950:27959   */\n      dup3\n        /* \"#utility.yul\":27945:27948   */\n      dup8\n        /* \"#utility.yul\":27941:27960   */\n      add\n        /* \"#utility.yul\":27935:27961   */\n      mload\n        /* \"#utility.yul\":27926:27961   */\n      swap1\n      pop\n        /* \"#utility.yul\":27898:27975   */\n    tag_622:\n        /* \"#utility.yul\":28001:28068   */\n      tag_623\n        /* \"#utility.yul\":28061:28067   */\n      dup6\n        /* \"#utility.yul\":28054:28059   */\n      dup3\n        /* \"#utility.yul\":28001:28068   */\n      tag_338\n      jump\t// in\n    tag_623:\n        /* \"#utility.yul\":27995:27999   */\n      dup7\n        /* \"#utility.yul\":27988:28069   */\n      sstore\n        /* \"#utility.yul\":27857:28079   */\n      pop\n        /* \"#utility.yul\":27192:28079   */\n      jump(tag_620)\n        /* \"#utility.yul\":27222:27840   */\n    tag_621:\n        /* \"#utility.yul\":27274:27278   */\n      0x1f\n        /* \"#utility.yul\":27270:27279   */\n      not\n        /* \"#utility.yul\":27262:27268   */\n      dup5\n        /* \"#utility.yul\":27258:27280   */\n      and\n        /* \"#utility.yul\":27308:27345   */\n      tag_624\n        /* \"#utility.yul\":27340:27344   */\n      dup7\n        /* \"#utility.yul\":27308:27345   */\n      tag_323\n      jump\t// in\n    tag_624:\n        /* \"#utility.yul\":27367:27368   */\n      0x00\n        /* \"#utility.yul\":27381:27589   */\n    tag_625:\n        /* \"#utility.yul\":27395:27402   */\n      dup3\n        /* \"#utility.yul\":27392:27393   */\n      dup2\n        /* \"#utility.yul\":27389:27403   */\n      lt\n        /* \"#utility.yul\":27381:27589   */\n      iszero\n      tag_627\n      jumpi\n        /* \"#utility.yul\":27474:27483   */\n      dup5\n        /* \"#utility.yul\":27469:27472   */\n      dup10\n        /* \"#utility.yul\":27465:27484   */\n      add\n        /* \"#utility.yul\":27459:27485   */\n      mload\n        /* \"#utility.yul\":27451:27457   */\n      dup3\n        /* \"#utility.yul\":27444:27486   */\n      sstore\n        /* \"#utility.yul\":27525:27526   */\n      0x01\n        /* \"#utility.yul\":27517:27523   */\n      dup3\n        /* \"#utility.yul\":27513:27527   */\n      add\n        /* \"#utility.yul\":27503:27527   */\n      swap2\n      pop\n        /* \"#utility.yul\":27572:27574   */\n      0x20\n        /* \"#utility.yul\":27561:27570   */\n      dup6\n        /* \"#utility.yul\":27557:27575   */\n      add\n        /* \"#utility.yul\":27544:27575   */\n      swap5\n      pop\n        /* \"#utility.yul\":27418:27422   */\n      0x20\n        /* \"#utility.yul\":27415:27416   */\n      dup2\n        /* \"#utility.yul\":27411:27423   */\n      add\n        /* \"#utility.yul\":27406:27423   */\n      swap1\n      pop\n        /* \"#utility.yul\":27381:27589   */\n      jump(tag_625)\n    tag_627:\n        /* \"#utility.yul\":27617:27623   */\n      dup7\n        /* \"#utility.yul\":27608:27615   */\n      dup4\n        /* \"#utility.yul\":27605:27624   */\n      lt\n        /* \"#utility.yul\":27602:27781   */\n      iszero\n      tag_628\n      jumpi\n        /* \"#utility.yul\":27675:27684   */\n      dup5\n        /* \"#utility.yul\":27670:27673   */\n      dup10\n        /* \"#utility.yul\":27666:27685   */\n      add\n        /* \"#utility.yul\":27660:27686   */\n      mload\n        /* \"#utility.yul\":27718:27766   */\n      tag_629\n        /* \"#utility.yul\":27760:27764   */\n      0x1f\n        /* \"#utility.yul\":27752:27758   */\n      dup10\n        /* \"#utility.yul\":27748:27765   */\n      and\n        /* \"#utility.yul\":27737:27746   */\n      dup3\n        /* \"#utility.yul\":27718:27766   */\n      tag_337\n      jump\t// in\n    tag_629:\n        /* \"#utility.yul\":27710:27716   */\n      dup4\n        /* \"#utility.yul\":27703:27767   */\n      sstore\n        /* \"#utility.yul\":27625:27781   */\n      pop\n        /* \"#utility.yul\":27602:27781   */\n    tag_628:\n        /* \"#utility.yul\":27827:27828   */\n      0x01\n        /* \"#utility.yul\":27823:27824   */\n      0x02\n        /* \"#utility.yul\":27815:27821   */\n      dup9\n        /* \"#utility.yul\":27811:27825   */\n      mul\n        /* \"#utility.yul\":27807:27829   */\n      add\n        /* \"#utility.yul\":27801:27805   */\n      dup9\n        /* \"#utility.yul\":27794:27830   */\n      sstore\n        /* \"#utility.yul\":27229:27840   */\n      pop\n      pop\n      pop\n        /* \"#utility.yul\":27192:28079   */\n    tag_620:\n      pop\n        /* \"#utility.yul\":26782:28085   */\n      pop\n      pop\n      pop\n        /* \"#utility.yul\":26690:28085   */\n      pop\n      pop\n      jump\t// out\n        /* \"#utility.yul\":28091:28605   */\n    tag_147:\n        /* \"#utility.yul\":28252:28256   */\n      0x00\n        /* \"#utility.yul\":28290:28292   */\n      0x40\n        /* \"#utility.yul\":28279:28288   */\n      dup3\n        /* \"#utility.yul\":28275:28293   */\n      add\n        /* \"#utility.yul\":28267:28293   */\n      swap1\n      pop\n        /* \"#utility.yul\":28339:28348   */\n      dup2\n        /* \"#utility.yul\":28333:28337   */\n      dup2\n        /* \"#utility.yul\":28329:28349   */\n      sub\n        /* \"#utility.yul\":28325:28326   */\n      0x00\n        /* \"#utility.yul\":28314:28323   */\n      dup4\n        /* \"#utility.yul\":28310:28327   */\n      add\n        /* \"#utility.yul\":28303:28350   */\n      mstore\n        /* \"#utility.yul\":28367:28445   */\n      tag_631\n        /* \"#utility.yul\":28440:28444   */\n      dup2\n        /* \"#utility.yul\":28431:28437   */\n      dup6\n        /* \"#utility.yul\":28367:28445   */\n      tag_290\n      jump\t// in\n    tag_631:\n        /* \"#utility.yul\":28359:28445   */\n      swap1\n      pop\n        /* \"#utility.yul\":28492:28501   */\n      dup2\n        /* \"#utility.yul\":28486:28490   */\n      dup2\n        /* \"#utility.yul\":28482:28502   */\n      sub\n        /* \"#utility.yul\":28477:28479   */\n      0x20\n        /* \"#utility.yul\":28466:28475   */\n      dup4\n        /* \"#utility.yul\":28462:28480   */\n      add\n        /* \"#utility.yul\":28455:28503   */\n      mstore\n        /* \"#utility.yul\":28520:28598   */\n      tag_632\n        /* \"#utility.yul\":28593:28597   */\n      dup2\n        /* \"#utility.yul\":28584:28590   */\n      dup5\n        /* \"#utility.yul\":28520:28598   */\n      tag_290\n      jump\t// in\n    tag_632:\n        /* \"#utility.yul\":28512:28598   */\n      swap1\n      pop\n        /* \"#utility.yul\":28091:28605   */\n      swap4\n      swap3\n      pop\n      pop\n      pop\n      jump\t// out\n        /* \"#utility.yul\":28611:28786   */\n    tag_339:\n        /* \"#utility.yul\":28751:28778   */\n      0x4e6f74206120726567697374657265642070617469656e742e00000000000000\n        /* \"#utility.yul\":28747:28748   */\n      0x00\n        /* \"#utility.yul\":28739:28745   */\n      dup3\n        /* \"#utility.yul\":28735:28749   */\n      add\n        /* \"#utility.yul\":28728:28779   */\n      mstore\n        /* \"#utility.yul\":28611:28786   */\n      pop\n      jump\t// out\n        /* \"#utility.yul\":28792:29158   */\n    tag_340:\n        /* \"#utility.yul\":28934:28937   */\n      0x00\n        /* \"#utility.yul\":28955:29022   */\n      tag_635\n        /* \"#utility.yul\":29019:29021   */\n      0x19\n        /* \"#utility.yul\":29014:29017   */\n      dup4\n        /* \"#utility.yul\":28955:29022   */\n      tag_287\n      jump\t// in\n    tag_635:\n        /* \"#utility.yul\":28948:29022   */\n      swap2\n      pop\n        /* \"#utility.yul\":29031:29124   */\n      tag_636\n        /* \"#utility.yul\":29120:29123   */\n      dup3\n        /* \"#utility.yul\":29031:29124   */\n      tag_339\n      jump\t// in\n    tag_636:\n        /* \"#utility.yul\":29149:29151   */\n      0x20\n        /* \"#utility.yul\":29144:29147   */\n      dup3\n        /* \"#utility.yul\":29140:29152   */\n      add\n        /* \"#utility.yul\":29133:29152   */\n      swap1\n      pop\n        /* \"#utility.yul\":28792:29158   */\n      swap2\n      swap1\n      pop\n      jump\t// out\n        /* \"#utility.yul\":29164:29583   */\n    tag_157:\n        /* \"#utility.yul\":29330:29334   */\n      0x00\n        /* \"#utility.yul\":29368:29370   */\n      0x20\n        /* \"#utility.yul\":29357:29366   */\n      dup3\n        /* \"#utility.yul\":29353:29371   */\n      add\n        /* \"#utility.yul\":29345:29371   */\n      swap1\n      pop\n        /* \"#utility.yul\":29417:29426   */\n      dup2\n        /* \"#utility.yul\":29411:29415   */\n      dup2\n        /* \"#utility.yul\":29407:29427   */\n      sub\n        /* \"#utility.yul\":29403:29404   */\n      0x00\n        /* \"#utility.yul\":29392:29401   */\n      dup4\n        /* \"#utility.yul\":29388:29405   */\n      add\n        /* \"#utility.yul\":29381:29428   */\n      mstore\n        /* \"#utility.yul\":29445:29576   */\n      tag_638\n        /* \"#utility.yul\":29571:29575   */\n      dup2\n        /* \"#utility.yul\":29445:29576   */\n      tag_340\n      jump\t// in\n    tag_638:\n        /* \"#utility.yul\":29437:29576   */\n      swap1\n      pop\n        /* \"#utility.yul\":29164:29583   */\n      swap2\n      swap1\n      pop\n      jump\t// out\n        /* \"#utility.yul\":29589:29771   */\n    tag_341:\n        /* \"#utility.yul\":29729:29763   */\n      0x416c7265616479207265676973746572656420617320612070617469656e742e\n        /* \"#utility.yul\":29725:29726   */\n      0x00\n        /* \"#utility.yul\":29717:29723   */\n      dup3\n        /* \"#utility.yul\":29713:29727   */\n      add\n        /* \"#utility.yul\":29706:29764   */\n      mstore\n        /* \"#utility.yul\":29589:29771   */\n      pop\n      jump\t// out\n        /* \"#utility.yul\":29777:30143   */\n    tag_342:\n        /* \"#utility.yul\":29919:29922   */\n      0x00\n        /* \"#utility.yul\":29940:30007   */\n      tag_641\n        /* \"#utility.yul\":30004:30006   */\n      0x20\n        /* \"#utility.yul\":29999:30002   */\n      dup4\n        /* \"#utility.yul\":29940:30007   */\n      tag_287\n      jump\t// in\n    tag_641:\n        /* \"#utility.yul\":29933:30007   */\n      swap2\n      pop\n        /* \"#utility.yul\":30016:30109   */\n      tag_642\n        /* \"#utility.yul\":30105:30108   */\n      dup3\n        /* \"#utility.yul\":30016:30109   */\n      tag_341\n      jump\t// in\n    tag_642:\n        /* \"#utility.yul\":30134:30136   */\n      0x20\n        /* \"#utility.yul\":30129:30132   */\n      dup3\n        /* \"#utility.yul\":30125:30137   */\n      add\n        /* \"#utility.yul\":30118:30137   */\n      swap1\n      pop\n        /* \"#utility.yul\":29777:30143   */\n      swap2\n      swap1\n      pop\n      jump\t// out\n        /* \"#utility.yul\":30149:30568   */\n    tag_181:\n        /* \"#utility.yul\":30315:30319   */\n      0x00\n        /* \"#utility.yul\":30353:30355   */\n      0x20\n        /* \"#utility.yul\":30342:30351   */\n      dup3\n        /* \"#utility.yul\":30338:30356   */\n      add\n        /* \"#utility.yul\":30330:30356   */\n      swap1\n      pop\n        /* \"#utility.yul\":30402:30411   */\n      dup2\n        /* \"#utility.yul\":30396:30400   */\n      dup2\n        /* \"#utility.yul\":30392:30412   */\n      sub\n        /* \"#utility.yul\":30388:30389   */\n      0x00\n        /* \"#utility.yul\":30377:30386   */\n      dup4\n        /* \"#utility.yul\":30373:30390   */\n      add\n        /* \"#utility.yul\":30366:30413   */\n      mstore\n        /* \"#utility.yul\":30430:30561   */\n      tag_644\n        /* \"#utility.yul\":30556:30560   */\n      dup2\n        /* \"#utility.yul\":30430:30561   */\n      tag_342\n      jump\t// in\n    tag_644:\n        /* \"#utility.yul\":30422:30561   */\n      swap1\n      pop\n        /* \"#utility.yul\":30149:30568   */\n      swap2\n      swap1\n      pop\n      jump\t// out\n        /* \"#utility.yul\":30574:30797   */\n    tag_343:\n        /* \"#utility.yul\":30714:30748   */\n      0x446f63746f72732063616e6e6f74207265676973746572206173207061746965\n        /* \"#utility.yul\":30710:30711   */\n      0x00\n        /* \"#utility.yul\":30702:30708   */\n      dup3\n        /* \"#utility.yul\":30698:30712   */\n      add\n        /* \"#utility.yul\":30691:30749   */\n      mstore\n        /* \"#utility.yul\":30783:30789   */\n      0x6e74732e00000000000000000000000000000000000000000000000000000000\n        /* \"#utility.yul\":30778:30780   */\n      0x20\n        /* \"#utility.yul\":30770:30776   */\n      dup3\n        /* \"#utility.yul\":30766:30781   */\n      add\n        /* \"#utility.yul\":30759:30790   */\n      mstore\n        /* \"#utility.yul\":30574:30797   */\n      pop\n      jump\t// out\n        /* \"#utility.yul\":30803:31169   */\n    tag_344:\n        /* \"#utility.yul\":30945:30948   */\n      0x00\n        /* \"#utility.yul\":30966:31033   */\n      tag_647\n        /* \"#utility.yul\":31030:31032   */\n      0x24\n        /* \"#utility.yul\":31025:31028   */\n      dup4\n        /* \"#utility.yul\":30966:31033   */\n      tag_287\n      jump\t// in\n    tag_647:\n        /* \"#utility.yul\":30959:31033   */\n      swap2\n      pop\n        /* \"#utility.yul\":31042:31135   */\n      tag_648\n        /* \"#utility.yul\":31131:31134   */\n      dup3\n        /* \"#utility.yul\":31042:31135   */\n      tag_343\n      jump\t// in\n    tag_648:\n        /* \"#utility.yul\":31160:31162   */\n      0x40\n        /* \"#utility.yul\":31155:31158   */\n      dup3\n        /* \"#utility.yul\":31151:31163   */\n      add\n        /* \"#utility.yul\":31144:31163   */\n      swap1\n      pop\n        /* \"#utility.yul\":30803:31169   */\n      swap2\n      swap1\n      pop\n      jump\t// out\n        /* \"#utility.yul\":31175:31594   */\n    tag_184:\n        /* \"#utility.yul\":31341:31345   */\n      0x00\n        /* \"#utility.yul\":31379:31381   */\n      0x20\n        /* \"#utility.yul\":31368:31377   */\n      dup3\n        /* \"#utility.yul\":31364:31382   */\n      add\n        /* \"#utility.yul\":31356:31382   */\n      swap1\n      pop\n        /* \"#utility.yul\":31428:31437   */\n      dup2\n        /* \"#utility.yul\":31422:31426   */\n      dup2\n        /* \"#utility.yul\":31418:31438   */\n      sub\n        /* \"#utility.yul\":31414:31415   */\n      0x00\n        /* \"#utility.yul\":31403:31412   */\n      dup4\n        /* \"#utility.yul\":31399:31416   */\n      add\n        /* \"#utility.yul\":31392:31439   */\n      mstore\n        /* \"#utility.yul\":31456:31587   */\n      tag_650\n        /* \"#utility.yul\":31582:31586   */\n      dup2\n        /* \"#utility.yul\":31456:31587   */\n      tag_344\n      jump\t// in\n    tag_650:\n        /* \"#utility.yul\":31448:31587   */\n      swap1\n      pop\n        /* \"#utility.yul\":31175:31594   */\n      swap2\n      swap1\n      pop\n      jump\t// out\n        /* \"#utility.yul\":31600:31775   */\n    tag_345:\n        /* \"#utility.yul\":31740:31767   */\n      0x4e6f7420616e20617574686f72697a656420646f63746f722e00000000000000\n        /* \"#utility.yul\":31736:31737   */\n      0x00\n        /* \"#utility.yul\":31728:31734   */\n      dup3\n        /* \"#utility.yul\":31724:31738   */\n      add\n        /* \"#utility.yul\":31717:31768   */\n      mstore\n        /* \"#utility.yul\":31600:31775   */\n      pop\n      jump\t// out\n        /* \"#utility.yul\":31781:32147   */\n    tag_346:\n        /* \"#utility.yul\":31923:31926   */\n      0x00\n        /* \"#utility.yul\":31944:32011   */\n      tag_653\n        /* \"#utility.yul\":32008:32010   */\n      0x19\n        /* \"#utility.yul\":32003:32006   */\n      dup4\n        /* \"#utility.yul\":31944:32011   */\n      tag_287\n      jump\t// in\n    tag_653:\n        /* \"#utility.yul\":31937:32011   */\n      swap2\n      pop\n        /* \"#utility.yul\":32020:32113   */\n      tag_654\n        /* \"#utility.yul\":32109:32112   */\n      dup3\n        /* \"#utility.yul\":32020:32113   */\n      tag_345\n      jump\t// in\n    tag_654:\n        /* \"#utility.yul\":32138:32140   */\n      0x20\n        /* \"#utility.yul\":32133:32136   */\n      dup3\n        /* \"#utility.yul\":32129:32141   */\n      add\n        /* \"#utility.yul\":32122:32141   */\n      swap1\n      pop\n        /* \"#utility.yul\":31781:32147   */\n      swap2\n      swap1\n      pop\n      jump\t// out\n        /* \"#utility.yul\":32153:32572   */\n    tag_193:\n        /* \"#utility.yul\":32319:32323   */\n      0x00\n        /* \"#utility.yul\":32357:32359   */\n      0x20\n        /* \"#utility.yul\":32346:32355   */\n      dup3\n        /* \"#utility.yul\":32342:32360   */\n      add\n        /* \"#utility.yul\":32334:32360   */\n      swap1\n      pop\n        /* \"#utility.yul\":32406:32415   */\n      dup2\n        /* \"#utility.yul\":32400:32404   */\n      dup2\n        /* \"#utility.yul\":32396:32416   */\n      sub\n        /* \"#utility.yul\":32392:32393   */\n      0x00\n        /* \"#utility.yul\":32381:32390   */\n      dup4\n        /* \"#utility.yul\":32377:32394   */\n      add\n        /* \"#utility.yul\":32370:32417   */\n      mstore\n        /* \"#utility.yul\":32434:32565   */\n      tag_656\n        /* \"#utility.yul\":32560:32564   */\n      dup2\n        /* \"#utility.yul\":32434:32565   */\n      tag_346\n      jump\t// in\n    tag_656:\n        /* \"#utility.yul\":32426:32565   */\n      swap1\n      pop\n        /* \"#utility.yul\":32153:32572   */\n      swap2\n      swap1\n      pop\n      jump\t// out\n        /* \"#utility.yul\":32578:32812   */\n    tag_347:\n        /* \"#utility.yul\":32718:32752   */\n      0x50617469656e7420686173206e6f74206772616e74656420636f6e73656e7420\n        /* \"#utility.yul\":32714:32715   */\n      0x00\n        /* \"#utility.yul\":32706:32712   */\n      dup3\n        /* \"#utility.yul\":32702:32716   */\n      add\n        /* \"#utility.yul\":32695:32753   */\n      mstore\n        /* \"#utility.yul\":32787:32804   */\n      0x746f207468697320646f63746f722e0000000000000000000000000000000000\n        /* \"#utility.yul\":32782:32784   */\n      0x20\n        /* \"#utility.yul\":32774:32780   */\n      dup3\n        /* \"#utility.yul\":32770:32785   */\n      add\n        /* \"#utility.yul\":32763:32805   */\n      mstore\n        /* \"#utility.yul\":32578:32812   */\n      pop\n      jump\t// out\n        /* \"#utility.yul\":32818:33184   */\n    tag_348:\n        /* \"#utility.yul\":32960:32963   */\n      0x00\n        /* \"#utility.yul\":32981:33048   */\n      tag_659\n        /* \"#utility.yul\":33045:33047   */\n      0x2f\n        /* \"#utility.yul\":33040:33043   */\n      dup4\n        /* \"#utility.yul\":32981:33048   */\n      tag_287\n      jump\t// in\n    tag_659:\n        /* \"#utility.yul\":32974:33048   */\n      swap2\n      pop\n        /* \"#utility.yul\":33057:33150   */\n      tag_660\n        /* \"#utility.yul\":33146:33149   */\n      dup3\n        /* \"#utility.yul\":33057:33150   */\n      tag_347\n      jump\t// in\n    tag_660:\n        /* \"#utility.yul\":33175:33177   */\n      0x40\n        /* \"#utility.yul\":33170:33173   */\n      dup3\n        /* \"#utility.yul\":33166:33178   */\n      add\n        /* \"#utility.yul\":33159:33178   */\n      swap1\n      pop\n        /* \"#utility.yul\":32818:33184   */\n      swap2\n      swap1\n      pop\n      jump\t// out\n        /* \"#utility.yul\":33190:33609   */\n    tag_205:\n        /* \"#utility.yul\":33356:33360   */\n      0x00\n        /* \"#utility.yul\":33394:33396   */\n      0x20\n        /* \"#utility.yul\":33383:33392   */\n      dup3\n        /* \"#utility.yul\":33379:33397   */\n      add\n        /* \"#utility.yul\":33371:33397   */\n      swap1\n      pop\n        /* \"#utility.yul\":33443:33452   */\n      dup2\n        /* \"#utility.yul\":33437:33441   */\n      dup2\n        /* \"#utility.yul\":33433:33453   */\n      sub\n        /* \"#utility.yul\":33429:33430   */\n      0x00\n        /* \"#utility.yul\":33418:33427   */\n      dup4\n        /* \"#utility.yul\":33414:33431   */\n      add\n        /* \"#utility.yul\":33407:33454   */\n      mstore\n        /* \"#utility.yul\":33471:33602   */\n      tag_662\n        /* \"#utility.yul\":33597:33601   */\n      dup2\n        /* \"#utility.yul\":33471:33602   */\n      tag_348\n      jump\t// in\n    tag_662:\n        /* \"#utility.yul\":33463:33602   */\n      swap1\n      pop\n        /* \"#utility.yul\":33190:33609   */\n      swap2\n      swap1\n      pop\n      jump\t// out\n        /* \"#utility.yul\":33615:33796   */\n    tag_349:\n        /* \"#utility.yul\":33755:33788   */\n      0x456e6372797074656420646174612063616e6e6f7420626520656d7074792e00\n        /* \"#utility.yul\":33751:33752   */\n      0x00\n        /* \"#utility.yul\":33743:33749   */\n      dup3\n        /* \"#utility.yul\":33739:33753   */\n      add\n        /* \"#utility.yul\":33732:33789   */\n      mstore\n        /* \"#utility.yul\":33615:33796   */\n      pop\n      jump\t// out\n        /* \"#utility.yul\":33802:34168   */\n    tag_350:\n        /* \"#utility.yul\":33944:33947   */\n      0x00\n        /* \"#utility.yul\":33965:34032   */\n      tag_665\n        /* \"#utility.yul\":34029:34031   */\n      0x1f\n        /* \"#utility.yul\":34024:34027   */\n      dup4\n        /* \"#utility.yul\":33965:34032   */\n      tag_287\n      jump\t// in\n    tag_665:\n        /* \"#utility.yul\":33958:34032   */\n      swap2\n      pop\n        /* \"#utility.yul\":34041:34134   */\n      tag_666\n        /* \"#utility.yul\":34130:34133   */\n      dup3\n        /* \"#utility.yul\":34041:34134   */\n      tag_349\n      jump\t// in\n    tag_666:\n        /* \"#utility.yul\":34159:34161   */\n      0x20\n        /* \"#utility.yul\":34154:34157   */\n      dup3\n        /* \"#utility.yul\":34150:34162   */\n      add\n        /* \"#utility.yul\":34143:34162   */\n      swap1\n      pop\n        /* \"#utility.yul\":33802:34168   */\n      swap2\n      swap1\n      pop\n      jump\t// out\n        /* \"#utility.yul\":34174:34593   */\n    tag_208:\n        /* \"#utility.yul\":34340:34344   */\n      0x00\n        /* \"#utility.yul\":34378:34380   */\n      0x20\n        /* \"#utility.yul\":34367:34376   */\n      dup3\n        /* \"#utility.yul\":34363:34381   */\n      add\n        /* \"#utility.yul\":34355:34381   */\n      swap1\n      pop\n        /* \"#utility.yul\":34427:34436   */\n      dup2\n        /* \"#utility.yul\":34421:34425   */\n      dup2\n        /* \"#utility.yul\":34417:34437   */\n      sub\n        /* \"#utility.yul\":34413:34414   */\n      0x00\n        /* \"#utility.yul\":34402:34411   */\n      dup4\n        /* \"#utility.yul\":34398:34415   */\n      add\n        /* \"#utility.yul\":34391:34438   */\n      mstore\n        /* \"#utility.yul\":34455:34586   */\n      tag_668\n        /* \"#utility.yul\":34581:34585   */\n      dup2\n        /* \"#utility.yul\":34455:34586   */\n      tag_350\n      jump\t// in\n    tag_668:\n        /* \"#utility.yul\":34447:34586   */\n      swap1\n      pop\n        /* \"#utility.yul\":34174:34593   */\n      swap2\n      swap1\n      pop\n      jump\t// out\n        /* \"#utility.yul\":34599:34717   */\n    tag_351:\n        /* \"#utility.yul\":34686:34710   */\n      tag_670\n        /* \"#utility.yul\":34704:34709   */\n      dup2\n        /* \"#utility.yul\":34686:34710   */\n      tag_327\n      jump\t// in\n    tag_670:\n        /* \"#utility.yul\":34681:34684   */\n      dup3\n        /* \"#utility.yul\":34674:34711   */\n      mstore\n        /* \"#utility.yul\":34599:34717   */\n      pop\n      pop\n      jump\t// out\n        /* \"#utility.yul\":34723:34821   */\n    tag_352:\n        /* \"#utility.yul\":34774:34780   */\n      0x00\n        /* \"#utility.yul\":34808:34813   */\n      dup2\n        /* \"#utility.yul\":34802:34814   */\n      mload\n        /* \"#utility.yul\":34792:34814   */\n      swap1\n      pop\n        /* \"#utility.yul\":34723:34821   */\n      swap2\n      swap1\n      pop\n      jump\t// out\n        /* \"#utility.yul\":34827:34995   */\n    tag_353:\n        /* \"#utility.yul\":34910:34921   */\n      0x00\n        /* \"#utility.yul\":34944:34950   */\n      dup3\n        /* \"#utility.yul\":34939:34942   */\n      dup3\n        /* \"#utility.yul\":34932:34951   */\n      mstore\n        /* \"#utility.yul\":34984:34988   */\n      0x20\n        /* \"#utility.yul\":34979:34982   */\n      dup3\n        /* \"#utility.yul\":34975:34989   */\n      add\n        /* \"#utility.yul\":34960:34989   */\n      swap1\n      pop\n        /* \"#utility.yul\":34827:34995   */\n      swap3\n      swap2\n      pop\n      pop\n      jump\t// out\n        /* \"#utility.yul\":35001:35374   */\n    tag_354:\n        /* \"#utility.yul\":35087:35090   */\n      0x00\n        /* \"#utility.yul\":35115:35153   */\n      tag_674\n        /* \"#utility.yul\":35147:35152   */\n      dup3\n        /* \"#utility.yul\":35115:35153   */\n      tag_352\n      jump\t// in\n    tag_674:\n        /* \"#utility.yul\":35169:35239   */\n      tag_675\n        /* \"#utility.yul\":35232:35238   */\n      dup2\n        /* \"#utility.yul\":35227:35230   */\n      dup6\n        /* \"#utility.yul\":35169:35239   */\n      tag_353\n      jump\t// in\n    tag_675:\n        /* \"#utility.yul\":35162:35239   */\n      swap4\n      pop\n        /* \"#utility.yul\":35248:35313   */\n      tag_676\n        /* \"#utility.yul\":35306:35312   */\n      dup2\n        /* \"#utility.yul\":35301:35304   */\n      dup6\n        /* \"#utility.yul\":35294:35298   */\n      0x20\n        /* \"#utility.yul\":35287:35292   */\n      dup7\n        /* \"#utility.yul\":35283:35299   */\n      add\n        /* \"#utility.yul\":35248:35313   */\n      tag_288\n      jump\t// in\n    tag_676:\n        /* \"#utility.yul\":35338:35367   */\n      tag_677\n        /* \"#utility.yul\":35360:35366   */\n      dup2\n        /* \"#utility.yul\":35338:35367   */\n      tag_289\n      jump\t// in\n    tag_677:\n        /* \"#utility.yul\":35333:35336   */\n      dup5\n        /* \"#utility.yul\":35329:35368   */\n      add\n        /* \"#utility.yul\":35322:35368   */\n      swap2\n      pop\n        /* \"#utility.yul\":35091:35374   */\n      pop\n        /* \"#utility.yul\":35001:35374   */\n      swap3\n      swap2\n      pop\n      pop\n      jump\t// out\n        /* \"#utility.yul\":35380:35799   */\n    tag_210:\n        /* \"#utility.yul\":35519:35523   */\n      0x00\n        /* \"#utility.yul\":35557:35559   */\n      0x40\n        /* \"#utility.yul\":35546:35555   */\n      dup3\n        /* \"#utility.yul\":35542:35560   */\n      add\n        /* \"#utility.yul\":35534:35560   */\n      swap1\n      pop\n        /* \"#utility.yul\":35570:35641   */\n      tag_679\n        /* \"#utility.yul\":35638:35639   */\n      0x00\n        /* \"#utility.yul\":35627:35636   */\n      dup4\n        /* \"#utility.yul\":35623:35640   */\n      add\n        /* \"#utility.yul\":35614:35620   */\n      dup6\n        /* \"#utility.yul\":35570:35641   */\n      tag_351\n      jump\t// in\n    tag_679:\n        /* \"#utility.yul\":35688:35697   */\n      dup2\n        /* \"#utility.yul\":35682:35686   */\n      dup2\n        /* \"#utility.yul\":35678:35698   */\n      sub\n        /* \"#utility.yul\":35673:35675   */\n      0x20\n        /* \"#utility.yul\":35662:35671   */\n      dup4\n        /* \"#utility.yul\":35658:35676   */\n      add\n        /* \"#utility.yul\":35651:35699   */\n      mstore\n        /* \"#utility.yul\":35716:35792   */\n      tag_680\n        /* \"#utility.yul\":35787:35791   */\n      dup2\n        /* \"#utility.yul\":35778:35784   */\n      dup5\n        /* \"#utility.yul\":35716:35792   */\n      tag_354\n      jump\t// in\n    tag_680:\n        /* \"#utility.yul\":35708:35792   */\n      swap1\n      pop\n        /* \"#utility.yul\":35380:35799   */\n      swap4\n      swap3\n      pop\n      pop\n      pop\n      jump\t// out\n        /* \"#utility.yul\":35805:35976   */\n    tag_355:\n        /* \"#utility.yul\":35945:35968   */\n      0x496e76616c6964207374617475732076616c75652e0000000000000000000000\n        /* \"#utility.yul\":35941:35942   */\n      0x00\n        /* \"#utility.yul\":35933:35939   */\n      dup3\n        /* \"#utility.yul\":35929:35943   */\n      add\n        /* \"#utility.yul\":35922:35969   */\n      mstore\n        /* \"#utility.yul\":35805:35976   */\n      pop\n      jump\t// out\n        /* \"#utility.yul\":35982:36348   */\n    tag_356:\n        /* \"#utility.yul\":36124:36127   */\n      0x00\n        /* \"#utility.yul\":36145:36212   */\n      tag_683\n        /* \"#utility.yul\":36209:36211   */\n      0x15\n        /* \"#utility.yul\":36204:36207   */\n      dup4\n        /* \"#utility.yul\":36145:36212   */\n      tag_287\n      jump\t// in\n    tag_683:\n        /* \"#utility.yul\":36138:36212   */\n      swap2\n      pop\n        /* \"#utility.yul\":36221:36314   */\n      tag_684\n        /* \"#utility.yul\":36310:36313   */\n      dup3\n        /* \"#utility.yul\":36221:36314   */\n      tag_355\n      jump\t// in\n    tag_684:\n        /* \"#utility.yul\":36339:36341   */\n      0x20\n        /* \"#utility.yul\":36334:36337   */\n      dup3\n        /* \"#utility.yul\":36330:36342   */\n      add\n        /* \"#utility.yul\":36323:36342   */\n      swap1\n      pop\n        /* \"#utility.yul\":35982:36348   */\n      swap2\n      swap1\n      pop\n      jump\t// out\n        /* \"#utility.yul\":36354:36773   */\n    tag_219:\n        /* \"#utility.yul\":36520:36524   */\n      0x00\n        /* \"#utility.yul\":36558:36560   */\n      0x20\n        /* \"#utility.yul\":36547:36556   */\n      dup3\n        /* \"#utility.yul\":36543:36561   */\n      add\n        /* \"#utility.yul\":36535:36561   */\n      swap1\n      pop\n        /* \"#utility.yul\":36607:36616   */\n      dup2\n        /* \"#utility.yul\":36601:36605   */\n      dup2\n        /* \"#utility.yul\":36597:36617   */\n      sub\n        /* \"#utility.yul\":36593:36594   */\n      0x00\n        /* \"#utility.yul\":36582:36591   */\n      dup4\n        /* \"#utility.yul\":36578:36595   */\n      add\n        /* \"#utility.yul\":36571:36618   */\n      mstore\n        /* \"#utility.yul\":36635:36766   */\n      tag_686\n        /* \"#utility.yul\":36761:36765   */\n      dup2\n        /* \"#utility.yul\":36635:36766   */\n      tag_356\n      jump\t// in\n    tag_686:\n        /* \"#utility.yul\":36627:36766   */\n      swap1\n      pop\n        /* \"#utility.yul\":36354:36773   */\n      swap2\n      swap1\n      pop\n      jump\t// out\n        /* \"#utility.yul\":36779:37194   */\n    tag_222:\n        /* \"#utility.yul\":36916:36920   */\n      0x00\n        /* \"#utility.yul\":36954:36956   */\n      0x40\n        /* \"#utility.yul\":36943:36952   */\n      dup3\n        /* \"#utility.yul\":36939:36957   */\n      add\n        /* \"#utility.yul\":36931:36957   */\n      swap1\n      pop\n        /* \"#utility.yul\":37003:37012   */\n      dup2\n        /* \"#utility.yul\":36997:37001   */\n      dup2\n        /* \"#utility.yul\":36993:37013   */\n      sub\n        /* \"#utility.yul\":36989:36990   */\n      0x00\n        /* \"#utility.yul\":36978:36987   */\n      dup4\n        /* \"#utility.yul\":36974:36991   */\n      add\n        /* \"#utility.yul\":36967:37014   */\n      mstore\n        /* \"#utility.yul\":37031:37109   */\n      tag_688\n        /* \"#utility.yul\":37104:37108   */\n      dup2\n        /* \"#utility.yul\":37095:37101   */\n      dup6\n        /* \"#utility.yul\":37031:37109   */\n      tag_290\n      jump\t// in\n    tag_688:\n        /* \"#utility.yul\":37023:37109   */\n      swap1\n      pop\n        /* \"#utility.yul\":37119:37187   */\n      tag_689\n        /* \"#utility.yul\":37183:37185   */\n      0x20\n        /* \"#utility.yul\":37172:37181   */\n      dup4\n        /* \"#utility.yul\":37168:37186   */\n      add\n        /* \"#utility.yul\":37159:37165   */\n      dup5\n        /* \"#utility.yul\":37119:37187   */\n      tag_301\n      jump\t// in\n    tag_689:\n        /* \"#utility.yul\":36779:37194   */\n      swap4\n      swap3\n      pop\n      pop\n      pop\n      jump\t// out\n        /* \"#utility.yul\":37200:37374   */\n    tag_357:\n        /* \"#utility.yul\":37340:37366   */\n      0x41646472657373206973206e6f74206120646f63746f722e0000000000000000\n        /* \"#utility.yul\":37336:37337   */\n      0x00\n        /* \"#utility.yul\":37328:37334   */\n      dup3\n        /* \"#utility.yul\":37324:37338   */\n      add\n        /* \"#utility.yul\":37317:37367   */\n      mstore\n        /* \"#utility.yul\":37200:37374   */\n      pop\n      jump\t// out\n        /* \"#utility.yul\":37380:37746   */\n    tag_358:\n        /* \"#utility.yul\":37522:37525   */\n      0x00\n        /* \"#utility.yul\":37543:37610   */\n      tag_692\n        /* \"#utility.yul\":37607:37609   */\n      0x18\n        /* \"#utility.yul\":37602:37605   */\n      dup4\n        /* \"#utility.yul\":37543:37610   */\n      tag_287\n      jump\t// in\n    tag_692:\n        /* \"#utility.yul\":37536:37610   */\n      swap2\n      pop\n        /* \"#utility.yul\":37619:37712   */\n      tag_693\n        /* \"#utility.yul\":37708:37711   */\n      dup3\n        /* \"#utility.yul\":37619:37712   */\n      tag_357\n      jump\t// in\n    tag_693:\n        /* \"#utility.yul\":37737:37739   */\n      0x20\n        /* \"#utility.yul\":37732:37735   */\n      dup3\n        /* \"#utility.yul\":37728:37740   */\n      add\n        /* \"#utility.yul\":37721:37740   */\n      swap1\n      pop\n        /* \"#utility.yul\":37380:37746   */\n      swap2\n      swap1\n      pop\n      jump\t// out\n        /* \"#utility.yul\":37752:38171   */\n    tag_229:\n        /* \"#utility.yul\":37918:37922   */\n      0x00\n        /* \"#utility.yul\":37956:37958   */\n      0x20\n        /* \"#utility.yul\":37945:37954   */\n      dup3\n        /* \"#utility.yul\":37941:37959   */\n      add\n        /* \"#utility.yul\":37933:37959   */\n      swap1\n      pop\n        /* \"#utility.yul\":38005:38014   */\n      dup2\n        /* \"#utility.yul\":37999:38003   */\n      dup2\n        /* \"#utility.yul\":37995:38015   */\n      sub\n        /* \"#utility.yul\":37991:37992   */\n      0x00\n        /* \"#utility.yul\":37980:37989   */\n      dup4\n        /* \"#utility.yul\":37976:37993   */\n      add\n        /* \"#utility.yul\":37969:38016   */\n      mstore\n        /* \"#utility.yul\":38033:38164   */\n      tag_695\n        /* \"#utility.yul\":38159:38163   */\n      dup2\n        /* \"#utility.yul\":38033:38164   */\n      tag_358\n      jump\t// in\n    tag_695:\n        /* \"#utility.yul\":38025:38164   */\n      swap1\n      pop\n        /* \"#utility.yul\":37752:38171   */\n      swap2\n      swap1\n      pop\n      jump\t// out\n        /* \"#utility.yul\":38177:38398   */\n    tag_359:\n        /* \"#utility.yul\":38317:38351   */\n      0x43616e6e6f742072656d6f766520746865206f776e657220617320646f63746f\n        /* \"#utility.yul\":38313:38314   */\n      0x00\n        /* \"#utility.yul\":38305:38311   */\n      dup3\n        /* \"#utility.yul\":38301:38315   */\n      add\n        /* \"#utility.yul\":38294:38352   */\n      mstore\n        /* \"#utility.yul\":38386:38390   */\n      0x722e000000000000000000000000000000000000000000000000000000000000\n        /* \"#utility.yul\":38381:38383   */\n      0x20\n        /* \"#utility.yul\":38373:38379   */\n      dup3\n        /* \"#utility.yul\":38369:38384   */\n      add\n        /* \"#utility.yul\":38362:38391   */\n      mstore\n        /* \"#utility.yul\":38177:38398   */\n      pop\n      jump\t// out\n        /* \"#utility.yul\":38404:38770   */\n    tag_360:\n        /* \"#utility.yul\":38546:38549   */\n      0x00\n        /* \"#utility.yul\":38567:38634   */\n      tag_698\n        /* \"#utility.yul\":38631:38633   */\n      0x22\n        /* \"#utility.yul\":38626:38629   */\n      dup4\n        /* \"#utility.yul\":38567:38634   */\n      tag_287\n      jump\t// in\n    tag_698:\n        /* \"#utility.yul\":38560:38634   */\n      swap2\n      pop\n        /* \"#utility.yul\":38643:38736   */\n      tag_699\n        /* \"#utility.yul\":38732:38735   */\n      dup3\n        /* \"#utility.yul\":38643:38736   */\n      tag_359\n      jump\t// in\n    tag_699:\n        /* \"#utility.yul\":38761:38763   */\n      0x40\n        /* \"#utility.yul\":38756:38759   */\n      dup3\n        /* \"#utility.yul\":38752:38764   */\n      add\n        /* \"#utility.yul\":38745:38764   */\n      swap1\n      pop\n        /* \"#utility.yul\":38404:38770   */\n      swap2\n      swap1\n      pop\n      jump\t// out\n        /* \"#utility.yul\":38776:39195   */\n    tag_232:\n        /* \"#utility.yul\":38942:38946   */\n      0x00\n        /* \"#utility.yul\":38980:38982   */\n      0x20\n        /* \"#utility.yul\":38969:38978   */\n      dup3\n        /* \"#utility.yul\":38965:38983   */\n      add\n        /* \"#utility.yul\":38957:38983   */\n      swap1\n      pop\n        /* \"#utility.yul\":39029:39038   */\n      dup2\n        /* \"#utility.yul\":39023:39027   */\n      dup2\n        /* \"#utility.yul\":39019:39039   */\n      sub\n        /* \"#utility.yul\":39015:39016   */\n      0x00\n        /* \"#utility.yul\":39004:39013   */\n      dup4\n        /* \"#utility.yul\":39000:39017   */\n      add\n        /* \"#utility.yul\":38993:39040   */\n      mstore\n        /* \"#utility.yul\":39057:39188   */\n      tag_701\n        /* \"#utility.yul\":39183:39187   */\n      dup2\n        /* \"#utility.yul\":39057:39188   */\n      tag_360\n      jump\t// in\n    tag_701:\n        /* \"#utility.yul\":39049:39188   */\n      swap1\n      pop\n        /* \"#utility.yul\":38776:39195   */\n      swap2\n      swap1\n      pop\n      jump\t// out\n        /* \"#utility.yul\":39201:39422   */\n    tag_361:\n        /* \"#utility.yul\":39341:39375   */\n      0x43616c6c6572206973206e6f7420612072656769737465726564207061746965\n        /* \"#utility.yul\":39337:39338   */\n      0x00\n        /* \"#utility.yul\":39329:39335   */\n      dup3\n        /* \"#utility.yul\":39325:39339   */\n      add\n        /* \"#utility.yul\":39318:39376   */\n      mstore\n        /* \"#utility.yul\":39410:39414   */\n      0x6e74000000000000000000000000000000000000000000000000000000000000\n        /* \"#utility.yul\":39405:39407   */\n      0x20\n        /* \"#utility.yul\":39397:39403   */\n      dup3\n        /* \"#utility.yul\":39393:39408   */\n      add\n        /* \"#utility.yul\":39386:39415   */\n      mstore\n        /* \"#utility.yul\":39201:39422   */\n      pop\n      jump\t// out\n        /* \"#utility.yul\":39428:39794   */\n    tag_362:\n        /* \"#utility.yul\":39570:39573   */\n      0x00\n        /* \"#utility.yul\":39591:39658   */\n      tag_704\n        /* \"#utility.yul\":39655:39657   */\n      0x22\n        /* \"#utility.yul\":39650:39653   */\n      dup4\n        /* \"#utility.yul\":39591:39658   */\n      tag_287\n      jump\t// in\n    tag_704:\n        /* \"#utility.yul\":39584:39658   */\n      swap2\n      pop\n        /* \"#utility.yul\":39667:39760   */\n      tag_705\n        /* \"#utility.yul\":39756:39759   */\n      dup3\n        /* \"#utility.yul\":39667:39760   */\n      tag_361\n      jump\t// in\n    tag_705:\n        /* \"#utility.yul\":39785:39787   */\n      0x40\n        /* \"#utility.yul\":39780:39783   */\n      dup3\n        /* \"#utility.yul\":39776:39788   */\n      add\n        /* \"#utility.yul\":39769:39788   */\n      swap1\n      pop\n        /* \"#utility.yul\":39428:39794   */\n      swap2\n      swap1\n      pop\n      jump\t// out\n        /* \"#utility.yul\":39800:40219   */\n    tag_236:\n        /* \"#utility.yul\":39966:39970   */\n      0x00\n        /* \"#utility.yul\":40004:40006   */\n      0x20\n        /* \"#utility.yul\":39993:40002   */\n      dup3\n        /* \"#utility.yul\":39989:40007   */\n      add\n        /* \"#utility.yul\":39981:40007   */\n      swap1\n      pop\n        /* \"#utility.yul\":40053:40062   */\n      dup2\n        /* \"#utility.yul\":40047:40051   */\n      dup2\n        /* \"#utility.yul\":40043:40063   */\n      sub\n        /* \"#utility.yul\":40039:40040   */\n      0x00\n        /* \"#utility.yul\":40028:40037   */\n      dup4\n        /* \"#utility.yul\":40024:40041   */\n      add\n        /* \"#utility.yul\":40017:40064   */\n      mstore\n        /* \"#utility.yul\":40081:40212   */\n      tag_707\n        /* \"#utility.yul\":40207:40211   */\n      dup2\n        /* \"#utility.yul\":40081:40212   */\n      tag_362\n      jump\t// in\n    tag_707:\n        /* \"#utility.yul\":40073:40212   */\n      swap1\n      pop\n        /* \"#utility.yul\":39800:40219   */\n      swap2\n      swap1\n      pop\n      jump\t// out\n        /* \"#utility.yul\":40225:40456   */\n    tag_363:\n        /* \"#utility.yul\":40365:40399   */\n      0x4e6f2070656e64696e6720636f6e73656e7420726571756573742066726f6d20\n        /* \"#utility.yul\":40361:40362   */\n      0x00\n        /* \"#utility.yul\":40353:40359   */\n      dup3\n        /* \"#utility.yul\":40349:40363   */\n      add\n        /* \"#utility.yul\":40342:40400   */\n      mstore\n        /* \"#utility.yul\":40434:40448   */\n      0x7468697320646f63746f722e0000000000000000000000000000000000000000\n        /* \"#utility.yul\":40429:40431   */\n      0x20\n        /* \"#utility.yul\":40421:40427   */\n      dup3\n        /* \"#utility.yul\":40417:40432   */\n      add\n        /* \"#utility.yul\":40410:40449   */\n      mstore\n        /* \"#utility.yul\":40225:40456   */\n      pop\n      jump\t// out\n        /* \"#utility.yul\":40462:40828   */\n    tag_364:\n        /* \"#utility.yul\":40604:40607   */\n      0x00\n        /* \"#utility.yul\":40625:40692   */\n      tag_710\n        /* \"#utility.yul\":40689:40691   */\n      0x2c\n        /* \"#utility.yul\":40684:40687   */\n      dup4\n        /* \"#utility.yul\":40625:40692   */\n      tag_287\n      jump\t// in\n    tag_710:\n        /* \"#utility.yul\":40618:40692   */\n      swap2\n      pop\n        /* \"#utility.yul\":40701:40794   */\n      tag_711\n        /* \"#utility.yul\":40790:40793   */\n      dup3\n        /* \"#utility.yul\":40701:40794   */\n      tag_363\n      jump\t// in\n    tag_711:\n        /* \"#utility.yul\":40819:40821   */\n      0x40\n        /* \"#utility.yul\":40814:40817   */\n      dup3\n        /* \"#utility.yul\":40810:40822   */\n      add\n        /* \"#utility.yul\":40803:40822   */\n      swap1\n      pop\n        /* \"#utility.yul\":40462:40828   */\n      swap2\n      swap1\n      pop\n      jump\t// out\n        /* \"#utility.yul\":40834:41253   */\n    tag_240:\n        /* \"#utility.yul\":41000:41004   */\n      0x00\n        /* \"#utility.yul\":41038:41040   */\n      0x20\n        /* \"#utility.yul\":41027:41036   */\n      dup3\n        /* \"#utility.yul\":41023:41041   */\n      add\n        /* \"#utility.yul\":41015:41041   */\n      swap1\n      pop\n        /* \"#utility.yul\":41087:41096   */\n      dup2\n        /* \"#utility.yul\":41081:41085   */\n      dup2\n        /* \"#utility.yul\":41077:41097   */\n      sub\n        /* \"#utility.yul\":41073:41074   */\n      0x00\n        /* \"#utility.yul\":41062:41071   */\n      dup4\n        /* \"#utility.yul\":41058:41075   */\n      add\n        /* \"#utility.yul\":41051:41098   */\n      mstore\n        /* \"#utility.yul\":41115:41246   */\n      tag_713\n        /* \"#utility.yul\":41241:41245   */\n      dup2\n        /* \"#utility.yul\":41115:41246   */\n      tag_364\n      jump\t// in\n    tag_713:\n        /* \"#utility.yul\":41107:41246   */\n      swap1\n      pop\n        /* \"#utility.yul\":40834:41253   */\n      swap2\n      swap1\n      pop\n      jump\t// out\n        /* \"#utility.yul\":41259:41482   */\n    tag_365:\n        /* \"#utility.yul\":41399:41433   */\n      0x41646472657373206973206e6f7420616e20617574686f72697a656420646f63\n        /* \"#utility.yul\":41395:41396   */\n      0x00\n        /* \"#utility.yul\":41387:41393   */\n      dup3\n        /* \"#utility.yul\":41383:41397   */\n      add\n        /* \"#utility.yul\":41376:41434   */\n      mstore\n        /* \"#utility.yul\":41468:41474   */\n      0x746f722e00000000000000000000000000000000000000000000000000000000\n        /* \"#utility.yul\":41463:41465   */\n      0x20\n        /* \"#utility.yul\":41455:41461   */\n      dup3\n        /* \"#utility.yul\":41451:41466   */\n      add\n        /* \"#utility.yul\":41444:41475   */\n      mstore\n        /* \"#utility.yul\":41259:41482   */\n      pop\n      jump\t// out\n        /* \"#utility.yul\":41488:41854   */\n    tag_366:\n        /* \"#utility.yul\":41630:41633   */\n      0x00\n        /* \"#utility.yul\":41651:41718   */\n      tag_716\n        /* \"#utility.yul\":41715:41717   */\n      0x24\n        /* \"#utility.yul\":41710:41713   */\n      dup4\n        /* \"#utility.yul\":41651:41718   */\n      tag_287\n      jump\t// in\n    tag_716:\n        /* \"#utility.yul\":41644:41718   */\n      swap2\n      pop\n        /* \"#utility.yul\":41727:41820   */\n      tag_717\n        /* \"#utility.yul\":41816:41819   */\n      dup3\n        /* \"#utility.yul\":41727:41820   */\n      tag_365\n      jump\t// in\n    tag_717:\n        /* \"#utility.yul\":41845:41847   */\n      0x40\n        /* \"#utility.yul\":41840:41843   */\n      dup3\n        /* \"#utility.yul\":41836:41848   */\n      add\n        /* \"#utility.yul\":41829:41848   */\n      swap1\n      pop\n        /* \"#utility.yul\":41488:41854   */\n      swap2\n      swap1\n      pop\n      jump\t// out\n        /* \"#utility.yul\":41860:42279   */\n    tag_247:\n        /* \"#utility.yul\":42026:42030   */\n      0x00\n        /* \"#utility.yul\":42064:42066   */\n      0x20\n        /* \"#utility.yul\":42053:42062   */\n      dup3\n        /* \"#utility.yul\":42049:42067   */\n      add\n        /* \"#utility.yul\":42041:42067   */\n      swap1\n      pop\n        /* \"#utility.yul\":42113:42122   */\n      dup2\n        /* \"#utility.yul\":42107:42111   */\n      dup2\n        /* \"#utility.yul\":42103:42123   */\n      sub\n        /* \"#utility.yul\":42099:42100   */\n      0x00\n        /* \"#utility.yul\":42088:42097   */\n      dup4\n        /* \"#utility.yul\":42084:42101   */\n      add\n        /* \"#utility.yul\":42077:42124   */\n      mstore\n        /* \"#utility.yul\":42141:42272   */\n      tag_719\n        /* \"#utility.yul\":42267:42271   */\n      dup2\n        /* \"#utility.yul\":42141:42272   */\n      tag_366\n      jump\t// in\n    tag_719:\n        /* \"#utility.yul\":42133:42272   */\n      swap1\n      pop\n        /* \"#utility.yul\":41860:42279   */\n      swap2\n      swap1\n      pop\n      jump\t// out\n\n    auxdata: 0xa26469706673582212208f192389a0429e41e7e522e181b4b7c929da6e865bcd2166a73092e9b5ab144964736f6c63430008150033\n}\n",
				"bytecode": {
					"linkReferences": {},
					"object": "60a060405234801562000010575f80fd5b503373ffffffffffffffffffffffffffffffffffffffff1660808173ffffffffffffffffffffffffffffffffffffffff16815250506040518060c001604052806001151581526020016040518060400160405280600581526020017f41646d696e00000000000000000000000000000000000000000000000000000081525081526020016040518060400160405280600b81526020017f436c696e69632053616c6500000000000000000000000000000000000000000081525081526020016040518060400160405280600d81526020017f4d6f726f63636f2f52616261740000000000000000000000000000000000000081525081526020016040518060400160405280600581526020017f30383a303000000000000000000000000000000000000000000000000000000081525081526020016040518060400160405280600581526020017f31383a303000000000000000000000000000000000000000000000000000000081525081525060015f60805173ffffffffffffffffffffffffffffffffffffffff1673ffffffffffffffffffffffffffffffffffffffff1681526020019081526020015f205f820151815f015f6101000a81548160ff0219169083151502179055506020820151816001019081620001f191906200050f565b5060408201518160020190816200020991906200050f565b5060608201518160030190816200022191906200050f565b5060808201518160040190816200023991906200050f565b5060a08201518160050190816200025191906200050f565b5090505060805173ffffffffffffffffffffffffffffffffffffffff167f9388661dcd7dc6cff9b4e22ab9459ac0a2682f86cb52fc7a669a6e7f062bce4c6040516200029d906200069f565b60405180910390a2620006d4565b5f81519050919050565b7f4e487b71000000000000000000000000000000000000000000000000000000005f52604160045260245ffd5b7f4e487b71000000000000000000000000000000000000000000000000000000005f52602260045260245ffd5b5f60028204905060018216806200032757607f821691505b6020821081036200033d576200033c620002e2565b5b50919050565b5f819050815f5260205f209050919050565b5f6020601f8301049050919050565b5f82821b905092915050565b5f60088302620003a17fffffffffffffffffffffffffffffffffffffffffffffffffffffffffffffffff8262000364565b620003ad868362000364565b95508019841693508086168417925050509392505050565b5f819050919050565b5f819050919050565b5f620003f7620003f1620003eb84620003c5565b620003ce565b620003c5565b9050919050565b5f819050919050565b6200041283620003d7565b6200042a6200042182620003fe565b84845462000370565b825550505050565b5f90565b6200044062000432565b6200044d81848462000407565b505050565b5b818110156200047457620004685f8262000436565b60018101905062000453565b5050565b601f821115620004c3576200048d8162000343565b620004988462000355565b81016020851015620004a8578190505b620004c0620004b78562000355565b83018262000452565b50505b505050565b5f82821c905092915050565b5f620004e55f1984600802620004c8565b1980831691505092915050565b5f620004ff8383620004d4565b9150826002028217905092915050565b6200051a82620002ab565b67ffffffffffffffff811115620005365762000535620002b5565b5b6200054282546200030f565b6200054f82828562000478565b5f60209050601f83116001811462000585575f841562000570578287015190505b6200057c8582620004f2565b865550620005eb565b601f198416620005958662000343565b5f5b82811015620005be5784890151825560018201915060208501945060208101905062000597565b86831015620005de5784890151620005da601f891682620004d4565b8355505b6001600288020188555050505b505050505050565b5f82825260208201905092915050565b7f41646d696e0000000000000000000000000000000000000000000000000000005f82015250565b5f62000639600583620005f3565b9150620006468262000603565b602082019050919050565b7f436c696e69632053616c650000000000000000000000000000000000000000005f82015250565b5f62000687600b83620005f3565b9150620006948262000651565b602082019050919050565b5f6040820190508181035f830152620006b8816200062b565b90508181036020830152620006cd8162000679565b9050919050565b608051613acd620007025f395f8181610968015281816116ee015281816119ca0152611ae30152613acd5ff3fe608060405234801561000f575f80fd5b5060043610610109575f3560e01c806387fee61c116100a0578063a46aef401161006f578063a46aef40146102cc578063a79861f1146102e8578063a9583c2214610304578063d1a4862714610339578063f68b68f61461035557610109565b806387fee61c1461025a5780638da5cb5b146102765780639897cf961461029457806398fc90e9146102b057610109565b8063461a2082116100dc578063461a2082146101ab5780634ba0a020146101de57806353c1a042146101fa5780635cbcd8eb1461022a57610109565b8063037f82481461010d5780630869cfbc146101295780631128c9ea1461015d5780631e6a315c14610179575b5f80fd5b610127600480360381019061012291906125c3565b610385565b005b610143600480360381019061013e91906125c3565b610711565b604051610154959493929190612692565b60405180910390f35b6101776004803603810190610172919061282b565b610966565b005b610193600480360381019061018e9190612940565b610c5e565b6040516101a293929190612999565b60405180910390f35b6101c560048036038101906101c091906125c3565b610dca565b6040516101d594939291906129d5565b60405180910390f35b6101f860048036038101906101f39190612a34565b611121565b005b610214600480360381019061020f9190612940565b61136a565b6040516102219190612b08565b60405180910390f35b610244600480360381019061023f91906125c3565b611394565b6040516102519190612b21565b60405180910390f35b610274600480360381019061026f9190612bdf565b6114ef565b005b61027e6116ec565b60405161028b9190612c48565b60405180910390f35b6102ae60048036038101906102a99190612c8b565b611710565b005b6102ca60048036038101906102c591906125c3565b6119c8565b005b6102e660048036038101906102e191906125c3565b611c0b565b005b61030260048036038101906102fd91906125c3565b611e45565b005b61031e600480360381019061031991906125c3565b6120d6565b60405161033096959493929190612cf7565b60405180910390f35b610353600480360381019061034e91906125c3565b6123b8565b005b61036f600480360381019061036a9190612940565b61252e565b60405161037c9190612b08565b60405180910390f35b60015f3373ffffffffffffffffffffffffffffffffffffffff1673ffffffffffffffffffffffffffffffffffffffff1681526020019081526020015f205f015f9054906101000a900460ff16610410576040517f08c379a000000000000000000000000000000000000000000000000000000000815260040161040790612de9565b60405180910390fd5b5f808273ffffffffffffffffffffffffffffffffffffffff1673ffffffffffffffffffffffffffffffffffffffff1681526020019081526020015f205f015f9054906101000a900460ff1661049a576040517f08c379a000000000000000000000000000000000000000000000000000000000815260040161049190612e77565b60405180910390fd5b60035f8273ffffffffffffffffffffffffffffffffffffffff1673ffffffffffffffffffffffffffffffffffffffff1681526020019081526020015f205f3373ffffffffffffffffffffffffffffffffffffffff1673ffffffffffffffffffffffffffffffffffffffff1681526020019081526020015f205f9054906101000a900460ff161561055f576040517f08c379a000000000000000000000000000000000000000000000000000000000815260040161055690612edf565b60405180910390fd5b60045f8273ffffffffffffffffffffffffffffffffffffffff1673ffffffffffffffffffffffffffffffffffffffff1681526020019081526020015f205f3373ffffffffffffffffffffffffffffffffffffffff1673ffffffffffffffffffffffffffffffffffffffff1681526020019081526020015f205f9054906101000a900460ff1615610624576040517f08c379a000000000000000000000000000000000000000000000000000000000815260040161061b90612f6d565b60405180910390fd5b600160045f8373ffffffffffffffffffffffffffffffffffffffff1673ffffffffffffffffffffffffffffffffffffffff1681526020019081526020015f205f3373ffffffffffffffffffffffffffffffffffffffff1673ffffffffffffffffffffffffffffffffffffffff1681526020019081526020015f205f6101000a81548160ff0219169083151502179055503373ffffffffffffffffffffffffffffffffffffffff168173ffffffffffffffffffffffffffffffffffffffff167f2836b27da25b9b18fc3a89b2e06ebbe3b7268f8291437c0bb6923b2b19212bcb60405160405180910390a350565b5f602052805f5260405f205f91509050805f015f9054906101000a900460ff169080600101805461074190612fb8565b80601f016020809104026020016040519081016040528092919081815260200182805461076d90612fb8565b80156107b85780601f1061078f576101008083540402835291602001916107b8565b820191905f5260205f20905b81548152906001019060200180831161079b57829003601f168201915b5050505050908060020180546107cd90612fb8565b80601f01602080910402602001604051908101604052809291908181526020018280546107f990612fb8565b80156108445780601f1061081b57610100808354040283529160200191610844565b820191905f5260205f20905b81548152906001019060200180831161082757829003601f168201915b50505050509080600301805461085990612fb8565b80601f016020809104026020016040519081016040528092919081815260200182805461088590612fb8565b80156108d05780601f106108a7576101008083540402835291602001916108d0565b820191905f5260205f20905b8154815290600101906020018083116108b357829003601f168201915b5050505050908060040180546108e590612fb8565b80601f016020809104026020016040519081016040528092919081815260200182805461091190612fb8565b801561095c5780601f106109335761010080835404028352916020019161095c565b820191905f5260205f20905b81548152906001019060200180831161093f57829003601f168201915b5050505050905085565b7f000000000000000000000000000000000000000000000000000000000000000073ffffffffffffffffffffffffffffffffffffffff163373ffffffffffffffffffffffffffffffffffffffff16146109f4576040517f08c379a00000000000000000000000000000000000000000000000000000000081526004016109eb90613058565b60405180910390fd5b60015f8773ffffffffffffffffffffffffffffffffffffffff1673ffffffffffffffffffffffffffffffffffffffff1681526020019081526020015f205f015f9054906101000a900460ff1615610a80576040517f08c379a0000000000000000000000000000000000000000000000000000000008152600401610a77906130c0565b60405180910390fd5b5f808773ffffffffffffffffffffffffffffffffffffffff1673ffffffffffffffffffffffffffffffffffffffff1681526020019081526020015f205f015f9054906101000a900460ff1615610b0b576040517f08c379a0000000000000000000000000000000000000000000000000000000008152600401610b029061314e565b60405180910390fd5b6040518060c001604052806001151581526020018681526020018581526020018481526020018381526020018281525060015f8873ffffffffffffffffffffffffffffffffffffffff1673ffffffffffffffffffffffffffffffffffffffff1681526020019081526020015f205f820151815f015f6101000a81548160ff0219169083151502179055506020820151816001019081610baa9190613312565b506040820151816002019081610bc09190613312565b506060820151816003019081610bd69190613312565b506080820151816004019081610bec9190613312565b5060a0820151816005019081610c029190613312565b509050508573ffffffffffffffffffffffffffffffffffffffff167f9388661dcd7dc6cff9b4e22ab9459ac0a2682f86cb52fc7a669a6e7f062bce4c8686604051610c4e9291906133e1565b60405180910390a2505050505050565b60605f805f60025f8773ffffffffffffffffffffffffffffffffffffffff1673ffffffffffffffffffffffffffffffffffffffff1681526020019081526020015f205f8673ffffffffffffffffffffffffffffffffffffffff1673ffffffffffffffffffffffffffffffffffffffff1681526020019081526020015f206040518060600160405290815f82018054610cf590612fb8565b80601f0160208091040260200160405190810160405280929190818152602001828054610d2190612fb8565b8015610d6c5780601f10610d4357610100808354040283529160200191610d6c565b820191905f5260205f20905b815481529060010190602001808311610d4f57829003601f168201915b50505050508152602001600182015f9054906101000a900460ff1660ff1660ff1681526020016001820160019054906101000a900460ff1615151515815250509050805f015181602001518260400151935093509350509250925092565b6060806060805f808673ffffffffffffffffffffffffffffffffffffffff1673ffffffffffffffffffffffffffffffffffffffff1681526020019081526020015f205f015f9054906101000a900460ff16610e5a576040517f08c379a0000000000000000000000000000000000000000000000000000000008152600401610e5190613460565b60405180910390fd5b5f805f8773ffffffffffffffffffffffffffffffffffffffff1673ffffffffffffffffffffffffffffffffffffffff1681526020019081526020015f206040518060a00160405290815f82015f9054906101000a900460ff16151515158152602001600182018054610ecb90612fb8565b80601f0160208091040260200160405190810160405280929190818152602001828054610ef790612fb8565b8015610f425780601f10610f1957610100808354040283529160200191610f42565b820191905f5260205f20905b815481529060010190602001808311610f2557829003601f168201915b50505050508152602001600282018054610f5b90612fb8565b80601f0160208091040260200160405190810160405280929190818152602001828054610f8790612fb8565b8015610fd25780601f10610fa957610100808354040283529160200191610fd2565b820191905f5260205f20905b815481529060010190602001808311610fb557829003601f168201915b50505050508152602001600382018054610feb90612fb8565b80601f016020809104026020016040519081016040528092919081815260200182805461101790612fb8565b80156110625780601f1061103957610100808354040283529160200191611062565b820191905f5260205f20905b81548152906001019060200180831161104557829003601f168201915b5050505050815260200160048201805461107b90612fb8565b80601f01602080910402602001604051908101604052809291908181526020018280546110a790612fb8565b80156110f25780601f106110c9576101008083540402835291602001916110f2565b820191905f5260205f20905b8154815290600101906020018083116110d557829003601f168201915b505050505081525050905080602001518160400151826060015183608001519450945094509450509193509193565b5f803373ffffffffffffffffffffffffffffffffffffffff1673ffffffffffffffffffffffffffffffffffffffff1681526020019081526020015f205f015f9054906101000a900460ff16156111ac576040517f08c379a00000000000000000000000000000000000000000000000000000000081526004016111a3906134c8565b60405180910390fd5b60015f3373ffffffffffffffffffffffffffffffffffffffff1673ffffffffffffffffffffffffffffffffffffffff1681526020019081526020015f205f015f9054906101000a900460ff1615611238576040517f08c379a000000000000000000000000000000000000000000000000000000000815260040161122f90613556565b60405180910390fd5b6040518060a00160405280600115158152602001858152602001848152602001838152602001828152505f803373ffffffffffffffffffffffffffffffffffffffff1673ffffffffffffffffffffffffffffffffffffffff1681526020019081526020015f205f820151815f015f6101000a81548160ff02191690831515021790555060208201518160010190816112d09190613312565b5060408201518160020190816112e69190613312565b5060608201518160030190816112fc9190613312565b5060808201518160040190816113129190613312565b509050503373ffffffffffffffffffffffffffffffffffffffff167fc85b128388b9c331a2a5485dce4cd0f3db9f7c279d327ce95d6d39d6c94644c78560405161135c9190612b21565b60405180910390a250505050565b6004602052815f5260405f20602052805f5260405f205f915091509054906101000a900460ff1681565b606060015f8373ffffffffffffffffffffffffffffffffffffffff1673ffffffffffffffffffffffffffffffffffffffff1681526020019081526020015f205f015f9054906101000a900460ff16611421576040517f08c379a0000000000000000000000000000000000000000000000000000000008152600401611418906135be565b60405180910390fd5b60015f8373ffffffffffffffffffffffffffffffffffffffff1673ffffffffffffffffffffffffffffffffffffffff1681526020019081526020015f20600101805461146c90612fb8565b80601f016020809104026020016040519081016040528092919081815260200182805461149890612fb8565b80156114e35780601f106114ba576101008083540402835291602001916114e3565b820191905f5260205f20905b8154815290600101906020018083116114c657829003601f168201915b50505050509050919050565b60015f3373ffffffffffffffffffffffffffffffffffffffff1673ffffffffffffffffffffffffffffffffffffffff1681526020019081526020015f205f015f9054906101000a900460ff1661157a576040517f08c379a000000000000000000000000000000000000000000000000000000000815260040161157190612de9565b60405180910390fd5b60035f8373ffffffffffffffffffffffffffffffffffffffff1673ffffffffffffffffffffffffffffffffffffffff1681526020019081526020015f205f3373ffffffffffffffffffffffffffffffffffffffff1673ffffffffffffffffffffffffffffffffffffffff1681526020019081526020015f205f9054906101000a900460ff1661163e576040517f08c379a00000000000000000000000000000000000000000000000000000000081526004016116359061364c565b60405180910390fd5b5f815111611681576040517f08c379a0000000000000000000000000000000000000000000000000000000008152600401611678906136b4565b60405180910390fd5b3373ffffffffffffffffffffffffffffffffffffffff168273ffffffffffffffffffffffffffffffffffffffff167f8fed6a2b6c4b373ec8518dd42cb708c88beb55d8806492942025f2d86118bcb742846040516116e0929190613733565b60405180910390a35050565b7f000000000000000000000000000000000000000000000000000000000000000081565b60015f3373ffffffffffffffffffffffffffffffffffffffff1673ffffffffffffffffffffffffffffffffffffffff1681526020019081526020015f205f015f9054906101000a900460ff1661179b576040517f08c379a000000000000000000000000000000000000000000000000000000000815260040161179290612de9565b60405180910390fd5b5f808473ffffffffffffffffffffffffffffffffffffffff1673ffffffffffffffffffffffffffffffffffffffff1681526020019081526020015f205f015f9054906101000a900460ff16611825576040517f08c379a000000000000000000000000000000000000000000000000000000000815260040161181c90612e77565b60405180910390fd5b60028160ff16111561186c576040517f08c379a0000000000000000000000000000000000000000000000000000000008152600401611863906137ab565b60405180910390fd5b60405180606001604052808381526020018260ff1681526020016001151581525060025f3373ffffffffffffffffffffffffffffffffffffffff1673ffffffffffffffffffffffffffffffffffffffff1681526020019081526020015f205f8573ffffffffffffffffffffffffffffffffffffffff1673ffffffffffffffffffffffffffffffffffffffff1681526020019081526020015f205f820151815f0190816119189190613312565b506020820151816001015f6101000a81548160ff021916908360ff16021790555060408201518160010160016101000a81548160ff0219169083151502179055509050508273ffffffffffffffffffffffffffffffffffffffff163373ffffffffffffffffffffffffffffffffffffffff167f2c82a2c170dc5e4dab70455f69309153b0feae1684efcfab731978937b34d7cf84846040516119bb9291906137c9565b60405180910390a3505050565b7f000000000000000000000000000000000000000000000000000000000000000073ffffffffffffffffffffffffffffffffffffffff163373ffffffffffffffffffffffffffffffffffffffff1614611a56576040517f08c379a0000000000000000000000000000000000000000000000000000000008152600401611a4d90613058565b60405180910390fd5b60015f8273ffffffffffffffffffffffffffffffffffffffff1673ffffffffffffffffffffffffffffffffffffffff1681526020019081526020015f205f015f9054906101000a900460ff16611ae1576040517f08c379a0000000000000000000000000000000000000000000000000000000008152600401611ad890613841565b60405180910390fd5b7f000000000000000000000000000000000000000000000000000000000000000073ffffffffffffffffffffffffffffffffffffffff168173ffffffffffffffffffffffffffffffffffffffff1603611b6f576040517f08c379a0000000000000000000000000000000000000000000000000000000008152600401611b66906138cf565b60405180910390fd5b5f60015f8373ffffffffffffffffffffffffffffffffffffffff1673ffffffffffffffffffffffffffffffffffffffff1681526020019081526020015f205f015f6101000a81548160ff0219169083151502179055508073ffffffffffffffffffffffffffffffffffffffff167f493d7cf6a7c880406a55654d6727464ea088bd01d40498e1987a327e68961ab860405160405180910390a250565b5f803373ffffffffffffffffffffffffffffffffffffffff1673ffffffffffffffffffffffffffffffffffffffff1681526020019081526020015f205f015f9054906101000a900460ff16611c95576040517f08c379a0000000000000000000000000000000000000000000000000000000008152600401611c8c9061395d565b60405180910390fd5b60045f3373ffffffffffffffffffffffffffffffffffffffff1673ffffffffffffffffffffffffffffffffffffffff1681526020019081526020015f205f8273ffffffffffffffffffffffffffffffffffffffff1673ffffffffffffffffffffffffffffffffffffffff1681526020019081526020015f205f9054906101000a900460ff16611d59576040517f08c379a0000000000000000000000000000000000000000000000000000000008152600401611d50906139eb565b60405180910390fd5b5f60045f3373ffffffffffffffffffffffffffffffffffffffff1673ffffffffffffffffffffffffffffffffffffffff1681526020019081526020015f205f8373ffffffffffffffffffffffffffffffffffffffff1673ffffffffffffffffffffffffffffffffffffffff1681526020019081526020015f205f6101000a81548160ff0219169083151502179055508073ffffffffffffffffffffffffffffffffffffffff163373ffffffffffffffffffffffffffffffffffffffff167fee666520c6fbc392d1a1e9c8845f759abf986e12b9927e3a452c94ce2c05d1df60405160405180910390a350565b5f803373ffffffffffffffffffffffffffffffffffffffff1673ffffffffffffffffffffffffffffffffffffffff1681526020019081526020015f205f015f9054906101000a900460ff16611ecf576040517f08c379a0000000000000000000000000000000000000000000000000000000008152600401611ec69061395d565b60405180910390fd5b60015f8273ffffffffffffffffffffffffffffffffffffffff1673ffffffffffffffffffffffffffffffffffffffff1681526020019081526020015f205f015f9054906101000a900460ff16611f5a576040517f08c379a0000000000000000000000000000000000000000000000000000000008152600401611f5190613a79565b60405180910390fd5b5f60045f3373ffffffffffffffffffffffffffffffffffffffff1673ffffffffffffffffffffffffffffffffffffffff1681526020019081526020015f205f8373ffffffffffffffffffffffffffffffffffffffff1673ffffffffffffffffffffffffffffffffffffffff1681526020019081526020015f205f6101000a81548160ff021916908315150217905550600160035f3373ffffffffffffffffffffffffffffffffffffffff1673ffffffffffffffffffffffffffffffffffffffff1681526020019081526020015f205f8373ffffffffffffffffffffffffffffffffffffffff1673ffffffffffffffffffffffffffffffffffffffff1681526020019081526020015f205f6101000a81548160ff0219169083151502179055508073ffffffffffffffffffffffffffffffffffffffff163373ffffffffffffffffffffffffffffffffffffffff167f8105c574d2239a3a4f73f5efc5bc253cffb275647df535adfa2c240739cc922060405160405180910390a350565b6001602052805f5260405f205f91509050805f015f9054906101000a900460ff169080600101805461210790612fb8565b80601f016020809104026020016040519081016040528092919081815260200182805461213390612fb8565b801561217e5780601f106121555761010080835404028352916020019161217e565b820191905f5260205f20905b81548152906001019060200180831161216157829003601f168201915b50505050509080600201805461219390612fb8565b80601f01602080910402602001604051908101604052809291908181526020018280546121bf90612fb8565b801561220a5780601f106121e15761010080835404028352916020019161220a565b820191905f5260205f20905b8154815290600101906020018083116121ed57829003601f168201915b50505050509080600301805461221f90612fb8565b80601f016020809104026020016040519081016040528092919081815260200182805461224b90612fb8565b80156122965780601f1061226d57610100808354040283529160200191612296565b820191905f5260205f20905b81548152906001019060200180831161227957829003601f168201915b5050505050908060040180546122ab90612fb8565b80601f01602080910402602001604051908101604052809291908181526020018280546122d790612fb8565b80156123225780601f106122f957610100808354040283529160200191612322565b820191905f5260205f20905b81548152906001019060200180831161230557829003601f168201915b50505050509080600501805461233790612fb8565b80601f016020809104026020016040519081016040528092919081815260200182805461236390612fb8565b80156123ae5780601f10612385576101008083540402835291602001916123ae565b820191905f5260205f20905b81548152906001019060200180831161239157829003601f168201915b5050505050905086565b5f803373ffffffffffffffffffffffffffffffffffffffff1673ffffffffffffffffffffffffffffffffffffffff1681526020019081526020015f205f015f9054906101000a900460ff16612442576040517f08c379a00000000000000000000000000000000000000000000000000000000081526004016124399061395d565b60405180910390fd5b5f60035f3373ffffffffffffffffffffffffffffffffffffffff1673ffffffffffffffffffffffffffffffffffffffff1681526020019081526020015f205f8373ffffffffffffffffffffffffffffffffffffffff1673ffffffffffffffffffffffffffffffffffffffff1681526020019081526020015f205f6101000a81548160ff0219169083151502179055508073ffffffffffffffffffffffffffffffffffffffff163373ffffffffffffffffffffffffffffffffffffffff167febecee2d3f2ea272f73dd9d9ccc0bacd11280d61240332cbcd8a68173ae5cc2c60405160405180910390a350565b6003602052815f5260405f20602052805f5260405f205f915091509054906101000a900460ff1681565b5f604051905090565b5f80fd5b5f80fd5b5f73ffffffffffffffffffffffffffffffffffffffff82169050919050565b5f61259282612569565b9050919050565b6125a281612588565b81146125ac575f80fd5b50565b5f813590506125bd81612599565b92915050565b5f602082840312156125d8576125d7612561565b5b5f6125e5848285016125af565b91505092915050565b5f8115159050919050565b612602816125ee565b82525050565b5f81519050919050565b5f82825260208201905092915050565b5f5b8381101561263f578082015181840152602081019050612624565b5f8484015250505050565b5f601f19601f8301169050919050565b5f61266482612608565b61266e8185612612565b935061267e818560208601612622565b6126878161264a565b840191505092915050565b5f60a0820190506126a55f8301886125f9565b81810360208301526126b7818761265a565b905081810360408301526126cb818661265a565b905081810360608301526126df818561265a565b905081810360808301526126f3818461265a565b90509695505050505050565b5f80fd5b5f80fd5b7f4e487b71000000000000000000000000000000000000000000000000000000005f52604160045260245ffd5b61273d8261264a565b810181811067ffffffffffffffff8211171561275c5761275b612707565b5b80604052505050565b5f61276e612558565b905061277a8282612734565b919050565b5f67ffffffffffffffff82111561279957612798612707565b5b6127a28261264a565b9050602081019050919050565b828183375f83830152505050565b5f6127cf6127ca8461277f565b612765565b9050828152602081018484840111156127eb576127ea612703565b5b6127f68482856127af565b509392505050565b5f82601f830112612812576128116126ff565b5b81356128228482602086016127bd565b91505092915050565b5f805f805f8060c0878903121561284557612844612561565b5b5f61285289828a016125af565b965050602087013567ffffffffffffffff81111561287357612872612565565b5b61287f89828a016127fe565b955050604087013567ffffffffffffffff8111156128a05761289f612565565b5b6128ac89828a016127fe565b945050606087013567ffffffffffffffff8111156128cd576128cc612565565b5b6128d989828a016127fe565b935050608087013567ffffffffffffffff8111156128fa576128f9612565565b5b61290689828a016127fe565b92505060a087013567ffffffffffffffff81111561292757612926612565565b5b61293389828a016127fe565b9150509295509295509295565b5f806040838503121561295657612955612561565b5b5f612963858286016125af565b9250506020612974858286016125af565b9150509250929050565b5f60ff82169050919050565b6129938161297e565b82525050565b5f6060820190508181035f8301526129b1818661265a565b90506129c0602083018561298a565b6129cd60408301846125f9565b949350505050565b5f6080820190508181035f8301526129ed818761265a565b90508181036020830152612a01818661265a565b90508181036040830152612a15818561265a565b90508181036060830152612a29818461265a565b905095945050505050565b5f805f8060808587031215612a4c57612a4b612561565b5b5f85013567ffffffffffffffff811115612a6957612a68612565565b5b612a75878288016127fe565b945050602085013567ffffffffffffffff811115612a9657612a95612565565b5b612aa2878288016127fe565b935050604085013567ffffffffffffffff811115612ac357612ac2612565565b5b612acf878288016127fe565b925050606085013567ffffffffffffffff811115612af057612aef612565565b5b612afc878288016127fe565b91505092959194509250565b5f602082019050612b1b5f8301846125f9565b92915050565b5f6020820190508181035f830152612b39818461265a565b905092915050565b5f67ffffffffffffffff821115612b5b57612b5a612707565b5b612b648261264a565b9050602081019050919050565b5f612b83612b7e84612b41565b612765565b905082815260208101848484011115612b9f57612b9e612703565b5b612baa8482856127af565b509392505050565b5f82601f830112612bc657612bc56126ff565b5b8135612bd6848260208601612b71565b91505092915050565b5f8060408385031215612bf557612bf4612561565b5b5f612c02858286016125af565b925050602083013567ffffffffffffffff811115612c2357612c22612565565b5b612c2f85828601612bb2565b9150509250929050565b612c4281612588565b82525050565b5f602082019050612c5b5f830184612c39565b92915050565b612c6a8161297e565b8114612c74575f80fd5b50565b5f81359050612c8581612c61565b92915050565b5f805f60608486031215612ca257612ca1612561565b5b5f612caf868287016125af565b935050602084013567ffffffffffffffff811115612cd057612ccf612565565b5b612cdc868287016127fe565b9250506040612ced86828701612c77565b9150509250925092565b5f60c082019050612d0a5f8301896125f9565b8181036020830152612d1c818861265a565b90508181036040830152612d30818761265a565b90508181036060830152612d44818661265a565b90508181036080830152612d58818561265a565b905081810360a0830152612d6c818461265a565b9050979650505050505050565b7f43616c6c6572206973206e6f7420616e20617574686f72697a656420646f63745f8201527f6f72000000000000000000000000000000000000000000000000000000000000602082015250565b5f612dd3602283612612565b9150612dde82612d79565b604082019050919050565b5f6020820190508181035f830152612e0081612dc7565b9050919050565b7f41646472657373206973206e6f742061207265676973746572656420706174695f8201527f656e742e00000000000000000000000000000000000000000000000000000000602082015250565b5f612e61602483612612565b9150612e6c82612e07565b604082019050919050565b5f6020820190508181035f830152612e8e81612e55565b9050919050565b7f436f6e73656e7420697320616c7265616479206772616e7465642e00000000005f82015250565b5f612ec9601b83612612565b9150612ed482612e95565b602082019050919050565b5f6020820190508181035f830152612ef681612ebd565b9050919050565b7f436f6e73656e74207265717565737420697320616c72656164792070656e64695f8201527f6e672e0000000000000000000000000000000000000000000000000000000000602082015250565b5f612f57602383612612565b9150612f6282612efd565b604082019050919050565b5f6020820190508181035f830152612f8481612f4b565b9050919050565b7f4e487b71000000000000000000000000000000000000000000000000000000005f52602260045260245ffd5b5f6002820490506001821680612fcf57607f821691505b602082108103612fe257612fe1612f8b565b5b50919050565b7f4f6e6c79206f776e65722063616e20706572666f726d207468697320616374695f8201527f6f6e000000000000000000000000000000000000000000000000000000000000602082015250565b5f613042602283612612565b915061304d82612fe8565b604082019050919050565b5f6020820190508181035f83015261306f81613036565b9050919050565b7f446f63746f7220697320616c72656164792072656769737465726564000000005f82015250565b5f6130aa601c83612612565b91506130b582613076565b602082019050919050565b5f6020820190508181035f8301526130d78161309e565b9050919050565b7f4164647265737320697320616c726561647920726567697374657265642061735f8201527f20612070617469656e7400000000000000000000000000000000000000000000602082015250565b5f613138602a83612612565b9150613143826130de565b604082019050919050565b5f6020820190508181035f8301526131658161312c565b9050919050565b5f819050815f5260205f209050919050565b5f6020601f8301049050919050565b5f82821b905092915050565b5f600883026131c87fffffffffffffffffffffffffffffffffffffffffffffffffffffffffffffffff8261318d565b6131d2868361318d565b95508019841693508086168417925050509392505050565b5f819050919050565b5f819050919050565b5f61321661321161320c846131ea565b6131f3565b6131ea565b9050919050565b5f819050919050565b61322f836131fc565b61324361323b8261321d565b848454613199565b825550505050565b5f90565b61325761324b565b613262818484613226565b505050565b5b818110156132855761327a5f8261324f565b600181019050613268565b5050565b601f8211156132ca5761329b8161316c565b6132a48461317e565b810160208510156132b3578190505b6132c76132bf8561317e565b830182613267565b50505b505050565b5f82821c905092915050565b5f6132ea5f19846008026132cf565b1980831691505092915050565b5f61330283836132db565b9150826002028217905092915050565b61331b82612608565b67ffffffffffffffff81111561333457613333612707565b5b61333e8254612fb8565b613349828285613289565b5f60209050601f83116001811461337a575f8415613368578287015190505b61337285826132f7565b8655506133d9565b601f1984166133888661316c565b5f5b828110156133af5784890151825560018201915060208501945060208101905061338a565b868310156133cc57848901516133c8601f8916826132db565b8355505b6001600288020188555050505b505050505050565b5f6040820190508181035f8301526133f9818561265a565b9050818103602083015261340d818461265a565b90509392505050565b7f4e6f74206120726567697374657265642070617469656e742e000000000000005f82015250565b5f61344a601983612612565b915061345582613416565b602082019050919050565b5f6020820190508181035f8301526134778161343e565b9050919050565b7f416c7265616479207265676973746572656420617320612070617469656e742e5f82015250565b5f6134b2602083612612565b91506134bd8261347e565b602082019050919050565b5f6020820190508181035f8301526134df816134a6565b9050919050565b7f446f63746f72732063616e6e6f742072656769737465722061732070617469655f8201527f6e74732e00000000000000000000000000000000000000000000000000000000602082015250565b5f613540602483612612565b915061354b826134e6565b604082019050919050565b5f6020820190508181035f83015261356d81613534565b9050919050565b7f4e6f7420616e20617574686f72697a656420646f63746f722e000000000000005f82015250565b5f6135a8601983612612565b91506135b382613574565b602082019050919050565b5f6020820190508181035f8301526135d58161359c565b9050919050565b7f50617469656e7420686173206e6f74206772616e74656420636f6e73656e74205f8201527f746f207468697320646f63746f722e0000000000000000000000000000000000602082015250565b5f613636602f83612612565b9150613641826135dc565b604082019050919050565b5f6020820190508181035f8301526136638161362a565b9050919050565b7f456e6372797074656420646174612063616e6e6f7420626520656d7074792e005f82015250565b5f61369e601f83612612565b91506136a98261366a565b602082019050919050565b5f6020820190508181035f8301526136cb81613692565b9050919050565b6136db816131ea565b82525050565b5f81519050919050565b5f82825260208201905092915050565b5f613705826136e1565b61370f81856136eb565b935061371f818560208601612622565b6137288161264a565b840191505092915050565b5f6040820190506137465f8301856136d2565b818103602083015261375881846136fb565b90509392505050565b7f496e76616c6964207374617475732076616c75652e00000000000000000000005f82015250565b5f613795601583612612565b91506137a082613761565b602082019050919050565b5f6020820190508181035f8301526137c281613789565b9050919050565b5f6040820190508181035f8301526137e1818561265a565b90506137f0602083018461298a565b9392505050565b7f41646472657373206973206e6f74206120646f63746f722e00000000000000005f82015250565b5f61382b601883612612565b9150613836826137f7565b602082019050919050565b5f6020820190508181035f8301526138588161381f565b9050919050565b7f43616e6e6f742072656d6f766520746865206f776e657220617320646f63746f5f8201527f722e000000000000000000000000000000000000000000000000000000000000602082015250565b5f6138b9602283612612565b91506138c48261385f565b604082019050919050565b5f6020820190508181035f8301526138e6816138ad565b9050919050565b7f43616c6c6572206973206e6f74206120726567697374657265642070617469655f8201527f6e74000000000000000000000000000000000000000000000000000000000000602082015250565b5f613947602283612612565b9150613952826138ed565b604082019050919050565b5f6020820190508181035f8301526139748161393b565b9050919050565b7f4e6f2070656e64696e6720636f6e73656e7420726571756573742066726f6d205f8201527f7468697320646f63746f722e0000000000000000000000000000000000000000602082015250565b5f6139d5602c83612612565b91506139e08261397b565b604082019050919050565b5f6020820190508181035f830152613a02816139c9565b9050919050565b7f41646472657373206973206e6f7420616e20617574686f72697a656420646f635f8201527f746f722e00000000000000000000000000000000000000000000000000000000602082015250565b5f613a63602483612612565b9150613a6e82613a09565b604082019050919050565b5f6020820190508181035f830152613a9081613a57565b905091905056fea26469706673582212208f192389a0429e41e7e522e181b4b7c929da6e865bcd2166a73092e9b5ab144964736f6c63430008150033",
					"opcodes": "PUSH1 0xA0 PUSH1 0x40 MSTORE CALLVALUE DUP1 ISZERO PUSH3 0x10 JUMPI PUSH0 DUP1 REVERT JUMPDEST POP CALLER PUSH20 0xFFFFFFFFFFFFFFFFFFFFFFFFFFFFFFFFFFFFFFFF AND PUSH1 0x80 DUP2 PUSH20 0xFFFFFFFFFFFFFFFFFFFFFFFFFFFFFFFFFFFFFFFF AND DUP2 MSTORE POP POP PUSH1 0x40 MLOAD DUP1 PUSH1 0xC0 ADD PUSH1 0x40 MSTORE DUP1 PUSH1 0x1 ISZERO ISZERO DUP2 MSTORE PUSH1 0x20 ADD PUSH1 0x40 MLOAD DUP1 PUSH1 0x40 ADD PUSH1 0x40 MSTORE DUP1 PUSH1 0x5 DUP2 MSTORE PUSH1 0x20 ADD PUSH32 0x41646D696E000000000000000000000000000000000000000000000000000000 DUP2 MSTORE POP DUP2 MSTORE PUSH1 0x20 ADD PUSH1 0x40 MLOAD DUP1 PUSH1 0x40 ADD PUSH1 0x40 MSTORE DUP1 PUSH1 0xB DUP2 MSTORE PUSH1 0x20 ADD PUSH32 0x436C696E69632053616C65000000000000000000000000000000000000000000 DUP2 MSTORE POP DUP2 MSTORE PUSH1 0x20 ADD PUSH1 0x40 MLOAD DUP1 PUSH1 0x40 ADD PUSH1 0x40 MSTORE DUP1 PUSH1 0xD DUP2 MSTORE PUSH1 0x20 ADD PUSH32 0x4D6F726F63636F2F526162617400000000000000000000000000000000000000 DUP2 MSTORE POP DUP2 MSTORE PUSH1 0x20 ADD PUSH1 0x40 MLOAD DUP1 PUSH1 0x40 ADD PUSH1 0x40 MSTORE DUP1 PUSH1 0x5 DUP2 MSTORE PUSH1 0x20 ADD PUSH32 0x30383A3030000000000000000000000000000000000000000000000000000000 DUP2 MSTORE POP DUP2 MSTORE PUSH1 0x20 ADD PUSH1 0x40 MLOAD DUP1 PUSH1 0x40 ADD PUSH1 0x40 MSTORE DUP1 PUSH1 0x5 DUP2 MSTORE PUSH1 0x20 ADD PUSH32 0x31383A3030000000000000000000000000000000000000000000000000000000 DUP2 MSTORE POP DUP2 MSTORE POP PUSH1 0x1 PUSH0 PUSH1 0x80 MLOAD PUSH20 0xFFFFFFFFFFFFFFFFFFFFFFFFFFFFFFFFFFFFFFFF AND PUSH20 0xFFFFFFFFFFFFFFFFFFFFFFFFFFFFFFFFFFFFFFFF AND DUP2 MSTORE PUSH1 0x20 ADD SWAP1 DUP2 MSTORE PUSH1 0x20 ADD PUSH0 KECCAK256 PUSH0 DUP3 ADD MLOAD DUP2 PUSH0 ADD PUSH0 PUSH2 0x100 EXP DUP2 SLOAD DUP2 PUSH1 0xFF MUL NOT AND SWAP1 DUP4 ISZERO ISZERO MUL OR SWAP1 SSTORE POP PUSH1 0x20 DUP3 ADD MLOAD DUP2 PUSH1 0x1 ADD SWAP1 DUP2 PUSH3 0x1F1 SWAP2 SWAP1 PUSH3 0x50F JUMP JUMPDEST POP PUSH1 0x40 DUP3 ADD MLOAD DUP2 PUSH1 0x2 ADD SWAP1 DUP2 PUSH3 0x209 SWAP2 SWAP1 PUSH3 0x50F JUMP JUMPDEST POP PUSH1 0x60 DUP3 ADD MLOAD DUP2 PUSH1 0x3 ADD SWAP1 DUP2 PUSH3 0x221 SWAP2 SWAP1 PUSH3 0x50F JUMP JUMPDEST POP PUSH1 0x80 DUP3 ADD MLOAD DUP2 PUSH1 0x4 ADD SWAP1 DUP2 PUSH3 0x239 SWAP2 SWAP1 PUSH3 0x50F JUMP JUMPDEST POP PUSH1 0xA0 DUP3 ADD MLOAD DUP2 PUSH1 0x5 ADD SWAP1 DUP2 PUSH3 0x251 SWAP2 SWAP1 PUSH3 0x50F JUMP JUMPDEST POP SWAP1 POP POP PUSH1 0x80 MLOAD PUSH20 0xFFFFFFFFFFFFFFFFFFFFFFFFFFFFFFFFFFFFFFFF AND PUSH32 0x9388661DCD7DC6CFF9B4E22AB9459AC0A2682F86CB52FC7A669A6E7F062BCE4C PUSH1 0x40 MLOAD PUSH3 0x29D SWAP1 PUSH3 0x69F JUMP JUMPDEST PUSH1 0x40 MLOAD DUP1 SWAP2 SUB SWAP1 LOG2 PUSH3 0x6D4 JUMP JUMPDEST PUSH0 DUP2 MLOAD SWAP1 POP SWAP2 SWAP1 POP JUMP JUMPDEST PUSH32 0x4E487B7100000000000000000000000000000000000000000000000000000000 PUSH0 MSTORE PUSH1 0x41 PUSH1 0x4 MSTORE PUSH1 0x24 PUSH0 REVERT JUMPDEST PUSH32 0x4E487B7100000000000000000000000000000000000000000000000000000000 PUSH0 MSTORE PUSH1 0x22 PUSH1 0x4 MSTORE PUSH1 0x24 PUSH0 REVERT JUMPDEST PUSH0 PUSH1 0x2 DUP3 DIV SWAP1 POP PUSH1 0x1 DUP3 AND DUP1 PUSH3 0x327 JUMPI PUSH1 0x7F DUP3 AND SWAP2 POP JUMPDEST PUSH1 0x20 DUP3 LT DUP2 SUB PUSH3 0x33D JUMPI PUSH3 0x33C PUSH3 0x2E2 JUMP JUMPDEST JUMPDEST POP SWAP2 SWAP1 POP JUMP JUMPDEST PUSH0 DUP2 SWAP1 POP DUP2 PUSH0 MSTORE PUSH1 0x20 PUSH0 KECCAK256 SWAP1 POP SWAP2 SWAP1 POP JUMP JUMPDEST PUSH0 PUSH1 0x20 PUSH1 0x1F DUP4 ADD DIV SWAP1 POP SWAP2 SWAP1 POP JUMP JUMPDEST PUSH0 DUP3 DUP3 SHL SWAP1 POP SWAP3 SWAP2 POP POP JUMP JUMPDEST PUSH0 PUSH1 0x8 DUP4 MUL PUSH3 0x3A1 PUSH32 0xFFFFFFFFFFFFFFFFFFFFFFFFFFFFFFFFFFFFFFFFFFFFFFFFFFFFFFFFFFFFFFFF DUP3 PUSH3 0x364 JUMP JUMPDEST PUSH3 0x3AD DUP7 DUP4 PUSH3 0x364 JUMP JUMPDEST SWAP6 POP DUP1 NOT DUP5 AND SWAP4 POP DUP1 DUP7 AND DUP5 OR SWAP3 POP POP POP SWAP4 SWAP3 POP POP POP JUMP JUMPDEST PUSH0 DUP2 SWAP1 POP SWAP2 SWAP1 POP JUMP JUMPDEST PUSH0 DUP2 SWAP1 POP SWAP2 SWAP1 POP JUMP JUMPDEST PUSH0 PUSH3 0x3F7 PUSH3 0x3F1 PUSH3 0x3EB DUP5 PUSH3 0x3C5 JUMP JUMPDEST PUSH3 0x3CE JUMP JUMPDEST PUSH3 0x3C5 JUMP JUMPDEST SWAP1 POP SWAP2 SWAP1 POP JUMP JUMPDEST PUSH0 DUP2 SWAP1 POP SWAP2 SWAP1 POP JUMP JUMPDEST PUSH3 0x412 DUP4 PUSH3 0x3D7 JUMP JUMPDEST PUSH3 0x42A PUSH3 0x421 DUP3 PUSH3 0x3FE JUMP JUMPDEST DUP5 DUP5 SLOAD PUSH3 0x370 JUMP JUMPDEST DUP3 SSTORE POP POP POP POP JUMP JUMPDEST PUSH0 SWAP1 JUMP JUMPDEST PUSH3 0x440 PUSH3 0x432 JUMP JUMPDEST PUSH3 0x44D DUP2 DUP5 DUP5 PUSH3 0x407 JUMP JUMPDEST POP POP POP JUMP JUMPDEST JUMPDEST DUP2 DUP2 LT ISZERO PUSH3 0x474 JUMPI PUSH3 0x468 PUSH0 DUP3 PUSH3 0x436 JUMP JUMPDEST PUSH1 0x1 DUP2 ADD SWAP1 POP PUSH3 0x453 JUMP JUMPDEST POP POP JUMP JUMPDEST PUSH1 0x1F DUP3 GT ISZERO PUSH3 0x4C3 JUMPI PUSH3 0x48D DUP2 PUSH3 0x343 JUMP JUMPDEST PUSH3 0x498 DUP5 PUSH3 0x355 JUMP JUMPDEST DUP2 ADD PUSH1 0x20 DUP6 LT ISZERO PUSH3 0x4A8 JUMPI DUP2 SWAP1 POP JUMPDEST PUSH3 0x4C0 PUSH3 0x4B7 DUP6 PUSH3 0x355 JUMP JUMPDEST DUP4 ADD DUP3 PUSH3 0x452 JUMP JUMPDEST POP POP JUMPDEST POP POP POP JUMP JUMPDEST PUSH0 DUP3 DUP3 SHR SWAP1 POP SWAP3 SWAP2 POP POP JUMP JUMPDEST PUSH0 PUSH3 0x4E5 PUSH0 NOT DUP5 PUSH1 0x8 MUL PUSH3 0x4C8 JUMP JUMPDEST NOT DUP1 DUP4 AND SWAP2 POP POP SWAP3 SWAP2 POP POP JUMP JUMPDEST PUSH0 PUSH3 0x4FF DUP4 DUP4 PUSH3 0x4D4 JUMP JUMPDEST SWAP2 POP DUP3 PUSH1 0x2 MUL DUP3 OR SWAP1 POP SWAP3 SWAP2 POP POP JUMP JUMPDEST PUSH3 0x51A DUP3 PUSH3 0x2AB JUMP JUMPDEST PUSH8 0xFFFFFFFFFFFFFFFF DUP2 GT ISZERO PUSH3 0x536 JUMPI PUSH3 0x535 PUSH3 0x2B5 JUMP JUMPDEST JUMPDEST PUSH3 0x542 DUP3 SLOAD PUSH3 0x30F JUMP JUMPDEST PUSH3 0x54F DUP3 DUP3 DUP6 PUSH3 0x478 JUMP JUMPDEST PUSH0 PUSH1 0x20 SWAP1 POP PUSH1 0x1F DUP4 GT PUSH1 0x1 DUP2 EQ PUSH3 0x585 JUMPI PUSH0 DUP5 ISZERO PUSH3 0x570 JUMPI DUP3 DUP8 ADD MLOAD SWAP1 POP JUMPDEST PUSH3 0x57C DUP6 DUP3 PUSH3 0x4F2 JUMP JUMPDEST DUP7 SSTORE POP PUSH3 0x5EB JUMP JUMPDEST PUSH1 0x1F NOT DUP5 AND PUSH3 0x595 DUP7 PUSH3 0x343 JUMP JUMPDEST PUSH0 JUMPDEST DUP3 DUP2 LT ISZERO PUSH3 0x5BE JUMPI DUP5 DUP10 ADD MLOAD DUP3 SSTORE PUSH1 0x1 DUP3 ADD SWAP2 POP PUSH1 0x20 DUP6 ADD SWAP5 POP PUSH1 0x20 DUP2 ADD SWAP1 POP PUSH3 0x597 JUMP JUMPDEST DUP7 DUP4 LT ISZERO PUSH3 0x5DE JUMPI DUP5 DUP10 ADD MLOAD PUSH3 0x5DA PUSH1 0x1F DUP10 AND DUP3 PUSH3 0x4D4 JUMP JUMPDEST DUP4 SSTORE POP JUMPDEST PUSH1 0x1 PUSH1 0x2 DUP9 MUL ADD DUP9 SSTORE POP POP POP JUMPDEST POP POP POP POP POP POP JUMP JUMPDEST PUSH0 DUP3 DUP3 MSTORE PUSH1 0x20 DUP3 ADD SWAP1 POP SWAP3 SWAP2 POP POP JUMP JUMPDEST PUSH32 0x41646D696E000000000000000000000000000000000000000000000000000000 PUSH0 DUP3 ADD MSTORE POP JUMP JUMPDEST PUSH0 PUSH3 0x639 PUSH1 0x5 DUP4 PUSH3 0x5F3 JUMP JUMPDEST SWAP2 POP PUSH3 0x646 DUP3 PUSH3 0x603 JUMP JUMPDEST PUSH1 0x20 DUP3 ADD SWAP1 POP SWAP2 SWAP1 POP JUMP JUMPDEST PUSH32 0x436C696E69632053616C65000000000000000000000000000000000000000000 PUSH0 DUP3 ADD MSTORE POP JUMP JUMPDEST PUSH0 PUSH3 0x687 PUSH1 0xB DUP4 PUSH3 0x5F3 JUMP JUMPDEST SWAP2 POP PUSH3 0x694 DUP3 PUSH3 0x651 JUMP JUMPDEST PUSH1 0x20 DUP3 ADD SWAP1 POP SWAP2 SWAP1 POP JUMP JUMPDEST PUSH0 PUSH1 0x40 DUP3 ADD SWAP1 POP DUP2 DUP2 SUB PUSH0 DUP4 ADD MSTORE PUSH3 0x6B8 DUP2 PUSH3 0x62B JUMP JUMPDEST SWAP1 POP DUP2 DUP2 SUB PUSH1 0x20 DUP4 ADD MSTORE PUSH3 0x6CD DUP2 PUSH3 0x679 JUMP JUMPDEST SWAP1 POP SWAP2 SWAP1 POP JUMP JUMPDEST PUSH1 0x80 MLOAD PUSH2 0x3ACD PUSH3 0x702 PUSH0 CODECOPY PUSH0 DUP2 DUP2 PUSH2 0x968 ADD MSTORE DUP2 DUP2 PUSH2 0x16EE ADD MSTORE DUP2 DUP2 PUSH2 0x19CA ADD MSTORE PUSH2 0x1AE3 ADD MSTORE PUSH2 0x3ACD PUSH0 RETURN INVALID PUSH1 0x80 PUSH1 0x40 MSTORE CALLVALUE DUP1 ISZERO PUSH2 0xF JUMPI PUSH0 DUP1 REVERT JUMPDEST POP PUSH1 0x4 CALLDATASIZE LT PUSH2 0x109 JUMPI PUSH0 CALLDATALOAD PUSH1 0xE0 SHR DUP1 PUSH4 0x87FEE61C GT PUSH2 0xA0 JUMPI DUP1 PUSH4 0xA46AEF40 GT PUSH2 0x6F JUMPI DUP1 PUSH4 0xA46AEF40 EQ PUSH2 0x2CC JUMPI DUP1 PUSH4 0xA79861F1 EQ PUSH2 0x2E8 JUMPI DUP1 PUSH4 0xA9583C22 EQ PUSH2 0x304 JUMPI DUP1 PUSH4 0xD1A48627 EQ PUSH2 0x339 JUMPI DUP1 PUSH4 0xF68B68F6 EQ PUSH2 0x355 JUMPI PUSH2 0x109 JUMP JUMPDEST DUP1 PUSH4 0x87FEE61C EQ PUSH2 0x25A JUMPI DUP1 PUSH4 0x8DA5CB5B EQ PUSH2 0x276 JUMPI DUP1 PUSH4 0x9897CF96 EQ PUSH2 0x294 JUMPI DUP1 PUSH4 0x98FC90E9 EQ PUSH2 0x2B0 JUMPI PUSH2 0x109 JUMP JUMPDEST DUP1 PUSH4 0x461A2082 GT PUSH2 0xDC JUMPI DUP1 PUSH4 0x461A2082 EQ PUSH2 0x1AB JUMPI DUP1 PUSH4 0x4BA0A020 EQ PUSH2 0x1DE JUMPI DUP1 PUSH4 0x53C1A042 EQ PUSH2 0x1FA JUMPI DUP1 PUSH4 0x5CBCD8EB EQ PUSH2 0x22A JUMPI PUSH2 0x109 JUMP JUMPDEST DUP1 PUSH4 0x37F8248 EQ PUSH2 0x10D JUMPI DUP1 PUSH4 0x869CFBC EQ PUSH2 0x129 JUMPI DUP1 PUSH4 0x1128C9EA EQ PUSH2 0x15D JUMPI DUP1 PUSH4 0x1E6A315C EQ PUSH2 0x179 JUMPI JUMPDEST PUSH0 DUP1 REVERT JUMPDEST PUSH2 0x127 PUSH1 0x4 DUP1 CALLDATASIZE SUB DUP2 ADD SWAP1 PUSH2 0x122 SWAP2 SWAP1 PUSH2 0x25C3 JUMP JUMPDEST PUSH2 0x385 JUMP JUMPDEST STOP JUMPDEST PUSH2 0x143 PUSH1 0x4 DUP1 CALLDATASIZE SUB DUP2 ADD SWAP1 PUSH2 0x13E SWAP2 SWAP1 PUSH2 0x25C3 JUMP JUMPDEST PUSH2 0x711 JUMP JUMPDEST PUSH1 0x40 MLOAD PUSH2 0x154 SWAP6 SWAP5 SWAP4 SWAP3 SWAP2 SWAP1 PUSH2 0x2692 JUMP JUMPDEST PUSH1 0x40 MLOAD DUP1 SWAP2 SUB SWAP1 RETURN JUMPDEST PUSH2 0x177 PUSH1 0x4 DUP1 CALLDATASIZE SUB DUP2 ADD SWAP1 PUSH2 0x172 SWAP2 SWAP1 PUSH2 0x282B JUMP JUMPDEST PUSH2 0x966 JUMP JUMPDEST STOP JUMPDEST PUSH2 0x193 PUSH1 0x4 DUP1 CALLDATASIZE SUB DUP2 ADD SWAP1 PUSH2 0x18E SWAP2 SWAP1 PUSH2 0x2940 JUMP JUMPDEST PUSH2 0xC5E JUMP JUMPDEST PUSH1 0x40 MLOAD PUSH2 0x1A2 SWAP4 SWAP3 SWAP2 SWAP1 PUSH2 0x2999 JUMP JUMPDEST PUSH1 0x40 MLOAD DUP1 SWAP2 SUB SWAP1 RETURN JUMPDEST PUSH2 0x1C5 PUSH1 0x4 DUP1 CALLDATASIZE SUB DUP2 ADD SWAP1 PUSH2 0x1C0 SWAP2 SWAP1 PUSH2 0x25C3 JUMP JUMPDEST PUSH2 0xDCA JUMP JUMPDEST PUSH1 0x40 MLOAD PUSH2 0x1D5 SWAP5 SWAP4 SWAP3 SWAP2 SWAP1 PUSH2 0x29D5 JUMP JUMPDEST PUSH1 0x40 MLOAD DUP1 SWAP2 SUB SWAP1 RETURN JUMPDEST PUSH2 0x1F8 PUSH1 0x4 DUP1 CALLDATASIZE SUB DUP2 ADD SWAP1 PUSH2 0x1F3 SWAP2 SWAP1 PUSH2 0x2A34 JUMP JUMPDEST PUSH2 0x1121 JUMP JUMPDEST STOP JUMPDEST PUSH2 0x214 PUSH1 0x4 DUP1 CALLDATASIZE SUB DUP2 ADD SWAP1 PUSH2 0x20F SWAP2 SWAP1 PUSH2 0x2940 JUMP JUMPDEST PUSH2 0x136A JUMP JUMPDEST PUSH1 0x40 MLOAD PUSH2 0x221 SWAP2 SWAP1 PUSH2 0x2B08 JUMP JUMPDEST PUSH1 0x40 MLOAD DUP1 SWAP2 SUB SWAP1 RETURN JUMPDEST PUSH2 0x244 PUSH1 0x4 DUP1 CALLDATASIZE SUB DUP2 ADD SWAP1 PUSH2 0x23F SWAP2 SWAP1 PUSH2 0x25C3 JUMP JUMPDEST PUSH2 0x1394 JUMP JUMPDEST PUSH1 0x40 MLOAD PUSH2 0x251 SWAP2 SWAP1 PUSH2 0x2B21 JUMP JUMPDEST PUSH1 0x40 MLOAD DUP1 SWAP2 SUB SWAP1 RETURN JUMPDEST PUSH2 0x274 PUSH1 0x4 DUP1 CALLDATASIZE SUB DUP2 ADD SWAP1 PUSH2 0x26F SWAP2 SWAP1 PUSH2 0x2BDF JUMP JUMPDEST PUSH2 0x14EF JUMP JUMPDEST STOP JUMPDEST PUSH2 0x27E PUSH2 0x16EC JUMP JUMPDEST PUSH1 0x40 MLOAD PUSH2 0x28B SWAP2 SWAP1 PUSH2 0x2C48 JUMP JUMPDEST PUSH1 0x40 MLOAD DUP1 SWAP2 SUB SWAP1 RETURN JUMPDEST PUSH2 0x2AE PUSH1 0x4 DUP1 CALLDATASIZE SUB DUP2 ADD SWAP1 PUSH2 0x2A9 SWAP2 SWAP1 PUSH2 0x2C8B JUMP JUMPDEST PUSH2 0x1710 JUMP JUMPDEST STOP JUMPDEST PUSH2 0x2CA PUSH1 0x4 DUP1 CALLDATASIZE SUB DUP2 ADD SWAP1 PUSH2 0x2C5 SWAP2 SWAP1 PUSH2 0x25C3 JUMP JUMPDEST PUSH2 0x19C8 JUMP JUMPDEST STOP JUMPDEST PUSH2 0x2E6 PUSH1 0x4 DUP1 CALLDATASIZE SUB DUP2 ADD SWAP1 PUSH2 0x2E1 SWAP2 SWAP1 PUSH2 0x25C3 JUMP JUMPDEST PUSH2 0x1C0B JUMP JUMPDEST STOP JUMPDEST PUSH2 0x302 PUSH1 0x4 DUP1 CALLDATASIZE SUB DUP2 ADD SWAP1 PUSH2 0x2FD SWAP2 SWAP1 PUSH2 0x25C3 JUMP JUMPDEST PUSH2 0x1E45 JUMP JUMPDEST STOP JUMPDEST PUSH2 0x31E PUSH1 0x4 DUP1 CALLDATASIZE SUB DUP2 ADD SWAP1 PUSH2 0x319 SWAP2 SWAP1 PUSH2 0x25C3 JUMP JUMPDEST PUSH2 0x20D6 JUMP JUMPDEST PUSH1 0x40 MLOAD PUSH2 0x330 SWAP7 SWAP6 SWAP5 SWAP4 SWAP3 SWAP2 SWAP1 PUSH2 0x2CF7 JUMP JUMPDEST PUSH1 0x40 MLOAD DUP1 SWAP2 SUB SWAP1 RETURN JUMPDEST PUSH2 0x353 PUSH1 0x4 DUP1 CALLDATASIZE SUB DUP2 ADD SWAP1 PUSH2 0x34E SWAP2 SWAP1 PUSH2 0x25C3 JUMP JUMPDEST PUSH2 0x23B8 JUMP JUMPDEST STOP JUMPDEST PUSH2 0x36F PUSH1 0x4 DUP1 CALLDATASIZE SUB DUP2 ADD SWAP1 PUSH2 0x36A SWAP2 SWAP1 PUSH2 0x2940 JUMP JUMPDEST PUSH2 0x252E JUMP JUMPDEST PUSH1 0x40 MLOAD PUSH2 0x37C SWAP2 SWAP1 PUSH2 0x2B08 JUMP JUMPDEST PUSH1 0x40 MLOAD DUP1 SWAP2 SUB SWAP1 RETURN JUMPDEST PUSH1 0x1 PUSH0 CALLER PUSH20 0xFFFFFFFFFFFFFFFFFFFFFFFFFFFFFFFFFFFFFFFF AND PUSH20 0xFFFFFFFFFFFFFFFFFFFFFFFFFFFFFFFFFFFFFFFF AND DUP2 MSTORE PUSH1 0x20 ADD SWAP1 DUP2 MSTORE PUSH1 0x20 ADD PUSH0 KECCAK256 PUSH0 ADD PUSH0 SWAP1 SLOAD SWAP1 PUSH2 0x100 EXP SWAP1 DIV PUSH1 0xFF AND PUSH2 0x410 JUMPI PUSH1 0x40 MLOAD PUSH32 0x8C379A000000000000000000000000000000000000000000000000000000000 DUP2 MSTORE PUSH1 0x4 ADD PUSH2 0x407 SWAP1 PUSH2 0x2DE9 JUMP JUMPDEST PUSH1 0x40 MLOAD DUP1 SWAP2 SUB SWAP1 REVERT JUMPDEST PUSH0 DUP1 DUP3 PUSH20 0xFFFFFFFFFFFFFFFFFFFFFFFFFFFFFFFFFFFFFFFF AND PUSH20 0xFFFFFFFFFFFFFFFFFFFFFFFFFFFFFFFFFFFFFFFF AND DUP2 MSTORE PUSH1 0x20 ADD SWAP1 DUP2 MSTORE PUSH1 0x20 ADD PUSH0 KECCAK256 PUSH0 ADD PUSH0 SWAP1 SLOAD SWAP1 PUSH2 0x100 EXP SWAP1 DIV PUSH1 0xFF AND PUSH2 0x49A JUMPI PUSH1 0x40 MLOAD PUSH32 0x8C379A000000000000000000000000000000000000000000000000000000000 DUP2 MSTORE PUSH1 0x4 ADD PUSH2 0x491 SWAP1 PUSH2 0x2E77 JUMP JUMPDEST PUSH1 0x40 MLOAD DUP1 SWAP2 SUB SWAP1 REVERT JUMPDEST PUSH1 0x3 PUSH0 DUP3 PUSH20 0xFFFFFFFFFFFFFFFFFFFFFFFFFFFFFFFFFFFFFFFF AND PUSH20 0xFFFFFFFFFFFFFFFFFFFFFFFFFFFFFFFFFFFFFFFF AND DUP2 MSTORE PUSH1 0x20 ADD SWAP1 DUP2 MSTORE PUSH1 0x20 ADD PUSH0 KECCAK256 PUSH0 CALLER PUSH20 0xFFFFFFFFFFFFFFFFFFFFFFFFFFFFFFFFFFFFFFFF AND PUSH20 0xFFFFFFFFFFFFFFFFFFFFFFFFFFFFFFFFFFFFFFFF AND DUP2 MSTORE PUSH1 0x20 ADD SWAP1 DUP2 MSTORE PUSH1 0x20 ADD PUSH0 KECCAK256 PUSH0 SWAP1 SLOAD SWAP1 PUSH2 0x100 EXP SWAP1 DIV PUSH1 0xFF AND ISZERO PUSH2 0x55F JUMPI PUSH1 0x40 MLOAD PUSH32 0x8C379A000000000000000000000000000000000000000000000000000000000 DUP2 MSTORE PUSH1 0x4 ADD PUSH2 0x556 SWAP1 PUSH2 0x2EDF JUMP JUMPDEST PUSH1 0x40 MLOAD DUP1 SWAP2 SUB SWAP1 REVERT JUMPDEST PUSH1 0x4 PUSH0 DUP3 PUSH20 0xFFFFFFFFFFFFFFFFFFFFFFFFFFFFFFFFFFFFFFFF AND PUSH20 0xFFFFFFFFFFFFFFFFFFFFFFFFFFFFFFFFFFFFFFFF AND DUP2 MSTORE PUSH1 0x20 ADD SWAP1 DUP2 MSTORE PUSH1 0x20 ADD PUSH0 KECCAK256 PUSH0 CALLER PUSH20 0xFFFFFFFFFFFFFFFFFFFFFFFFFFFFFFFFFFFFFFFF AND PUSH20 0xFFFFFFFFFFFFFFFFFFFFFFFFFFFFFFFFFFFFFFFF AND DUP2 MSTORE PUSH1 0x20 ADD SWAP1 DUP2 MSTORE PUSH1 0x20 ADD PUSH0 KECCAK256 PUSH0 SWAP1 SLOAD SWAP1 PUSH2 0x100 EXP SWAP1 DIV PUSH1 0xFF AND ISZERO PUSH2 0x624 JUMPI PUSH1 0x40 MLOAD PUSH32 0x8C379A000000000000000000000000000000000000000000000000000000000 DUP2 MSTORE PUSH1 0x4 ADD PUSH2 0x61B SWAP1 PUSH2 0x2F6D JUMP JUMPDEST PUSH1 0x40 MLOAD DUP1 SWAP2 SUB SWAP1 REVERT JUMPDEST PUSH1 0x1 PUSH1 0x4 PUSH0 DUP4 PUSH20 0xFFFFFFFFFFFFFFFFFFFFFFFFFFFFFFFFFFFFFFFF AND PUSH20 0xFFFFFFFFFFFFFFFFFFFFFFFFFFFFFFFFFFFFFFFF AND DUP2 MSTORE PUSH1 0x20 ADD SWAP1 DUP2 MSTORE PUSH1 0x20 ADD PUSH0 KECCAK256 PUSH0 CALLER PUSH20 0xFFFFFFFFFFFFFFFFFFFFFFFFFFFFFFFFFFFFFFFF AND PUSH20 0xFFFFFFFFFFFFFFFFFFFFFFFFFFFFFFFFFFFFFFFF AND DUP2 MSTORE PUSH1 0x20 ADD SWAP1 DUP2 MSTORE PUSH1 0x20 ADD PUSH0 KECCAK256 PUSH0 PUSH2 0x100 EXP DUP2 SLOAD DUP2 PUSH1 0xFF MUL NOT AND SWAP1 DUP4 ISZERO ISZERO MUL OR SWAP1 SSTORE POP CALLER PUSH20 0xFFFFFFFFFFFFFFFFFFFFFFFFFFFFFFFFFFFFFFFF AND DUP2 PUSH20 0xFFFFFFFFFFFFFFFFFFFFFFFFFFFFFFFFFFFFFFFF AND PUSH32 0x2836B27DA25B9B18FC3A89B2E06EBBE3B7268F8291437C0BB6923B2B19212BCB PUSH1 0x40 MLOAD PUSH1 0x40 MLOAD DUP1 SWAP2 SUB SWAP1 LOG3 POP JUMP JUMPDEST PUSH0 PUSH1 0x20 MSTORE DUP1 PUSH0 MSTORE PUSH1 0x40 PUSH0 KECCAK256 PUSH0 SWAP2 POP SWAP1 POP DUP1 PUSH0 ADD PUSH0 SWAP1 SLOAD SWAP1 PUSH2 0x100 EXP SWAP1 DIV PUSH1 0xFF AND SWAP1 DUP1 PUSH1 0x1 ADD DUP1 SLOAD PUSH2 0x741 SWAP1 PUSH2 0x2FB8 JUMP JUMPDEST DUP1 PUSH1 0x1F ADD PUSH1 0x20 DUP1 SWAP2 DIV MUL PUSH1 0x20 ADD PUSH1 0x40 MLOAD SWAP1 DUP2 ADD PUSH1 0x40 MSTORE DUP1 SWAP3 SWAP2 SWAP1 DUP2 DUP2 MSTORE PUSH1 0x20 ADD DUP3 DUP1 SLOAD PUSH2 0x76D SWAP1 PUSH2 0x2FB8 JUMP JUMPDEST DUP1 ISZERO PUSH2 0x7B8 JUMPI DUP1 PUSH1 0x1F LT PUSH2 0x78F JUMPI PUSH2 0x100 DUP1 DUP4 SLOAD DIV MUL DUP4 MSTORE SWAP2 PUSH1 0x20 ADD SWAP2 PUSH2 0x7B8 JUMP JUMPDEST DUP3 ADD SWAP2 SWAP1 PUSH0 MSTORE PUSH1 0x20 PUSH0 KECCAK256 SWAP1 JUMPDEST DUP2 SLOAD DUP2 MSTORE SWAP1 PUSH1 0x1 ADD SWAP1 PUSH1 0x20 ADD DUP1 DUP4 GT PUSH2 0x79B JUMPI DUP3 SWAP1 SUB PUSH1 0x1F AND DUP3 ADD SWAP2 JUMPDEST POP POP POP POP POP SWAP1 DUP1 PUSH1 0x2 ADD DUP1 SLOAD PUSH2 0x7CD SWAP1 PUSH2 0x2FB8 JUMP JUMPDEST DUP1 PUSH1 0x1F ADD PUSH1 0x20 DUP1 SWAP2 DIV MUL PUSH1 0x20 ADD PUSH1 0x40 MLOAD SWAP1 DUP2 ADD PUSH1 0x40 MSTORE DUP1 SWAP3 SWAP2 SWAP1 DUP2 DUP2 MSTORE PUSH1 0x20 ADD DUP3 DUP1 SLOAD PUSH2 0x7F9 SWAP1 PUSH2 0x2FB8 JUMP JUMPDEST DUP1 ISZERO PUSH2 0x844 JUMPI DUP1 PUSH1 0x1F LT PUSH2 0x81B JUMPI PUSH2 0x100 DUP1 DUP4 SLOAD DIV MUL DUP4 MSTORE SWAP2 PUSH1 0x20 ADD SWAP2 PUSH2 0x844 JUMP JUMPDEST DUP3 ADD SWAP2 SWAP1 PUSH0 MSTORE PUSH1 0x20 PUSH0 KECCAK256 SWAP1 JUMPDEST DUP2 SLOAD DUP2 MSTORE SWAP1 PUSH1 0x1 ADD SWAP1 PUSH1 0x20 ADD DUP1 DUP4 GT PUSH2 0x827 JUMPI DUP3 SWAP1 SUB PUSH1 0x1F AND DUP3 ADD SWAP2 JUMPDEST POP POP POP POP POP SWAP1 DUP1 PUSH1 0x3 ADD DUP1 SLOAD PUSH2 0x859 SWAP1 PUSH2 0x2FB8 JUMP JUMPDEST DUP1 PUSH1 0x1F ADD PUSH1 0x20 DUP1 SWAP2 DIV MUL PUSH1 0x20 ADD PUSH1 0x40 MLOAD SWAP1 DUP2 ADD PUSH1 0x40 MSTORE DUP1 SWAP3 SWAP2 SWAP1 DUP2 DUP2 MSTORE PUSH1 0x20 ADD DUP3 DUP1 SLOAD PUSH2 0x885 SWAP1 PUSH2 0x2FB8 JUMP JUMPDEST DUP1 ISZERO PUSH2 0x8D0 JUMPI DUP1 PUSH1 0x1F LT PUSH2 0x8A7 JUMPI PUSH2 0x100 DUP1 DUP4 SLOAD DIV MUL DUP4 MSTORE SWAP2 PUSH1 0x20 ADD SWAP2 PUSH2 0x8D0 JUMP JUMPDEST DUP3 ADD SWAP2 SWAP1 PUSH0 MSTORE PUSH1 0x20 PUSH0 KECCAK256 SWAP1 JUMPDEST DUP2 SLOAD DUP2 MSTORE SWAP1 PUSH1 0x1 ADD SWAP1 PUSH1 0x20 ADD DUP1 DUP4 GT PUSH2 0x8B3 JUMPI DUP3 SWAP1 SUB PUSH1 0x1F AND DUP3 ADD SWAP2 JUMPDEST POP POP POP POP POP SWAP1 DUP1 PUSH1 0x4 ADD DUP1 SLOAD PUSH2 0x8E5 SWAP1 PUSH2 0x2FB8 JUMP JUMPDEST DUP1 PUSH1 0x1F ADD PUSH1 0x20 DUP1 SWAP2 DIV MUL PUSH1 0x20 ADD PUSH1 0x40 MLOAD SWAP1 DUP2 ADD PUSH1 0x40 MSTORE DUP1 SWAP3 SWAP2 SWAP1 DUP2 DUP2 MSTORE PUSH1 0x20 ADD DUP3 DUP1 SLOAD PUSH2 0x911 SWAP1 PUSH2 0x2FB8 JUMP JUMPDEST DUP1 ISZERO PUSH2 0x95C JUMPI DUP1 PUSH1 0x1F LT PUSH2 0x933 JUMPI PUSH2 0x100 DUP1 DUP4 SLOAD DIV MUL DUP4 MSTORE SWAP2 PUSH1 0x20 ADD SWAP2 PUSH2 0x95C JUMP JUMPDEST DUP3 ADD SWAP2 SWAP1 PUSH0 MSTORE PUSH1 0x20 PUSH0 KECCAK256 SWAP1 JUMPDEST DUP2 SLOAD DUP2 MSTORE SWAP1 PUSH1 0x1 ADD SWAP1 PUSH1 0x20 ADD DUP1 DUP4 GT PUSH2 0x93F JUMPI DUP3 SWAP1 SUB PUSH1 0x1F AND DUP3 ADD SWAP2 JUMPDEST POP POP POP POP POP SWAP1 POP DUP6 JUMP JUMPDEST PUSH32 0x0 PUSH20 0xFFFFFFFFFFFFFFFFFFFFFFFFFFFFFFFFFFFFFFFF AND CALLER PUSH20 0xFFFFFFFFFFFFFFFFFFFFFFFFFFFFFFFFFFFFFFFF AND EQ PUSH2 0x9F4 JUMPI PUSH1 0x40 MLOAD PUSH32 0x8C379A000000000000000000000000000000000000000000000000000000000 DUP2 MSTORE PUSH1 0x4 ADD PUSH2 0x9EB SWAP1 PUSH2 0x3058 JUMP JUMPDEST PUSH1 0x40 MLOAD DUP1 SWAP2 SUB SWAP1 REVERT JUMPDEST PUSH1 0x1 PUSH0 DUP8 PUSH20 0xFFFFFFFFFFFFFFFFFFFFFFFFFFFFFFFFFFFFFFFF AND PUSH20 0xFFFFFFFFFFFFFFFFFFFFFFFFFFFFFFFFFFFFFFFF AND DUP2 MSTORE PUSH1 0x20 ADD SWAP1 DUP2 MSTORE PUSH1 0x20 ADD PUSH0 KECCAK256 PUSH0 ADD PUSH0 SWAP1 SLOAD SWAP1 PUSH2 0x100 EXP SWAP1 DIV PUSH1 0xFF AND ISZERO PUSH2 0xA80 JUMPI PUSH1 0x40 MLOAD PUSH32 0x8C379A000000000000000000000000000000000000000000000000000000000 DUP2 MSTORE PUSH1 0x4 ADD PUSH2 0xA77 SWAP1 PUSH2 0x30C0 JUMP JUMPDEST PUSH1 0x40 MLOAD DUP1 SWAP2 SUB SWAP1 REVERT JUMPDEST PUSH0 DUP1 DUP8 PUSH20 0xFFFFFFFFFFFFFFFFFFFFFFFFFFFFFFFFFFFFFFFF AND PUSH20 0xFFFFFFFFFFFFFFFFFFFFFFFFFFFFFFFFFFFFFFFF AND DUP2 MSTORE PUSH1 0x20 ADD SWAP1 DUP2 MSTORE PUSH1 0x20 ADD PUSH0 KECCAK256 PUSH0 ADD PUSH0 SWAP1 SLOAD SWAP1 PUSH2 0x100 EXP SWAP1 DIV PUSH1 0xFF AND ISZERO PUSH2 0xB0B JUMPI PUSH1 0x40 MLOAD PUSH32 0x8C379A000000000000000000000000000000000000000000000000000000000 DUP2 MSTORE PUSH1 0x4 ADD PUSH2 0xB02 SWAP1 PUSH2 0x314E JUMP JUMPDEST PUSH1 0x40 MLOAD DUP1 SWAP2 SUB SWAP1 REVERT JUMPDEST PUSH1 0x40 MLOAD DUP1 PUSH1 0xC0 ADD PUSH1 0x40 MSTORE DUP1 PUSH1 0x1 ISZERO ISZERO DUP2 MSTORE PUSH1 0x20 ADD DUP7 DUP2 MSTORE PUSH1 0x20 ADD DUP6 DUP2 MSTORE PUSH1 0x20 ADD DUP5 DUP2 MSTORE PUSH1 0x20 ADD DUP4 DUP2 MSTORE PUSH1 0x20 ADD DUP3 DUP2 MSTORE POP PUSH1 0x1 PUSH0 DUP9 PUSH20 0xFFFFFFFFFFFFFFFFFFFFFFFFFFFFFFFFFFFFFFFF AND PUSH20 0xFFFFFFFFFFFFFFFFFFFFFFFFFFFFFFFFFFFFFFFF AND DUP2 MSTORE PUSH1 0x20 ADD SWAP1 DUP2 MSTORE PUSH1 0x20 ADD PUSH0 KECCAK256 PUSH0 DUP3 ADD MLOAD DUP2 PUSH0 ADD PUSH0 PUSH2 0x100 EXP DUP2 SLOAD DUP2 PUSH1 0xFF MUL NOT AND SWAP1 DUP4 ISZERO ISZERO MUL OR SWAP1 SSTORE POP PUSH1 0x20 DUP3 ADD MLOAD DUP2 PUSH1 0x1 ADD SWAP1 DUP2 PUSH2 0xBAA SWAP2 SWAP1 PUSH2 0x3312 JUMP JUMPDEST POP PUSH1 0x40 DUP3 ADD MLOAD DUP2 PUSH1 0x2 ADD SWAP1 DUP2 PUSH2 0xBC0 SWAP2 SWAP1 PUSH2 0x3312 JUMP JUMPDEST POP PUSH1 0x60 DUP3 ADD MLOAD DUP2 PUSH1 0x3 ADD SWAP1 DUP2 PUSH2 0xBD6 SWAP2 SWAP1 PUSH2 0x3312 JUMP JUMPDEST POP PUSH1 0x80 DUP3 ADD MLOAD DUP2 PUSH1 0x4 ADD SWAP1 DUP2 PUSH2 0xBEC SWAP2 SWAP1 PUSH2 0x3312 JUMP JUMPDEST POP PUSH1 0xA0 DUP3 ADD MLOAD DUP2 PUSH1 0x5 ADD SWAP1 DUP2 PUSH2 0xC02 SWAP2 SWAP1 PUSH2 0x3312 JUMP JUMPDEST POP SWAP1 POP POP DUP6 PUSH20 0xFFFFFFFFFFFFFFFFFFFFFFFFFFFFFFFFFFFFFFFF AND PUSH32 0x9388661DCD7DC6CFF9B4E22AB9459AC0A2682F86CB52FC7A669A6E7F062BCE4C DUP7 DUP7 PUSH1 0x40 MLOAD PUSH2 0xC4E SWAP3 SWAP2 SWAP1 PUSH2 0x33E1 JUMP JUMPDEST PUSH1 0x40 MLOAD DUP1 SWAP2 SUB SWAP1 LOG2 POP POP POP POP POP POP JUMP JUMPDEST PUSH1 0x60 PUSH0 DUP1 PUSH0 PUSH1 0x2 PUSH0 DUP8 PUSH20 0xFFFFFFFFFFFFFFFFFFFFFFFFFFFFFFFFFFFFFFFF AND PUSH20 0xFFFFFFFFFFFFFFFFFFFFFFFFFFFFFFFFFFFFFFFF AND DUP2 MSTORE PUSH1 0x20 ADD SWAP1 DUP2 MSTORE PUSH1 0x20 ADD PUSH0 KECCAK256 PUSH0 DUP7 PUSH20 0xFFFFFFFFFFFFFFFFFFFFFFFFFFFFFFFFFFFFFFFF AND PUSH20 0xFFFFFFFFFFFFFFFFFFFFFFFFFFFFFFFFFFFFFFFF AND DUP2 MSTORE PUSH1 0x20 ADD SWAP1 DUP2 MSTORE PUSH1 0x20 ADD PUSH0 KECCAK256 PUSH1 0x40 MLOAD DUP1 PUSH1 0x60 ADD PUSH1 0x40 MSTORE SWAP1 DUP2 PUSH0 DUP3 ADD DUP1 SLOAD PUSH2 0xCF5 SWAP1 PUSH2 0x2FB8 JUMP JUMPDEST DUP1 PUSH1 0x1F ADD PUSH1 0x20 DUP1 SWAP2 DIV MUL PUSH1 0x20 ADD PUSH1 0x40 MLOAD SWAP1 DUP2 ADD PUSH1 0x40 MSTORE DUP1 SWAP3 SWAP2 SWAP1 DUP2 DUP2 MSTORE PUSH1 0x20 ADD DUP3 DUP1 SLOAD PUSH2 0xD21 SWAP1 PUSH2 0x2FB8 JUMP JUMPDEST DUP1 ISZERO PUSH2 0xD6C JUMPI DUP1 PUSH1 0x1F LT PUSH2 0xD43 JUMPI PUSH2 0x100 DUP1 DUP4 SLOAD DIV MUL DUP4 MSTORE SWAP2 PUSH1 0x20 ADD SWAP2 PUSH2 0xD6C JUMP JUMPDEST DUP3 ADD SWAP2 SWAP1 PUSH0 MSTORE PUSH1 0x20 PUSH0 KECCAK256 SWAP1 JUMPDEST DUP2 SLOAD DUP2 MSTORE SWAP1 PUSH1 0x1 ADD SWAP1 PUSH1 0x20 ADD DUP1 DUP4 GT PUSH2 0xD4F JUMPI DUP3 SWAP1 SUB PUSH1 0x1F AND DUP3 ADD SWAP2 JUMPDEST POP POP POP POP POP DUP2 MSTORE PUSH1 0x20 ADD PUSH1 0x1 DUP3 ADD PUSH0 SWAP1 SLOAD SWAP1 PUSH2 0x100 EXP SWAP1 DIV PUSH1 0xFF AND PUSH1 0xFF AND PUSH1 0xFF AND DUP2 MSTORE PUSH1 0x20 ADD PUSH1 0x1 DUP3 ADD PUSH1 0x1 SWAP1 SLOAD SWAP1 PUSH2 0x100 EXP SWAP1 DIV PUSH1 0xFF AND ISZERO ISZERO ISZERO ISZERO DUP2 MSTORE POP POP SWAP1 POP DUP1 PUSH0 ADD MLOAD DUP2 PUSH1 0x20 ADD MLOAD DUP3 PUSH1 0x40 ADD MLOAD SWAP4 POP SWAP4 POP SWAP4 POP POP SWAP3 POP SWAP3 POP SWAP3 JUMP JUMPDEST PUSH1 0x60 DUP1 PUSH1 0x60 DUP1 PUSH0 DUP1 DUP7 PUSH20 0xFFFFFFFFFFFFFFFFFFFFFFFFFFFFFFFFFFFFFFFF AND PUSH20 0xFFFFFFFFFFFFFFFFFFFFFFFFFFFFFFFFFFFFFFFF AND DUP2 MSTORE PUSH1 0x20 ADD SWAP1 DUP2 MSTORE PUSH1 0x20 ADD PUSH0 KECCAK256 PUSH0 ADD PUSH0 SWAP1 SLOAD SWAP1 PUSH2 0x100 EXP SWAP1 DIV PUSH1 0xFF AND PUSH2 0xE5A JUMPI PUSH1 0x40 MLOAD PUSH32 0x8C379A000000000000000000000000000000000000000000000000000000000 DUP2 MSTORE PUSH1 0x4 ADD PUSH2 0xE51 SWAP1 PUSH2 0x3460 JUMP JUMPDEST PUSH1 0x40 MLOAD DUP1 SWAP2 SUB SWAP1 REVERT JUMPDEST PUSH0 DUP1 PUSH0 DUP8 PUSH20 0xFFFFFFFFFFFFFFFFFFFFFFFFFFFFFFFFFFFFFFFF AND PUSH20 0xFFFFFFFFFFFFFFFFFFFFFFFFFFFFFFFFFFFFFFFF AND DUP2 MSTORE PUSH1 0x20 ADD SWAP1 DUP2 MSTORE PUSH1 0x20 ADD PUSH0 KECCAK256 PUSH1 0x40 MLOAD DUP1 PUSH1 0xA0 ADD PUSH1 0x40 MSTORE SWAP1 DUP2 PUSH0 DUP3 ADD PUSH0 SWAP1 SLOAD SWAP1 PUSH2 0x100 EXP SWAP1 DIV PUSH1 0xFF AND ISZERO ISZERO ISZERO ISZERO DUP2 MSTORE PUSH1 0x20 ADD PUSH1 0x1 DUP3 ADD DUP1 SLOAD PUSH2 0xECB SWAP1 PUSH2 0x2FB8 JUMP JUMPDEST DUP1 PUSH1 0x1F ADD PUSH1 0x20 DUP1 SWAP2 DIV MUL PUSH1 0x20 ADD PUSH1 0x40 MLOAD SWAP1 DUP2 ADD PUSH1 0x40 MSTORE DUP1 SWAP3 SWAP2 SWAP1 DUP2 DUP2 MSTORE PUSH1 0x20 ADD DUP3 DUP1 SLOAD PUSH2 0xEF7 SWAP1 PUSH2 0x2FB8 JUMP JUMPDEST DUP1 ISZERO PUSH2 0xF42 JUMPI DUP1 PUSH1 0x1F LT PUSH2 0xF19 JUMPI PUSH2 0x100 DUP1 DUP4 SLOAD DIV MUL DUP4 MSTORE SWAP2 PUSH1 0x20 ADD SWAP2 PUSH2 0xF42 JUMP JUMPDEST DUP3 ADD SWAP2 SWAP1 PUSH0 MSTORE PUSH1 0x20 PUSH0 KECCAK256 SWAP1 JUMPDEST DUP2 SLOAD DUP2 MSTORE SWAP1 PUSH1 0x1 ADD SWAP1 PUSH1 0x20 ADD DUP1 DUP4 GT PUSH2 0xF25 JUMPI DUP3 SWAP1 SUB PUSH1 0x1F AND DUP3 ADD SWAP2 JUMPDEST POP POP POP POP POP DUP2 MSTORE PUSH1 0x20 ADD PUSH1 0x2 DUP3 ADD DUP1 SLOAD PUSH2 0xF5B SWAP1 PUSH2 0x2FB8 JUMP JUMPDEST DUP1 PUSH1 0x1F ADD PUSH1 0x20 DUP1 SWAP2 DIV MUL PUSH1 0x20 ADD PUSH1 0x40 MLOAD SWAP1 DUP2 ADD PUSH1 0x40 MSTORE DUP1 SWAP3 SWAP2 SWAP1 DUP2 DUP2 MSTORE PUSH1 0x20 ADD DUP3 DUP1 SLOAD PUSH2 0xF87 SWAP1 PUSH2 0x2FB8 JUMP JUMPDEST DUP1 ISZERO PUSH2 0xFD2 JUMPI DUP1 PUSH1 0x1F LT PUSH2 0xFA9 JUMPI PUSH2 0x100 DUP1 DUP4 SLOAD DIV MUL DUP4 MSTORE SWAP2 PUSH1 0x20 ADD SWAP2 PUSH2 0xFD2 JUMP JUMPDEST DUP3 ADD SWAP2 SWAP1 PUSH0 MSTORE PUSH1 0x20 PUSH0 KECCAK256 SWAP1 JUMPDEST DUP2 SLOAD DUP2 MSTORE SWAP1 PUSH1 0x1 ADD SWAP1 PUSH1 0x20 ADD DUP1 DUP4 GT PUSH2 0xFB5 JUMPI DUP3 SWAP1 SUB PUSH1 0x1F AND DUP3 ADD SWAP2 JUMPDEST POP POP POP POP POP DUP2 MSTORE PUSH1 0x20 ADD PUSH1 0x3 DUP3 ADD DUP1 SLOAD PUSH2 0xFEB SWAP1 PUSH2 0x2FB8 JUMP JUMPDEST DUP1 PUSH1 0x1F ADD PUSH1 0x20 DUP1 SWAP2 DIV MUL PUSH1 0x20 ADD PUSH1 0x40 MLOAD SWAP1 DUP2 ADD PUSH1 0x40 MSTORE DUP1 SWAP3 SWAP2 SWAP1 DUP2 DUP2 MSTORE PUSH1 0x20 ADD DUP3 DUP1 SLOAD PUSH2 0x1017 SWAP1 PUSH2 0x2FB8 JUMP JUMPDEST DUP1 ISZERO PUSH2 0x1062 JUMPI DUP1 PUSH1 0x1F LT PUSH2 0x1039 JUMPI PUSH2 0x100 DUP1 DUP4 SLOAD DIV MUL DUP4 MSTORE SWAP2 PUSH1 0x20 ADD SWAP2 PUSH2 0x1062 JUMP JUMPDEST DUP3 ADD SWAP2 SWAP1 PUSH0 MSTORE PUSH1 0x20 PUSH0 KECCAK256 SWAP1 JUMPDEST DUP2 SLOAD DUP2 MSTORE SWAP1 PUSH1 0x1 ADD SWAP1 PUSH1 0x20 ADD DUP1 DUP4 GT PUSH2 0x1045 JUMPI DUP3 SWAP1 SUB PUSH1 0x1F AND DUP3 ADD SWAP2 JUMPDEST POP POP POP POP POP DUP2 MSTORE PUSH1 0x20 ADD PUSH1 0x4 DUP3 ADD DUP1 SLOAD PUSH2 0x107B SWAP1 PUSH2 0x2FB8 JUMP JUMPDEST DUP1 PUSH1 0x1F ADD PUSH1 0x20 DUP1 SWAP2 DIV MUL PUSH1 0x20 ADD PUSH1 0x40 MLOAD SWAP1 DUP2 ADD PUSH1 0x40 MSTORE DUP1 SWAP3 SWAP2 SWAP1 DUP2 DUP2 MSTORE PUSH1 0x20 ADD DUP3 DUP1 SLOAD PUSH2 0x10A7 SWAP1 PUSH2 0x2FB8 JUMP JUMPDEST DUP1 ISZERO PUSH2 0x10F2 JUMPI DUP1 PUSH1 0x1F LT PUSH2 0x10C9 JUMPI PUSH2 0x100 DUP1 DUP4 SLOAD DIV MUL DUP4 MSTORE SWAP2 PUSH1 0x20 ADD SWAP2 PUSH2 0x10F2 JUMP JUMPDEST DUP3 ADD SWAP2 SWAP1 PUSH0 MSTORE PUSH1 0x20 PUSH0 KECCAK256 SWAP1 JUMPDEST DUP2 SLOAD DUP2 MSTORE SWAP1 PUSH1 0x1 ADD SWAP1 PUSH1 0x20 ADD DUP1 DUP4 GT PUSH2 0x10D5 JUMPI DUP3 SWAP1 SUB PUSH1 0x1F AND DUP3 ADD SWAP2 JUMPDEST POP POP POP POP POP DUP2 MSTORE POP POP SWAP1 POP DUP1 PUSH1 0x20 ADD MLOAD DUP2 PUSH1 0x40 ADD MLOAD DUP3 PUSH1 0x60 ADD MLOAD DUP4 PUSH1 0x80 ADD MLOAD SWAP5 POP SWAP5 POP SWAP5 POP SWAP5 POP POP SWAP2 SWAP4 POP SWAP2 SWAP4 JUMP JUMPDEST PUSH0 DUP1 CALLER PUSH20 0xFFFFFFFFFFFFFFFFFFFFFFFFFFFFFFFFFFFFFFFF AND PUSH20 0xFFFFFFFFFFFFFFFFFFFFFFFFFFFFFFFFFFFFFFFF AND DUP2 MSTORE PUSH1 0x20 ADD SWAP1 DUP2 MSTORE PUSH1 0x20 ADD PUSH0 KECCAK256 PUSH0 ADD PUSH0 SWAP1 SLOAD SWAP1 PUSH2 0x100 EXP SWAP1 DIV PUSH1 0xFF AND ISZERO PUSH2 0x11AC JUMPI PUSH1 0x40 MLOAD PUSH32 0x8C379A000000000000000000000000000000000000000000000000000000000 DUP2 MSTORE PUSH1 0x4 ADD PUSH2 0x11A3 SWAP1 PUSH2 0x34C8 JUMP JUMPDEST PUSH1 0x40 MLOAD DUP1 SWAP2 SUB SWAP1 REVERT JUMPDEST PUSH1 0x1 PUSH0 CALLER PUSH20 0xFFFFFFFFFFFFFFFFFFFFFFFFFFFFFFFFFFFFFFFF AND PUSH20 0xFFFFFFFFFFFFFFFFFFFFFFFFFFFFFFFFFFFFFFFF AND DUP2 MSTORE PUSH1 0x20 ADD SWAP1 DUP2 MSTORE PUSH1 0x20 ADD PUSH0 KECCAK256 PUSH0 ADD PUSH0 SWAP1 SLOAD SWAP1 PUSH2 0x100 EXP SWAP1 DIV PUSH1 0xFF AND ISZERO PUSH2 0x1238 JUMPI PUSH1 0x40 MLOAD PUSH32 0x8C379A000000000000000000000000000000000000000000000000000000000 DUP2 MSTORE PUSH1 0x4 ADD PUSH2 0x122F SWAP1 PUSH2 0x3556 JUMP JUMPDEST PUSH1 0x40 MLOAD DUP1 SWAP2 SUB SWAP1 REVERT JUMPDEST PUSH1 0x40 MLOAD DUP1 PUSH1 0xA0 ADD PUSH1 0x40 MSTORE DUP1 PUSH1 0x1 ISZERO ISZERO DUP2 MSTORE PUSH1 0x20 ADD DUP6 DUP2 MSTORE PUSH1 0x20 ADD DUP5 DUP2 MSTORE PUSH1 0x20 ADD DUP4 DUP2 MSTORE PUSH1 0x20 ADD DUP3 DUP2 MSTORE POP PUSH0 DUP1 CALLER PUSH20 0xFFFFFFFFFFFFFFFFFFFFFFFFFFFFFFFFFFFFFFFF AND PUSH20 0xFFFFFFFFFFFFFFFFFFFFFFFFFFFFFFFFFFFFFFFF AND DUP2 MSTORE PUSH1 0x20 ADD SWAP1 DUP2 MSTORE PUSH1 0x20 ADD PUSH0 KECCAK256 PUSH0 DUP3 ADD MLOAD DUP2 PUSH0 ADD PUSH0 PUSH2 0x100 EXP DUP2 SLOAD DUP2 PUSH1 0xFF MUL NOT AND SWAP1 DUP4 ISZERO ISZERO MUL OR SWAP1 SSTORE POP PUSH1 0x20 DUP3 ADD MLOAD DUP2 PUSH1 0x1 ADD SWAP1 DUP2 PUSH2 0x12D0 SWAP2 SWAP1 PUSH2 0x3312 JUMP JUMPDEST POP PUSH1 0x40 DUP3 ADD MLOAD DUP2 PUSH1 0x2 ADD SWAP1 DUP2 PUSH2 0x12E6 SWAP2 SWAP1 PUSH2 0x3312 JUMP JUMPDEST POP PUSH1 0x60 DUP3 ADD MLOAD DUP2 PUSH1 0x3 ADD SWAP1 DUP2 PUSH2 0x12FC SWAP2 SWAP1 PUSH2 0x3312 JUMP JUMPDEST POP PUSH1 0x80 DUP3 ADD MLOAD DUP2 PUSH1 0x4 ADD SWAP1 DUP2 PUSH2 0x1312 SWAP2 SWAP1 PUSH2 0x3312 JUMP JUMPDEST POP SWAP1 POP POP CALLER PUSH20 0xFFFFFFFFFFFFFFFFFFFFFFFFFFFFFFFFFFFFFFFF AND PUSH32 0xC85B128388B9C331A2A5485DCE4CD0F3DB9F7C279D327CE95D6D39D6C94644C7 DUP6 PUSH1 0x40 MLOAD PUSH2 0x135C SWAP2 SWAP1 PUSH2 0x2B21 JUMP JUMPDEST PUSH1 0x40 MLOAD DUP1 SWAP2 SUB SWAP1 LOG2 POP POP POP POP JUMP JUMPDEST PUSH1 0x4 PUSH1 0x20 MSTORE DUP2 PUSH0 MSTORE PUSH1 0x40 PUSH0 KECCAK256 PUSH1 0x20 MSTORE DUP1 PUSH0 MSTORE PUSH1 0x40 PUSH0 KECCAK256 PUSH0 SWAP2 POP SWAP2 POP SWAP1 SLOAD SWAP1 PUSH2 0x100 EXP SWAP1 DIV PUSH1 0xFF AND DUP2 JUMP JUMPDEST PUSH1 0x60 PUSH1 0x1 PUSH0 DUP4 PUSH20 0xFFFFFFFFFFFFFFFFFFFFFFFFFFFFFFFFFFFFFFFF AND PUSH20 0xFFFFFFFFFFFFFFFFFFFFFFFFFFFFFFFFFFFFFFFF AND DUP2 MSTORE PUSH1 0x20 ADD SWAP1 DUP2 MSTORE PUSH1 0x20 ADD PUSH0 KECCAK256 PUSH0 ADD PUSH0 SWAP1 SLOAD SWAP1 PUSH2 0x100 EXP SWAP1 DIV PUSH1 0xFF AND PUSH2 0x1421 JUMPI PUSH1 0x40 MLOAD PUSH32 0x8C379A000000000000000000000000000000000000000000000000000000000 DUP2 MSTORE PUSH1 0x4 ADD PUSH2 0x1418 SWAP1 PUSH2 0x35BE JUMP JUMPDEST PUSH1 0x40 MLOAD DUP1 SWAP2 SUB SWAP1 REVERT JUMPDEST PUSH1 0x1 PUSH0 DUP4 PUSH20 0xFFFFFFFFFFFFFFFFFFFFFFFFFFFFFFFFFFFFFFFF AND PUSH20 0xFFFFFFFFFFFFFFFFFFFFFFFFFFFFFFFFFFFFFFFF AND DUP2 MSTORE PUSH1 0x20 ADD SWAP1 DUP2 MSTORE PUSH1 0x20 ADD PUSH0 KECCAK256 PUSH1 0x1 ADD DUP1 SLOAD PUSH2 0x146C SWAP1 PUSH2 0x2FB8 JUMP JUMPDEST DUP1 PUSH1 0x1F ADD PUSH1 0x20 DUP1 SWAP2 DIV MUL PUSH1 0x20 ADD PUSH1 0x40 MLOAD SWAP1 DUP2 ADD PUSH1 0x40 MSTORE DUP1 SWAP3 SWAP2 SWAP1 DUP2 DUP2 MSTORE PUSH1 0x20 ADD DUP3 DUP1 SLOAD PUSH2 0x1498 SWAP1 PUSH2 0x2FB8 JUMP JUMPDEST DUP1 ISZERO PUSH2 0x14E3 JUMPI DUP1 PUSH1 0x1F LT PUSH2 0x14BA JUMPI PUSH2 0x100 DUP1 DUP4 SLOAD DIV MUL DUP4 MSTORE SWAP2 PUSH1 0x20 ADD SWAP2 PUSH2 0x14E3 JUMP JUMPDEST DUP3 ADD SWAP2 SWAP1 PUSH0 MSTORE PUSH1 0x20 PUSH0 KECCAK256 SWAP1 JUMPDEST DUP2 SLOAD DUP2 MSTORE SWAP1 PUSH1 0x1 ADD SWAP1 PUSH1 0x20 ADD DUP1 DUP4 GT PUSH2 0x14C6 JUMPI DUP3 SWAP1 SUB PUSH1 0x1F AND DUP3 ADD SWAP2 JUMPDEST POP POP POP POP POP SWAP1 POP SWAP2 SWAP1 POP JUMP JUMPDEST PUSH1 0x1 PUSH0 CALLER PUSH20 0xFFFFFFFFFFFFFFFFFFFFFFFFFFFFFFFFFFFFFFFF AND PUSH20 0xFFFFFFFFFFFFFFFFFFFFFFFFFFFFFFFFFFFFFFFF AND DUP2 MSTORE PUSH1 0x20 ADD SWAP1 DUP2 MSTORE PUSH1 0x20 ADD PUSH0 KECCAK256 PUSH0 ADD PUSH0 SWAP1 SLOAD SWAP1 PUSH2 0x100 EXP SWAP1 DIV PUSH1 0xFF AND PUSH2 0x157A JUMPI PUSH1 0x40 MLOAD PUSH32 0x8C379A000000000000000000000000000000000000000000000000000000000 DUP2 MSTORE PUSH1 0x4 ADD PUSH2 0x1571 SWAP1 PUSH2 0x2DE9 JUMP JUMPDEST PUSH1 0x40 MLOAD DUP1 SWAP2 SUB SWAP1 REVERT JUMPDEST PUSH1 0x3 PUSH0 DUP4 PUSH20 0xFFFFFFFFFFFFFFFFFFFFFFFFFFFFFFFFFFFFFFFF AND PUSH20 0xFFFFFFFFFFFFFFFFFFFFFFFFFFFFFFFFFFFFFFFF AND DUP2 MSTORE PUSH1 0x20 ADD SWAP1 DUP2 MSTORE PUSH1 0x20 ADD PUSH0 KECCAK256 PUSH0 CALLER PUSH20 0xFFFFFFFFFFFFFFFFFFFFFFFFFFFFFFFFFFFFFFFF AND PUSH20 0xFFFFFFFFFFFFFFFFFFFFFFFFFFFFFFFFFFFFFFFF AND DUP2 MSTORE PUSH1 0x20 ADD SWAP1 DUP2 MSTORE PUSH1 0x20 ADD PUSH0 KECCAK256 PUSH0 SWAP1 SLOAD SWAP1 PUSH2 0x100 EXP SWAP1 DIV PUSH1 0xFF AND PUSH2 0x163E JUMPI PUSH1 0x40 MLOAD PUSH32 0x8C379A000000000000000000000000000000000000000000000000000000000 DUP2 MSTORE PUSH1 0x4 ADD PUSH2 0x1635 SWAP1 PUSH2 0x364C JUMP JUMPDEST PUSH1 0x40 MLOAD DUP1 SWAP2 SUB SWAP1 REVERT JUMPDEST PUSH0 DUP2 MLOAD GT PUSH2 0x1681 JUMPI PUSH1 0x40 MLOAD PUSH32 0x8C379A000000000000000000000000000000000000000000000000000000000 DUP2 MSTORE PUSH1 0x4 ADD PUSH2 0x1678 SWAP1 PUSH2 0x36B4 JUMP JUMPDEST PUSH1 0x40 MLOAD DUP1 SWAP2 SUB SWAP1 REVERT JUMPDEST CALLER PUSH20 0xFFFFFFFFFFFFFFFFFFFFFFFFFFFFFFFFFFFFFFFF AND DUP3 PUSH20 0xFFFFFFFFFFFFFFFFFFFFFFFFFFFFFFFFFFFFFFFF AND PUSH32 0x8FED6A2B6C4B373EC8518DD42CB708C88BEB55D8806492942025F2D86118BCB7 TIMESTAMP DUP5 PUSH1 0x40 MLOAD PUSH2 0x16E0 SWAP3 SWAP2 SWAP1 PUSH2 0x3733 JUMP JUMPDEST PUSH1 0x40 MLOAD DUP1 SWAP2 SUB SWAP1 LOG3 POP POP JUMP JUMPDEST PUSH32 0x0 DUP2 JUMP JUMPDEST PUSH1 0x1 PUSH0 CALLER PUSH20 0xFFFFFFFFFFFFFFFFFFFFFFFFFFFFFFFFFFFFFFFF AND PUSH20 0xFFFFFFFFFFFFFFFFFFFFFFFFFFFFFFFFFFFFFFFF AND DUP2 MSTORE PUSH1 0x20 ADD SWAP1 DUP2 MSTORE PUSH1 0x20 ADD PUSH0 KECCAK256 PUSH0 ADD PUSH0 SWAP1 SLOAD SWAP1 PUSH2 0x100 EXP SWAP1 DIV PUSH1 0xFF AND PUSH2 0x179B JUMPI PUSH1 0x40 MLOAD PUSH32 0x8C379A000000000000000000000000000000000000000000000000000000000 DUP2 MSTORE PUSH1 0x4 ADD PUSH2 0x1792 SWAP1 PUSH2 0x2DE9 JUMP JUMPDEST PUSH1 0x40 MLOAD DUP1 SWAP2 SUB SWAP1 REVERT JUMPDEST PUSH0 DUP1 DUP5 PUSH20 0xFFFFFFFFFFFFFFFFFFFFFFFFFFFFFFFFFFFFFFFF AND PUSH20 0xFFFFFFFFFFFFFFFFFFFFFFFFFFFFFFFFFFFFFFFF AND DUP2 MSTORE PUSH1 0x20 ADD SWAP1 DUP2 MSTORE PUSH1 0x20 ADD PUSH0 KECCAK256 PUSH0 ADD PUSH0 SWAP1 SLOAD SWAP1 PUSH2 0x100 EXP SWAP1 DIV PUSH1 0xFF AND PUSH2 0x1825 JUMPI PUSH1 0x40 MLOAD PUSH32 0x8C379A000000000000000000000000000000000000000000000000000000000 DUP2 MSTORE PUSH1 0x4 ADD PUSH2 0x181C SWAP1 PUSH2 0x2E77 JUMP JUMPDEST PUSH1 0x40 MLOAD DUP1 SWAP2 SUB SWAP1 REVERT JUMPDEST PUSH1 0x2 DUP2 PUSH1 0xFF AND GT ISZERO PUSH2 0x186C JUMPI PUSH1 0x40 MLOAD PUSH32 0x8C379A000000000000000000000000000000000000000000000000000000000 DUP2 MSTORE PUSH1 0x4 ADD PUSH2 0x1863 SWAP1 PUSH2 0x37AB JUMP JUMPDEST PUSH1 0x40 MLOAD DUP1 SWAP2 SUB SWAP1 REVERT JUMPDEST PUSH1 0x40 MLOAD DUP1 PUSH1 0x60 ADD PUSH1 0x40 MSTORE DUP1 DUP4 DUP2 MSTORE PUSH1 0x20 ADD DUP3 PUSH1 0xFF AND DUP2 MSTORE PUSH1 0x20 ADD PUSH1 0x1 ISZERO ISZERO DUP2 MSTORE POP PUSH1 0x2 PUSH0 CALLER PUSH20 0xFFFFFFFFFFFFFFFFFFFFFFFFFFFFFFFFFFFFFFFF AND PUSH20 0xFFFFFFFFFFFFFFFFFFFFFFFFFFFFFFFFFFFFFFFF AND DUP2 MSTORE PUSH1 0x20 ADD SWAP1 DUP2 MSTORE PUSH1 0x20 ADD PUSH0 KECCAK256 PUSH0 DUP6 PUSH20 0xFFFFFFFFFFFFFFFFFFFFFFFFFFFFFFFFFFFFFFFF AND PUSH20 0xFFFFFFFFFFFFFFFFFFFFFFFFFFFFFFFFFFFFFFFF AND DUP2 MSTORE PUSH1 0x20 ADD SWAP1 DUP2 MSTORE PUSH1 0x20 ADD PUSH0 KECCAK256 PUSH0 DUP3 ADD MLOAD DUP2 PUSH0 ADD SWAP1 DUP2 PUSH2 0x1918 SWAP2 SWAP1 PUSH2 0x3312 JUMP JUMPDEST POP PUSH1 0x20 DUP3 ADD MLOAD DUP2 PUSH1 0x1 ADD PUSH0 PUSH2 0x100 EXP DUP2 SLOAD DUP2 PUSH1 0xFF MUL NOT AND SWAP1 DUP4 PUSH1 0xFF AND MUL OR SWAP1 SSTORE POP PUSH1 0x40 DUP3 ADD MLOAD DUP2 PUSH1 0x1 ADD PUSH1 0x1 PUSH2 0x100 EXP DUP2 SLOAD DUP2 PUSH1 0xFF MUL NOT AND SWAP1 DUP4 ISZERO ISZERO MUL OR SWAP1 SSTORE POP SWAP1 POP POP DUP3 PUSH20 0xFFFFFFFFFFFFFFFFFFFFFFFFFFFFFFFFFFFFFFFF AND CALLER PUSH20 0xFFFFFFFFFFFFFFFFFFFFFFFFFFFFFFFFFFFFFFFF AND PUSH32 0x2C82A2C170DC5E4DAB70455F69309153B0FEAE1684EFCFAB731978937B34D7CF DUP5 DUP5 PUSH1 0x40 MLOAD PUSH2 0x19BB SWAP3 SWAP2 SWAP1 PUSH2 0x37C9 JUMP JUMPDEST PUSH1 0x40 MLOAD DUP1 SWAP2 SUB SWAP1 LOG3 POP POP POP JUMP JUMPDEST PUSH32 0x0 PUSH20 0xFFFFFFFFFFFFFFFFFFFFFFFFFFFFFFFFFFFFFFFF AND CALLER PUSH20 0xFFFFFFFFFFFFFFFFFFFFFFFFFFFFFFFFFFFFFFFF AND EQ PUSH2 0x1A56 JUMPI PUSH1 0x40 MLOAD PUSH32 0x8C379A000000000000000000000000000000000000000000000000000000000 DUP2 MSTORE PUSH1 0x4 ADD PUSH2 0x1A4D SWAP1 PUSH2 0x3058 JUMP JUMPDEST PUSH1 0x40 MLOAD DUP1 SWAP2 SUB SWAP1 REVERT JUMPDEST PUSH1 0x1 PUSH0 DUP3 PUSH20 0xFFFFFFFFFFFFFFFFFFFFFFFFFFFFFFFFFFFFFFFF AND PUSH20 0xFFFFFFFFFFFFFFFFFFFFFFFFFFFFFFFFFFFFFFFF AND DUP2 MSTORE PUSH1 0x20 ADD SWAP1 DUP2 MSTORE PUSH1 0x20 ADD PUSH0 KECCAK256 PUSH0 ADD PUSH0 SWAP1 SLOAD SWAP1 PUSH2 0x100 EXP SWAP1 DIV PUSH1 0xFF AND PUSH2 0x1AE1 JUMPI PUSH1 0x40 MLOAD PUSH32 0x8C379A000000000000000000000000000000000000000000000000000000000 DUP2 MSTORE PUSH1 0x4 ADD PUSH2 0x1AD8 SWAP1 PUSH2 0x3841 JUMP JUMPDEST PUSH1 0x40 MLOAD DUP1 SWAP2 SUB SWAP1 REVERT JUMPDEST PUSH32 0x0 PUSH20 0xFFFFFFFFFFFFFFFFFFFFFFFFFFFFFFFFFFFFFFFF AND DUP2 PUSH20 0xFFFFFFFFFFFFFFFFFFFFFFFFFFFFFFFFFFFFFFFF AND SUB PUSH2 0x1B6F JUMPI PUSH1 0x40 MLOAD PUSH32 0x8C379A000000000000000000000000000000000000000000000000000000000 DUP2 MSTORE PUSH1 0x4 ADD PUSH2 0x1B66 SWAP1 PUSH2 0x38CF JUMP JUMPDEST PUSH1 0x40 MLOAD DUP1 SWAP2 SUB SWAP1 REVERT JUMPDEST PUSH0 PUSH1 0x1 PUSH0 DUP4 PUSH20 0xFFFFFFFFFFFFFFFFFFFFFFFFFFFFFFFFFFFFFFFF AND PUSH20 0xFFFFFFFFFFFFFFFFFFFFFFFFFFFFFFFFFFFFFFFF AND DUP2 MSTORE PUSH1 0x20 ADD SWAP1 DUP2 MSTORE PUSH1 0x20 ADD PUSH0 KECCAK256 PUSH0 ADD PUSH0 PUSH2 0x100 EXP DUP2 SLOAD DUP2 PUSH1 0xFF MUL NOT AND SWAP1 DUP4 ISZERO ISZERO MUL OR SWAP1 SSTORE POP DUP1 PUSH20 0xFFFFFFFFFFFFFFFFFFFFFFFFFFFFFFFFFFFFFFFF AND PUSH32 0x493D7CF6A7C880406A55654D6727464EA088BD01D40498E1987A327E68961AB8 PUSH1 0x40 MLOAD PUSH1 0x40 MLOAD DUP1 SWAP2 SUB SWAP1 LOG2 POP JUMP JUMPDEST PUSH0 DUP1 CALLER PUSH20 0xFFFFFFFFFFFFFFFFFFFFFFFFFFFFFFFFFFFFFFFF AND PUSH20 0xFFFFFFFFFFFFFFFFFFFFFFFFFFFFFFFFFFFFFFFF AND DUP2 MSTORE PUSH1 0x20 ADD SWAP1 DUP2 MSTORE PUSH1 0x20 ADD PUSH0 KECCAK256 PUSH0 ADD PUSH0 SWAP1 SLOAD SWAP1 PUSH2 0x100 EXP SWAP1 DIV PUSH1 0xFF AND PUSH2 0x1C95 JUMPI PUSH1 0x40 MLOAD PUSH32 0x8C379A000000000000000000000000000000000000000000000000000000000 DUP2 MSTORE PUSH1 0x4 ADD PUSH2 0x1C8C SWAP1 PUSH2 0x395D JUMP JUMPDEST PUSH1 0x40 MLOAD DUP1 SWAP2 SUB SWAP1 REVERT JUMPDEST PUSH1 0x4 PUSH0 CALLER PUSH20 0xFFFFFFFFFFFFFFFFFFFFFFFFFFFFFFFFFFFFFFFF AND PUSH20 0xFFFFFFFFFFFFFFFFFFFFFFFFFFFFFFFFFFFFFFFF AND DUP2 MSTORE PUSH1 0x20 ADD SWAP1 DUP2 MSTORE PUSH1 0x20 ADD PUSH0 KECCAK256 PUSH0 DUP3 PUSH20 0xFFFFFFFFFFFFFFFFFFFFFFFFFFFFFFFFFFFFFFFF AND PUSH20 0xFFFFFFFFFFFFFFFFFFFFFFFFFFFFFFFFFFFFFFFF AND DUP2 MSTORE PUSH1 0x20 ADD SWAP1 DUP2 MSTORE PUSH1 0x20 ADD PUSH0 KECCAK256 PUSH0 SWAP1 SLOAD SWAP1 PUSH2 0x100 EXP SWAP1 DIV PUSH1 0xFF AND PUSH2 0x1D59 JUMPI PUSH1 0x40 MLOAD PUSH32 0x8C379A000000000000000000000000000000000000000000000000000000000 DUP2 MSTORE PUSH1 0x4 ADD PUSH2 0x1D50 SWAP1 PUSH2 0x39EB JUMP JUMPDEST PUSH1 0x40 MLOAD DUP1 SWAP2 SUB SWAP1 REVERT JUMPDEST PUSH0 PUSH1 0x4 PUSH0 CALLER PUSH20 0xFFFFFFFFFFFFFFFFFFFFFFFFFFFFFFFFFFFFFFFF AND PUSH20 0xFFFFFFFFFFFFFFFFFFFFFFFFFFFFFFFFFFFFFFFF AND DUP2 MSTORE PUSH1 0x20 ADD SWAP1 DUP2 MSTORE PUSH1 0x20 ADD PUSH0 KECCAK256 PUSH0 DUP4 PUSH20 0xFFFFFFFFFFFFFFFFFFFFFFFFFFFFFFFFFFFFFFFF AND PUSH20 0xFFFFFFFFFFFFFFFFFFFFFFFFFFFFFFFFFFFFFFFF AND DUP2 MSTORE PUSH1 0x20 ADD SWAP1 DUP2 MSTORE PUSH1 0x20 ADD PUSH0 KECCAK256 PUSH0 PUSH2 0x100 EXP DUP2 SLOAD DUP2 PUSH1 0xFF MUL NOT AND SWAP1 DUP4 ISZERO ISZERO MUL OR SWAP1 SSTORE POP DUP1 PUSH20 0xFFFFFFFFFFFFFFFFFFFFFFFFFFFFFFFFFFFFFFFF AND CALLER PUSH20 0xFFFFFFFFFFFFFFFFFFFFFFFFFFFFFFFFFFFFFFFF AND PUSH32 0xEE666520C6FBC392D1A1E9C8845F759ABF986E12B9927E3A452C94CE2C05D1DF PUSH1 0x40 MLOAD PUSH1 0x40 MLOAD DUP1 SWAP2 SUB SWAP1 LOG3 POP JUMP JUMPDEST PUSH0 DUP1 CALLER PUSH20 0xFFFFFFFFFFFFFFFFFFFFFFFFFFFFFFFFFFFFFFFF AND PUSH20 0xFFFFFFFFFFFFFFFFFFFFFFFFFFFFFFFFFFFFFFFF AND DUP2 MSTORE PUSH1 0x20 ADD SWAP1 DUP2 MSTORE PUSH1 0x20 ADD PUSH0 KECCAK256 PUSH0 ADD PUSH0 SWAP1 SLOAD SWAP1 PUSH2 0x100 EXP SWAP1 DIV PUSH1 0xFF AND PUSH2 0x1ECF JUMPI PUSH1 0x40 MLOAD PUSH32 0x8C379A000000000000000000000000000000000000000000000000000000000 DUP2 MSTORE PUSH1 0x4 ADD PUSH2 0x1EC6 SWAP1 PUSH2 0x395D JUMP JUMPDEST PUSH1 0x40 MLOAD DUP1 SWAP2 SUB SWAP1 REVERT JUMPDEST PUSH1 0x1 PUSH0 DUP3 PUSH20 0xFFFFFFFFFFFFFFFFFFFFFFFFFFFFFFFFFFFFFFFF AND PUSH20 0xFFFFFFFFFFFFFFFFFFFFFFFFFFFFFFFFFFFFFFFF AND DUP2 MSTORE PUSH1 0x20 ADD SWAP1 DUP2 MSTORE PUSH1 0x20 ADD PUSH0 KECCAK256 PUSH0 ADD PUSH0 SWAP1 SLOAD SWAP1 PUSH2 0x100 EXP SWAP1 DIV PUSH1 0xFF AND PUSH2 0x1F5A JUMPI PUSH1 0x40 MLOAD PUSH32 0x8C379A000000000000000000000000000000000000000000000000000000000 DUP2 MSTORE PUSH1 0x4 ADD PUSH2 0x1F51 SWAP1 PUSH2 0x3A79 JUMP JUMPDEST PUSH1 0x40 MLOAD DUP1 SWAP2 SUB SWAP1 REVERT JUMPDEST PUSH0 PUSH1 0x4 PUSH0 CALLER PUSH20 0xFFFFFFFFFFFFFFFFFFFFFFFFFFFFFFFFFFFFFFFF AND PUSH20 0xFFFFFFFFFFFFFFFFFFFFFFFFFFFFFFFFFFFFFFFF AND DUP2 MSTORE PUSH1 0x20 ADD SWAP1 DUP2 MSTORE PUSH1 0x20 ADD PUSH0 KECCAK256 PUSH0 DUP4 PUSH20 0xFFFFFFFFFFFFFFFFFFFFFFFFFFFFFFFFFFFFFFFF AND PUSH20 0xFFFFFFFFFFFFFFFFFFFFFFFFFFFFFFFFFFFFFFFF AND DUP2 MSTORE PUSH1 0x20 ADD SWAP1 DUP2 MSTORE PUSH1 0x20 ADD PUSH0 KECCAK256 PUSH0 PUSH2 0x100 EXP DUP2 SLOAD DUP2 PUSH1 0xFF MUL NOT AND SWAP1 DUP4 ISZERO ISZERO MUL OR SWAP1 SSTORE POP PUSH1 0x1 PUSH1 0x3 PUSH0 CALLER PUSH20 0xFFFFFFFFFFFFFFFFFFFFFFFFFFFFFFFFFFFFFFFF AND PUSH20 0xFFFFFFFFFFFFFFFFFFFFFFFFFFFFFFFFFFFFFFFF AND DUP2 MSTORE PUSH1 0x20 ADD SWAP1 DUP2 MSTORE PUSH1 0x20 ADD PUSH0 KECCAK256 PUSH0 DUP4 PUSH20 0xFFFFFFFFFFFFFFFFFFFFFFFFFFFFFFFFFFFFFFFF AND PUSH20 0xFFFFFFFFFFFFFFFFFFFFFFFFFFFFFFFFFFFFFFFF AND DUP2 MSTORE PUSH1 0x20 ADD SWAP1 DUP2 MSTORE PUSH1 0x20 ADD PUSH0 KECCAK256 PUSH0 PUSH2 0x100 EXP DUP2 SLOAD DUP2 PUSH1 0xFF MUL NOT AND SWAP1 DUP4 ISZERO ISZERO MUL OR SWAP1 SSTORE POP DUP1 PUSH20 0xFFFFFFFFFFFFFFFFFFFFFFFFFFFFFFFFFFFFFFFF AND CALLER PUSH20 0xFFFFFFFFFFFFFFFFFFFFFFFFFFFFFFFFFFFFFFFF AND PUSH32 0x8105C574D2239A3A4F73F5EFC5BC253CFFB275647DF535ADFA2C240739CC9220 PUSH1 0x40 MLOAD PUSH1 0x40 MLOAD DUP1 SWAP2 SUB SWAP1 LOG3 POP JUMP JUMPDEST PUSH1 0x1 PUSH1 0x20 MSTORE DUP1 PUSH0 MSTORE PUSH1 0x40 PUSH0 KECCAK256 PUSH0 SWAP2 POP SWAP1 POP DUP1 PUSH0 ADD PUSH0 SWAP1 SLOAD SWAP1 PUSH2 0x100 EXP SWAP1 DIV PUSH1 0xFF AND SWAP1 DUP1 PUSH1 0x1 ADD DUP1 SLOAD PUSH2 0x2107 SWAP1 PUSH2 0x2FB8 JUMP JUMPDEST DUP1 PUSH1 0x1F ADD PUSH1 0x20 DUP1 SWAP2 DIV MUL PUSH1 0x20 ADD PUSH1 0x40 MLOAD SWAP1 DUP2 ADD PUSH1 0x40 MSTORE DUP1 SWAP3 SWAP2 SWAP1 DUP2 DUP2 MSTORE PUSH1 0x20 ADD DUP3 DUP1 SLOAD PUSH2 0x2133 SWAP1 PUSH2 0x2FB8 JUMP JUMPDEST DUP1 ISZERO PUSH2 0x217E JUMPI DUP1 PUSH1 0x1F LT PUSH2 0x2155 JUMPI PUSH2 0x100 DUP1 DUP4 SLOAD DIV MUL DUP4 MSTORE SWAP2 PUSH1 0x20 ADD SWAP2 PUSH2 0x217E JUMP JUMPDEST DUP3 ADD SWAP2 SWAP1 PUSH0 MSTORE PUSH1 0x20 PUSH0 KECCAK256 SWAP1 JUMPDEST DUP2 SLOAD DUP2 MSTORE SWAP1 PUSH1 0x1 ADD SWAP1 PUSH1 0x20 ADD DUP1 DUP4 GT PUSH2 0x2161 JUMPI DUP3 SWAP1 SUB PUSH1 0x1F AND DUP3 ADD SWAP2 JUMPDEST POP POP POP POP POP SWAP1 DUP1 PUSH1 0x2 ADD DUP1 SLOAD PUSH2 0x2193 SWAP1 PUSH2 0x2FB8 JUMP JUMPDEST DUP1 PUSH1 0x1F ADD PUSH1 0x20 DUP1 SWAP2 DIV MUL PUSH1 0x20 ADD PUSH1 0x40 MLOAD SWAP1 DUP2 ADD PUSH1 0x40 MSTORE DUP1 SWAP3 SWAP2 SWAP1 DUP2 DUP2 MSTORE PUSH1 0x20 ADD DUP3 DUP1 SLOAD PUSH2 0x21BF SWAP1 PUSH2 0x2FB8 JUMP JUMPDEST DUP1 ISZERO PUSH2 0x220A JUMPI DUP1 PUSH1 0x1F LT PUSH2 0x21E1 JUMPI PUSH2 0x100 DUP1 DUP4 SLOAD DIV MUL DUP4 MSTORE SWAP2 PUSH1 0x20 ADD SWAP2 PUSH2 0x220A JUMP JUMPDEST DUP3 ADD SWAP2 SWAP1 PUSH0 MSTORE PUSH1 0x20 PUSH0 KECCAK256 SWAP1 JUMPDEST DUP2 SLOAD DUP2 MSTORE SWAP1 PUSH1 0x1 ADD SWAP1 PUSH1 0x20 ADD DUP1 DUP4 GT PUSH2 0x21ED JUMPI DUP3 SWAP1 SUB PUSH1 0x1F AND DUP3 ADD SWAP2 JUMPDEST POP POP POP POP POP SWAP1 DUP1 PUSH1 0x3 ADD DUP1 SLOAD PUSH2 0x221F SWAP1 PUSH2 0x2FB8 JUMP JUMPDEST DUP1 PUSH1 0x1F ADD PUSH1 0x20 DUP1 SWAP2 DIV MUL PUSH1 0x20 ADD PUSH1 0x40 MLOAD SWAP1 DUP2 ADD PUSH1 0x40 MSTORE DUP1 SWAP3 SWAP2 SWAP1 DUP2 DUP2 MSTORE PUSH1 0x20 ADD DUP3 DUP1 SLOAD PUSH2 0x224B SWAP1 PUSH2 0x2FB8 JUMP JUMPDEST DUP1 ISZERO PUSH2 0x2296 JUMPI DUP1 PUSH1 0x1F LT PUSH2 0x226D JUMPI PUSH2 0x100 DUP1 DUP4 SLOAD DIV MUL DUP4 MSTORE SWAP2 PUSH1 0x20 ADD SWAP2 PUSH2 0x2296 JUMP JUMPDEST DUP3 ADD SWAP2 SWAP1 PUSH0 MSTORE PUSH1 0x20 PUSH0 KECCAK256 SWAP1 JUMPDEST DUP2 SLOAD DUP2 MSTORE SWAP1 PUSH1 0x1 ADD SWAP1 PUSH1 0x20 ADD DUP1 DUP4 GT PUSH2 0x2279 JUMPI DUP3 SWAP1 SUB PUSH1 0x1F AND DUP3 ADD SWAP2 JUMPDEST POP POP POP POP POP SWAP1 DUP1 PUSH1 0x4 ADD DUP1 SLOAD PUSH2 0x22AB SWAP1 PUSH2 0x2FB8 JUMP JUMPDEST DUP1 PUSH1 0x1F ADD PUSH1 0x20 DUP1 SWAP2 DIV MUL PUSH1 0x20 ADD PUSH1 0x40 MLOAD SWAP1 DUP2 ADD PUSH1 0x40 MSTORE DUP1 SWAP3 SWAP2 SWAP1 DUP2 DUP2 MSTORE PUSH1 0x20 ADD DUP3 DUP1 SLOAD PUSH2 0x22D7 SWAP1 PUSH2 0x2FB8 JUMP JUMPDEST DUP1 ISZERO PUSH2 0x2322 JUMPI DUP1 PUSH1 0x1F LT PUSH2 0x22F9 JUMPI PUSH2 0x100 DUP1 DUP4 SLOAD DIV MUL DUP4 MSTORE SWAP2 PUSH1 0x20 ADD SWAP2 PUSH2 0x2322 JUMP JUMPDEST DUP3 ADD SWAP2 SWAP1 PUSH0 MSTORE PUSH1 0x20 PUSH0 KECCAK256 SWAP1 JUMPDEST DUP2 SLOAD DUP2 MSTORE SWAP1 PUSH1 0x1 ADD SWAP1 PUSH1 0x20 ADD DUP1 DUP4 GT PUSH2 0x2305 JUMPI DUP3 SWAP1 SUB PUSH1 0x1F AND DUP3 ADD SWAP2 JUMPDEST POP POP POP POP POP SWAP1 DUP1 PUSH1 0x5 ADD DUP1 SLOAD PUSH2 0x2337 SWAP1 PUSH2 0x2FB8 JUMP JUMPDEST DUP1 PUSH1 0x1F ADD PUSH1 0x20 DUP1 SWAP2 DIV MUL PUSH1 0x20 ADD PUSH1 0x40 MLOAD SWAP1 DUP2 ADD PUSH1 0x40 MSTORE DUP1 SWAP3 SWAP2 SWAP1 DUP2 DUP2 MSTORE PUSH1 0x20 ADD DUP3 DUP1 SLOAD PUSH2 0x2363 SWAP1 PUSH2 0x2FB8 JUMP JUMPDEST DUP1 ISZERO PUSH2 0x23AE JUMPI DUP1 PUSH1 0x1F LT PUSH2 0x2385 JUMPI PUSH2 0x100 DUP1 DUP4 SLOAD DIV MUL DUP4 MSTORE SWAP2 PUSH1 0x20 ADD SWAP2 PUSH2 0x23AE JUMP JUMPDEST DUP3 ADD SWAP2 SWAP1 PUSH0 MSTORE PUSH1 0x20 PUSH0 KECCAK256 SWAP1 JUMPDEST DUP2 SLOAD DUP2 MSTORE SWAP1 PUSH1 0x1 ADD SWAP1 PUSH1 0x20 ADD DUP1 DUP4 GT PUSH2 0x2391 JUMPI DUP3 SWAP1 SUB PUSH1 0x1F AND DUP3 ADD SWAP2 JUMPDEST POP POP POP POP POP SWAP1 POP DUP7 JUMP JUMPDEST PUSH0 DUP1 CALLER PUSH20 0xFFFFFFFFFFFFFFFFFFFFFFFFFFFFFFFFFFFFFFFF AND PUSH20 0xFFFFFFFFFFFFFFFFFFFFFFFFFFFFFFFFFFFFFFFF AND DUP2 MSTORE PUSH1 0x20 ADD SWAP1 DUP2 MSTORE PUSH1 0x20 ADD PUSH0 KECCAK256 PUSH0 ADD PUSH0 SWAP1 SLOAD SWAP1 PUSH2 0x100 EXP SWAP1 DIV PUSH1 0xFF AND PUSH2 0x2442 JUMPI PUSH1 0x40 MLOAD PUSH32 0x8C379A000000000000000000000000000000000000000000000000000000000 DUP2 MSTORE PUSH1 0x4 ADD PUSH2 0x2439 SWAP1 PUSH2 0x395D JUMP JUMPDEST PUSH1 0x40 MLOAD DUP1 SWAP2 SUB SWAP1 REVERT JUMPDEST PUSH0 PUSH1 0x3 PUSH0 CALLER PUSH20 0xFFFFFFFFFFFFFFFFFFFFFFFFFFFFFFFFFFFFFFFF AND PUSH20 0xFFFFFFFFFFFFFFFFFFFFFFFFFFFFFFFFFFFFFFFF AND DUP2 MSTORE PUSH1 0x20 ADD SWAP1 DUP2 MSTORE PUSH1 0x20 ADD PUSH0 KECCAK256 PUSH0 DUP4 PUSH20 0xFFFFFFFFFFFFFFFFFFFFFFFFFFFFFFFFFFFFFFFF AND PUSH20 0xFFFFFFFFFFFFFFFFFFFFFFFFFFFFFFFFFFFFFFFF AND DUP2 MSTORE PUSH1 0x20 ADD SWAP1 DUP2 MSTORE PUSH1 0x20 ADD PUSH0 KECCAK256 PUSH0 PUSH2 0x100 EXP DUP2 SLOAD DUP2 PUSH1 0xFF MUL NOT AND SWAP1 DUP4 ISZERO ISZERO MUL OR SWAP1 SSTORE POP DUP1 PUSH20 0xFFFFFFFFFFFFFFFFFFFFFFFFFFFFFFFFFFFFFFFF AND CALLER PUSH20 0xFFFFFFFFFFFFFFFFFFFFFFFFFFFFFFFFFFFFFFFF AND PUSH32 0xEBECEE2D3F2EA272F73DD9D9CCC0BACD11280D61240332CBCD8A68173AE5CC2C PUSH1 0x40 MLOAD PUSH1 0x40 MLOAD DUP1 SWAP2 SUB SWAP1 LOG3 POP JUMP JUMPDEST PUSH1 0x3 PUSH1 0x20 MSTORE DUP2 PUSH0 MSTORE PUSH1 0x40 PUSH0 KECCAK256 PUSH1 0x20 MSTORE DUP1 PUSH0 MSTORE PUSH1 0x40 PUSH0 KECCAK256 PUSH0 SWAP2 POP SWAP2 POP SWAP1 SLOAD SWAP1 PUSH2 0x100 EXP SWAP1 DIV PUSH1 0xFF AND DUP2 JUMP JUMPDEST PUSH0 PUSH1 0x40 MLOAD SWAP1 POP SWAP1 JUMP JUMPDEST PUSH0 DUP1 REVERT JUMPDEST PUSH0 DUP1 REVERT JUMPDEST PUSH0 PUSH20 0xFFFFFFFFFFFFFFFFFFFFFFFFFFFFFFFFFFFFFFFF DUP3 AND SWAP1 POP SWAP2 SWAP1 POP JUMP JUMPDEST PUSH0 PUSH2 0x2592 DUP3 PUSH2 0x2569 JUMP JUMPDEST SWAP1 POP SWAP2 SWAP1 POP JUMP JUMPDEST PUSH2 0x25A2 DUP2 PUSH2 0x2588 JUMP JUMPDEST DUP2 EQ PUSH2 0x25AC JUMPI PUSH0 DUP1 REVERT JUMPDEST POP JUMP JUMPDEST PUSH0 DUP2 CALLDATALOAD SWAP1 POP PUSH2 0x25BD DUP2 PUSH2 0x2599 JUMP JUMPDEST SWAP3 SWAP2 POP POP JUMP JUMPDEST PUSH0 PUSH1 0x20 DUP3 DUP5 SUB SLT ISZERO PUSH2 0x25D8 JUMPI PUSH2 0x25D7 PUSH2 0x2561 JUMP JUMPDEST JUMPDEST PUSH0 PUSH2 0x25E5 DUP5 DUP3 DUP6 ADD PUSH2 0x25AF JUMP JUMPDEST SWAP2 POP POP SWAP3 SWAP2 POP POP JUMP JUMPDEST PUSH0 DUP2 ISZERO ISZERO SWAP1 POP SWAP2 SWAP1 POP JUMP JUMPDEST PUSH2 0x2602 DUP2 PUSH2 0x25EE JUMP JUMPDEST DUP3 MSTORE POP POP JUMP JUMPDEST PUSH0 DUP2 MLOAD SWAP1 POP SWAP2 SWAP1 POP JUMP JUMPDEST PUSH0 DUP3 DUP3 MSTORE PUSH1 0x20 DUP3 ADD SWAP1 POP SWAP3 SWAP2 POP POP JUMP JUMPDEST PUSH0 JUMPDEST DUP4 DUP2 LT ISZERO PUSH2 0x263F JUMPI DUP1 DUP3 ADD MLOAD DUP2 DUP5 ADD MSTORE PUSH1 0x20 DUP2 ADD SWAP1 POP PUSH2 0x2624 JUMP JUMPDEST PUSH0 DUP5 DUP5 ADD MSTORE POP POP POP POP JUMP JUMPDEST PUSH0 PUSH1 0x1F NOT PUSH1 0x1F DUP4 ADD AND SWAP1 POP SWAP2 SWAP1 POP JUMP JUMPDEST PUSH0 PUSH2 0x2664 DUP3 PUSH2 0x2608 JUMP JUMPDEST PUSH2 0x266E DUP2 DUP6 PUSH2 0x2612 JUMP JUMPDEST SWAP4 POP PUSH2 0x267E DUP2 DUP6 PUSH1 0x20 DUP7 ADD PUSH2 0x2622 JUMP JUMPDEST PUSH2 0x2687 DUP2 PUSH2 0x264A JUMP JUMPDEST DUP5 ADD SWAP2 POP POP SWAP3 SWAP2 POP POP JUMP JUMPDEST PUSH0 PUSH1 0xA0 DUP3 ADD SWAP1 POP PUSH2 0x26A5 PUSH0 DUP4 ADD DUP9 PUSH2 0x25F9 JUMP JUMPDEST DUP2 DUP2 SUB PUSH1 0x20 DUP4 ADD MSTORE PUSH2 0x26B7 DUP2 DUP8 PUSH2 0x265A JUMP JUMPDEST SWAP1 POP DUP2 DUP2 SUB PUSH1 0x40 DUP4 ADD MSTORE PUSH2 0x26CB DUP2 DUP7 PUSH2 0x265A JUMP JUMPDEST SWAP1 POP DUP2 DUP2 SUB PUSH1 0x60 DUP4 ADD MSTORE PUSH2 0x26DF DUP2 DUP6 PUSH2 0x265A JUMP JUMPDEST SWAP1 POP DUP2 DUP2 SUB PUSH1 0x80 DUP4 ADD MSTORE PUSH2 0x26F3 DUP2 DUP5 PUSH2 0x265A JUMP JUMPDEST SWAP1 POP SWAP7 SWAP6 POP POP POP POP POP POP JUMP JUMPDEST PUSH0 DUP1 REVERT JUMPDEST PUSH0 DUP1 REVERT JUMPDEST PUSH32 0x4E487B7100000000000000000000000000000000000000000000000000000000 PUSH0 MSTORE PUSH1 0x41 PUSH1 0x4 MSTORE PUSH1 0x24 PUSH0 REVERT JUMPDEST PUSH2 0x273D DUP3 PUSH2 0x264A JUMP JUMPDEST DUP2 ADD DUP2 DUP2 LT PUSH8 0xFFFFFFFFFFFFFFFF DUP3 GT OR ISZERO PUSH2 0x275C JUMPI PUSH2 0x275B PUSH2 0x2707 JUMP JUMPDEST JUMPDEST DUP1 PUSH1 0x40 MSTORE POP POP POP JUMP JUMPDEST PUSH0 PUSH2 0x276E PUSH2 0x2558 JUMP JUMPDEST SWAP1 POP PUSH2 0x277A DUP3 DUP3 PUSH2 0x2734 JUMP JUMPDEST SWAP2 SWAP1 POP JUMP JUMPDEST PUSH0 PUSH8 0xFFFFFFFFFFFFFFFF DUP3 GT ISZERO PUSH2 0x2799 JUMPI PUSH2 0x2798 PUSH2 0x2707 JUMP JUMPDEST JUMPDEST PUSH2 0x27A2 DUP3 PUSH2 0x264A JUMP JUMPDEST SWAP1 POP PUSH1 0x20 DUP2 ADD SWAP1 POP SWAP2 SWAP1 POP JUMP JUMPDEST DUP3 DUP2 DUP4 CALLDATACOPY PUSH0 DUP4 DUP4 ADD MSTORE POP POP POP JUMP JUMPDEST PUSH0 PUSH2 0x27CF PUSH2 0x27CA DUP5 PUSH2 0x277F JUMP JUMPDEST PUSH2 0x2765 JUMP JUMPDEST SWAP1 POP DUP3 DUP2 MSTORE PUSH1 0x20 DUP2 ADD DUP5 DUP5 DUP5 ADD GT ISZERO PUSH2 0x27EB JUMPI PUSH2 0x27EA PUSH2 0x2703 JUMP JUMPDEST JUMPDEST PUSH2 0x27F6 DUP5 DUP3 DUP6 PUSH2 0x27AF JUMP JUMPDEST POP SWAP4 SWAP3 POP POP POP JUMP JUMPDEST PUSH0 DUP3 PUSH1 0x1F DUP4 ADD SLT PUSH2 0x2812 JUMPI PUSH2 0x2811 PUSH2 0x26FF JUMP JUMPDEST JUMPDEST DUP2 CALLDATALOAD PUSH2 0x2822 DUP5 DUP3 PUSH1 0x20 DUP7 ADD PUSH2 0x27BD JUMP JUMPDEST SWAP2 POP POP SWAP3 SWAP2 POP POP JUMP JUMPDEST PUSH0 DUP1 PUSH0 DUP1 PUSH0 DUP1 PUSH1 0xC0 DUP8 DUP10 SUB SLT ISZERO PUSH2 0x2845 JUMPI PUSH2 0x2844 PUSH2 0x2561 JUMP JUMPDEST JUMPDEST PUSH0 PUSH2 0x2852 DUP10 DUP3 DUP11 ADD PUSH2 0x25AF JUMP JUMPDEST SWAP7 POP POP PUSH1 0x20 DUP8 ADD CALLDATALOAD PUSH8 0xFFFFFFFFFFFFFFFF DUP2 GT ISZERO PUSH2 0x2873 JUMPI PUSH2 0x2872 PUSH2 0x2565 JUMP JUMPDEST JUMPDEST PUSH2 0x287F DUP10 DUP3 DUP11 ADD PUSH2 0x27FE JUMP JUMPDEST SWAP6 POP POP PUSH1 0x40 DUP8 ADD CALLDATALOAD PUSH8 0xFFFFFFFFFFFFFFFF DUP2 GT ISZERO PUSH2 0x28A0 JUMPI PUSH2 0x289F PUSH2 0x2565 JUMP JUMPDEST JUMPDEST PUSH2 0x28AC DUP10 DUP3 DUP11 ADD PUSH2 0x27FE JUMP JUMPDEST SWAP5 POP POP PUSH1 0x60 DUP8 ADD CALLDATALOAD PUSH8 0xFFFFFFFFFFFFFFFF DUP2 GT ISZERO PUSH2 0x28CD JUMPI PUSH2 0x28CC PUSH2 0x2565 JUMP JUMPDEST JUMPDEST PUSH2 0x28D9 DUP10 DUP3 DUP11 ADD PUSH2 0x27FE JUMP JUMPDEST SWAP4 POP POP PUSH1 0x80 DUP8 ADD CALLDATALOAD PUSH8 0xFFFFFFFFFFFFFFFF DUP2 GT ISZERO PUSH2 0x28FA JUMPI PUSH2 0x28F9 PUSH2 0x2565 JUMP JUMPDEST JUMPDEST PUSH2 0x2906 DUP10 DUP3 DUP11 ADD PUSH2 0x27FE JUMP JUMPDEST SWAP3 POP POP PUSH1 0xA0 DUP8 ADD CALLDATALOAD PUSH8 0xFFFFFFFFFFFFFFFF DUP2 GT ISZERO PUSH2 0x2927 JUMPI PUSH2 0x2926 PUSH2 0x2565 JUMP JUMPDEST JUMPDEST PUSH2 0x2933 DUP10 DUP3 DUP11 ADD PUSH2 0x27FE JUMP JUMPDEST SWAP2 POP POP SWAP3 SWAP6 POP SWAP3 SWAP6 POP SWAP3 SWAP6 JUMP JUMPDEST PUSH0 DUP1 PUSH1 0x40 DUP4 DUP6 SUB SLT ISZERO PUSH2 0x2956 JUMPI PUSH2 0x2955 PUSH2 0x2561 JUMP JUMPDEST JUMPDEST PUSH0 PUSH2 0x2963 DUP6 DUP3 DUP7 ADD PUSH2 0x25AF JUMP JUMPDEST SWAP3 POP POP PUSH1 0x20 PUSH2 0x2974 DUP6 DUP3 DUP7 ADD PUSH2 0x25AF JUMP JUMPDEST SWAP2 POP POP SWAP3 POP SWAP3 SWAP1 POP JUMP JUMPDEST PUSH0 PUSH1 0xFF DUP3 AND SWAP1 POP SWAP2 SWAP1 POP JUMP JUMPDEST PUSH2 0x2993 DUP2 PUSH2 0x297E JUMP JUMPDEST DUP3 MSTORE POP POP JUMP JUMPDEST PUSH0 PUSH1 0x60 DUP3 ADD SWAP1 POP DUP2 DUP2 SUB PUSH0 DUP4 ADD MSTORE PUSH2 0x29B1 DUP2 DUP7 PUSH2 0x265A JUMP JUMPDEST SWAP1 POP PUSH2 0x29C0 PUSH1 0x20 DUP4 ADD DUP6 PUSH2 0x298A JUMP JUMPDEST PUSH2 0x29CD PUSH1 0x40 DUP4 ADD DUP5 PUSH2 0x25F9 JUMP JUMPDEST SWAP5 SWAP4 POP POP POP POP JUMP JUMPDEST PUSH0 PUSH1 0x80 DUP3 ADD SWAP1 POP DUP2 DUP2 SUB PUSH0 DUP4 ADD MSTORE PUSH2 0x29ED DUP2 DUP8 PUSH2 0x265A JUMP JUMPDEST SWAP1 POP DUP2 DUP2 SUB PUSH1 0x20 DUP4 ADD MSTORE PUSH2 0x2A01 DUP2 DUP7 PUSH2 0x265A JUMP JUMPDEST SWAP1 POP DUP2 DUP2 SUB PUSH1 0x40 DUP4 ADD MSTORE PUSH2 0x2A15 DUP2 DUP6 PUSH2 0x265A JUMP JUMPDEST SWAP1 POP DUP2 DUP2 SUB PUSH1 0x60 DUP4 ADD MSTORE PUSH2 0x2A29 DUP2 DUP5 PUSH2 0x265A JUMP JUMPDEST SWAP1 POP SWAP6 SWAP5 POP POP POP POP POP JUMP JUMPDEST PUSH0 DUP1 PUSH0 DUP1 PUSH1 0x80 DUP6 DUP8 SUB SLT ISZERO PUSH2 0x2A4C JUMPI PUSH2 0x2A4B PUSH2 0x2561 JUMP JUMPDEST JUMPDEST PUSH0 DUP6 ADD CALLDATALOAD PUSH8 0xFFFFFFFFFFFFFFFF DUP2 GT ISZERO PUSH2 0x2A69 JUMPI PUSH2 0x2A68 PUSH2 0x2565 JUMP JUMPDEST JUMPDEST PUSH2 0x2A75 DUP8 DUP3 DUP9 ADD PUSH2 0x27FE JUMP JUMPDEST SWAP5 POP POP PUSH1 0x20 DUP6 ADD CALLDATALOAD PUSH8 0xFFFFFFFFFFFFFFFF DUP2 GT ISZERO PUSH2 0x2A96 JUMPI PUSH2 0x2A95 PUSH2 0x2565 JUMP JUMPDEST JUMPDEST PUSH2 0x2AA2 DUP8 DUP3 DUP9 ADD PUSH2 0x27FE JUMP JUMPDEST SWAP4 POP POP PUSH1 0x40 DUP6 ADD CALLDATALOAD PUSH8 0xFFFFFFFFFFFFFFFF DUP2 GT ISZERO PUSH2 0x2AC3 JUMPI PUSH2 0x2AC2 PUSH2 0x2565 JUMP JUMPDEST JUMPDEST PUSH2 0x2ACF DUP8 DUP3 DUP9 ADD PUSH2 0x27FE JUMP JUMPDEST SWAP3 POP POP PUSH1 0x60 DUP6 ADD CALLDATALOAD PUSH8 0xFFFFFFFFFFFFFFFF DUP2 GT ISZERO PUSH2 0x2AF0 JUMPI PUSH2 0x2AEF PUSH2 0x2565 JUMP JUMPDEST JUMPDEST PUSH2 0x2AFC DUP8 DUP3 DUP9 ADD PUSH2 0x27FE JUMP JUMPDEST SWAP2 POP POP SWAP3 SWAP6 SWAP2 SWAP5 POP SWAP3 POP JUMP JUMPDEST PUSH0 PUSH1 0x20 DUP3 ADD SWAP1 POP PUSH2 0x2B1B PUSH0 DUP4 ADD DUP5 PUSH2 0x25F9 JUMP JUMPDEST SWAP3 SWAP2 POP POP JUMP JUMPDEST PUSH0 PUSH1 0x20 DUP3 ADD SWAP1 POP DUP2 DUP2 SUB PUSH0 DUP4 ADD MSTORE PUSH2 0x2B39 DUP2 DUP5 PUSH2 0x265A JUMP JUMPDEST SWAP1 POP SWAP3 SWAP2 POP POP JUMP JUMPDEST PUSH0 PUSH8 0xFFFFFFFFFFFFFFFF DUP3 GT ISZERO PUSH2 0x2B5B JUMPI PUSH2 0x2B5A PUSH2 0x2707 JUMP JUMPDEST JUMPDEST PUSH2 0x2B64 DUP3 PUSH2 0x264A JUMP JUMPDEST SWAP1 POP PUSH1 0x20 DUP2 ADD SWAP1 POP SWAP2 SWAP1 POP JUMP JUMPDEST PUSH0 PUSH2 0x2B83 PUSH2 0x2B7E DUP5 PUSH2 0x2B41 JUMP JUMPDEST PUSH2 0x2765 JUMP JUMPDEST SWAP1 POP DUP3 DUP2 MSTORE PUSH1 0x20 DUP2 ADD DUP5 DUP5 DUP5 ADD GT ISZERO PUSH2 0x2B9F JUMPI PUSH2 0x2B9E PUSH2 0x2703 JUMP JUMPDEST JUMPDEST PUSH2 0x2BAA DUP5 DUP3 DUP6 PUSH2 0x27AF JUMP JUMPDEST POP SWAP4 SWAP3 POP POP POP JUMP JUMPDEST PUSH0 DUP3 PUSH1 0x1F DUP4 ADD SLT PUSH2 0x2BC6 JUMPI PUSH2 0x2BC5 PUSH2 0x26FF JUMP JUMPDEST JUMPDEST DUP2 CALLDATALOAD PUSH2 0x2BD6 DUP5 DUP3 PUSH1 0x20 DUP7 ADD PUSH2 0x2B71 JUMP JUMPDEST SWAP2 POP POP SWAP3 SWAP2 POP POP JUMP JUMPDEST PUSH0 DUP1 PUSH1 0x40 DUP4 DUP6 SUB SLT ISZERO PUSH2 0x2BF5 JUMPI PUSH2 0x2BF4 PUSH2 0x2561 JUMP JUMPDEST JUMPDEST PUSH0 PUSH2 0x2C02 DUP6 DUP3 DUP7 ADD PUSH2 0x25AF JUMP JUMPDEST SWAP3 POP POP PUSH1 0x20 DUP4 ADD CALLDATALOAD PUSH8 0xFFFFFFFFFFFFFFFF DUP2 GT ISZERO PUSH2 0x2C23 JUMPI PUSH2 0x2C22 PUSH2 0x2565 JUMP JUMPDEST JUMPDEST PUSH2 0x2C2F DUP6 DUP3 DUP7 ADD PUSH2 0x2BB2 JUMP JUMPDEST SWAP2 POP POP SWAP3 POP SWAP3 SWAP1 POP JUMP JUMPDEST PUSH2 0x2C42 DUP2 PUSH2 0x2588 JUMP JUMPDEST DUP3 MSTORE POP POP JUMP JUMPDEST PUSH0 PUSH1 0x20 DUP3 ADD SWAP1 POP PUSH2 0x2C5B PUSH0 DUP4 ADD DUP5 PUSH2 0x2C39 JUMP JUMPDEST SWAP3 SWAP2 POP POP JUMP JUMPDEST PUSH2 0x2C6A DUP2 PUSH2 0x297E JUMP JUMPDEST DUP2 EQ PUSH2 0x2C74 JUMPI PUSH0 DUP1 REVERT JUMPDEST POP JUMP JUMPDEST PUSH0 DUP2 CALLDATALOAD SWAP1 POP PUSH2 0x2C85 DUP2 PUSH2 0x2C61 JUMP JUMPDEST SWAP3 SWAP2 POP POP JUMP JUMPDEST PUSH0 DUP1 PUSH0 PUSH1 0x60 DUP5 DUP7 SUB SLT ISZERO PUSH2 0x2CA2 JUMPI PUSH2 0x2CA1 PUSH2 0x2561 JUMP JUMPDEST JUMPDEST PUSH0 PUSH2 0x2CAF DUP7 DUP3 DUP8 ADD PUSH2 0x25AF JUMP JUMPDEST SWAP4 POP POP PUSH1 0x20 DUP5 ADD CALLDATALOAD PUSH8 0xFFFFFFFFFFFFFFFF DUP2 GT ISZERO PUSH2 0x2CD0 JUMPI PUSH2 0x2CCF PUSH2 0x2565 JUMP JUMPDEST JUMPDEST PUSH2 0x2CDC DUP7 DUP3 DUP8 ADD PUSH2 0x27FE JUMP JUMPDEST SWAP3 POP POP PUSH1 0x40 PUSH2 0x2CED DUP7 DUP3 DUP8 ADD PUSH2 0x2C77 JUMP JUMPDEST SWAP2 POP POP SWAP3 POP SWAP3 POP SWAP3 JUMP JUMPDEST PUSH0 PUSH1 0xC0 DUP3 ADD SWAP1 POP PUSH2 0x2D0A PUSH0 DUP4 ADD DUP10 PUSH2 0x25F9 JUMP JUMPDEST DUP2 DUP2 SUB PUSH1 0x20 DUP4 ADD MSTORE PUSH2 0x2D1C DUP2 DUP9 PUSH2 0x265A JUMP JUMPDEST SWAP1 POP DUP2 DUP2 SUB PUSH1 0x40 DUP4 ADD MSTORE PUSH2 0x2D30 DUP2 DUP8 PUSH2 0x265A JUMP JUMPDEST SWAP1 POP DUP2 DUP2 SUB PUSH1 0x60 DUP4 ADD MSTORE PUSH2 0x2D44 DUP2 DUP7 PUSH2 0x265A JUMP JUMPDEST SWAP1 POP DUP2 DUP2 SUB PUSH1 0x80 DUP4 ADD MSTORE PUSH2 0x2D58 DUP2 DUP6 PUSH2 0x265A JUMP JUMPDEST SWAP1 POP DUP2 DUP2 SUB PUSH1 0xA0 DUP4 ADD MSTORE PUSH2 0x2D6C DUP2 DUP5 PUSH2 0x265A JUMP JUMPDEST SWAP1 POP SWAP8 SWAP7 POP POP POP POP POP POP POP JUMP JUMPDEST PUSH32 0x43616C6C6572206973206E6F7420616E20617574686F72697A656420646F6374 PUSH0 DUP3 ADD MSTORE PUSH32 0x6F72000000000000000000000000000000000000000000000000000000000000 PUSH1 0x20 DUP3 ADD MSTORE POP JUMP JUMPDEST PUSH0 PUSH2 0x2DD3 PUSH1 0x22 DUP4 PUSH2 0x2612 JUMP JUMPDEST SWAP2 POP PUSH2 0x2DDE DUP3 PUSH2 0x2D79 JUMP JUMPDEST PUSH1 0x40 DUP3 ADD SWAP1 POP SWAP2 SWAP1 POP JUMP JUMPDEST PUSH0 PUSH1 0x20 DUP3 ADD SWAP1 POP DUP2 DUP2 SUB PUSH0 DUP4 ADD MSTORE PUSH2 0x2E00 DUP2 PUSH2 0x2DC7 JUMP JUMPDEST SWAP1 POP SWAP2 SWAP1 POP JUMP JUMPDEST PUSH32 0x41646472657373206973206E6F74206120726567697374657265642070617469 PUSH0 DUP3 ADD MSTORE PUSH32 0x656E742E00000000000000000000000000000000000000000000000000000000 PUSH1 0x20 DUP3 ADD MSTORE POP JUMP JUMPDEST PUSH0 PUSH2 0x2E61 PUSH1 0x24 DUP4 PUSH2 0x2612 JUMP JUMPDEST SWAP2 POP PUSH2 0x2E6C DUP3 PUSH2 0x2E07 JUMP JUMPDEST PUSH1 0x40 DUP3 ADD SWAP1 POP SWAP2 SWAP1 POP JUMP JUMPDEST PUSH0 PUSH1 0x20 DUP3 ADD SWAP1 POP DUP2 DUP2 SUB PUSH0 DUP4 ADD MSTORE PUSH2 0x2E8E DUP2 PUSH2 0x2E55 JUMP JUMPDEST SWAP1 POP SWAP2 SWAP1 POP JUMP JUMPDEST PUSH32 0x436F6E73656E7420697320616C7265616479206772616E7465642E0000000000 PUSH0 DUP3 ADD MSTORE POP JUMP JUMPDEST PUSH0 PUSH2 0x2EC9 PUSH1 0x1B DUP4 PUSH2 0x2612 JUMP JUMPDEST SWAP2 POP PUSH2 0x2ED4 DUP3 PUSH2 0x2E95 JUMP JUMPDEST PUSH1 0x20 DUP3 ADD SWAP1 POP SWAP2 SWAP1 POP JUMP JUMPDEST PUSH0 PUSH1 0x20 DUP3 ADD SWAP1 POP DUP2 DUP2 SUB PUSH0 DUP4 ADD MSTORE PUSH2 0x2EF6 DUP2 PUSH2 0x2EBD JUMP JUMPDEST SWAP1 POP SWAP2 SWAP1 POP JUMP JUMPDEST PUSH32 0x436F6E73656E74207265717565737420697320616C72656164792070656E6469 PUSH0 DUP3 ADD MSTORE PUSH32 0x6E672E0000000000000000000000000000000000000000000000000000000000 PUSH1 0x20 DUP3 ADD MSTORE POP JUMP JUMPDEST PUSH0 PUSH2 0x2F57 PUSH1 0x23 DUP4 PUSH2 0x2612 JUMP JUMPDEST SWAP2 POP PUSH2 0x2F62 DUP3 PUSH2 0x2EFD JUMP JUMPDEST PUSH1 0x40 DUP3 ADD SWAP1 POP SWAP2 SWAP1 POP JUMP JUMPDEST PUSH0 PUSH1 0x20 DUP3 ADD SWAP1 POP DUP2 DUP2 SUB PUSH0 DUP4 ADD MSTORE PUSH2 0x2F84 DUP2 PUSH2 0x2F4B JUMP JUMPDEST SWAP1 POP SWAP2 SWAP1 POP JUMP JUMPDEST PUSH32 0x4E487B7100000000000000000000000000000000000000000000000000000000 PUSH0 MSTORE PUSH1 0x22 PUSH1 0x4 MSTORE PUSH1 0x24 PUSH0 REVERT JUMPDEST PUSH0 PUSH1 0x2 DUP3 DIV SWAP1 POP PUSH1 0x1 DUP3 AND DUP1 PUSH2 0x2FCF JUMPI PUSH1 0x7F DUP3 AND SWAP2 POP JUMPDEST PUSH1 0x20 DUP3 LT DUP2 SUB PUSH2 0x2FE2 JUMPI PUSH2 0x2FE1 PUSH2 0x2F8B JUMP JUMPDEST JUMPDEST POP SWAP2 SWAP1 POP JUMP JUMPDEST PUSH32 0x4F6E6C79206F776E65722063616E20706572666F726D20746869732061637469 PUSH0 DUP3 ADD MSTORE PUSH32 0x6F6E000000000000000000000000000000000000000000000000000000000000 PUSH1 0x20 DUP3 ADD MSTORE POP JUMP JUMPDEST PUSH0 PUSH2 0x3042 PUSH1 0x22 DUP4 PUSH2 0x2612 JUMP JUMPDEST SWAP2 POP PUSH2 0x304D DUP3 PUSH2 0x2FE8 JUMP JUMPDEST PUSH1 0x40 DUP3 ADD SWAP1 POP SWAP2 SWAP1 POP JUMP JUMPDEST PUSH0 PUSH1 0x20 DUP3 ADD SWAP1 POP DUP2 DUP2 SUB PUSH0 DUP4 ADD MSTORE PUSH2 0x306F DUP2 PUSH2 0x3036 JUMP JUMPDEST SWAP1 POP SWAP2 SWAP1 POP JUMP JUMPDEST PUSH32 0x446F63746F7220697320616C7265616479207265676973746572656400000000 PUSH0 DUP3 ADD MSTORE POP JUMP JUMPDEST PUSH0 PUSH2 0x30AA PUSH1 0x1C DUP4 PUSH2 0x2612 JUMP JUMPDEST SWAP2 POP PUSH2 0x30B5 DUP3 PUSH2 0x3076 JUMP JUMPDEST PUSH1 0x20 DUP3 ADD SWAP1 POP SWAP2 SWAP1 POP JUMP JUMPDEST PUSH0 PUSH1 0x20 DUP3 ADD SWAP1 POP DUP2 DUP2 SUB PUSH0 DUP4 ADD MSTORE PUSH2 0x30D7 DUP2 PUSH2 0x309E JUMP JUMPDEST SWAP1 POP SWAP2 SWAP1 POP JUMP JUMPDEST PUSH32 0x4164647265737320697320616C72656164792072656769737465726564206173 PUSH0 DUP3 ADD MSTORE PUSH32 0x20612070617469656E7400000000000000000000000000000000000000000000 PUSH1 0x20 DUP3 ADD MSTORE POP JUMP JUMPDEST PUSH0 PUSH2 0x3138 PUSH1 0x2A DUP4 PUSH2 0x2612 JUMP JUMPDEST SWAP2 POP PUSH2 0x3143 DUP3 PUSH2 0x30DE JUMP JUMPDEST PUSH1 0x40 DUP3 ADD SWAP1 POP SWAP2 SWAP1 POP JUMP JUMPDEST PUSH0 PUSH1 0x20 DUP3 ADD SWAP1 POP DUP2 DUP2 SUB PUSH0 DUP4 ADD MSTORE PUSH2 0x3165 DUP2 PUSH2 0x312C JUMP JUMPDEST SWAP1 POP SWAP2 SWAP1 POP JUMP JUMPDEST PUSH0 DUP2 SWAP1 POP DUP2 PUSH0 MSTORE PUSH1 0x20 PUSH0 KECCAK256 SWAP1 POP SWAP2 SWAP1 POP JUMP JUMPDEST PUSH0 PUSH1 0x20 PUSH1 0x1F DUP4 ADD DIV SWAP1 POP SWAP2 SWAP1 POP JUMP JUMPDEST PUSH0 DUP3 DUP3 SHL SWAP1 POP SWAP3 SWAP2 POP POP JUMP JUMPDEST PUSH0 PUSH1 0x8 DUP4 MUL PUSH2 0x31C8 PUSH32 0xFFFFFFFFFFFFFFFFFFFFFFFFFFFFFFFFFFFFFFFFFFFFFFFFFFFFFFFFFFFFFFFF DUP3 PUSH2 0x318D JUMP JUMPDEST PUSH2 0x31D2 DUP7 DUP4 PUSH2 0x318D JUMP JUMPDEST SWAP6 POP DUP1 NOT DUP5 AND SWAP4 POP DUP1 DUP7 AND DUP5 OR SWAP3 POP POP POP SWAP4 SWAP3 POP POP POP JUMP JUMPDEST PUSH0 DUP2 SWAP1 POP SWAP2 SWAP1 POP JUMP JUMPDEST PUSH0 DUP2 SWAP1 POP SWAP2 SWAP1 POP JUMP JUMPDEST PUSH0 PUSH2 0x3216 PUSH2 0x3211 PUSH2 0x320C DUP5 PUSH2 0x31EA JUMP JUMPDEST PUSH2 0x31F3 JUMP JUMPDEST PUSH2 0x31EA JUMP JUMPDEST SWAP1 POP SWAP2 SWAP1 POP JUMP JUMPDEST PUSH0 DUP2 SWAP1 POP SWAP2 SWAP1 POP JUMP JUMPDEST PUSH2 0x322F DUP4 PUSH2 0x31FC JUMP JUMPDEST PUSH2 0x3243 PUSH2 0x323B DUP3 PUSH2 0x321D JUMP JUMPDEST DUP5 DUP5 SLOAD PUSH2 0x3199 JUMP JUMPDEST DUP3 SSTORE POP POP POP POP JUMP JUMPDEST PUSH0 SWAP1 JUMP JUMPDEST PUSH2 0x3257 PUSH2 0x324B JUMP JUMPDEST PUSH2 0x3262 DUP2 DUP5 DUP5 PUSH2 0x3226 JUMP JUMPDEST POP POP POP JUMP JUMPDEST JUMPDEST DUP2 DUP2 LT ISZERO PUSH2 0x3285 JUMPI PUSH2 0x327A PUSH0 DUP3 PUSH2 0x324F JUMP JUMPDEST PUSH1 0x1 DUP2 ADD SWAP1 POP PUSH2 0x3268 JUMP JUMPDEST POP POP JUMP JUMPDEST PUSH1 0x1F DUP3 GT ISZERO PUSH2 0x32CA JUMPI PUSH2 0x329B DUP2 PUSH2 0x316C JUMP JUMPDEST PUSH2 0x32A4 DUP5 PUSH2 0x317E JUMP JUMPDEST DUP2 ADD PUSH1 0x20 DUP6 LT ISZERO PUSH2 0x32B3 JUMPI DUP2 SWAP1 POP JUMPDEST PUSH2 0x32C7 PUSH2 0x32BF DUP6 PUSH2 0x317E JUMP JUMPDEST DUP4 ADD DUP3 PUSH2 0x3267 JUMP JUMPDEST POP POP JUMPDEST POP POP POP JUMP JUMPDEST PUSH0 DUP3 DUP3 SHR SWAP1 POP SWAP3 SWAP2 POP POP JUMP JUMPDEST PUSH0 PUSH2 0x32EA PUSH0 NOT DUP5 PUSH1 0x8 MUL PUSH2 0x32CF JUMP JUMPDEST NOT DUP1 DUP4 AND SWAP2 POP POP SWAP3 SWAP2 POP POP JUMP JUMPDEST PUSH0 PUSH2 0x3302 DUP4 DUP4 PUSH2 0x32DB JUMP JUMPDEST SWAP2 POP DUP3 PUSH1 0x2 MUL DUP3 OR SWAP1 POP SWAP3 SWAP2 POP POP JUMP JUMPDEST PUSH2 0x331B DUP3 PUSH2 0x2608 JUMP JUMPDEST PUSH8 0xFFFFFFFFFFFFFFFF DUP2 GT ISZERO PUSH2 0x3334 JUMPI PUSH2 0x3333 PUSH2 0x2707 JUMP JUMPDEST JUMPDEST PUSH2 0x333E DUP3 SLOAD PUSH2 0x2FB8 JUMP JUMPDEST PUSH2 0x3349 DUP3 DUP3 DUP6 PUSH2 0x3289 JUMP JUMPDEST PUSH0 PUSH1 0x20 SWAP1 POP PUSH1 0x1F DUP4 GT PUSH1 0x1 DUP2 EQ PUSH2 0x337A JUMPI PUSH0 DUP5 ISZERO PUSH2 0x3368 JUMPI DUP3 DUP8 ADD MLOAD SWAP1 POP JUMPDEST PUSH2 0x3372 DUP6 DUP3 PUSH2 0x32F7 JUMP JUMPDEST DUP7 SSTORE POP PUSH2 0x33D9 JUMP JUMPDEST PUSH1 0x1F NOT DUP5 AND PUSH2 0x3388 DUP7 PUSH2 0x316C JUMP JUMPDEST PUSH0 JUMPDEST DUP3 DUP2 LT ISZERO PUSH2 0x33AF JUMPI DUP5 DUP10 ADD MLOAD DUP3 SSTORE PUSH1 0x1 DUP3 ADD SWAP2 POP PUSH1 0x20 DUP6 ADD SWAP5 POP PUSH1 0x20 DUP2 ADD SWAP1 POP PUSH2 0x338A JUMP JUMPDEST DUP7 DUP4 LT ISZERO PUSH2 0x33CC JUMPI DUP5 DUP10 ADD MLOAD PUSH2 0x33C8 PUSH1 0x1F DUP10 AND DUP3 PUSH2 0x32DB JUMP JUMPDEST DUP4 SSTORE POP JUMPDEST PUSH1 0x1 PUSH1 0x2 DUP9 MUL ADD DUP9 SSTORE POP POP POP JUMPDEST POP POP POP POP POP POP JUMP JUMPDEST PUSH0 PUSH1 0x40 DUP3 ADD SWAP1 POP DUP2 DUP2 SUB PUSH0 DUP4 ADD MSTORE PUSH2 0x33F9 DUP2 DUP6 PUSH2 0x265A JUMP JUMPDEST SWAP1 POP DUP2 DUP2 SUB PUSH1 0x20 DUP4 ADD MSTORE PUSH2 0x340D DUP2 DUP5 PUSH2 0x265A JUMP JUMPDEST SWAP1 POP SWAP4 SWAP3 POP POP POP JUMP JUMPDEST PUSH32 0x4E6F74206120726567697374657265642070617469656E742E00000000000000 PUSH0 DUP3 ADD MSTORE POP JUMP JUMPDEST PUSH0 PUSH2 0x344A PUSH1 0x19 DUP4 PUSH2 0x2612 JUMP JUMPDEST SWAP2 POP PUSH2 0x3455 DUP3 PUSH2 0x3416 JUMP JUMPDEST PUSH1 0x20 DUP3 ADD SWAP1 POP SWAP2 SWAP1 POP JUMP JUMPDEST PUSH0 PUSH1 0x20 DUP3 ADD SWAP1 POP DUP2 DUP2 SUB PUSH0 DUP4 ADD MSTORE PUSH2 0x3477 DUP2 PUSH2 0x343E JUMP JUMPDEST SWAP1 POP SWAP2 SWAP1 POP JUMP JUMPDEST PUSH32 0x416C7265616479207265676973746572656420617320612070617469656E742E PUSH0 DUP3 ADD MSTORE POP JUMP JUMPDEST PUSH0 PUSH2 0x34B2 PUSH1 0x20 DUP4 PUSH2 0x2612 JUMP JUMPDEST SWAP2 POP PUSH2 0x34BD DUP3 PUSH2 0x347E JUMP JUMPDEST PUSH1 0x20 DUP3 ADD SWAP1 POP SWAP2 SWAP1 POP JUMP JUMPDEST PUSH0 PUSH1 0x20 DUP3 ADD SWAP1 POP DUP2 DUP2 SUB PUSH0 DUP4 ADD MSTORE PUSH2 0x34DF DUP2 PUSH2 0x34A6 JUMP JUMPDEST SWAP1 POP SWAP2 SWAP1 POP JUMP JUMPDEST PUSH32 0x446F63746F72732063616E6E6F74207265676973746572206173207061746965 PUSH0 DUP3 ADD MSTORE PUSH32 0x6E74732E00000000000000000000000000000000000000000000000000000000 PUSH1 0x20 DUP3 ADD MSTORE POP JUMP JUMPDEST PUSH0 PUSH2 0x3540 PUSH1 0x24 DUP4 PUSH2 0x2612 JUMP JUMPDEST SWAP2 POP PUSH2 0x354B DUP3 PUSH2 0x34E6 JUMP JUMPDEST PUSH1 0x40 DUP3 ADD SWAP1 POP SWAP2 SWAP1 POP JUMP JUMPDEST PUSH0 PUSH1 0x20 DUP3 ADD SWAP1 POP DUP2 DUP2 SUB PUSH0 DUP4 ADD MSTORE PUSH2 0x356D DUP2 PUSH2 0x3534 JUMP JUMPDEST SWAP1 POP SWAP2 SWAP1 POP JUMP JUMPDEST PUSH32 0x4E6F7420616E20617574686F72697A656420646F63746F722E00000000000000 PUSH0 DUP3 ADD MSTORE POP JUMP JUMPDEST PUSH0 PUSH2 0x35A8 PUSH1 0x19 DUP4 PUSH2 0x2612 JUMP JUMPDEST SWAP2 POP PUSH2 0x35B3 DUP3 PUSH2 0x3574 JUMP JUMPDEST PUSH1 0x20 DUP3 ADD SWAP1 POP SWAP2 SWAP1 POP JUMP JUMPDEST PUSH0 PUSH1 0x20 DUP3 ADD SWAP1 POP DUP2 DUP2 SUB PUSH0 DUP4 ADD MSTORE PUSH2 0x35D5 DUP2 PUSH2 0x359C JUMP JUMPDEST SWAP1 POP SWAP2 SWAP1 POP JUMP JUMPDEST PUSH32 0x50617469656E7420686173206E6F74206772616E74656420636F6E73656E7420 PUSH0 DUP3 ADD MSTORE PUSH32 0x746F207468697320646F63746F722E0000000000000000000000000000000000 PUSH1 0x20 DUP3 ADD MSTORE POP JUMP JUMPDEST PUSH0 PUSH2 0x3636 PUSH1 0x2F DUP4 PUSH2 0x2612 JUMP JUMPDEST SWAP2 POP PUSH2 0x3641 DUP3 PUSH2 0x35DC JUMP JUMPDEST PUSH1 0x40 DUP3 ADD SWAP1 POP SWAP2 SWAP1 POP JUMP JUMPDEST PUSH0 PUSH1 0x20 DUP3 ADD SWAP1 POP DUP2 DUP2 SUB PUSH0 DUP4 ADD MSTORE PUSH2 0x3663 DUP2 PUSH2 0x362A JUMP JUMPDEST SWAP1 POP SWAP2 SWAP1 POP JUMP JUMPDEST PUSH32 0x456E6372797074656420646174612063616E6E6F7420626520656D7074792E00 PUSH0 DUP3 ADD MSTORE POP JUMP JUMPDEST PUSH0 PUSH2 0x369E PUSH1 0x1F DUP4 PUSH2 0x2612 JUMP JUMPDEST SWAP2 POP PUSH2 0x36A9 DUP3 PUSH2 0x366A JUMP JUMPDEST PUSH1 0x20 DUP3 ADD SWAP1 POP SWAP2 SWAP1 POP JUMP JUMPDEST PUSH0 PUSH1 0x20 DUP3 ADD SWAP1 POP DUP2 DUP2 SUB PUSH0 DUP4 ADD MSTORE PUSH2 0x36CB DUP2 PUSH2 0x3692 JUMP JUMPDEST SWAP1 POP SWAP2 SWAP1 POP JUMP JUMPDEST PUSH2 0x36DB DUP2 PUSH2 0x31EA JUMP JUMPDEST DUP3 MSTORE POP POP JUMP JUMPDEST PUSH0 DUP2 MLOAD SWAP1 POP SWAP2 SWAP1 POP JUMP JUMPDEST PUSH0 DUP3 DUP3 MSTORE PUSH1 0x20 DUP3 ADD SWAP1 POP SWAP3 SWAP2 POP POP JUMP JUMPDEST PUSH0 PUSH2 0x3705 DUP3 PUSH2 0x36E1 JUMP JUMPDEST PUSH2 0x370F DUP2 DUP6 PUSH2 0x36EB JUMP JUMPDEST SWAP4 POP PUSH2 0x371F DUP2 DUP6 PUSH1 0x20 DUP7 ADD PUSH2 0x2622 JUMP JUMPDEST PUSH2 0x3728 DUP2 PUSH2 0x264A JUMP JUMPDEST DUP5 ADD SWAP2 POP POP SWAP3 SWAP2 POP POP JUMP JUMPDEST PUSH0 PUSH1 0x40 DUP3 ADD SWAP1 POP PUSH2 0x3746 PUSH0 DUP4 ADD DUP6 PUSH2 0x36D2 JUMP JUMPDEST DUP2 DUP2 SUB PUSH1 0x20 DUP4 ADD MSTORE PUSH2 0x3758 DUP2 DUP5 PUSH2 0x36FB JUMP JUMPDEST SWAP1 POP SWAP4 SWAP3 POP POP POP JUMP JUMPDEST PUSH32 0x496E76616C6964207374617475732076616C75652E0000000000000000000000 PUSH0 DUP3 ADD MSTORE POP JUMP JUMPDEST PUSH0 PUSH2 0x3795 PUSH1 0x15 DUP4 PUSH2 0x2612 JUMP JUMPDEST SWAP2 POP PUSH2 0x37A0 DUP3 PUSH2 0x3761 JUMP JUMPDEST PUSH1 0x20 DUP3 ADD SWAP1 POP SWAP2 SWAP1 POP JUMP JUMPDEST PUSH0 PUSH1 0x20 DUP3 ADD SWAP1 POP DUP2 DUP2 SUB PUSH0 DUP4 ADD MSTORE PUSH2 0x37C2 DUP2 PUSH2 0x3789 JUMP JUMPDEST SWAP1 POP SWAP2 SWAP1 POP JUMP JUMPDEST PUSH0 PUSH1 0x40 DUP3 ADD SWAP1 POP DUP2 DUP2 SUB PUSH0 DUP4 ADD MSTORE PUSH2 0x37E1 DUP2 DUP6 PUSH2 0x265A JUMP JUMPDEST SWAP1 POP PUSH2 0x37F0 PUSH1 0x20 DUP4 ADD DUP5 PUSH2 0x298A JUMP JUMPDEST SWAP4 SWAP3 POP POP POP JUMP JUMPDEST PUSH32 0x41646472657373206973206E6F74206120646F63746F722E0000000000000000 PUSH0 DUP3 ADD MSTORE POP JUMP JUMPDEST PUSH0 PUSH2 0x382B PUSH1 0x18 DUP4 PUSH2 0x2612 JUMP JUMPDEST SWAP2 POP PUSH2 0x3836 DUP3 PUSH2 0x37F7 JUMP JUMPDEST PUSH1 0x20 DUP3 ADD SWAP1 POP SWAP2 SWAP1 POP JUMP JUMPDEST PUSH0 PUSH1 0x20 DUP3 ADD SWAP1 POP DUP2 DUP2 SUB PUSH0 DUP4 ADD MSTORE PUSH2 0x3858 DUP2 PUSH2 0x381F JUMP JUMPDEST SWAP1 POP SWAP2 SWAP1 POP JUMP JUMPDEST PUSH32 0x43616E6E6F742072656D6F766520746865206F776E657220617320646F63746F PUSH0 DUP3 ADD MSTORE PUSH32 0x722E000000000000000000000000000000000000000000000000000000000000 PUSH1 0x20 DUP3 ADD MSTORE POP JUMP JUMPDEST PUSH0 PUSH2 0x38B9 PUSH1 0x22 DUP4 PUSH2 0x2612 JUMP JUMPDEST SWAP2 POP PUSH2 0x38C4 DUP3 PUSH2 0x385F JUMP JUMPDEST PUSH1 0x40 DUP3 ADD SWAP1 POP SWAP2 SWAP1 POP JUMP JUMPDEST PUSH0 PUSH1 0x20 DUP3 ADD SWAP1 POP DUP2 DUP2 SUB PUSH0 DUP4 ADD MSTORE PUSH2 0x38E6 DUP2 PUSH2 0x38AD JUMP JUMPDEST SWAP1 POP SWAP2 SWAP1 POP JUMP JUMPDEST PUSH32 0x43616C6C6572206973206E6F7420612072656769737465726564207061746965 PUSH0 DUP3 ADD MSTORE PUSH32 0x6E74000000000000000000000000000000000000000000000000000000000000 PUSH1 0x20 DUP3 ADD MSTORE POP JUMP JUMPDEST PUSH0 PUSH2 0x3947 PUSH1 0x22 DUP4 PUSH2 0x2612 JUMP JUMPDEST SWAP2 POP PUSH2 0x3952 DUP3 PUSH2 0x38ED JUMP JUMPDEST PUSH1 0x40 DUP3 ADD SWAP1 POP SWAP2 SWAP1 POP JUMP JUMPDEST PUSH0 PUSH1 0x20 DUP3 ADD SWAP1 POP DUP2 DUP2 SUB PUSH0 DUP4 ADD MSTORE PUSH2 0x3974 DUP2 PUSH2 0x393B JUMP JUMPDEST SWAP1 POP SWAP2 SWAP1 POP JUMP JUMPDEST PUSH32 0x4E6F2070656E64696E6720636F6E73656E7420726571756573742066726F6D20 PUSH0 DUP3 ADD MSTORE PUSH32 0x7468697320646F63746F722E0000000000000000000000000000000000000000 PUSH1 0x20 DUP3 ADD MSTORE POP JUMP JUMPDEST PUSH0 PUSH2 0x39D5 PUSH1 0x2C DUP4 PUSH2 0x2612 JUMP JUMPDEST SWAP2 POP PUSH2 0x39E0 DUP3 PUSH2 0x397B JUMP JUMPDEST PUSH1 0x40 DUP3 ADD SWAP1 POP SWAP2 SWAP1 POP JUMP JUMPDEST PUSH0 PUSH1 0x20 DUP3 ADD SWAP1 POP DUP2 DUP2 SUB PUSH0 DUP4 ADD MSTORE PUSH2 0x3A02 DUP2 PUSH2 0x39C9 JUMP JUMPDEST SWAP1 POP SWAP2 SWAP1 POP JUMP JUMPDEST PUSH32 0x41646472657373206973206E6F7420616E20617574686F72697A656420646F63 PUSH0 DUP3 ADD MSTORE PUSH32 0x746F722E00000000000000000000000000000000000000000000000000000000 PUSH1 0x20 DUP3 ADD MSTORE POP JUMP JUMPDEST PUSH0 PUSH2 0x3A63 PUSH1 0x24 DUP4 PUSH2 0x2612 JUMP JUMPDEST SWAP2 POP PUSH2 0x3A6E DUP3 PUSH2 0x3A09 JUMP JUMPDEST PUSH1 0x40 DUP3 ADD SWAP1 POP SWAP2 SWAP1 POP JUMP JUMPDEST PUSH0 PUSH1 0x20 DUP3 ADD SWAP1 POP DUP2 DUP2 SUB PUSH0 DUP4 ADD MSTORE PUSH2 0x3A90 DUP2 PUSH2 0x3A57 JUMP JUMPDEST SWAP1 POP SWAP2 SWAP1 POP JUMP INVALID LOG2 PUSH5 0x6970667358 0x22 SLT KECCAK256 DUP16 NOT 0x23 DUP10 LOG0 TIMESTAMP SWAP15 COINBASE 0xE7 0xE5 0x22 0xE1 DUP2 0xB4 0xB7 0xC9 0x29 0xDA PUSH15 0x865BCD2166A73092E9B5AB14496473 PUSH16 0x6C634300081500330000000000000000 "
				},
				"gasEstimates": {
					"creation": {
						"codeDepositCost": "3010600",
						"executionCost": "infinite",
						"totalCost": "infinite"
					},
					"external": {
						"addDoctor(address,string,string,string,string,string)": "infinite",
						"addVisit(address,bytes)": "infinite",
						"doctors(address)": "infinite",
						"getDirectoryMetadata(address,address)": "infinite",
						"getDoctorProfile(address)": "infinite",
						"getPatientProfile(address)": "infinite",
						"grantConsent(address)": "55407",
						"owner()": "infinite",
						"patientConsent(address,address)": "infinite",
						"patients(address)": "infinite",
						"pendingConsent(address,address)": "infinite",
						"refuseConsent(address)": "31026",
						"registerPatient(string,string,string,string)": "infinite",
						"removeDoctor(address)": "infinite",
						"requestConsent(address)": "35607",
						"revokeConsent(address)": "28765",
						"setDirectoryMetadata(address,string,uint8)": "infinite"
					}
				},
				"methodIdentifiers": {
					"addDoctor(address,string,string,string,string,string)": "1128c9ea",
					"addVisit(address,bytes)": "87fee61c",
					"doctors(address)": "a9583c22",
					"getDirectoryMetadata(address,address)": "1e6a315c",
					"getDoctorProfile(address)": "5cbcd8eb",
					"getPatientProfile(address)": "461a2082",
					"grantConsent(address)": "a79861f1",
					"owner()": "8da5cb5b",
					"patientConsent(address,address)": "f68b68f6",
					"patients(address)": "0869cfbc",
					"pendingConsent(address,address)": "53c1a042",
					"refuseConsent(address)": "a46aef40",
					"registerPatient(string,string,string,string)": "4ba0a020",
					"removeDoctor(address)": "98fc90e9",
					"requestConsent(address)": "037f8248",
					"revokeConsent(address)": "d1a48627",
					"setDirectoryMetadata(address,string,uint8)": "9897cf96"
				}
			},
			"storageLayout": {
				"storage": [
					{
						"astId": 39,
						"contract": "contracts/HealthRecords.sol:HealthRecords",
						"label": "patients",
						"offset": 0,
						"slot": "0",
						"type": "t_mapping(t_address,t_struct(Patient)27_storage)"
					},
					{
						"astId": 44,
						"contract": "contracts/HealthRecords.sol:HealthRecords",
						"label": "doctors",
						"offset": 0,
						"slot": "1",
						"type": "t_mapping(t_address,t_struct(Doctor)16_storage)"
					},
					{
						"astId": 51,
						"contract": "contracts/HealthRecords.sol:HealthRecords",
						"label": "directoryMetadata",
						"offset": 0,
						"slot": "2",
						"type": "t_mapping(t_address,t_mapping(t_address,t_struct(DirectoryMetadata)34_storage))"
					},
					{
						"astId": 57,
						"contract": "contracts/HealthRecords.sol:HealthRecords",
						"label": "patientConsent",
						"offset": 0,
						"slot": "3",
						"type": "t_mapping(t_address,t_mapping(t_address,t_bool))"
					},
					{
						"astId": 63,
						"contract": "contracts/HealthRecords.sol:HealthRecords",
						"label": "pendingConsent",
						"offset": 0,
						"slot": "4",
						"type": "t_mapping(t_address,t_mapping(t_address,t_bool))"
					}
				],
				"types": {
					"t_address": {
						"encoding": "inplace",
						"label": "address",
						"numberOfBytes": "20"
					},
					"t_bool": {
						"encoding": "inplace",
						"label": "bool",
						"numberOfBytes": "1"
					},
					"t_mapping(t_address,t_bool)": {
						"encoding": "mapping",
						"key": "t_address",
						"label": "mapping(address => bool)",
						"numberOfBytes": "32",
						"value": "t_bool"
					},
					"t_mapping(t_address,t_mapping(t_address,t_bool))": {
						"encoding": "mapping",
						"key": "t_address",
						"label": "mapping(address => mapping(address => bool))",
						"numberOfBytes": "32",
						"value": "t_mapping(t_address,t_bool)"
					},
					"t_mapping(t_address,t_mapping(t_address,t_struct(DirectoryMetadata)34_storage))": {
						"encoding": "mapping",
						"key": "t_address",
						"label": "mapping(address => mapping(address => struct HealthRecords.DirectoryMetadata))",
						"numberOfBytes": "32",
						"value": "t_mapping(t_address,t_struct(DirectoryMetadata)34_storage)"
					},
					"t_mapping(t_address,t_struct(DirectoryMetadata)34_storage)": {
						"encoding": "mapping",
						"key": "t_address",
						"label": "mapping(address => struct HealthRecords.DirectoryMetadata)",
						"numberOfBytes": "32",
						"value": "t_struct(DirectoryMetadata)34_storage"
					},
					"t_mapping(t_address,t_struct(Doctor)16_storage)": {
						"encoding": "mapping",
						"key": "t_address",
						"label": "mapping(address => struct HealthRecords.Doctor)",
						"numberOfBytes": "32",
						"value": "t_struct(Doctor)16_storage"
					},
					"t_mapping(t_address,t_struct(Patient)27_storage)": {
						"encoding": "mapping",
						"key": "t_address",
						"label": "mapping(address => struct HealthRecords.Patient)",
						"numberOfBytes": "32",
						"value": "t_struct(Patient)27_storage"
					},
					"t_string_storage": {
						"encoding": "bytes",
						"label": "string",
						"numberOfBytes": "32"
					},
					"t_struct(DirectoryMetadata)34_storage": {
						"encoding": "inplace",
						"label": "struct HealthRecords.DirectoryMetadata",
						"members": [
							{
								"astId": 29,
								"contract": "contracts/HealthRecords.sol:HealthRecords",
								"label": "primaryCondition",
								"offset": 0,
								"slot": "0",
								"type": "t_string_storage"
							},
							{
								"astId": 31,
								"contract": "contracts/HealthRecords.sol:HealthRecords",
								"label": "status",
								"offset": 0,
								"slot": "1",
								"type": "t_uint8"
							},
							{
								"astId": 33,
								"contract": "contracts/HealthRecords.sol:HealthRecords",
								"label": "isSet",
								"offset": 1,
								"slot": "1",
								"type": "t_bool"
							}
						],
						"numberOfBytes": "64"
					},
					"t_struct(Doctor)16_storage": {
						"encoding": "inplace",
						"label": "struct HealthRecords.Doctor",
						"members": [
							{
								"astId": 5,
								"contract": "contracts/HealthRecords.sol:HealthRecords",
								"label": "isRegistered",
								"offset": 0,
								"slot": "0",
								"type": "t_bool"
							},
							{
								"astId": 7,
								"contract": "contracts/HealthRecords.sol:HealthRecords",
								"label": "name",
								"offset": 0,
								"slot": "1",
								"type": "t_string_storage"
							},
							{
								"astId": 9,
								"contract": "contracts/HealthRecords.sol:HealthRecords",
								"label": "clinic",
								"offset": 0,
								"slot": "2",
								"type": "t_string_storage"
							},
							{
								"astId": 11,
								"contract": "contracts/HealthRecords.sol:HealthRecords",
								"label": "timezone",
								"offset": 0,
								"slot": "3",
								"type": "t_string_storage"
							},
							{
								"astId": 13,
								"contract": "contracts/HealthRecords.sol:HealthRecords",
								"label": "workingHoursStart",
								"offset": 0,
								"slot": "4",
								"type": "t_string_storage"
							},
							{
								"astId": 15,
								"contract": "contracts/HealthRecords.sol:HealthRecords",
								"label": "workingHoursEnd",
								"offset": 0,
								"slot": "5",
								"type": "t_string_storage"
							}
						],
						"numberOfBytes": "192"
					},
					"t_struct(Patient)27_storage": {
						"encoding": "inplace",
						"label": "struct HealthRecords.Patient",
						"members": [
							{
								"astId": 18,
								"contract": "contracts/HealthRecords.sol:HealthRecords",
								"label": "isRegistered",
								"offset": 0,
								"slot": "0",
								"type": "t_bool"
							},
							{
								"astId": 20,
								"contract": "contracts/HealthRecords.sol:HealthRecords",
								"label": "name",
								"offset": 0,
								"slot": "1",
								"type": "t_string_storage"
							},
							{
								"astId": 22,
								"contract": "contracts/HealthRecords.sol:HealthRecords",
								"label": "bloodType",
								"offset": 0,
								"slot": "2",
								"type": "t_string_storage"
							},
							{
								"astId": 24,
								"contract": "contracts/HealthRecords.sol:HealthRecords",
								"label": "phone",
								"offset": 0,
								"slot": "3",
								"type": "t_string_storage"
							},
							{
								"astId": 26,
								"contract": "contracts/HealthRecords.sol:HealthRecords",
								"label": "email",
								"offset": 0,
								"slot": "4",
								"type": "t_string_storage"
							}
						],
						"numberOfBytes": "160"
					},
					"t_uint8": {
						"encoding": "inplace",
						"label": "uint8",
						"numberOfBytes": "1"
					}
				}
			},
			"userdoc": {
				"kind": "user",
				"methods": {},
				"version": 1
			}
		}
	}
}