{
	"contracts/HealthRecords.sol": {
		"HealthRecords": {
			"abi": [
				{
					"inputs": [],
					"stateMutability": "nonpayable",
					"type": "constructor"
				},
				{
					"anonymous": false,
					"inputs": [
						{
							"indexed": true,
							"internalType": "address",
							"name": "patient",
							"type": "address"
						},
						{
							"indexed": true,
							"internalType": "address",
							"name": "doctor",
							"type": "address"
						}
					],
					"name": "ConsentGranted",
					"type": "event"
				},
				{
					"anonymous": false,
					"inputs": [
						{
							"indexed": true,
							"internalType": "address",
							"name": "patient",
							"type": "address"
						},
						{
							"indexed": true,
							"internalType": "address",
							"name": "doctor",
							"type": "address"
						}
					],
					"name": "ConsentRefused",
					"type": "event"
				},
				{
					"anonymous": false,
					"inputs": [
						{
							"indexed": true,
							"internalType": "address",
							"name": "patient",
							"type": "address"
						},
						{
							"indexed": true,
							"internalType": "address",
							"name": "doctor",
							"type": "address"
						}
					],
					"name": "ConsentRequested",
					"type": "event"
				},
				{
					"anonymous": false,
					"inputs": [
						{
							"indexed": true,
							"internalType": "address",
							"name": "patient",
							"type": "address"
						},
						{
							"indexed": true,
							"internalType": "address",
							"name": "doctor",
							"type": "address"
						}
					],
					"name": "ConsentRevoked",
					"type": "event"
				},
				{
					"anonymous": false,
					"inputs": [
						{
							"indexed": true,
							"internalType": "address",
							"name": "doctor",
							"type": "address"
						},
						{
							"indexed": false,
							"internalType": "string",
							"name": "name",
							"type": "string"
						},
						{
							"indexed": false,
							"internalType": "string",
							"name": "clinic",
							"type": "string"
						}
					],
					"name": "DoctorAdded",
					"type": "event"
				},
				{
					"anonymous": false,
					"inputs": [
						{
							"indexed": true,
							"internalType": "address",
							"name": "doctor",
							"type": "address"
						}
					],
					"name": "DoctorRemoved",
					"type": "event"
				},
				{
					"anonymous": false,
					"inputs": [
						{
							"indexed": true,
							"internalType": "address",
							"name": "patient",
							"type": "address"
						},
						{
							"indexed": false,
							"internalType": "string",
							"name": "name",
							"type": "string"
						}
					],
					"name": "PatientRegistered",
					"type": "event"
				},
				{
					"anonymous": false,
					"inputs": [
						{
							"indexed": true,
							"internalType": "address",
							"name": "patient",
							"type": "address"
						},
						{
							"indexed": true,
							"internalType": "address",
							"name": "doctor",
							"type": "address"
						},
						{
							"indexed": false,
							"internalType": "uint256",
							"name": "timestamp",
							"type": "uint256"
						},
						{
							"indexed": false,
							"internalType": "bytes",
							"name": "encryptedData",
							"type": "bytes"
						}
					],
					"name": "VisitAdded",
					"type": "event"
				},
				{
					"inputs": [
						{
							"internalType": "address",
							"name": "_doctor",
							"type": "address"
						},
						{
							"internalType": "string",
							"name": "_name",
							"type": "string"
						},
						{
							"internalType": "string",
							"name": "_clinic",
							"type": "string"
						},
						{
							"internalType": "string",
							"name": "_timezone",
							"type": "string"
						},
						{
							"internalType": "string",
							"name": "_workingHoursStart",
							"type": "string"
						},
						{
							"internalType": "string",
							"name": "_workingHoursEnd",
							"type": "string"
						}
					],
					"name": "addDoctor",
					"outputs": [],
					"stateMutability": "nonpayable",
					"type": "function"
				},
				{
					"inputs": [
						{
							"internalType": "address",
							"name": "_patient",
							"type": "address"
						},
						{
							"internalType": "bytes",
							"name": "_encryptedData",
							"type": "bytes"
						}
					],
					"name": "addVisit",
					"outputs": [],
					"stateMutability": "nonpayable",
					"type": "function"
				},
				{
					"inputs": [
						{
							"internalType": "address",
							"name": "",
							"type": "address"
						}
					],
					"name": "doctors",
					"outputs": [
						{
							"internalType": "bool",
							"name": "isRegistered",
							"type": "bool"
						},
						{
							"internalType": "string",
							"name": "name",
							"type": "string"
						},
						{
							"internalType": "string",
							"name": "clinic",
							"type": "string"
						},
						{
							"internalType": "string",
							"name": "timezone",
							"type": "string"
						},
						{
							"internalType": "string",
							"name": "workingHoursStart",
							"type": "string"
						},
						{
							"internalType": "string",
							"name": "workingHoursEnd",
							"type": "string"
						}
					],
					"stateMutability": "view",
					"type": "function"
				},
				{
					"inputs": [
						{
							"internalType": "address",
							"name": "_doctor",
							"type": "address"
						}
					],
					"name": "getDoctorProfile",
					"outputs": [
						{
							"internalType": "string",
							"name": "name",
							"type": "string"
						}
					],
					"stateMutability": "view",
					"type": "function"
				},
				{
					"inputs": [
						{
							"internalType": "address",
							"name": "_patient",
							"type": "address"
						}
					],
					"name": "getPatientProfile",
					"outputs": [
						{
							"internalType": "string",
							"name": "name",
							"type": "string"
						},
						{
							"internalType": "string",
							"name": "bloodType",
							"type": "string"
						},
						{
							"internalType": "string",
							"name": "phone",
							"type": "string"
						},
						{
							"internalType": "string",
							"name": "email",
							"type": "string"
						}
					],
					"stateMutability": "view",
					"type": "function"
				},
				{
					"inputs": [
						{
							"internalType": "address",
							"name": "_doctor",
							"type": "address"
						}
					],
					"name": "grantConsent",
					"outputs": [],
					"stateMutability": "nonpayable",
					"type": "function"
				},
				{
					"inputs": [],
					"name": "owner",
					"outputs": [
						{
							"internalType": "address",
							"name": "",
							"type": "address"
						}
					],
					"stateMutability": "view",
					"type": "function"
				},
				{
					"inputs": [
						{
							"internalType": "address",
							"name": "",
							"type": "address"
						},
						{
							"internalType": "address",
							"name": "",
							"type": "address"
						}
					],
					"name": "patientConsent",
					"outputs": [
						{
							"internalType": "bool",
							"name": "",
							"type": "bool"
						}
					],
					"stateMutability": "view",
					"type": "function"
				},
				{
					"inputs": [
						{
							"internalType": "address",
							"name": "",
							"type": "address"
						}
					],
					"name": "patients",
					"outputs": [
						{
							"internalType": "bool",
							"name": "isRegistered",
							"type": "bool"
						},
						{
							"internalType": "string",
							"name": "name",
							"type": "string"
						},
						{
							"internalType": "string",
							"name": "bloodType",
							"type": "string"
						},
						{
							"internalType": "string",
							"name": "phone",
							"type": "string"
						},
						{
							"internalType": "string",
							"name": "email",
							"type": "string"
						}
					],
					"stateMutability": "view",
					"type": "function"
				},
				{
					"inputs": [
						{
							"internalType": "address",
							"name": "",
							"type": "address"
						},
						{
							"internalType": "address",
							"name": "",
							"type": "address"
						}
					],
					"name": "pendingConsent",
					"outputs": [
						{
							"internalType": "bool",
							"name": "",
							"type": "bool"
						}
					],
					"stateMutability": "view",
					"type": "function"
				},
				{
					"inputs": [
						{
							"internalType": "address",
							"name": "_doctor",
							"type": "address"
						}
					],
					"name": "refuseConsent",
					"outputs": [],
					"stateMutability": "nonpayable",
					"type": "function"
				},
				{
					"inputs": [
						{
							"internalType": "string",
							"name": "_name",
							"type": "string"
						},
						{
							"internalType": "string",
							"name": "_bloodType",
							"type": "string"
						},
						{
							"internalType": "string",
							"name": "_phone",
							"type": "string"
						},
						{
							"internalType": "string",
							"name": "_email",
							"type": "string"
						}
					],
					"name": "registerPatient",
					"outputs": [],
					"stateMutability": "nonpayable",
					"type": "function"
				},
				{
					"inputs": [
						{
							"internalType": "address",
							"name": "_doctor",
							"type": "address"
						}
					],
					"name": "removeDoctor",
					"outputs": [],
					"stateMutability": "nonpayable",
					"type": "function"
				},
				{
					"inputs": [
						{
							"internalType": "address",
							"name": "_patient",
							"type": "address"
						}
					],
					"name": "requestConsent",
					"outputs": [],
					"stateMutability": "nonpayable",
					"type": "function"
				},
				{
					"inputs": [
						{
							"internalType": "address",
							"name": "_doctor",
							"type": "address"
						}
					],
					"name": "revokeConsent",
					"outputs": [],
					"stateMutability": "nonpayable",
					"type": "function"
				}
			],
			"devdoc": {
				"kind": "dev",
				"methods": {},
				"version": 1
			},
			"evm": {
				"assembly": "    /* \"contracts/HealthRecords.sol\":60:6349  contract HealthRecords {... */\n  mstore(0x40, 0xa0)\n    /* \"contracts/HealthRecords.sol\":1879:2252  constructor() {... */\n  callvalue\n  dup1\n  iszero\n  tag_1\n  jumpi\n  0x00\n  dup1\n  revert\ntag_1:\n  pop\n    /* \"contracts/HealthRecords.sol\":1912:1922  msg.sender */\n  caller\n    /* \"contracts/HealthRecords.sol\":1904:1922  owner = msg.sender */\n  0xffffffffffffffffffffffffffffffffffffffff\n  and\n  0x80\n  dup2\n  0xffffffffffffffffffffffffffffffffffffffff\n  and\n  dup2\n  mstore\n  pop\n  pop\n    /* \"contracts/HealthRecords.sol\":1950:2186  Doctor({... */\n  mload(0x40)\n  dup1\n  0xc0\n  add\n  0x40\n  mstore\n  dup1\n    /* \"contracts/HealthRecords.sol\":1986:1990  true */\n  0x01\n    /* \"contracts/HealthRecords.sol\":1950:2186  Doctor({... */\n  iszero\n  iszero\n  dup2\n  mstore\n  0x20\n  add\n  mload(0x40)\n  dup1\n  0x40\n  add\n  0x40\n  mstore\n  dup1\n  0x05\n  dup2\n  mstore\n  0x20\n  add\n  0x41646d696e000000000000000000000000000000000000000000000000000000\n  dup2\n  mstore\n  pop\n  dup2\n  mstore\n  0x20\n  add\n  mload(0x40)\n  dup1\n  0x40\n  add\n  0x40\n  mstore\n  dup1\n  0x0b\n  dup2\n  mstore\n  0x20\n  add\n  0x436c696e69632053616c65000000000000000000000000000000000000000000\n  dup2\n  mstore\n  pop\n  dup2\n  mstore\n  0x20\n  add\n  mload(0x40)\n  dup1\n  0x40\n  add\n  0x40\n  mstore\n  dup1\n  0x0d\n  dup2\n  mstore\n  0x20\n  add\n  0x4d6f726f63636f2f526162617400000000000000000000000000000000000000\n  dup2\n  mstore\n  pop\n  dup2\n  mstore\n  0x20\n  add\n  mload(0x40)\n  dup1\n  0x40\n  add\n  0x40\n  mstore\n  dup1\n  0x05\n  dup2\n  mstore\n  0x20\n  add\n  0x30383a3030000000000000000000000000000000000000000000000000000000\n  dup2\n  mstore\n  pop\n  dup2\n  mstore\n  0x20\n  add\n  mload(0x40)\n  dup1\n  0x40\n  add\n  0x40\n  mstore\n  dup1\n  0x05\n  dup2\n  mstore\n  0x20\n  add\n  0x31383a3030000000000000000000000000000000000000000000000000000000\n  dup2\n  mstore\n  pop\n  dup2\n  mstore\n  pop\n    /* \"contracts/HealthRecords.sol\":1933:1940  doctors */\n  0x01\n    /* \"contracts/HealthRecords.sol\":1933:1947  doctors[owner] */\n  0x00\n    /* \"contracts/HealthRecords.sol\":1941:1946  owner */\n  mload(0x80)\n    /* \"contracts/HealthRecords.sol\":1933:1947  doctors[owner] */\n  0xffffffffffffffffffffffffffffffffffffffff\n  and\n  0xffffffffffffffffffffffffffffffffffffffff\n  and\n  dup2\n  mstore\n  0x20\n  add\n  swap1\n  dup2\n  mstore\n  0x20\n  add\n  0x00\n  keccak256\n    /* \"contracts/HealthRecords.sol\":1933:2186  doctors[owner] = Doctor({... */\n  0x00\n  dup3\n  add\n  mload\n  dup2\n  0x00\n  add\n  exp(0x0100, 0x00)\n  dup2\n  sload\n  dup2\n  0xff\n  mul\n  not\n  and\n  swap1\n  dup4\n  iszero\n  iszero\n  mul\n  or\n  swap1\n  sstore\n  pop\n  0x20\n  dup3\n  add\n  mload\n  dup2\n  0x01\n  add\n  swap1\n  dup2\n  tag_4\n  swap2\n  swap1\n  tag_5\n  jump\t// in\ntag_4:\n  pop\n  0x40\n  dup3\n  add\n  mload\n  dup2\n  0x02\n  add\n  swap1\n  dup2\n  tag_6\n  swap2\n  swap1\n  tag_5\n  jump\t// in\ntag_6:\n  pop\n  0x60\n  dup3\n  add\n  mload\n  dup2\n  0x03\n  add\n  swap1\n  dup2\n  tag_7\n  swap2\n  swap1\n  tag_5\n  jump\t// in\ntag_7:\n  pop\n  0x80\n  dup3\n  add\n  mload\n  dup2\n  0x04\n  add\n  swap1\n  dup2\n  tag_8\n  swap2\n  swap1\n  tag_5\n  jump\t// in\ntag_8:\n  pop\n  0xa0\n  dup3\n  add\n  mload\n  dup2\n  0x05\n  add\n  swap1\n  dup2\n  tag_9\n  swap2\n  swap1\n  tag_5\n  jump\t// in\ntag_9:\n  pop\n  swap1\n  pop\n  pop\n    /* \"contracts/HealthRecords.sol\":2214:2219  owner */\n  mload(0x80)\n    /* \"contracts/HealthRecords.sol\":2202:2244  DoctorAdded(owner, \"Admin\", \"Clinic Sale\") */\n  0xffffffffffffffffffffffffffffffffffffffff\n  and\n  0x9388661dcd7dc6cff9b4e22ab9459ac0a2682f86cb52fc7a669a6e7f062bce4c\n  mload(0x40)\n  tag_10\n  swap1\n  tag_11\n  jump\t// in\ntag_10:\n  mload(0x40)\n  dup1\n  swap2\n  sub\n  swap1\n  log2\n    /* \"contracts/HealthRecords.sol\":60:6349  contract HealthRecords {... */\n  jump(tag_12)\n    /* \"#utility.yul\":7:106   */\ntag_13:\n    /* \"#utility.yul\":59:65   */\n  0x00\n    /* \"#utility.yul\":93:98   */\n  dup2\n    /* \"#utility.yul\":87:99   */\n  mload\n    /* \"#utility.yul\":77:99   */\n  swap1\n  pop\n    /* \"#utility.yul\":7:106   */\n  swap2\n  swap1\n  pop\n  jump\t// out\n    /* \"#utility.yul\":112:292   */\ntag_14:\n    /* \"#utility.yul\":160:237   */\n  0x4e487b7100000000000000000000000000000000000000000000000000000000\n    /* \"#utility.yul\":157:158   */\n  0x00\n    /* \"#utility.yul\":150:238   */\n  mstore\n    /* \"#utility.yul\":257:261   */\n  0x41\n    /* \"#utility.yul\":254:255   */\n  0x04\n    /* \"#utility.yul\":247:262   */\n  mstore\n    /* \"#utility.yul\":281:285   */\n  0x24\n    /* \"#utility.yul\":278:279   */\n  0x00\n    /* \"#utility.yul\":271:286   */\n  revert\n    /* \"#utility.yul\":298:478   */\ntag_15:\n    /* \"#utility.yul\":346:423   */\n  0x4e487b7100000000000000000000000000000000000000000000000000000000\n    /* \"#utility.yul\":343:344   */\n  0x00\n    /* \"#utility.yul\":336:424   */\n  mstore\n    /* \"#utility.yul\":443:447   */\n  0x22\n    /* \"#utility.yul\":440:441   */\n  0x04\n    /* \"#utility.yul\":433:448   */\n  mstore\n    /* \"#utility.yul\":467:471   */\n  0x24\n    /* \"#utility.yul\":464:465   */\n  0x00\n    /* \"#utility.yul\":457:472   */\n  revert\n    /* \"#utility.yul\":484:804   */\ntag_16:\n    /* \"#utility.yul\":528:534   */\n  0x00\n    /* \"#utility.yul\":565:566   */\n  0x02\n    /* \"#utility.yul\":559:563   */\n  dup3\n    /* \"#utility.yul\":555:567   */\n  div\n    /* \"#utility.yul\":545:567   */\n  swap1\n  pop\n    /* \"#utility.yul\":612:613   */\n  0x01\n    /* \"#utility.yul\":606:610   */\n  dup3\n    /* \"#utility.yul\":602:614   */\n  and\n    /* \"#utility.yul\":633:651   */\n  dup1\n    /* \"#utility.yul\":623:704   */\n  tag_43\n  jumpi\n    /* \"#utility.yul\":689:693   */\n  0x7f\n    /* \"#utility.yul\":681:687   */\n  dup3\n    /* \"#utility.yul\":677:694   */\n  and\n    /* \"#utility.yul\":667:694   */\n  swap2\n  pop\n    /* \"#utility.yul\":623:704   */\ntag_43:\n    /* \"#utility.yul\":751:753   */\n  0x20\n    /* \"#utility.yul\":743:749   */\n  dup3\n    /* \"#utility.yul\":740:754   */\n  lt\n    /* \"#utility.yul\":720:738   */\n  dup2\n    /* \"#utility.yul\":717:755   */\n  sub\n    /* \"#utility.yul\":714:798   */\n  tag_44\n  jumpi\n    /* \"#utility.yul\":770:788   */\n  tag_45\n  tag_15\n  jump\t// in\ntag_45:\n    /* \"#utility.yul\":714:798   */\ntag_44:\n    /* \"#utility.yul\":535:804   */\n  pop\n    /* \"#utility.yul\":484:804   */\n  swap2\n  swap1\n  pop\n  jump\t// out\n    /* \"#utility.yul\":810:951   */\ntag_17:\n    /* \"#utility.yul\":859:863   */\n  0x00\n    /* \"#utility.yul\":882:885   */\n  dup2\n    /* \"#utility.yul\":874:885   */\n  swap1\n  pop\n    /* \"#utility.yul\":905:908   */\n  dup2\n    /* \"#utility.yul\":902:903   */\n  0x00\n    /* \"#utility.yul\":895:909   */\n  mstore\n    /* \"#utility.yul\":939:943   */\n  0x20\n    /* \"#utility.yul\":936:937   */\n  0x00\n    /* \"#utility.yul\":926:944   */\n  keccak256\n    /* \"#utility.yul\":918:944   */\n  swap1\n  pop\n    /* \"#utility.yul\":810:951   */\n  swap2\n  swap1\n  pop\n  jump\t// out\n    /* \"#utility.yul\":957:1050   */\ntag_18:\n    /* \"#utility.yul\":994:1000   */\n  0x00\n    /* \"#utility.yul\":1041:1043   */\n  0x20\n    /* \"#utility.yul\":1036:1038   */\n  0x1f\n    /* \"#utility.yul\":1029:1034   */\n  dup4\n    /* \"#utility.yul\":1025:1039   */\n  add\n    /* \"#utility.yul\":1021:1044   */\n  div\n    /* \"#utility.yul\":1011:1044   */\n  swap1\n  pop\n    /* \"#utility.yul\":957:1050   */\n  swap2\n  swap1\n  pop\n  jump\t// out\n    /* \"#utility.yul\":1056:1163   */\ntag_19:\n    /* \"#utility.yul\":1100:1108   */\n  0x00\n    /* \"#utility.yul\":1150:1155   */\n  dup3\n    /* \"#utility.yul\":1144:1148   */\n  dup3\n    /* \"#utility.yul\":1140:1156   */\n  shl\n    /* \"#utility.yul\":1119:1156   */\n  swap1\n  pop\n    /* \"#utility.yul\":1056:1163   */\n  swap3\n  swap2\n  pop\n  pop\n  jump\t// out\n    /* \"#utility.yul\":1169:1562   */\ntag_20:\n    /* \"#utility.yul\":1238:1244   */\n  0x00\n    /* \"#utility.yul\":1288:1289   */\n  0x08\n    /* \"#utility.yul\":1276:1286   */\n  dup4\n    /* \"#utility.yul\":1272:1290   */\n  mul\n    /* \"#utility.yul\":1311:1408   */\n  tag_50\n    /* \"#utility.yul\":1341:1407   */\n  0xffffffffffffffffffffffffffffffffffffffffffffffffffffffffffffffff\n    /* \"#utility.yul\":1330:1339   */\n  dup3\n    /* \"#utility.yul\":1311:1408   */\n  tag_19\n  jump\t// in\ntag_50:\n    /* \"#utility.yul\":1429:1468   */\n  tag_51\n    /* \"#utility.yul\":1459:1467   */\n  dup7\n    /* \"#utility.yul\":1448:1457   */\n  dup4\n    /* \"#utility.yul\":1429:1468   */\n  tag_19\n  jump\t// in\ntag_51:\n    /* \"#utility.yul\":1417:1468   */\n  swap6\n  pop\n    /* \"#utility.yul\":1501:1505   */\n  dup1\n    /* \"#utility.yul\":1497:1506   */\n  not\n    /* \"#utility.yul\":1490:1495   */\n  dup5\n    /* \"#utility.yul\":1486:1507   */\n  and\n    /* \"#utility.yul\":1477:1507   */\n  swap4\n  pop\n    /* \"#utility.yul\":1550:1554   */\n  dup1\n    /* \"#utility.yul\":1540:1548   */\n  dup7\n    /* \"#utility.yul\":1536:1555   */\n  and\n    /* \"#utility.yul\":1529:1534   */\n  dup5\n    /* \"#utility.yul\":1526:1556   */\n  or\n    /* \"#utility.yul\":1516:1556   */\n  swap3\n  pop\n    /* \"#utility.yul\":1245:1562   */\n  pop\n  pop\n    /* \"#utility.yul\":1169:1562   */\n  swap4\n  swap3\n  pop\n  pop\n  pop\n  jump\t// out\n    /* \"#utility.yul\":1568:1645   */\ntag_21:\n    /* \"#utility.yul\":1605:1612   */\n  0x00\n    /* \"#utility.yul\":1634:1639   */\n  dup2\n    /* \"#utility.yul\":1623:1639   */\n  swap1\n  pop\n    /* \"#utility.yul\":1568:1645   */\n  swap2\n  swap1\n  pop\n  jump\t// out\n    /* \"#utility.yul\":1651:1711   */\ntag_22:\n    /* \"#utility.yul\":1679:1682   */\n  0x00\n    /* \"#utility.yul\":1700:1705   */\n  dup2\n    /* \"#utility.yul\":1693:1705   */\n  swap1\n  pop\n    /* \"#utility.yul\":1651:1711   */\n  swap2\n  swap1\n  pop\n  jump\t// out\n    /* \"#utility.yul\":1717:1859   */\ntag_23:\n    /* \"#utility.yul\":1767:1776   */\n  0x00\n    /* \"#utility.yul\":1800:1853   */\n  tag_55\n    /* \"#utility.yul\":1818:1852   */\n  tag_56\n    /* \"#utility.yul\":1827:1851   */\n  tag_57\n    /* \"#utility.yul\":1845:1850   */\n  dup5\n    /* \"#utility.yul\":1827:1851   */\n  tag_21\n  jump\t// in\ntag_57:\n    /* \"#utility.yul\":1818:1852   */\n  tag_22\n  jump\t// in\ntag_56:\n    /* \"#utility.yul\":1800:1853   */\n  tag_21\n  jump\t// in\ntag_55:\n    /* \"#utility.yul\":1787:1853   */\n  swap1\n  pop\n    /* \"#utility.yul\":1717:1859   */\n  swap2\n  swap1\n  pop\n  jump\t// out\n    /* \"#utility.yul\":1865:1940   */\ntag_24:\n    /* \"#utility.yul\":1908:1911   */\n  0x00\n    /* \"#utility.yul\":1929:1934   */\n  dup2\n    /* \"#utility.yul\":1922:1934   */\n  swap1\n  pop\n    /* \"#utility.yul\":1865:1940   */\n  swap2\n  swap1\n  pop\n  jump\t// out\n    /* \"#utility.yul\":1946:2215   */\ntag_25:\n    /* \"#utility.yul\":2056:2095   */\n  tag_60\n    /* \"#utility.yul\":2087:2094   */\n  dup4\n    /* \"#utility.yul\":2056:2095   */\n  tag_23\n  jump\t// in\ntag_60:\n    /* \"#utility.yul\":2117:2208   */\n  tag_61\n    /* \"#utility.yul\":2166:2207   */\n  tag_62\n    /* \"#utility.yul\":2190:2206   */\n  dup3\n    /* \"#utility.yul\":2166:2207   */\n  tag_24\n  jump\t// in\ntag_62:\n    /* \"#utility.yul\":2158:2164   */\n  dup5\n    /* \"#utility.yul\":2151:2155   */\n  dup5\n    /* \"#utility.yul\":2145:2156   */\n  sload\n    /* \"#utility.yul\":2117:2208   */\n  tag_20\n  jump\t// in\ntag_61:\n    /* \"#utility.yul\":2111:2115   */\n  dup3\n    /* \"#utility.yul\":2104:2209   */\n  sstore\n    /* \"#utility.yul\":2022:2215   */\n  pop\n    /* \"#utility.yul\":1946:2215   */\n  pop\n  pop\n  pop\n  jump\t// out\n    /* \"#utility.yul\":2221:2294   */\ntag_26:\n    /* \"#utility.yul\":2266:2269   */\n  0x00\n    /* \"#utility.yul\":2221:2294   */\n  swap1\n  jump\t// out\n    /* \"#utility.yul\":2300:2489   */\ntag_27:\n    /* \"#utility.yul\":2377:2409   */\n  tag_65\n  tag_26\n  jump\t// in\ntag_65:\n    /* \"#utility.yul\":2418:2483   */\n  tag_66\n    /* \"#utility.yul\":2476:2482   */\n  dup2\n    /* \"#utility.yul\":2468:2474   */\n  dup5\n    /* \"#utility.yul\":2462:2466   */\n  dup5\n    /* \"#utility.yul\":2418:2483   */\n  tag_25\n  jump\t// in\ntag_66:\n    /* \"#utility.yul\":2353:2489   */\n  pop\n    /* \"#utility.yul\":2300:2489   */\n  pop\n  pop\n  jump\t// out\n    /* \"#utility.yul\":2495:2681   */\ntag_28:\n    /* \"#utility.yul\":2555:2675   */\ntag_68:\n    /* \"#utility.yul\":2572:2575   */\n  dup2\n    /* \"#utility.yul\":2565:2570   */\n  dup2\n    /* \"#utility.yul\":2562:2576   */\n  lt\n    /* \"#utility.yul\":2555:2675   */\n  iszero\n  tag_70\n  jumpi\n    /* \"#utility.yul\":2626:2665   */\n  tag_71\n    /* \"#utility.yul\":2663:2664   */\n  0x00\n    /* \"#utility.yul\":2656:2661   */\n  dup3\n    /* \"#utility.yul\":2626:2665   */\n  tag_27\n  jump\t// in\ntag_71:\n    /* \"#utility.yul\":2599:2600   */\n  0x01\n    /* \"#utility.yul\":2592:2597   */\n  dup2\n    /* \"#utility.yul\":2588:2601   */\n  add\n    /* \"#utility.yul\":2579:2601   */\n  swap1\n  pop\n    /* \"#utility.yul\":2555:2675   */\n  jump(tag_68)\ntag_70:\n    /* \"#utility.yul\":2495:2681   */\n  pop\n  pop\n  jump\t// out\n    /* \"#utility.yul\":2687:3230   */\ntag_29:\n    /* \"#utility.yul\":2788:2790   */\n  0x1f\n    /* \"#utility.yul\":2783:2786   */\n  dup3\n    /* \"#utility.yul\":2780:2791   */\n  gt\n    /* \"#utility.yul\":2777:3223   */\n  iszero\n  tag_73\n  jumpi\n    /* \"#utility.yul\":2822:2860   */\n  tag_74\n    /* \"#utility.yul\":2854:2859   */\n  dup2\n    /* \"#utility.yul\":2822:2860   */\n  tag_17\n  jump\t// in\ntag_74:\n    /* \"#utility.yul\":2906:2935   */\n  tag_75\n    /* \"#utility.yul\":2924:2934   */\n  dup5\n    /* \"#utility.yul\":2906:2935   */\n  tag_18\n  jump\t// in\ntag_75:\n    /* \"#utility.yul\":2896:2904   */\n  dup2\n    /* \"#utility.yul\":2892:2936   */\n  add\n    /* \"#utility.yul\":3089:3091   */\n  0x20\n    /* \"#utility.yul\":3077:3087   */\n  dup6\n    /* \"#utility.yul\":3074:3092   */\n  lt\n    /* \"#utility.yul\":3071:3120   */\n  iszero\n  tag_76\n  jumpi\n    /* \"#utility.yul\":3110:3118   */\n  dup2\n    /* \"#utility.yul\":3095:3118   */\n  swap1\n  pop\n    /* \"#utility.yul\":3071:3120   */\ntag_76:\n    /* \"#utility.yul\":3133:3213   */\n  tag_77\n    /* \"#utility.yul\":3189:3211   */\n  tag_78\n    /* \"#utility.yul\":3207:3210   */\n  dup6\n    /* \"#utility.yul\":3189:3211   */\n  tag_18\n  jump\t// in\ntag_78:\n    /* \"#utility.yul\":3179:3187   */\n  dup4\n    /* \"#utility.yul\":3175:3212   */\n  add\n    /* \"#utility.yul\":3162:3173   */\n  dup3\n    /* \"#utility.yul\":3133:3213   */\n  tag_28\n  jump\t// in\ntag_77:\n    /* \"#utility.yul\":2792:3223   */\n  pop\n  pop\n    /* \"#utility.yul\":2777:3223   */\ntag_73:\n    /* \"#utility.yul\":2687:3230   */\n  pop\n  pop\n  pop\n  jump\t// out\n    /* \"#utility.yul\":3236:3353   */\ntag_30:\n    /* \"#utility.yul\":3290:3298   */\n  0x00\n    /* \"#utility.yul\":3340:3345   */\n  dup3\n    /* \"#utility.yul\":3334:3338   */\n  dup3\n    /* \"#utility.yul\":3330:3346   */\n  shr\n    /* \"#utility.yul\":3309:3346   */\n  swap1\n  pop\n    /* \"#utility.yul\":3236:3353   */\n  swap3\n  swap2\n  pop\n  pop\n  jump\t// out\n    /* \"#utility.yul\":3359:3528   */\ntag_31:\n    /* \"#utility.yul\":3403:3409   */\n  0x00\n    /* \"#utility.yul\":3436:3487   */\n  tag_81\n    /* \"#utility.yul\":3484:3485   */\n  0x00\n    /* \"#utility.yul\":3480:3486   */\n  not\n    /* \"#utility.yul\":3472:3477   */\n  dup5\n    /* \"#utility.yul\":3469:3470   */\n  0x08\n    /* \"#utility.yul\":3465:3478   */\n  mul\n    /* \"#utility.yul\":3436:3487   */\n  tag_30\n  jump\t// in\ntag_81:\n    /* \"#utility.yul\":3432:3488   */\n  not\n    /* \"#utility.yul\":3517:3521   */\n  dup1\n    /* \"#utility.yul\":3511:3515   */\n  dup4\n    /* \"#utility.yul\":3507:3522   */\n  and\n    /* \"#utility.yul\":3497:3522   */\n  swap2\n  pop\n    /* \"#utility.yul\":3410:3528   */\n  pop\n    /* \"#utility.yul\":3359:3528   */\n  swap3\n  swap2\n  pop\n  pop\n  jump\t// out\n    /* \"#utility.yul\":3533:3828   */\ntag_32:\n    /* \"#utility.yul\":3609:3613   */\n  0x00\n    /* \"#utility.yul\":3755:3784   */\n  tag_83\n    /* \"#utility.yul\":3780:3783   */\n  dup4\n    /* \"#utility.yul\":3774:3778   */\n  dup4\n    /* \"#utility.yul\":3755:3784   */\n  tag_31\n  jump\t// in\ntag_83:\n    /* \"#utility.yul\":3747:3784   */\n  swap2\n  pop\n    /* \"#utility.yul\":3817:3820   */\n  dup3\n    /* \"#utility.yul\":3814:3815   */\n  0x02\n    /* \"#utility.yul\":3810:3821   */\n  mul\n    /* \"#utility.yul\":3804:3808   */\n  dup3\n    /* \"#utility.yul\":3801:3822   */\n  or\n    /* \"#utility.yul\":3793:3822   */\n  swap1\n  pop\n    /* \"#utility.yul\":3533:3828   */\n  swap3\n  swap2\n  pop\n  pop\n  jump\t// out\n    /* \"#utility.yul\":3833:5228   */\ntag_5:\n    /* \"#utility.yul\":3950:3987   */\n  tag_85\n    /* \"#utility.yul\":3983:3986   */\n  dup3\n    /* \"#utility.yul\":3950:3987   */\n  tag_13\n  jump\t// in\ntag_85:\n    /* \"#utility.yul\":4052:4070   */\n  0xffffffffffffffff\n    /* \"#utility.yul\":4044:4050   */\n  dup2\n    /* \"#utility.yul\":4041:4071   */\n  gt\n    /* \"#utility.yul\":4038:4094   */\n  iszero\n  tag_86\n  jumpi\n    /* \"#utility.yul\":4074:4092   */\n  tag_87\n  tag_14\n  jump\t// in\ntag_87:\n    /* \"#utility.yul\":4038:4094   */\ntag_86:\n    /* \"#utility.yul\":4118:4156   */\n  tag_88\n    /* \"#utility.yul\":4150:4154   */\n  dup3\n    /* \"#utility.yul\":4144:4155   */\n  sload\n    /* \"#utility.yul\":4118:4156   */\n  tag_16\n  jump\t// in\ntag_88:\n    /* \"#utility.yul\":4203:4270   */\n  tag_89\n    /* \"#utility.yul\":4263:4269   */\n  dup3\n    /* \"#utility.yul\":4255:4261   */\n  dup3\n    /* \"#utility.yul\":4249:4253   */\n  dup6\n    /* \"#utility.yul\":4203:4270   */\n  tag_29\n  jump\t// in\ntag_89:\n    /* \"#utility.yul\":4297:4298   */\n  0x00\n    /* \"#utility.yul\":4321:4325   */\n  0x20\n    /* \"#utility.yul\":4308:4325   */\n  swap1\n  pop\n    /* \"#utility.yul\":4353:4355   */\n  0x1f\n    /* \"#utility.yul\":4345:4351   */\n  dup4\n    /* \"#utility.yul\":4342:4356   */\n  gt\n    /* \"#utility.yul\":4370:4371   */\n  0x01\n    /* \"#utility.yul\":4365:4983   */\n  dup2\n  eq\n  tag_91\n  jumpi\n    /* \"#utility.yul\":5027:5028   */\n  0x00\n    /* \"#utility.yul\":5044:5050   */\n  dup5\n    /* \"#utility.yul\":5041:5118   */\n  iszero\n  tag_92\n  jumpi\n    /* \"#utility.yul\":5093:5102   */\n  dup3\n    /* \"#utility.yul\":5088:5091   */\n  dup8\n    /* \"#utility.yul\":5084:5103   */\n  add\n    /* \"#utility.yul\":5078:5104   */\n  mload\n    /* \"#utility.yul\":5069:5104   */\n  swap1\n  pop\n    /* \"#utility.yul\":5041:5118   */\ntag_92:\n    /* \"#utility.yul\":5144:5211   */\n  tag_93\n    /* \"#utility.yul\":5204:5210   */\n  dup6\n    /* \"#utility.yul\":5197:5202   */\n  dup3\n    /* \"#utility.yul\":5144:5211   */\n  tag_32\n  jump\t// in\ntag_93:\n    /* \"#utility.yul\":5138:5142   */\n  dup7\n    /* \"#utility.yul\":5131:5212   */\n  sstore\n    /* \"#utility.yul\":5000:5222   */\n  pop\n    /* \"#utility.yul\":4335:5222   */\n  jump(tag_90)\n    /* \"#utility.yul\":4365:4983   */\ntag_91:\n    /* \"#utility.yul\":4417:4421   */\n  0x1f\n    /* \"#utility.yul\":4413:4422   */\n  not\n    /* \"#utility.yul\":4405:4411   */\n  dup5\n    /* \"#utility.yul\":4401:4423   */\n  and\n    /* \"#utility.yul\":4451:4488   */\n  tag_94\n    /* \"#utility.yul\":4483:4487   */\n  dup7\n    /* \"#utility.yul\":4451:4488   */\n  tag_17\n  jump\t// in\ntag_94:\n    /* \"#utility.yul\":4510:4511   */\n  0x00\n    /* \"#utility.yul\":4524:4732   */\ntag_95:\n    /* \"#utility.yul\":4538:4545   */\n  dup3\n    /* \"#utility.yul\":4535:4536   */\n  dup2\n    /* \"#utility.yul\":4532:4546   */\n  lt\n    /* \"#utility.yul\":4524:4732   */\n  iszero\n  tag_97\n  jumpi\n    /* \"#utility.yul\":4617:4626   */\n  dup5\n    /* \"#utility.yul\":4612:4615   */\n  dup10\n    /* \"#utility.yul\":4608:4627   */\n  add\n    /* \"#utility.yul\":4602:4628   */\n  mload\n    /* \"#utility.yul\":4594:4600   */\n  dup3\n    /* \"#utility.yul\":4587:4629   */\n  sstore\n    /* \"#utility.yul\":4668:4669   */\n  0x01\n    /* \"#utility.yul\":4660:4666   */\n  dup3\n    /* \"#utility.yul\":4656:4670   */\n  add\n    /* \"#utility.yul\":4646:4670   */\n  swap2\n  pop\n    /* \"#utility.yul\":4715:4717   */\n  0x20\n    /* \"#utility.yul\":4704:4713   */\n  dup6\n    /* \"#utility.yul\":4700:4718   */\n  add\n    /* \"#utility.yul\":4687:4718   */\n  swap5\n  pop\n    /* \"#utility.yul\":4561:4565   */\n  0x20\n    /* \"#utility.yul\":4558:4559   */\n  dup2\n    /* \"#utility.yul\":4554:4566   */\n  add\n    /* \"#utility.yul\":4549:4566   */\n  swap1\n  pop\n    /* \"#utility.yul\":4524:4732   */\n  jump(tag_95)\ntag_97:\n    /* \"#utility.yul\":4760:4766   */\n  dup7\n    /* \"#utility.yul\":4751:4758   */\n  dup4\n    /* \"#utility.yul\":4748:4767   */\n  lt\n    /* \"#utility.yul\":4745:4924   */\n  iszero\n  tag_98\n  jumpi\n    /* \"#utility.yul\":4818:4827   */\n  dup5\n    /* \"#utility.yul\":4813:4816   */\n  dup10\n    /* \"#utility.yul\":4809:4828   */\n  add\n    /* \"#utility.yul\":4803:4829   */\n  mload\n    /* \"#utility.yul\":4861:4909   */\n  tag_99\n    /* \"#utility.yul\":4903:4907   */\n  0x1f\n    /* \"#utility.yul\":4895:4901   */\n  dup10\n    /* \"#utility.yul\":4891:4908   */\n  and\n    /* \"#utility.yul\":4880:4889   */\n  dup3\n    /* \"#utility.yul\":4861:4909   */\n  tag_31\n  jump\t// in\ntag_99:\n    /* \"#utility.yul\":4853:4859   */\n  dup4\n    /* \"#utility.yul\":4846:4910   */\n  sstore\n    /* \"#utility.yul\":4768:4924   */\n  pop\n    /* \"#utility.yul\":4745:4924   */\ntag_98:\n    /* \"#utility.yul\":4970:4971   */\n  0x01\n    /* \"#utility.yul\":4966:4967   */\n  0x02\n    /* \"#utility.yul\":4958:4964   */\n  dup9\n    /* \"#utility.yul\":4954:4968   */\n  mul\n    /* \"#utility.yul\":4950:4972   */\n  add\n    /* \"#utility.yul\":4944:4948   */\n  dup9\n    /* \"#utility.yul\":4937:4973   */\n  sstore\n    /* \"#utility.yul\":4372:4983   */\n  pop\n  pop\n  pop\n    /* \"#utility.yul\":4335:5222   */\ntag_90:\n  pop\n    /* \"#utility.yul\":3925:5228   */\n  pop\n  pop\n  pop\n    /* \"#utility.yul\":3833:5228   */\n  pop\n  pop\n  jump\t// out\n    /* \"#utility.yul\":5234:5403   */\ntag_33:\n    /* \"#utility.yul\":5318:5329   */\n  0x00\n    /* \"#utility.yul\":5352:5358   */\n  dup3\n    /* \"#utility.yul\":5347:5350   */\n  dup3\n    /* \"#utility.yul\":5340:5359   */\n  mstore\n    /* \"#utility.yul\":5392:5396   */\n  0x20\n    /* \"#utility.yul\":5387:5390   */\n  dup3\n    /* \"#utility.yul\":5383:5397   */\n  add\n    /* \"#utility.yul\":5368:5397   */\n  swap1\n  pop\n    /* \"#utility.yul\":5234:5403   */\n  swap3\n  swap2\n  pop\n  pop\n  jump\t// out\n    /* \"#utility.yul\":5409:5564   */\ntag_34:\n    /* \"#utility.yul\":5549:5556   */\n  0x41646d696e000000000000000000000000000000000000000000000000000000\n    /* \"#utility.yul\":5545:5546   */\n  0x00\n    /* \"#utility.yul\":5537:5543   */\n  dup3\n    /* \"#utility.yul\":5533:5547   */\n  add\n    /* \"#utility.yul\":5526:5557   */\n  mstore\n    /* \"#utility.yul\":5409:5564   */\n  pop\n  jump\t// out\n    /* \"#utility.yul\":5570:5935   */\ntag_35:\n    /* \"#utility.yul\":5712:5715   */\n  0x00\n    /* \"#utility.yul\":5733:5799   */\n  tag_103\n    /* \"#utility.yul\":5797:5798   */\n  0x05\n    /* \"#utility.yul\":5792:5795   */\n  dup4\n    /* \"#utility.yul\":5733:5799   */\n  tag_33\n  jump\t// in\ntag_103:\n    /* \"#utility.yul\":5726:5799   */\n  swap2\n  pop\n    /* \"#utility.yul\":5808:5901   */\n  tag_104\n    /* \"#utility.yul\":5897:5900   */\n  dup3\n    /* \"#utility.yul\":5808:5901   */\n  tag_34\n  jump\t// in\ntag_104:\n    /* \"#utility.yul\":5926:5928   */\n  0x20\n    /* \"#utility.yul\":5921:5924   */\n  dup3\n    /* \"#utility.yul\":5917:5929   */\n  add\n    /* \"#utility.yul\":5910:5929   */\n  swap1\n  pop\n    /* \"#utility.yul\":5570:5935   */\n  swap2\n  swap1\n  pop\n  jump\t// out\n    /* \"#utility.yul\":5941:6102   */\ntag_36:\n    /* \"#utility.yul\":6081:6094   */\n  0x436c696e69632053616c65000000000000000000000000000000000000000000\n    /* \"#utility.yul\":6077:6078   */\n  0x00\n    /* \"#utility.yul\":6069:6075   */\n  dup3\n    /* \"#utility.yul\":6065:6079   */\n  add\n    /* \"#utility.yul\":6058:6095   */\n  mstore\n    /* \"#utility.yul\":5941:6102   */\n  pop\n  jump\t// out\n    /* \"#utility.yul\":6108:6474   */\ntag_37:\n    /* \"#utility.yul\":6250:6253   */\n  0x00\n    /* \"#utility.yul\":6271:6338   */\n  tag_107\n    /* \"#utility.yul\":6335:6337   */\n  0x0b\n    /* \"#utility.yul\":6330:6333   */\n  dup4\n    /* \"#utility.yul\":6271:6338   */\n  tag_33\n  jump\t// in\ntag_107:\n    /* \"#utility.yul\":6264:6338   */\n  swap2\n  pop\n    /* \"#utility.yul\":6347:6440   */\n  tag_108\n    /* \"#utility.yul\":6436:6439   */\n  dup3\n    /* \"#utility.yul\":6347:6440   */\n  tag_36\n  jump\t// in\ntag_108:\n    /* \"#utility.yul\":6465:6467   */\n  0x20\n    /* \"#utility.yul\":6460:6463   */\n  dup3\n    /* \"#utility.yul\":6456:6468   */\n  add\n    /* \"#utility.yul\":6449:6468   */\n  swap1\n  pop\n    /* \"#utility.yul\":6108:6474   */\n  swap2\n  swap1\n  pop\n  jump\t// out\n    /* \"#utility.yul\":6480:7206   */\ntag_11:\n    /* \"#utility.yul\":6747:6751   */\n  0x00\n    /* \"#utility.yul\":6785:6787   */\n  0x40\n    /* \"#utility.yul\":6774:6783   */\n  dup3\n    /* \"#utility.yul\":6770:6788   */\n  add\n    /* \"#utility.yul\":6762:6788   */\n  swap1\n  pop\n    /* \"#utility.yul\":6834:6843   */\n  dup2\n    /* \"#utility.yul\":6828:6832   */\n  dup2\n    /* \"#utility.yul\":6824:6844   */\n  sub\n    /* \"#utility.yul\":6820:6821   */\n  0x00\n    /* \"#utility.yul\":6809:6818   */\n  dup4\n    /* \"#utility.yul\":6805:6822   */\n  add\n    /* \"#utility.yul\":6798:6845   */\n  mstore\n    /* \"#utility.yul\":6862:6993   */\n  tag_110\n    /* \"#utility.yul\":6988:6992   */\n  dup2\n    /* \"#utility.yul\":6862:6993   */\n  tag_35\n  jump\t// in\ntag_110:\n    /* \"#utility.yul\":6854:6993   */\n  swap1\n  pop\n    /* \"#utility.yul\":7040:7049   */\n  dup2\n    /* \"#utility.yul\":7034:7038   */\n  dup2\n    /* \"#utility.yul\":7030:7050   */\n  sub\n    /* \"#utility.yul\":7025:7027   */\n  0x20\n    /* \"#utility.yul\":7014:7023   */\n  dup4\n    /* \"#utility.yul\":7010:7028   */\n  add\n    /* \"#utility.yul\":7003:7051   */\n  mstore\n    /* \"#utility.yul\":7068:7199   */\n  tag_111\n    /* \"#utility.yul\":7194:7198   */\n  dup2\n    /* \"#utility.yul\":7068:7199   */\n  tag_37\n  jump\t// in\ntag_111:\n    /* \"#utility.yul\":7060:7199   */\n  swap1\n  pop\n    /* \"#utility.yul\":6480:7206   */\n  swap2\n  swap1\n  pop\n  jump\t// out\n    /* \"contracts/HealthRecords.sol\":60:6349  contract HealthRecords {... */\ntag_12:\n  mload(0x80)\n  codecopy(0x00, dataOffset(sub_0), dataSize(sub_0))\n  0x00\n  assignImmutable(\"0x2a80e1ef1d7842f27f2e6be0972bb708b9a135c38860dbe73c27c3486c34f4de\")\n  return(0x00, dataSize(sub_0))\nstop\n\nsub_0: assembly {\n        /* \"contracts/HealthRecords.sol\":60:6349  contract HealthRecords {... */\n      mstore(0x40, 0x80)\n      callvalue\n      dup1\n      iszero\n      tag_1\n      jumpi\n      0x00\n      dup1\n      revert\n    tag_1:\n      pop\n      jumpi(tag_2, lt(calldatasize, 0x04))\n      shr(0xe0, calldataload(0x00))\n      dup1\n      0x87fee61c\n      gt\n      tag_18\n      jumpi\n      dup1\n      0xa79861f1\n      gt\n      tag_19\n      jumpi\n      dup1\n      0xa79861f1\n      eq\n      tag_14\n      jumpi\n      dup1\n      0xa9583c22\n      eq\n      tag_15\n      jumpi\n      dup1\n      0xd1a48627\n      eq\n      tag_16\n      jumpi\n      dup1\n      0xf68b68f6\n      eq\n      tag_17\n      jumpi\n      jump(tag_2)\n    tag_19:\n      dup1\n      0x87fee61c\n      eq\n      tag_10\n      jumpi\n      dup1\n      0x8da5cb5b\n      eq\n      tag_11\n      jumpi\n      dup1\n      0x98fc90e9\n      eq\n      tag_12\n      jumpi\n      dup1\n      0xa46aef40\n      eq\n      tag_13\n      jumpi\n      jump(tag_2)\n    tag_18:\n      dup1\n      0x461a2082\n      gt\n      tag_20\n      jumpi\n      dup1\n      0x461a2082\n      eq\n      tag_6\n      jumpi\n      dup1\n      0x4ba0a020\n      eq\n      tag_7\n      jumpi\n      dup1\n      0x53c1a042\n      eq\n      tag_8\n      jumpi\n      dup1\n      0x5cbcd8eb\n      eq\n      tag_9\n      jumpi\n      jump(tag_2)\n    tag_20:\n      dup1\n      0x037f8248\n      eq\n      tag_3\n      jumpi\n      dup1\n      0x0869cfbc\n      eq\n      tag_4\n      jumpi\n      dup1\n      0x1128c9ea\n      eq\n      tag_5\n      jumpi\n    tag_2:\n      0x00\n      dup1\n      revert\n        /* \"contracts/HealthRecords.sol\":4656:5117  function requestConsent(address _patient) public onlyDoctor {... */\n    tag_3:\n      tag_21\n      0x04\n      dup1\n      calldatasize\n      sub\n      dup2\n      add\n      swap1\n      tag_22\n      swap2\n      swap1\n      tag_23\n      jump\t// in\n    tag_22:\n      tag_24\n      jump\t// in\n    tag_21:\n      stop\n        /* \"contracts/HealthRecords.sol\":505:548  mapping(address => Patient) public patients */\n    tag_4:\n      tag_25\n      0x04\n      dup1\n      calldatasize\n      sub\n      dup2\n      add\n      swap1\n      tag_26\n      swap2\n      swap1\n      tag_23\n      jump\t// in\n    tag_26:\n      tag_27\n      jump\t// in\n    tag_25:\n      mload(0x40)\n      tag_28\n      swap6\n      swap5\n      swap4\n      swap3\n      swap2\n      swap1\n      tag_29\n      jump\t// in\n    tag_28:\n      mload(0x40)\n      dup1\n      swap2\n      sub\n      swap1\n      return\n        /* \"contracts/HealthRecords.sol\":2889:3654  function addDoctor(... */\n    tag_5:\n      tag_30\n      0x04\n      dup1\n      calldatasize\n      sub\n      dup2\n      add\n      swap1\n      tag_31\n      swap2\n      swap1\n      tag_32\n      jump\t// in\n    tag_31:\n      tag_33\n      jump\t// in\n    tag_30:\n      stop\n        /* \"contracts/HealthRecords.sol\":4268:4614  function getPatientProfile(address _patient) public view returns (string memory name, string memory bloodType, string memory phone, string memory email) {... */\n    tag_6:\n      tag_34\n      0x04\n      dup1\n      calldatasize\n      sub\n      dup2\n      add\n      swap1\n      tag_35\n      swap2\n      swap1\n      tag_23\n      jump\t// in\n    tag_35:\n      tag_36\n      jump\t// in\n    tag_34:\n      mload(0x40)\n      tag_37\n      swap5\n      swap4\n      swap3\n      swap2\n      swap1\n      tag_38\n      jump\t// in\n    tag_37:\n      mload(0x40)\n      dup1\n      swap2\n      sub\n      swap1\n      return\n        /* \"contracts/HealthRecords.sol\":2300:2881  function registerPatient(string memory _name, string memory _bloodType, string memory _phone, string memory _email) public {... */\n    tag_7:\n      tag_39\n      0x04\n      dup1\n      calldatasize\n      sub\n      dup2\n      add\n      swap1\n      tag_40\n      swap2\n      swap1\n      tag_41\n      jump\t// in\n    tag_40:\n      tag_42\n      jump\t// in\n    tag_39:\n      stop\n        /* \"contracts/HealthRecords.sol\":749:815  mapping(address => mapping(address => bool)) public pendingConsent */\n    tag_8:\n      tag_43\n      0x04\n      dup1\n      calldatasize\n      sub\n      dup2\n      add\n      swap1\n      tag_44\n      swap2\n      swap1\n      tag_45\n      jump\t// in\n    tag_44:\n      tag_46\n      jump\t// in\n    tag_43:\n      mload(0x40)\n      tag_47\n      swap2\n      swap1\n      tag_48\n      jump\t// in\n    tag_47:\n      mload(0x40)\n      dup1\n      swap2\n      sub\n      swap1\n      return\n        /* \"contracts/HealthRecords.sol\":4051:4260  function getDoctorProfile(address _doctor) public view returns (string memory name) {... */\n    tag_9:\n      tag_49\n      0x04\n      dup1\n      calldatasize\n      sub\n      dup2\n      add\n      swap1\n      tag_50\n      swap2\n      swap1\n      tag_23\n      jump\t// in\n    tag_50:\n      tag_51\n      jump\t// in\n    tag_49:\n      mload(0x40)\n      tag_52\n      swap2\n      swap1\n      tag_53\n      jump\t// in\n    tag_52:\n      mload(0x40)\n      dup1\n      swap2\n      sub\n      swap1\n      return\n        /* \"contracts/HealthRecords.sol\":5983:6344  function addVisit(address _patient, bytes memory _encryptedData) public onlyDoctor {... */\n    tag_10:\n      tag_54\n      0x04\n      dup1\n      calldatasize\n      sub\n      dup2\n      add\n      swap1\n      tag_55\n      swap2\n      swap1\n      tag_56\n      jump\t// in\n    tag_55:\n      tag_57\n      jump\t// in\n    tag_54:\n      stop\n        /* \"contracts/HealthRecords.sol\":90:120  address public immutable owner */\n    tag_11:\n      tag_58\n      tag_59\n      jump\t// in\n    tag_58:\n      mload(0x40)\n      tag_60\n      swap2\n      swap1\n      tag_61\n      jump\t// in\n    tag_60:\n      mload(0x40)\n      dup1\n      swap2\n      sub\n      swap1\n      return\n        /* \"contracts/HealthRecords.sol\":3662:4008  function removeDoctor(address _doctor) public onlyOwner {... */\n    tag_12:\n      tag_62\n      0x04\n      dup1\n      calldatasize\n      sub\n      dup2\n      add\n      swap1\n      tag_63\n      swap2\n      swap1\n      tag_23\n      jump\t// in\n    tag_63:\n      tag_64\n      jump\t// in\n    tag_62:\n      stop\n        /* \"contracts/HealthRecords.sol\":5476:5761  function refuseConsent(address _doctor) public onlyPatient {... */\n    tag_13:\n      tag_65\n      0x04\n      dup1\n      calldatasize\n      sub\n      dup2\n      add\n      swap1\n      tag_66\n      swap2\n      swap1\n      tag_23\n      jump\t// in\n    tag_66:\n      tag_67\n      jump\t// in\n    tag_65:\n      stop\n        /* \"contracts/HealthRecords.sol\":5125:5468  function grantConsent(address _doctor) public onlyPatient {... */\n    tag_14:\n      tag_68\n      0x04\n      dup1\n      calldatasize\n      sub\n      dup2\n      add\n      swap1\n      tag_69\n      swap2\n      swap1\n      tag_23\n      jump\t// in\n    tag_69:\n      tag_70\n      jump\t// in\n    tag_68:\n      stop\n        /* \"contracts/HealthRecords.sol\":555:596  mapping(address => Doctor) public doctors */\n    tag_15:\n      tag_71\n      0x04\n      dup1\n      calldatasize\n      sub\n      dup2\n      add\n      swap1\n      tag_72\n      swap2\n      swap1\n      tag_23\n      jump\t// in\n    tag_72:\n      tag_73\n      jump\t// in\n    tag_71:\n      mload(0x40)\n      tag_74\n      swap7\n      swap6\n      swap5\n      swap4\n      swap3\n      swap2\n      swap1\n      tag_75\n      jump\t// in\n    tag_74:\n      mload(0x40)\n      dup1\n      swap2\n      sub\n      swap1\n      return\n        /* \"contracts/HealthRecords.sol\":5769:5941  function revokeConsent(address _doctor) public onlyPatient {... */\n    tag_16:\n      tag_76\n      0x04\n      dup1\n      calldatasize\n      sub\n      dup2\n      add\n      swap1\n      tag_77\n      swap2\n      swap1\n      tag_23\n      jump\t// in\n    tag_77:\n      tag_78\n      jump\t// in\n    tag_76:\n      stop\n        /* \"contracts/HealthRecords.sol\":676:742  mapping(address => mapping(address => bool)) public patientConsent */\n    tag_17:\n      tag_79\n      0x04\n      dup1\n      calldatasize\n      sub\n      dup2\n      add\n      swap1\n      tag_80\n      swap2\n      swap1\n      tag_45\n      jump\t// in\n    tag_80:\n      tag_81\n      jump\t// in\n    tag_79:\n      mload(0x40)\n      tag_82\n      swap2\n      swap1\n      tag_48\n      jump\t// in\n    tag_82:\n      mload(0x40)\n      dup1\n      swap2\n      sub\n      swap1\n      return\n        /* \"contracts/HealthRecords.sol\":4656:5117  function requestConsent(address _patient) public onlyDoctor {... */\n    tag_24:\n        /* \"contracts/HealthRecords.sol\":1638:1645  doctors */\n      0x01\n        /* \"contracts/HealthRecords.sol\":1638:1657  doctors[msg.sender] */\n      0x00\n        /* \"contracts/HealthRecords.sol\":1646:1656  msg.sender */\n      caller\n        /* \"contracts/HealthRecords.sol\":1638:1657  doctors[msg.sender] */\n      0xffffffffffffffffffffffffffffffffffffffff\n      and\n      0xffffffffffffffffffffffffffffffffffffffff\n      and\n      dup2\n      mstore\n      0x20\n      add\n      swap1\n      dup2\n      mstore\n      0x20\n      add\n      0x00\n      keccak256\n        /* \"contracts/HealthRecords.sol\":1638:1670  doctors[msg.sender].isRegistered */\n      0x00\n      add\n      0x00\n      swap1\n      sload\n      swap1\n      0x0100\n      exp\n      swap1\n      div\n      0xff\n      and\n        /* \"contracts/HealthRecords.sol\":1630:1709  require(doctors[msg.sender].isRegistered, \"Caller is not an authorized doctor\") */\n      tag_84\n      jumpi\n      mload(0x40)\n      0x08c379a000000000000000000000000000000000000000000000000000000000\n      dup2\n      mstore\n      0x04\n      add\n      tag_85\n      swap1\n      tag_86\n      jump\t// in\n    tag_85:\n      mload(0x40)\n      dup1\n      swap2\n      sub\n      swap1\n      revert\n    tag_84:\n        /* \"contracts/HealthRecords.sol\":4735:4743  patients */\n      0x00\n        /* \"contracts/HealthRecords.sol\":4735:4753  patients[_patient] */\n      dup1\n        /* \"contracts/HealthRecords.sol\":4744:4752  _patient */\n      dup3\n        /* \"contracts/HealthRecords.sol\":4735:4753  patients[_patient] */\n      0xffffffffffffffffffffffffffffffffffffffff\n      and\n      0xffffffffffffffffffffffffffffffffffffffff\n      and\n      dup2\n      mstore\n      0x20\n      add\n      swap1\n      dup2\n      mstore\n      0x20\n      add\n      0x00\n      keccak256\n        /* \"contracts/HealthRecords.sol\":4735:4766  patients[_patient].isRegistered */\n      0x00\n      add\n      0x00\n      swap1\n      sload\n      swap1\n      0x0100\n      exp\n      swap1\n      div\n      0xff\n      and\n        /* \"contracts/HealthRecords.sol\":4727:4807  require(patients[_patient].isRegistered, \"Address is not a registered patient.\") */\n      tag_88\n      jumpi\n      mload(0x40)\n      0x08c379a000000000000000000000000000000000000000000000000000000000\n      dup2\n      mstore\n      0x04\n      add\n      tag_89\n      swap1\n      tag_90\n      jump\t// in\n    tag_89:\n      mload(0x40)\n      dup1\n      swap2\n      sub\n      swap1\n      revert\n    tag_88:\n        /* \"contracts/HealthRecords.sol\":4827:4841  patientConsent */\n      0x02\n        /* \"contracts/HealthRecords.sol\":4827:4851  patientConsent[_patient] */\n      0x00\n        /* \"contracts/HealthRecords.sol\":4842:4850  _patient */\n      dup3\n        /* \"contracts/HealthRecords.sol\":4827:4851  patientConsent[_patient] */\n      0xffffffffffffffffffffffffffffffffffffffff\n      and\n      0xffffffffffffffffffffffffffffffffffffffff\n      and\n      dup2\n      mstore\n      0x20\n      add\n      swap1\n      dup2\n      mstore\n      0x20\n      add\n      0x00\n      keccak256\n        /* \"contracts/HealthRecords.sol\":4827:4863  patientConsent[_patient][msg.sender] */\n      0x00\n        /* \"contracts/HealthRecords.sol\":4852:4862  msg.sender */\n      caller\n        /* \"contracts/HealthRecords.sol\":4827:4863  patientConsent[_patient][msg.sender] */\n      0xffffffffffffffffffffffffffffffffffffffff\n      and\n      0xffffffffffffffffffffffffffffffffffffffff\n      and\n      dup2\n      mstore\n      0x20\n      add\n      swap1\n      dup2\n      mstore\n      0x20\n      add\n      0x00\n      keccak256\n      0x00\n      swap1\n      sload\n      swap1\n      0x0100\n      exp\n      swap1\n      div\n      0xff\n      and\n        /* \"contracts/HealthRecords.sol\":4826:4863  !patientConsent[_patient][msg.sender] */\n      iszero\n        /* \"contracts/HealthRecords.sol\":4818:4895  require(!patientConsent[_patient][msg.sender], \"Consent is already granted.\") */\n      tag_91\n      jumpi\n      mload(0x40)\n      0x08c379a000000000000000000000000000000000000000000000000000000000\n      dup2\n      mstore\n      0x04\n      add\n      tag_92\n      swap1\n      tag_93\n      jump\t// in\n    tag_92:\n      mload(0x40)\n      dup1\n      swap2\n      sub\n      swap1\n      revert\n    tag_91:\n        /* \"contracts/HealthRecords.sol\":4915:4929  pendingConsent */\n      0x03\n        /* \"contracts/HealthRecords.sol\":4915:4939  pendingConsent[_patient] */\n      0x00\n        /* \"contracts/HealthRecords.sol\":4930:4938  _patient */\n      dup3\n        /* \"contracts/HealthRecords.sol\":4915:4939  pendingConsent[_patient] */\n      0xffffffffffffffffffffffffffffffffffffffff\n      and\n      0xffffffffffffffffffffffffffffffffffffffff\n      and\n      dup2\n      mstore\n      0x20\n      add\n      swap1\n      dup2\n      mstore\n      0x20\n      add\n      0x00\n      keccak256\n        /* \"contracts/HealthRecords.sol\":4915:4951  pendingConsent[_patient][msg.sender] */\n      0x00\n        /* \"contracts/HealthRecords.sol\":4940:4950  msg.sender */\n      caller\n        /* \"contracts/HealthRecords.sol\":4915:4951  pendingConsent[_patient][msg.sender] */\n      0xffffffffffffffffffffffffffffffffffffffff\n      and\n      0xffffffffffffffffffffffffffffffffffffffff\n      and\n      dup2\n      mstore\n      0x20\n      add\n      swap1\n      dup2\n      mstore\n      0x20\n      add\n      0x00\n      keccak256\n      0x00\n      swap1\n      sload\n      swap1\n      0x0100\n      exp\n      swap1\n      div\n      0xff\n      and\n        /* \"contracts/HealthRecords.sol\":4914:4951  !pendingConsent[_patient][msg.sender] */\n      iszero\n        /* \"contracts/HealthRecords.sol\":4906:4991  require(!pendingConsent[_patient][msg.sender], \"Consent request is already pending.\") */\n      tag_94\n      jumpi\n      mload(0x40)\n      0x08c379a000000000000000000000000000000000000000000000000000000000\n      dup2\n      mstore\n      0x04\n      add\n      tag_95\n      swap1\n      tag_96\n      jump\t// in\n    tag_95:\n      mload(0x40)\n      dup1\n      swap2\n      sub\n      swap1\n      revert\n    tag_94:\n        /* \"contracts/HealthRecords.sol\":5051:5055  true */\n      0x01\n        /* \"contracts/HealthRecords.sol\":5012:5026  pendingConsent */\n      0x03\n        /* \"contracts/HealthRecords.sol\":5012:5036  pendingConsent[_patient] */\n      0x00\n        /* \"contracts/HealthRecords.sol\":5027:5035  _patient */\n      dup4\n        /* \"contracts/HealthRecords.sol\":5012:5036  pendingConsent[_patient] */\n      0xffffffffffffffffffffffffffffffffffffffff\n      and\n      0xffffffffffffffffffffffffffffffffffffffff\n      and\n      dup2\n      mstore\n      0x20\n      add\n      swap1\n      dup2\n      mstore\n      0x20\n      add\n      0x00\n      keccak256\n        /* \"contracts/HealthRecords.sol\":5012:5048  pendingConsent[_patient][msg.sender] */\n      0x00\n        /* \"contracts/HealthRecords.sol\":5037:5047  msg.sender */\n      caller\n        /* \"contracts/HealthRecords.sol\":5012:5048  pendingConsent[_patient][msg.sender] */\n      0xffffffffffffffffffffffffffffffffffffffff\n      and\n      0xffffffffffffffffffffffffffffffffffffffff\n      and\n      dup2\n      mstore\n      0x20\n      add\n      swap1\n      dup2\n      mstore\n      0x20\n      add\n      0x00\n      keccak256\n      0x00\n        /* \"contracts/HealthRecords.sol\":5012:5055  pendingConsent[_patient][msg.sender] = true */\n      0x0100\n      exp\n      dup2\n      sload\n      dup2\n      0xff\n      mul\n      not\n      and\n      swap1\n      dup4\n      iszero\n      iszero\n      mul\n      or\n      swap1\n      sstore\n      pop\n        /* \"contracts/HealthRecords.sol\":5098:5108  msg.sender */\n      caller\n        /* \"contracts/HealthRecords.sol\":5071:5109  ConsentRequested(_patient, msg.sender) */\n      0xffffffffffffffffffffffffffffffffffffffff\n      and\n        /* \"contracts/HealthRecords.sol\":5088:5096  _patient */\n      dup2\n        /* \"contracts/HealthRecords.sol\":5071:5109  ConsentRequested(_patient, msg.sender) */\n      0xffffffffffffffffffffffffffffffffffffffff\n      and\n      0x2836b27da25b9b18fc3a89b2e06ebbe3b7268f8291437c0bb6923b2b19212bcb\n      mload(0x40)\n      mload(0x40)\n      dup1\n      swap2\n      sub\n      swap1\n      log3\n        /* \"contracts/HealthRecords.sol\":4656:5117  function requestConsent(address _patient) public onlyDoctor {... */\n      pop\n      jump\t// out\n        /* \"contracts/HealthRecords.sol\":505:548  mapping(address => Patient) public patients */\n    tag_27:\n      mstore(0x20, 0x00)\n      dup1\n      0x00\n      mstore\n      keccak256(0x00, 0x40)\n      0x00\n      swap2\n      pop\n      swap1\n      pop\n      dup1\n      0x00\n      add\n      0x00\n      swap1\n      sload\n      swap1\n      0x0100\n      exp\n      swap1\n      div\n      0xff\n      and\n      swap1\n      dup1\n      0x01\n      add\n      dup1\n      sload\n      tag_97\n      swap1\n      tag_98\n      jump\t// in\n    tag_97:\n      dup1\n      0x1f\n      add\n      0x20\n      dup1\n      swap2\n      div\n      mul\n      0x20\n      add\n      mload(0x40)\n      swap1\n      dup2\n      add\n      0x40\n      mstore\n      dup1\n      swap3\n      swap2\n      swap1\n      dup2\n      dup2\n      mstore\n      0x20\n      add\n      dup3\n      dup1\n      sload\n      tag_99\n      swap1\n      tag_98\n      jump\t// in\n    tag_99:\n      dup1\n      iszero\n      tag_100\n      jumpi\n      dup1\n      0x1f\n      lt\n      tag_101\n      jumpi\n      0x0100\n      dup1\n      dup4\n      sload\n      div\n      mul\n      dup4\n      mstore\n      swap2\n      0x20\n      add\n      swap2\n      jump(tag_100)\n    tag_101:\n      dup3\n      add\n      swap2\n      swap1\n      0x00\n      mstore\n      keccak256(0x00, 0x20)\n      swap1\n    tag_102:\n      dup2\n      sload\n      dup2\n      mstore\n      swap1\n      0x01\n      add\n      swap1\n      0x20\n      add\n      dup1\n      dup4\n      gt\n      tag_102\n      jumpi\n      dup3\n      swap1\n      sub\n      0x1f\n      and\n      dup3\n      add\n      swap2\n    tag_100:\n      pop\n      pop\n      pop\n      pop\n      pop\n      swap1\n      dup1\n      0x02\n      add\n      dup1\n      sload\n      tag_103\n      swap1\n      tag_98\n      jump\t// in\n    tag_103:\n      dup1\n      0x1f\n      add\n      0x20\n      dup1\n      swap2\n      div\n      mul\n      0x20\n      add\n      mload(0x40)\n      swap1\n      dup2\n      add\n      0x40\n      mstore\n      dup1\n      swap3\n      swap2\n      swap1\n      dup2\n      dup2\n      mstore\n      0x20\n      add\n      dup3\n      dup1\n      sload\n      tag_104\n      swap1\n      tag_98\n      jump\t// in\n    tag_104:\n      dup1\n      iszero\n      tag_105\n      jumpi\n      dup1\n      0x1f\n      lt\n      tag_106\n      jumpi\n      0x0100\n      dup1\n      dup4\n      sload\n      div\n      mul\n      dup4\n      mstore\n      swap2\n      0x20\n      add\n      swap2\n      jump(tag_105)\n    tag_106:\n      dup3\n      add\n      swap2\n      swap1\n      0x00\n      mstore\n      keccak256(0x00, 0x20)\n      swap1\n    tag_107:\n      dup2\n      sload\n      dup2\n      mstore\n      swap1\n      0x01\n      add\n      swap1\n      0x20\n      add\n      dup1\n      dup4\n      gt\n      tag_107\n      jumpi\n      dup3\n      swap1\n      sub\n      0x1f\n      and\n      dup3\n      add\n      swap2\n    tag_105:\n      pop\n      pop\n      pop\n      pop\n      pop\n      swap1\n      dup1\n      0x03\n      add\n      dup1\n      sload\n      tag_108\n      swap1\n      tag_98\n      jump\t// in\n    tag_108:\n      dup1\n      0x1f\n      add\n      0x20\n      dup1\n      swap2\n      div\n      mul\n      0x20\n      add\n      mload(0x40)\n      swap1\n      dup2\n      add\n      0x40\n      mstore\n      dup1\n      swap3\n      swap2\n      swap1\n      dup2\n      dup2\n      mstore\n      0x20\n      add\n      dup3\n      dup1\n      sload\n      tag_109\n      swap1\n      tag_98\n      jump\t// in\n    tag_109:\n      dup1\n      iszero\n      tag_110\n      jumpi\n      dup1\n      0x1f\n      lt\n      tag_111\n      jumpi\n      0x0100\n      dup1\n      dup4\n      sload\n      div\n      mul\n      dup4\n      mstore\n      swap2\n      0x20\n      add\n      swap2\n      jump(tag_110)\n    tag_111:\n      dup3\n      add\n      swap2\n      swap1\n      0x00\n      mstore\n      keccak256(0x00, 0x20)\n      swap1\n    tag_112:\n      dup2\n      sload\n      dup2\n      mstore\n      swap1\n      0x01\n      add\n      swap1\n      0x20\n      add\n      dup1\n      dup4\n      gt\n      tag_112\n      jumpi\n      dup3\n      swap1\n      sub\n      0x1f\n      and\n      dup3\n      add\n      swap2\n    tag_110:\n      pop\n      pop\n      pop\n      pop\n      pop\n      swap1\n      dup1\n      0x04\n      add\n      dup1\n      sload\n      tag_113\n      swap1\n      tag_98\n      jump\t// in\n    tag_113:\n      dup1\n      0x1f\n      add\n      0x20\n      dup1\n      swap2\n      div\n      mul\n      0x20\n      add\n      mload(0x40)\n      swap1\n      dup2\n      add\n      0x40\n      mstore\n      dup1\n      swap3\n      swap2\n      swap1\n      dup2\n      dup2\n      mstore\n      0x20\n      add\n      dup3\n      dup1\n      sload\n      tag_114\n      swap1\n      tag_98\n      jump\t// in\n    tag_114:\n      dup1\n      iszero\n      tag_115\n      jumpi\n      dup1\n      0x1f\n      lt\n      tag_116\n      jumpi\n      0x0100\n      dup1\n      dup4\n      sload\n      div\n      mul\n      dup4\n      mstore\n      swap2\n      0x20\n      add\n      swap2\n      jump(tag_115)\n    tag_116:\n      dup3\n      add\n      swap2\n      swap1\n      0x00\n      mstore\n      keccak256(0x00, 0x20)\n      swap1\n    tag_117:\n      dup2\n      sload\n      dup2\n      mstore\n      swap1\n      0x01\n      add\n      swap1\n      0x20\n      add\n      dup1\n      dup4\n      gt\n      tag_117\n      jumpi\n      dup3\n      swap1\n      sub\n      0x1f\n      and\n      dup3\n      add\n      swap2\n    tag_115:\n      pop\n      pop\n      pop\n      pop\n      pop\n      swap1\n      pop\n      dup6\n      jump\t// out\n        /* \"contracts/HealthRecords.sol\":2889:3654  function addDoctor(... */\n    tag_33:\n        /* \"contracts/HealthRecords.sol\":1525:1530  owner */\n      immutable(\"0x2a80e1ef1d7842f27f2e6be0972bb708b9a135c38860dbe73c27c3486c34f4de\")\n        /* \"contracts/HealthRecords.sol\":1511:1530  msg.sender == owner */\n      0xffffffffffffffffffffffffffffffffffffffff\n      and\n        /* \"contracts/HealthRecords.sol\":1511:1521  msg.sender */\n      caller\n        /* \"contracts/HealthRecords.sol\":1511:1530  msg.sender == owner */\n      0xffffffffffffffffffffffffffffffffffffffff\n      and\n      eq\n        /* \"contracts/HealthRecords.sol\":1503:1569  require(msg.sender == owner, \"Only owner can perform this action\") */\n      tag_119\n      jumpi\n      mload(0x40)\n      0x08c379a000000000000000000000000000000000000000000000000000000000\n      dup2\n      mstore\n      0x04\n      add\n      tag_120\n      swap1\n      tag_121\n      jump\t// in\n    tag_120:\n      mload(0x40)\n      dup1\n      swap2\n      sub\n      swap1\n      revert\n    tag_119:\n        /* \"contracts/HealthRecords.sol\":3159:3166  doctors */\n      0x01\n        /* \"contracts/HealthRecords.sol\":3159:3175  doctors[_doctor] */\n      0x00\n        /* \"contracts/HealthRecords.sol\":3167:3174  _doctor */\n      dup8\n        /* \"contracts/HealthRecords.sol\":3159:3175  doctors[_doctor] */\n      0xffffffffffffffffffffffffffffffffffffffff\n      and\n      0xffffffffffffffffffffffffffffffffffffffff\n      and\n      dup2\n      mstore\n      0x20\n      add\n      swap1\n      dup2\n      mstore\n      0x20\n      add\n      0x00\n      keccak256\n        /* \"contracts/HealthRecords.sol\":3159:3188  doctors[_doctor].isRegistered */\n      0x00\n      add\n      0x00\n      swap1\n      sload\n      swap1\n      0x0100\n      exp\n      swap1\n      div\n      0xff\n      and\n        /* \"contracts/HealthRecords.sol\":3158:3188  !doctors[_doctor].isRegistered */\n      iszero\n        /* \"contracts/HealthRecords.sol\":3150:3221  require(!doctors[_doctor].isRegistered, \"Doctor is already registered\") */\n      tag_123\n      jumpi\n      mload(0x40)\n      0x08c379a000000000000000000000000000000000000000000000000000000000\n      dup2\n      mstore\n      0x04\n      add\n      tag_124\n      swap1\n      tag_125\n      jump\t// in\n    tag_124:\n      mload(0x40)\n      dup1\n      swap2\n      sub\n      swap1\n      revert\n    tag_123:\n        /* \"contracts/HealthRecords.sol\":3241:3249  patients */\n      0x00\n        /* \"contracts/HealthRecords.sol\":3241:3258  patients[_doctor] */\n      dup1\n        /* \"contracts/HealthRecords.sol\":3250:3257  _doctor */\n      dup8\n        /* \"contracts/HealthRecords.sol\":3241:3258  patients[_doctor] */\n      0xffffffffffffffffffffffffffffffffffffffff\n      and\n      0xffffffffffffffffffffffffffffffffffffffff\n      and\n      dup2\n      mstore\n      0x20\n      add\n      swap1\n      dup2\n      mstore\n      0x20\n      add\n      0x00\n      keccak256\n        /* \"contracts/HealthRecords.sol\":3241:3271  patients[_doctor].isRegistered */\n      0x00\n      add\n      0x00\n      swap1\n      sload\n      swap1\n      0x0100\n      exp\n      swap1\n      div\n      0xff\n      and\n        /* \"contracts/HealthRecords.sol\":3240:3271  !patients[_doctor].isRegistered */\n      iszero\n        /* \"contracts/HealthRecords.sol\":3232:3318  require(!patients[_doctor].isRegistered, \"Address is already registered as a patient\") */\n      tag_126\n      jumpi\n      mload(0x40)\n      0x08c379a000000000000000000000000000000000000000000000000000000000\n      dup2\n      mstore\n      0x04\n      add\n      tag_127\n      swap1\n      tag_128\n      jump\t// in\n    tag_127:\n      mload(0x40)\n      dup1\n      swap2\n      sub\n      swap1\n      revert\n    tag_126:\n        /* \"contracts/HealthRecords.sol\":3350:3592  Doctor({... */\n      mload(0x40)\n      dup1\n      0xc0\n      add\n      0x40\n      mstore\n      dup1\n        /* \"contracts/HealthRecords.sol\":3386:3390  true */\n      0x01\n        /* \"contracts/HealthRecords.sol\":3350:3592  Doctor({... */\n      iszero\n      iszero\n      dup2\n      mstore\n      0x20\n      add\n        /* \"contracts/HealthRecords.sol\":3411:3416  _name */\n      dup7\n        /* \"contracts/HealthRecords.sol\":3350:3592  Doctor({... */\n      dup2\n      mstore\n      0x20\n      add\n        /* \"contracts/HealthRecords.sol\":3439:3446  _clinic */\n      dup6\n        /* \"contracts/HealthRecords.sol\":3350:3592  Doctor({... */\n      dup2\n      mstore\n      0x20\n      add\n        /* \"contracts/HealthRecords.sol\":3471:3480  _timezone */\n      dup5\n        /* \"contracts/HealthRecords.sol\":3350:3592  Doctor({... */\n      dup2\n      mstore\n      0x20\n      add\n        /* \"contracts/HealthRecords.sol\":3514:3532  _workingHoursStart */\n      dup4\n        /* \"contracts/HealthRecords.sol\":3350:3592  Doctor({... */\n      dup2\n      mstore\n      0x20\n      add\n        /* \"contracts/HealthRecords.sol\":3564:3580  _workingHoursEnd */\n      dup3\n        /* \"contracts/HealthRecords.sol\":3350:3592  Doctor({... */\n      dup2\n      mstore\n      pop\n        /* \"contracts/HealthRecords.sol\":3331:3338  doctors */\n      0x01\n        /* \"contracts/HealthRecords.sol\":3331:3347  doctors[_doctor] */\n      0x00\n        /* \"contracts/HealthRecords.sol\":3339:3346  _doctor */\n      dup9\n        /* \"contracts/HealthRecords.sol\":3331:3347  doctors[_doctor] */\n      0xffffffffffffffffffffffffffffffffffffffff\n      and\n      0xffffffffffffffffffffffffffffffffffffffff\n      and\n      dup2\n      mstore\n      0x20\n      add\n      swap1\n      dup2\n      mstore\n      0x20\n      add\n      0x00\n      keccak256\n        /* \"contracts/HealthRecords.sol\":3331:3592  doctors[_doctor] = Doctor({... */\n      0x00\n      dup3\n      add\n      mload\n      dup2\n      0x00\n      add\n      exp(0x0100, 0x00)\n      dup2\n      sload\n      dup2\n      0xff\n      mul\n      not\n      and\n      swap1\n      dup4\n      iszero\n      iszero\n      mul\n      or\n      swap1\n      sstore\n      pop\n      0x20\n      dup3\n      add\n      mload\n      dup2\n      0x01\n      add\n      swap1\n      dup2\n      tag_129\n      swap2\n      swap1\n      tag_130\n      jump\t// in\n    tag_129:\n      pop\n      0x40\n      dup3\n      add\n      mload\n      dup2\n      0x02\n      add\n      swap1\n      dup2\n      tag_131\n      swap2\n      swap1\n      tag_130\n      jump\t// in\n    tag_131:\n      pop\n      0x60\n      dup3\n      add\n      mload\n      dup2\n      0x03\n      add\n      swap1\n      dup2\n      tag_132\n      swap2\n      swap1\n      tag_130\n      jump\t// in\n    tag_132:\n      pop\n      0x80\n      dup3\n      add\n      mload\n      dup2\n      0x04\n      add\n      swap1\n      dup2\n      tag_133\n      swap2\n      swap1\n      tag_130\n      jump\t// in\n    tag_133:\n      pop\n      0xa0\n      dup3\n      add\n      mload\n      dup2\n      0x05\n      add\n      swap1\n      dup2\n      tag_134\n      swap2\n      swap1\n      tag_130\n      jump\t// in\n    tag_134:\n      pop\n      swap1\n      pop\n      pop\n        /* \"contracts/HealthRecords.sol\":3622:3629  _doctor */\n      dup6\n        /* \"contracts/HealthRecords.sol\":3610:3646  DoctorAdded(_doctor, _name, _clinic) */\n      0xffffffffffffffffffffffffffffffffffffffff\n      and\n      0x9388661dcd7dc6cff9b4e22ab9459ac0a2682f86cb52fc7a669a6e7f062bce4c\n        /* \"contracts/HealthRecords.sol\":3631:3636  _name */\n      dup7\n        /* \"contracts/HealthRecords.sol\":3638:3645  _clinic */\n      dup7\n        /* \"contracts/HealthRecords.sol\":3610:3646  DoctorAdded(_doctor, _name, _clinic) */\n      mload(0x40)\n      tag_135\n      swap3\n      swap2\n      swap1\n      tag_136\n      jump\t// in\n    tag_135:\n      mload(0x40)\n      dup1\n      swap2\n      sub\n      swap1\n      log2\n        /* \"contracts/HealthRecords.sol\":2889:3654  function addDoctor(... */\n      pop\n      pop\n      pop\n      pop\n      pop\n      pop\n      jump\t// out\n        /* \"contracts/HealthRecords.sol\":4268:4614  function getPatientProfile(address _patient) public view returns (string memory name, string memory bloodType, string memory phone, string memory email) {... */\n    tag_36:\n        /* \"contracts/HealthRecords.sol\":4334:4352  string memory name */\n      0x60\n        /* \"contracts/HealthRecords.sol\":4354:4377  string memory bloodType */\n      dup1\n        /* \"contracts/HealthRecords.sol\":4379:4398  string memory phone */\n      0x60\n        /* \"contracts/HealthRecords.sol\":4400:4419  string memory email */\n      dup1\n        /* \"contracts/HealthRecords.sol\":4440:4448  patients */\n      0x00\n        /* \"contracts/HealthRecords.sol\":4440:4458  patients[_patient] */\n      dup1\n        /* \"contracts/HealthRecords.sol\":4449:4457  _patient */\n      dup7\n        /* \"contracts/HealthRecords.sol\":4440:4458  patients[_patient] */\n      0xffffffffffffffffffffffffffffffffffffffff\n      and\n      0xffffffffffffffffffffffffffffffffffffffff\n      and\n      dup2\n      mstore\n      0x20\n      add\n      swap1\n      dup2\n      mstore\n      0x20\n      add\n      0x00\n      keccak256\n        /* \"contracts/HealthRecords.sol\":4440:4471  patients[_patient].isRegistered */\n      0x00\n      add\n      0x00\n      swap1\n      sload\n      swap1\n      0x0100\n      exp\n      swap1\n      div\n      0xff\n      and\n        /* \"contracts/HealthRecords.sol\":4432:4501  require(patients[_patient].isRegistered, \"Not a registered patient.\") */\n      tag_138\n      jumpi\n      mload(0x40)\n      0x08c379a000000000000000000000000000000000000000000000000000000000\n      dup2\n      mstore\n      0x04\n      add\n      tag_139\n      swap1\n      tag_140\n      jump\t// in\n    tag_139:\n      mload(0x40)\n      dup1\n      swap2\n      sub\n      swap1\n      revert\n    tag_138:\n        /* \"contracts/HealthRecords.sol\":4512:4528  Patient memory p */\n      0x00\n        /* \"contracts/HealthRecords.sol\":4531:4539  patients */\n      dup1\n        /* \"contracts/HealthRecords.sol\":4531:4549  patients[_patient] */\n      0x00\n        /* \"contracts/HealthRecords.sol\":4540:4548  _patient */\n      dup8\n        /* \"contracts/HealthRecords.sol\":4531:4549  patients[_patient] */\n      0xffffffffffffffffffffffffffffffffffffffff\n      and\n      0xffffffffffffffffffffffffffffffffffffffff\n      and\n      dup2\n      mstore\n      0x20\n      add\n      swap1\n      dup2\n      mstore\n      0x20\n      add\n      0x00\n      keccak256\n        /* \"contracts/HealthRecords.sol\":4512:4549  Patient memory p = patients[_patient] */\n      mload(0x40)\n      dup1\n      0xa0\n      add\n      0x40\n      mstore\n      swap1\n      dup2\n      0x00\n      dup3\n      add\n      0x00\n      swap1\n      sload\n      swap1\n      0x0100\n      exp\n      swap1\n      div\n      0xff\n      and\n      iszero\n      iszero\n      iszero\n      iszero\n      dup2\n      mstore\n      0x20\n      add\n      0x01\n      dup3\n      add\n      dup1\n      sload\n      tag_141\n      swap1\n      tag_98\n      jump\t// in\n    tag_141:\n      dup1\n      0x1f\n      add\n      0x20\n      dup1\n      swap2\n      div\n      mul\n      0x20\n      add\n      mload(0x40)\n      swap1\n      dup2\n      add\n      0x40\n      mstore\n      dup1\n      swap3\n      swap2\n      swap1\n      dup2\n      dup2\n      mstore\n      0x20\n      add\n      dup3\n      dup1\n      sload\n      tag_142\n      swap1\n      tag_98\n      jump\t// in\n    tag_142:\n      dup1\n      iszero\n      tag_143\n      jumpi\n      dup1\n      0x1f\n      lt\n      tag_144\n      jumpi\n      0x0100\n      dup1\n      dup4\n      sload\n      div\n      mul\n      dup4\n      mstore\n      swap2\n      0x20\n      add\n      swap2\n      jump(tag_143)\n    tag_144:\n      dup3\n      add\n      swap2\n      swap1\n      0x00\n      mstore\n      keccak256(0x00, 0x20)\n      swap1\n    tag_145:\n      dup2\n      sload\n      dup2\n      mstore\n      swap1\n      0x01\n      add\n      swap1\n      0x20\n      add\n      dup1\n      dup4\n      gt\n      tag_145\n      jumpi\n      dup3\n      swap1\n      sub\n      0x1f\n      and\n      dup3\n      add\n      swap2\n    tag_143:\n      pop\n      pop\n      pop\n      pop\n      pop\n      dup2\n      mstore\n      0x20\n      add\n      0x02\n      dup3\n      add\n      dup1\n      sload\n      tag_146\n      swap1\n      tag_98\n      jump\t// in\n    tag_146:\n      dup1\n      0x1f\n      add\n      0x20\n      dup1\n      swap2\n      div\n      mul\n      0x20\n      add\n      mload(0x40)\n      swap1\n      dup2\n      add\n      0x40\n      mstore\n      dup1\n      swap3\n      swap2\n      swap1\n      dup2\n      dup2\n      mstore\n      0x20\n      add\n      dup3\n      dup1\n      sload\n      tag_147\n      swap1\n      tag_98\n      jump\t// in\n    tag_147:\n      dup1\n      iszero\n      tag_148\n      jumpi\n      dup1\n      0x1f\n      lt\n      tag_149\n      jumpi\n      0x0100\n      dup1\n      dup4\n      sload\n      div\n      mul\n      dup4\n      mstore\n      swap2\n      0x20\n      add\n      swap2\n      jump(tag_148)\n    tag_149:\n      dup3\n      add\n      swap2\n      swap1\n      0x00\n      mstore\n      keccak256(0x00, 0x20)\n      swap1\n    tag_150:\n      dup2\n      sload\n      dup2\n      mstore\n      swap1\n      0x01\n      add\n      swap1\n      0x20\n      add\n      dup1\n      dup4\n      gt\n      tag_150\n      jumpi\n      dup3\n      swap1\n      sub\n      0x1f\n      and\n      dup3\n      add\n      swap2\n    tag_148:\n      pop\n      pop\n      pop\n      pop\n      pop\n      dup2\n      mstore\n      0x20\n      add\n      0x03\n      dup3\n      add\n      dup1\n      sload\n      tag_151\n      swap1\n      tag_98\n      jump\t// in\n    tag_151:\n      dup1\n      0x1f\n      add\n      0x20\n      dup1\n      swap2\n      div\n      mul\n      0x20\n      add\n      mload(0x40)\n      swap1\n      dup2\n      add\n      0x40\n      mstore\n      dup1\n      swap3\n      swap2\n      swap1\n      dup2\n      dup2\n      mstore\n      0x20\n      add\n      dup3\n      dup1\n      sload\n      tag_152\n      swap1\n      tag_98\n      jump\t// in\n    tag_152:\n      dup1\n      iszero\n      tag_153\n      jumpi\n      dup1\n      0x1f\n      lt\n      tag_154\n      jumpi\n      0x0100\n      dup1\n      dup4\n      sload\n      div\n      mul\n      dup4\n      mstore\n      swap2\n      0x20\n      add\n      swap2\n      jump(tag_153)\n    tag_154:\n      dup3\n      add\n      swap2\n      swap1\n      0x00\n      mstore\n      keccak256(0x00, 0x20)\n      swap1\n    tag_155:\n      dup2\n      sload\n      dup2\n      mstore\n      swap1\n      0x01\n      add\n      swap1\n      0x20\n      add\n      dup1\n      dup4\n      gt\n      tag_155\n      jumpi\n      dup3\n      swap1\n      sub\n      0x1f\n      and\n      dup3\n      add\n      swap2\n    tag_153:\n      pop\n      pop\n      pop\n      pop\n      pop\n      dup2\n      mstore\n      0x20\n      add\n      0x04\n      dup3\n      add\n      dup1\n      sload\n      tag_156\n      swap1\n      tag_98\n      jump\t// in\n    tag_156:\n      dup1\n      0x1f\n      add\n      0x20\n      dup1\n      swap2\n      div\n      mul\n      0x20\n      add\n      mload(0x40)\n      swap1\n      dup2\n      add\n      0x40\n      mstore\n      dup1\n      swap3\n      swap2\n      swap1\n      dup2\n      dup2\n      mstore\n      0x20\n      add\n      dup3\n      dup1\n      sload\n      tag_157\n      swap1\n      tag_98\n      jump\t// in\n    tag_157:\n      dup1\n      iszero\n      tag_158\n      jumpi\n      dup1\n      0x1f\n      lt\n      tag_159\n      jumpi\n      0x0100\n      dup1\n      dup4\n      sload\n      div\n      mul\n      dup4\n      mstore\n      swap2\n      0x20\n      add\n      swap2\n      jump(tag_158)\n    tag_159:\n      dup3\n      add\n      swap2\n      swap1\n      0x00\n      mstore\n      keccak256(0x00, 0x20)\n      swap1\n    tag_160:\n      dup2\n      sload\n      dup2\n      mstore\n      swap1\n      0x01\n      add\n      swap1\n      0x20\n      add\n      dup1\n      dup4\n      gt\n      tag_160\n      jumpi\n      dup3\n      swap1\n      sub\n      0x1f\n      and\n      dup3\n      add\n      swap2\n    tag_158:\n      pop\n      pop\n      pop\n      pop\n      pop\n      dup2\n      mstore\n      pop\n      pop\n      swap1\n      pop\n        /* \"contracts/HealthRecords.sol\":4568:4569  p */\n      dup1\n        /* \"contracts/HealthRecords.sol\":4568:4574  p.name */\n      0x20\n      add\n      mload\n        /* \"contracts/HealthRecords.sol\":4576:4577  p */\n      dup2\n        /* \"contracts/HealthRecords.sol\":4576:4587  p.bloodType */\n      0x40\n      add\n      mload\n        /* \"contracts/HealthRecords.sol\":4589:4590  p */\n      dup3\n        /* \"contracts/HealthRecords.sol\":4589:4596  p.phone */\n      0x60\n      add\n      mload\n        /* \"contracts/HealthRecords.sol\":4598:4599  p */\n      dup4\n        /* \"contracts/HealthRecords.sol\":4598:4605  p.email */\n      0x80\n      add\n      mload\n        /* \"contracts/HealthRecords.sol\":4560:4606  return (p.name, p.bloodType, p.phone, p.email) */\n      swap5\n      pop\n      swap5\n      pop\n      swap5\n      pop\n      swap5\n      pop\n      pop\n        /* \"contracts/HealthRecords.sol\":4268:4614  function getPatientProfile(address _patient) public view returns (string memory name, string memory bloodType, string memory phone, string memory email) {... */\n      swap2\n      swap4\n      pop\n      swap2\n      swap4\n      jump\t// out\n        /* \"contracts/HealthRecords.sol\":2300:2881  function registerPatient(string memory _name, string memory _bloodType, string memory _phone, string memory _email) public {... */\n    tag_42:\n        /* \"contracts/HealthRecords.sol\":2443:2451  patients */\n      0x00\n        /* \"contracts/HealthRecords.sol\":2443:2463  patients[msg.sender] */\n      dup1\n        /* \"contracts/HealthRecords.sol\":2452:2462  msg.sender */\n      caller\n        /* \"contracts/HealthRecords.sol\":2443:2463  patients[msg.sender] */\n      0xffffffffffffffffffffffffffffffffffffffff\n      and\n      0xffffffffffffffffffffffffffffffffffffffff\n      and\n      dup2\n      mstore\n      0x20\n      add\n      swap1\n      dup2\n      mstore\n      0x20\n      add\n      0x00\n      keccak256\n        /* \"contracts/HealthRecords.sol\":2443:2476  patients[msg.sender].isRegistered */\n      0x00\n      add\n      0x00\n      swap1\n      sload\n      swap1\n      0x0100\n      exp\n      swap1\n      div\n      0xff\n      and\n        /* \"contracts/HealthRecords.sol\":2442:2476  !patients[msg.sender].isRegistered */\n      iszero\n        /* \"contracts/HealthRecords.sol\":2434:2513  require(!patients[msg.sender].isRegistered, \"Already registered as a patient.\") */\n      tag_162\n      jumpi\n      mload(0x40)\n      0x08c379a000000000000000000000000000000000000000000000000000000000\n      dup2\n      mstore\n      0x04\n      add\n      tag_163\n      swap1\n      tag_164\n      jump\t// in\n    tag_163:\n      mload(0x40)\n      dup1\n      swap2\n      sub\n      swap1\n      revert\n    tag_162:\n        /* \"contracts/HealthRecords.sol\":2533:2540  doctors */\n      0x01\n        /* \"contracts/HealthRecords.sol\":2533:2552  doctors[msg.sender] */\n      0x00\n        /* \"contracts/HealthRecords.sol\":2541:2551  msg.sender */\n      caller\n        /* \"contracts/HealthRecords.sol\":2533:2552  doctors[msg.sender] */\n      0xffffffffffffffffffffffffffffffffffffffff\n      and\n      0xffffffffffffffffffffffffffffffffffffffff\n      and\n      dup2\n      mstore\n      0x20\n      add\n      swap1\n      dup2\n      mstore\n      0x20\n      add\n      0x00\n      keccak256\n        /* \"contracts/HealthRecords.sol\":2533:2565  doctors[msg.sender].isRegistered */\n      0x00\n      add\n      0x00\n      swap1\n      sload\n      swap1\n      0x0100\n      exp\n      swap1\n      div\n      0xff\n      and\n        /* \"contracts/HealthRecords.sol\":2532:2565  !doctors[msg.sender].isRegistered */\n      iszero\n        /* \"contracts/HealthRecords.sol\":2524:2606  require(!doctors[msg.sender].isRegistered, \"Doctors cannot register as patients.\") */\n      tag_165\n      jumpi\n      mload(0x40)\n      0x08c379a000000000000000000000000000000000000000000000000000000000\n      dup2\n      mstore\n      0x04\n      add\n      tag_166\n      swap1\n      tag_167\n      jump\t// in\n    tag_166:\n      mload(0x40)\n      dup1\n      swap2\n      sub\n      swap1\n      revert\n    tag_165:\n        /* \"contracts/HealthRecords.sol\":2650:2821  Patient({... */\n      mload(0x40)\n      dup1\n      0xa0\n      add\n      0x40\n      mstore\n      dup1\n        /* \"contracts/HealthRecords.sol\":2687:2691  true */\n      0x01\n        /* \"contracts/HealthRecords.sol\":2650:2821  Patient({... */\n      iszero\n      iszero\n      dup2\n      mstore\n      0x20\n      add\n        /* \"contracts/HealthRecords.sol\":2712:2717  _name */\n      dup6\n        /* \"contracts/HealthRecords.sol\":2650:2821  Patient({... */\n      dup2\n      mstore\n      0x20\n      add\n        /* \"contracts/HealthRecords.sol\":2743:2753  _bloodType */\n      dup5\n        /* \"contracts/HealthRecords.sol\":2650:2821  Patient({... */\n      dup2\n      mstore\n      0x20\n      add\n        /* \"contracts/HealthRecords.sol\":2775:2781  _phone */\n      dup4\n        /* \"contracts/HealthRecords.sol\":2650:2821  Patient({... */\n      dup2\n      mstore\n      0x20\n      add\n        /* \"contracts/HealthRecords.sol\":2803:2809  _email */\n      dup3\n        /* \"contracts/HealthRecords.sol\":2650:2821  Patient({... */\n      dup2\n      mstore\n      pop\n        /* \"contracts/HealthRecords.sol\":2627:2635  patients */\n      0x00\n        /* \"contracts/HealthRecords.sol\":2627:2647  patients[msg.sender] */\n      dup1\n        /* \"contracts/HealthRecords.sol\":2636:2646  msg.sender */\n      caller\n        /* \"contracts/HealthRecords.sol\":2627:2647  patients[msg.sender] */\n      0xffffffffffffffffffffffffffffffffffffffff\n      and\n      0xffffffffffffffffffffffffffffffffffffffff\n      and\n      dup2\n      mstore\n      0x20\n      add\n      swap1\n      dup2\n      mstore\n      0x20\n      add\n      0x00\n      keccak256\n        /* \"contracts/HealthRecords.sol\":2627:2821  patients[msg.sender] = Patient({... */\n      0x00\n      dup3\n      add\n      mload\n      dup2\n      0x00\n      add\n      exp(0x0100, 0x00)\n      dup2\n      sload\n      dup2\n      0xff\n      mul\n      not\n      and\n      swap1\n      dup4\n      iszero\n      iszero\n      mul\n      or\n      swap1\n      sstore\n      pop\n      0x20\n      dup3\n      add\n      mload\n      dup2\n      0x01\n      add\n      swap1\n      dup2\n      tag_168\n      swap2\n      swap1\n      tag_130\n      jump\t// in\n    tag_168:\n      pop\n      0x40\n      dup3\n      add\n      mload\n      dup2\n      0x02\n      add\n      swap1\n      dup2\n      tag_169\n      swap2\n      swap1\n      tag_130\n      jump\t// in\n    tag_169:\n      pop\n      0x60\n      dup3\n      add\n      mload\n      dup2\n      0x03\n      add\n      swap1\n      dup2\n      tag_170\n      swap2\n      swap1\n      tag_130\n      jump\t// in\n    tag_170:\n      pop\n      0x80\n      dup3\n      add\n      mload\n      dup2\n      0x04\n      add\n      swap1\n      dup2\n      tag_171\n      swap2\n      swap1\n      tag_130\n      jump\t// in\n    tag_171:\n      pop\n      swap1\n      pop\n      pop\n        /* \"contracts/HealthRecords.sol\":2855:2865  msg.sender */\n      caller\n        /* \"contracts/HealthRecords.sol\":2837:2873  PatientRegistered(msg.sender, _name) */\n      0xffffffffffffffffffffffffffffffffffffffff\n      and\n      0xc85b128388b9c331a2a5485dce4cd0f3db9f7c279d327ce95d6d39d6c94644c7\n        /* \"contracts/HealthRecords.sol\":2867:2872  _name */\n      dup6\n        /* \"contracts/HealthRecords.sol\":2837:2873  PatientRegistered(msg.sender, _name) */\n      mload(0x40)\n      tag_172\n      swap2\n      swap1\n      tag_53\n      jump\t// in\n    tag_172:\n      mload(0x40)\n      dup1\n      swap2\n      sub\n      swap1\n      log2\n        /* \"contracts/HealthRecords.sol\":2300:2881  function registerPatient(string memory _name, string memory _bloodType, string memory _phone, string memory _email) public {... */\n      pop\n      pop\n      pop\n      pop\n      jump\t// out\n        /* \"contracts/HealthRecords.sol\":749:815  mapping(address => mapping(address => bool)) public pendingConsent */\n    tag_46:\n      mstore(0x20, 0x03)\n      dup2\n      0x00\n      mstore\n      mstore(0x20, keccak256(0x00, 0x40))\n      dup1\n      0x00\n      mstore\n      keccak256(0x00, 0x40)\n      0x00\n      swap2\n      pop\n      swap2\n      pop\n      swap1\n      sload\n      swap1\n      0x0100\n      exp\n      swap1\n      div\n      0xff\n      and\n      dup2\n      jump\t// out\n        /* \"contracts/HealthRecords.sol\":4051:4260  function getDoctorProfile(address _doctor) public view returns (string memory name) {... */\n    tag_51:\n        /* \"contracts/HealthRecords.sol\":4115:4133  string memory name */\n      0x60\n        /* \"contracts/HealthRecords.sol\":4154:4161  doctors */\n      0x01\n        /* \"contracts/HealthRecords.sol\":4154:4170  doctors[_doctor] */\n      0x00\n        /* \"contracts/HealthRecords.sol\":4162:4169  _doctor */\n      dup4\n        /* \"contracts/HealthRecords.sol\":4154:4170  doctors[_doctor] */\n      0xffffffffffffffffffffffffffffffffffffffff\n      and\n      0xffffffffffffffffffffffffffffffffffffffff\n      and\n      dup2\n      mstore\n      0x20\n      add\n      swap1\n      dup2\n      mstore\n      0x20\n      add\n      0x00\n      keccak256\n        /* \"contracts/HealthRecords.sol\":4154:4183  doctors[_doctor].isRegistered */\n      0x00\n      add\n      0x00\n      swap1\n      sload\n      swap1\n      0x0100\n      exp\n      swap1\n      div\n      0xff\n      and\n        /* \"contracts/HealthRecords.sol\":4146:4213  require(doctors[_doctor].isRegistered, \"Not an authorized doctor.\") */\n      tag_174\n      jumpi\n      mload(0x40)\n      0x08c379a000000000000000000000000000000000000000000000000000000000\n      dup2\n      mstore\n      0x04\n      add\n      tag_175\n      swap1\n      tag_176\n      jump\t// in\n    tag_175:\n      mload(0x40)\n      dup1\n      swap2\n      sub\n      swap1\n      revert\n    tag_174:\n        /* \"contracts/HealthRecords.sol\":4231:4238  doctors */\n      0x01\n        /* \"contracts/HealthRecords.sol\":4231:4247  doctors[_doctor] */\n      0x00\n        /* \"contracts/HealthRecords.sol\":4239:4246  _doctor */\n      dup4\n        /* \"contracts/HealthRecords.sol\":4231:4247  doctors[_doctor] */\n      0xffffffffffffffffffffffffffffffffffffffff\n      and\n      0xffffffffffffffffffffffffffffffffffffffff\n      and\n      dup2\n      mstore\n      0x20\n      add\n      swap1\n      dup2\n      mstore\n      0x20\n      add\n      0x00\n      keccak256\n        /* \"contracts/HealthRecords.sol\":4231:4252  doctors[_doctor].name */\n      0x01\n      add\n        /* \"contracts/HealthRecords.sol\":4224:4252  return doctors[_doctor].name */\n      dup1\n      sload\n      tag_177\n      swap1\n      tag_98\n      jump\t// in\n    tag_177:\n      dup1\n      0x1f\n      add\n      0x20\n      dup1\n      swap2\n      div\n      mul\n      0x20\n      add\n      mload(0x40)\n      swap1\n      dup2\n      add\n      0x40\n      mstore\n      dup1\n      swap3\n      swap2\n      swap1\n      dup2\n      dup2\n      mstore\n      0x20\n      add\n      dup3\n      dup1\n      sload\n      tag_178\n      swap1\n      tag_98\n      jump\t// in\n    tag_178:\n      dup1\n      iszero\n      tag_179\n      jumpi\n      dup1\n      0x1f\n      lt\n      tag_180\n      jumpi\n      0x0100\n      dup1\n      dup4\n      sload\n      div\n      mul\n      dup4\n      mstore\n      swap2\n      0x20\n      add\n      swap2\n      jump(tag_179)\n    tag_180:\n      dup3\n      add\n      swap2\n      swap1\n      0x00\n      mstore\n      keccak256(0x00, 0x20)\n      swap1\n    tag_181:\n      dup2\n      sload\n      dup2\n      mstore\n      swap1\n      0x01\n      add\n      swap1\n      0x20\n      add\n      dup1\n      dup4\n      gt\n      tag_181\n      jumpi\n      dup3\n      swap1\n      sub\n      0x1f\n      and\n      dup3\n      add\n      swap2\n    tag_179:\n      pop\n      pop\n      pop\n      pop\n      pop\n      swap1\n      pop\n        /* \"contracts/HealthRecords.sol\":4051:4260  function getDoctorProfile(address _doctor) public view returns (string memory name) {... */\n      swap2\n      swap1\n      pop\n      jump\t// out\n        /* \"contracts/HealthRecords.sol\":5983:6344  function addVisit(address _patient, bytes memory _encryptedData) public onlyDoctor {... */\n    tag_57:\n        /* \"contracts/HealthRecords.sol\":1638:1645  doctors */\n      0x01\n        /* \"contracts/HealthRecords.sol\":1638:1657  doctors[msg.sender] */\n      0x00\n        /* \"contracts/HealthRecords.sol\":1646:1656  msg.sender */\n      caller\n        /* \"contracts/HealthRecords.sol\":1638:1657  doctors[msg.sender] */\n      0xffffffffffffffffffffffffffffffffffffffff\n      and\n      0xffffffffffffffffffffffffffffffffffffffff\n      and\n      dup2\n      mstore\n      0x20\n      add\n      swap1\n      dup2\n      mstore\n      0x20\n      add\n      0x00\n      keccak256\n        /* \"contracts/HealthRecords.sol\":1638:1670  doctors[msg.sender].isRegistered */\n      0x00\n      add\n      0x00\n      swap1\n      sload\n      swap1\n      0x0100\n      exp\n      swap1\n      div\n      0xff\n      and\n        /* \"contracts/HealthRecords.sol\":1630:1709  require(doctors[msg.sender].isRegistered, \"Caller is not an authorized doctor\") */\n      tag_183\n      jumpi\n      mload(0x40)\n      0x08c379a000000000000000000000000000000000000000000000000000000000\n      dup2\n      mstore\n      0x04\n      add\n      tag_184\n      swap1\n      tag_86\n      jump\t// in\n    tag_184:\n      mload(0x40)\n      dup1\n      swap2\n      sub\n      swap1\n      revert\n    tag_183:\n        /* \"contracts/HealthRecords.sol\":6085:6099  patientConsent */\n      0x02\n        /* \"contracts/HealthRecords.sol\":6085:6109  patientConsent[_patient] */\n      0x00\n        /* \"contracts/HealthRecords.sol\":6100:6108  _patient */\n      dup4\n        /* \"contracts/HealthRecords.sol\":6085:6109  patientConsent[_patient] */\n      0xffffffffffffffffffffffffffffffffffffffff\n      and\n      0xffffffffffffffffffffffffffffffffffffffff\n      and\n      dup2\n      mstore\n      0x20\n      add\n      swap1\n      dup2\n      mstore\n      0x20\n      add\n      0x00\n      keccak256\n        /* \"contracts/HealthRecords.sol\":6085:6121  patientConsent[_patient][msg.sender] */\n      0x00\n        /* \"contracts/HealthRecords.sol\":6110:6120  msg.sender */\n      caller\n        /* \"contracts/HealthRecords.sol\":6085:6121  patientConsent[_patient][msg.sender] */\n      0xffffffffffffffffffffffffffffffffffffffff\n      and\n      0xffffffffffffffffffffffffffffffffffffffff\n      and\n      dup2\n      mstore\n      0x20\n      add\n      swap1\n      dup2\n      mstore\n      0x20\n      add\n      0x00\n      keccak256\n      0x00\n      swap1\n      sload\n      swap1\n      0x0100\n      exp\n      swap1\n      div\n      0xff\n      and\n        /* \"contracts/HealthRecords.sol\":6077:6173  require(patientConsent[_patient][msg.sender], \"Patient has not granted consent to this doctor.\") */\n      tag_186\n      jumpi\n      mload(0x40)\n      0x08c379a000000000000000000000000000000000000000000000000000000000\n      dup2\n      mstore\n      0x04\n      add\n      tag_187\n      swap1\n      tag_188\n      jump\t// in\n    tag_187:\n      mload(0x40)\n      dup1\n      swap2\n      sub\n      swap1\n      revert\n    tag_186:\n        /* \"contracts/HealthRecords.sol\":6216:6217  0 */\n      0x00\n        /* \"contracts/HealthRecords.sol\":6192:6206  _encryptedData */\n      dup2\n        /* \"contracts/HealthRecords.sol\":6192:6213  _encryptedData.length */\n      mload\n        /* \"contracts/HealthRecords.sol\":6192:6217  _encryptedData.length > 0 */\n      gt\n        /* \"contracts/HealthRecords.sol\":6184:6253  require(_encryptedData.length > 0, \"Encrypted data cannot be empty.\") */\n      tag_189\n      jumpi\n      mload(0x40)\n      0x08c379a000000000000000000000000000000000000000000000000000000000\n      dup2\n      mstore\n      0x04\n      add\n      tag_190\n      swap1\n      tag_191\n      jump\t// in\n    tag_190:\n      mload(0x40)\n      dup1\n      swap2\n      sub\n      swap1\n      revert\n    tag_189:\n        /* \"contracts/HealthRecords.sol\":6292:6302  msg.sender */\n      caller\n        /* \"contracts/HealthRecords.sol\":6271:6336  VisitAdded(_patient, msg.sender, block.timestamp, _encryptedData) */\n      0xffffffffffffffffffffffffffffffffffffffff\n      and\n        /* \"contracts/HealthRecords.sol\":6282:6290  _patient */\n      dup3\n        /* \"contracts/HealthRecords.sol\":6271:6336  VisitAdded(_patient, msg.sender, block.timestamp, _encryptedData) */\n      0xffffffffffffffffffffffffffffffffffffffff\n      and\n      0x8fed6a2b6c4b373ec8518dd42cb708c88beb55d8806492942025f2d86118bcb7\n        /* \"contracts/HealthRecords.sol\":6304:6319  block.timestamp */\n      timestamp\n        /* \"contracts/HealthRecords.sol\":6321:6335  _encryptedData */\n      dup5\n        /* \"contracts/HealthRecords.sol\":6271:6336  VisitAdded(_patient, msg.sender, block.timestamp, _encryptedData) */\n      mload(0x40)\n      tag_192\n      swap3\n      swap2\n      swap1\n      tag_193\n      jump\t// in\n    tag_192:\n      mload(0x40)\n      dup1\n      swap2\n      sub\n      swap1\n      log3\n        /* \"contracts/HealthRecords.sol\":5983:6344  function addVisit(address _patient, bytes memory _encryptedData) public onlyDoctor {... */\n      pop\n      pop\n      jump\t// out\n        /* \"contracts/HealthRecords.sol\":90:120  address public immutable owner */\n    tag_59:\n      immutable(\"0x2a80e1ef1d7842f27f2e6be0972bb708b9a135c38860dbe73c27c3486c34f4de\")\n      dup2\n      jump\t// out\n        /* \"contracts/HealthRecords.sol\":3662:4008  function removeDoctor(address _doctor) public onlyOwner {... */\n    tag_64:\n        /* \"contracts/HealthRecords.sol\":1525:1530  owner */\n      immutable(\"0x2a80e1ef1d7842f27f2e6be0972bb708b9a135c38860dbe73c27c3486c34f4de\")\n        /* \"contracts/HealthRecords.sol\":1511:1530  msg.sender == owner */\n      0xffffffffffffffffffffffffffffffffffffffff\n      and\n        /* \"contracts/HealthRecords.sol\":1511:1521  msg.sender */\n      caller\n        /* \"contracts/HealthRecords.sol\":1511:1530  msg.sender == owner */\n      0xffffffffffffffffffffffffffffffffffffffff\n      and\n      eq\n        /* \"contracts/HealthRecords.sol\":1503:1569  require(msg.sender == owner, \"Only owner can perform this action\") */\n      tag_195\n      jumpi\n      mload(0x40)\n      0x08c379a000000000000000000000000000000000000000000000000000000000\n      dup2\n      mstore\n      0x04\n      add\n      tag_196\n      swap1\n      tag_121\n      jump\t// in\n    tag_196:\n      mload(0x40)\n      dup1\n      swap2\n      sub\n      swap1\n      revert\n    tag_195:\n        /* \"contracts/HealthRecords.sol\":3737:3744  doctors */\n      0x01\n        /* \"contracts/HealthRecords.sol\":3737:3753  doctors[_doctor] */\n      0x00\n        /* \"contracts/HealthRecords.sol\":3745:3752  _doctor */\n      dup3\n        /* \"contracts/HealthRecords.sol\":3737:3753  doctors[_doctor] */\n      0xffffffffffffffffffffffffffffffffffffffff\n      and\n      0xffffffffffffffffffffffffffffffffffffffff\n      and\n      dup2\n      mstore\n      0x20\n      add\n      swap1\n      dup2\n      mstore\n      0x20\n      add\n      0x00\n      keccak256\n        /* \"contracts/HealthRecords.sol\":3737:3766  doctors[_doctor].isRegistered */\n      0x00\n      add\n      0x00\n      swap1\n      sload\n      swap1\n      0x0100\n      exp\n      swap1\n      div\n      0xff\n      and\n        /* \"contracts/HealthRecords.sol\":3729:3795  require(doctors[_doctor].isRegistered, \"Address is not a doctor.\") */\n      tag_198\n      jumpi\n      mload(0x40)\n      0x08c379a000000000000000000000000000000000000000000000000000000000\n      dup2\n      mstore\n      0x04\n      add\n      tag_199\n      swap1\n      tag_200\n      jump\t// in\n    tag_199:\n      mload(0x40)\n      dup1\n      swap2\n      sub\n      swap1\n      revert\n    tag_198:\n        /* \"contracts/HealthRecords.sol\":3825:3830  owner */\n      immutable(\"0x2a80e1ef1d7842f27f2e6be0972bb708b9a135c38860dbe73c27c3486c34f4de\")\n        /* \"contracts/HealthRecords.sol\":3814:3830  _doctor != owner */\n      0xffffffffffffffffffffffffffffffffffffffff\n      and\n        /* \"contracts/HealthRecords.sol\":3814:3821  _doctor */\n      dup2\n        /* \"contracts/HealthRecords.sol\":3814:3830  _doctor != owner */\n      0xffffffffffffffffffffffffffffffffffffffff\n      and\n      sub\n        /* \"contracts/HealthRecords.sol\":3806:3869  require(_doctor != owner, \"Cannot remove the owner as doctor.\") */\n      tag_201\n      jumpi\n      mload(0x40)\n      0x08c379a000000000000000000000000000000000000000000000000000000000\n      dup2\n      mstore\n      0x04\n      add\n      tag_202\n      swap1\n      tag_203\n      jump\t// in\n    tag_202:\n      mload(0x40)\n      dup1\n      swap2\n      sub\n      swap1\n      revert\n    tag_201:\n        /* \"contracts/HealthRecords.sol\":3912:3917  false */\n      0x00\n        /* \"contracts/HealthRecords.sol\":3880:3887  doctors */\n      0x01\n        /* \"contracts/HealthRecords.sol\":3880:3896  doctors[_doctor] */\n      0x00\n        /* \"contracts/HealthRecords.sol\":3888:3895  _doctor */\n      dup4\n        /* \"contracts/HealthRecords.sol\":3880:3896  doctors[_doctor] */\n      0xffffffffffffffffffffffffffffffffffffffff\n      and\n      0xffffffffffffffffffffffffffffffffffffffff\n      and\n      dup2\n      mstore\n      0x20\n      add\n      swap1\n      dup2\n      mstore\n      0x20\n      add\n      0x00\n      keccak256\n        /* \"contracts/HealthRecords.sol\":3880:3909  doctors[_doctor].isRegistered */\n      0x00\n      add\n      0x00\n        /* \"contracts/HealthRecords.sol\":3880:3917  doctors[_doctor].isRegistered = false */\n      0x0100\n      exp\n      dup2\n      sload\n      dup2\n      0xff\n      mul\n      not\n      and\n      swap1\n      dup4\n      iszero\n      iszero\n      mul\n      or\n      swap1\n      sstore\n      pop\n        /* \"contracts/HealthRecords.sol\":3992:3999  _doctor */\n      dup1\n        /* \"contracts/HealthRecords.sol\":3978:4000  DoctorRemoved(_doctor) */\n      0xffffffffffffffffffffffffffffffffffffffff\n      and\n      0x493d7cf6a7c880406a55654d6727464ea088bd01d40498e1987a327e68961ab8\n      mload(0x40)\n      mload(0x40)\n      dup1\n      swap2\n      sub\n      swap1\n      log2\n        /* \"contracts/HealthRecords.sol\":3662:4008  function removeDoctor(address _doctor) public onlyOwner {... */\n      pop\n      jump\t// out\n        /* \"contracts/HealthRecords.sol\":5476:5761  function refuseConsent(address _doctor) public onlyPatient {... */\n    tag_67:\n        /* \"contracts/HealthRecords.sol\":1779:1787  patients */\n      0x00\n        /* \"contracts/HealthRecords.sol\":1779:1799  patients[msg.sender] */\n      dup1\n        /* \"contracts/HealthRecords.sol\":1788:1798  msg.sender */\n      caller\n        /* \"contracts/HealthRecords.sol\":1779:1799  patients[msg.sender] */\n      0xffffffffffffffffffffffffffffffffffffffff\n      and\n      0xffffffffffffffffffffffffffffffffffffffff\n      and\n      dup2\n      mstore\n      0x20\n      add\n      swap1\n      dup2\n      mstore\n      0x20\n      add\n      0x00\n      keccak256\n        /* \"contracts/HealthRecords.sol\":1779:1812  patients[msg.sender].isRegistered */\n      0x00\n      add\n      0x00\n      swap1\n      sload\n      swap1\n      0x0100\n      exp\n      swap1\n      div\n      0xff\n      and\n        /* \"contracts/HealthRecords.sol\":1771:1851  require(patients[msg.sender].isRegistered, \"Caller is not a registered patient\") */\n      tag_205\n      jumpi\n      mload(0x40)\n      0x08c379a000000000000000000000000000000000000000000000000000000000\n      dup2\n      mstore\n      0x04\n      add\n      tag_206\n      swap1\n      tag_207\n      jump\t// in\n    tag_206:\n      mload(0x40)\n      dup1\n      swap2\n      sub\n      swap1\n      revert\n    tag_205:\n        /* \"contracts/HealthRecords.sol\":5554:5568  pendingConsent */\n      0x03\n        /* \"contracts/HealthRecords.sol\":5554:5580  pendingConsent[msg.sender] */\n      0x00\n        /* \"contracts/HealthRecords.sol\":5569:5579  msg.sender */\n      caller\n        /* \"contracts/HealthRecords.sol\":5554:5580  pendingConsent[msg.sender] */\n      0xffffffffffffffffffffffffffffffffffffffff\n      and\n      0xffffffffffffffffffffffffffffffffffffffff\n      and\n      dup2\n      mstore\n      0x20\n      add\n      swap1\n      dup2\n      mstore\n      0x20\n      add\n      0x00\n      keccak256\n        /* \"contracts/HealthRecords.sol\":5554:5589  pendingConsent[msg.sender][_doctor] */\n      0x00\n        /* \"contracts/HealthRecords.sol\":5581:5588  _doctor */\n      dup3\n        /* \"contracts/HealthRecords.sol\":5554:5589  pendingConsent[msg.sender][_doctor] */\n      0xffffffffffffffffffffffffffffffffffffffff\n      and\n      0xffffffffffffffffffffffffffffffffffffffff\n      and\n      dup2\n      mstore\n      0x20\n      add\n      swap1\n      dup2\n      mstore\n      0x20\n      add\n      0x00\n      keccak256\n      0x00\n      swap1\n      sload\n      swap1\n      0x0100\n      exp\n      swap1\n      div\n      0xff\n      and\n        /* \"contracts/HealthRecords.sol\":5546:5638  require(pendingConsent[msg.sender][_doctor], \"No pending consent request from this doctor.\") */\n      tag_209\n      jumpi\n      mload(0x40)\n      0x08c379a000000000000000000000000000000000000000000000000000000000\n      dup2\n      mstore\n      0x04\n      add\n      tag_210\n      swap1\n      tag_211\n      jump\t// in\n    tag_210:\n      mload(0x40)\n      dup1\n      swap2\n      sub\n      swap1\n      revert\n    tag_209:\n        /* \"contracts/HealthRecords.sol\":5697:5702  false */\n      0x00\n        /* \"contracts/HealthRecords.sol\":5659:5673  pendingConsent */\n      0x03\n        /* \"contracts/HealthRecords.sol\":5659:5685  pendingConsent[msg.sender] */\n      0x00\n        /* \"contracts/HealthRecords.sol\":5674:5684  msg.sender */\n      caller\n        /* \"contracts/HealthRecords.sol\":5659:5685  pendingConsent[msg.sender] */\n      0xffffffffffffffffffffffffffffffffffffffff\n      and\n      0xffffffffffffffffffffffffffffffffffffffff\n      and\n      dup2\n      mstore\n      0x20\n      add\n      swap1\n      dup2\n      mstore\n      0x20\n      add\n      0x00\n      keccak256\n        /* \"contracts/HealthRecords.sol\":5659:5694  pendingConsent[msg.sender][_doctor] */\n      0x00\n        /* \"contracts/HealthRecords.sol\":5686:5693  _doctor */\n      dup4\n        /* \"contracts/HealthRecords.sol\":5659:5694  pendingConsent[msg.sender][_doctor] */\n      0xffffffffffffffffffffffffffffffffffffffff\n      and\n      0xffffffffffffffffffffffffffffffffffffffff\n      and\n      dup2\n      mstore\n      0x20\n      add\n      swap1\n      dup2\n      mstore\n      0x20\n      add\n      0x00\n      keccak256\n      0x00\n        /* \"contracts/HealthRecords.sol\":5659:5702  pendingConsent[msg.sender][_doctor] = false */\n      0x0100\n      exp\n      dup2\n      sload\n      dup2\n      0xff\n      mul\n      not\n      and\n      swap1\n      dup4\n      iszero\n      iszero\n      mul\n      or\n      swap1\n      sstore\n      pop\n        /* \"contracts/HealthRecords.sol\":5745:5752  _doctor */\n      dup1\n        /* \"contracts/HealthRecords.sol\":5718:5753  ConsentRefused(msg.sender, _doctor) */\n      0xffffffffffffffffffffffffffffffffffffffff\n      and\n        /* \"contracts/HealthRecords.sol\":5733:5743  msg.sender */\n      caller\n        /* \"contracts/HealthRecords.sol\":5718:5753  ConsentRefused(msg.sender, _doctor) */\n      0xffffffffffffffffffffffffffffffffffffffff\n      and\n      0xee666520c6fbc392d1a1e9c8845f759abf986e12b9927e3a452c94ce2c05d1df\n      mload(0x40)\n      mload(0x40)\n      dup1\n      swap2\n      sub\n      swap1\n      log3\n        /* \"contracts/HealthRecords.sol\":5476:5761  function refuseConsent(address _doctor) public onlyPatient {... */\n      pop\n      jump\t// out\n        /* \"contracts/HealthRecords.sol\":5125:5468  function grantConsent(address _doctor) public onlyPatient {... */\n    tag_70:\n        /* \"contracts/HealthRecords.sol\":1779:1787  patients */\n      0x00\n        /* \"contracts/HealthRecords.sol\":1779:1799  patients[msg.sender] */\n      dup1\n        /* \"contracts/HealthRecords.sol\":1788:1798  msg.sender */\n      caller\n        /* \"contracts/HealthRecords.sol\":1779:1799  patients[msg.sender] */\n      0xffffffffffffffffffffffffffffffffffffffff\n      and\n      0xffffffffffffffffffffffffffffffffffffffff\n      and\n      dup2\n      mstore\n      0x20\n      add\n      swap1\n      dup2\n      mstore\n      0x20\n      add\n      0x00\n      keccak256\n        /* \"contracts/HealthRecords.sol\":1779:1812  patients[msg.sender].isRegistered */\n      0x00\n      add\n      0x00\n      swap1\n      sload\n      swap1\n      0x0100\n      exp\n      swap1\n      div\n      0xff\n      and\n        /* \"contracts/HealthRecords.sol\":1771:1851  require(patients[msg.sender].isRegistered, \"Caller is not a registered patient\") */\n      tag_213\n      jumpi\n      mload(0x40)\n      0x08c379a000000000000000000000000000000000000000000000000000000000\n      dup2\n      mstore\n      0x04\n      add\n      tag_214\n      swap1\n      tag_207\n      jump\t// in\n    tag_214:\n      mload(0x40)\n      dup1\n      swap2\n      sub\n      swap1\n      revert\n    tag_213:\n        /* \"contracts/HealthRecords.sol\":5202:5209  doctors */\n      0x01\n        /* \"contracts/HealthRecords.sol\":5202:5218  doctors[_doctor] */\n      0x00\n        /* \"contracts/HealthRecords.sol\":5210:5217  _doctor */\n      dup3\n        /* \"contracts/HealthRecords.sol\":5202:5218  doctors[_doctor] */\n      0xffffffffffffffffffffffffffffffffffffffff\n      and\n      0xffffffffffffffffffffffffffffffffffffffff\n      and\n      dup2\n      mstore\n      0x20\n      add\n      swap1\n      dup2\n      mstore\n      0x20\n      add\n      0x00\n      keccak256\n        /* \"contracts/HealthRecords.sol\":5202:5231  doctors[_doctor].isRegistered */\n      0x00\n      add\n      0x00\n      swap1\n      sload\n      swap1\n      0x0100\n      exp\n      swap1\n      div\n      0xff\n      and\n        /* \"contracts/HealthRecords.sol\":5194:5272  require(doctors[_doctor].isRegistered, \"Address is not an authorized doctor.\") */\n      tag_216\n      jumpi\n      mload(0x40)\n      0x08c379a000000000000000000000000000000000000000000000000000000000\n      dup2\n      mstore\n      0x04\n      add\n      tag_217\n      swap1\n      tag_218\n      jump\t// in\n    tag_217:\n      mload(0x40)\n      dup1\n      swap2\n      sub\n      swap1\n      revert\n    tag_216:\n        /* \"contracts/HealthRecords.sol\":5331:5336  false */\n      0x00\n        /* \"contracts/HealthRecords.sol\":5293:5307  pendingConsent */\n      0x03\n        /* \"contracts/HealthRecords.sol\":5293:5319  pendingConsent[msg.sender] */\n      0x00\n        /* \"contracts/HealthRecords.sol\":5308:5318  msg.sender */\n      caller\n        /* \"contracts/HealthRecords.sol\":5293:5319  pendingConsent[msg.sender] */\n      0xffffffffffffffffffffffffffffffffffffffff\n      and\n      0xffffffffffffffffffffffffffffffffffffffff\n      and\n      dup2\n      mstore\n      0x20\n      add\n      swap1\n      dup2\n      mstore\n      0x20\n      add\n      0x00\n      keccak256\n        /* \"contracts/HealthRecords.sol\":5293:5328  pendingConsent[msg.sender][_doctor] */\n      0x00\n        /* \"contracts/HealthRecords.sol\":5320:5327  _doctor */\n      dup4\n        /* \"contracts/HealthRecords.sol\":5293:5328  pendingConsent[msg.sender][_doctor] */\n      0xffffffffffffffffffffffffffffffffffffffff\n      and\n      0xffffffffffffffffffffffffffffffffffffffff\n      and\n      dup2\n      mstore\n      0x20\n      add\n      swap1\n      dup2\n      mstore\n      0x20\n      add\n      0x00\n      keccak256\n      0x00\n        /* \"contracts/HealthRecords.sol\":5293:5336  pendingConsent[msg.sender][_doctor] = false */\n      0x0100\n      exp\n      dup2\n      sload\n      dup2\n      0xff\n      mul\n      not\n      and\n      swap1\n      dup4\n      iszero\n      iszero\n      mul\n      or\n      swap1\n      sstore\n      pop\n        /* \"contracts/HealthRecords.sol\":5405:5409  true */\n      0x01\n        /* \"contracts/HealthRecords.sol\":5367:5381  patientConsent */\n      0x02\n        /* \"contracts/HealthRecords.sol\":5367:5393  patientConsent[msg.sender] */\n      0x00\n        /* \"contracts/HealthRecords.sol\":5382:5392  msg.sender */\n      caller\n        /* \"contracts/HealthRecords.sol\":5367:5393  patientConsent[msg.sender] */\n      0xffffffffffffffffffffffffffffffffffffffff\n      and\n      0xffffffffffffffffffffffffffffffffffffffff\n      and\n      dup2\n      mstore\n      0x20\n      add\n      swap1\n      dup2\n      mstore\n      0x20\n      add\n      0x00\n      keccak256\n        /* \"contracts/HealthRecords.sol\":5367:5402  patientConsent[msg.sender][_doctor] */\n      0x00\n        /* \"contracts/HealthRecords.sol\":5394:5401  _doctor */\n      dup4\n        /* \"contracts/HealthRecords.sol\":5367:5402  patientConsent[msg.sender][_doctor] */\n      0xffffffffffffffffffffffffffffffffffffffff\n      and\n      0xffffffffffffffffffffffffffffffffffffffff\n      and\n      dup2\n      mstore\n      0x20\n      add\n      swap1\n      dup2\n      mstore\n      0x20\n      add\n      0x00\n      keccak256\n      0x00\n        /* \"contracts/HealthRecords.sol\":5367:5409  patientConsent[msg.sender][_doctor] = true */\n      0x0100\n      exp\n      dup2\n      sload\n      dup2\n      0xff\n      mul\n      not\n      and\n      swap1\n      dup4\n      iszero\n      iszero\n      mul\n      or\n      swap1\n      sstore\n      pop\n        /* \"contracts/HealthRecords.sol\":5452:5459  _doctor */\n      dup1\n        /* \"contracts/HealthRecords.sol\":5425:5460  ConsentGranted(msg.sender, _doctor) */\n      0xffffffffffffffffffffffffffffffffffffffff\n      and\n        /* \"contracts/HealthRecords.sol\":5440:5450  msg.sender */\n      caller\n        /* \"contracts/HealthRecords.sol\":5425:5460  ConsentGranted(msg.sender, _doctor) */\n      0xffffffffffffffffffffffffffffffffffffffff\n      and\n      0x8105c574d2239a3a4f73f5efc5bc253cffb275647df535adfa2c240739cc9220\n      mload(0x40)\n      mload(0x40)\n      dup1\n      swap2\n      sub\n      swap1\n      log3\n        /* \"contracts/HealthRecords.sol\":5125:5468  function grantConsent(address _doctor) public onlyPatient {... */\n      pop\n      jump\t// out\n        /* \"contracts/HealthRecords.sol\":555:596  mapping(address => Doctor) public doctors */\n    tag_73:\n      mstore(0x20, 0x01)\n      dup1\n      0x00\n      mstore\n      keccak256(0x00, 0x40)\n      0x00\n      swap2\n      pop\n      swap1\n      pop\n      dup1\n      0x00\n      add\n      0x00\n      swap1\n      sload\n      swap1\n      0x0100\n      exp\n      swap1\n      div\n      0xff\n      and\n      swap1\n      dup1\n      0x01\n      add\n      dup1\n      sload\n      tag_219\n      swap1\n      tag_98\n      jump\t// in\n    tag_219:\n      dup1\n      0x1f\n      add\n      0x20\n      dup1\n      swap2\n      div\n      mul\n      0x20\n      add\n      mload(0x40)\n      swap1\n      dup2\n      add\n      0x40\n      mstore\n      dup1\n      swap3\n      swap2\n      swap1\n      dup2\n      dup2\n      mstore\n      0x20\n      add\n      dup3\n      dup1\n      sload\n      tag_220\n      swap1\n      tag_98\n      jump\t// in\n    tag_220:\n      dup1\n      iszero\n      tag_221\n      jumpi\n      dup1\n      0x1f\n      lt\n      tag_222\n      jumpi\n      0x0100\n      dup1\n      dup4\n      sload\n      div\n      mul\n      dup4\n      mstore\n      swap2\n      0x20\n      add\n      swap2\n      jump(tag_221)\n    tag_222:\n      dup3\n      add\n      swap2\n      swap1\n      0x00\n      mstore\n      keccak256(0x00, 0x20)\n      swap1\n    tag_223:\n      dup2\n      sload\n      dup2\n      mstore\n      swap1\n      0x01\n      add\n      swap1\n      0x20\n      add\n      dup1\n      dup4\n      gt\n      tag_223\n      jumpi\n      dup3\n      swap1\n      sub\n      0x1f\n      and\n      dup3\n      add\n      swap2\n    tag_221:\n      pop\n      pop\n      pop\n      pop\n      pop\n      swap1\n      dup1\n      0x02\n      add\n      dup1\n      sload\n      tag_224\n      swap1\n      tag_98\n      jump\t// in\n    tag_224:\n      dup1\n      0x1f\n      add\n      0x20\n      dup1\n      swap2\n      div\n      mul\n      0x20\n      add\n      mload(0x40)\n      swap1\n      dup2\n      add\n      0x40\n      mstore\n      dup1\n      swap3\n      swap2\n      swap1\n      dup2\n      dup2\n      mstore\n      0x20\n      add\n      dup3\n      dup1\n      sload\n      tag_225\n      swap1\n      tag_98\n      jump\t// in\n    tag_225:\n      dup1\n      iszero\n      tag_226\n      jumpi\n      dup1\n      0x1f\n      lt\n      tag_227\n      jumpi\n      0x0100\n      dup1\n      dup4\n      sload\n      div\n      mul\n      dup4\n      mstore\n      swap2\n      0x20\n      add\n      swap2\n      jump(tag_226)\n    tag_227:\n      dup3\n      add\n      swap2\n      swap1\n      0x00\n      mstore\n      keccak256(0x00, 0x20)\n      swap1\n    tag_228:\n      dup2\n      sload\n      dup2\n      mstore\n      swap1\n      0x01\n      add\n      swap1\n      0x20\n      add\n      dup1\n      dup4\n      gt\n      tag_228\n      jumpi\n      dup3\n      swap1\n      sub\n      0x1f\n      and\n      dup3\n      add\n      swap2\n    tag_226:\n      pop\n      pop\n      pop\n      pop\n      pop\n      swap1\n      dup1\n      0x03\n      add\n      dup1\n      sload\n      tag_229\n      swap1\n      tag_98\n      jump\t// in\n    tag_229:\n      dup1\n      0x1f\n      add\n      0x20\n      dup1\n      swap2\n      div\n      mul\n      0x20\n      add\n      mload(0x40)\n      swap1\n      dup2\n      add\n      0x40\n      mstore\n      dup1\n      swap3\n      swap2\n      swap1\n      dup2\n      dup2\n      mstore\n      0x20\n      add\n      dup3\n      dup1\n      sload\n      tag_230\n      swap1\n      tag_98\n      jump\t// in\n    tag_230:\n      dup1\n      iszero\n      tag_231\n      jumpi\n      dup1\n      0x1f\n      lt\n      tag_232\n      jumpi\n      0x0100\n      dup1\n      dup4\n      sload\n      div\n      mul\n      dup4\n      mstore\n      swap2\n      0x20\n      add\n      swap2\n      jump(tag_231)\n    tag_232:\n      dup3\n      add\n      swap2\n      swap1\n      0x00\n      mstore\n      keccak256(0x00, 0x20)\n      swap1\n    tag_233:\n      dup2\n      sload\n      dup2\n      mstore\n      swap1\n      0x01\n      add\n      swap1\n      0x20\n      add\n      dup1\n      dup4\n      gt\n      tag_233\n      jumpi\n      dup3\n      swap1\n      sub\n      0x1f\n      and\n      dup3\n      add\n      swap2\n    tag_231:\n      pop\n      pop\n      pop\n      pop\n      pop\n      swap1\n      dup1\n      0x04\n      add\n      dup1\n      sload\n      tag_234\n      swap1\n      tag_98\n      jump\t// in\n    tag_234:\n      dup1\n      0x1f\n      add\n      0x20\n      dup1\n      swap2\n      div\n      mul\n      0x20\n      add\n      mload(0x40)\n      swap1\n      dup2\n      add\n      0x40\n      mstore\n      dup1\n      swap3\n      swap2\n      swap1\n      dup2\n      dup2\n      mstore\n      0x20\n      add\n      dup3\n      dup1\n      sload\n      tag_235\n      swap1\n      tag_98\n      jump\t// in\n    tag_235:\n      dup1\n      iszero\n      tag_236\n      jumpi\n      dup1\n      0x1f\n      lt\n      tag_237\n      jumpi\n      0x0100\n      dup1\n      dup4\n      sload\n      div\n      mul\n      dup4\n      mstore\n      swap2\n      0x20\n      add\n      swap2\n      jump(tag_236)\n    tag_237:\n      dup3\n      add\n      swap2\n      swap1\n      0x00\n      mstore\n      keccak256(0x00, 0x20)\n      swap1\n    tag_238:\n      dup2\n      sload\n      dup2\n      mstore\n      swap1\n      0x01\n      add\n      swap1\n      0x20\n      add\n      dup1\n      dup4\n      gt\n      tag_238\n      jumpi\n      dup3\n      swap1\n      sub\n      0x1f\n      and\n      dup3\n      add\n      swap2\n    tag_236:\n      pop\n      pop\n      pop\n      pop\n      pop\n      swap1\n      dup1\n      0x05\n      add\n      dup1\n      sload\n      tag_239\n      swap1\n      tag_98\n      jump\t// in\n    tag_239:\n      dup1\n      0x1f\n      add\n      0x20\n      dup1\n      swap2\n      div\n      mul\n      0x20\n      add\n      mload(0x40)\n      swap1\n      dup2\n      add\n      0x40\n      mstore\n      dup1\n      swap3\n      swap2\n      swap1\n      dup2\n      dup2\n      mstore\n      0x20\n      add\n      dup3\n      dup1\n      sload\n      tag_240\n      swap1\n      tag_98\n      jump\t// in\n    tag_240:\n      dup1\n      iszero\n      tag_241\n      jumpi\n      dup1\n      0x1f\n      lt\n      tag_242\n      jumpi\n      0x0100\n      dup1\n      dup4\n      sload\n      div\n      mul\n      dup4\n      mstore\n      swap2\n      0x20\n      add\n      swap2\n      jump(tag_241)\n    tag_242:\n      dup3\n      add\n      swap2\n      swap1\n      0x00\n      mstore\n      keccak256(0x00, 0x20)\n      swap1\n    tag_243:\n      dup2\n      sload\n      dup2\n      mstore\n      swap1\n      0x01\n      add\n      swap1\n      0x20\n      add\n      dup1\n      dup4\n      gt\n      tag_243\n      jumpi\n      dup3\n      swap1\n      sub\n      0x1f\n      and\n      dup3\n      add\n      swap2\n    tag_241:\n      pop\n      pop\n      pop\n      pop\n      pop\n      swap1\n      pop\n      dup7\n      jump\t// out\n        /* \"contracts/HealthRecords.sol\":5769:5941  function revokeConsent(address _doctor) public onlyPatient {... */\n    tag_78:\n        /* \"contracts/HealthRecords.sol\":1779:1787  patients */\n      0x00\n        /* \"contracts/HealthRecords.sol\":1779:1799  patients[msg.sender] */\n      dup1\n        /* \"contracts/HealthRecords.sol\":1788:1798  msg.sender */\n      caller\n        /* \"contracts/HealthRecords.sol\":1779:1799  patients[msg.sender] */\n      0xffffffffffffffffffffffffffffffffffffffff\n      and\n      0xffffffffffffffffffffffffffffffffffffffff\n      and\n      dup2\n      mstore\n      0x20\n      add\n      swap1\n      dup2\n      mstore\n      0x20\n      add\n      0x00\n      keccak256\n        /* \"contracts/HealthRecords.sol\":1779:1812  patients[msg.sender].isRegistered */\n      0x00\n      add\n      0x00\n      swap1\n      sload\n      swap1\n      0x0100\n      exp\n      swap1\n      div\n      0xff\n      and\n        /* \"contracts/HealthRecords.sol\":1771:1851  require(patients[msg.sender].isRegistered, \"Caller is not a registered patient\") */\n      tag_245\n      jumpi\n      mload(0x40)\n      0x08c379a000000000000000000000000000000000000000000000000000000000\n      dup2\n      mstore\n      0x04\n      add\n      tag_246\n      swap1\n      tag_207\n      jump\t// in\n    tag_246:\n      mload(0x40)\n      dup1\n      swap2\n      sub\n      swap1\n      revert\n    tag_245:\n        /* \"contracts/HealthRecords.sol\":5877:5882  false */\n      0x00\n        /* \"contracts/HealthRecords.sol\":5839:5853  patientConsent */\n      0x02\n        /* \"contracts/HealthRecords.sol\":5839:5865  patientConsent[msg.sender] */\n      0x00\n        /* \"contracts/HealthRecords.sol\":5854:5864  msg.sender */\n      caller\n        /* \"contracts/HealthRecords.sol\":5839:5865  patientConsent[msg.sender] */\n      0xffffffffffffffffffffffffffffffffffffffff\n      and\n      0xffffffffffffffffffffffffffffffffffffffff\n      and\n      dup2\n      mstore\n      0x20\n      add\n      swap1\n      dup2\n      mstore\n      0x20\n      add\n      0x00\n      keccak256\n        /* \"contracts/HealthRecords.sol\":5839:5874  patientConsent[msg.sender][_doctor] */\n      0x00\n        /* \"contracts/HealthRecords.sol\":5866:5873  _doctor */\n      dup4\n        /* \"contracts/HealthRecords.sol\":5839:5874  patientConsent[msg.sender][_doctor] */\n      0xffffffffffffffffffffffffffffffffffffffff\n      and\n      0xffffffffffffffffffffffffffffffffffffffff\n      and\n      dup2\n      mstore\n      0x20\n      add\n      swap1\n      dup2\n      mstore\n      0x20\n      add\n      0x00\n      keccak256\n      0x00\n        /* \"contracts/HealthRecords.sol\":5839:5882  patientConsent[msg.sender][_doctor] = false */\n      0x0100\n      exp\n      dup2\n      sload\n      dup2\n      0xff\n      mul\n      not\n      and\n      swap1\n      dup4\n      iszero\n      iszero\n      mul\n      or\n      swap1\n      sstore\n      pop\n        /* \"contracts/HealthRecords.sol\":5925:5932  _doctor */\n      dup1\n        /* \"contracts/HealthRecords.sol\":5898:5933  ConsentRevoked(msg.sender, _doctor) */\n      0xffffffffffffffffffffffffffffffffffffffff\n      and\n        /* \"contracts/HealthRecords.sol\":5913:5923  msg.sender */\n      caller\n        /* \"contracts/HealthRecords.sol\":5898:5933  ConsentRevoked(msg.sender, _doctor) */\n      0xffffffffffffffffffffffffffffffffffffffff\n      and\n      0xebecee2d3f2ea272f73dd9d9ccc0bacd11280d61240332cbcd8a68173ae5cc2c\n      mload(0x40)\n      mload(0x40)\n      dup1\n      swap2\n      sub\n      swap1\n      log3\n        /* \"contracts/HealthRecords.sol\":5769:5941  function revokeConsent(address _doctor) public onlyPatient {... */\n      pop\n      jump\t// out\n        /* \"contracts/HealthRecords.sol\":676:742  mapping(address => mapping(address => bool)) public patientConsent */\n    tag_81:\n      mstore(0x20, 0x02)\n      dup2\n      0x00\n      mstore\n      mstore(0x20, keccak256(0x00, 0x40))\n      dup1\n      0x00\n      mstore\n      keccak256(0x00, 0x40)\n      0x00\n      swap2\n      pop\n      swap2\n      pop\n      swap1\n      sload\n      swap1\n      0x0100\n      exp\n      swap1\n      div\n      0xff\n      and\n      dup2\n      jump\t// out\n        /* \"#utility.yul\":7:82   */\n    tag_248:\n        /* \"#utility.yul\":40:46   */\n      0x00\n        /* \"#utility.yul\":73:75   */\n      0x40\n        /* \"#utility.yul\":67:76   */\n      mload\n        /* \"#utility.yul\":57:76   */\n      swap1\n      pop\n        /* \"#utility.yul\":7:82   */\n      swap1\n      jump\t// out\n        /* \"#utility.yul\":88:205   */\n    tag_249:\n        /* \"#utility.yul\":197:198   */\n      0x00\n        /* \"#utility.yul\":194:195   */\n      dup1\n        /* \"#utility.yul\":187:199   */\n      revert\n        /* \"#utility.yul\":211:328   */\n    tag_250:\n        /* \"#utility.yul\":320:321   */\n      0x00\n        /* \"#utility.yul\":317:318   */\n      dup1\n        /* \"#utility.yul\":310:322   */\n      revert\n        /* \"#utility.yul\":334:460   */\n    tag_251:\n        /* \"#utility.yul\":371:378   */\n      0x00\n        /* \"#utility.yul\":411:453   */\n      0xffffffffffffffffffffffffffffffffffffffff\n        /* \"#utility.yul\":404:409   */\n      dup3\n        /* \"#utility.yul\":400:454   */\n      and\n        /* \"#utility.yul\":389:454   */\n      swap1\n      pop\n        /* \"#utility.yul\":334:460   */\n      swap2\n      swap1\n      pop\n      jump\t// out\n        /* \"#utility.yul\":466:562   */\n    tag_252:\n        /* \"#utility.yul\":503:510   */\n      0x00\n        /* \"#utility.yul\":532:556   */\n      tag_338\n        /* \"#utility.yul\":550:555   */\n      dup3\n        /* \"#utility.yul\":532:556   */\n      tag_251\n      jump\t// in\n    tag_338:\n        /* \"#utility.yul\":521:556   */\n      swap1\n      pop\n        /* \"#utility.yul\":466:562   */\n      swap2\n      swap1\n      pop\n      jump\t// out\n        /* \"#utility.yul\":568:690   */\n    tag_253:\n        /* \"#utility.yul\":641:665   */\n      tag_340\n        /* \"#utility.yul\":659:664   */\n      dup2\n        /* \"#utility.yul\":641:665   */\n      tag_252\n      jump\t// in\n    tag_340:\n        /* \"#utility.yul\":634:639   */\n      dup2\n        /* \"#utility.yul\":631:666   */\n      eq\n        /* \"#utility.yul\":621:684   */\n      tag_341\n      jumpi\n        /* \"#utility.yul\":680:681   */\n      0x00\n        /* \"#utility.yul\":677:678   */\n      dup1\n        /* \"#utility.yul\":670:682   */\n      revert\n        /* \"#utility.yul\":621:684   */\n    tag_341:\n        /* \"#utility.yul\":568:690   */\n      pop\n      jump\t// out\n        /* \"#utility.yul\":696:835   */\n    tag_254:\n        /* \"#utility.yul\":742:747   */\n      0x00\n        /* \"#utility.yul\":780:786   */\n      dup2\n        /* \"#utility.yul\":767:787   */\n      calldataload\n        /* \"#utility.yul\":758:787   */\n      swap1\n      pop\n        /* \"#utility.yul\":796:829   */\n      tag_343\n        /* \"#utility.yul\":823:828   */\n      dup2\n        /* \"#utility.yul\":796:829   */\n      tag_253\n      jump\t// in\n    tag_343:\n        /* \"#utility.yul\":696:835   */\n      swap3\n      swap2\n      pop\n      pop\n      jump\t// out\n        /* \"#utility.yul\":841:1170   */\n    tag_23:\n        /* \"#utility.yul\":900:906   */\n      0x00\n        /* \"#utility.yul\":949:951   */\n      0x20\n        /* \"#utility.yul\":937:946   */\n      dup3\n        /* \"#utility.yul\":928:935   */\n      dup5\n        /* \"#utility.yul\":924:947   */\n      sub\n        /* \"#utility.yul\":920:952   */\n      slt\n        /* \"#utility.yul\":917:1036   */\n      iszero\n      tag_345\n      jumpi\n        /* \"#utility.yul\":955:1034   */\n      tag_346\n      tag_249\n      jump\t// in\n    tag_346:\n        /* \"#utility.yul\":917:1036   */\n    tag_345:\n        /* \"#utility.yul\":1075:1076   */\n      0x00\n        /* \"#utility.yul\":1100:1153   */\n      tag_347\n        /* \"#utility.yul\":1145:1152   */\n      dup5\n        /* \"#utility.yul\":1136:1142   */\n      dup3\n        /* \"#utility.yul\":1125:1134   */\n      dup6\n        /* \"#utility.yul\":1121:1143   */\n      add\n        /* \"#utility.yul\":1100:1153   */\n      tag_254\n      jump\t// in\n    tag_347:\n        /* \"#utility.yul\":1090:1153   */\n      swap2\n      pop\n        /* \"#utility.yul\":1046:1163   */\n      pop\n        /* \"#utility.yul\":841:1170   */\n      swap3\n      swap2\n      pop\n      pop\n      jump\t// out\n        /* \"#utility.yul\":1176:1266   */\n    tag_255:\n        /* \"#utility.yul\":1210:1217   */\n      0x00\n        /* \"#utility.yul\":1253:1258   */\n      dup2\n        /* \"#utility.yul\":1246:1259   */\n      iszero\n        /* \"#utility.yul\":1239:1260   */\n      iszero\n        /* \"#utility.yul\":1228:1260   */\n      swap1\n      pop\n        /* \"#utility.yul\":1176:1266   */\n      swap2\n      swap1\n      pop\n      jump\t// out\n        /* \"#utility.yul\":1272:1381   */\n    tag_256:\n        /* \"#utility.yul\":1353:1374   */\n      tag_350\n        /* \"#utility.yul\":1368:1373   */\n      dup2\n        /* \"#utility.yul\":1353:1374   */\n      tag_255\n      jump\t// in\n    tag_350:\n        /* \"#utility.yul\":1348:1351   */\n      dup3\n        /* \"#utility.yul\":1341:1375   */\n      mstore\n        /* \"#utility.yul\":1272:1381   */\n      pop\n      pop\n      jump\t// out\n        /* \"#utility.yul\":1387:1486   */\n    tag_257:\n        /* \"#utility.yul\":1439:1445   */\n      0x00\n        /* \"#utility.yul\":1473:1478   */\n      dup2\n        /* \"#utility.yul\":1467:1479   */\n      mload\n        /* \"#utility.yul\":1457:1479   */\n      swap1\n      pop\n        /* \"#utility.yul\":1387:1486   */\n      swap2\n      swap1\n      pop\n      jump\t// out\n        /* \"#utility.yul\":1492:1661   */\n    tag_258:\n        /* \"#utility.yul\":1576:1587   */\n      0x00\n        /* \"#utility.yul\":1610:1616   */\n      dup3\n        /* \"#utility.yul\":1605:1608   */\n      dup3\n        /* \"#utility.yul\":1598:1617   */\n      mstore\n        /* \"#utility.yul\":1650:1654   */\n      0x20\n        /* \"#utility.yul\":1645:1648   */\n      dup3\n        /* \"#utility.yul\":1641:1655   */\n      add\n        /* \"#utility.yul\":1626:1655   */\n      swap1\n      pop\n        /* \"#utility.yul\":1492:1661   */\n      swap3\n      swap2\n      pop\n      pop\n      jump\t// out\n        /* \"#utility.yul\":1667:1913   */\n    tag_259:\n        /* \"#utility.yul\":1748:1749   */\n      0x00\n        /* \"#utility.yul\":1758:1871   */\n    tag_354:\n        /* \"#utility.yul\":1772:1778   */\n      dup4\n        /* \"#utility.yul\":1769:1770   */\n      dup2\n        /* \"#utility.yul\":1766:1779   */\n      lt\n        /* \"#utility.yul\":1758:1871   */\n      iszero\n      tag_356\n      jumpi\n        /* \"#utility.yul\":1857:1858   */\n      dup1\n        /* \"#utility.yul\":1852:1855   */\n      dup3\n        /* \"#utility.yul\":1848:1859   */\n      add\n        /* \"#utility.yul\":1842:1860   */\n      mload\n        /* \"#utility.yul\":1838:1839   */\n      dup2\n        /* \"#utility.yul\":1833:1836   */\n      dup5\n        /* \"#utility.yul\":1829:1840   */\n      add\n        /* \"#utility.yul\":1822:1861   */\n      mstore\n        /* \"#utility.yul\":1794:1796   */\n      0x20\n        /* \"#utility.yul\":1791:1792   */\n      dup2\n        /* \"#utility.yul\":1787:1797   */\n      add\n        /* \"#utility.yul\":1782:1797   */\n      swap1\n      pop\n        /* \"#utility.yul\":1758:1871   */\n      jump(tag_354)\n    tag_356:\n        /* \"#utility.yul\":1905:1906   */\n      0x00\n        /* \"#utility.yul\":1896:1902   */\n      dup5\n        /* \"#utility.yul\":1891:1894   */\n      dup5\n        /* \"#utility.yul\":1887:1903   */\n      add\n        /* \"#utility.yul\":1880:1907   */\n      mstore\n        /* \"#utility.yul\":1729:1913   */\n      pop\n        /* \"#utility.yul\":1667:1913   */\n      pop\n      pop\n      pop\n      jump\t// out\n        /* \"#utility.yul\":1919:2021   */\n    tag_260:\n        /* \"#utility.yul\":1960:1966   */\n      0x00\n        /* \"#utility.yul\":2011:2013   */\n      0x1f\n        /* \"#utility.yul\":2007:2014   */\n      not\n        /* \"#utility.yul\":2002:2004   */\n      0x1f\n        /* \"#utility.yul\":1995:2000   */\n      dup4\n        /* \"#utility.yul\":1991:2005   */\n      add\n        /* \"#utility.yul\":1987:2015   */\n      and\n        /* \"#utility.yul\":1977:2015   */\n      swap1\n      pop\n        /* \"#utility.yul\":1919:2021   */\n      swap2\n      swap1\n      pop\n      jump\t// out\n        /* \"#utility.yul\":2027:2404   */\n    tag_261:\n        /* \"#utility.yul\":2115:2118   */\n      0x00\n        /* \"#utility.yul\":2143:2182   */\n      tag_359\n        /* \"#utility.yul\":2176:2181   */\n      dup3\n        /* \"#utility.yul\":2143:2182   */\n      tag_257\n      jump\t// in\n    tag_359:\n        /* \"#utility.yul\":2198:2269   */\n      tag_360\n        /* \"#utility.yul\":2262:2268   */\n      dup2\n        /* \"#utility.yul\":2257:2260   */\n      dup6\n        /* \"#utility.yul\":2198:2269   */\n      tag_258\n      jump\t// in\n    tag_360:\n        /* \"#utility.yul\":2191:2269   */\n      swap4\n      pop\n        /* \"#utility.yul\":2278:2343   */\n      tag_361\n        /* \"#utility.yul\":2336:2342   */\n      dup2\n        /* \"#utility.yul\":2331:2334   */\n      dup6\n        /* \"#utility.yul\":2324:2328   */\n      0x20\n        /* \"#utility.yul\":2317:2322   */\n      dup7\n        /* \"#utility.yul\":2313:2329   */\n      add\n        /* \"#utility.yul\":2278:2343   */\n      tag_259\n      jump\t// in\n    tag_361:\n        /* \"#utility.yul\":2368:2397   */\n      tag_362\n        /* \"#utility.yul\":2390:2396   */\n      dup2\n        /* \"#utility.yul\":2368:2397   */\n      tag_260\n      jump\t// in\n    tag_362:\n        /* \"#utility.yul\":2363:2366   */\n      dup5\n        /* \"#utility.yul\":2359:2398   */\n      add\n        /* \"#utility.yul\":2352:2398   */\n      swap2\n      pop\n        /* \"#utility.yul\":2119:2404   */\n      pop\n        /* \"#utility.yul\":2027:2404   */\n      swap3\n      swap2\n      pop\n      pop\n      jump\t// out\n        /* \"#utility.yul\":2410:3426   */\n    tag_29:\n        /* \"#utility.yul\":2689:2693   */\n      0x00\n        /* \"#utility.yul\":2727:2730   */\n      0xa0\n        /* \"#utility.yul\":2716:2725   */\n      dup3\n        /* \"#utility.yul\":2712:2731   */\n      add\n        /* \"#utility.yul\":2704:2731   */\n      swap1\n      pop\n        /* \"#utility.yul\":2741:2806   */\n      tag_364\n        /* \"#utility.yul\":2803:2804   */\n      0x00\n        /* \"#utility.yul\":2792:2801   */\n      dup4\n        /* \"#utility.yul\":2788:2805   */\n      add\n        /* \"#utility.yul\":2779:2785   */\n      dup9\n        /* \"#utility.yul\":2741:2806   */\n      tag_256\n      jump\t// in\n    tag_364:\n        /* \"#utility.yul\":2853:2862   */\n      dup2\n        /* \"#utility.yul\":2847:2851   */\n      dup2\n        /* \"#utility.yul\":2843:2863   */\n      sub\n        /* \"#utility.yul\":2838:2840   */\n      0x20\n        /* \"#utility.yul\":2827:2836   */\n      dup4\n        /* \"#utility.yul\":2823:2841   */\n      add\n        /* \"#utility.yul\":2816:2864   */\n      mstore\n        /* \"#utility.yul\":2881:2959   */\n      tag_365\n        /* \"#utility.yul\":2954:2958   */\n      dup2\n        /* \"#utility.yul\":2945:2951   */\n      dup8\n        /* \"#utility.yul\":2881:2959   */\n      tag_261\n      jump\t// in\n    tag_365:\n        /* \"#utility.yul\":2873:2959   */\n      swap1\n      pop\n        /* \"#utility.yul\":3006:3015   */\n      dup2\n        /* \"#utility.yul\":3000:3004   */\n      dup2\n        /* \"#utility.yul\":2996:3016   */\n      sub\n        /* \"#utility.yul\":2991:2993   */\n      0x40\n        /* \"#utility.yul\":2980:2989   */\n      dup4\n        /* \"#utility.yul\":2976:2994   */\n      add\n        /* \"#utility.yul\":2969:3017   */\n      mstore\n        /* \"#utility.yul\":3034:3112   */\n      tag_366\n        /* \"#utility.yul\":3107:3111   */\n      dup2\n        /* \"#utility.yul\":3098:3104   */\n      dup7\n        /* \"#utility.yul\":3034:3112   */\n      tag_261\n      jump\t// in\n    tag_366:\n        /* \"#utility.yul\":3026:3112   */\n      swap1\n      pop\n        /* \"#utility.yul\":3159:3168   */\n      dup2\n        /* \"#utility.yul\":3153:3157   */\n      dup2\n        /* \"#utility.yul\":3149:3169   */\n      sub\n        /* \"#utility.yul\":3144:3146   */\n      0x60\n        /* \"#utility.yul\":3133:3142   */\n      dup4\n        /* \"#utility.yul\":3129:3147   */\n      add\n        /* \"#utility.yul\":3122:3170   */\n      mstore\n        /* \"#utility.yul\":3187:3265   */\n      tag_367\n        /* \"#utility.yul\":3260:3264   */\n      dup2\n        /* \"#utility.yul\":3251:3257   */\n      dup6\n        /* \"#utility.yul\":3187:3265   */\n      tag_261\n      jump\t// in\n    tag_367:\n        /* \"#utility.yul\":3179:3265   */\n      swap1\n      pop\n        /* \"#utility.yul\":3313:3322   */\n      dup2\n        /* \"#utility.yul\":3307:3311   */\n      dup2\n        /* \"#utility.yul\":3303:3323   */\n      sub\n        /* \"#utility.yul\":3297:3300   */\n      0x80\n        /* \"#utility.yul\":3286:3295   */\n      dup4\n        /* \"#utility.yul\":3282:3301   */\n      add\n        /* \"#utility.yul\":3275:3324   */\n      mstore\n        /* \"#utility.yul\":3341:3419   */\n      tag_368\n        /* \"#utility.yul\":3414:3418   */\n      dup2\n        /* \"#utility.yul\":3405:3411   */\n      dup5\n        /* \"#utility.yul\":3341:3419   */\n      tag_261\n      jump\t// in\n    tag_368:\n        /* \"#utility.yul\":3333:3419   */\n      swap1\n      pop\n        /* \"#utility.yul\":2410:3426   */\n      swap7\n      swap6\n      pop\n      pop\n      pop\n      pop\n      pop\n      pop\n      jump\t// out\n        /* \"#utility.yul\":3432:3549   */\n    tag_262:\n        /* \"#utility.yul\":3541:3542   */\n      0x00\n        /* \"#utility.yul\":3538:3539   */\n      dup1\n        /* \"#utility.yul\":3531:3543   */\n      revert\n        /* \"#utility.yul\":3555:3672   */\n    tag_263:\n        /* \"#utility.yul\":3664:3665   */\n      0x00\n        /* \"#utility.yul\":3661:3662   */\n      dup1\n        /* \"#utility.yul\":3654:3666   */\n      revert\n        /* \"#utility.yul\":3678:3858   */\n    tag_264:\n        /* \"#utility.yul\":3726:3803   */\n      0x4e487b7100000000000000000000000000000000000000000000000000000000\n        /* \"#utility.yul\":3723:3724   */\n      0x00\n        /* \"#utility.yul\":3716:3804   */\n      mstore\n        /* \"#utility.yul\":3823:3827   */\n      0x41\n        /* \"#utility.yul\":3820:3821   */\n      0x04\n        /* \"#utility.yul\":3813:3828   */\n      mstore\n        /* \"#utility.yul\":3847:3851   */\n      0x24\n        /* \"#utility.yul\":3844:3845   */\n      0x00\n        /* \"#utility.yul\":3837:3852   */\n      revert\n        /* \"#utility.yul\":3864:4145   */\n    tag_265:\n        /* \"#utility.yul\":3947:3974   */\n      tag_373\n        /* \"#utility.yul\":3969:3973   */\n      dup3\n        /* \"#utility.yul\":3947:3974   */\n      tag_260\n      jump\t// in\n    tag_373:\n        /* \"#utility.yul\":3939:3945   */\n      dup2\n        /* \"#utility.yul\":3935:3975   */\n      add\n        /* \"#utility.yul\":4077:4083   */\n      dup2\n        /* \"#utility.yul\":4065:4075   */\n      dup2\n        /* \"#utility.yul\":4062:4084   */\n      lt\n        /* \"#utility.yul\":4041:4059   */\n      0xffffffffffffffff\n        /* \"#utility.yul\":4029:4039   */\n      dup3\n        /* \"#utility.yul\":4026:4060   */\n      gt\n        /* \"#utility.yul\":4023:4085   */\n      or\n        /* \"#utility.yul\":4020:4108   */\n      iszero\n      tag_374\n      jumpi\n        /* \"#utility.yul\":4088:4106   */\n      tag_375\n      tag_264\n      jump\t// in\n    tag_375:\n        /* \"#utility.yul\":4020:4108   */\n    tag_374:\n        /* \"#utility.yul\":4128:4138   */\n      dup1\n        /* \"#utility.yul\":4124:4126   */\n      0x40\n        /* \"#utility.yul\":4117:4139   */\n      mstore\n        /* \"#utility.yul\":3907:4145   */\n      pop\n        /* \"#utility.yul\":3864:4145   */\n      pop\n      pop\n      jump\t// out\n        /* \"#utility.yul\":4151:4280   */\n    tag_266:\n        /* \"#utility.yul\":4185:4191   */\n      0x00\n        /* \"#utility.yul\":4212:4232   */\n      tag_377\n      tag_248\n      jump\t// in\n    tag_377:\n        /* \"#utility.yul\":4202:4232   */\n      swap1\n      pop\n        /* \"#utility.yul\":4241:4274   */\n      tag_378\n        /* \"#utility.yul\":4269:4273   */\n      dup3\n        /* \"#utility.yul\":4261:4267   */\n      dup3\n        /* \"#utility.yul\":4241:4274   */\n      tag_265\n      jump\t// in\n    tag_378:\n        /* \"#utility.yul\":4151:4280   */\n      swap2\n      swap1\n      pop\n      jump\t// out\n        /* \"#utility.yul\":4286:4594   */\n    tag_267:\n        /* \"#utility.yul\":4348:4352   */\n      0x00\n        /* \"#utility.yul\":4438:4456   */\n      0xffffffffffffffff\n        /* \"#utility.yul\":4430:4436   */\n      dup3\n        /* \"#utility.yul\":4427:4457   */\n      gt\n        /* \"#utility.yul\":4424:4480   */\n      iszero\n      tag_380\n      jumpi\n        /* \"#utility.yul\":4460:4478   */\n      tag_381\n      tag_264\n      jump\t// in\n    tag_381:\n        /* \"#utility.yul\":4424:4480   */\n    tag_380:\n        /* \"#utility.yul\":4498:4527   */\n      tag_382\n        /* \"#utility.yul\":4520:4526   */\n      dup3\n        /* \"#utility.yul\":4498:4527   */\n      tag_260\n      jump\t// in\n    tag_382:\n        /* \"#utility.yul\":4490:4527   */\n      swap1\n      pop\n        /* \"#utility.yul\":4582:4586   */\n      0x20\n        /* \"#utility.yul\":4576:4580   */\n      dup2\n        /* \"#utility.yul\":4572:4587   */\n      add\n        /* \"#utility.yul\":4564:4587   */\n      swap1\n      pop\n        /* \"#utility.yul\":4286:4594   */\n      swap2\n      swap1\n      pop\n      jump\t// out\n        /* \"#utility.yul\":4600:4746   */\n    tag_268:\n        /* \"#utility.yul\":4697:4703   */\n      dup3\n        /* \"#utility.yul\":4692:4695   */\n      dup2\n        /* \"#utility.yul\":4687:4690   */\n      dup4\n        /* \"#utility.yul\":4674:4704   */\n      calldatacopy\n        /* \"#utility.yul\":4738:4739   */\n      0x00\n        /* \"#utility.yul\":4729:4735   */\n      dup4\n        /* \"#utility.yul\":4724:4727   */\n      dup4\n        /* \"#utility.yul\":4720:4736   */\n      add\n        /* \"#utility.yul\":4713:4740   */\n      mstore\n        /* \"#utility.yul\":4600:4746   */\n      pop\n      pop\n      pop\n      jump\t// out\n        /* \"#utility.yul\":4752:5177   */\n    tag_269:\n        /* \"#utility.yul\":4830:4835   */\n      0x00\n        /* \"#utility.yul\":4855:4921   */\n      tag_385\n        /* \"#utility.yul\":4871:4920   */\n      tag_386\n        /* \"#utility.yul\":4913:4919   */\n      dup5\n        /* \"#utility.yul\":4871:4920   */\n      tag_267\n      jump\t// in\n    tag_386:\n        /* \"#utility.yul\":4855:4921   */\n      tag_266\n      jump\t// in\n    tag_385:\n        /* \"#utility.yul\":4846:4921   */\n      swap1\n      pop\n        /* \"#utility.yul\":4944:4950   */\n      dup3\n        /* \"#utility.yul\":4937:4942   */\n      dup2\n        /* \"#utility.yul\":4930:4951   */\n      mstore\n        /* \"#utility.yul\":4982:4986   */\n      0x20\n        /* \"#utility.yul\":4975:4980   */\n      dup2\n        /* \"#utility.yul\":4971:4987   */\n      add\n        /* \"#utility.yul\":5020:5023   */\n      dup5\n        /* \"#utility.yul\":5011:5017   */\n      dup5\n        /* \"#utility.yul\":5006:5009   */\n      dup5\n        /* \"#utility.yul\":5002:5018   */\n      add\n        /* \"#utility.yul\":4999:5024   */\n      gt\n        /* \"#utility.yul\":4996:5108   */\n      iszero\n      tag_387\n      jumpi\n        /* \"#utility.yul\":5027:5106   */\n      tag_388\n      tag_263\n      jump\t// in\n    tag_388:\n        /* \"#utility.yul\":4996:5108   */\n    tag_387:\n        /* \"#utility.yul\":5117:5171   */\n      tag_389\n        /* \"#utility.yul\":5164:5170   */\n      dup5\n        /* \"#utility.yul\":5159:5162   */\n      dup3\n        /* \"#utility.yul\":5154:5157   */\n      dup6\n        /* \"#utility.yul\":5117:5171   */\n      tag_268\n      jump\t// in\n    tag_389:\n        /* \"#utility.yul\":4836:5177   */\n      pop\n        /* \"#utility.yul\":4752:5177   */\n      swap4\n      swap3\n      pop\n      pop\n      pop\n      jump\t// out\n        /* \"#utility.yul\":5197:5537   */\n    tag_270:\n        /* \"#utility.yul\":5253:5258   */\n      0x00\n        /* \"#utility.yul\":5302:5305   */\n      dup3\n        /* \"#utility.yul\":5295:5299   */\n      0x1f\n        /* \"#utility.yul\":5287:5293   */\n      dup4\n        /* \"#utility.yul\":5283:5300   */\n      add\n        /* \"#utility.yul\":5279:5306   */\n      slt\n        /* \"#utility.yul\":5269:5391   */\n      tag_391\n      jumpi\n        /* \"#utility.yul\":5310:5389   */\n      tag_392\n      tag_262\n      jump\t// in\n    tag_392:\n        /* \"#utility.yul\":5269:5391   */\n    tag_391:\n        /* \"#utility.yul\":5427:5433   */\n      dup2\n        /* \"#utility.yul\":5414:5434   */\n      calldataload\n        /* \"#utility.yul\":5452:5531   */\n      tag_393\n        /* \"#utility.yul\":5527:5530   */\n      dup5\n        /* \"#utility.yul\":5519:5525   */\n      dup3\n        /* \"#utility.yul\":5512:5516   */\n      0x20\n        /* \"#utility.yul\":5504:5510   */\n      dup7\n        /* \"#utility.yul\":5500:5517   */\n      add\n        /* \"#utility.yul\":5452:5531   */\n      tag_269\n      jump\t// in\n    tag_393:\n        /* \"#utility.yul\":5443:5531   */\n      swap2\n      pop\n        /* \"#utility.yul\":5259:5537   */\n      pop\n        /* \"#utility.yul\":5197:5537   */\n      swap3\n      swap2\n      pop\n      pop\n      jump\t// out\n        /* \"#utility.yul\":5543:7500   */\n    tag_32:\n        /* \"#utility.yul\":5697:5703   */\n      0x00\n        /* \"#utility.yul\":5705:5711   */\n      dup1\n        /* \"#utility.yul\":5713:5719   */\n      0x00\n        /* \"#utility.yul\":5721:5727   */\n      dup1\n        /* \"#utility.yul\":5729:5735   */\n      0x00\n        /* \"#utility.yul\":5737:5743   */\n      dup1\n        /* \"#utility.yul\":5786:5789   */\n      0xc0\n        /* \"#utility.yul\":5774:5783   */\n      dup8\n        /* \"#utility.yul\":5765:5772   */\n      dup10\n        /* \"#utility.yul\":5761:5784   */\n      sub\n        /* \"#utility.yul\":5757:5790   */\n      slt\n        /* \"#utility.yul\":5754:5874   */\n      iszero\n      tag_395\n      jumpi\n        /* \"#utility.yul\":5793:5872   */\n      tag_396\n      tag_249\n      jump\t// in\n    tag_396:\n        /* \"#utility.yul\":5754:5874   */\n    tag_395:\n        /* \"#utility.yul\":5913:5914   */\n      0x00\n        /* \"#utility.yul\":5938:5991   */\n      tag_397\n        /* \"#utility.yul\":5983:5990   */\n      dup10\n        /* \"#utility.yul\":5974:5980   */\n      dup3\n        /* \"#utility.yul\":5963:5972   */\n      dup11\n        /* \"#utility.yul\":5959:5981   */\n      add\n        /* \"#utility.yul\":5938:5991   */\n      tag_254\n      jump\t// in\n    tag_397:\n        /* \"#utility.yul\":5928:5991   */\n      swap7\n      pop\n        /* \"#utility.yul\":5884:6001   */\n      pop\n        /* \"#utility.yul\":6068:6070   */\n      0x20\n        /* \"#utility.yul\":6057:6066   */\n      dup8\n        /* \"#utility.yul\":6053:6071   */\n      add\n        /* \"#utility.yul\":6040:6072   */\n      calldataload\n        /* \"#utility.yul\":6099:6117   */\n      0xffffffffffffffff\n        /* \"#utility.yul\":6091:6097   */\n      dup2\n        /* \"#utility.yul\":6088:6118   */\n      gt\n        /* \"#utility.yul\":6085:6202   */\n      iszero\n      tag_398\n      jumpi\n        /* \"#utility.yul\":6121:6200   */\n      tag_399\n      tag_250\n      jump\t// in\n    tag_399:\n        /* \"#utility.yul\":6085:6202   */\n    tag_398:\n        /* \"#utility.yul\":6226:6289   */\n      tag_400\n        /* \"#utility.yul\":6281:6288   */\n      dup10\n        /* \"#utility.yul\":6272:6278   */\n      dup3\n        /* \"#utility.yul\":6261:6270   */\n      dup11\n        /* \"#utility.yul\":6257:6279   */\n      add\n        /* \"#utility.yul\":6226:6289   */\n      tag_270\n      jump\t// in\n    tag_400:\n        /* \"#utility.yul\":6216:6289   */\n      swap6\n      pop\n        /* \"#utility.yul\":6011:6299   */\n      pop\n        /* \"#utility.yul\":6366:6368   */\n      0x40\n        /* \"#utility.yul\":6355:6364   */\n      dup8\n        /* \"#utility.yul\":6351:6369   */\n      add\n        /* \"#utility.yul\":6338:6370   */\n      calldataload\n        /* \"#utility.yul\":6397:6415   */\n      0xffffffffffffffff\n        /* \"#utility.yul\":6389:6395   */\n      dup2\n        /* \"#utility.yul\":6386:6416   */\n      gt\n        /* \"#utility.yul\":6383:6500   */\n      iszero\n      tag_401\n      jumpi\n        /* \"#utility.yul\":6419:6498   */\n      tag_402\n      tag_250\n      jump\t// in\n    tag_402:\n        /* \"#utility.yul\":6383:6500   */\n    tag_401:\n        /* \"#utility.yul\":6524:6587   */\n      tag_403\n        /* \"#utility.yul\":6579:6586   */\n      dup10\n        /* \"#utility.yul\":6570:6576   */\n      dup3\n        /* \"#utility.yul\":6559:6568   */\n      dup11\n        /* \"#utility.yul\":6555:6577   */\n      add\n        /* \"#utility.yul\":6524:6587   */\n      tag_270\n      jump\t// in\n    tag_403:\n        /* \"#utility.yul\":6514:6587   */\n      swap5\n      pop\n        /* \"#utility.yul\":6309:6597   */\n      pop\n        /* \"#utility.yul\":6664:6666   */\n      0x60\n        /* \"#utility.yul\":6653:6662   */\n      dup8\n        /* \"#utility.yul\":6649:6667   */\n      add\n        /* \"#utility.yul\":6636:6668   */\n      calldataload\n        /* \"#utility.yul\":6695:6713   */\n      0xffffffffffffffff\n        /* \"#utility.yul\":6687:6693   */\n      dup2\n        /* \"#utility.yul\":6684:6714   */\n      gt\n        /* \"#utility.yul\":6681:6798   */\n      iszero\n      tag_404\n      jumpi\n        /* \"#utility.yul\":6717:6796   */\n      tag_405\n      tag_250\n      jump\t// in\n    tag_405:\n        /* \"#utility.yul\":6681:6798   */\n    tag_404:\n        /* \"#utility.yul\":6822:6885   */\n      tag_406\n        /* \"#utility.yul\":6877:6884   */\n      dup10\n        /* \"#utility.yul\":6868:6874   */\n      dup3\n        /* \"#utility.yul\":6857:6866   */\n      dup11\n        /* \"#utility.yul\":6853:6875   */\n      add\n        /* \"#utility.yul\":6822:6885   */\n      tag_270\n      jump\t// in\n    tag_406:\n        /* \"#utility.yul\":6812:6885   */\n      swap4\n      pop\n        /* \"#utility.yul\":6607:6895   */\n      pop\n        /* \"#utility.yul\":6962:6965   */\n      0x80\n        /* \"#utility.yul\":6951:6960   */\n      dup8\n        /* \"#utility.yul\":6947:6966   */\n      add\n        /* \"#utility.yul\":6934:6967   */\n      calldataload\n        /* \"#utility.yul\":6994:7012   */\n      0xffffffffffffffff\n        /* \"#utility.yul\":6986:6992   */\n      dup2\n        /* \"#utility.yul\":6983:7013   */\n      gt\n        /* \"#utility.yul\":6980:7097   */\n      iszero\n      tag_407\n      jumpi\n        /* \"#utility.yul\":7016:7095   */\n      tag_408\n      tag_250\n      jump\t// in\n    tag_408:\n        /* \"#utility.yul\":6980:7097   */\n    tag_407:\n        /* \"#utility.yul\":7121:7184   */\n      tag_409\n        /* \"#utility.yul\":7176:7183   */\n      dup10\n        /* \"#utility.yul\":7167:7173   */\n      dup3\n        /* \"#utility.yul\":7156:7165   */\n      dup11\n        /* \"#utility.yul\":7152:7174   */\n      add\n        /* \"#utility.yul\":7121:7184   */\n      tag_270\n      jump\t// in\n    tag_409:\n        /* \"#utility.yul\":7111:7184   */\n      swap3\n      pop\n        /* \"#utility.yul\":6905:7194   */\n      pop\n        /* \"#utility.yul\":7261:7264   */\n      0xa0\n        /* \"#utility.yul\":7250:7259   */\n      dup8\n        /* \"#utility.yul\":7246:7265   */\n      add\n        /* \"#utility.yul\":7233:7266   */\n      calldataload\n        /* \"#utility.yul\":7293:7311   */\n      0xffffffffffffffff\n        /* \"#utility.yul\":7285:7291   */\n      dup2\n        /* \"#utility.yul\":7282:7312   */\n      gt\n        /* \"#utility.yul\":7279:7396   */\n      iszero\n      tag_410\n      jumpi\n        /* \"#utility.yul\":7315:7394   */\n      tag_411\n      tag_250\n      jump\t// in\n    tag_411:\n        /* \"#utility.yul\":7279:7396   */\n    tag_410:\n        /* \"#utility.yul\":7420:7483   */\n      tag_412\n        /* \"#utility.yul\":7475:7482   */\n      dup10\n        /* \"#utility.yul\":7466:7472   */\n      dup3\n        /* \"#utility.yul\":7455:7464   */\n      dup11\n        /* \"#utility.yul\":7451:7473   */\n      add\n        /* \"#utility.yul\":7420:7483   */\n      tag_270\n      jump\t// in\n    tag_412:\n        /* \"#utility.yul\":7410:7483   */\n      swap2\n      pop\n        /* \"#utility.yul\":7204:7493   */\n      pop\n        /* \"#utility.yul\":5543:7500   */\n      swap3\n      swap6\n      pop\n      swap3\n      swap6\n      pop\n      swap3\n      swap6\n      jump\t// out\n        /* \"#utility.yul\":7506:8423   */\n    tag_38:\n        /* \"#utility.yul\":7763:7767   */\n      0x00\n        /* \"#utility.yul\":7801:7804   */\n      0x80\n        /* \"#utility.yul\":7790:7799   */\n      dup3\n        /* \"#utility.yul\":7786:7805   */\n      add\n        /* \"#utility.yul\":7778:7805   */\n      swap1\n      pop\n        /* \"#utility.yul\":7851:7860   */\n      dup2\n        /* \"#utility.yul\":7845:7849   */\n      dup2\n        /* \"#utility.yul\":7841:7861   */\n      sub\n        /* \"#utility.yul\":7837:7838   */\n      0x00\n        /* \"#utility.yul\":7826:7835   */\n      dup4\n        /* \"#utility.yul\":7822:7839   */\n      add\n        /* \"#utility.yul\":7815:7862   */\n      mstore\n        /* \"#utility.yul\":7879:7957   */\n      tag_414\n        /* \"#utility.yul\":7952:7956   */\n      dup2\n        /* \"#utility.yul\":7943:7949   */\n      dup8\n        /* \"#utility.yul\":7879:7957   */\n      tag_261\n      jump\t// in\n    tag_414:\n        /* \"#utility.yul\":7871:7957   */\n      swap1\n      pop\n        /* \"#utility.yul\":8004:8013   */\n      dup2\n        /* \"#utility.yul\":7998:8002   */\n      dup2\n        /* \"#utility.yul\":7994:8014   */\n      sub\n        /* \"#utility.yul\":7989:7991   */\n      0x20\n        /* \"#utility.yul\":7978:7987   */\n      dup4\n        /* \"#utility.yul\":7974:7992   */\n      add\n        /* \"#utility.yul\":7967:8015   */\n      mstore\n        /* \"#utility.yul\":8032:8110   */\n      tag_415\n        /* \"#utility.yul\":8105:8109   */\n      dup2\n        /* \"#utility.yul\":8096:8102   */\n      dup7\n        /* \"#utility.yul\":8032:8110   */\n      tag_261\n      jump\t// in\n    tag_415:\n        /* \"#utility.yul\":8024:8110   */\n      swap1\n      pop\n        /* \"#utility.yul\":8157:8166   */\n      dup2\n        /* \"#utility.yul\":8151:8155   */\n      dup2\n        /* \"#utility.yul\":8147:8167   */\n      sub\n        /* \"#utility.yul\":8142:8144   */\n      0x40\n        /* \"#utility.yul\":8131:8140   */\n      dup4\n        /* \"#utility.yul\":8127:8145   */\n      add\n        /* \"#utility.yul\":8120:8168   */\n      mstore\n        /* \"#utility.yul\":8185:8263   */\n      tag_416\n        /* \"#utility.yul\":8258:8262   */\n      dup2\n        /* \"#utility.yul\":8249:8255   */\n      dup6\n        /* \"#utility.yul\":8185:8263   */\n      tag_261\n      jump\t// in\n    tag_416:\n        /* \"#utility.yul\":8177:8263   */\n      swap1\n      pop\n        /* \"#utility.yul\":8310:8319   */\n      dup2\n        /* \"#utility.yul\":8304:8308   */\n      dup2\n        /* \"#utility.yul\":8300:8320   */\n      sub\n        /* \"#utility.yul\":8295:8297   */\n      0x60\n        /* \"#utility.yul\":8284:8293   */\n      dup4\n        /* \"#utility.yul\":8280:8298   */\n      add\n        /* \"#utility.yul\":8273:8321   */\n      mstore\n        /* \"#utility.yul\":8338:8416   */\n      tag_417\n        /* \"#utility.yul\":8411:8415   */\n      dup2\n        /* \"#utility.yul\":8402:8408   */\n      dup5\n        /* \"#utility.yul\":8338:8416   */\n      tag_261\n      jump\t// in\n    tag_417:\n        /* \"#utility.yul\":8330:8416   */\n      swap1\n      pop\n        /* \"#utility.yul\":7506:8423   */\n      swap6\n      swap5\n      pop\n      pop\n      pop\n      pop\n      pop\n      jump\t// out\n        /* \"#utility.yul\":8429:9914   */\n    tag_41:\n        /* \"#utility.yul\":8555:8561   */\n      0x00\n        /* \"#utility.yul\":8563:8569   */\n      dup1\n        /* \"#utility.yul\":8571:8577   */\n      0x00\n        /* \"#utility.yul\":8579:8585   */\n      dup1\n        /* \"#utility.yul\":8628:8631   */\n      0x80\n        /* \"#utility.yul\":8616:8625   */\n      dup6\n        /* \"#utility.yul\":8607:8614   */\n      dup8\n        /* \"#utility.yul\":8603:8626   */\n      sub\n        /* \"#utility.yul\":8599:8632   */\n      slt\n        /* \"#utility.yul\":8596:8716   */\n      iszero\n      tag_419\n      jumpi\n        /* \"#utility.yul\":8635:8714   */\n      tag_420\n      tag_249\n      jump\t// in\n    tag_420:\n        /* \"#utility.yul\":8596:8716   */\n    tag_419:\n        /* \"#utility.yul\":8783:8784   */\n      0x00\n        /* \"#utility.yul\":8772:8781   */\n      dup6\n        /* \"#utility.yul\":8768:8785   */\n      add\n        /* \"#utility.yul\":8755:8786   */\n      calldataload\n        /* \"#utility.yul\":8813:8831   */\n      0xffffffffffffffff\n        /* \"#utility.yul\":8805:8811   */\n      dup2\n        /* \"#utility.yul\":8802:8832   */\n      gt\n        /* \"#utility.yul\":8799:8916   */\n      iszero\n      tag_421\n      jumpi\n        /* \"#utility.yul\":8835:8914   */\n      tag_422\n      tag_250\n      jump\t// in\n    tag_422:\n        /* \"#utility.yul\":8799:8916   */\n    tag_421:\n        /* \"#utility.yul\":8940:9003   */\n      tag_423\n        /* \"#utility.yul\":8995:9002   */\n      dup8\n        /* \"#utility.yul\":8986:8992   */\n      dup3\n        /* \"#utility.yul\":8975:8984   */\n      dup9\n        /* \"#utility.yul\":8971:8993   */\n      add\n        /* \"#utility.yul\":8940:9003   */\n      tag_270\n      jump\t// in\n    tag_423:\n        /* \"#utility.yul\":8930:9003   */\n      swap5\n      pop\n        /* \"#utility.yul\":8726:9013   */\n      pop\n        /* \"#utility.yul\":9080:9082   */\n      0x20\n        /* \"#utility.yul\":9069:9078   */\n      dup6\n        /* \"#utility.yul\":9065:9083   */\n      add\n        /* \"#utility.yul\":9052:9084   */\n      calldataload\n        /* \"#utility.yul\":9111:9129   */\n      0xffffffffffffffff\n        /* \"#utility.yul\":9103:9109   */\n      dup2\n        /* \"#utility.yul\":9100:9130   */\n      gt\n        /* \"#utility.yul\":9097:9214   */\n      iszero\n      tag_424\n      jumpi\n        /* \"#utility.yul\":9133:9212   */\n      tag_425\n      tag_250\n      jump\t// in\n    tag_425:\n        /* \"#utility.yul\":9097:9214   */\n    tag_424:\n        /* \"#utility.yul\":9238:9301   */\n      tag_426\n        /* \"#utility.yul\":9293:9300   */\n      dup8\n        /* \"#utility.yul\":9284:9290   */\n      dup3\n        /* \"#utility.yul\":9273:9282   */\n      dup9\n        /* \"#utility.yul\":9269:9291   */\n      add\n        /* \"#utility.yul\":9238:9301   */\n      tag_270\n      jump\t// in\n    tag_426:\n        /* \"#utility.yul\":9228:9301   */\n      swap4\n      pop\n        /* \"#utility.yul\":9023:9311   */\n      pop\n        /* \"#utility.yul\":9378:9380   */\n      0x40\n        /* \"#utility.yul\":9367:9376   */\n      dup6\n        /* \"#utility.yul\":9363:9381   */\n      add\n        /* \"#utility.yul\":9350:9382   */\n      calldataload\n        /* \"#utility.yul\":9409:9427   */\n      0xffffffffffffffff\n        /* \"#utility.yul\":9401:9407   */\n      dup2\n        /* \"#utility.yul\":9398:9428   */\n      gt\n        /* \"#utility.yul\":9395:9512   */\n      iszero\n      tag_427\n      jumpi\n        /* \"#utility.yul\":9431:9510   */\n      tag_428\n      tag_250\n      jump\t// in\n    tag_428:\n        /* \"#utility.yul\":9395:9512   */\n    tag_427:\n        /* \"#utility.yul\":9536:9599   */\n      tag_429\n        /* \"#utility.yul\":9591:9598   */\n      dup8\n        /* \"#utility.yul\":9582:9588   */\n      dup3\n        /* \"#utility.yul\":9571:9580   */\n      dup9\n        /* \"#utility.yul\":9567:9589   */\n      add\n        /* \"#utility.yul\":9536:9599   */\n      tag_270\n      jump\t// in\n    tag_429:\n        /* \"#utility.yul\":9526:9599   */\n      swap3\n      pop\n        /* \"#utility.yul\":9321:9609   */\n      pop\n        /* \"#utility.yul\":9676:9678   */\n      0x60\n        /* \"#utility.yul\":9665:9674   */\n      dup6\n        /* \"#utility.yul\":9661:9679   */\n      add\n        /* \"#utility.yul\":9648:9680   */\n      calldataload\n        /* \"#utility.yul\":9707:9725   */\n      0xffffffffffffffff\n        /* \"#utility.yul\":9699:9705   */\n      dup2\n        /* \"#utility.yul\":9696:9726   */\n      gt\n        /* \"#utility.yul\":9693:9810   */\n      iszero\n      tag_430\n      jumpi\n        /* \"#utility.yul\":9729:9808   */\n      tag_431\n      tag_250\n      jump\t// in\n    tag_431:\n        /* \"#utility.yul\":9693:9810   */\n    tag_430:\n        /* \"#utility.yul\":9834:9897   */\n      tag_432\n        /* \"#utility.yul\":9889:9896   */\n      dup8\n        /* \"#utility.yul\":9880:9886   */\n      dup3\n        /* \"#utility.yul\":9869:9878   */\n      dup9\n        /* \"#utility.yul\":9865:9887   */\n      add\n        /* \"#utility.yul\":9834:9897   */\n      tag_270\n      jump\t// in\n    tag_432:\n        /* \"#utility.yul\":9824:9897   */\n      swap2\n      pop\n        /* \"#utility.yul\":9619:9907   */\n      pop\n        /* \"#utility.yul\":8429:9914   */\n      swap3\n      swap6\n      swap2\n      swap5\n      pop\n      swap3\n      pop\n      jump\t// out\n        /* \"#utility.yul\":9920:10394   */\n    tag_45:\n        /* \"#utility.yul\":9988:9994   */\n      0x00\n        /* \"#utility.yul\":9996:10002   */\n      dup1\n        /* \"#utility.yul\":10045:10047   */\n      0x40\n        /* \"#utility.yul\":10033:10042   */\n      dup4\n        /* \"#utility.yul\":10024:10031   */\n      dup6\n        /* \"#utility.yul\":10020:10043   */\n      sub\n        /* \"#utility.yul\":10016:10048   */\n      slt\n        /* \"#utility.yul\":10013:10132   */\n      iszero\n      tag_434\n      jumpi\n        /* \"#utility.yul\":10051:10130   */\n      tag_435\n      tag_249\n      jump\t// in\n    tag_435:\n        /* \"#utility.yul\":10013:10132   */\n    tag_434:\n        /* \"#utility.yul\":10171:10172   */\n      0x00\n        /* \"#utility.yul\":10196:10249   */\n      tag_436\n        /* \"#utility.yul\":10241:10248   */\n      dup6\n        /* \"#utility.yul\":10232:10238   */\n      dup3\n        /* \"#utility.yul\":10221:10230   */\n      dup7\n        /* \"#utility.yul\":10217:10239   */\n      add\n        /* \"#utility.yul\":10196:10249   */\n      tag_254\n      jump\t// in\n    tag_436:\n        /* \"#utility.yul\":10186:10249   */\n      swap3\n      pop\n        /* \"#utility.yul\":10142:10259   */\n      pop\n        /* \"#utility.yul\":10298:10300   */\n      0x20\n        /* \"#utility.yul\":10324:10377   */\n      tag_437\n        /* \"#utility.yul\":10369:10376   */\n      dup6\n        /* \"#utility.yul\":10360:10366   */\n      dup3\n        /* \"#utility.yul\":10349:10358   */\n      dup7\n        /* \"#utility.yul\":10345:10367   */\n      add\n        /* \"#utility.yul\":10324:10377   */\n      tag_254\n      jump\t// in\n    tag_437:\n        /* \"#utility.yul\":10314:10377   */\n      swap2\n      pop\n        /* \"#utility.yul\":10269:10387   */\n      pop\n        /* \"#utility.yul\":9920:10394   */\n      swap3\n      pop\n      swap3\n      swap1\n      pop\n      jump\t// out\n        /* \"#utility.yul\":10400:10610   */\n    tag_48:\n        /* \"#utility.yul\":10487:10491   */\n      0x00\n        /* \"#utility.yul\":10525:10527   */\n      0x20\n        /* \"#utility.yul\":10514:10523   */\n      dup3\n        /* \"#utility.yul\":10510:10528   */\n      add\n        /* \"#utility.yul\":10502:10528   */\n      swap1\n      pop\n        /* \"#utility.yul\":10538:10603   */\n      tag_439\n        /* \"#utility.yul\":10600:10601   */\n      0x00\n        /* \"#utility.yul\":10589:10598   */\n      dup4\n        /* \"#utility.yul\":10585:10602   */\n      add\n        /* \"#utility.yul\":10576:10582   */\n      dup5\n        /* \"#utility.yul\":10538:10603   */\n      tag_256\n      jump\t// in\n    tag_439:\n        /* \"#utility.yul\":10400:10610   */\n      swap3\n      swap2\n      pop\n      pop\n      jump\t// out\n        /* \"#utility.yul\":10616:10929   */\n    tag_53:\n        /* \"#utility.yul\":10729:10733   */\n      0x00\n        /* \"#utility.yul\":10767:10769   */\n      0x20\n        /* \"#utility.yul\":10756:10765   */\n      dup3\n        /* \"#utility.yul\":10752:10770   */\n      add\n        /* \"#utility.yul\":10744:10770   */\n      swap1\n      pop\n        /* \"#utility.yul\":10816:10825   */\n      dup2\n        /* \"#utility.yul\":10810:10814   */\n      dup2\n        /* \"#utility.yul\":10806:10826   */\n      sub\n        /* \"#utility.yul\":10802:10803   */\n      0x00\n        /* \"#utility.yul\":10791:10800   */\n      dup4\n        /* \"#utility.yul\":10787:10804   */\n      add\n        /* \"#utility.yul\":10780:10827   */\n      mstore\n        /* \"#utility.yul\":10844:10922   */\n      tag_441\n        /* \"#utility.yul\":10917:10921   */\n      dup2\n        /* \"#utility.yul\":10908:10914   */\n      dup5\n        /* \"#utility.yul\":10844:10922   */\n      tag_261\n      jump\t// in\n    tag_441:\n        /* \"#utility.yul\":10836:10922   */\n      swap1\n      pop\n        /* \"#utility.yul\":10616:10929   */\n      swap3\n      swap2\n      pop\n      pop\n      jump\t// out\n        /* \"#utility.yul\":10935:11242   */\n    tag_271:\n        /* \"#utility.yul\":10996:11000   */\n      0x00\n        /* \"#utility.yul\":11086:11104   */\n      0xffffffffffffffff\n        /* \"#utility.yul\":11078:11084   */\n      dup3\n        /* \"#utility.yul\":11075:11105   */\n      gt\n        /* \"#utility.yul\":11072:11128   */\n      iszero\n      tag_443\n      jumpi\n        /* \"#utility.yul\":11108:11126   */\n      tag_444\n      tag_264\n      jump\t// in\n    tag_444:\n        /* \"#utility.yul\":11072:11128   */\n    tag_443:\n        /* \"#utility.yul\":11146:11175   */\n      tag_445\n        /* \"#utility.yul\":11168:11174   */\n      dup3\n        /* \"#utility.yul\":11146:11175   */\n      tag_260\n      jump\t// in\n    tag_445:\n        /* \"#utility.yul\":11138:11175   */\n      swap1\n      pop\n        /* \"#utility.yul\":11230:11234   */\n      0x20\n        /* \"#utility.yul\":11224:11228   */\n      dup2\n        /* \"#utility.yul\":11220:11235   */\n      add\n        /* \"#utility.yul\":11212:11235   */\n      swap1\n      pop\n        /* \"#utility.yul\":10935:11242   */\n      swap2\n      swap1\n      pop\n      jump\t// out\n        /* \"#utility.yul\":11248:11671   */\n    tag_272:\n        /* \"#utility.yul\":11325:11330   */\n      0x00\n        /* \"#utility.yul\":11350:11415   */\n      tag_447\n        /* \"#utility.yul\":11366:11414   */\n      tag_448\n        /* \"#utility.yul\":11407:11413   */\n      dup5\n        /* \"#utility.yul\":11366:11414   */\n      tag_271\n      jump\t// in\n    tag_448:\n        /* \"#utility.yul\":11350:11415   */\n      tag_266\n      jump\t// in\n    tag_447:\n        /* \"#utility.yul\":11341:11415   */\n      swap1\n      pop\n        /* \"#utility.yul\":11438:11444   */\n      dup3\n        /* \"#utility.yul\":11431:11436   */\n      dup2\n        /* \"#utility.yul\":11424:11445   */\n      mstore\n        /* \"#utility.yul\":11476:11480   */\n      0x20\n        /* \"#utility.yul\":11469:11474   */\n      dup2\n        /* \"#utility.yul\":11465:11481   */\n      add\n        /* \"#utility.yul\":11514:11517   */\n      dup5\n        /* \"#utility.yul\":11505:11511   */\n      dup5\n        /* \"#utility.yul\":11500:11503   */\n      dup5\n        /* \"#utility.yul\":11496:11512   */\n      add\n        /* \"#utility.yul\":11493:11518   */\n      gt\n        /* \"#utility.yul\":11490:11602   */\n      iszero\n      tag_449\n      jumpi\n        /* \"#utility.yul\":11521:11600   */\n      tag_450\n      tag_263\n      jump\t// in\n    tag_450:\n        /* \"#utility.yul\":11490:11602   */\n    tag_449:\n        /* \"#utility.yul\":11611:11665   */\n      tag_451\n        /* \"#utility.yul\":11658:11664   */\n      dup5\n        /* \"#utility.yul\":11653:11656   */\n      dup3\n        /* \"#utility.yul\":11648:11651   */\n      dup6\n        /* \"#utility.yul\":11611:11665   */\n      tag_268\n      jump\t// in\n    tag_451:\n        /* \"#utility.yul\":11331:11671   */\n      pop\n        /* \"#utility.yul\":11248:11671   */\n      swap4\n      swap3\n      pop\n      pop\n      pop\n      jump\t// out\n        /* \"#utility.yul\":11690:12028   */\n    tag_273:\n        /* \"#utility.yul\":11745:11750   */\n      0x00\n        /* \"#utility.yul\":11794:11797   */\n      dup3\n        /* \"#utility.yul\":11787:11791   */\n      0x1f\n        /* \"#utility.yul\":11779:11785   */\n      dup4\n        /* \"#utility.yul\":11775:11792   */\n      add\n        /* \"#utility.yul\":11771:11798   */\n      slt\n        /* \"#utility.yul\":11761:11883   */\n      tag_453\n      jumpi\n        /* \"#utility.yul\":11802:11881   */\n      tag_454\n      tag_262\n      jump\t// in\n    tag_454:\n        /* \"#utility.yul\":11761:11883   */\n    tag_453:\n        /* \"#utility.yul\":11919:11925   */\n      dup2\n        /* \"#utility.yul\":11906:11926   */\n      calldataload\n        /* \"#utility.yul\":11944:12022   */\n      tag_455\n        /* \"#utility.yul\":12018:12021   */\n      dup5\n        /* \"#utility.yul\":12010:12016   */\n      dup3\n        /* \"#utility.yul\":12003:12007   */\n      0x20\n        /* \"#utility.yul\":11995:12001   */\n      dup7\n        /* \"#utility.yul\":11991:12008   */\n      add\n        /* \"#utility.yul\":11944:12022   */\n      tag_272\n      jump\t// in\n    tag_455:\n        /* \"#utility.yul\":11935:12022   */\n      swap2\n      pop\n        /* \"#utility.yul\":11751:12028   */\n      pop\n        /* \"#utility.yul\":11690:12028   */\n      swap3\n      swap2\n      pop\n      pop\n      jump\t// out\n        /* \"#utility.yul\":12034:12686   */\n    tag_56:\n        /* \"#utility.yul\":12111:12117   */\n      0x00\n        /* \"#utility.yul\":12119:12125   */\n      dup1\n        /* \"#utility.yul\":12168:12170   */\n      0x40\n        /* \"#utility.yul\":12156:12165   */\n      dup4\n        /* \"#utility.yul\":12147:12154   */\n      dup6\n        /* \"#utility.yul\":12143:12166   */\n      sub\n        /* \"#utility.yul\":12139:12171   */\n      slt\n        /* \"#utility.yul\":12136:12255   */\n      iszero\n      tag_457\n      jumpi\n        /* \"#utility.yul\":12174:12253   */\n      tag_458\n      tag_249\n      jump\t// in\n    tag_458:\n        /* \"#utility.yul\":12136:12255   */\n    tag_457:\n        /* \"#utility.yul\":12294:12295   */\n      0x00\n        /* \"#utility.yul\":12319:12372   */\n      tag_459\n        /* \"#utility.yul\":12364:12371   */\n      dup6\n        /* \"#utility.yul\":12355:12361   */\n      dup3\n        /* \"#utility.yul\":12344:12353   */\n      dup7\n        /* \"#utility.yul\":12340:12362   */\n      add\n        /* \"#utility.yul\":12319:12372   */\n      tag_254\n      jump\t// in\n    tag_459:\n        /* \"#utility.yul\":12309:12372   */\n      swap3\n      pop\n        /* \"#utility.yul\":12265:12382   */\n      pop\n        /* \"#utility.yul\":12449:12451   */\n      0x20\n        /* \"#utility.yul\":12438:12447   */\n      dup4\n        /* \"#utility.yul\":12434:12452   */\n      add\n        /* \"#utility.yul\":12421:12453   */\n      calldataload\n        /* \"#utility.yul\":12480:12498   */\n      0xffffffffffffffff\n        /* \"#utility.yul\":12472:12478   */\n      dup2\n        /* \"#utility.yul\":12469:12499   */\n      gt\n        /* \"#utility.yul\":12466:12583   */\n      iszero\n      tag_460\n      jumpi\n        /* \"#utility.yul\":12502:12581   */\n      tag_461\n      tag_250\n      jump\t// in\n    tag_461:\n        /* \"#utility.yul\":12466:12583   */\n    tag_460:\n        /* \"#utility.yul\":12607:12669   */\n      tag_462\n        /* \"#utility.yul\":12661:12668   */\n      dup6\n        /* \"#utility.yul\":12652:12658   */\n      dup3\n        /* \"#utility.yul\":12641:12650   */\n      dup7\n        /* \"#utility.yul\":12637:12659   */\n      add\n        /* \"#utility.yul\":12607:12669   */\n      tag_273\n      jump\t// in\n    tag_462:\n        /* \"#utility.yul\":12597:12669   */\n      swap2\n      pop\n        /* \"#utility.yul\":12392:12679   */\n      pop\n        /* \"#utility.yul\":12034:12686   */\n      swap3\n      pop\n      swap3\n      swap1\n      pop\n      jump\t// out\n        /* \"#utility.yul\":12692:12810   */\n    tag_274:\n        /* \"#utility.yul\":12779:12803   */\n      tag_464\n        /* \"#utility.yul\":12797:12802   */\n      dup2\n        /* \"#utility.yul\":12779:12803   */\n      tag_252\n      jump\t// in\n    tag_464:\n        /* \"#utility.yul\":12774:12777   */\n      dup3\n        /* \"#utility.yul\":12767:12804   */\n      mstore\n        /* \"#utility.yul\":12692:12810   */\n      pop\n      pop\n      jump\t// out\n        /* \"#utility.yul\":12816:13038   */\n    tag_61:\n        /* \"#utility.yul\":12909:12913   */\n      0x00\n        /* \"#utility.yul\":12947:12949   */\n      0x20\n        /* \"#utility.yul\":12936:12945   */\n      dup3\n        /* \"#utility.yul\":12932:12950   */\n      add\n        /* \"#utility.yul\":12924:12950   */\n      swap1\n      pop\n        /* \"#utility.yul\":12960:13031   */\n      tag_466\n        /* \"#utility.yul\":13028:13029   */\n      0x00\n        /* \"#utility.yul\":13017:13026   */\n      dup4\n        /* \"#utility.yul\":13013:13030   */\n      add\n        /* \"#utility.yul\":13004:13010   */\n      dup5\n        /* \"#utility.yul\":12960:13031   */\n      tag_274\n      jump\t// in\n    tag_466:\n        /* \"#utility.yul\":12816:13038   */\n      swap3\n      swap2\n      pop\n      pop\n      jump\t// out\n        /* \"#utility.yul\":13044:14262   */\n    tag_75:\n        /* \"#utility.yul\":13371:13375   */\n      0x00\n        /* \"#utility.yul\":13409:13412   */\n      0xc0\n        /* \"#utility.yul\":13398:13407   */\n      dup3\n        /* \"#utility.yul\":13394:13413   */\n      add\n        /* \"#utility.yul\":13386:13413   */\n      swap1\n      pop\n        /* \"#utility.yul\":13423:13488   */\n      tag_468\n        /* \"#utility.yul\":13485:13486   */\n      0x00\n        /* \"#utility.yul\":13474:13483   */\n      dup4\n        /* \"#utility.yul\":13470:13487   */\n      add\n        /* \"#utility.yul\":13461:13467   */\n      dup10\n        /* \"#utility.yul\":13423:13488   */\n      tag_256\n      jump\t// in\n    tag_468:\n        /* \"#utility.yul\":13535:13544   */\n      dup2\n        /* \"#utility.yul\":13529:13533   */\n      dup2\n        /* \"#utility.yul\":13525:13545   */\n      sub\n        /* \"#utility.yul\":13520:13522   */\n      0x20\n        /* \"#utility.yul\":13509:13518   */\n      dup4\n        /* \"#utility.yul\":13505:13523   */\n      add\n        /* \"#utility.yul\":13498:13546   */\n      mstore\n        /* \"#utility.yul\":13563:13641   */\n      tag_469\n        /* \"#utility.yul\":13636:13640   */\n      dup2\n        /* \"#utility.yul\":13627:13633   */\n      dup9\n        /* \"#utility.yul\":13563:13641   */\n      tag_261\n      jump\t// in\n    tag_469:\n        /* \"#utility.yul\":13555:13641   */\n      swap1\n      pop\n        /* \"#utility.yul\":13688:13697   */\n      dup2\n        /* \"#utility.yul\":13682:13686   */\n      dup2\n        /* \"#utility.yul\":13678:13698   */\n      sub\n        /* \"#utility.yul\":13673:13675   */\n      0x40\n        /* \"#utility.yul\":13662:13671   */\n      dup4\n        /* \"#utility.yul\":13658:13676   */\n      add\n        /* \"#utility.yul\":13651:13699   */\n      mstore\n        /* \"#utility.yul\":13716:13794   */\n      tag_470\n        /* \"#utility.yul\":13789:13793   */\n      dup2\n        /* \"#utility.yul\":13780:13786   */\n      dup8\n        /* \"#utility.yul\":13716:13794   */\n      tag_261\n      jump\t// in\n    tag_470:\n        /* \"#utility.yul\":13708:13794   */\n      swap1\n      pop\n        /* \"#utility.yul\":13841:13850   */\n      dup2\n        /* \"#utility.yul\":13835:13839   */\n      dup2\n        /* \"#utility.yul\":13831:13851   */\n      sub\n        /* \"#utility.yul\":13826:13828   */\n      0x60\n        /* \"#utility.yul\":13815:13824   */\n      dup4\n        /* \"#utility.yul\":13811:13829   */\n      add\n        /* \"#utility.yul\":13804:13852   */\n      mstore\n        /* \"#utility.yul\":13869:13947   */\n      tag_471\n        /* \"#utility.yul\":13942:13946   */\n      dup2\n        /* \"#utility.yul\":13933:13939   */\n      dup7\n        /* \"#utility.yul\":13869:13947   */\n      tag_261\n      jump\t// in\n    tag_471:\n        /* \"#utility.yul\":13861:13947   */\n      swap1\n      pop\n        /* \"#utility.yul\":13995:14004   */\n      dup2\n        /* \"#utility.yul\":13989:13993   */\n      dup2\n        /* \"#utility.yul\":13985:14005   */\n      sub\n        /* \"#utility.yul\":13979:13982   */\n      0x80\n        /* \"#utility.yul\":13968:13977   */\n      dup4\n        /* \"#utility.yul\":13964:13983   */\n      add\n        /* \"#utility.yul\":13957:14006   */\n      mstore\n        /* \"#utility.yul\":14023:14101   */\n      tag_472\n        /* \"#utility.yul\":14096:14100   */\n      dup2\n        /* \"#utility.yul\":14087:14093   */\n      dup6\n        /* \"#utility.yul\":14023:14101   */\n      tag_261\n      jump\t// in\n    tag_472:\n        /* \"#utility.yul\":14015:14101   */\n      swap1\n      pop\n        /* \"#utility.yul\":14149:14158   */\n      dup2\n        /* \"#utility.yul\":14143:14147   */\n      dup2\n        /* \"#utility.yul\":14139:14159   */\n      sub\n        /* \"#utility.yul\":14133:14136   */\n      0xa0\n        /* \"#utility.yul\":14122:14131   */\n      dup4\n        /* \"#utility.yul\":14118:14137   */\n      add\n        /* \"#utility.yul\":14111:14160   */\n      mstore\n        /* \"#utility.yul\":14177:14255   */\n      tag_473\n        /* \"#utility.yul\":14250:14254   */\n      dup2\n        /* \"#utility.yul\":14241:14247   */\n      dup5\n        /* \"#utility.yul\":14177:14255   */\n      tag_261\n      jump\t// in\n    tag_473:\n        /* \"#utility.yul\":14169:14255   */\n      swap1\n      pop\n        /* \"#utility.yul\":13044:14262   */\n      swap8\n      swap7\n      pop\n      pop\n      pop\n      pop\n      pop\n      pop\n      pop\n      jump\t// out\n        /* \"#utility.yul\":14268:14489   */\n    tag_275:\n        /* \"#utility.yul\":14408:14442   */\n      0x43616c6c6572206973206e6f7420616e20617574686f72697a656420646f6374\n        /* \"#utility.yul\":14404:14405   */\n      0x00\n        /* \"#utility.yul\":14396:14402   */\n      dup3\n        /* \"#utility.yul\":14392:14406   */\n      add\n        /* \"#utility.yul\":14385:14443   */\n      mstore\n        /* \"#utility.yul\":14477:14481   */\n      0x6f72000000000000000000000000000000000000000000000000000000000000\n        /* \"#utility.yul\":14472:14474   */\n      0x20\n        /* \"#utility.yul\":14464:14470   */\n      dup3\n        /* \"#utility.yul\":14460:14475   */\n      add\n        /* \"#utility.yul\":14453:14482   */\n      mstore\n        /* \"#utility.yul\":14268:14489   */\n      pop\n      jump\t// out\n        /* \"#utility.yul\":14495:14861   */\n    tag_276:\n        /* \"#utility.yul\":14637:14640   */\n      0x00\n        /* \"#utility.yul\":14658:14725   */\n      tag_476\n        /* \"#utility.yul\":14722:14724   */\n      0x22\n        /* \"#utility.yul\":14717:14720   */\n      dup4\n        /* \"#utility.yul\":14658:14725   */\n      tag_258\n      jump\t// in\n    tag_476:\n        /* \"#utility.yul\":14651:14725   */\n      swap2\n      pop\n        /* \"#utility.yul\":14734:14827   */\n      tag_477\n        /* \"#utility.yul\":14823:14826   */\n      dup3\n        /* \"#utility.yul\":14734:14827   */\n      tag_275\n      jump\t// in\n    tag_477:\n        /* \"#utility.yul\":14852:14854   */\n      0x40\n        /* \"#utility.yul\":14847:14850   */\n      dup3\n        /* \"#utility.yul\":14843:14855   */\n      add\n        /* \"#utility.yul\":14836:14855   */\n      swap1\n      pop\n        /* \"#utility.yul\":14495:14861   */\n      swap2\n      swap1\n      pop\n      jump\t// out\n        /* \"#utility.yul\":14867:15286   */\n    tag_86:\n        /* \"#utility.yul\":15033:15037   */\n      0x00\n        /* \"#utility.yul\":15071:15073   */\n      0x20\n        /* \"#utility.yul\":15060:15069   */\n      dup3\n        /* \"#utility.yul\":15056:15074   */\n      add\n        /* \"#utility.yul\":15048:15074   */\n      swap1\n      pop\n        /* \"#utility.yul\":15120:15129   */\n      dup2\n        /* \"#utility.yul\":15114:15118   */\n      dup2\n        /* \"#utility.yul\":15110:15130   */\n      sub\n        /* \"#utility.yul\":15106:15107   */\n      0x00\n        /* \"#utility.yul\":15095:15104   */\n      dup4\n        /* \"#utility.yul\":15091:15108   */\n      add\n        /* \"#utility.yul\":15084:15131   */\n      mstore\n        /* \"#utility.yul\":15148:15279   */\n      tag_479\n        /* \"#utility.yul\":15274:15278   */\n      dup2\n        /* \"#utility.yul\":15148:15279   */\n      tag_276\n      jump\t// in\n    tag_479:\n        /* \"#utility.yul\":15140:15279   */\n      swap1\n      pop\n        /* \"#utility.yul\":14867:15286   */\n      swap2\n      swap1\n      pop\n      jump\t// out\n        /* \"#utility.yul\":15292:15515   */\n    tag_277:\n        /* \"#utility.yul\":15432:15466   */\n      0x41646472657373206973206e6f74206120726567697374657265642070617469\n        /* \"#utility.yul\":15428:15429   */\n      0x00\n        /* \"#utility.yul\":15420:15426   */\n      dup3\n        /* \"#utility.yul\":15416:15430   */\n      add\n        /* \"#utility.yul\":15409:15467   */\n      mstore\n        /* \"#utility.yul\":15501:15507   */\n      0x656e742e00000000000000000000000000000000000000000000000000000000\n        /* \"#utility.yul\":15496:15498   */\n      0x20\n        /* \"#utility.yul\":15488:15494   */\n      dup3\n        /* \"#utility.yul\":15484:15499   */\n      add\n        /* \"#utility.yul\":15477:15508   */\n      mstore\n        /* \"#utility.yul\":15292:15515   */\n      pop\n      jump\t// out\n        /* \"#utility.yul\":15521:15887   */\n    tag_278:\n        /* \"#utility.yul\":15663:15666   */\n      0x00\n        /* \"#utility.yul\":15684:15751   */\n      tag_482\n        /* \"#utility.yul\":15748:15750   */\n      0x24\n        /* \"#utility.yul\":15743:15746   */\n      dup4\n        /* \"#utility.yul\":15684:15751   */\n      tag_258\n      jump\t// in\n    tag_482:\n        /* \"#utility.yul\":15677:15751   */\n      swap2\n      pop\n        /* \"#utility.yul\":15760:15853   */\n      tag_483\n        /* \"#utility.yul\":15849:15852   */\n      dup3\n        /* \"#utility.yul\":15760:15853   */\n      tag_277\n      jump\t// in\n    tag_483:\n        /* \"#utility.yul\":15878:15880   */\n      0x40\n        /* \"#utility.yul\":15873:15876   */\n      dup3\n        /* \"#utility.yul\":15869:15881   */\n      add\n        /* \"#utility.yul\":15862:15881   */\n      swap1\n      pop\n        /* \"#utility.yul\":15521:15887   */\n      swap2\n      swap1\n      pop\n      jump\t// out\n        /* \"#utility.yul\":15893:16312   */\n    tag_90:\n        /* \"#utility.yul\":16059:16063   */\n      0x00\n        /* \"#utility.yul\":16097:16099   */\n      0x20\n        /* \"#utility.yul\":16086:16095   */\n      dup3\n        /* \"#utility.yul\":16082:16100   */\n      add\n        /* \"#utility.yul\":16074:16100   */\n      swap1\n      pop\n        /* \"#utility.yul\":16146:16155   */\n      dup2\n        /* \"#utility.yul\":16140:16144   */\n      dup2\n        /* \"#utility.yul\":16136:16156   */\n      sub\n        /* \"#utility.yul\":16132:16133   */\n      0x00\n        /* \"#utility.yul\":16121:16130   */\n      dup4\n        /* \"#utility.yul\":16117:16134   */\n      add\n        /* \"#utility.yul\":16110:16157   */\n      mstore\n        /* \"#utility.yul\":16174:16305   */\n      tag_485\n        /* \"#utility.yul\":16300:16304   */\n      dup2\n        /* \"#utility.yul\":16174:16305   */\n      tag_278\n      jump\t// in\n    tag_485:\n        /* \"#utility.yul\":16166:16305   */\n      swap1\n      pop\n        /* \"#utility.yul\":15893:16312   */\n      swap2\n      swap1\n      pop\n      jump\t// out\n        /* \"#utility.yul\":16318:16495   */\n    tag_279:\n        /* \"#utility.yul\":16458:16487   */\n      0x436f6e73656e7420697320616c7265616479206772616e7465642e0000000000\n        /* \"#utility.yul\":16454:16455   */\n      0x00\n        /* \"#utility.yul\":16446:16452   */\n      dup3\n        /* \"#utility.yul\":16442:16456   */\n      add\n        /* \"#utility.yul\":16435:16488   */\n      mstore\n        /* \"#utility.yul\":16318:16495   */\n      pop\n      jump\t// out\n        /* \"#utility.yul\":16501:16867   */\n    tag_280:\n        /* \"#utility.yul\":16643:16646   */\n      0x00\n        /* \"#utility.yul\":16664:16731   */\n      tag_488\n        /* \"#utility.yul\":16728:16730   */\n      0x1b\n        /* \"#utility.yul\":16723:16726   */\n      dup4\n        /* \"#utility.yul\":16664:16731   */\n      tag_258\n      jump\t// in\n    tag_488:\n        /* \"#utility.yul\":16657:16731   */\n      swap2\n      pop\n        /* \"#utility.yul\":16740:16833   */\n      tag_489\n        /* \"#utility.yul\":16829:16832   */\n      dup3\n        /* \"#utility.yul\":16740:16833   */\n      tag_279\n      jump\t// in\n    tag_489:\n        /* \"#utility.yul\":16858:16860   */\n      0x20\n        /* \"#utility.yul\":16853:16856   */\n      dup3\n        /* \"#utility.yul\":16849:16861   */\n      add\n        /* \"#utility.yul\":16842:16861   */\n      swap1\n      pop\n        /* \"#utility.yul\":16501:16867   */\n      swap2\n      swap1\n      pop\n      jump\t// out\n        /* \"#utility.yul\":16873:17292   */\n    tag_93:\n        /* \"#utility.yul\":17039:17043   */\n      0x00\n        /* \"#utility.yul\":17077:17079   */\n      0x20\n        /* \"#utility.yul\":17066:17075   */\n      dup3\n        /* \"#utility.yul\":17062:17080   */\n      add\n        /* \"#utility.yul\":17054:17080   */\n      swap1\n      pop\n        /* \"#utility.yul\":17126:17135   */\n      dup2\n        /* \"#utility.yul\":17120:17124   */\n      dup2\n        /* \"#utility.yul\":17116:17136   */\n      sub\n        /* \"#utility.yul\":17112:17113   */\n      0x00\n        /* \"#utility.yul\":17101:17110   */\n      dup4\n        /* \"#utility.yul\":17097:17114   */\n      add\n        /* \"#utility.yul\":17090:17137   */\n      mstore\n        /* \"#utility.yul\":17154:17285   */\n      tag_491\n        /* \"#utility.yul\":17280:17284   */\n      dup2\n        /* \"#utility.yul\":17154:17285   */\n      tag_280\n      jump\t// in\n    tag_491:\n        /* \"#utility.yul\":17146:17285   */\n      swap1\n      pop\n        /* \"#utility.yul\":16873:17292   */\n      swap2\n      swap1\n      pop\n      jump\t// out\n        /* \"#utility.yul\":17298:17520   */\n    tag_281:\n        /* \"#utility.yul\":17438:17472   */\n      0x436f6e73656e74207265717565737420697320616c72656164792070656e6469\n        /* \"#utility.yul\":17434:17435   */\n      0x00\n        /* \"#utility.yul\":17426:17432   */\n      dup3\n        /* \"#utility.yul\":17422:17436   */\n      add\n        /* \"#utility.yul\":17415:17473   */\n      mstore\n        /* \"#utility.yul\":17507:17512   */\n      0x6e672e0000000000000000000000000000000000000000000000000000000000\n        /* \"#utility.yul\":17502:17504   */\n      0x20\n        /* \"#utility.yul\":17494:17500   */\n      dup3\n        /* \"#utility.yul\":17490:17505   */\n      add\n        /* \"#utility.yul\":17483:17513   */\n      mstore\n        /* \"#utility.yul\":17298:17520   */\n      pop\n      jump\t// out\n        /* \"#utility.yul\":17526:17892   */\n    tag_282:\n        /* \"#utility.yul\":17668:17671   */\n      0x00\n        /* \"#utility.yul\":17689:17756   */\n      tag_494\n        /* \"#utility.yul\":17753:17755   */\n      0x23\n        /* \"#utility.yul\":17748:17751   */\n      dup4\n        /* \"#utility.yul\":17689:17756   */\n      tag_258\n      jump\t// in\n    tag_494:\n        /* \"#utility.yul\":17682:17756   */\n      swap2\n      pop\n        /* \"#utility.yul\":17765:17858   */\n      tag_495\n        /* \"#utility.yul\":17854:17857   */\n      dup3\n        /* \"#utility.yul\":17765:17858   */\n      tag_281\n      jump\t// in\n    tag_495:\n        /* \"#utility.yul\":17883:17885   */\n      0x40\n        /* \"#utility.yul\":17878:17881   */\n      dup3\n        /* \"#utility.yul\":17874:17886   */\n      add\n        /* \"#utility.yul\":17867:17886   */\n      swap1\n      pop\n        /* \"#utility.yul\":17526:17892   */\n      swap2\n      swap1\n      pop\n      jump\t// out\n        /* \"#utility.yul\":17898:18317   */\n    tag_96:\n        /* \"#utility.yul\":18064:18068   */\n      0x00\n        /* \"#utility.yul\":18102:18104   */\n      0x20\n        /* \"#utility.yul\":18091:18100   */\n      dup3\n        /* \"#utility.yul\":18087:18105   */\n      add\n        /* \"#utility.yul\":18079:18105   */\n      swap1\n      pop\n        /* \"#utility.yul\":18151:18160   */\n      dup2\n        /* \"#utility.yul\":18145:18149   */\n      dup2\n        /* \"#utility.yul\":18141:18161   */\n      sub\n        /* \"#utility.yul\":18137:18138   */\n      0x00\n        /* \"#utility.yul\":18126:18135   */\n      dup4\n        /* \"#utility.yul\":18122:18139   */\n      add\n        /* \"#utility.yul\":18115:18162   */\n      mstore\n        /* \"#utility.yul\":18179:18310   */\n      tag_497\n        /* \"#utility.yul\":18305:18309   */\n      dup2\n        /* \"#utility.yul\":18179:18310   */\n      tag_282\n      jump\t// in\n    tag_497:\n        /* \"#utility.yul\":18171:18310   */\n      swap1\n      pop\n        /* \"#utility.yul\":17898:18317   */\n      swap2\n      swap1\n      pop\n      jump\t// out\n        /* \"#utility.yul\":18323:18503   */\n    tag_283:\n        /* \"#utility.yul\":18371:18448   */\n      0x4e487b7100000000000000000000000000000000000000000000000000000000\n        /* \"#utility.yul\":18368:18369   */\n      0x00\n        /* \"#utility.yul\":18361:18449   */\n      mstore\n        /* \"#utility.yul\":18468:18472   */\n      0x22\n        /* \"#utility.yul\":18465:18466   */\n      0x04\n        /* \"#utility.yul\":18458:18473   */\n      mstore\n        /* \"#utility.yul\":18492:18496   */\n      0x24\n        /* \"#utility.yul\":18489:18490   */\n      0x00\n        /* \"#utility.yul\":18482:18497   */\n      revert\n        /* \"#utility.yul\":18509:18829   */\n    tag_98:\n        /* \"#utility.yul\":18553:18559   */\n      0x00\n        /* \"#utility.yul\":18590:18591   */\n      0x02\n        /* \"#utility.yul\":18584:18588   */\n      dup3\n        /* \"#utility.yul\":18580:18592   */\n      div\n        /* \"#utility.yul\":18570:18592   */\n      swap1\n      pop\n        /* \"#utility.yul\":18637:18638   */\n      0x01\n        /* \"#utility.yul\":18631:18635   */\n      dup3\n        /* \"#utility.yul\":18627:18639   */\n      and\n        /* \"#utility.yul\":18658:18676   */\n      dup1\n        /* \"#utility.yul\":18648:18729   */\n      tag_500\n      jumpi\n        /* \"#utility.yul\":18714:18718   */\n      0x7f\n        /* \"#utility.yul\":18706:18712   */\n      dup3\n        /* \"#utility.yul\":18702:18719   */\n      and\n        /* \"#utility.yul\":18692:18719   */\n      swap2\n      pop\n        /* \"#utility.yul\":18648:18729   */\n    tag_500:\n        /* \"#utility.yul\":18776:18778   */\n      0x20\n        /* \"#utility.yul\":18768:18774   */\n      dup3\n        /* \"#utility.yul\":18765:18779   */\n      lt\n        /* \"#utility.yul\":18745:18763   */\n      dup2\n        /* \"#utility.yul\":18742:18780   */\n      sub\n        /* \"#utility.yul\":18739:18823   */\n      tag_501\n      jumpi\n        /* \"#utility.yul\":18795:18813   */\n      tag_502\n      tag_283\n      jump\t// in\n    tag_502:\n        /* \"#utility.yul\":18739:18823   */\n    tag_501:\n        /* \"#utility.yul\":18560:18829   */\n      pop\n        /* \"#utility.yul\":18509:18829   */\n      swap2\n      swap1\n      pop\n      jump\t// out\n        /* \"#utility.yul\":18835:19056   */\n    tag_284:\n        /* \"#utility.yul\":18975:19009   */\n      0x4f6e6c79206f776e65722063616e20706572666f726d20746869732061637469\n        /* \"#utility.yul\":18971:18972   */\n      0x00\n        /* \"#utility.yul\":18963:18969   */\n      dup3\n        /* \"#utility.yul\":18959:18973   */\n      add\n        /* \"#utility.yul\":18952:19010   */\n      mstore\n        /* \"#utility.yul\":19044:19048   */\n      0x6f6e000000000000000000000000000000000000000000000000000000000000\n        /* \"#utility.yul\":19039:19041   */\n      0x20\n        /* \"#utility.yul\":19031:19037   */\n      dup3\n        /* \"#utility.yul\":19027:19042   */\n      add\n        /* \"#utility.yul\":19020:19049   */\n      mstore\n        /* \"#utility.yul\":18835:19056   */\n      pop\n      jump\t// out\n        /* \"#utility.yul\":19062:19428   */\n    tag_285:\n        /* \"#utility.yul\":19204:19207   */\n      0x00\n        /* \"#utility.yul\":19225:19292   */\n      tag_505\n        /* \"#utility.yul\":19289:19291   */\n      0x22\n        /* \"#utility.yul\":19284:19287   */\n      dup4\n        /* \"#utility.yul\":19225:19292   */\n      tag_258\n      jump\t// in\n    tag_505:\n        /* \"#utility.yul\":19218:19292   */\n      swap2\n      pop\n        /* \"#utility.yul\":19301:19394   */\n      tag_506\n        /* \"#utility.yul\":19390:19393   */\n      dup3\n        /* \"#utility.yul\":19301:19394   */\n      tag_284\n      jump\t// in\n    tag_506:\n        /* \"#utility.yul\":19419:19421   */\n      0x40\n        /* \"#utility.yul\":19414:19417   */\n      dup3\n        /* \"#utility.yul\":19410:19422   */\n      add\n        /* \"#utility.yul\":19403:19422   */\n      swap1\n      pop\n        /* \"#utility.yul\":19062:19428   */\n      swap2\n      swap1\n      pop\n      jump\t// out\n        /* \"#utility.yul\":19434:19853   */\n    tag_121:\n        /* \"#utility.yul\":19600:19604   */\n      0x00\n        /* \"#utility.yul\":19638:19640   */\n      0x20\n        /* \"#utility.yul\":19627:19636   */\n      dup3\n        /* \"#utility.yul\":19623:19641   */\n      add\n        /* \"#utility.yul\":19615:19641   */\n      swap1\n      pop\n        /* \"#utility.yul\":19687:19696   */\n      dup2\n        /* \"#utility.yul\":19681:19685   */\n      dup2\n        /* \"#utility.yul\":19677:19697   */\n      sub\n        /* \"#utility.yul\":19673:19674   */\n      0x00\n        /* \"#utility.yul\":19662:19671   */\n      dup4\n        /* \"#utility.yul\":19658:19675   */\n      add\n        /* \"#utility.yul\":19651:19698   */\n      mstore\n        /* \"#utility.yul\":19715:19846   */\n      tag_508\n        /* \"#utility.yul\":19841:19845   */\n      dup2\n        /* \"#utility.yul\":19715:19846   */\n      tag_285\n      jump\t// in\n    tag_508:\n        /* \"#utility.yul\":19707:19846   */\n      swap1\n      pop\n        /* \"#utility.yul\":19434:19853   */\n      swap2\n      swap1\n      pop\n      jump\t// out\n        /* \"#utility.yul\":19859:20037   */\n    tag_286:\n        /* \"#utility.yul\":19999:20029   */\n      0x446f63746f7220697320616c7265616479207265676973746572656400000000\n        /* \"#utility.yul\":19995:19996   */\n      0x00\n        /* \"#utility.yul\":19987:19993   */\n      dup3\n        /* \"#utility.yul\":19983:19997   */\n      add\n        /* \"#utility.yul\":19976:20030   */\n      mstore\n        /* \"#utility.yul\":19859:20037   */\n      pop\n      jump\t// out\n        /* \"#utility.yul\":20043:20409   */\n    tag_287:\n        /* \"#utility.yul\":20185:20188   */\n      0x00\n        /* \"#utility.yul\":20206:20273   */\n      tag_511\n        /* \"#utility.yul\":20270:20272   */\n      0x1c\n        /* \"#utility.yul\":20265:20268   */\n      dup4\n        /* \"#utility.yul\":20206:20273   */\n      tag_258\n      jump\t// in\n    tag_511:\n        /* \"#utility.yul\":20199:20273   */\n      swap2\n      pop\n        /* \"#utility.yul\":20282:20375   */\n      tag_512\n        /* \"#utility.yul\":20371:20374   */\n      dup3\n        /* \"#utility.yul\":20282:20375   */\n      tag_286\n      jump\t// in\n    tag_512:\n        /* \"#utility.yul\":20400:20402   */\n      0x20\n        /* \"#utility.yul\":20395:20398   */\n      dup3\n        /* \"#utility.yul\":20391:20403   */\n      add\n        /* \"#utility.yul\":20384:20403   */\n      swap1\n      pop\n        /* \"#utility.yul\":20043:20409   */\n      swap2\n      swap1\n      pop\n      jump\t// out\n        /* \"#utility.yul\":20415:20834   */\n    tag_125:\n        /* \"#utility.yul\":20581:20585   */\n      0x00\n        /* \"#utility.yul\":20619:20621   */\n      0x20\n        /* \"#utility.yul\":20608:20617   */\n      dup3\n        /* \"#utility.yul\":20604:20622   */\n      add\n        /* \"#utility.yul\":20596:20622   */\n      swap1\n      pop\n        /* \"#utility.yul\":20668:20677   */\n      dup2\n        /* \"#utility.yul\":20662:20666   */\n      dup2\n        /* \"#utility.yul\":20658:20678   */\n      sub\n        /* \"#utility.yul\":20654:20655   */\n      0x00\n        /* \"#utility.yul\":20643:20652   */\n      dup4\n        /* \"#utility.yul\":20639:20656   */\n      add\n        /* \"#utility.yul\":20632:20679   */\n      mstore\n        /* \"#utility.yul\":20696:20827   */\n      tag_514\n        /* \"#utility.yul\":20822:20826   */\n      dup2\n        /* \"#utility.yul\":20696:20827   */\n      tag_287\n      jump\t// in\n    tag_514:\n        /* \"#utility.yul\":20688:20827   */\n      swap1\n      pop\n        /* \"#utility.yul\":20415:20834   */\n      swap2\n      swap1\n      pop\n      jump\t// out\n        /* \"#utility.yul\":20840:21069   */\n    tag_288:\n        /* \"#utility.yul\":20980:21014   */\n      0x4164647265737320697320616c72656164792072656769737465726564206173\n        /* \"#utility.yul\":20976:20977   */\n      0x00\n        /* \"#utility.yul\":20968:20974   */\n      dup3\n        /* \"#utility.yul\":20964:20978   */\n      add\n        /* \"#utility.yul\":20957:21015   */\n      mstore\n        /* \"#utility.yul\":21049:21061   */\n      0x20612070617469656e7400000000000000000000000000000000000000000000\n        /* \"#utility.yul\":21044:21046   */\n      0x20\n        /* \"#utility.yul\":21036:21042   */\n      dup3\n        /* \"#utility.yul\":21032:21047   */\n      add\n        /* \"#utility.yul\":21025:21062   */\n      mstore\n        /* \"#utility.yul\":20840:21069   */\n      pop\n      jump\t// out\n        /* \"#utility.yul\":21075:21441   */\n    tag_289:\n        /* \"#utility.yul\":21217:21220   */\n      0x00\n        /* \"#utility.yul\":21238:21305   */\n      tag_517\n        /* \"#utility.yul\":21302:21304   */\n      0x2a\n        /* \"#utility.yul\":21297:21300   */\n      dup4\n        /* \"#utility.yul\":21238:21305   */\n      tag_258\n      jump\t// in\n    tag_517:\n        /* \"#utility.yul\":21231:21305   */\n      swap2\n      pop\n        /* \"#utility.yul\":21314:21407   */\n      tag_518\n        /* \"#utility.yul\":21403:21406   */\n      dup3\n        /* \"#utility.yul\":21314:21407   */\n      tag_288\n      jump\t// in\n    tag_518:\n        /* \"#utility.yul\":21432:21434   */\n      0x40\n        /* \"#utility.yul\":21427:21430   */\n      dup3\n        /* \"#utility.yul\":21423:21435   */\n      add\n        /* \"#utility.yul\":21416:21435   */\n      swap1\n      pop\n        /* \"#utility.yul\":21075:21441   */\n      swap2\n      swap1\n      pop\n      jump\t// out\n        /* \"#utility.yul\":21447:21866   */\n    tag_128:\n        /* \"#utility.yul\":21613:21617   */\n      0x00\n        /* \"#utility.yul\":21651:21653   */\n      0x20\n        /* \"#utility.yul\":21640:21649   */\n      dup3\n        /* \"#utility.yul\":21636:21654   */\n      add\n        /* \"#utility.yul\":21628:21654   */\n      swap1\n      pop\n        /* \"#utility.yul\":21700:21709   */\n      dup2\n        /* \"#utility.yul\":21694:21698   */\n      dup2\n        /* \"#utility.yul\":21690:21710   */\n      sub\n        /* \"#utility.yul\":21686:21687   */\n      0x00\n        /* \"#utility.yul\":21675:21684   */\n      dup4\n        /* \"#utility.yul\":21671:21688   */\n      add\n        /* \"#utility.yul\":21664:21711   */\n      mstore\n        /* \"#utility.yul\":21728:21859   */\n      tag_520\n        /* \"#utility.yul\":21854:21858   */\n      dup2\n        /* \"#utility.yul\":21728:21859   */\n      tag_289\n      jump\t// in\n    tag_520:\n        /* \"#utility.yul\":21720:21859   */\n      swap1\n      pop\n        /* \"#utility.yul\":21447:21866   */\n      swap2\n      swap1\n      pop\n      jump\t// out\n        /* \"#utility.yul\":21872:22013   */\n    tag_290:\n        /* \"#utility.yul\":21921:21925   */\n      0x00\n        /* \"#utility.yul\":21944:21947   */\n      dup2\n        /* \"#utility.yul\":21936:21947   */\n      swap1\n      pop\n        /* \"#utility.yul\":21967:21970   */\n      dup2\n        /* \"#utility.yul\":21964:21965   */\n      0x00\n        /* \"#utility.yul\":21957:21971   */\n      mstore\n        /* \"#utility.yul\":22001:22005   */\n      0x20\n        /* \"#utility.yul\":21998:21999   */\n      0x00\n        /* \"#utility.yul\":21988:22006   */\n      keccak256\n        /* \"#utility.yul\":21980:22006   */\n      swap1\n      pop\n        /* \"#utility.yul\":21872:22013   */\n      swap2\n      swap1\n      pop\n      jump\t// out\n        /* \"#utility.yul\":22019:22112   */\n    tag_291:\n        /* \"#utility.yul\":22056:22062   */\n      0x00\n        /* \"#utility.yul\":22103:22105   */\n      0x20\n        /* \"#utility.yul\":22098:22100   */\n      0x1f\n        /* \"#utility.yul\":22091:22096   */\n      dup4\n        /* \"#utility.yul\":22087:22101   */\n      add\n        /* \"#utility.yul\":22083:22106   */\n      div\n        /* \"#utility.yul\":22073:22106   */\n      swap1\n      pop\n        /* \"#utility.yul\":22019:22112   */\n      swap2\n      swap1\n      pop\n      jump\t// out\n        /* \"#utility.yul\":22118:22225   */\n    tag_292:\n        /* \"#utility.yul\":22162:22170   */\n      0x00\n        /* \"#utility.yul\":22212:22217   */\n      dup3\n        /* \"#utility.yul\":22206:22210   */\n      dup3\n        /* \"#utility.yul\":22202:22218   */\n      shl\n        /* \"#utility.yul\":22181:22218   */\n      swap1\n      pop\n        /* \"#utility.yul\":22118:22225   */\n      swap3\n      swap2\n      pop\n      pop\n      jump\t// out\n        /* \"#utility.yul\":22231:22624   */\n    tag_293:\n        /* \"#utility.yul\":22300:22306   */\n      0x00\n        /* \"#utility.yul\":22350:22351   */\n      0x08\n        /* \"#utility.yul\":22338:22348   */\n      dup4\n        /* \"#utility.yul\":22334:22352   */\n      mul\n        /* \"#utility.yul\":22373:22470   */\n      tag_525\n        /* \"#utility.yul\":22403:22469   */\n      0xffffffffffffffffffffffffffffffffffffffffffffffffffffffffffffffff\n        /* \"#utility.yul\":22392:22401   */\n      dup3\n        /* \"#utility.yul\":22373:22470   */\n      tag_292\n      jump\t// in\n    tag_525:\n        /* \"#utility.yul\":22491:22530   */\n      tag_526\n        /* \"#utility.yul\":22521:22529   */\n      dup7\n        /* \"#utility.yul\":22510:22519   */\n      dup4\n        /* \"#utility.yul\":22491:22530   */\n      tag_292\n      jump\t// in\n    tag_526:\n        /* \"#utility.yul\":22479:22530   */\n      swap6\n      pop\n        /* \"#utility.yul\":22563:22567   */\n      dup1\n        /* \"#utility.yul\":22559:22568   */\n      not\n        /* \"#utility.yul\":22552:22557   */\n      dup5\n        /* \"#utility.yul\":22548:22569   */\n      and\n        /* \"#utility.yul\":22539:22569   */\n      swap4\n      pop\n        /* \"#utility.yul\":22612:22616   */\n      dup1\n        /* \"#utility.yul\":22602:22610   */\n      dup7\n        /* \"#utility.yul\":22598:22617   */\n      and\n        /* \"#utility.yul\":22591:22596   */\n      dup5\n        /* \"#utility.yul\":22588:22618   */\n      or\n        /* \"#utility.yul\":22578:22618   */\n      swap3\n      pop\n        /* \"#utility.yul\":22307:22624   */\n      pop\n      pop\n        /* \"#utility.yul\":22231:22624   */\n      swap4\n      swap3\n      pop\n      pop\n      pop\n      jump\t// out\n        /* \"#utility.yul\":22630:22707   */\n    tag_294:\n        /* \"#utility.yul\":22667:22674   */\n      0x00\n        /* \"#utility.yul\":22696:22701   */\n      dup2\n        /* \"#utility.yul\":22685:22701   */\n      swap1\n      pop\n        /* \"#utility.yul\":22630:22707   */\n      swap2\n      swap1\n      pop\n      jump\t// out\n        /* \"#utility.yul\":22713:22773   */\n    tag_295:\n        /* \"#utility.yul\":22741:22744   */\n      0x00\n        /* \"#utility.yul\":22762:22767   */\n      dup2\n        /* \"#utility.yul\":22755:22767   */\n      swap1\n      pop\n        /* \"#utility.yul\":22713:22773   */\n      swap2\n      swap1\n      pop\n      jump\t// out\n        /* \"#utility.yul\":22779:22921   */\n    tag_296:\n        /* \"#utility.yul\":22829:22838   */\n      0x00\n        /* \"#utility.yul\":22862:22915   */\n      tag_530\n        /* \"#utility.yul\":22880:22914   */\n      tag_531\n        /* \"#utility.yul\":22889:22913   */\n      tag_532\n        /* \"#utility.yul\":22907:22912   */\n      dup5\n        /* \"#utility.yul\":22889:22913   */\n      tag_294\n      jump\t// in\n    tag_532:\n        /* \"#utility.yul\":22880:22914   */\n      tag_295\n      jump\t// in\n    tag_531:\n        /* \"#utility.yul\":22862:22915   */\n      tag_294\n      jump\t// in\n    tag_530:\n        /* \"#utility.yul\":22849:22915   */\n      swap1\n      pop\n        /* \"#utility.yul\":22779:22921   */\n      swap2\n      swap1\n      pop\n      jump\t// out\n        /* \"#utility.yul\":22927:23002   */\n    tag_297:\n        /* \"#utility.yul\":22970:22973   */\n      0x00\n        /* \"#utility.yul\":22991:22996   */\n      dup2\n        /* \"#utility.yul\":22984:22996   */\n      swap1\n      pop\n        /* \"#utility.yul\":22927:23002   */\n      swap2\n      swap1\n      pop\n      jump\t// out\n        /* \"#utility.yul\":23008:23277   */\n    tag_298:\n        /* \"#utility.yul\":23118:23157   */\n      tag_535\n        /* \"#utility.yul\":23149:23156   */\n      dup4\n        /* \"#utility.yul\":23118:23157   */\n      tag_296\n      jump\t// in\n    tag_535:\n        /* \"#utility.yul\":23179:23270   */\n      tag_536\n        /* \"#utility.yul\":23228:23269   */\n      tag_537\n        /* \"#utility.yul\":23252:23268   */\n      dup3\n        /* \"#utility.yul\":23228:23269   */\n      tag_297\n      jump\t// in\n    tag_537:\n        /* \"#utility.yul\":23220:23226   */\n      dup5\n        /* \"#utility.yul\":23213:23217   */\n      dup5\n        /* \"#utility.yul\":23207:23218   */\n      sload\n        /* \"#utility.yul\":23179:23270   */\n      tag_293\n      jump\t// in\n    tag_536:\n        /* \"#utility.yul\":23173:23177   */\n      dup3\n        /* \"#utility.yul\":23166:23271   */\n      sstore\n        /* \"#utility.yul\":23084:23277   */\n      pop\n        /* \"#utility.yul\":23008:23277   */\n      pop\n      pop\n      pop\n      jump\t// out\n        /* \"#utility.yul\":23283:23356   */\n    tag_299:\n        /* \"#utility.yul\":23328:23331   */\n      0x00\n        /* \"#utility.yul\":23283:23356   */\n      swap1\n      jump\t// out\n        /* \"#utility.yul\":23362:23551   */\n    tag_300:\n        /* \"#utility.yul\":23439:23471   */\n      tag_540\n      tag_299\n      jump\t// in\n    tag_540:\n        /* \"#utility.yul\":23480:23545   */\n      tag_541\n        /* \"#utility.yul\":23538:23544   */\n      dup2\n        /* \"#utility.yul\":23530:23536   */\n      dup5\n        /* \"#utility.yul\":23524:23528   */\n      dup5\n        /* \"#utility.yul\":23480:23545   */\n      tag_298\n      jump\t// in\n    tag_541:\n        /* \"#utility.yul\":23415:23551   */\n      pop\n        /* \"#utility.yul\":23362:23551   */\n      pop\n      pop\n      jump\t// out\n        /* \"#utility.yul\":23557:23743   */\n    tag_301:\n        /* \"#utility.yul\":23617:23737   */\n    tag_543:\n        /* \"#utility.yul\":23634:23637   */\n      dup2\n        /* \"#utility.yul\":23627:23632   */\n      dup2\n        /* \"#utility.yul\":23624:23638   */\n      lt\n        /* \"#utility.yul\":23617:23737   */\n      iszero\n      tag_545\n      jumpi\n        /* \"#utility.yul\":23688:23727   */\n      tag_546\n        /* \"#utility.yul\":23725:23726   */\n      0x00\n        /* \"#utility.yul\":23718:23723   */\n      dup3\n        /* \"#utility.yul\":23688:23727   */\n      tag_300\n      jump\t// in\n    tag_546:\n        /* \"#utility.yul\":23661:23662   */\n      0x01\n        /* \"#utility.yul\":23654:23659   */\n      dup2\n        /* \"#utility.yul\":23650:23663   */\n      add\n        /* \"#utility.yul\":23641:23663   */\n      swap1\n      pop\n        /* \"#utility.yul\":23617:23737   */\n      jump(tag_543)\n    tag_545:\n        /* \"#utility.yul\":23557:23743   */\n      pop\n      pop\n      jump\t// out\n        /* \"#utility.yul\":23749:24292   */\n    tag_302:\n        /* \"#utility.yul\":23850:23852   */\n      0x1f\n        /* \"#utility.yul\":23845:23848   */\n      dup3\n        /* \"#utility.yul\":23842:23853   */\n      gt\n        /* \"#utility.yul\":23839:24285   */\n      iszero\n      tag_548\n      jumpi\n        /* \"#utility.yul\":23884:23922   */\n      tag_549\n        /* \"#utility.yul\":23916:23921   */\n      dup2\n        /* \"#utility.yul\":23884:23922   */\n      tag_290\n      jump\t// in\n    tag_549:\n        /* \"#utility.yul\":23968:23997   */\n      tag_550\n        /* \"#utility.yul\":23986:23996   */\n      dup5\n        /* \"#utility.yul\":23968:23997   */\n      tag_291\n      jump\t// in\n    tag_550:\n        /* \"#utility.yul\":23958:23966   */\n      dup2\n        /* \"#utility.yul\":23954:23998   */\n      add\n        /* \"#utility.yul\":24151:24153   */\n      0x20\n        /* \"#utility.yul\":24139:24149   */\n      dup6\n        /* \"#utility.yul\":24136:24154   */\n      lt\n        /* \"#utility.yul\":24133:24182   */\n      iszero\n      tag_551\n      jumpi\n        /* \"#utility.yul\":24172:24180   */\n      dup2\n        /* \"#utility.yul\":24157:24180   */\n      swap1\n      pop\n        /* \"#utility.yul\":24133:24182   */\n    tag_551:\n        /* \"#utility.yul\":24195:24275   */\n      tag_552\n        /* \"#utility.yul\":24251:24273   */\n      tag_553\n        /* \"#utility.yul\":24269:24272   */\n      dup6\n        /* \"#utility.yul\":24251:24273   */\n      tag_291\n      jump\t// in\n    tag_553:\n        /* \"#utility.yul\":24241:24249   */\n      dup4\n        /* \"#utility.yul\":24237:24274   */\n      add\n        /* \"#utility.yul\":24224:24235   */\n      dup3\n        /* \"#utility.yul\":24195:24275   */\n      tag_301\n      jump\t// in\n    tag_552:\n        /* \"#utility.yul\":23854:24285   */\n      pop\n      pop\n        /* \"#utility.yul\":23839:24285   */\n    tag_548:\n        /* \"#utility.yul\":23749:24292   */\n      pop\n      pop\n      pop\n      jump\t// out\n        /* \"#utility.yul\":24298:24415   */\n    tag_303:\n        /* \"#utility.yul\":24352:24360   */\n      0x00\n        /* \"#utility.yul\":24402:24407   */\n      dup3\n        /* \"#utility.yul\":24396:24400   */\n      dup3\n        /* \"#utility.yul\":24392:24408   */\n      shr\n        /* \"#utility.yul\":24371:24408   */\n      swap1\n      pop\n        /* \"#utility.yul\":24298:24415   */\n      swap3\n      swap2\n      pop\n      pop\n      jump\t// out\n        /* \"#utility.yul\":24421:24590   */\n    tag_304:\n        /* \"#utility.yul\":24465:24471   */\n      0x00\n        /* \"#utility.yul\":24498:24549   */\n      tag_556\n        /* \"#utility.yul\":24546:24547   */\n      0x00\n        /* \"#utility.yul\":24542:24548   */\n      not\n        /* \"#utility.yul\":24534:24539   */\n      dup5\n        /* \"#utility.yul\":24531:24532   */\n      0x08\n        /* \"#utility.yul\":24527:24540   */\n      mul\n        /* \"#utility.yul\":24498:24549   */\n      tag_303\n      jump\t// in\n    tag_556:\n        /* \"#utility.yul\":24494:24550   */\n      not\n        /* \"#utility.yul\":24579:24583   */\n      dup1\n        /* \"#utility.yul\":24573:24577   */\n      dup4\n        /* \"#utility.yul\":24569:24584   */\n      and\n        /* \"#utility.yul\":24559:24584   */\n      swap2\n      pop\n        /* \"#utility.yul\":24472:24590   */\n      pop\n        /* \"#utility.yul\":24421:24590   */\n      swap3\n      swap2\n      pop\n      pop\n      jump\t// out\n        /* \"#utility.yul\":24595:24890   */\n    tag_305:\n        /* \"#utility.yul\":24671:24675   */\n      0x00\n        /* \"#utility.yul\":24817:24846   */\n      tag_558\n        /* \"#utility.yul\":24842:24845   */\n      dup4\n        /* \"#utility.yul\":24836:24840   */\n      dup4\n        /* \"#utility.yul\":24817:24846   */\n      tag_304\n      jump\t// in\n    tag_558:\n        /* \"#utility.yul\":24809:24846   */\n      swap2\n      pop\n        /* \"#utility.yul\":24879:24882   */\n      dup3\n        /* \"#utility.yul\":24876:24877   */\n      0x02\n        /* \"#utility.yul\":24872:24883   */\n      mul\n        /* \"#utility.yul\":24866:24870   */\n      dup3\n        /* \"#utility.yul\":24863:24884   */\n      or\n        /* \"#utility.yul\":24855:24884   */\n      swap1\n      pop\n        /* \"#utility.yul\":24595:24890   */\n      swap3\n      swap2\n      pop\n      pop\n      jump\t// out\n        /* \"#utility.yul\":24895:26290   */\n    tag_130:\n        /* \"#utility.yul\":25012:25049   */\n      tag_560\n        /* \"#utility.yul\":25045:25048   */\n      dup3\n        /* \"#utility.yul\":25012:25049   */\n      tag_257\n      jump\t// in\n    tag_560:\n        /* \"#utility.yul\":25114:25132   */\n      0xffffffffffffffff\n        /* \"#utility.yul\":25106:25112   */\n      dup2\n        /* \"#utility.yul\":25103:25133   */\n      gt\n        /* \"#utility.yul\":25100:25156   */\n      iszero\n      tag_561\n      jumpi\n        /* \"#utility.yul\":25136:25154   */\n      tag_562\n      tag_264\n      jump\t// in\n    tag_562:\n        /* \"#utility.yul\":25100:25156   */\n    tag_561:\n        /* \"#utility.yul\":25180:25218   */\n      tag_563\n        /* \"#utility.yul\":25212:25216   */\n      dup3\n        /* \"#utility.yul\":25206:25217   */\n      sload\n        /* \"#utility.yul\":25180:25218   */\n      tag_98\n      jump\t// in\n    tag_563:\n        /* \"#utility.yul\":25265:25332   */\n      tag_564\n        /* \"#utility.yul\":25325:25331   */\n      dup3\n        /* \"#utility.yul\":25317:25323   */\n      dup3\n        /* \"#utility.yul\":25311:25315   */\n      dup6\n        /* \"#utility.yul\":25265:25332   */\n      tag_302\n      jump\t// in\n    tag_564:\n        /* \"#utility.yul\":25359:25360   */\n      0x00\n        /* \"#utility.yul\":25383:25387   */\n      0x20\n        /* \"#utility.yul\":25370:25387   */\n      swap1\n      pop\n        /* \"#utility.yul\":25415:25417   */\n      0x1f\n        /* \"#utility.yul\":25407:25413   */\n      dup4\n        /* \"#utility.yul\":25404:25418   */\n      gt\n        /* \"#utility.yul\":25432:25433   */\n      0x01\n        /* \"#utility.yul\":25427:26045   */\n      dup2\n      eq\n      tag_566\n      jumpi\n        /* \"#utility.yul\":26089:26090   */\n      0x00\n        /* \"#utility.yul\":26106:26112   */\n      dup5\n        /* \"#utility.yul\":26103:26180   */\n      iszero\n      tag_567\n      jumpi\n        /* \"#utility.yul\":26155:26164   */\n      dup3\n        /* \"#utility.yul\":26150:26153   */\n      dup8\n        /* \"#utility.yul\":26146:26165   */\n      add\n        /* \"#utility.yul\":26140:26166   */\n      mload\n        /* \"#utility.yul\":26131:26166   */\n      swap1\n      pop\n        /* \"#utility.yul\":26103:26180   */\n    tag_567:\n        /* \"#utility.yul\":26206:26273   */\n      tag_568\n        /* \"#utility.yul\":26266:26272   */\n      dup6\n        /* \"#utility.yul\":26259:26264   */\n      dup3\n        /* \"#utility.yul\":26206:26273   */\n      tag_305\n      jump\t// in\n    tag_568:\n        /* \"#utility.yul\":26200:26204   */\n      dup7\n        /* \"#utility.yul\":26193:26274   */\n      sstore\n        /* \"#utility.yul\":26062:26284   */\n      pop\n        /* \"#utility.yul\":25397:26284   */\n      jump(tag_565)\n        /* \"#utility.yul\":25427:26045   */\n    tag_566:\n        /* \"#utility.yul\":25479:25483   */\n      0x1f\n        /* \"#utility.yul\":25475:25484   */\n      not\n        /* \"#utility.yul\":25467:25473   */\n      dup5\n        /* \"#utility.yul\":25463:25485   */\n      and\n        /* \"#utility.yul\":25513:25550   */\n      tag_569\n        /* \"#utility.yul\":25545:25549   */\n      dup7\n        /* \"#utility.yul\":25513:25550   */\n      tag_290\n      jump\t// in\n    tag_569:\n        /* \"#utility.yul\":25572:25573   */\n      0x00\n        /* \"#utility.yul\":25586:25794   */\n    tag_570:\n        /* \"#utility.yul\":25600:25607   */\n      dup3\n        /* \"#utility.yul\":25597:25598   */\n      dup2\n        /* \"#utility.yul\":25594:25608   */\n      lt\n        /* \"#utility.yul\":25586:25794   */\n      iszero\n      tag_572\n      jumpi\n        /* \"#utility.yul\":25679:25688   */\n      dup5\n        /* \"#utility.yul\":25674:25677   */\n      dup10\n        /* \"#utility.yul\":25670:25689   */\n      add\n        /* \"#utility.yul\":25664:25690   */\n      mload\n        /* \"#utility.yul\":25656:25662   */\n      dup3\n        /* \"#utility.yul\":25649:25691   */\n      sstore\n        /* \"#utility.yul\":25730:25731   */\n      0x01\n        /* \"#utility.yul\":25722:25728   */\n      dup3\n        /* \"#utility.yul\":25718:25732   */\n      add\n        /* \"#utility.yul\":25708:25732   */\n      swap2\n      pop\n        /* \"#utility.yul\":25777:25779   */\n      0x20\n        /* \"#utility.yul\":25766:25775   */\n      dup6\n        /* \"#utility.yul\":25762:25780   */\n      add\n        /* \"#utility.yul\":25749:25780   */\n      swap5\n      pop\n        /* \"#utility.yul\":25623:25627   */\n      0x20\n        /* \"#utility.yul\":25620:25621   */\n      dup2\n        /* \"#utility.yul\":25616:25628   */\n      add\n        /* \"#utility.yul\":25611:25628   */\n      swap1\n      pop\n        /* \"#utility.yul\":25586:25794   */\n      jump(tag_570)\n    tag_572:\n        /* \"#utility.yul\":25822:25828   */\n      dup7\n        /* \"#utility.yul\":25813:25820   */\n      dup4\n        /* \"#utility.yul\":25810:25829   */\n      lt\n        /* \"#utility.yul\":25807:25986   */\n      iszero\n      tag_573\n      jumpi\n        /* \"#utility.yul\":25880:25889   */\n      dup5\n        /* \"#utility.yul\":25875:25878   */\n      dup10\n        /* \"#utility.yul\":25871:25890   */\n      add\n        /* \"#utility.yul\":25865:25891   */\n      mload\n        /* \"#utility.yul\":25923:25971   */\n      tag_574\n        /* \"#utility.yul\":25965:25969   */\n      0x1f\n        /* \"#utility.yul\":25957:25963   */\n      dup10\n        /* \"#utility.yul\":25953:25970   */\n      and\n        /* \"#utility.yul\":25942:25951   */\n      dup3\n        /* \"#utility.yul\":25923:25971   */\n      tag_304\n      jump\t// in\n    tag_574:\n        /* \"#utility.yul\":25915:25921   */\n      dup4\n        /* \"#utility.yul\":25908:25972   */\n      sstore\n        /* \"#utility.yul\":25830:25986   */\n      pop\n        /* \"#utility.yul\":25807:25986   */\n    tag_573:\n        /* \"#utility.yul\":26032:26033   */\n      0x01\n        /* \"#utility.yul\":26028:26029   */\n      0x02\n        /* \"#utility.yul\":26020:26026   */\n      dup9\n        /* \"#utility.yul\":26016:26030   */\n      mul\n        /* \"#utility.yul\":26012:26034   */\n      add\n        /* \"#utility.yul\":26006:26010   */\n      dup9\n        /* \"#utility.yul\":25999:26035   */\n      sstore\n        /* \"#utility.yul\":25434:26045   */\n      pop\n      pop\n      pop\n        /* \"#utility.yul\":25397:26284   */\n    tag_565:\n      pop\n        /* \"#utility.yul\":24987:26290   */\n      pop\n      pop\n      pop\n        /* \"#utility.yul\":24895:26290   */\n      pop\n      pop\n      jump\t// out\n        /* \"#utility.yul\":26296:26810   */\n    tag_136:\n        /* \"#utility.yul\":26457:26461   */\n      0x00\n        /* \"#utility.yul\":26495:26497   */\n      0x40\n        /* \"#utility.yul\":26484:26493   */\n      dup3\n        /* \"#utility.yul\":26480:26498   */\n      add\n        /* \"#utility.yul\":26472:26498   */\n      swap1\n      pop\n        /* \"#utility.yul\":26544:26553   */\n      dup2\n        /* \"#utility.yul\":26538:26542   */\n      dup2\n        /* \"#utility.yul\":26534:26554   */\n      sub\n        /* \"#utility.yul\":26530:26531   */\n      0x00\n        /* \"#utility.yul\":26519:26528   */\n      dup4\n        /* \"#utility.yul\":26515:26532   */\n      add\n        /* \"#utility.yul\":26508:26555   */\n      mstore\n        /* \"#utility.yul\":26572:26650   */\n      tag_576\n        /* \"#utility.yul\":26645:26649   */\n      dup2\n        /* \"#utility.yul\":26636:26642   */\n      dup6\n        /* \"#utility.yul\":26572:26650   */\n      tag_261\n      jump\t// in\n    tag_576:\n        /* \"#utility.yul\":26564:26650   */\n      swap1\n      pop\n        /* \"#utility.yul\":26697:26706   */\n      dup2\n        /* \"#utility.yul\":26691:26695   */\n      dup2\n        /* \"#utility.yul\":26687:26707   */\n      sub\n        /* \"#utility.yul\":26682:26684   */\n      0x20\n        /* \"#utility.yul\":26671:26680   */\n      dup4\n        /* \"#utility.yul\":26667:26685   */\n      add\n        /* \"#utility.yul\":26660:26708   */\n      mstore\n        /* \"#utility.yul\":26725:26803   */\n      tag_577\n        /* \"#utility.yul\":26798:26802   */\n      dup2\n        /* \"#utility.yul\":26789:26795   */\n      dup5\n        /* \"#utility.yul\":26725:26803   */\n      tag_261\n      jump\t// in\n    tag_577:\n        /* \"#utility.yul\":26717:26803   */\n      swap1\n      pop\n        /* \"#utility.yul\":26296:26810   */\n      swap4\n      swap3\n      pop\n      pop\n      pop\n      jump\t// out\n        /* \"#utility.yul\":26816:26991   */\n    tag_306:\n        /* \"#utility.yul\":26956:26983   */\n      0x4e6f74206120726567697374657265642070617469656e742e00000000000000\n        /* \"#utility.yul\":26952:26953   */\n      0x00\n        /* \"#utility.yul\":26944:26950   */\n      dup3\n        /* \"#utility.yul\":26940:26954   */\n      add\n        /* \"#utility.yul\":26933:26984   */\n      mstore\n        /* \"#utility.yul\":26816:26991   */\n      pop\n      jump\t// out\n        /* \"#utility.yul\":26997:27363   */\n    tag_307:\n        /* \"#utility.yul\":27139:27142   */\n      0x00\n        /* \"#utility.yul\":27160:27227   */\n      tag_580\n        /* \"#utility.yul\":27224:27226   */\n      0x19\n        /* \"#utility.yul\":27219:27222   */\n      dup4\n        /* \"#utility.yul\":27160:27227   */\n      tag_258\n      jump\t// in\n    tag_580:\n        /* \"#utility.yul\":27153:27227   */\n      swap2\n      pop\n        /* \"#utility.yul\":27236:27329   */\n      tag_581\n        /* \"#utility.yul\":27325:27328   */\n      dup3\n        /* \"#utility.yul\":27236:27329   */\n      tag_306\n      jump\t// in\n    tag_581:\n        /* \"#utility.yul\":27354:27356   */\n      0x20\n        /* \"#utility.yul\":27349:27352   */\n      dup3\n        /* \"#utility.yul\":27345:27357   */\n      add\n        /* \"#utility.yul\":27338:27357   */\n      swap1\n      pop\n        /* \"#utility.yul\":26997:27363   */\n      swap2\n      swap1\n      pop\n      jump\t// out\n        /* \"#utility.yul\":27369:27788   */\n    tag_140:\n        /* \"#utility.yul\":27535:27539   */\n      0x00\n        /* \"#utility.yul\":27573:27575   */\n      0x20\n        /* \"#utility.yul\":27562:27571   */\n      dup3\n        /* \"#utility.yul\":27558:27576   */\n      add\n        /* \"#utility.yul\":27550:27576   */\n      swap1\n      pop\n        /* \"#utility.yul\":27622:27631   */\n      dup2\n        /* \"#utility.yul\":27616:27620   */\n      dup2\n        /* \"#utility.yul\":27612:27632   */\n      sub\n        /* \"#utility.yul\":27608:27609   */\n      0x00\n        /* \"#utility.yul\":27597:27606   */\n      dup4\n        /* \"#utility.yul\":27593:27610   */\n      add\n        /* \"#utility.yul\":27586:27633   */\n      mstore\n        /* \"#utility.yul\":27650:27781   */\n      tag_583\n        /* \"#utility.yul\":27776:27780   */\n      dup2\n        /* \"#utility.yul\":27650:27781   */\n      tag_307\n      jump\t// in\n    tag_583:\n        /* \"#utility.yul\":27642:27781   */\n      swap1\n      pop\n        /* \"#utility.yul\":27369:27788   */\n      swap2\n      swap1\n      pop\n      jump\t// out\n        /* \"#utility.yul\":27794:27976   */\n    tag_308:\n        /* \"#utility.yul\":27934:27968   */\n      0x416c7265616479207265676973746572656420617320612070617469656e742e\n        /* \"#utility.yul\":27930:27931   */\n      0x00\n        /* \"#utility.yul\":27922:27928   */\n      dup3\n        /* \"#utility.yul\":27918:27932   */\n      add\n        /* \"#utility.yul\":27911:27969   */\n      mstore\n        /* \"#utility.yul\":27794:27976   */\n      pop\n      jump\t// out\n        /* \"#utility.yul\":27982:28348   */\n    tag_309:\n        /* \"#utility.yul\":28124:28127   */\n      0x00\n        /* \"#utility.yul\":28145:28212   */\n      tag_586\n        /* \"#utility.yul\":28209:28211   */\n      0x20\n        /* \"#utility.yul\":28204:28207   */\n      dup4\n        /* \"#utility.yul\":28145:28212   */\n      tag_258\n      jump\t// in\n    tag_586:\n        /* \"#utility.yul\":28138:28212   */\n      swap2\n      pop\n        /* \"#utility.yul\":28221:28314   */\n      tag_587\n        /* \"#utility.yul\":28310:28313   */\n      dup3\n        /* \"#utility.yul\":28221:28314   */\n      tag_308\n      jump\t// in\n    tag_587:\n        /* \"#utility.yul\":28339:28341   */\n      0x20\n        /* \"#utility.yul\":28334:28337   */\n      dup3\n        /* \"#utility.yul\":28330:28342   */\n      add\n        /* \"#utility.yul\":28323:28342   */\n      swap1\n      pop\n        /* \"#utility.yul\":27982:28348   */\n      swap2\n      swap1\n      pop\n      jump\t// out\n        /* \"#utility.yul\":28354:28773   */\n    tag_164:\n        /* \"#utility.yul\":28520:28524   */\n      0x00\n        /* \"#utility.yul\":28558:28560   */\n      0x20\n        /* \"#utility.yul\":28547:28556   */\n      dup3\n        /* \"#utility.yul\":28543:28561   */\n      add\n        /* \"#utility.yul\":28535:28561   */\n      swap1\n      pop\n        /* \"#utility.yul\":28607:28616   */\n      dup2\n        /* \"#utility.yul\":28601:28605   */\n      dup2\n        /* \"#utility.yul\":28597:28617   */\n      sub\n        /* \"#utility.yul\":28593:28594   */\n      0x00\n        /* \"#utility.yul\":28582:28591   */\n      dup4\n        /* \"#utility.yul\":28578:28595   */\n      add\n        /* \"#utility.yul\":28571:28618   */\n      mstore\n        /* \"#utility.yul\":28635:28766   */\n      tag_589\n        /* \"#utility.yul\":28761:28765   */\n      dup2\n        /* \"#utility.yul\":28635:28766   */\n      tag_309\n      jump\t// in\n    tag_589:\n        /* \"#utility.yul\":28627:28766   */\n      swap1\n      pop\n        /* \"#utility.yul\":28354:28773   */\n      swap2\n      swap1\n      pop\n      jump\t// out\n        /* \"#utility.yul\":28779:29002   */\n    tag_310:\n        /* \"#utility.yul\":28919:28953   */\n      0x446f63746f72732063616e6e6f74207265676973746572206173207061746965\n        /* \"#utility.yul\":28915:28916   */\n      0x00\n        /* \"#utility.yul\":28907:28913   */\n      dup3\n        /* \"#utility.yul\":28903:28917   */\n      add\n        /* \"#utility.yul\":28896:28954   */\n      mstore\n        /* \"#utility.yul\":28988:28994   */\n      0x6e74732e00000000000000000000000000000000000000000000000000000000\n        /* \"#utility.yul\":28983:28985   */\n      0x20\n        /* \"#utility.yul\":28975:28981   */\n      dup3\n        /* \"#utility.yul\":28971:28986   */\n      add\n        /* \"#utility.yul\":28964:28995   */\n      mstore\n        /* \"#utility.yul\":28779:29002   */\n      pop\n      jump\t// out\n        /* \"#utility.yul\":29008:29374   */\n    tag_311:\n        /* \"#utility.yul\":29150:29153   */\n      0x00\n        /* \"#utility.yul\":29171:29238   */\n      tag_592\n        /* \"#utility.yul\":29235:29237   */\n      0x24\n        /* \"#utility.yul\":29230:29233   */\n      dup4\n        /* \"#utility.yul\":29171:29238   */\n      tag_258\n      jump\t// in\n    tag_592:\n        /* \"#utility.yul\":29164:29238   */\n      swap2\n      pop\n        /* \"#utility.yul\":29247:29340   */\n      tag_593\n        /* \"#utility.yul\":29336:29339   */\n      dup3\n        /* \"#utility.yul\":29247:29340   */\n      tag_310\n      jump\t// in\n    tag_593:\n        /* \"#utility.yul\":29365:29367   */\n      0x40\n        /* \"#utility.yul\":29360:29363   */\n      dup3\n        /* \"#utility.yul\":29356:29368   */\n      add\n        /* \"#utility.yul\":29349:29368   */\n      swap1\n      pop\n        /* \"#utility.yul\":29008:29374   */\n      swap2\n      swap1\n      pop\n      jump\t// out\n        /* \"#utility.yul\":29380:29799   */\n    tag_167:\n        /* \"#utility.yul\":29546:29550   */\n      0x00\n        /* \"#utility.yul\":29584:29586   */\n      0x20\n        /* \"#utility.yul\":29573:29582   */\n      dup3\n        /* \"#utility.yul\":29569:29587   */\n      add\n        /* \"#utility.yul\":29561:29587   */\n      swap1\n      pop\n        /* \"#utility.yul\":29633:29642   */\n      dup2\n        /* \"#utility.yul\":29627:29631   */\n      dup2\n        /* \"#utility.yul\":29623:29643   */\n      sub\n        /* \"#utility.yul\":29619:29620   */\n      0x00\n        /* \"#utility.yul\":29608:29617   */\n      dup4\n        /* \"#utility.yul\":29604:29621   */\n      add\n        /* \"#utility.yul\":29597:29644   */\n      mstore\n        /* \"#utility.yul\":29661:29792   */\n      tag_595\n        /* \"#utility.yul\":29787:29791   */\n      dup2\n        /* \"#utility.yul\":29661:29792   */\n      tag_311\n      jump\t// in\n    tag_595:\n        /* \"#utility.yul\":29653:29792   */\n      swap1\n      pop\n        /* \"#utility.yul\":29380:29799   */\n      swap2\n      swap1\n      pop\n      jump\t// out\n        /* \"#utility.yul\":29805:29980   */\n    tag_312:\n        /* \"#utility.yul\":29945:29972   */\n      0x4e6f7420616e20617574686f72697a656420646f63746f722e00000000000000\n        /* \"#utility.yul\":29941:29942   */\n      0x00\n        /* \"#utility.yul\":29933:29939   */\n      dup3\n        /* \"#utility.yul\":29929:29943   */\n      add\n        /* \"#utility.yul\":29922:29973   */\n      mstore\n        /* \"#utility.yul\":29805:29980   */\n      pop\n      jump\t// out\n        /* \"#utility.yul\":29986:30352   */\n    tag_313:\n        /* \"#utility.yul\":30128:30131   */\n      0x00\n        /* \"#utility.yul\":30149:30216   */\n      tag_598\n        /* \"#utility.yul\":30213:30215   */\n      0x19\n        /* \"#utility.yul\":30208:30211   */\n      dup4\n        /* \"#utility.yul\":30149:30216   */\n      tag_258\n      jump\t// in\n    tag_598:\n        /* \"#utility.yul\":30142:30216   */\n      swap2\n      pop\n        /* \"#utility.yul\":30225:30318   */\n      tag_599\n        /* \"#utility.yul\":30314:30317   */\n      dup3\n        /* \"#utility.yul\":30225:30318   */\n      tag_312\n      jump\t// in\n    tag_599:\n        /* \"#utility.yul\":30343:30345   */\n      0x20\n        /* \"#utility.yul\":30338:30341   */\n      dup3\n        /* \"#utility.yul\":30334:30346   */\n      add\n        /* \"#utility.yul\":30327:30346   */\n      swap1\n      pop\n        /* \"#utility.yul\":29986:30352   */\n      swap2\n      swap1\n      pop\n      jump\t// out\n        /* \"#utility.yul\":30358:30777   */\n    tag_176:\n        /* \"#utility.yul\":30524:30528   */\n      0x00\n        /* \"#utility.yul\":30562:30564   */\n      0x20\n        /* \"#utility.yul\":30551:30560   */\n      dup3\n        /* \"#utility.yul\":30547:30565   */\n      add\n        /* \"#utility.yul\":30539:30565   */\n      swap1\n      pop\n        /* \"#utility.yul\":30611:30620   */\n      dup2\n        /* \"#utility.yul\":30605:30609   */\n      dup2\n        /* \"#utility.yul\":30601:30621   */\n      sub\n        /* \"#utility.yul\":30597:30598   */\n      0x00\n        /* \"#utility.yul\":30586:30595   */\n      dup4\n        /* \"#utility.yul\":30582:30599   */\n      add\n        /* \"#utility.yul\":30575:30622   */\n      mstore\n        /* \"#utility.yul\":30639:30770   */\n      tag_601\n        /* \"#utility.yul\":30765:30769   */\n      dup2\n        /* \"#utility.yul\":30639:30770   */\n      tag_313\n      jump\t// in\n    tag_601:\n        /* \"#utility.yul\":30631:30770   */\n      swap1\n      pop\n        /* \"#utility.yul\":30358:30777   */\n      swap2\n      swap1\n      pop\n      jump\t// out\n        /* \"#utility.yul\":30783:31017   */\n    tag_314:\n        /* \"#utility.yul\":30923:30957   */\n      0x50617469656e7420686173206e6f74206772616e74656420636f6e73656e7420\n        /* \"#utility.yul\":30919:30920   */\n      0x00\n        /* \"#utility.yul\":30911:30917   */\n      dup3\n        /* \"#utility.yul\":30907:30921   */\n      add\n        /* \"#utility.yul\":30900:30958   */\n      mstore\n        /* \"#utility.yul\":30992:31009   */\n      0x746f207468697320646f63746f722e0000000000000000000000000000000000\n        /* \"#utility.yul\":30987:30989   */\n      0x20\n        /* \"#utility.yul\":30979:30985   */\n      dup3\n        /* \"#utility.yul\":30975:30990   */\n      add\n        /* \"#utility.yul\":30968:31010   */\n      mstore\n        /* \"#utility.yul\":30783:31017   */\n      pop\n      jump\t// out\n        /* \"#utility.yul\":31023:31389   */\n    tag_315:\n        /* \"#utility.yul\":31165:31168   */\n      0x00\n        /* \"#utility.yul\":31186:31253   */\n      tag_604\n        /* \"#utility.yul\":31250:31252   */\n      0x2f\n        /* \"#utility.yul\":31245:31248   */\n      dup4\n        /* \"#utility.yul\":31186:31253   */\n      tag_258\n      jump\t// in\n    tag_604:\n        /* \"#utility.yul\":31179:31253   */\n      swap2\n      pop\n        /* \"#utility.yul\":31262:31355   */\n      tag_605\n        /* \"#utility.yul\":31351:31354   */\n      dup3\n        /* \"#utility.yul\":31262:31355   */\n      tag_314\n      jump\t// in\n    tag_605:\n        /* \"#utility.yul\":31380:31382   */\n      0x40\n        /* \"#utility.yul\":31375:31378   */\n      dup3\n        /* \"#utility.yul\":31371:31383   */\n      add\n        /* \"#utility.yul\":31364:31383   */\n      swap1\n      pop\n        /* \"#utility.yul\":31023:31389   */\n      swap2\n      swap1\n      pop\n      jump\t// out\n        /* \"#utility.yul\":31395:31814   */\n    tag_188:\n        /* \"#utility.yul\":31561:31565   */\n      0x00\n        /* \"#utility.yul\":31599:31601   */\n      0x20\n        /* \"#utility.yul\":31588:31597   */\n      dup3\n        /* \"#utility.yul\":31584:31602   */\n      add\n        /* \"#utility.yul\":31576:31602   */\n      swap1\n      pop\n        /* \"#utility.yul\":31648:31657   */\n      dup2\n        /* \"#utility.yul\":31642:31646   */\n      dup2\n        /* \"#utility.yul\":31638:31658   */\n      sub\n        /* \"#utility.yul\":31634:31635   */\n      0x00\n        /* \"#utility.yul\":31623:31632   */\n      dup4\n        /* \"#utility.yul\":31619:31636   */\n      add\n        /* \"#utility.yul\":31612:31659   */\n      mstore\n        /* \"#utility.yul\":31676:31807   */\n      tag_607\n        /* \"#utility.yul\":31802:31806   */\n      dup2\n        /* \"#utility.yul\":31676:31807   */\n      tag_315\n      jump\t// in\n    tag_607:\n        /* \"#utility.yul\":31668:31807   */\n      swap1\n      pop\n        /* \"#utility.yul\":31395:31814   */\n      swap2\n      swap1\n      pop\n      jump\t// out\n        /* \"#utility.yul\":31820:32001   */\n    tag_316:\n        /* \"#utility.yul\":31960:31993   */\n      0x456e6372797074656420646174612063616e6e6f7420626520656d7074792e00\n        /* \"#utility.yul\":31956:31957   */\n      0x00\n        /* \"#utility.yul\":31948:31954   */\n      dup3\n        /* \"#utility.yul\":31944:31958   */\n      add\n        /* \"#utility.yul\":31937:31994   */\n      mstore\n        /* \"#utility.yul\":31820:32001   */\n      pop\n      jump\t// out\n        /* \"#utility.yul\":32007:32373   */\n    tag_317:\n        /* \"#utility.yul\":32149:32152   */\n      0x00\n        /* \"#utility.yul\":32170:32237   */\n      tag_610\n        /* \"#utility.yul\":32234:32236   */\n      0x1f\n        /* \"#utility.yul\":32229:32232   */\n      dup4\n        /* \"#utility.yul\":32170:32237   */\n      tag_258\n      jump\t// in\n    tag_610:\n        /* \"#utility.yul\":32163:32237   */\n      swap2\n      pop\n        /* \"#utility.yul\":32246:32339   */\n      tag_611\n        /* \"#utility.yul\":32335:32338   */\n      dup3\n        /* \"#utility.yul\":32246:32339   */\n      tag_316\n      jump\t// in\n    tag_611:\n        /* \"#utility.yul\":32364:32366   */\n      0x20\n        /* \"#utility.yul\":32359:32362   */\n      dup3\n        /* \"#utility.yul\":32355:32367   */\n      add\n        /* \"#utility.yul\":32348:32367   */\n      swap1\n      pop\n        /* \"#utility.yul\":32007:32373   */\n      swap2\n      swap1\n      pop\n      jump\t// out\n        /* \"#utility.yul\":32379:32798   */\n    tag_191:\n        /* \"#utility.yul\":32545:32549   */\n      0x00\n        /* \"#utility.yul\":32583:32585   */\n      0x20\n        /* \"#utility.yul\":32572:32581   */\n      dup3\n        /* \"#utility.yul\":32568:32586   */\n      add\n        /* \"#utility.yul\":32560:32586   */\n      swap1\n      pop\n        /* \"#utility.yul\":32632:32641   */\n      dup2\n        /* \"#utility.yul\":32626:32630   */\n      dup2\n        /* \"#utility.yul\":32622:32642   */\n      sub\n        /* \"#utility.yul\":32618:32619   */\n      0x00\n        /* \"#utility.yul\":32607:32616   */\n      dup4\n        /* \"#utility.yul\":32603:32620   */\n      add\n        /* \"#utility.yul\":32596:32643   */\n      mstore\n        /* \"#utility.yul\":32660:32791   */\n      tag_613\n        /* \"#utility.yul\":32786:32790   */\n      dup2\n        /* \"#utility.yul\":32660:32791   */\n      tag_317\n      jump\t// in\n    tag_613:\n        /* \"#utility.yul\":32652:32791   */\n      swap1\n      pop\n        /* \"#utility.yul\":32379:32798   */\n      swap2\n      swap1\n      pop\n      jump\t// out\n        /* \"#utility.yul\":32804:32922   */\n    tag_318:\n        /* \"#utility.yul\":32891:32915   */\n      tag_615\n        /* \"#utility.yul\":32909:32914   */\n      dup2\n        /* \"#utility.yul\":32891:32915   */\n      tag_294\n      jump\t// in\n    tag_615:\n        /* \"#utility.yul\":32886:32889   */\n      dup3\n        /* \"#utility.yul\":32879:32916   */\n      mstore\n        /* \"#utility.yul\":32804:32922   */\n      pop\n      pop\n      jump\t// out\n        /* \"#utility.yul\":32928:33026   */\n    tag_319:\n        /* \"#utility.yul\":32979:32985   */\n      0x00\n        /* \"#utility.yul\":33013:33018   */\n      dup2\n        /* \"#utility.yul\":33007:33019   */\n      mload\n        /* \"#utility.yul\":32997:33019   */\n      swap1\n      pop\n        /* \"#utility.yul\":32928:33026   */\n      swap2\n      swap1\n      pop\n      jump\t// out\n        /* \"#utility.yul\":33032:33200   */\n    tag_320:\n        /* \"#utility.yul\":33115:33126   */\n      0x00\n        /* \"#utility.yul\":33149:33155   */\n      dup3\n        /* \"#utility.yul\":33144:33147   */\n      dup3\n        /* \"#utility.yul\":33137:33156   */\n      mstore\n        /* \"#utility.yul\":33189:33193   */\n      0x20\n        /* \"#utility.yul\":33184:33187   */\n      dup3\n        /* \"#utility.yul\":33180:33194   */\n      add\n        /* \"#utility.yul\":33165:33194   */\n      swap1\n      pop\n        /* \"#utility.yul\":33032:33200   */\n      swap3\n      swap2\n      pop\n      pop\n      jump\t// out\n        /* \"#utility.yul\":33206:33579   */\n    tag_321:\n        /* \"#utility.yul\":33292:33295   */\n      0x00\n        /* \"#utility.yul\":33320:33358   */\n      tag_619\n        /* \"#utility.yul\":33352:33357   */\n      dup3\n        /* \"#utility.yul\":33320:33358   */\n      tag_319\n      jump\t// in\n    tag_619:\n        /* \"#utility.yul\":33374:33444   */\n      tag_620\n        /* \"#utility.yul\":33437:33443   */\n      dup2\n        /* \"#utility.yul\":33432:33435   */\n      dup6\n        /* \"#utility.yul\":33374:33444   */\n      tag_320\n      jump\t// in\n    tag_620:\n        /* \"#utility.yul\":33367:33444   */\n      swap4\n      pop\n        /* \"#utility.yul\":33453:33518   */\n      tag_621\n        /* \"#utility.yul\":33511:33517   */\n      dup2\n        /* \"#utility.yul\":33506:33509   */\n      dup6\n        /* \"#utility.yul\":33499:33503   */\n      0x20\n        /* \"#utility.yul\":33492:33497   */\n      dup7\n        /* \"#utility.yul\":33488:33504   */\n      add\n        /* \"#utility.yul\":33453:33518   */\n      tag_259\n      jump\t// in\n    tag_621:\n        /* \"#utility.yul\":33543:33572   */\n      tag_622\n        /* \"#utility.yul\":33565:33571   */\n      dup2\n        /* \"#utility.yul\":33543:33572   */\n      tag_260\n      jump\t// in\n    tag_622:\n        /* \"#utility.yul\":33538:33541   */\n      dup5\n        /* \"#utility.yul\":33534:33573   */\n      add\n        /* \"#utility.yul\":33527:33573   */\n      swap2\n      pop\n        /* \"#utility.yul\":33296:33579   */\n      pop\n        /* \"#utility.yul\":33206:33579   */\n      swap3\n      swap2\n      pop\n      pop\n      jump\t// out\n        /* \"#utility.yul\":33585:34004   */\n    tag_193:\n        /* \"#utility.yul\":33724:33728   */\n      0x00\n        /* \"#utility.yul\":33762:33764   */\n      0x40\n        /* \"#utility.yul\":33751:33760   */\n      dup3\n        /* \"#utility.yul\":33747:33765   */\n      add\n        /* \"#utility.yul\":33739:33765   */\n      swap1\n      pop\n        /* \"#utility.yul\":33775:33846   */\n      tag_624\n        /* \"#utility.yul\":33843:33844   */\n      0x00\n        /* \"#utility.yul\":33832:33841   */\n      dup4\n        /* \"#utility.yul\":33828:33845   */\n      add\n        /* \"#utility.yul\":33819:33825   */\n      dup6\n        /* \"#utility.yul\":33775:33846   */\n      tag_318\n      jump\t// in\n    tag_624:\n        /* \"#utility.yul\":33893:33902   */\n      dup2\n        /* \"#utility.yul\":33887:33891   */\n      dup2\n        /* \"#utility.yul\":33883:33903   */\n      sub\n        /* \"#utility.yul\":33878:33880   */\n      0x20\n        /* \"#utility.yul\":33867:33876   */\n      dup4\n        /* \"#utility.yul\":33863:33881   */\n      add\n        /* \"#utility.yul\":33856:33904   */\n      mstore\n        /* \"#utility.yul\":33921:33997   */\n      tag_625\n        /* \"#utility.yul\":33992:33996   */\n      dup2\n        /* \"#utility.yul\":33983:33989   */\n      dup5\n        /* \"#utility.yul\":33921:33997   */\n      tag_321\n      jump\t// in\n    tag_625:\n        /* \"#utility.yul\":33913:33997   */\n      swap1\n      pop\n        /* \"#utility.yul\":33585:34004   */\n      swap4\n      swap3\n      pop\n      pop\n      pop\n      jump\t// out\n        /* \"#utility.yul\":34010:34184   */\n    tag_322:\n        /* \"#utility.yul\":34150:34176   */\n      0x41646472657373206973206e6f74206120646f63746f722e0000000000000000\n        /* \"#utility.yul\":34146:34147   */\n      0x00\n        /* \"#utility.yul\":34138:34144   */\n      dup3\n        /* \"#utility.yul\":34134:34148   */\n      add\n        /* \"#utility.yul\":34127:34177   */\n      mstore\n        /* \"#utility.yul\":34010:34184   */\n      pop\n      jump\t// out\n        /* \"#utility.yul\":34190:34556   */\n    tag_323:\n        /* \"#utility.yul\":34332:34335   */\n      0x00\n        /* \"#utility.yul\":34353:34420   */\n      tag_628\n        /* \"#utility.yul\":34417:34419   */\n      0x18\n        /* \"#utility.yul\":34412:34415   */\n      dup4\n        /* \"#utility.yul\":34353:34420   */\n      tag_258\n      jump\t// in\n    tag_628:\n        /* \"#utility.yul\":34346:34420   */\n      swap2\n      pop\n        /* \"#utility.yul\":34429:34522   */\n      tag_629\n        /* \"#utility.yul\":34518:34521   */\n      dup3\n        /* \"#utility.yul\":34429:34522   */\n      tag_322\n      jump\t// in\n    tag_629:\n        /* \"#utility.yul\":34547:34549   */\n      0x20\n        /* \"#utility.yul\":34542:34545   */\n      dup3\n        /* \"#utility.yul\":34538:34550   */\n      add\n        /* \"#utility.yul\":34531:34550   */\n      swap1\n      pop\n        /* \"#utility.yul\":34190:34556   */\n      swap2\n      swap1\n      pop\n      jump\t// out\n        /* \"#utility.yul\":34562:34981   */\n    tag_200:\n        /* \"#utility.yul\":34728:34732   */\n      0x00\n        /* \"#utility.yul\":34766:34768   */\n      0x20\n        /* \"#utility.yul\":34755:34764   */\n      dup3\n        /* \"#utility.yul\":34751:34769   */\n      add\n        /* \"#utility.yul\":34743:34769   */\n      swap1\n      pop\n        /* \"#utility.yul\":34815:34824   */\n      dup2\n        /* \"#utility.yul\":34809:34813   */\n      dup2\n        /* \"#utility.yul\":34805:34825   */\n      sub\n        /* \"#utility.yul\":34801:34802   */\n      0x00\n        /* \"#utility.yul\":34790:34799   */\n      dup4\n        /* \"#utility.yul\":34786:34803   */\n      add\n        /* \"#utility.yul\":34779:34826   */\n      mstore\n        /* \"#utility.yul\":34843:34974   */\n      tag_631\n        /* \"#utility.yul\":34969:34973   */\n      dup2\n        /* \"#utility.yul\":34843:34974   */\n      tag_323\n      jump\t// in\n    tag_631:\n        /* \"#utility.yul\":34835:34974   */\n      swap1\n      pop\n        /* \"#utility.yul\":34562:34981   */\n      swap2\n      swap1\n      pop\n      jump\t// out\n        /* \"#utility.yul\":34987:35208   */\n    tag_324:\n        /* \"#utility.yul\":35127:35161   */\n      0x43616e6e6f742072656d6f766520746865206f776e657220617320646f63746f\n        /* \"#utility.yul\":35123:35124   */\n      0x00\n        /* \"#utility.yul\":35115:35121   */\n      dup3\n        /* \"#utility.yul\":35111:35125   */\n      add\n        /* \"#utility.yul\":35104:35162   */\n      mstore\n        /* \"#utility.yul\":35196:35200   */\n      0x722e000000000000000000000000000000000000000000000000000000000000\n        /* \"#utility.yul\":35191:35193   */\n      0x20\n        /* \"#utility.yul\":35183:35189   */\n      dup3\n        /* \"#utility.yul\":35179:35194   */\n      add\n        /* \"#utility.yul\":35172:35201   */\n      mstore\n        /* \"#utility.yul\":34987:35208   */\n      pop\n      jump\t// out\n        /* \"#utility.yul\":35214:35580   */\n    tag_325:\n        /* \"#utility.yul\":35356:35359   */\n      0x00\n        /* \"#utility.yul\":35377:35444   */\n      tag_634\n        /* \"#utility.yul\":35441:35443   */\n      0x22\n        /* \"#utility.yul\":35436:35439   */\n      dup4\n        /* \"#utility.yul\":35377:35444   */\n      tag_258\n      jump\t// in\n    tag_634:\n        /* \"#utility.yul\":35370:35444   */\n      swap2\n      pop\n        /* \"#utility.yul\":35453:35546   */\n      tag_635\n        /* \"#utility.yul\":35542:35545   */\n      dup3\n        /* \"#utility.yul\":35453:35546   */\n      tag_324\n      jump\t// in\n    tag_635:\n        /* \"#utility.yul\":35571:35573   */\n      0x40\n        /* \"#utility.yul\":35566:35569   */\n      dup3\n        /* \"#utility.yul\":35562:35574   */\n      add\n        /* \"#utility.yul\":35555:35574   */\n      swap1\n      pop\n        /* \"#utility.yul\":35214:35580   */\n      swap2\n      swap1\n      pop\n      jump\t// out\n        /* \"#utility.yul\":35586:36005   */\n    tag_203:\n        /* \"#utility.yul\":35752:35756   */\n      0x00\n        /* \"#utility.yul\":35790:35792   */\n      0x20\n        /* \"#utility.yul\":35779:35788   */\n      dup3\n        /* \"#utility.yul\":35775:35793   */\n      add\n        /* \"#utility.yul\":35767:35793   */\n      swap1\n      pop\n        /* \"#utility.yul\":35839:35848   */\n      dup2\n        /* \"#utility.yul\":35833:35837   */\n      dup2\n        /* \"#utility.yul\":35829:35849   */\n      sub\n        /* \"#utility.yul\":35825:35826   */\n      0x00\n        /* \"#utility.yul\":35814:35823   */\n      dup4\n        /* \"#utility.yul\":35810:35827   */\n      add\n        /* \"#utility.yul\":35803:35850   */\n      mstore\n        /* \"#utility.yul\":35867:35998   */\n      tag_637\n        /* \"#utility.yul\":35993:35997   */\n      dup2\n        /* \"#utility.yul\":35867:35998   */\n      tag_325\n      jump\t// in\n    tag_637:\n        /* \"#utility.yul\":35859:35998   */\n      swap1\n      pop\n        /* \"#utility.yul\":35586:36005   */\n      swap2\n      swap1\n      pop\n      jump\t// out\n        /* \"#utility.yul\":36011:36232   */\n    tag_326:\n        /* \"#utility.yul\":36151:36185   */\n      0x43616c6c6572206973206e6f7420612072656769737465726564207061746965\n        /* \"#utility.yul\":36147:36148   */\n      0x00\n        /* \"#utility.yul\":36139:36145   */\n      dup3\n        /* \"#utility.yul\":36135:36149   */\n      add\n        /* \"#utility.yul\":36128:36186   */\n      mstore\n        /* \"#utility.yul\":36220:36224   */\n      0x6e74000000000000000000000000000000000000000000000000000000000000\n        /* \"#utility.yul\":36215:36217   */\n      0x20\n        /* \"#utility.yul\":36207:36213   */\n      dup3\n        /* \"#utility.yul\":36203:36218   */\n      add\n        /* \"#utility.yul\":36196:36225   */\n      mstore\n        /* \"#utility.yul\":36011:36232   */\n      pop\n      jump\t// out\n        /* \"#utility.yul\":36238:36604   */\n    tag_327:\n        /* \"#utility.yul\":36380:36383   */\n      0x00\n        /* \"#utility.yul\":36401:36468   */\n      tag_640\n        /* \"#utility.yul\":36465:36467   */\n      0x22\n        /* \"#utility.yul\":36460:36463   */\n      dup4\n        /* \"#utility.yul\":36401:36468   */\n      tag_258\n      jump\t// in\n    tag_640:\n        /* \"#utility.yul\":36394:36468   */\n      swap2\n      pop\n        /* \"#utility.yul\":36477:36570   */\n      tag_641\n        /* \"#utility.yul\":36566:36569   */\n      dup3\n        /* \"#utility.yul\":36477:36570   */\n      tag_326\n      jump\t// in\n    tag_641:\n        /* \"#utility.yul\":36595:36597   */\n      0x40\n        /* \"#utility.yul\":36590:36593   */\n      dup3\n        /* \"#utility.yul\":36586:36598   */\n      add\n        /* \"#utility.yul\":36579:36598   */\n      swap1\n      pop\n        /* \"#utility.yul\":36238:36604   */\n      swap2\n      swap1\n      pop\n      jump\t// out\n        /* \"#utility.yul\":36610:37029   */\n    tag_207:\n        /* \"#utility.yul\":36776:36780   */\n      0x00\n        /* \"#utility.yul\":36814:36816   */\n      0x20\n        /* \"#utility.yul\":36803:36812   */\n      dup3\n        /* \"#utility.yul\":36799:36817   */\n      add\n        /* \"#utility.yul\":36791:36817   */\n      swap1\n      pop\n        /* \"#utility.yul\":36863:36872   */\n      dup2\n        /* \"#utility.yul\":36857:36861   */\n      dup2\n        /* \"#utility.yul\":36853:36873   */\n      sub\n        /* \"#utility.yul\":36849:36850   */\n      0x00\n        /* \"#utility.yul\":36838:36847   */\n      dup4\n        /* \"#utility.yul\":36834:36851   */\n      add\n        /* \"#utility.yul\":36827:36874   */\n      mstore\n        /* \"#utility.yul\":36891:37022   */\n      tag_643\n        /* \"#utility.yul\":37017:37021   */\n      dup2\n        /* \"#utility.yul\":36891:37022   */\n      tag_327\n      jump\t// in\n    tag_643:\n        /* \"#utility.yul\":36883:37022   */\n      swap1\n      pop\n        /* \"#utility.yul\":36610:37029   */\n      swap2\n      swap1\n      pop\n      jump\t// out\n        /* \"#utility.yul\":37035:37266   */\n    tag_328:\n        /* \"#utility.yul\":37175:37209   */\n      0x4e6f2070656e64696e6720636f6e73656e7420726571756573742066726f6d20\n        /* \"#utility.yul\":37171:37172   */\n      0x00\n        /* \"#utility.yul\":37163:37169   */\n      dup3\n        /* \"#utility.yul\":37159:37173   */\n      add\n        /* \"#utility.yul\":37152:37210   */\n      mstore\n        /* \"#utility.yul\":37244:37258   */\n      0x7468697320646f63746f722e0000000000000000000000000000000000000000\n        /* \"#utility.yul\":37239:37241   */\n      0x20\n        /* \"#utility.yul\":37231:37237   */\n      dup3\n        /* \"#utility.yul\":37227:37242   */\n      add\n        /* \"#utility.yul\":37220:37259   */\n      mstore\n        /* \"#utility.yul\":37035:37266   */\n      pop\n      jump\t// out\n        /* \"#utility.yul\":37272:37638   */\n    tag_329:\n        /* \"#utility.yul\":37414:37417   */\n      0x00\n        /* \"#utility.yul\":37435:37502   */\n      tag_646\n        /* \"#utility.yul\":37499:37501   */\n      0x2c\n        /* \"#utility.yul\":37494:37497   */\n      dup4\n        /* \"#utility.yul\":37435:37502   */\n      tag_258\n      jump\t// in\n    tag_646:\n        /* \"#utility.yul\":37428:37502   */\n      swap2\n      pop\n        /* \"#utility.yul\":37511:37604   */\n      tag_647\n        /* \"#utility.yul\":37600:37603   */\n      dup3\n        /* \"#utility.yul\":37511:37604   */\n      tag_328\n      jump\t// in\n    tag_647:\n        /* \"#utility.yul\":37629:37631   */\n      0x40\n        /* \"#utility.yul\":37624:37627   */\n      dup3\n        /* \"#utility.yul\":37620:37632   */\n      add\n        /* \"#utility.yul\":37613:37632   */\n      swap1\n      pop\n        /* \"#utility.yul\":37272:37638   */\n      swap2\n      swap1\n      pop\n      jump\t// out\n        /* \"#utility.yul\":37644:38063   */\n    tag_211:\n        /* \"#utility.yul\":37810:37814   */\n      0x00\n        /* \"#utility.yul\":37848:37850   */\n      0x20\n        /* \"#utility.yul\":37837:37846   */\n      dup3\n        /* \"#utility.yul\":37833:37851   */\n      add\n        /* \"#utility.yul\":37825:37851   */\n      swap1\n      pop\n        /* \"#utility.yul\":37897:37906   */\n      dup2\n        /* \"#utility.yul\":37891:37895   */\n      dup2\n        /* \"#utility.yul\":37887:37907   */\n      sub\n        /* \"#utility.yul\":37883:37884   */\n      0x00\n        /* \"#utility.yul\":37872:37881   */\n      dup4\n        /* \"#utility.yul\":37868:37885   */\n      add\n        /* \"#utility.yul\":37861:37908   */\n      mstore\n        /* \"#utility.yul\":37925:38056   */\n      tag_649\n        /* \"#utility.yul\":38051:38055   */\n      dup2\n        /* \"#utility.yul\":37925:38056   */\n      tag_329\n      jump\t// in\n    tag_649:\n        /* \"#utility.yul\":37917:38056   */\n      swap1\n      pop\n        /* \"#utility.yul\":37644:38063   */\n      swap2\n      swap1\n      pop\n      jump\t// out\n        /* \"#utility.yul\":38069:38292   */\n    tag_330:\n        /* \"#utility.yul\":38209:38243   */\n      0x41646472657373206973206e6f7420616e20617574686f72697a656420646f63\n        /* \"#utility.yul\":38205:38206   */\n      0x00\n        /* \"#utility.yul\":38197:38203   */\n      dup3\n        /* \"#utility.yul\":38193:38207   */\n      add\n        /* \"#utility.yul\":38186:38244   */\n      mstore\n        /* \"#utility.yul\":38278:38284   */\n      0x746f722e00000000000000000000000000000000000000000000000000000000\n        /* \"#utility.yul\":38273:38275   */\n      0x20\n        /* \"#utility.yul\":38265:38271   */\n      dup3\n        /* \"#utility.yul\":38261:38276   */\n      add\n        /* \"#utility.yul\":38254:38285   */\n      mstore\n        /* \"#utility.yul\":38069:38292   */\n      pop\n      jump\t// out\n        /* \"#utility.yul\":38298:38664   */\n    tag_331:\n        /* \"#utility.yul\":38440:38443   */\n      0x00\n        /* \"#utility.yul\":38461:38528   */\n      tag_652\n        /* \"#utility.yul\":38525:38527   */\n      0x24\n        /* \"#utility.yul\":38520:38523   */\n      dup4\n        /* \"#utility.yul\":38461:38528   */\n      tag_258\n      jump\t// in\n    tag_652:\n        /* \"#utility.yul\":38454:38528   */\n      swap2\n      pop\n        /* \"#utility.yul\":38537:38630   */\n      tag_653\n        /* \"#utility.yul\":38626:38629   */\n      dup3\n        /* \"#utility.yul\":38537:38630   */\n      tag_330\n      jump\t// in\n    tag_653:\n        /* \"#utility.yul\":38655:38657   */\n      0x40\n        /* \"#utility.yul\":38650:38653   */\n      dup3\n        /* \"#utility.yul\":38646:38658   */\n      add\n        /* \"#utility.yul\":38639:38658   */\n      swap1\n      pop\n        /* \"#utility.yul\":38298:38664   */\n      swap2\n      swap1\n      pop\n      jump\t// out\n        /* \"#utility.yul\":38670:39089   */\n    tag_218:\n        /* \"#utility.yul\":38836:38840   */\n      0x00\n        /* \"#utility.yul\":38874:38876   */\n      0x20\n        /* \"#utility.yul\":38863:38872   */\n      dup3\n        /* \"#utility.yul\":38859:38877   */\n      add\n        /* \"#utility.yul\":38851:38877   */\n      swap1\n      pop\n        /* \"#utility.yul\":38923:38932   */\n      dup2\n        /* \"#utility.yul\":38917:38921   */\n      dup2\n        /* \"#utility.yul\":38913:38933   */\n      sub\n        /* \"#utility.yul\":38909:38910   */\n      0x00\n        /* \"#utility.yul\":38898:38907   */\n      dup4\n        /* \"#utility.yul\":38894:38911   */\n      add\n        /* \"#utility.yul\":38887:38934   */\n      mstore\n        /* \"#utility.yul\":38951:39082   */\n      tag_655\n        /* \"#utility.yul\":39077:39081   */\n      dup2\n        /* \"#utility.yul\":38951:39082   */\n      tag_331\n      jump\t// in\n    tag_655:\n        /* \"#utility.yul\":38943:39082   */\n      swap1\n      pop\n        /* \"#utility.yul\":38670:39089   */\n      swap2\n      swap1\n      pop\n      jump\t// out\n\n    auxdata: 0xa264697066735822122050447daca009f0063732e798692d0a1dc687f87e85767b7b9c0a0fc6db32771a64736f6c63430008150033\n}\n",
				"bytecode": {
					"linkReferences": {},
					"object": "60a060405234801562000010575f80fd5b503373ffffffffffffffffffffffffffffffffffffffff1660808173ffffffffffffffffffffffffffffffffffffffff16815250506040518060c001604052806001151581526020016040518060400160405280600581526020017f41646d696e00000000000000000000000000000000000000000000000000000081525081526020016040518060400160405280600b81526020017f436c696e69632053616c6500000000000000000000000000000000000000000081525081526020016040518060400160405280600d81526020017f4d6f726f63636f2f52616261740000000000000000000000000000000000000081525081526020016040518060400160405280600581526020017f30383a303000000000000000000000000000000000000000000000000000000081525081526020016040518060400160405280600581526020017f31383a303000000000000000000000000000000000000000000000000000000081525081525060015f60805173ffffffffffffffffffffffffffffffffffffffff1673ffffffffffffffffffffffffffffffffffffffff1681526020019081526020015f205f820151815f015f6101000a81548160ff0219169083151502179055506020820151816001019081620001f191906200050f565b5060408201518160020190816200020991906200050f565b5060608201518160030190816200022191906200050f565b5060808201518160040190816200023991906200050f565b5060a08201518160050190816200025191906200050f565b5090505060805173ffffffffffffffffffffffffffffffffffffffff167f9388661dcd7dc6cff9b4e22ab9459ac0a2682f86cb52fc7a669a6e7f062bce4c6040516200029d906200069f565b60405180910390a2620006d4565b5f81519050919050565b7f4e487b71000000000000000000000000000000000000000000000000000000005f52604160045260245ffd5b7f4e487b71000000000000000000000000000000000000000000000000000000005f52602260045260245ffd5b5f60028204905060018216806200032757607f821691505b6020821081036200033d576200033c620002e2565b5b50919050565b5f819050815f5260205f209050919050565b5f6020601f8301049050919050565b5f82821b905092915050565b5f60088302620003a17fffffffffffffffffffffffffffffffffffffffffffffffffffffffffffffffff8262000364565b620003ad868362000364565b95508019841693508086168417925050509392505050565b5f819050919050565b5f819050919050565b5f620003f7620003f1620003eb84620003c5565b620003ce565b620003c5565b9050919050565b5f819050919050565b6200041283620003d7565b6200042a6200042182620003fe565b84845462000370565b825550505050565b5f90565b6200044062000432565b6200044d81848462000407565b505050565b5b818110156200047457620004685f8262000436565b60018101905062000453565b5050565b601f821115620004c3576200048d8162000343565b620004988462000355565b81016020851015620004a8578190505b620004c0620004b78562000355565b83018262000452565b50505b505050565b5f82821c905092915050565b5f620004e55f1984600802620004c8565b1980831691505092915050565b5f620004ff8383620004d4565b9150826002028217905092915050565b6200051a82620002ab565b67ffffffffffffffff811115620005365762000535620002b5565b5b6200054282546200030f565b6200054f82828562000478565b5f60209050601f83116001811462000585575f841562000570578287015190505b6200057c8582620004f2565b865550620005eb565b601f198416620005958662000343565b5f5b82811015620005be5784890151825560018201915060208501945060208101905062000597565b86831015620005de5784890151620005da601f891682620004d4565b8355505b6001600288020188555050505b505050505050565b5f82825260208201905092915050565b7f41646d696e0000000000000000000000000000000000000000000000000000005f82015250565b5f62000639600583620005f3565b9150620006468262000603565b602082019050919050565b7f436c696e69632053616c650000000000000000000000000000000000000000005f82015250565b5f62000687600b83620005f3565b9150620006948262000651565b602082019050919050565b5f6040820190508181035f830152620006b8816200062b565b90508181036020830152620006cd8162000679565b9050919050565b6080516134c2620007025f395f81816109040152818161151e01528181611542015261165b01526134c25ff3fe608060405234801561000f575f80fd5b50600436106100f3575f3560e01c806387fee61c11610095578063a79861f111610064578063a79861f114610284578063a9583c22146102a0578063d1a48627146102d5578063f68b68f6146102f1576100f3565b806387fee61c146102125780638da5cb5b1461022e57806398fc90e91461024c578063a46aef4014610268576100f3565b8063461a2082116100d1578063461a2082146101635780634ba0a0201461019657806353c1a042146101b25780635cbcd8eb146101e2576100f3565b8063037f8248146100f75780630869cfbc146101135780631128c9ea14610147575b5f80fd5b610111600480360381019061010c919061213b565b610321565b005b61012d6004803603810190610128919061213b565b6106ad565b60405161013e95949392919061220a565b60405180910390f35b610161600480360381019061015c91906123a3565b610902565b005b61017d6004803603810190610178919061213b565b610bfa565b60405161018d94939291906124b8565b60405180910390f35b6101b060048036038101906101ab9190612517565b610f51565b005b6101cc60048036038101906101c791906125eb565b61119a565b6040516101d99190612629565b60405180910390f35b6101fc60048036038101906101f7919061213b565b6111c4565b6040516102099190612642565b60405180910390f35b61022c60048036038101906102279190612700565b61131f565b005b61023661151c565b6040516102439190612769565b60405180910390f35b6102666004803603810190610261919061213b565b611540565b005b610282600480360381019061027d919061213b565b611783565b005b61029e6004803603810190610299919061213b565b6119bd565b005b6102ba60048036038101906102b5919061213b565b611c4e565b6040516102cc96959493929190612782565b60405180910390f35b6102ef60048036038101906102ea919061213b565b611f30565b005b61030b600480360381019061030691906125eb565b6120a6565b6040516103189190612629565b60405180910390f35b60015f3373ffffffffffffffffffffffffffffffffffffffff1673ffffffffffffffffffffffffffffffffffffffff1681526020019081526020015f205f015f9054906101000a900460ff166103ac576040517f08c379a00000000000000000000000000000000000000000000000000000000081526004016103a390612874565b60405180910390fd5b5f808273ffffffffffffffffffffffffffffffffffffffff1673ffffffffffffffffffffffffffffffffffffffff1681526020019081526020015f205f015f9054906101000a900460ff16610436576040517f08c379a000000000000000000000000000000000000000000000000000000000815260040161042d90612902565b60405180910390fd5b60025f8273ffffffffffffffffffffffffffffffffffffffff1673ffffffffffffffffffffffffffffffffffffffff1681526020019081526020015f205f3373ffffffffffffffffffffffffffffffffffffffff1673ffffffffffffffffffffffffffffffffffffffff1681526020019081526020015f205f9054906101000a900460ff16156104fb576040517f08c379a00000000000000000000000000000000000000000000000000000000081526004016104f29061296a565b60405180910390fd5b60035f8273ffffffffffffffffffffffffffffffffffffffff1673ffffffffffffffffffffffffffffffffffffffff1681526020019081526020015f205f3373ffffffffffffffffffffffffffffffffffffffff1673ffffffffffffffffffffffffffffffffffffffff1681526020019081526020015f205f9054906101000a900460ff16156105c0576040517f08c379a00000000000000000000000000000000000000000000000000000000081526004016105b7906129f8565b60405180910390fd5b600160035f8373ffffffffffffffffffffffffffffffffffffffff1673ffffffffffffffffffffffffffffffffffffffff1681526020019081526020015f205f3373ffffffffffffffffffffffffffffffffffffffff1673ffffffffffffffffffffffffffffffffffffffff1681526020019081526020015f205f6101000a81548160ff0219169083151502179055503373ffffffffffffffffffffffffffffffffffffffff168173ffffffffffffffffffffffffffffffffffffffff167f2836b27da25b9b18fc3a89b2e06ebbe3b7268f8291437c0bb6923b2b19212bcb60405160405180910390a350565b5f602052805f5260405f205f91509050805f015f9054906101000a900460ff16908060010180546106dd90612a43565b80601f016020809104026020016040519081016040528092919081815260200182805461070990612a43565b80156107545780601f1061072b57610100808354040283529160200191610754565b820191905f5260205f20905b81548152906001019060200180831161073757829003601f168201915b50505050509080600201805461076990612a43565b80601f016020809104026020016040519081016040528092919081815260200182805461079590612a43565b80156107e05780601f106107b7576101008083540402835291602001916107e0565b820191905f5260205f20905b8154815290600101906020018083116107c357829003601f168201915b5050505050908060030180546107f590612a43565b80601f016020809104026020016040519081016040528092919081815260200182805461082190612a43565b801561086c5780601f106108435761010080835404028352916020019161086c565b820191905f5260205f20905b81548152906001019060200180831161084f57829003601f168201915b50505050509080600401805461088190612a43565b80601f01602080910402602001604051908101604052809291908181526020018280546108ad90612a43565b80156108f85780601f106108cf576101008083540402835291602001916108f8565b820191905f5260205f20905b8154815290600101906020018083116108db57829003601f168201915b5050505050905085565b7f000000000000000000000000000000000000000000000000000000000000000073ffffffffffffffffffffffffffffffffffffffff163373ffffffffffffffffffffffffffffffffffffffff1614610990576040517f08c379a000000000000000000000000000000000000000000000000000000000815260040161098790612ae3565b60405180910390fd5b60015f8773ffffffffffffffffffffffffffffffffffffffff1673ffffffffffffffffffffffffffffffffffffffff1681526020019081526020015f205f015f9054906101000a900460ff1615610a1c576040517f08c379a0000000000000000000000000000000000000000000000000000000008152600401610a1390612b4b565b60405180910390fd5b5f808773ffffffffffffffffffffffffffffffffffffffff1673ffffffffffffffffffffffffffffffffffffffff1681526020019081526020015f205f015f9054906101000a900460ff1615610aa7576040517f08c379a0000000000000000000000000000000000000000000000000000000008152600401610a9e90612bd9565b60405180910390fd5b6040518060c001604052806001151581526020018681526020018581526020018481526020018381526020018281525060015f8873ffffffffffffffffffffffffffffffffffffffff1673ffffffffffffffffffffffffffffffffffffffff1681526020019081526020015f205f820151815f015f6101000a81548160ff0219169083151502179055506020820151816001019081610b469190612d9d565b506040820151816002019081610b5c9190612d9d565b506060820151816003019081610b729190612d9d565b506080820151816004019081610b889190612d9d565b5060a0820151816005019081610b9e9190612d9d565b509050508573ffffffffffffffffffffffffffffffffffffffff167f9388661dcd7dc6cff9b4e22ab9459ac0a2682f86cb52fc7a669a6e7f062bce4c8686604051610bea929190612e6c565b60405180910390a2505050505050565b6060806060805f808673ffffffffffffffffffffffffffffffffffffffff1673ffffffffffffffffffffffffffffffffffffffff1681526020019081526020015f205f015f9054906101000a900460ff16610c8a576040517f08c379a0000000000000000000000000000000000000000000000000000000008152600401610c8190612eeb565b60405180910390fd5b5f805f8773ffffffffffffffffffffffffffffffffffffffff1673ffffffffffffffffffffffffffffffffffffffff1681526020019081526020015f206040518060a00160405290815f82015f9054906101000a900460ff16151515158152602001600182018054610cfb90612a43565b80601f0160208091040260200160405190810160405280929190818152602001828054610d2790612a43565b8015610d725780601f10610d4957610100808354040283529160200191610d72565b820191905f5260205f20905b815481529060010190602001808311610d5557829003601f168201915b50505050508152602001600282018054610d8b90612a43565b80601f0160208091040260200160405190810160405280929190818152602001828054610db790612a43565b8015610e025780601f10610dd957610100808354040283529160200191610e02565b820191905f5260205f20905b815481529060010190602001808311610de557829003601f168201915b50505050508152602001600382018054610e1b90612a43565b80601f0160208091040260200160405190810160405280929190818152602001828054610e4790612a43565b8015610e925780601f10610e6957610100808354040283529160200191610e92565b820191905f5260205f20905b815481529060010190602001808311610e7557829003601f168201915b50505050508152602001600482018054610eab90612a43565b80601f0160208091040260200160405190810160405280929190818152602001828054610ed790612a43565b8015610f225780601f10610ef957610100808354040283529160200191610f22565b820191905f5260205f20905b815481529060010190602001808311610f0557829003601f168201915b505050505081525050905080602001518160400151826060015183608001519450945094509450509193509193565b5f803373ffffffffffffffffffffffffffffffffffffffff1673ffffffffffffffffffffffffffffffffffffffff1681526020019081526020015f205f015f9054906101000a900460ff1615610fdc576040517f08c379a0000000000000000000000000000000000000000000000000000000008152600401610fd390612f53565b60405180910390fd5b60015f3373ffffffffffffffffffffffffffffffffffffffff1673ffffffffffffffffffffffffffffffffffffffff1681526020019081526020015f205f015f9054906101000a900460ff1615611068576040517f08c379a000000000000000000000000000000000000000000000000000000000815260040161105f90612fe1565b60405180910390fd5b6040518060a00160405280600115158152602001858152602001848152602001838152602001828152505f803373ffffffffffffffffffffffffffffffffffffffff1673ffffffffffffffffffffffffffffffffffffffff1681526020019081526020015f205f820151815f015f6101000a81548160ff02191690831515021790555060208201518160010190816111009190612d9d565b5060408201518160020190816111169190612d9d565b50606082015181600301908161112c9190612d9d565b5060808201518160040190816111429190612d9d565b509050503373ffffffffffffffffffffffffffffffffffffffff167fc85b128388b9c331a2a5485dce4cd0f3db9f7c279d327ce95d6d39d6c94644c78560405161118c9190612642565b60405180910390a250505050565b6003602052815f5260405f20602052805f5260405f205f915091509054906101000a900460ff1681565b606060015f8373ffffffffffffffffffffffffffffffffffffffff1673ffffffffffffffffffffffffffffffffffffffff1681526020019081526020015f205f015f9054906101000a900460ff16611251576040517f08c379a000000000000000000000000000000000000000000000000000000000815260040161124890613049565b60405180910390fd5b60015f8373ffffffffffffffffffffffffffffffffffffffff1673ffffffffffffffffffffffffffffffffffffffff1681526020019081526020015f20600101805461129c90612a43565b80601f01602080910402602001604051908101604052809291908181526020018280546112c890612a43565b80156113135780601f106112ea57610100808354040283529160200191611313565b820191905f5260205f20905b8154815290600101906020018083116112f657829003601f168201915b50505050509050919050565b60015f3373ffffffffffffffffffffffffffffffffffffffff1673ffffffffffffffffffffffffffffffffffffffff1681526020019081526020015f205f015f9054906101000a900460ff166113aa576040517f08c379a00000000000000000000000000000000000000000000000000000000081526004016113a190612874565b60405180910390fd5b60025f8373ffffffffffffffffffffffffffffffffffffffff1673ffffffffffffffffffffffffffffffffffffffff1681526020019081526020015f205f3373ffffffffffffffffffffffffffffffffffffffff1673ffffffffffffffffffffffffffffffffffffffff1681526020019081526020015f205f9054906101000a900460ff1661146e576040517f08c379a0000000000000000000000000000000000000000000000000000000008152600401611465906130d7565b60405180910390fd5b5f8151116114b1576040517f08c379a00000000000000000000000000000000000000000000000000000000081526004016114a89061313f565b60405180910390fd5b3373ffffffffffffffffffffffffffffffffffffffff168273ffffffffffffffffffffffffffffffffffffffff167f8fed6a2b6c4b373ec8518dd42cb708c88beb55d8806492942025f2d86118bcb742846040516115109291906131be565b60405180910390a35050565b7f000000000000000000000000000000000000000000000000000000000000000081565b7f000000000000000000000000000000000000000000000000000000000000000073ffffffffffffffffffffffffffffffffffffffff163373ffffffffffffffffffffffffffffffffffffffff16146115ce576040517f08c379a00000000000000000000000000000000000000000000000000000000081526004016115c590612ae3565b60405180910390fd5b60015f8273ffffffffffffffffffffffffffffffffffffffff1673ffffffffffffffffffffffffffffffffffffffff1681526020019081526020015f205f015f9054906101000a900460ff16611659576040517f08c379a000000000000000000000000000000000000000000000000000000000815260040161165090613236565b60405180910390fd5b7f000000000000000000000000000000000000000000000000000000000000000073ffffffffffffffffffffffffffffffffffffffff168173ffffffffffffffffffffffffffffffffffffffff16036116e7576040517f08c379a00000000000000000000000000000000000000000000000000000000081526004016116de906132c4565b60405180910390fd5b5f60015f8373ffffffffffffffffffffffffffffffffffffffff1673ffffffffffffffffffffffffffffffffffffffff1681526020019081526020015f205f015f6101000a81548160ff0219169083151502179055508073ffffffffffffffffffffffffffffffffffffffff167f493d7cf6a7c880406a55654d6727464ea088bd01d40498e1987a327e68961ab860405160405180910390a250565b5f803373ffffffffffffffffffffffffffffffffffffffff1673ffffffffffffffffffffffffffffffffffffffff1681526020019081526020015f205f015f9054906101000a900460ff1661180d576040517f08c379a000000000000000000000000000000000000000000000000000000000815260040161180490613352565b60405180910390fd5b60035f3373ffffffffffffffffffffffffffffffffffffffff1673ffffffffffffffffffffffffffffffffffffffff1681526020019081526020015f205f8273ffffffffffffffffffffffffffffffffffffffff1673ffffffffffffffffffffffffffffffffffffffff1681526020019081526020015f205f9054906101000a900460ff166118d1576040517f08c379a00000000000000000000000000000000000000000000000000000000081526004016118c8906133e0565b60405180910390fd5b5f60035f3373ffffffffffffffffffffffffffffffffffffffff1673ffffffffffffffffffffffffffffffffffffffff1681526020019081526020015f205f8373ffffffffffffffffffffffffffffffffffffffff1673ffffffffffffffffffffffffffffffffffffffff1681526020019081526020015f205f6101000a81548160ff0219169083151502179055508073ffffffffffffffffffffffffffffffffffffffff163373ffffffffffffffffffffffffffffffffffffffff167fee666520c6fbc392d1a1e9c8845f759abf986e12b9927e3a452c94ce2c05d1df60405160405180910390a350565b5f803373ffffffffffffffffffffffffffffffffffffffff1673ffffffffffffffffffffffffffffffffffffffff1681526020019081526020015f205f015f9054906101000a900460ff16611a47576040517f08c379a0000000000000000000000000000000000000000000000000000000008152600401611a3e90613352565b60405180910390fd5b60015f8273ffffffffffffffffffffffffffffffffffffffff1673ffffffffffffffffffffffffffffffffffffffff1681526020019081526020015f205f015f9054906101000a900460ff16611ad2576040517f08c379a0000000000000000000000000000000000000000000000000000000008152600401611ac99061346e565b60405180910390fd5b5f60035f3373ffffffffffffffffffffffffffffffffffffffff1673ffffffffffffffffffffffffffffffffffffffff1681526020019081526020015f205f8373ffffffffffffffffffffffffffffffffffffffff1673ffffffffffffffffffffffffffffffffffffffff1681526020019081526020015f205f6101000a81548160ff021916908315150217905550600160025f3373ffffffffffffffffffffffffffffffffffffffff1673ffffffffffffffffffffffffffffffffffffffff1681526020019081526020015f205f8373ffffffffffffffffffffffffffffffffffffffff1673ffffffffffffffffffffffffffffffffffffffff1681526020019081526020015f205f6101000a81548160ff0219169083151502179055508073ffffffffffffffffffffffffffffffffffffffff163373ffffffffffffffffffffffffffffffffffffffff167f8105c574d2239a3a4f73f5efc5bc253cffb275647df535adfa2c240739cc922060405160405180910390a350565b6001602052805f5260405f205f91509050805f015f9054906101000a900460ff1690806001018054611c7f90612a43565b80601f0160208091040260200160405190810160405280929190818152602001828054611cab90612a43565b8015611cf65780601f10611ccd57610100808354040283529160200191611cf6565b820191905f5260205f20905b815481529060010190602001808311611cd957829003601f168201915b505050505090806002018054611d0b90612a43565b80601f0160208091040260200160405190810160405280929190818152602001828054611d3790612a43565b8015611d825780601f10611d5957610100808354040283529160200191611d82565b820191905f5260205f20905b815481529060010190602001808311611d6557829003601f168201915b505050505090806003018054611d9790612a43565b80601f0160208091040260200160405190810160405280929190818152602001828054611dc390612a43565b8015611e0e5780601f10611de557610100808354040283529160200191611e0e565b820191905f5260205f20905b815481529060010190602001808311611df157829003601f168201915b505050505090806004018054611e2390612a43565b80601f0160208091040260200160405190810160405280929190818152602001828054611e4f90612a43565b8015611e9a5780601f10611e7157610100808354040283529160200191611e9a565b820191905f5260205f20905b815481529060010190602001808311611e7d57829003601f168201915b505050505090806005018054611eaf90612a43565b80601f0160208091040260200160405190810160405280929190818152602001828054611edb90612a43565b8015611f265780601f10611efd57610100808354040283529160200191611f26565b820191905f5260205f20905b815481529060010190602001808311611f0957829003601f168201915b5050505050905086565b5f803373ffffffffffffffffffffffffffffffffffffffff1673ffffffffffffffffffffffffffffffffffffffff1681526020019081526020015f205f015f9054906101000a900460ff16611fba576040517f08c379a0000000000000000000000000000000000000000000000000000000008152600401611fb190613352565b60405180910390fd5b5f60025f3373ffffffffffffffffffffffffffffffffffffffff1673ffffffffffffffffffffffffffffffffffffffff1681526020019081526020015f205f8373ffffffffffffffffffffffffffffffffffffffff1673ffffffffffffffffffffffffffffffffffffffff1681526020019081526020015f205f6101000a81548160ff0219169083151502179055508073ffffffffffffffffffffffffffffffffffffffff163373ffffffffffffffffffffffffffffffffffffffff167febecee2d3f2ea272f73dd9d9ccc0bacd11280d61240332cbcd8a68173ae5cc2c60405160405180910390a350565b6002602052815f5260405f20602052805f5260405f205f915091509054906101000a900460ff1681565b5f604051905090565b5f80fd5b5f80fd5b5f73ffffffffffffffffffffffffffffffffffffffff82169050919050565b5f61210a826120e1565b9050919050565b61211a81612100565b8114612124575f80fd5b50565b5f8135905061213581612111565b92915050565b5f602082840312156121505761214f6120d9565b5b5f61215d84828501612127565b91505092915050565b5f8115159050919050565b61217a81612166565b82525050565b5f81519050919050565b5f82825260208201905092915050565b5f5b838110156121b757808201518184015260208101905061219c565b5f8484015250505050565b5f601f19601f8301169050919050565b5f6121dc82612180565b6121e6818561218a565b93506121f681856020860161219a565b6121ff816121c2565b840191505092915050565b5f60a08201905061221d5f830188612171565b818103602083015261222f81876121d2565b9050818103604083015261224381866121d2565b9050818103606083015261225781856121d2565b9050818103608083015261226b81846121d2565b90509695505050505050565b5f80fd5b5f80fd5b7f4e487b71000000000000000000000000000000000000000000000000000000005f52604160045260245ffd5b6122b5826121c2565b810181811067ffffffffffffffff821117156122d4576122d361227f565b5b80604052505050565b5f6122e66120d0565b90506122f282826122ac565b919050565b5f67ffffffffffffffff8211156123115761231061227f565b5b61231a826121c2565b9050602081019050919050565b828183375f83830152505050565b5f612347612342846122f7565b6122dd565b9050828152602081018484840111156123635761236261227b565b5b61236e848285612327565b509392505050565b5f82601f83011261238a57612389612277565b5b813561239a848260208601612335565b91505092915050565b5f805f805f8060c087890312156123bd576123bc6120d9565b5b5f6123ca89828a01612127565b965050602087013567ffffffffffffffff8111156123eb576123ea6120dd565b5b6123f789828a01612376565b955050604087013567ffffffffffffffff811115612418576124176120dd565b5b61242489828a01612376565b945050606087013567ffffffffffffffff811115612445576124446120dd565b5b61245189828a01612376565b935050608087013567ffffffffffffffff811115612472576124716120dd565b5b61247e89828a01612376565b92505060a087013567ffffffffffffffff81111561249f5761249e6120dd565b5b6124ab89828a01612376565b9150509295509295509295565b5f6080820190508181035f8301526124d081876121d2565b905081810360208301526124e481866121d2565b905081810360408301526124f881856121d2565b9050818103606083015261250c81846121d2565b905095945050505050565b5f805f806080858703121561252f5761252e6120d9565b5b5f85013567ffffffffffffffff81111561254c5761254b6120dd565b5b61255887828801612376565b945050602085013567ffffffffffffffff811115612579576125786120dd565b5b61258587828801612376565b935050604085013567ffffffffffffffff8111156125a6576125a56120dd565b5b6125b287828801612376565b925050606085013567ffffffffffffffff8111156125d3576125d26120dd565b5b6125df87828801612376565b91505092959194509250565b5f8060408385031215612601576126006120d9565b5b5f61260e85828601612127565b925050602061261f85828601612127565b9150509250929050565b5f60208201905061263c5f830184612171565b92915050565b5f6020820190508181035f83015261265a81846121d2565b905092915050565b5f67ffffffffffffffff82111561267c5761267b61227f565b5b612685826121c2565b9050602081019050919050565b5f6126a461269f84612662565b6122dd565b9050828152602081018484840111156126c0576126bf61227b565b5b6126cb848285612327565b509392505050565b5f82601f8301126126e7576126e6612277565b5b81356126f7848260208601612692565b91505092915050565b5f8060408385031215612716576127156120d9565b5b5f61272385828601612127565b925050602083013567ffffffffffffffff811115612744576127436120dd565b5b612750858286016126d3565b9150509250929050565b61276381612100565b82525050565b5f60208201905061277c5f83018461275a565b92915050565b5f60c0820190506127955f830189612171565b81810360208301526127a781886121d2565b905081810360408301526127bb81876121d2565b905081810360608301526127cf81866121d2565b905081810360808301526127e381856121d2565b905081810360a08301526127f781846121d2565b9050979650505050505050565b7f43616c6c6572206973206e6f7420616e20617574686f72697a656420646f63745f8201527f6f72000000000000000000000000000000000000000000000000000000000000602082015250565b5f61285e60228361218a565b915061286982612804565b604082019050919050565b5f6020820190508181035f83015261288b81612852565b9050919050565b7f41646472657373206973206e6f742061207265676973746572656420706174695f8201527f656e742e00000000000000000000000000000000000000000000000000000000602082015250565b5f6128ec60248361218a565b91506128f782612892565b604082019050919050565b5f6020820190508181035f830152612919816128e0565b9050919050565b7f436f6e73656e7420697320616c7265616479206772616e7465642e00000000005f82015250565b5f612954601b8361218a565b915061295f82612920565b602082019050919050565b5f6020820190508181035f83015261298181612948565b9050919050565b7f436f6e73656e74207265717565737420697320616c72656164792070656e64695f8201527f6e672e0000000000000000000000000000000000000000000000000000000000602082015250565b5f6129e260238361218a565b91506129ed82612988565b604082019050919050565b5f6020820190508181035f830152612a0f816129d6565b9050919050565b7f4e487b71000000000000000000000000000000000000000000000000000000005f52602260045260245ffd5b5f6002820490506001821680612a5a57607f821691505b602082108103612a6d57612a6c612a16565b5b50919050565b7f4f6e6c79206f776e65722063616e20706572666f726d207468697320616374695f8201527f6f6e000000000000000000000000000000000000000000000000000000000000602082015250565b5f612acd60228361218a565b9150612ad882612a73565b604082019050919050565b5f6020820190508181035f830152612afa81612ac1565b9050919050565b7f446f63746f7220697320616c72656164792072656769737465726564000000005f82015250565b5f612b35601c8361218a565b9150612b4082612b01565b602082019050919050565b5f6020820190508181035f830152612b6281612b29565b9050919050565b7f4164647265737320697320616c726561647920726567697374657265642061735f8201527f20612070617469656e7400000000000000000000000000000000000000000000602082015250565b5f612bc3602a8361218a565b9150612bce82612b69565b604082019050919050565b5f6020820190508181035f830152612bf081612bb7565b9050919050565b5f819050815f5260205f209050919050565b5f6020601f8301049050919050565b5f82821b905092915050565b5f60088302612c537fffffffffffffffffffffffffffffffffffffffffffffffffffffffffffffffff82612c18565b612c5d8683612c18565b95508019841693508086168417925050509392505050565b5f819050919050565b5f819050919050565b5f612ca1612c9c612c9784612c75565b612c7e565b612c75565b9050919050565b5f819050919050565b612cba83612c87565b612cce612cc682612ca8565b848454612c24565b825550505050565b5f90565b612ce2612cd6565b612ced818484612cb1565b505050565b5b81811015612d1057612d055f82612cda565b600181019050612cf3565b5050565b601f821115612d5557612d2681612bf7565b612d2f84612c09565b81016020851015612d3e578190505b612d52612d4a85612c09565b830182612cf2565b50505b505050565b5f82821c905092915050565b5f612d755f1984600802612d5a565b1980831691505092915050565b5f612d8d8383612d66565b9150826002028217905092915050565b612da682612180565b67ffffffffffffffff811115612dbf57612dbe61227f565b5b612dc98254612a43565b612dd4828285612d14565b5f60209050601f831160018114612e05575f8415612df3578287015190505b612dfd8582612d82565b865550612e64565b601f198416612e1386612bf7565b5f5b82811015612e3a57848901518255600182019150602085019450602081019050612e15565b86831015612e575784890151612e53601f891682612d66565b8355505b6001600288020188555050505b505050505050565b5f6040820190508181035f830152612e8481856121d2565b90508181036020830152612e9881846121d2565b90509392505050565b7f4e6f74206120726567697374657265642070617469656e742e000000000000005f82015250565b5f612ed560198361218a565b9150612ee082612ea1565b602082019050919050565b5f6020820190508181035f830152612f0281612ec9565b9050919050565b7f416c7265616479207265676973746572656420617320612070617469656e742e5f82015250565b5f612f3d60208361218a565b9150612f4882612f09565b602082019050919050565b5f6020820190508181035f830152612f6a81612f31565b9050919050565b7f446f63746f72732063616e6e6f742072656769737465722061732070617469655f8201527f6e74732e00000000000000000000000000000000000000000000000000000000602082015250565b5f612fcb60248361218a565b9150612fd682612f71565b604082019050919050565b5f6020820190508181035f830152612ff881612fbf565b9050919050565b7f4e6f7420616e20617574686f72697a656420646f63746f722e000000000000005f82015250565b5f61303360198361218a565b915061303e82612fff565b602082019050919050565b5f6020820190508181035f83015261306081613027565b9050919050565b7f50617469656e7420686173206e6f74206772616e74656420636f6e73656e74205f8201527f746f207468697320646f63746f722e0000000000000000000000000000000000602082015250565b5f6130c1602f8361218a565b91506130cc82613067565b604082019050919050565b5f6020820190508181035f8301526130ee816130b5565b9050919050565b7f456e6372797074656420646174612063616e6e6f7420626520656d7074792e005f82015250565b5f613129601f8361218a565b9150613134826130f5565b602082019050919050565b5f6020820190508181035f8301526131568161311d565b9050919050565b61316681612c75565b82525050565b5f81519050919050565b5f82825260208201905092915050565b5f6131908261316c565b61319a8185613176565b93506131aa81856020860161219a565b6131b3816121c2565b840191505092915050565b5f6040820190506131d15f83018561315d565b81810360208301526131e38184613186565b90509392505050565b7f41646472657373206973206e6f74206120646f63746f722e00000000000000005f82015250565b5f61322060188361218a565b915061322b826131ec565b602082019050919050565b5f6020820190508181035f83015261324d81613214565b9050919050565b7f43616e6e6f742072656d6f766520746865206f776e657220617320646f63746f5f8201527f722e000000000000000000000000000000000000000000000000000000000000602082015250565b5f6132ae60228361218a565b91506132b982613254565b604082019050919050565b5f6020820190508181035f8301526132db816132a2565b9050919050565b7f43616c6c6572206973206e6f74206120726567697374657265642070617469655f8201527f6e74000000000000000000000000000000000000000000000000000000000000602082015250565b5f61333c60228361218a565b9150613347826132e2565b604082019050919050565b5f6020820190508181035f83015261336981613330565b9050919050565b7f4e6f2070656e64696e6720636f6e73656e7420726571756573742066726f6d205f8201527f7468697320646f63746f722e0000000000000000000000000000000000000000602082015250565b5f6133ca602c8361218a565b91506133d582613370565b604082019050919050565b5f6020820190508181035f8301526133f7816133be565b9050919050565b7f41646472657373206973206e6f7420616e20617574686f72697a656420646f635f8201527f746f722e00000000000000000000000000000000000000000000000000000000602082015250565b5f61345860248361218a565b9150613463826133fe565b604082019050919050565b5f6020820190508181035f8301526134858161344c565b905091905056fea264697066735822122050447daca009f0063732e798692d0a1dc687f87e85767b7b9c0a0fc6db32771a64736f6c63430008150033",
					"opcodes": "PUSH1 0xA0 PUSH1 0x40 MSTORE CALLVALUE DUP1 ISZERO PUSH3 0x10 JUMPI PUSH0 DUP1 REVERT JUMPDEST POP CALLER PUSH20 0xFFFFFFFFFFFFFFFFFFFFFFFFFFFFFFFFFFFFFFFF AND PUSH1 0x80 DUP2 PUSH20 0xFFFFFFFFFFFFFFFFFFFFFFFFFFFFFFFFFFFFFFFF AND DUP2 MSTORE POP POP PUSH1 0x40 MLOAD DUP1 PUSH1 0xC0 ADD PUSH1 0x40 MSTORE DUP1 PUSH1 0x1 ISZERO ISZERO DUP2 MSTORE PUSH1 0x20 ADD PUSH1 0x40 MLOAD DUP1 PUSH1 0x40 ADD PUSH1 0x40 MSTORE DUP1 PUSH1 0x5 DUP2 MSTORE PUSH1 0x20 ADD PUSH32 0x41646D696E000000000000000000000000000000000000000000000000000000 DUP2 MSTORE POP DUP2 MSTORE PUSH1 0x20 ADD PUSH1 0x40 MLOAD DUP1 PUSH1 0x40 ADD PUSH1 0x40 MSTORE DUP1 PUSH1 0xB DUP2 MSTORE PUSH1 0x20 ADD PUSH32 0x436C696E69632053616C65000000000000000000000000000000000000000000 DUP2 MSTORE POP DUP2 MSTORE PUSH1 0x20 ADD PUSH1 0x40 MLOAD DUP1 PUSH1 0x40 ADD PUSH1 0x40 MSTORE DUP1 PUSH1 0xD DUP2 MSTORE PUSH1 0x20 ADD PUSH32 0x4D6F726F63636F2F526162617400000000000000000000000000000000000000 DUP2 MSTORE POP DUP2 MSTORE PUSH1 0x20 ADD PUSH1 0x40 MLOAD DUP1 PUSH1 0x40 ADD PUSH1 0x40 MSTORE DUP1 PUSH1 0x5 DUP2 MSTORE PUSH1 0x20 ADD PUSH32 0x30383A3030000000000000000000000000000000000000000000000000000000 DUP2 MSTORE POP DUP2 MSTORE PUSH1 0x20 ADD PUSH1 0x40 MLOAD DUP1 PUSH1 0x40 ADD PUSH1 0x40 MSTORE DUP1 PUSH1 0x5 DUP2 MSTORE PUSH1 0x20 ADD PUSH32 0x31383A3030000000000000000000000000000000000000000000000000000000 DUP2 MSTORE POP DUP2 MSTORE POP PUSH1 0x1 PUSH0 PUSH1 0x80 MLOAD PUSH20 0xFFFFFFFFFFFFFFFFFFFFFFFFFFFFFFFFFFFFFFFF AND PUSH20 0xFFFFFFFFFFFFFFFFFFFFFFFFFFFFFFFFFFFFFFFF AND DUP2 MSTORE PUSH1 0x20 ADD SWAP1 DUP2 MSTORE PUSH1 0x20 ADD PUSH0 KECCAK256 PUSH0 DUP3 ADD MLOAD DUP2 PUSH0 ADD PUSH0 PUSH2 0x100 EXP DUP2 SLOAD DUP2 PUSH1 0xFF MUL NOT AND SWAP1 DUP4 ISZERO ISZERO MUL OR SWAP1 SSTORE POP PUSH1 0x20 DUP3 ADD MLOAD DUP2 PUSH1 0x1 ADD SWAP1 DUP2 PUSH3 0x1F1 SWAP2 SWAP1 PUSH3 0x50F JUMP JUMPDEST POP PUSH1 0x40 DUP3 ADD MLOAD DUP2 PUSH1 0x2 ADD SWAP1 DUP2 PUSH3 0x209 SWAP2 SWAP1 PUSH3 0x50F JUMP JUMPDEST POP PUSH1 0x60 DUP3 ADD MLOAD DUP2 PUSH1 0x3 ADD SWAP1 DUP2 PUSH3 0x221 SWAP2 SWAP1 PUSH3 0x50F JUMP JUMPDEST POP PUSH1 0x80 DUP3 ADD MLOAD DUP2 PUSH1 0x4 ADD SWAP1 DUP2 PUSH3 0x239 SWAP2 SWAP1 PUSH3 0x50F JUMP JUMPDEST POP PUSH1 0xA0 DUP3 ADD MLOAD DUP2 PUSH1 0x5 ADD SWAP1 DUP2 PUSH3 0x251 SWAP2 SWAP1 PUSH3 0x50F JUMP JUMPDEST POP SWAP1 POP POP PUSH1 0x80 MLOAD PUSH20 0xFFFFFFFFFFFFFFFFFFFFFFFFFFFFFFFFFFFFFFFF AND PUSH32 0x9388661DCD7DC6CFF9B4E22AB9459AC0A2682F86CB52FC7A669A6E7F062BCE4C PUSH1 0x40 MLOAD PUSH3 0x29D SWAP1 PUSH3 0x69F JUMP JUMPDEST PUSH1 0x40 MLOAD DUP1 SWAP2 SUB SWAP1 LOG2 PUSH3 0x6D4 JUMP JUMPDEST PUSH0 DUP2 MLOAD SWAP1 POP SWAP2 SWAP1 POP JUMP JUMPDEST PUSH32 0x4E487B7100000000000000000000000000000000000000000000000000000000 PUSH0 MSTORE PUSH1 0x41 PUSH1 0x4 MSTORE PUSH1 0x24 PUSH0 REVERT JUMPDEST PUSH32 0x4E487B7100000000000000000000000000000000000000000000000000000000 PUSH0 MSTORE PUSH1 0x22 PUSH1 0x4 MSTORE PUSH1 0x24 PUSH0 REVERT JUMPDEST PUSH0 PUSH1 0x2 DUP3 DIV SWAP1 POP PUSH1 0x1 DUP3 AND DUP1 PUSH3 0x327 JUMPI PUSH1 0x7F DUP3 AND SWAP2 POP JUMPDEST PUSH1 0x20 DUP3 LT DUP2 SUB PUSH3 0x33D JUMPI PUSH3 0x33C PUSH3 0x2E2 JUMP JUMPDEST JUMPDEST POP SWAP2 SWAP1 POP JUMP JUMPDEST PUSH0 DUP2 SWAP1 POP DUP2 PUSH0 MSTORE PUSH1 0x20 PUSH0 KECCAK256 SWAP1 POP SWAP2 SWAP1 POP JUMP JUMPDEST PUSH0 PUSH1 0x20 PUSH1 0x1F DUP4 ADD DIV SWAP1 POP SWAP2 SWAP1 POP JUMP JUMPDEST PUSH0 DUP3 DUP3 SHL SWAP1 POP SWAP3 SWAP2 POP POP JUMP JUMPDEST PUSH0 PUSH1 0x8 DUP4 MUL PUSH3 0x3A1 PUSH32 0xFFFFFFFFFFFFFFFFFFFFFFFFFFFFFFFFFFFFFFFFFFFFFFFFFFFFFFFFFFFFFFFF DUP3 PUSH3 0x364 JUMP JUMPDEST PUSH3 0x3AD DUP7 DUP4 PUSH3 0x364 JUMP JUMPDEST SWAP6 POP DUP1 NOT DUP5 AND SWAP4 POP DUP1 DUP7 AND DUP5 OR SWAP3 POP POP POP SWAP4 SWAP3 POP POP POP JUMP JUMPDEST PUSH0 DUP2 SWAP1 POP SWAP2 SWAP1 POP JUMP JUMPDEST PUSH0 DUP2 SWAP1 POP SWAP2 SWAP1 POP JUMP JUMPDEST PUSH0 PUSH3 0x3F7 PUSH3 0x3F1 PUSH3 0x3EB DUP5 PUSH3 0x3C5 JUMP JUMPDEST PUSH3 0x3CE JUMP JUMPDEST PUSH3 0x3C5 JUMP JUMPDEST SWAP1 POP SWAP2 SWAP1 POP JUMP JUMPDEST PUSH0 DUP2 SWAP1 POP SWAP2 SWAP1 POP JUMP JUMPDEST PUSH3 0x412 DUP4 PUSH3 0x3D7 JUMP JUMPDEST PUSH3 0x42A PUSH3 0x421 DUP3 PUSH3 0x3FE JUMP JUMPDEST DUP5 DUP5 SLOAD PUSH3 0x370 JUMP JUMPDEST DUP3 SSTORE POP POP POP POP JUMP JUMPDEST PUSH0 SWAP1 JUMP JUMPDEST PUSH3 0x440 PUSH3 0x432 JUMP JUMPDEST PUSH3 0x44D DUP2 DUP5 DUP5 PUSH3 0x407 JUMP JUMPDEST POP POP POP JUMP JUMPDEST JUMPDEST DUP2 DUP2 LT ISZERO PUSH3 0x474 JUMPI PUSH3 0x468 PUSH0 DUP3 PUSH3 0x436 JUMP JUMPDEST PUSH1 0x1 DUP2 ADD SWAP1 POP PUSH3 0x453 JUMP JUMPDEST POP POP JUMP JUMPDEST PUSH1 0x1F DUP3 GT ISZERO PUSH3 0x4C3 JUMPI PUSH3 0x48D DUP2 PUSH3 0x343 JUMP JUMPDEST PUSH3 0x498 DUP5 PUSH3 0x355 JUMP JUMPDEST DUP2 ADD PUSH1 0x20 DUP6 LT ISZERO PUSH3 0x4A8 JUMPI DUP2 SWAP1 POP JUMPDEST PUSH3 0x4C0 PUSH3 0x4B7 DUP6 PUSH3 0x355 JUMP JUMPDEST DUP4 ADD DUP3 PUSH3 0x452 JUMP JUMPDEST POP POP JUMPDEST POP POP POP JUMP JUMPDEST PUSH0 DUP3 DUP3 SHR SWAP1 POP SWAP3 SWAP2 POP POP JUMP JUMPDEST PUSH0 PUSH3 0x4E5 PUSH0 NOT DUP5 PUSH1 0x8 MUL PUSH3 0x4C8 JUMP JUMPDEST NOT DUP1 DUP4 AND SWAP2 POP POP SWAP3 SWAP2 POP POP JUMP JUMPDEST PUSH0 PUSH3 0x4FF DUP4 DUP4 PUSH3 0x4D4 JUMP JUMPDEST SWAP2 POP DUP3 PUSH1 0x2 MUL DUP3 OR SWAP1 POP SWAP3 SWAP2 POP POP JUMP JUMPDEST PUSH3 0x51A DUP3 PUSH3 0x2AB JUMP JUMPDEST PUSH8 0xFFFFFFFFFFFFFFFF DUP2 GT ISZERO PUSH3 0x536 JUMPI PUSH3 0x535 PUSH3 0x2B5 JUMP JUMPDEST JUMPDEST PUSH3 0x542 DUP3 SLOAD PUSH3 0x30F JUMP JUMPDEST PUSH3 0x54F DUP3 DUP3 DUP6 PUSH3 0x478 JUMP JUMPDEST PUSH0 PUSH1 0x20 SWAP1 POP PUSH1 0x1F DUP4 GT PUSH1 0x1 DUP2 EQ PUSH3 0x585 JUMPI PUSH0 DUP5 ISZERO PUSH3 0x570 JUMPI DUP3 DUP8 ADD MLOAD SWAP1 POP JUMPDEST PUSH3 0x57C DUP6 DUP3 PUSH3 0x4F2 JUMP JUMPDEST DUP7 SSTORE POP PUSH3 0x5EB JUMP JUMPDEST PUSH1 0x1F NOT DUP5 AND PUSH3 0x595 DUP7 PUSH3 0x343 JUMP JUMPDEST PUSH0 JUMPDEST DUP3 DUP2 LT ISZERO PUSH3 0x5BE JUMPI DUP5 DUP10 ADD MLOAD DUP3 SSTORE PUSH1 0x1 DUP3 ADD SWAP2 POP PUSH1 0x20 DUP6 ADD SWAP5 POP PUSH1 0x20 DUP2 ADD SWAP1 POP PUSH3 0x597 JUMP JUMPDEST DUP7 DUP4 LT ISZERO PUSH3 0x5DE JUMPI DUP5 DUP10 ADD MLOAD PUSH3 0x5DA PUSH1 0x1F DUP10 AND DUP3 PUSH3 0x4D4 JUMP JUMPDEST DUP4 SSTORE POP JUMPDEST PUSH1 0x1 PUSH1 0x2 DUP9 MUL ADD DUP9 SSTORE POP POP POP JUMPDEST POP POP POP POP POP POP JUMP JUMPDEST PUSH0 DUP3 DUP3 MSTORE PUSH1 0x20 DUP3 ADD SWAP1 POP SWAP3 SWAP2 POP POP JUMP JUMPDEST PUSH32 0x41646D696E000000000000000000000000000000000000000000000000000000 PUSH0 DUP3 ADD MSTORE POP JUMP JUMPDEST PUSH0 PUSH3 0x639 PUSH1 0x5 DUP4 PUSH3 0x5F3 JUMP JUMPDEST SWAP2 POP PUSH3 0x646 DUP3 PUSH3 0x603 JUMP JUMPDEST PUSH1 0x20 DUP3 ADD SWAP1 POP SWAP2 SWAP1 POP JUMP JUMPDEST PUSH32 0x436C696E69632053616C65000000000000000000000000000000000000000000 PUSH0 DUP3 ADD MSTORE POP JUMP JUMPDEST PUSH0 PUSH3 0x687 PUSH1 0xB DUP4 PUSH3 0x5F3 JUMP JUMPDEST SWAP2 POP PUSH3 0x694 DUP3 PUSH3 0x651 JUMP JUMPDEST PUSH1 0x20 DUP3 ADD SWAP1 POP SWAP2 SWAP1 POP JUMP JUMPDEST PUSH0 PUSH1 0x40 DUP3 ADD SWAP1 POP DUP2 DUP2 SUB PUSH0 DUP4 ADD MSTORE PUSH3 0x6B8 DUP2 PUSH3 0x62B JUMP JUMPDEST SWAP1 POP DUP2 DUP2 SUB PUSH1 0x20 DUP4 ADD MSTORE PUSH3 0x6CD DUP2 PUSH3 0x679 JUMP JUMPDEST SWAP1 POP SWAP2 SWAP1 POP JUMP JUMPDEST PUSH1 0x80 MLOAD PUSH2 0x34C2 PUSH3 0x702 PUSH0 CODECOPY PUSH0 DUP2 DUP2 PUSH2 0x904 ADD MSTORE DUP2 DUP2 PUSH2 0x151E ADD MSTORE DUP2 DUP2 PUSH2 0x1542 ADD MSTORE PUSH2 0x165B ADD MSTORE PUSH2 0x34C2 PUSH0 RETURN INVALID PUSH1 0x80 PUSH1 0x40 MSTORE CALLVALUE DUP1 ISZERO PUSH2 0xF JUMPI PUSH0 DUP1 REVERT JUMPDEST POP PUSH1 0x4 CALLDATASIZE LT PUSH2 0xF3 JUMPI PUSH0 CALLDATALOAD PUSH1 0xE0 SHR DUP1 PUSH4 0x87FEE61C GT PUSH2 0x95 JUMPI DUP1 PUSH4 0xA79861F1 GT PUSH2 0x64 JUMPI DUP1 PUSH4 0xA79861F1 EQ PUSH2 0x284 JUMPI DUP1 PUSH4 0xA9583C22 EQ PUSH2 0x2A0 JUMPI DUP1 PUSH4 0xD1A48627 EQ PUSH2 0x2D5 JUMPI DUP1 PUSH4 0xF68B68F6 EQ PUSH2 0x2F1 JUMPI PUSH2 0xF3 JUMP JUMPDEST DUP1 PUSH4 0x87FEE61C EQ PUSH2 0x212 JUMPI DUP1 PUSH4 0x8DA5CB5B EQ PUSH2 0x22E JUMPI DUP1 PUSH4 0x98FC90E9 EQ PUSH2 0x24C JUMPI DUP1 PUSH4 0xA46AEF40 EQ PUSH2 0x268 JUMPI PUSH2 0xF3 JUMP JUMPDEST DUP1 PUSH4 0x461A2082 GT PUSH2 0xD1 JUMPI DUP1 PUSH4 0x461A2082 EQ PUSH2 0x163 JUMPI DUP1 PUSH4 0x4BA0A020 EQ PUSH2 0x196 JUMPI DUP1 PUSH4 0x53C1A042 EQ PUSH2 0x1B2 JUMPI DUP1 PUSH4 0x5CBCD8EB EQ PUSH2 0x1E2 JUMPI PUSH2 0xF3 JUMP JUMPDEST DUP1 PUSH4 0x37F8248 EQ PUSH2 0xF7 JUMPI DUP1 PUSH4 0x869CFBC EQ PUSH2 0x113 JUMPI DUP1 PUSH4 0x1128C9EA EQ PUSH2 0x147 JUMPI JUMPDEST PUSH0 DUP1 REVERT JUMPDEST PUSH2 0x111 PUSH1 0x4 DUP1 CALLDATASIZE SUB DUP2 ADD SWAP1 PUSH2 0x10C SWAP2 SWAP1 PUSH2 0x213B JUMP JUMPDEST PUSH2 0x321 JUMP JUMPDEST STOP JUMPDEST PUSH2 0x12D PUSH1 0x4 DUP1 CALLDATASIZE SUB DUP2 ADD SWAP1 PUSH2 0x128 SWAP2 SWAP1 PUSH2 0x213B JUMP JUMPDEST PUSH2 0x6AD JUMP JUMPDEST PUSH1 0x40 MLOAD PUSH2 0x13E SWAP6 SWAP5 SWAP4 SWAP3 SWAP2 SWAP1 PUSH2 0x220A JUMP JUMPDEST PUSH1 0x40 MLOAD DUP1 SWAP2 SUB SWAP1 RETURN JUMPDEST PUSH2 0x161 PUSH1 0x4 DUP1 CALLDATASIZE SUB DUP2 ADD SWAP1 PUSH2 0x15C SWAP2 SWAP1 PUSH2 0x23A3 JUMP JUMPDEST PUSH2 0x902 JUMP JUMPDEST STOP JUMPDEST PUSH2 0x17D PUSH1 0x4 DUP1 CALLDATASIZE SUB DUP2 ADD SWAP1 PUSH2 0x178 SWAP2 SWAP1 PUSH2 0x213B JUMP JUMPDEST PUSH2 0xBFA JUMP JUMPDEST PUSH1 0x40 MLOAD PUSH2 0x18D SWAP5 SWAP4 SWAP3 SWAP2 SWAP1 PUSH2 0x24B8 JUMP JUMPDEST PUSH1 0x40 MLOAD DUP1 SWAP2 SUB SWAP1 RETURN JUMPDEST PUSH2 0x1B0 PUSH1 0x4 DUP1 CALLDATASIZE SUB DUP2 ADD SWAP1 PUSH2 0x1AB SWAP2 SWAP1 PUSH2 0x2517 JUMP JUMPDEST PUSH2 0xF51 JUMP JUMPDEST STOP JUMPDEST PUSH2 0x1CC PUSH1 0x4 DUP1 CALLDATASIZE SUB DUP2 ADD SWAP1 PUSH2 0x1C7 SWAP2 SWAP1 PUSH2 0x25EB JUMP JUMPDEST PUSH2 0x119A JUMP JUMPDEST PUSH1 0x40 MLOAD PUSH2 0x1D9 SWAP2 SWAP1 PUSH2 0x2629 JUMP JUMPDEST PUSH1 0x40 MLOAD DUP1 SWAP2 SUB SWAP1 RETURN JUMPDEST PUSH2 0x1FC PUSH1 0x4 DUP1 CALLDATASIZE SUB DUP2 ADD SWAP1 PUSH2 0x1F7 SWAP2 SWAP1 PUSH2 0x213B JUMP JUMPDEST PUSH2 0x11C4 JUMP JUMPDEST PUSH1 0x40 MLOAD PUSH2 0x209 SWAP2 SWAP1 PUSH2 0x2642 JUMP JUMPDEST PUSH1 0x40 MLOAD DUP1 SWAP2 SUB SWAP1 RETURN JUMPDEST PUSH2 0x22C PUSH1 0x4 DUP1 CALLDATASIZE SUB DUP2 ADD SWAP1 PUSH2 0x227 SWAP2 SWAP1 PUSH2 0x2700 JUMP JUMPDEST PUSH2 0x131F JUMP JUMPDEST STOP JUMPDEST PUSH2 0x236 PUSH2 0x151C JUMP JUMPDEST PUSH1 0x40 MLOAD PUSH2 0x243 SWAP2 SWAP1 PUSH2 0x2769 JUMP JUMPDEST PUSH1 0x40 MLOAD DUP1 SWAP2 SUB SWAP1 RETURN JUMPDEST PUSH2 0x266 PUSH1 0x4 DUP1 CALLDATASIZE SUB DUP2 ADD SWAP1 PUSH2 0x261 SWAP2 SWAP1 PUSH2 0x213B JUMP JUMPDEST PUSH2 0x1540 JUMP JUMPDEST STOP JUMPDEST PUSH2 0x282 PUSH1 0x4 DUP1 CALLDATASIZE SUB DUP2 ADD SWAP1 PUSH2 0x27D SWAP2 SWAP1 PUSH2 0x213B JUMP JUMPDEST PUSH2 0x1783 JUMP JUMPDEST STOP JUMPDEST PUSH2 0x29E PUSH1 0x4 DUP1 CALLDATASIZE SUB DUP2 ADD SWAP1 PUSH2 0x299 SWAP2 SWAP1 PUSH2 0x213B JUMP JUMPDEST PUSH2 0x19BD JUMP JUMPDEST STOP JUMPDEST PUSH2 0x2BA PUSH1 0x4 DUP1 CALLDATASIZE SUB DUP2 ADD SWAP1 PUSH2 0x2B5 SWAP2 SWAP1 PUSH2 0x213B JUMP JUMPDEST PUSH2 0x1C4E JUMP JUMPDEST PUSH1 0x40 MLOAD PUSH2 0x2CC SWAP7 SWAP6 SWAP5 SWAP4 SWAP3 SWAP2 SWAP1 PUSH2 0x2782 JUMP JUMPDEST PUSH1 0x40 MLOAD DUP1 SWAP2 SUB SWAP1 RETURN JUMPDEST PUSH2 0x2EF PUSH1 0x4 DUP1 CALLDATASIZE SUB DUP2 ADD SWAP1 PUSH2 0x2EA SWAP2 SWAP1 PUSH2 0x213B JUMP JUMPDEST PUSH2 0x1F30 JUMP JUMPDEST STOP JUMPDEST PUSH2 0x30B PUSH1 0x4 DUP1 CALLDATASIZE SUB DUP2 ADD SWAP1 PUSH2 0x306 SWAP2 SWAP1 PUSH2 0x25EB JUMP JUMPDEST PUSH2 0x20A6 JUMP JUMPDEST PUSH1 0x40 MLOAD PUSH2 0x318 SWAP2 SWAP1 PUSH2 0x2629 JUMP JUMPDEST PUSH1 0x40 MLOAD DUP1 SWAP2 SUB SWAP1 RETURN JUMPDEST PUSH1 0x1 PUSH0 CALLER PUSH20 0xFFFFFFFFFFFFFFFFFFFFFFFFFFFFFFFFFFFFFFFF AND PUSH20 0xFFFFFFFFFFFFFFFFFFFFFFFFFFFFFFFFFFFFFFFF AND DUP2 MSTORE PUSH1 0x20 ADD SWAP1 DUP2 MSTORE PUSH1 0x20 ADD PUSH0 KECCAK256 PUSH0 ADD PUSH0 SWAP1 SLOAD SWAP1 PUSH2 0x100 EXP SWAP1 DIV PUSH1 0xFF AND PUSH2 0x3AC JUMPI PUSH1 0x40 MLOAD PUSH32 0x8C379A000000000000000000000000000000000000000000000000000000000 DUP2 MSTORE PUSH1 0x4 ADD PUSH2 0x3A3 SWAP1 PUSH2 0x2874 JUMP JUMPDEST PUSH1 0x40 MLOAD DUP1 SWAP2 SUB SWAP1 REVERT JUMPDEST PUSH0 DUP1 DUP3 PUSH20 0xFFFFFFFFFFFFFFFFFFFFFFFFFFFFFFFFFFFFFFFF AND PUSH20 0xFFFFFFFFFFFFFFFFFFFFFFFFFFFFFFFFFFFFFFFF AND DUP2 MSTORE PUSH1 0x20 ADD SWAP1 DUP2 MSTORE PUSH1 0x20 ADD PUSH0 KECCAK256 PUSH0 ADD PUSH0 SWAP1 SLOAD SWAP1 PUSH2 0x100 EXP SWAP1 DIV PUSH1 0xFF AND PUSH2 0x436 JUMPI PUSH1 0x40 MLOAD PUSH32 0x8C379A000000000000000000000000000000000000000000000000000000000 DUP2 MSTORE PUSH1 0x4 ADD PUSH2 0x42D SWAP1 PUSH2 0x2902 JUMP JUMPDEST PUSH1 0x40 MLOAD DUP1 SWAP2 SUB SWAP1 REVERT JUMPDEST PUSH1 0x2 PUSH0 DUP3 PUSH20 0xFFFFFFFFFFFFFFFFFFFFFFFFFFFFFFFFFFFFFFFF AND PUSH20 0xFFFFFFFFFFFFFFFFFFFFFFFFFFFFFFFFFFFFFFFF AND DUP2 MSTORE PUSH1 0x20 ADD SWAP1 DUP2 MSTORE PUSH1 0x20 ADD PUSH0 KECCAK256 PUSH0 CALLER PUSH20 0xFFFFFFFFFFFFFFFFFFFFFFFFFFFFFFFFFFFFFFFF AND PUSH20 0xFFFFFFFFFFFFFFFFFFFFFFFFFFFFFFFFFFFFFFFF AND DUP2 MSTORE PUSH1 0x20 ADD SWAP1 DUP2 MSTORE PUSH1 0x20 ADD PUSH0 KECCAK256 PUSH0 SWAP1 SLOAD SWAP1 PUSH2 0x100 EXP SWAP1 DIV PUSH1 0xFF AND ISZERO PUSH2 0x4FB JUMPI PUSH1 0x40 MLOAD PUSH32 0x8C379A000000000000000000000000000000000000000000000000000000000 DUP2 MSTORE PUSH1 0x4 ADD PUSH2 0x4F2 SWAP1 PUSH2 0x296A JUMP JUMPDEST PUSH1 0x40 MLOAD DUP1 SWAP2 SUB SWAP1 REVERT JUMPDEST PUSH1 0x3 PUSH0 DUP3 PUSH20 0xFFFFFFFFFFFFFFFFFFFFFFFFFFFFFFFFFFFFFFFF AND PUSH20 0xFFFFFFFFFFFFFFFFFFFFFFFFFFFFFFFFFFFFFFFF AND DUP2 MSTORE PUSH1 0x20 ADD SWAP1 DUP2 MSTORE PUSH1 0x20 ADD PUSH0 KECCAK256 PUSH0 CALLER PUSH20 0xFFFFFFFFFFFFFFFFFFFFFFFFFFFFFFFFFFFFFFFF AND PUSH20 0xFFFFFFFFFFFFFFFFFFFFFFFFFFFFFFFFFFFFFFFF AND DUP2 MSTORE PUSH1 0x20 ADD SWAP1 DUP2 MSTORE PUSH1 0x20 ADD PUSH0 KECCAK256 PUSH0 SWAP1 SLOAD SWAP1 PUSH2 0x100 EXP SWAP1 DIV PUSH1 0xFF AND ISZERO PUSH2 0x5C0 JUMPI PUSH1 0x40 MLOAD PUSH32 0x8C379A000000000000000000000000000000000000000000000000000000000 DUP2 MSTORE PUSH1 0x4 ADD PUSH2 0x5B7 SWAP1 PUSH2 0x29F8 JUMP JUMPDEST PUSH1 0x40 MLOAD DUP1 SWAP2 SUB SWAP1 REVERT JUMPDEST PUSH1 0x1 PUSH1 0x3 PUSH0 DUP4 PUSH20 0xFFFFFFFFFFFFFFFFFFFFFFFFFFFFFFFFFFFFFFFF AND PUSH20 0xFFFFFFFFFFFFFFFFFFFFFFFFFFFFFFFFFFFFFFFF AND DUP2 MSTORE PUSH1 0x20 ADD SWAP1 DUP2 MSTORE PUSH1 0x20 ADD PUSH0 KECCAK256 PUSH0 CALLER PUSH20 0xFFFFFFFFFFFFFFFFFFFFFFFFFFFFFFFFFFFFFFFF AND PUSH20 0xFFFFFFFFFFFFFFFFFFFFFFFFFFFFFFFFFFFFFFFF AND DUP2 MSTORE PUSH1 0x20 ADD SWAP1 DUP2 MSTORE PUSH1 0x20 ADD PUSH0 KECCAK256 PUSH0 PUSH2 0x100 EXP DUP2 SLOAD DUP2 PUSH1 0xFF MUL NOT AND SWAP1 DUP4 ISZERO ISZERO MUL OR SWAP1 SSTORE POP CALLER PUSH20 0xFFFFFFFFFFFFFFFFFFFFFFFFFFFFFFFFFFFFFFFF AND DUP2 PUSH20 0xFFFFFFFFFFFFFFFFFFFFFFFFFFFFFFFFFFFFFFFF AND PUSH32 0x2836B27DA25B9B18FC3A89B2E06EBBE3B7268F8291437C0BB6923B2B19212BCB PUSH1 0x40 MLOAD PUSH1 0x40 MLOAD DUP1 SWAP2 SUB SWAP1 LOG3 POP JUMP JUMPDEST PUSH0 PUSH1 0x20 MSTORE DUP1 PUSH0 MSTORE PUSH1 0x40 PUSH0 KECCAK256 PUSH0 SWAP2 POP SWAP1 POP DUP1 PUSH0 ADD PUSH0 SWAP1 SLOAD SWAP1 PUSH2 0x100 EXP SWAP1 DIV PUSH1 0xFF AND SWAP1 DUP1 PUSH1 0x1 ADD DUP1 SLOAD PUSH2 0x6DD SWAP1 PUSH2 0x2A43 JUMP JUMPDEST DUP1 PUSH1 0x1F ADD PUSH1 0x20 DUP1 SWAP2 DIV MUL PUSH1 0x20 ADD PUSH1 0x40 MLOAD SWAP1 DUP2 ADD PUSH1 0x40 MSTORE DUP1 SWAP3 SWAP2 SWAP1 DUP2 DUP2 MSTORE PUSH1 0x20 ADD DUP3 DUP1 SLOAD PUSH2 0x709 SWAP1 PUSH2 0x2A43 JUMP JUMPDEST DUP1 ISZERO PUSH2 0x754 JUMPI DUP1 PUSH1 0x1F LT PUSH2 0x72B JUMPI PUSH2 0x100 DUP1 DUP4 SLOAD DIV MUL DUP4 MSTORE SWAP2 PUSH1 0x20 ADD SWAP2 PUSH2 0x754 JUMP JUMPDEST DUP3 ADD SWAP2 SWAP1 PUSH0 MSTORE PUSH1 0x20 PUSH0 KECCAK256 SWAP1 JUMPDEST DUP2 SLOAD DUP2 MSTORE SWAP1 PUSH1 0x1 ADD SWAP1 PUSH1 0x20 ADD DUP1 DUP4 GT PUSH2 0x737 JUMPI DUP3 SWAP1 SUB PUSH1 0x1F AND DUP3 ADD SWAP2 JUMPDEST POP POP POP POP POP SWAP1 DUP1 PUSH1 0x2 ADD DUP1 SLOAD PUSH2 0x769 SWAP1 PUSH2 0x2A43 JUMP JUMPDEST DUP1 PUSH1 0x1F ADD PUSH1 0x20 DUP1 SWAP2 DIV MUL PUSH1 0x20 ADD PUSH1 0x40 MLOAD SWAP1 DUP2 ADD PUSH1 0x40 MSTORE DUP1 SWAP3 SWAP2 SWAP1 DUP2 DUP2 MSTORE PUSH1 0x20 ADD DUP3 DUP1 SLOAD PUSH2 0x795 SWAP1 PUSH2 0x2A43 JUMP JUMPDEST DUP1 ISZERO PUSH2 0x7E0 JUMPI DUP1 PUSH1 0x1F LT PUSH2 0x7B7 JUMPI PUSH2 0x100 DUP1 DUP4 SLOAD DIV MUL DUP4 MSTORE SWAP2 PUSH1 0x20 ADD SWAP2 PUSH2 0x7E0 JUMP JUMPDEST DUP3 ADD SWAP2 SWAP1 PUSH0 MSTORE PUSH1 0x20 PUSH0 KECCAK256 SWAP1 JUMPDEST DUP2 SLOAD DUP2 MSTORE SWAP1 PUSH1 0x1 ADD SWAP1 PUSH1 0x20 ADD DUP1 DUP4 GT PUSH2 0x7C3 JUMPI DUP3 SWAP1 SUB PUSH1 0x1F AND DUP3 ADD SWAP2 JUMPDEST POP POP POP POP POP SWAP1 DUP1 PUSH1 0x3 ADD DUP1 SLOAD PUSH2 0x7F5 SWAP1 PUSH2 0x2A43 JUMP JUMPDEST DUP1 PUSH1 0x1F ADD PUSH1 0x20 DUP1 SWAP2 DIV MUL PUSH1 0x20 ADD PUSH1 0x40 MLOAD SWAP1 DUP2 ADD PUSH1 0x40 MSTORE DUP1 SWAP3 SWAP2 SWAP1 DUP2 DUP2 MSTORE PUSH1 0x20 ADD DUP3 DUP1 SLOAD PUSH2 0x821 SWAP1 PUSH2 0x2A43 JUMP JUMPDEST DUP1 ISZERO PUSH2 0x86C JUMPI DUP1 PUSH1 0x1F LT PUSH2 0x843 JUMPI PUSH2 0x100 DUP1 DUP4 SLOAD DIV MUL DUP4 MSTORE SWAP2 PUSH1 0x20 ADD SWAP2 PUSH2 0x86C JUMP JUMPDEST DUP3 ADD SWAP2 SWAP1 PUSH0 MSTORE PUSH1 0x20 PUSH0 KECCAK256 SWAP1 JUMPDEST DUP2 SLOAD DUP2 MSTORE SWAP1 PUSH1 0x1 ADD SWAP1 PUSH1 0x20 ADD DUP1 DUP4 GT PUSH2 0x84F JUMPI DUP3 SWAP1 SUB PUSH1 0x1F AND DUP3 ADD SWAP2 JUMPDEST POP POP POP POP POP SWAP1 DUP1 PUSH1 0x4 ADD DUP1 SLOAD PUSH2 0x881 SWAP1 PUSH2 0x2A43 JUMP JUMPDEST DUP1 PUSH1 0x1F ADD PUSH1 0x20 DUP1 SWAP2 DIV MUL PUSH1 0x20 ADD PUSH1 0x40 MLOAD SWAP1 DUP2 ADD PUSH1 0x40 MSTORE DUP1 SWAP3 SWAP2 SWAP1 DUP2 DUP2 MSTORE PUSH1 0x20 ADD DUP3 DUP1 SLOAD PUSH2 0x8AD SWAP1 PUSH2 0x2A43 JUMP JUMPDEST DUP1 ISZERO PUSH2 0x8F8 JUMPI DUP1 PUSH1 0x1F LT PUSH2 0x8CF JUMPI PUSH2 0x100 DUP1 DUP4 SLOAD DIV MUL DUP4 MSTORE SWAP2 PUSH1 0x20 ADD SWAP2 PUSH2 0x8F8 JUMP JUMPDEST DUP3 ADD SWAP2 SWAP1 PUSH0 MSTORE PUSH1 0x20 PUSH0 KECCAK256 SWAP1 JUMPDEST DUP2 SLOAD DUP2 MSTORE SWAP1 PUSH1 0x1 ADD SWAP1 PUSH1 0x20 ADD DUP1 DUP4 GT PUSH2 0x8DB JUMPI DUP3 SWAP1 SUB PUSH1 0x1F AND DUP3 ADD SWAP2 JUMPDEST POP POP POP POP POP SWAP1 POP DUP6 JUMP JUMPDEST PUSH32 0x0 PUSH20 0xFFFFFFFFFFFFFFFFFFFFFFFFFFFFFFFFFFFFFFFF AND CALLER PUSH20 0xFFFFFFFFFFFFFFFFFFFFFFFFFFFFFFFFFFFFFFFF AND EQ PUSH2 0x990 JUMPI PUSH1 0x40 MLOAD PUSH32 0x8C379A000000000000000000000000000000000000000000000000000000000 DUP2 MSTORE PUSH1 0x4 ADD PUSH2 0x987 SWAP1 PUSH2 0x2AE3 JUMP JUMPDEST PUSH1 0x40 MLOAD DUP1 SWAP2 SUB SWAP1 REVERT JUMPDEST PUSH1 0x1 PUSH0 DUP8 PUSH20 0xFFFFFFFFFFFFFFFFFFFFFFFFFFFFFFFFFFFFFFFF AND PUSH20 0xFFFFFFFFFFFFFFFFFFFFFFFFFFFFFFFFFFFFFFFF AND DUP2 MSTORE PUSH1 0x20 ADD SWAP1 DUP2 MSTORE PUSH1 0x20 ADD PUSH0 KECCAK256 PUSH0 ADD PUSH0 SWAP1 SLOAD SWAP1 PUSH2 0x100 EXP SWAP1 DIV PUSH1 0xFF AND ISZERO PUSH2 0xA1C JUMPI PUSH1 0x40 MLOAD PUSH32 0x8C379A000000000000000000000000000000000000000000000000000000000 DUP2 MSTORE PUSH1 0x4 ADD PUSH2 0xA13 SWAP1 PUSH2 0x2B4B JUMP JUMPDEST PUSH1 0x40 MLOAD DUP1 SWAP2 SUB SWAP1 REVERT JUMPDEST PUSH0 DUP1 DUP8 PUSH20 0xFFFFFFFFFFFFFFFFFFFFFFFFFFFFFFFFFFFFFFFF AND PUSH20 0xFFFFFFFFFFFFFFFFFFFFFFFFFFFFFFFFFFFFFFFF AND DUP2 MSTORE PUSH1 0x20 ADD SWAP1 DUP2 MSTORE PUSH1 0x20 ADD PUSH0 KECCAK256 PUSH0 ADD PUSH0 SWAP1 SLOAD SWAP1 PUSH2 0x100 EXP SWAP1 DIV PUSH1 0xFF AND ISZERO PUSH2 0xAA7 JUMPI PUSH1 0x40 MLOAD PUSH32 0x8C379A000000000000000000000000000000000000000000000000000000000 DUP2 MSTORE PUSH1 0x4 ADD PUSH2 0xA9E SWAP1 PUSH2 0x2BD9 JUMP JUMPDEST PUSH1 0x40 MLOAD DUP1 SWAP2 SUB SWAP1 REVERT JUMPDEST PUSH1 0x40 MLOAD DUP1 PUSH1 0xC0 ADD PUSH1 0x40 MSTORE DUP1 PUSH1 0x1 ISZERO ISZERO DUP2 MSTORE PUSH1 0x20 ADD DUP7 DUP2 MSTORE PUSH1 0x20 ADD DUP6 DUP2 MSTORE PUSH1 0x20 ADD DUP5 DUP2 MSTORE PUSH1 0x20 ADD DUP4 DUP2 MSTORE PUSH1 0x20 ADD DUP3 DUP2 MSTORE POP PUSH1 0x1 PUSH0 DUP9 PUSH20 0xFFFFFFFFFFFFFFFFFFFFFFFFFFFFFFFFFFFFFFFF AND PUSH20 0xFFFFFFFFFFFFFFFFFFFFFFFFFFFFFFFFFFFFFFFF AND DUP2 MSTORE PUSH1 0x20 ADD SWAP1 DUP2 MSTORE PUSH1 0x20 ADD PUSH0 KECCAK256 PUSH0 DUP3 ADD MLOAD DUP2 PUSH0 ADD PUSH0 PUSH2 0x100 EXP DUP2 SLOAD DUP2 PUSH1 0xFF MUL NOT AND SWAP1 DUP4 ISZERO ISZERO MUL OR SWAP1 SSTORE POP PUSH1 0x20 DUP3 ADD MLOAD DUP2 PUSH1 0x1 ADD SWAP1 DUP2 PUSH2 0xB46 SWAP2 SWAP1 PUSH2 0x2D9D JUMP JUMPDEST POP PUSH1 0x40 DUP3 ADD MLOAD DUP2 PUSH1 0x2 ADD SWAP1 DUP2 PUSH2 0xB5C SWAP2 SWAP1 PUSH2 0x2D9D JUMP JUMPDEST POP PUSH1 0x60 DUP3 ADD MLOAD DUP2 PUSH1 0x3 ADD SWAP1 DUP2 PUSH2 0xB72 SWAP2 SWAP1 PUSH2 0x2D9D JUMP JUMPDEST POP PUSH1 0x80 DUP3 ADD MLOAD DUP2 PUSH1 0x4 ADD SWAP1 DUP2 PUSH2 0xB88 SWAP2 SWAP1 PUSH2 0x2D9D JUMP JUMPDEST POP PUSH1 0xA0 DUP3 ADD MLOAD DUP2 PUSH1 0x5 ADD SWAP1 DUP2 PUSH2 0xB9E SWAP2 SWAP1 PUSH2 0x2D9D JUMP JUMPDEST POP SWAP1 POP POP DUP6 PUSH20 0xFFFFFFFFFFFFFFFFFFFFFFFFFFFFFFFFFFFFFFFF AND PUSH32 0x9388661DCD7DC6CFF9B4E22AB9459AC0A2682F86CB52FC7A669A6E7F062BCE4C DUP7 DUP7 PUSH1 0x40 MLOAD PUSH2 0xBEA SWAP3 SWAP2 SWAP1 PUSH2 0x2E6C JUMP JUMPDEST PUSH1 0x40 MLOAD DUP1 SWAP2 SUB SWAP1 LOG2 POP POP POP POP POP POP JUMP JUMPDEST PUSH1 0x60 DUP1 PUSH1 0x60 DUP1 PUSH0 DUP1 DUP7 PUSH20 0xFFFFFFFFFFFFFFFFFFFFFFFFFFFFFFFFFFFFFFFF AND PUSH20 0xFFFFFFFFFFFFFFFFFFFFFFFFFFFFFFFFFFFFFFFF AND DUP2 MSTORE PUSH1 0x20 ADD SWAP1 DUP2 MSTORE PUSH1 0x20 ADD PUSH0 KECCAK256 PUSH0 ADD PUSH0 SWAP1 SLOAD SWAP1 PUSH2 0x100 EXP SWAP1 DIV PUSH1 0xFF AND PUSH2 0xC8A JUMPI PUSH1 0x40 MLOAD PUSH32 0x8C379A000000000000000000000000000000000000000000000000000000000 DUP2 MSTORE PUSH1 0x4 ADD PUSH2 0xC81 SWAP1 PUSH2 0x2EEB JUMP JUMPDEST PUSH1 0x40 MLOAD DUP1 SWAP2 SUB SWAP1 REVERT JUMPDEST PUSH0 DUP1 PUSH0 DUP8 PUSH20 0xFFFFFFFFFFFFFFFFFFFFFFFFFFFFFFFFFFFFFFFF AND PUSH20 0xFFFFFFFFFFFFFFFFFFFFFFFFFFFFFFFFFFFFFFFF AND DUP2 MSTORE PUSH1 0x20 ADD SWAP1 DUP2 MSTORE PUSH1 0x20 ADD PUSH0 KECCAK256 PUSH1 0x40 MLOAD DUP1 PUSH1 0xA0 ADD PUSH1 0x40 MSTORE SWAP1 DUP2 PUSH0 DUP3 ADD PUSH0 SWAP1 SLOAD SWAP1 PUSH2 0x100 EXP SWAP1 DIV PUSH1 0xFF AND ISZERO ISZERO ISZERO ISZERO DUP2 MSTORE PUSH1 0x20 ADD PUSH1 0x1 DUP3 ADD DUP1 SLOAD PUSH2 0xCFB SWAP1 PUSH2 0x2A43 JUMP JUMPDEST DUP1 PUSH1 0x1F ADD PUSH1 0x20 DUP1 SWAP2 DIV MUL PUSH1 0x20 ADD PUSH1 0x40 MLOAD SWAP1 DUP2 ADD PUSH1 0x40 MSTORE DUP1 SWAP3 SWAP2 SWAP1 DUP2 DUP2 MSTORE PUSH1 0x20 ADD DUP3 DUP1 SLOAD PUSH2 0xD27 SWAP1 PUSH2 0x2A43 JUMP JUMPDEST DUP1 ISZERO PUSH2 0xD72 JUMPI DUP1 PUSH1 0x1F LT PUSH2 0xD49 JUMPI PUSH2 0x100 DUP1 DUP4 SLOAD DIV MUL DUP4 MSTORE SWAP2 PUSH1 0x20 ADD SWAP2 PUSH2 0xD72 JUMP JUMPDEST DUP3 ADD SWAP2 SWAP1 PUSH0 MSTORE PUSH1 0x20 PUSH0 KECCAK256 SWAP1 JUMPDEST DUP2 SLOAD DUP2 MSTORE SWAP1 PUSH1 0x1 ADD SWAP1 PUSH1 0x20 ADD DUP1 DUP4 GT PUSH2 0xD55 JUMPI DUP3 SWAP1 SUB PUSH1 0x1F AND DUP3 ADD SWAP2 JUMPDEST POP POP POP POP POP DUP2 MSTORE PUSH1 0x20 ADD PUSH1 0x2 DUP3 ADD DUP1 SLOAD PUSH2 0xD8B SWAP1 PUSH2 0x2A43 JUMP JUMPDEST DUP1 PUSH1 0x1F ADD PUSH1 0x20 DUP1 SWAP2 DIV MUL PUSH1 0x20 ADD PUSH1 0x40 MLOAD SWAP1 DUP2 ADD PUSH1 0x40 MSTORE DUP1 SWAP3 SWAP2 SWAP1 DUP2 DUP2 MSTORE PUSH1 0x20 ADD DUP3 DUP1 SLOAD PUSH2 0xDB7 SWAP1 PUSH2 0x2A43 JUMP JUMPDEST DUP1 ISZERO PUSH2 0xE02 JUMPI DUP1 PUSH1 0x1F LT PUSH2 0xDD9 JUMPI PUSH2 0x100 DUP1 DUP4 SLOAD DIV MUL DUP4 MSTORE SWAP2 PUSH1 0x20 ADD SWAP2 PUSH2 0xE02 JUMP JUMPDEST DUP3 ADD SWAP2 SWAP1 PUSH0 MSTORE PUSH1 0x20 PUSH0 KECCAK256 SWAP1 JUMPDEST DUP2 SLOAD DUP2 MSTORE SWAP1 PUSH1 0x1 ADD SWAP1 PUSH1 0x20 ADD DUP1 DUP4 GT PUSH2 0xDE5 JUMPI DUP3 SWAP1 SUB PUSH1 0x1F AND DUP3 ADD SWAP2 JUMPDEST POP POP POP POP POP DUP2 MSTORE PUSH1 0x20 ADD PUSH1 0x3 DUP3 ADD DUP1 SLOAD PUSH2 0xE1B SWAP1 PUSH2 0x2A43 JUMP JUMPDEST DUP1 PUSH1 0x1F ADD PUSH1 0x20 DUP1 SWAP2 DIV MUL PUSH1 0x20 ADD PUSH1 0x40 MLOAD SWAP1 DUP2 ADD PUSH1 0x40 MSTORE DUP1 SWAP3 SWAP2 SWAP1 DUP2 DUP2 MSTORE PUSH1 0x20 ADD DUP3 DUP1 SLOAD PUSH2 0xE47 SWAP1 PUSH2 0x2A43 JUMP JUMPDEST DUP1 ISZERO PUSH2 0xE92 JUMPI DUP1 PUSH1 0x1F LT PUSH2 0xE69 JUMPI PUSH2 0x100 DUP1 DUP4 SLOAD DIV MUL DUP4 MSTORE SWAP2 PUSH1 0x20 ADD SWAP2 PUSH2 0xE92 JUMP JUMPDEST DUP3 ADD SWAP2 SWAP1 PUSH0 MSTORE PUSH1 0x20 PUSH0 KECCAK256 SWAP1 JUMPDEST DUP2 SLOAD DUP2 MSTORE SWAP1 PUSH1 0x1 ADD SWAP1 PUSH1 0x20 ADD DUP1 DUP4 GT PUSH2 0xE75 JUMPI DUP3 SWAP1 SUB PUSH1 0x1F AND DUP3 ADD SWAP2 JUMPDEST POP POP POP POP POP DUP2 MSTORE PUSH1 0x20 ADD PUSH1 0x4 DUP3 ADD DUP1 SLOAD PUSH2 0xEAB SWAP1 PUSH2 0x2A43 JUMP JUMPDEST DUP1 PUSH1 0x1F ADD PUSH1 0x20 DUP1 SWAP2 DIV MUL PUSH1 0x20 ADD PUSH1 0x40 MLOAD SWAP1 DUP2 ADD PUSH1 0x40 MSTORE DUP1 SWAP3 SWAP2 SWAP1 DUP2 DUP2 MSTORE PUSH1 0x20 ADD DUP3 DUP1 SLOAD PUSH2 0xED7 SWAP1 PUSH2 0x2A43 JUMP JUMPDEST DUP1 ISZERO PUSH2 0xF22 JUMPI DUP1 PUSH1 0x1F LT PUSH2 0xEF9 JUMPI PUSH2 0x100 DUP1 DUP4 SLOAD DIV MUL DUP4 MSTORE SWAP2 PUSH1 0x20 ADD SWAP2 PUSH2 0xF22 JUMP JUMPDEST DUP3 ADD SWAP2 SWAP1 PUSH0 MSTORE PUSH1 0x20 PUSH0 KECCAK256 SWAP1 JUMPDEST DUP2 SLOAD DUP2 MSTORE SWAP1 PUSH1 0x1 ADD SWAP1 PUSH1 0x20 ADD DUP1 DUP4 GT PUSH2 0xF05 JUMPI DUP3 SWAP1 SUB PUSH1 0x1F AND DUP3 ADD SWAP2 JUMPDEST POP POP POP POP POP DUP2 MSTORE POP POP SWAP1 POP DUP1 PUSH1 0x20 ADD MLOAD DUP2 PUSH1 0x40 ADD MLOAD DUP3 PUSH1 0x60 ADD MLOAD DUP4 PUSH1 0x80 ADD MLOAD SWAP5 POP SWAP5 POP SWAP5 POP SWAP5 POP POP SWAP2 SWAP4 POP SWAP2 SWAP4 JUMP JUMPDEST PUSH0 DUP1 CALLER PUSH20 0xFFFFFFFFFFFFFFFFFFFFFFFFFFFFFFFFFFFFFFFF AND PUSH20 0xFFFFFFFFFFFFFFFFFFFFFFFFFFFFFFFFFFFFFFFF AND DUP2 MSTORE PUSH1 0x20 ADD SWAP1 DUP2 MSTORE PUSH1 0x20 ADD PUSH0 KECCAK256 PUSH0 ADD PUSH0 SWAP1 SLOAD SWAP1 PUSH2 0x100 EXP SWAP1 DIV PUSH1 0xFF AND ISZERO PUSH2 0xFDC JUMPI PUSH1 0x40 MLOAD PUSH32 0x8C379A000000000000000000000000000000000000000000000000000000000 DUP2 MSTORE PUSH1 0x4 ADD PUSH2 0xFD3 SWAP1 PUSH2 0x2F53 JUMP JUMPDEST PUSH1 0x40 MLOAD DUP1 SWAP2 SUB SWAP1 REVERT JUMPDEST PUSH1 0x1 PUSH0 CALLER PUSH20 0xFFFFFFFFFFFFFFFFFFFFFFFFFFFFFFFFFFFFFFFF AND PUSH20 0xFFFFFFFFFFFFFFFFFFFFFFFFFFFFFFFFFFFFFFFF AND DUP2 MSTORE PUSH1 0x20 ADD SWAP1 DUP2 MSTORE PUSH1 0x20 ADD PUSH0 KECCAK256 PUSH0 ADD PUSH0 SWAP1 SLOAD SWAP1 PUSH2 0x100 EXP SWAP1 DIV PUSH1 0xFF AND ISZERO PUSH2 0x1068 JUMPI PUSH1 0x40 MLOAD PUSH32 0x8C379A000000000000000000000000000000000000000000000000000000000 DUP2 MSTORE PUSH1 0x4 ADD PUSH2 0x105F SWAP1 PUSH2 0x2FE1 JUMP JUMPDEST PUSH1 0x40 MLOAD DUP1 SWAP2 SUB SWAP1 REVERT JUMPDEST PUSH1 0x40 MLOAD DUP1 PUSH1 0xA0 ADD PUSH1 0x40 MSTORE DUP1 PUSH1 0x1 ISZERO ISZERO DUP2 MSTORE PUSH1 0x20 ADD DUP6 DUP2 MSTORE PUSH1 0x20 ADD DUP5 DUP2 MSTORE PUSH1 0x20 ADD DUP4 DUP2 MSTORE PUSH1 0x20 ADD DUP3 DUP2 MSTORE POP PUSH0 DUP1 CALLER PUSH20 0xFFFFFFFFFFFFFFFFFFFFFFFFFFFFFFFFFFFFFFFF AND PUSH20 0xFFFFFFFFFFFFFFFFFFFFFFFFFFFFFFFFFFFFFFFF AND DUP2 MSTORE PUSH1 0x20 ADD SWAP1 DUP2 MSTORE PUSH1 0x20 ADD PUSH0 KECCAK256 PUSH0 DUP3 ADD MLOAD DUP2 PUSH0 ADD PUSH0 PUSH2 0x100 EXP DUP2 SLOAD DUP2 PUSH1 0xFF MUL NOT AND SWAP1 DUP4 ISZERO ISZERO MUL OR SWAP1 SSTORE POP PUSH1 0x20 DUP3 ADD MLOAD DUP2 PUSH1 0x1 ADD SWAP1 DUP2 PUSH2 0x1100 SWAP2 SWAP1 PUSH2 0x2D9D JUMP JUMPDEST POP PUSH1 0x40 DUP3 ADD MLOAD DUP2 PUSH1 0x2 ADD SWAP1 DUP2 PUSH2 0x1116 SWAP2 SWAP1 PUSH2 0x2D9D JUMP JUMPDEST POP PUSH1 0x60 DUP3 ADD MLOAD DUP2 PUSH1 0x3 ADD SWAP1 DUP2 PUSH2 0x112C SWAP2 SWAP1 PUSH2 0x2D9D JUMP JUMPDEST POP PUSH1 0x80 DUP3 ADD MLOAD DUP2 PUSH1 0x4 ADD SWAP1 DUP2 PUSH2 0x1142 SWAP2 SWAP1 PUSH2 0x2D9D JUMP JUMPDEST POP SWAP1 POP POP CALLER PUSH20 0xFFFFFFFFFFFFFFFFFFFFFFFFFFFFFFFFFFFFFFFF AND PUSH32 0xC85B128388B9C331A2A5485DCE4CD0F3DB9F7C279D327CE95D6D39D6C94644C7 DUP6 PUSH1 0x40 MLOAD PUSH2 0x118C SWAP2 SWAP1 PUSH2 0x2642 JUMP JUMPDEST PUSH1 0x40 MLOAD DUP1 SWAP2 SUB SWAP1 LOG2 POP POP POP POP JUMP JUMPDEST PUSH1 0x3 PUSH1 0x20 MSTORE DUP2 PUSH0 MSTORE PUSH1 0x40 PUSH0 KECCAK256 PUSH1 0x20 MSTORE DUP1 PUSH0 MSTORE PUSH1 0x40 PUSH0 KECCAK256 PUSH0 SWAP2 POP SWAP2 POP SWAP1 SLOAD SWAP1 PUSH2 0x100 EXP SWAP1 DIV PUSH1 0xFF AND DUP2 JUMP JUMPDEST PUSH1 0x60 PUSH1 0x1 PUSH0 DUP4 PUSH20 0xFFFFFFFFFFFFFFFFFFFFFFFFFFFFFFFFFFFFFFFF AND PUSH20 0xFFFFFFFFFFFFFFFFFFFFFFFFFFFFFFFFFFFFFFFF AND DUP2 MSTORE PUSH1 0x20 ADD SWAP1 DUP2 MSTORE PUSH1 0x20 ADD PUSH0 KECCAK256 PUSH0 ADD PUSH0 SWAP1 SLOAD SWAP1 PUSH2 0x100 EXP SWAP1 DIV PUSH1 0xFF AND PUSH2 0x1251 JUMPI PUSH1 0x40 MLOAD PUSH32 0x8C379A000000000000000000000000000000000000000000000000000000000 DUP2 MSTORE PUSH1 0x4 ADD PUSH2 0x1248 SWAP1 PUSH2 0x3049 JUMP JUMPDEST PUSH1 0x40 MLOAD DUP1 SWAP2 SUB SWAP1 REVERT JUMPDEST PUSH1 0x1 PUSH0 DUP4 PUSH20 0xFFFFFFFFFFFFFFFFFFFFFFFFFFFFFFFFFFFFFFFF AND PUSH20 0xFFFFFFFFFFFFFFFFFFFFFFFFFFFFFFFFFFFFFFFF AND DUP2 MSTORE PUSH1 0x20 ADD SWAP1 DUP2 MSTORE PUSH1 0x20 ADD PUSH0 KECCAK256 PUSH1 0x1 ADD DUP1 SLOAD PUSH2 0x129C SWAP1 PUSH2 0x2A43 JUMP JUMPDEST DUP1 PUSH1 0x1F ADD PUSH1 0x20 DUP1 SWAP2 DIV MUL PUSH1 0x20 ADD PUSH1 0x40 MLOAD SWAP1 DUP2 ADD PUSH1 0x40 MSTORE DUP1 SWAP3 SWAP2 SWAP1 DUP2 DUP2 MSTORE PUSH1 0x20 ADD DUP3 DUP1 SLOAD PUSH2 0x12C8 SWAP1 PUSH2 0x2A43 JUMP JUMPDEST DUP1 ISZERO PUSH2 0x1313 JUMPI DUP1 PUSH1 0x1F LT PUSH2 0x12EA JUMPI PUSH2 0x100 DUP1 DUP4 SLOAD DIV MUL DUP4 MSTORE SWAP2 PUSH1 0x20 ADD SWAP2 PUSH2 0x1313 JUMP JUMPDEST DUP3 ADD SWAP2 SWAP1 PUSH0 MSTORE PUSH1 0x20 PUSH0 KECCAK256 SWAP1 JUMPDEST DUP2 SLOAD DUP2 MSTORE SWAP1 PUSH1 0x1 ADD SWAP1 PUSH1 0x20 ADD DUP1 DUP4 GT PUSH2 0x12F6 JUMPI DUP3 SWAP1 SUB PUSH1 0x1F AND DUP3 ADD SWAP2 JUMPDEST POP POP POP POP POP SWAP1 POP SWAP2 SWAP1 POP JUMP JUMPDEST PUSH1 0x1 PUSH0 CALLER PUSH20 0xFFFFFFFFFFFFFFFFFFFFFFFFFFFFFFFFFFFFFFFF AND PUSH20 0xFFFFFFFFFFFFFFFFFFFFFFFFFFFFFFFFFFFFFFFF AND DUP2 MSTORE PUSH1 0x20 ADD SWAP1 DUP2 MSTORE PUSH1 0x20 ADD PUSH0 KECCAK256 PUSH0 ADD PUSH0 SWAP1 SLOAD SWAP1 PUSH2 0x100 EXP SWAP1 DIV PUSH1 0xFF AND PUSH2 0x13AA JUMPI PUSH1 0x40 MLOAD PUSH32 0x8C379A000000000000000000000000000000000000000000000000000000000 DUP2 MSTORE PUSH1 0x4 ADD PUSH2 0x13A1 SWAP1 PUSH2 0x2874 JUMP JUMPDEST PUSH1 0x40 MLOAD DUP1 SWAP2 SUB SWAP1 REVERT JUMPDEST PUSH1 0x2 PUSH0 DUP4 PUSH20 0xFFFFFFFFFFFFFFFFFFFFFFFFFFFFFFFFFFFFFFFF AND PUSH20 0xFFFFFFFFFFFFFFFFFFFFFFFFFFFFFFFFFFFFFFFF AND DUP2 MSTORE PUSH1 0x20 ADD SWAP1 DUP2 MSTORE PUSH1 0x20 ADD PUSH0 KECCAK256 PUSH0 CALLER PUSH20 0xFFFFFFFFFFFFFFFFFFFFFFFFFFFFFFFFFFFFFFFF AND PUSH20 0xFFFFFFFFFFFFFFFFFFFFFFFFFFFFFFFFFFFFFFFF AND DUP2 MSTORE PUSH1 0x20 ADD SWAP1 DUP2 MSTORE PUSH1 0x20 ADD PUSH0 KECCAK256 PUSH0 SWAP1 SLOAD SWAP1 PUSH2 0x100 EXP SWAP1 DIV PUSH1 0xFF AND PUSH2 0x146E JUMPI PUSH1 0x40 MLOAD PUSH32 0x8C379A000000000000000000000000000000000000000000000000000000000 DUP2 MSTORE PUSH1 0x4 ADD PUSH2 0x1465 SWAP1 PUSH2 0x30D7 JUMP JUMPDEST PUSH1 0x40 MLOAD DUP1 SWAP2 SUB SWAP1 REVERT JUMPDEST PUSH0 DUP2 MLOAD GT PUSH2 0x14B1 JUMPI PUSH1 0x40 MLOAD PUSH32 0x8C379A000000000000000000000000000000000000000000000000000000000 DUP2 MSTORE PUSH1 0x4 ADD PUSH2 0x14A8 SWAP1 PUSH2 0x313F JUMP JUMPDEST PUSH1 0x40 MLOAD DUP1 SWAP2 SUB SWAP1 REVERT JUMPDEST CALLER PUSH20 0xFFFFFFFFFFFFFFFFFFFFFFFFFFFFFFFFFFFFFFFF AND DUP3 PUSH20 0xFFFFFFFFFFFFFFFFFFFFFFFFFFFFFFFFFFFFFFFF AND PUSH32 0x8FED6A2B6C4B373EC8518DD42CB708C88BEB55D8806492942025F2D86118BCB7 TIMESTAMP DUP5 PUSH1 0x40 MLOAD PUSH2 0x1510 SWAP3 SWAP2 SWAP1 PUSH2 0x31BE JUMP JUMPDEST PUSH1 0x40 MLOAD DUP1 SWAP2 SUB SWAP1 LOG3 POP POP JUMP JUMPDEST PUSH32 0x0 DUP2 JUMP JUMPDEST PUSH32 0x0 PUSH20 0xFFFFFFFFFFFFFFFFFFFFFFFFFFFFFFFFFFFFFFFF AND CALLER PUSH20 0xFFFFFFFFFFFFFFFFFFFFFFFFFFFFFFFFFFFFFFFF AND EQ PUSH2 0x15CE JUMPI PUSH1 0x40 MLOAD PUSH32 0x8C379A000000000000000000000000000000000000000000000000000000000 DUP2 MSTORE PUSH1 0x4 ADD PUSH2 0x15C5 SWAP1 PUSH2 0x2AE3 JUMP JUMPDEST PUSH1 0x40 MLOAD DUP1 SWAP2 SUB SWAP1 REVERT JUMPDEST PUSH1 0x1 PUSH0 DUP3 PUSH20 0xFFFFFFFFFFFFFFFFFFFFFFFFFFFFFFFFFFFFFFFF AND PUSH20 0xFFFFFFFFFFFFFFFFFFFFFFFFFFFFFFFFFFFFFFFF AND DUP2 MSTORE PUSH1 0x20 ADD SWAP1 DUP2 MSTORE PUSH1 0x20 ADD PUSH0 KECCAK256 PUSH0 ADD PUSH0 SWAP1 SLOAD SWAP1 PUSH2 0x100 EXP SWAP1 DIV PUSH1 0xFF AND PUSH2 0x1659 JUMPI PUSH1 0x40 MLOAD PUSH32 0x8C379A000000000000000000000000000000000000000000000000000000000 DUP2 MSTORE PUSH1 0x4 ADD PUSH2 0x1650 SWAP1 PUSH2 0x3236 JUMP JUMPDEST PUSH1 0x40 MLOAD DUP1 SWAP2 SUB SWAP1 REVERT JUMPDEST PUSH32 0x0 PUSH20 0xFFFFFFFFFFFFFFFFFFFFFFFFFFFFFFFFFFFFFFFF AND DUP2 PUSH20 0xFFFFFFFFFFFFFFFFFFFFFFFFFFFFFFFFFFFFFFFF AND SUB PUSH2 0x16E7 JUMPI PUSH1 0x40 MLOAD PUSH32 0x8C379A000000000000000000000000000000000000000000000000000000000 DUP2 MSTORE PUSH1 0x4 ADD PUSH2 0x16DE SWAP1 PUSH2 0x32C4 JUMP JUMPDEST PUSH1 0x40 MLOAD DUP1 SWAP2 SUB SWAP1 REVERT JUMPDEST PUSH0 PUSH1 0x1 PUSH0 DUP4 PUSH20 0xFFFFFFFFFFFFFFFFFFFFFFFFFFFFFFFFFFFFFFFF AND PUSH20 0xFFFFFFFFFFFFFFFFFFFFFFFFFFFFFFFFFFFFFFFF AND DUP2 MSTORE PUSH1 0x20 ADD SWAP1 DUP2 MSTORE PUSH1 0x20 ADD PUSH0 KECCAK256 PUSH0 ADD PUSH0 PUSH2 0x100 EXP DUP2 SLOAD DUP2 PUSH1 0xFF MUL NOT AND SWAP1 DUP4 ISZERO ISZERO MUL OR SWAP1 SSTORE POP DUP1 PUSH20 0xFFFFFFFFFFFFFFFFFFFFFFFFFFFFFFFFFFFFFFFF AND PUSH32 0x493D7CF6A7C880406A55654D6727464EA088BD01D40498E1987A327E68961AB8 PUSH1 0x40 MLOAD PUSH1 0x40 MLOAD DUP1 SWAP2 SUB SWAP1 LOG2 POP JUMP JUMPDEST PUSH0 DUP1 CALLER PUSH20 0xFFFFFFFFFFFFFFFFFFFFFFFFFFFFFFFFFFFFFFFF AND PUSH20 0xFFFFFFFFFFFFFFFFFFFFFFFFFFFFFFFFFFFFFFFF AND DUP2 MSTORE PUSH1 0x20 ADD SWAP1 DUP2 MSTORE PUSH1 0x20 ADD PUSH0 KECCAK256 PUSH0 ADD PUSH0 SWAP1 SLOAD SWAP1 PUSH2 0x100 EXP SWAP1 DIV PUSH1 0xFF AND PUSH2 0x180D JUMPI PUSH1 0x40 MLOAD PUSH32 0x8C379A000000000000000000000000000000000000000000000000000000000 DUP2 MSTORE PUSH1 0x4 ADD PUSH2 0x1804 SWAP1 PUSH2 0x3352 JUMP JUMPDEST PUSH1 0x40 MLOAD DUP1 SWAP2 SUB SWAP1 REVERT JUMPDEST PUSH1 0x3 PUSH0 CALLER PUSH20 0xFFFFFFFFFFFFFFFFFFFFFFFFFFFFFFFFFFFFFFFF AND PUSH20 0xFFFFFFFFFFFFFFFFFFFFFFFFFFFFFFFFFFFFFFFF AND DUP2 MSTORE PUSH1 0x20 ADD SWAP1 DUP2 MSTORE PUSH1 0x20 ADD PUSH0 KECCAK256 PUSH0 DUP3 PUSH20 0xFFFFFFFFFFFFFFFFFFFFFFFFFFFFFFFFFFFFFFFF AND PUSH20 0xFFFFFFFFFFFFFFFFFFFFFFFFFFFFFFFFFFFFFFFF AND DUP2 MSTORE PUSH1 0x20 ADD SWAP1 DUP2 MSTORE PUSH1 0x20 ADD PUSH0 KECCAK256 PUSH0 SWAP1 SLOAD SWAP1 PUSH2 0x100 EXP SWAP1 DIV PUSH1 0xFF AND PUSH2 0x18D1 JUMPI PUSH1 0x40 MLOAD PUSH32 0x8C379A000000000000000000000000000000000000000000000000000000000 DUP2 MSTORE PUSH1 0x4 ADD PUSH2 0x18C8 SWAP1 PUSH2 0x33E0 JUMP JUMPDEST PUSH1 0x40 MLOAD DUP1 SWAP2 SUB SWAP1 REVERT JUMPDEST PUSH0 PUSH1 0x3 PUSH0 CALLER PUSH20 0xFFFFFFFFFFFFFFFFFFFFFFFFFFFFFFFFFFFFFFFF AND PUSH20 0xFFFFFFFFFFFFFFFFFFFFFFFFFFFFFFFFFFFFFFFF AND DUP2 MSTORE PUSH1 0x20 ADD SWAP1 DUP2 MSTORE PUSH1 0x20 ADD PUSH0 KECCAK256 PUSH0 DUP4 PUSH20 0xFFFFFFFFFFFFFFFFFFFFFFFFFFFFFFFFFFFFFFFF AND PUSH20 0xFFFFFFFFFFFFFFFFFFFFFFFFFFFFFFFFFFFFFFFF AND DUP2 MSTORE PUSH1 0x20 ADD SWAP1 DUP2 MSTORE PUSH1 0x20 ADD PUSH0 KECCAK256 PUSH0 PUSH2 0x100 EXP DUP2 SLOAD DUP2 PUSH1 0xFF MUL NOT AND SWAP1 DUP4 ISZERO ISZERO MUL OR SWAP1 SSTORE POP DUP1 PUSH20 0xFFFFFFFFFFFFFFFFFFFFFFFFFFFFFFFFFFFFFFFF AND CALLER PUSH20 0xFFFFFFFFFFFFFFFFFFFFFFFFFFFFFFFFFFFFFFFF AND PUSH32 0xEE666520C6FBC392D1A1E9C8845F759ABF986E12B9927E3A452C94CE2C05D1DF PUSH1 0x40 MLOAD PUSH1 0x40 MLOAD DUP1 SWAP2 SUB SWAP1 LOG3 POP JUMP JUMPDEST PUSH0 DUP1 CALLER PUSH20 0xFFFFFFFFFFFFFFFFFFFFFFFFFFFFFFFFFFFFFFFF AND PUSH20 0xFFFFFFFFFFFFFFFFFFFFFFFFFFFFFFFFFFFFFFFF AND DUP2 MSTORE PUSH1 0x20 ADD SWAP1 DUP2 MSTORE PUSH1 0x20 ADD PUSH0 KECCAK256 PUSH0 ADD PUSH0 SWAP1 SLOAD SWAP1 PUSH2 0x100 EXP SWAP1 DIV PUSH1 0xFF AND PUSH2 0x1A47 JUMPI PUSH1 0x40 MLOAD PUSH32 0x8C379A000000000000000000000000000000000000000000000000000000000 DUP2 MSTORE PUSH1 0x4 ADD PUSH2 0x1A3E SWAP1 PUSH2 0x3352 JUMP JUMPDEST PUSH1 0x40 MLOAD DUP1 SWAP2 SUB SWAP1 REVERT JUMPDEST PUSH1 0x1 PUSH0 DUP3 PUSH20 0xFFFFFFFFFFFFFFFFFFFFFFFFFFFFFFFFFFFFFFFF AND PUSH20 0xFFFFFFFFFFFFFFFFFFFFFFFFFFFFFFFFFFFFFFFF AND DUP2 MSTORE PUSH1 0x20 ADD SWAP1 DUP2 MSTORE PUSH1 0x20 ADD PUSH0 KECCAK256 PUSH0 ADD PUSH0 SWAP1 SLOAD SWAP1 PUSH2 0x100 EXP SWAP1 DIV PUSH1 0xFF AND PUSH2 0x1AD2 JUMPI PUSH1 0x40 MLOAD PUSH32 0x8C379A000000000000000000000000000000000000000000000000000000000 DUP2 MSTORE PUSH1 0x4 ADD PUSH2 0x1AC9 SWAP1 PUSH2 0x346E JUMP JUMPDEST PUSH1 0x40 MLOAD DUP1 SWAP2 SUB SWAP1 REVERT JUMPDEST PUSH0 PUSH1 0x3 PUSH0 CALLER PUSH20 0xFFFFFFFFFFFFFFFFFFFFFFFFFFFFFFFFFFFFFFFF AND PUSH20 0xFFFFFFFFFFFFFFFFFFFFFFFFFFFFFFFFFFFFFFFF AND DUP2 MSTORE PUSH1 0x20 ADD SWAP1 DUP2 MSTORE PUSH1 0x20 ADD PUSH0 KECCAK256 PUSH0 DUP4 PUSH20 0xFFFFFFFFFFFFFFFFFFFFFFFFFFFFFFFFFFFFFFFF AND PUSH20 0xFFFFFFFFFFFFFFFFFFFFFFFFFFFFFFFFFFFFFFFF AND DUP2 MSTORE PUSH1 0x20 ADD SWAP1 DUP2 MSTORE PUSH1 0x20 ADD PUSH0 KECCAK256 PUSH0 PUSH2 0x100 EXP DUP2 SLOAD DUP2 PUSH1 0xFF MUL NOT AND SWAP1 DUP4 ISZERO ISZERO MUL OR SWAP1 SSTORE POP PUSH1 0x1 PUSH1 0x2 PUSH0 CALLER PUSH20 0xFFFFFFFFFFFFFFFFFFFFFFFFFFFFFFFFFFFFFFFF AND PUSH20 0xFFFFFFFFFFFFFFFFFFFFFFFFFFFFFFFFFFFFFFFF AND DUP2 MSTORE PUSH1 0x20 ADD SWAP1 DUP2 MSTORE PUSH1 0x20 ADD PUSH0 KECCAK256 PUSH0 DUP4 PUSH20 0xFFFFFFFFFFFFFFFFFFFFFFFFFFFFFFFFFFFFFFFF AND PUSH20 0xFFFFFFFFFFFFFFFFFFFFFFFFFFFFFFFFFFFFFFFF AND DUP2 MSTORE PUSH1 0x20 ADD SWAP1 DUP2 MSTORE PUSH1 0x20 ADD PUSH0 KECCAK256 PUSH0 PUSH2 0x100 EXP DUP2 SLOAD DUP2 PUSH1 0xFF MUL NOT AND SWAP1 DUP4 ISZERO ISZERO MUL OR SWAP1 SSTORE POP DUP1 PUSH20 0xFFFFFFFFFFFFFFFFFFFFFFFFFFFFFFFFFFFFFFFF AND CALLER PUSH20 0xFFFFFFFFFFFFFFFFFFFFFFFFFFFFFFFFFFFFFFFF AND PUSH32 0x8105C574D2239A3A4F73F5EFC5BC253CFFB275647DF535ADFA2C240739CC9220 PUSH1 0x40 MLOAD PUSH1 0x40 MLOAD DUP1 SWAP2 SUB SWAP1 LOG3 POP JUMP JUMPDEST PUSH1 0x1 PUSH1 0x20 MSTORE DUP1 PUSH0 MSTORE PUSH1 0x40 PUSH0 KECCAK256 PUSH0 SWAP2 POP SWAP1 POP DUP1 PUSH0 ADD PUSH0 SWAP1 SLOAD SWAP1 PUSH2 0x100 EXP SWAP1 DIV PUSH1 0xFF AND SWAP1 DUP1 PUSH1 0x1 ADD DUP1 SLOAD PUSH2 0x1C7F SWAP1 PUSH2 0x2A43 JUMP JUMPDEST DUP1 PUSH1 0x1F ADD PUSH1 0x20 DUP1 SWAP2 DIV MUL PUSH1 0x20 ADD PUSH1 0x40 MLOAD SWAP1 DUP2 ADD PUSH1 0x40 MSTORE DUP1 SWAP3 SWAP2 SWAP1 DUP2 DUP2 MSTORE PUSH1 0x20 ADD DUP3 DUP1 SLOAD PUSH2 0x1CAB SWAP1 PUSH2 0x2A43 JUMP JUMPDEST DUP1 ISZERO PUSH2 0x1CF6 JUMPI DUP1 PUSH1 0x1F LT PUSH2 0x1CCD JUMPI PUSH2 0x100 DUP1 DUP4 SLOAD DIV MUL DUP4 MSTORE SWAP2 PUSH1 0x20 ADD SWAP2 PUSH2 0x1CF6 JUMP JUMPDEST DUP3 ADD SWAP2 SWAP1 PUSH0 MSTORE PUSH1 0x20 PUSH0 KECCAK256 SWAP1 JUMPDEST DUP2 SLOAD DUP2 MSTORE SWAP1 PUSH1 0x1 ADD SWAP1 PUSH1 0x20 ADD DUP1 DUP4 GT PUSH2 0x1CD9 JUMPI DUP3 SWAP1 SUB PUSH1 0x1F AND DUP3 ADD SWAP2 JUMPDEST POP POP POP POP POP SWAP1 DUP1 PUSH1 0x2 ADD DUP1 SLOAD PUSH2 0x1D0B SWAP1 PUSH2 0x2A43 JUMP JUMPDEST DUP1 PUSH1 0x1F ADD PUSH1 0x20 DUP1 SWAP2 DIV MUL PUSH1 0x20 ADD PUSH1 0x40 MLOAD SWAP1 DUP2 ADD PUSH1 0x40 MSTORE DUP1 SWAP3 SWAP2 SWAP1 DUP2 DUP2 MSTORE PUSH1 0x20 ADD DUP3 DUP1 SLOAD PUSH2 0x1D37 SWAP1 PUSH2 0x2A43 JUMP JUMPDEST DUP1 ISZERO PUSH2 0x1D82 JUMPI DUP1 PUSH1 0x1F LT PUSH2 0x1D59 JUMPI PUSH2 0x100 DUP1 DUP4 SLOAD DIV MUL DUP4 MSTORE SWAP2 PUSH1 0x20 ADD SWAP2 PUSH2 0x1D82 JUMP JUMPDEST DUP3 ADD SWAP2 SWAP1 PUSH0 MSTORE PUSH1 0x20 PUSH0 KECCAK256 SWAP1 JUMPDEST DUP2 SLOAD DUP2 MSTORE SWAP1 PUSH1 0x1 ADD SWAP1 PUSH1 0x20 ADD DUP1 DUP4 GT PUSH2 0x1D65 JUMPI DUP3 SWAP1 SUB PUSH1 0x1F AND DUP3 ADD SWAP2 JUMPDEST POP POP POP POP POP SWAP1 DUP1 PUSH1 0x3 ADD DUP1 SLOAD PUSH2 0x1D97 SWAP1 PUSH2 0x2A43 JUMP JUMPDEST DUP1 PUSH1 0x1F ADD PUSH1 0x20 DUP1 SWAP2 DIV MUL PUSH1 0x20 ADD PUSH1 0x40 MLOAD SWAP1 DUP2 ADD PUSH1 0x40 MSTORE DUP1 SWAP3 SWAP2 SWAP1 DUP2 DUP2 MSTORE PUSH1 0x20 ADD DUP3 DUP1 SLOAD PUSH2 0x1DC3 SWAP1 PUSH2 0x2A43 JUMP JUMPDEST DUP1 ISZERO PUSH2 0x1E0E JUMPI DUP1 PUSH1 0x1F LT PUSH2 0x1DE5 JUMPI PUSH2 0x100 DUP1 DUP4 SLOAD DIV MUL DUP4 MSTORE SWAP2 PUSH1 0x20 ADD SWAP2 PUSH2 0x1E0E JUMP JUMPDEST DUP3 ADD SWAP2 SWAP1 PUSH0 MSTORE PUSH1 0x20 PUSH0 KECCAK256 SWAP1 JUMPDEST DUP2 SLOAD DUP2 MSTORE SWAP1 PUSH1 0x1 ADD SWAP1 PUSH1 0x20 ADD DUP1 DUP4 GT PUSH2 0x1DF1 JUMPI DUP3 SWAP1 SUB PUSH1 0x1F AND DUP3 ADD SWAP2 JUMPDEST POP POP POP POP POP SWAP1 DUP1 PUSH1 0x4 ADD DUP1 SLOAD PUSH2 0x1E23 SWAP1 PUSH2 0x2A43 JUMP JUMPDEST DUP1 PUSH1 0x1F ADD PUSH1 0x20 DUP1 SWAP2 DIV MUL PUSH1 0x20 ADD PUSH1 0x40 MLOAD SWAP1 DUP2 ADD PUSH1 0x40 MSTORE DUP1 SWAP3 SWAP2 SWAP1 DUP2 DUP2 MSTORE PUSH1 0x20 ADD DUP3 DUP1 SLOAD PUSH2 0x1E4F SWAP1 PUSH2 0x2A43 JUMP JUMPDEST DUP1 ISZERO PUSH2 0x1E9A JUMPI DUP1 PUSH1 0x1F LT PUSH2 0x1E71 JUMPI PUSH2 0x100 DUP1 DUP4 SLOAD DIV MUL DUP4 MSTORE SWAP2 PUSH1 0x20 ADD SWAP2 PUSH2 0x1E9A JUMP JUMPDEST DUP3 ADD SWAP2 SWAP1 PUSH0 MSTORE PUSH1 0x20 PUSH0 KECCAK256 SWAP1 JUMPDEST DUP2 SLOAD DUP2 MSTORE SWAP1 PUSH1 0x1 ADD SWAP1 PUSH1 0x20 ADD DUP1 DUP4 GT PUSH2 0x1E7D JUMPI DUP3 SWAP1 SUB PUSH1 0x1F AND DUP3 ADD SWAP2 JUMPDEST POP POP POP POP POP SWAP1 DUP1 PUSH1 0x5 ADD DUP1 SLOAD PUSH2 0x1EAF SWAP1 PUSH2 0x2A43 JUMP JUMPDEST DUP1 PUSH1 0x1F ADD PUSH1 0x20 DUP1 SWAP2 DIV MUL PUSH1 0x20 ADD PUSH1 0x40 MLOAD SWAP1 DUP2 ADD PUSH1 0x40 MSTORE DUP1 SWAP3 SWAP2 SWAP1 DUP2 DUP2 MSTORE PUSH1 0x20 ADD DUP3 DUP1 SLOAD PUSH2 0x1EDB SWAP1 PUSH2 0x2A43 JUMP JUMPDEST DUP1 ISZERO PUSH2 0x1F26 JUMPI DUP1 PUSH1 0x1F LT PUSH2 0x1EFD JUMPI PUSH2 0x100 DUP1 DUP4 SLOAD DIV MUL DUP4 MSTORE SWAP2 PUSH1 0x20 ADD SWAP2 PUSH2 0x1F26 JUMP JUMPDEST DUP3 ADD SWAP2 SWAP1 PUSH0 MSTORE PUSH1 0x20 PUSH0 KECCAK256 SWAP1 JUMPDEST DUP2 SLOAD DUP2 MSTORE SWAP1 PUSH1 0x1 ADD SWAP1 PUSH1 0x20 ADD DUP1 DUP4 GT PUSH2 0x1F09 JUMPI DUP3 SWAP1 SUB PUSH1 0x1F AND DUP3 ADD SWAP2 JUMPDEST POP POP POP POP POP SWAP1 POP DUP7 JUMP JUMPDEST PUSH0 DUP1 CALLER PUSH20 0xFFFFFFFFFFFFFFFFFFFFFFFFFFFFFFFFFFFFFFFF AND PUSH20 0xFFFFFFFFFFFFFFFFFFFFFFFFFFFFFFFFFFFFFFFF AND DUP2 MSTORE PUSH1 0x20 ADD SWAP1 DUP2 MSTORE PUSH1 0x20 ADD PUSH0 KECCAK256 PUSH0 ADD PUSH0 SWAP1 SLOAD SWAP1 PUSH2 0x100 EXP SWAP1 DIV PUSH1 0xFF AND PUSH2 0x1FBA JUMPI PUSH1 0x40 MLOAD PUSH32 0x8C379A000000000000000000000000000000000000000000000000000000000 DUP2 MSTORE PUSH1 0x4 ADD PUSH2 0x1FB1 SWAP1 PUSH2 0x3352 JUMP JUMPDEST PUSH1 0x40 MLOAD DUP1 SWAP2 SUB SWAP1 REVERT JUMPDEST PUSH0 PUSH1 0x2 PUSH0 CALLER PUSH20 0xFFFFFFFFFFFFFFFFFFFFFFFFFFFFFFFFFFFFFFFF AND PUSH20 0xFFFFFFFFFFFFFFFFFFFFFFFFFFFFFFFFFFFFFFFF AND DUP2 MSTORE PUSH1 0x20 ADD SWAP1 DUP2 MSTORE PUSH1 0x20 ADD PUSH0 KECCAK256 PUSH0 DUP4 PUSH20 0xFFFFFFFFFFFFFFFFFFFFFFFFFFFFFFFFFFFFFFFF AND PUSH20 0xFFFFFFFFFFFFFFFFFFFFFFFFFFFFFFFFFFFFFFFF AND DUP2 MSTORE PUSH1 0x20 ADD SWAP1 DUP2 MSTORE PUSH1 0x20 ADD PUSH0 KECCAK256 PUSH0 PUSH2 0x100 EXP DUP2 SLOAD DUP2 PUSH1 0xFF MUL NOT AND SWAP1 DUP4 ISZERO ISZERO MUL OR SWAP1 SSTORE POP DUP1 PUSH20 0xFFFFFFFFFFFFFFFFFFFFFFFFFFFFFFFFFFFFFFFF AND CALLER PUSH20 0xFFFFFFFFFFFFFFFFFFFFFFFFFFFFFFFFFFFFFFFF AND PUSH32 0xEBECEE2D3F2EA272F73DD9D9CCC0BACD11280D61240332CBCD8A68173AE5CC2C PUSH1 0x40 MLOAD PUSH1 0x40 MLOAD DUP1 SWAP2 SUB SWAP1 LOG3 POP JUMP JUMPDEST PUSH1 0x2 PUSH1 0x20 MSTORE DUP2 PUSH0 MSTORE PUSH1 0x40 PUSH0 KECCAK256 PUSH1 0x20 MSTORE DUP1 PUSH0 MSTORE PUSH1 0x40 PUSH0 KECCAK256 PUSH0 SWAP2 POP SWAP2 POP SWAP1 SLOAD SWAP1 PUSH2 0x100 EXP SWAP1 DIV PUSH1 0xFF AND DUP2 JUMP JUMPDEST PUSH0 PUSH1 0x40 MLOAD SWAP1 POP SWAP1 JUMP JUMPDEST PUSH0 DUP1 REVERT JUMPDEST PUSH0 DUP1 REVERT JUMPDEST PUSH0 PUSH20 0xFFFFFFFFFFFFFFFFFFFFFFFFFFFFFFFFFFFFFFFF DUP3 AND SWAP1 POP SWAP2 SWAP1 POP JUMP JUMPDEST PUSH0 PUSH2 0x210A DUP3 PUSH2 0x20E1 JUMP JUMPDEST SWAP1 POP SWAP2 SWAP1 POP JUMP JUMPDEST PUSH2 0x211A DUP2 PUSH2 0x2100 JUMP JUMPDEST DUP2 EQ PUSH2 0x2124 JUMPI PUSH0 DUP1 REVERT JUMPDEST POP JUMP JUMPDEST PUSH0 DUP2 CALLDATALOAD SWAP1 POP PUSH2 0x2135 DUP2 PUSH2 0x2111 JUMP JUMPDEST SWAP3 SWAP2 POP POP JUMP JUMPDEST PUSH0 PUSH1 0x20 DUP3 DUP5 SUB SLT ISZERO PUSH2 0x2150 JUMPI PUSH2 0x214F PUSH2 0x20D9 JUMP JUMPDEST JUMPDEST PUSH0 PUSH2 0x215D DUP5 DUP3 DUP6 ADD PUSH2 0x2127 JUMP JUMPDEST SWAP2 POP POP SWAP3 SWAP2 POP POP JUMP JUMPDEST PUSH0 DUP2 ISZERO ISZERO SWAP1 POP SWAP2 SWAP1 POP JUMP JUMPDEST PUSH2 0x217A DUP2 PUSH2 0x2166 JUMP JUMPDEST DUP3 MSTORE POP POP JUMP JUMPDEST PUSH0 DUP2 MLOAD SWAP1 POP SWAP2 SWAP1 POP JUMP JUMPDEST PUSH0 DUP3 DUP3 MSTORE PUSH1 0x20 DUP3 ADD SWAP1 POP SWAP3 SWAP2 POP POP JUMP JUMPDEST PUSH0 JUMPDEST DUP4 DUP2 LT ISZERO PUSH2 0x21B7 JUMPI DUP1 DUP3 ADD MLOAD DUP2 DUP5 ADD MSTORE PUSH1 0x20 DUP2 ADD SWAP1 POP PUSH2 0x219C JUMP JUMPDEST PUSH0 DUP5 DUP5 ADD MSTORE POP POP POP POP JUMP JUMPDEST PUSH0 PUSH1 0x1F NOT PUSH1 0x1F DUP4 ADD AND SWAP1 POP SWAP2 SWAP1 POP JUMP JUMPDEST PUSH0 PUSH2 0x21DC DUP3 PUSH2 0x2180 JUMP JUMPDEST PUSH2 0x21E6 DUP2 DUP6 PUSH2 0x218A JUMP JUMPDEST SWAP4 POP PUSH2 0x21F6 DUP2 DUP6 PUSH1 0x20 DUP7 ADD PUSH2 0x219A JUMP JUMPDEST PUSH2 0x21FF DUP2 PUSH2 0x21C2 JUMP JUMPDEST DUP5 ADD SWAP2 POP POP SWAP3 SWAP2 POP POP JUMP JUMPDEST PUSH0 PUSH1 0xA0 DUP3 ADD SWAP1 POP PUSH2 0x221D PUSH0 DUP4 ADD DUP9 PUSH2 0x2171 JUMP JUMPDEST DUP2 DUP2 SUB PUSH1 0x20 DUP4 ADD MSTORE PUSH2 0x222F DUP2 DUP8 PUSH2 0x21D2 JUMP JUMPDEST SWAP1 POP DUP2 DUP2 SUB PUSH1 0x40 DUP4 ADD MSTORE PUSH2 0x2243 DUP2 DUP7 PUSH2 0x21D2 JUMP JUMPDEST SWAP1 POP DUP2 DUP2 SUB PUSH1 0x60 DUP4 ADD MSTORE PUSH2 0x2257 DUP2 DUP6 PUSH2 0x21D2 JUMP JUMPDEST SWAP1 POP DUP2 DUP2 SUB PUSH1 0x80 DUP4 ADD MSTORE PUSH2 0x226B DUP2 DUP5 PUSH2 0x21D2 JUMP JUMPDEST SWAP1 POP SWAP7 SWAP6 POP POP POP POP POP POP JUMP JUMPDEST PUSH0 DUP1 REVERT JUMPDEST PUSH0 DUP1 REVERT JUMPDEST PUSH32 0x4E487B7100000000000000000000000000000000000000000000000000000000 PUSH0 MSTORE PUSH1 0x41 PUSH1 0x4 MSTORE PUSH1 0x24 PUSH0 REVERT JUMPDEST PUSH2 0x22B5 DUP3 PUSH2 0x21C2 JUMP JUMPDEST DUP2 ADD DUP2 DUP2 LT PUSH8 0xFFFFFFFFFFFFFFFF DUP3 GT OR ISZERO PUSH2 0x22D4 JUMPI PUSH2 0x22D3 PUSH2 0x227F JUMP JUMPDEST JUMPDEST DUP1 PUSH1 0x40 MSTORE POP POP POP JUMP JUMPDEST PUSH0 PUSH2 0x22E6 PUSH2 0x20D0 JUMP JUMPDEST SWAP1 POP PUSH2 0x22F2 DUP3 DUP3 PUSH2 0x22AC JUMP JUMPDEST SWAP2 SWAP1 POP JUMP JUMPDEST PUSH0 PUSH8 0xFFFFFFFFFFFFFFFF DUP3 GT ISZERO PUSH2 0x2311 JUMPI PUSH2 0x2310 PUSH2 0x227F JUMP JUMPDEST JUMPDEST PUSH2 0x231A DUP3 PUSH2 0x21C2 JUMP JUMPDEST SWAP1 POP PUSH1 0x20 DUP2 ADD SWAP1 POP SWAP2 SWAP1 POP JUMP JUMPDEST DUP3 DUP2 DUP4 CALLDATACOPY PUSH0 DUP4 DUP4 ADD MSTORE POP POP POP JUMP JUMPDEST PUSH0 PUSH2 0x2347 PUSH2 0x2342 DUP5 PUSH2 0x22F7 JUMP JUMPDEST PUSH2 0x22DD JUMP JUMPDEST SWAP1 POP DUP3 DUP2 MSTORE PUSH1 0x20 DUP2 ADD DUP5 DUP5 DUP5 ADD GT ISZERO PUSH2 0x2363 JUMPI PUSH2 0x2362 PUSH2 0x227B JUMP JUMPDEST JUMPDEST PUSH2 0x236E DUP5 DUP3 DUP6 PUSH2 0x2327 JUMP JUMPDEST POP SWAP4 SWAP3 POP POP POP JUMP JUMPDEST PUSH0 DUP3 PUSH1 0x1F DUP4 ADD SLT PUSH2 0x238A JUMPI PUSH2 0x2389 PUSH2 0x2277 JUMP JUMPDEST JUMPDEST DUP2 CALLDATALOAD PUSH2 0x239A DUP5 DUP3 PUSH1 0x20 DUP7 ADD PUSH2 0x2335 JUMP JUMPDEST SWAP2 POP POP SWAP3 SWAP2 POP POP JUMP JUMPDEST PUSH0 DUP1 PUSH0 DUP1 PUSH0 DUP1 PUSH1 0xC0 DUP8 DUP10 SUB SLT ISZERO PUSH2 0x23BD JUMPI PUSH2 0x23BC PUSH2 0x20D9 JUMP JUMPDEST JUMPDEST PUSH0 PUSH2 0x23CA DUP10 DUP3 DUP11 ADD PUSH2 0x2127 JUMP JUMPDEST SWAP7 POP POP PUSH1 0x20 DUP8 ADD CALLDATALOAD PUSH8 0xFFFFFFFFFFFFFFFF DUP2 GT ISZERO PUSH2 0x23EB JUMPI PUSH2 0x23EA PUSH2 0x20DD JUMP JUMPDEST JUMPDEST PUSH2 0x23F7 DUP10 DUP3 DUP11 ADD PUSH2 0x2376 JUMP JUMPDEST SWAP6 POP POP PUSH1 0x40 DUP8 ADD CALLDATALOAD PUSH8 0xFFFFFFFFFFFFFFFF DUP2 GT ISZERO PUSH2 0x2418 JUMPI PUSH2 0x2417 PUSH2 0x20DD JUMP JUMPDEST JUMPDEST PUSH2 0x2424 DUP10 DUP3 DUP11 ADD PUSH2 0x2376 JUMP JUMPDEST SWAP5 POP POP PUSH1 0x60 DUP8 ADD CALLDATALOAD PUSH8 0xFFFFFFFFFFFFFFFF DUP2 GT ISZERO PUSH2 0x2445 JUMPI PUSH2 0x2444 PUSH2 0x20DD JUMP JUMPDEST JUMPDEST PUSH2 0x2451 DUP10 DUP3 DUP11 ADD PUSH2 0x2376 JUMP JUMPDEST SWAP4 POP POP PUSH1 0x80 DUP8 ADD CALLDATALOAD PUSH8 0xFFFFFFFFFFFFFFFF DUP2 GT ISZERO PUSH2 0x2472 JUMPI PUSH2 0x2471 PUSH2 0x20DD JUMP JUMPDEST JUMPDEST PUSH2 0x247E DUP10 DUP3 DUP11 ADD PUSH2 0x2376 JUMP JUMPDEST SWAP3 POP POP PUSH1 0xA0 DUP8 ADD CALLDATALOAD PUSH8 0xFFFFFFFFFFFFFFFF DUP2 GT ISZERO PUSH2 0x249F JUMPI PUSH2 0x249E PUSH2 0x20DD JUMP JUMPDEST JUMPDEST PUSH2 0x24AB DUP10 DUP3 DUP11 ADD PUSH2 0x2376 JUMP JUMPDEST SWAP2 POP POP SWAP3 SWAP6 POP SWAP3 SWAP6 POP SWAP3 SWAP6 JUMP JUMPDEST PUSH0 PUSH1 0x80 DUP3 ADD SWAP1 POP DUP2 DUP2 SUB PUSH0 DUP4 ADD MSTORE PUSH2 0x24D0 DUP2 DUP8 PUSH2 0x21D2 JUMP JUMPDEST SWAP1 POP DUP2 DUP2 SUB PUSH1 0x20 DUP4 ADD MSTORE PUSH2 0x24E4 DUP2 DUP7 PUSH2 0x21D2 JUMP JUMPDEST SWAP1 POP DUP2 DUP2 SUB PUSH1 0x40 DUP4 ADD MSTORE PUSH2 0x24F8 DUP2 DUP6 PUSH2 0x21D2 JUMP JUMPDEST SWAP1 POP DUP2 DUP2 SUB PUSH1 0x60 DUP4 ADD MSTORE PUSH2 0x250C DUP2 DUP5 PUSH2 0x21D2 JUMP JUMPDEST SWAP1 POP SWAP6 SWAP5 POP POP POP POP POP JUMP JUMPDEST PUSH0 DUP1 PUSH0 DUP1 PUSH1 0x80 DUP6 DUP8 SUB SLT ISZERO PUSH2 0x252F JUMPI PUSH2 0x252E PUSH2 0x20D9 JUMP JUMPDEST JUMPDEST PUSH0 DUP6 ADD CALLDATALOAD PUSH8 0xFFFFFFFFFFFFFFFF DUP2 GT ISZERO PUSH2 0x254C JUMPI PUSH2 0x254B PUSH2 0x20DD JUMP JUMPDEST JUMPDEST PUSH2 0x2558 DUP8 DUP3 DUP9 ADD PUSH2 0x2376 JUMP JUMPDEST SWAP5 POP POP PUSH1 0x20 DUP6 ADD CALLDATALOAD PUSH8 0xFFFFFFFFFFFFFFFF DUP2 GT ISZERO PUSH2 0x2579 JUMPI PUSH2 0x2578 PUSH2 0x20DD JUMP JUMPDEST JUMPDEST PUSH2 0x2585 DUP8 DUP3 DUP9 ADD PUSH2 0x2376 JUMP JUMPDEST SWAP4 POP POP PUSH1 0x40 DUP6 ADD CALLDATALOAD PUSH8 0xFFFFFFFFFFFFFFFF DUP2 GT ISZERO PUSH2 0x25A6 JUMPI PUSH2 0x25A5 PUSH2 0x20DD JUMP JUMPDEST JUMPDEST PUSH2 0x25B2 DUP8 DUP3 DUP9 ADD PUSH2 0x2376 JUMP JUMPDEST SWAP3 POP POP PUSH1 0x60 DUP6 ADD CALLDATALOAD PUSH8 0xFFFFFFFFFFFFFFFF DUP2 GT ISZERO PUSH2 0x25D3 JUMPI PUSH2 0x25D2 PUSH2 0x20DD JUMP JUMPDEST JUMPDEST PUSH2 0x25DF DUP8 DUP3 DUP9 ADD PUSH2 0x2376 JUMP JUMPDEST SWAP2 POP POP SWAP3 SWAP6 SWAP2 SWAP5 POP SWAP3 POP JUMP JUMPDEST PUSH0 DUP1 PUSH1 0x40 DUP4 DUP6 SUB SLT ISZERO PUSH2 0x2601 JUMPI PUSH2 0x2600 PUSH2 0x20D9 JUMP JUMPDEST JUMPDEST PUSH0 PUSH2 0x260E DUP6 DUP3 DUP7 ADD PUSH2 0x2127 JUMP JUMPDEST SWAP3 POP POP PUSH1 0x20 PUSH2 0x261F DUP6 DUP3 DUP7 ADD PUSH2 0x2127 JUMP JUMPDEST SWAP2 POP POP SWAP3 POP SWAP3 SWAP1 POP JUMP JUMPDEST PUSH0 PUSH1 0x20 DUP3 ADD SWAP1 POP PUSH2 0x263C PUSH0 DUP4 ADD DUP5 PUSH2 0x2171 JUMP JUMPDEST SWAP3 SWAP2 POP POP JUMP JUMPDEST PUSH0 PUSH1 0x20 DUP3 ADD SWAP1 POP DUP2 DUP2 SUB PUSH0 DUP4 ADD MSTORE PUSH2 0x265A DUP2 DUP5 PUSH2 0x21D2 JUMP JUMPDEST SWAP1 POP SWAP3 SWAP2 POP POP JUMP JUMPDEST PUSH0 PUSH8 0xFFFFFFFFFFFFFFFF DUP3 GT ISZERO PUSH2 0x267C JUMPI PUSH2 0x267B PUSH2 0x227F JUMP JUMPDEST JUMPDEST PUSH2 0x2685 DUP3 PUSH2 0x21C2 JUMP JUMPDEST SWAP1 POP PUSH1 0x20 DUP2 ADD SWAP1 POP SWAP2 SWAP1 POP JUMP JUMPDEST PUSH0 PUSH2 0x26A4 PUSH2 0x269F DUP5 PUSH2 0x2662 JUMP JUMPDEST PUSH2 0x22DD JUMP JUMPDEST SWAP1 POP DUP3 DUP2 MSTORE PUSH1 0x20 DUP2 ADD DUP5 DUP5 DUP5 ADD GT ISZERO PUSH2 0x26C0 JUMPI PUSH2 0x26BF PUSH2 0x227B JUMP JUMPDEST JUMPDEST PUSH2 0x26CB DUP5 DUP3 DUP6 PUSH2 0x2327 JUMP JUMPDEST POP SWAP4 SWAP3 POP POP POP JUMP JUMPDEST PUSH0 DUP3 PUSH1 0x1F DUP4 ADD SLT PUSH2 0x26E7 JUMPI PUSH2 0x26E6 PUSH2 0x2277 JUMP JUMPDEST JUMPDEST DUP2 CALLDATALOAD PUSH2 0x26F7 DUP5 DUP3 PUSH1 0x20 DUP7 ADD PUSH2 0x2692 JUMP JUMPDEST SWAP2 POP POP SWAP3 SWAP2 POP POP JUMP JUMPDEST PUSH0 DUP1 PUSH1 0x40 DUP4 DUP6 SUB SLT ISZERO PUSH2 0x2716 JUMPI PUSH2 0x2715 PUSH2 0x20D9 JUMP JUMPDEST JUMPDEST PUSH0 PUSH2 0x2723 DUP6 DUP3 DUP7 ADD PUSH2 0x2127 JUMP JUMPDEST SWAP3 POP POP PUSH1 0x20 DUP4 ADD CALLDATALOAD PUSH8 0xFFFFFFFFFFFFFFFF DUP2 GT ISZERO PUSH2 0x2744 JUMPI PUSH2 0x2743 PUSH2 0x20DD JUMP JUMPDEST JUMPDEST PUSH2 0x2750 DUP6 DUP3 DUP7 ADD PUSH2 0x26D3 JUMP JUMPDEST SWAP2 POP POP SWAP3 POP SWAP3 SWAP1 POP JUMP JUMPDEST PUSH2 0x2763 DUP2 PUSH2 0x2100 JUMP JUMPDEST DUP3 MSTORE POP POP JUMP JUMPDEST PUSH0 PUSH1 0x20 DUP3 ADD SWAP1 POP PUSH2 0x277C PUSH0 DUP4 ADD DUP5 PUSH2 0x275A JUMP JUMPDEST SWAP3 SWAP2 POP POP JUMP JUMPDEST PUSH0 PUSH1 0xC0 DUP3 ADD SWAP1 POP PUSH2 0x2795 PUSH0 DUP4 ADD DUP10 PUSH2 0x2171 JUMP JUMPDEST DUP2 DUP2 SUB PUSH1 0x20 DUP4 ADD MSTORE PUSH2 0x27A7 DUP2 DUP9 PUSH2 0x21D2 JUMP JUMPDEST SWAP1 POP DUP2 DUP2 SUB PUSH1 0x40 DUP4 ADD MSTORE PUSH2 0x27BB DUP2 DUP8 PUSH2 0x21D2 JUMP JUMPDEST SWAP1 POP DUP2 DUP2 SUB PUSH1 0x60 DUP4 ADD MSTORE PUSH2 0x27CF DUP2 DUP7 PUSH2 0x21D2 JUMP JUMPDEST SWAP1 POP DUP2 DUP2 SUB PUSH1 0x80 DUP4 ADD MSTORE PUSH2 0x27E3 DUP2 DUP6 PUSH2 0x21D2 JUMP JUMPDEST SWAP1 POP DUP2 DUP2 SUB PUSH1 0xA0 DUP4 ADD MSTORE PUSH2 0x27F7 DUP2 DUP5 PUSH2 0x21D2 JUMP JUMPDEST SWAP1 POP SWAP8 SWAP7 POP POP POP POP POP POP POP JUMP JUMPDEST PUSH32 0x43616C6C6572206973206E6F7420616E20617574686F72697A656420646F6374 PUSH0 DUP3 ADD MSTORE PUSH32 0x6F72000000000000000000000000000000000000000000000000000000000000 PUSH1 0x20 DUP3 ADD MSTORE POP JUMP JUMPDEST PUSH0 PUSH2 0x285E PUSH1 0x22 DUP4 PUSH2 0x218A JUMP JUMPDEST SWAP2 POP PUSH2 0x2869 DUP3 PUSH2 0x2804 JUMP JUMPDEST PUSH1 0x40 DUP3 ADD SWAP1 POP SWAP2 SWAP1 POP JUMP JUMPDEST PUSH0 PUSH1 0x20 DUP3 ADD SWAP1 POP DUP2 DUP2 SUB PUSH0 DUP4 ADD MSTORE PUSH2 0x288B DUP2 PUSH2 0x2852 JUMP JUMPDEST SWAP1 POP SWAP2 SWAP1 POP JUMP JUMPDEST PUSH32 0x41646472657373206973206E6F74206120726567697374657265642070617469 PUSH0 DUP3 ADD MSTORE PUSH32 0x656E742E00000000000000000000000000000000000000000000000000000000 PUSH1 0x20 DUP3 ADD MSTORE POP JUMP JUMPDEST PUSH0 PUSH2 0x28EC PUSH1 0x24 DUP4 PUSH2 0x218A JUMP JUMPDEST SWAP2 POP PUSH2 0x28F7 DUP3 PUSH2 0x2892 JUMP JUMPDEST PUSH1 0x40 DUP3 ADD SWAP1 POP SWAP2 SWAP1 POP JUMP JUMPDEST PUSH0 PUSH1 0x20 DUP3 ADD SWAP1 POP DUP2 DUP2 SUB PUSH0 DUP4 ADD MSTORE PUSH2 0x2919 DUP2 PUSH2 0x28E0 JUMP JUMPDEST SWAP1 POP SWAP2 SWAP1 POP JUMP JUMPDEST PUSH32 0x436F6E73656E7420697320616C7265616479206772616E7465642E0000000000 PUSH0 DUP3 ADD MSTORE POP JUMP JUMPDEST PUSH0 PUSH2 0x2954 PUSH1 0x1B DUP4 PUSH2 0x218A JUMP JUMPDEST SWAP2 POP PUSH2 0x295F DUP3 PUSH2 0x2920 JUMP JUMPDEST PUSH1 0x20 DUP3 ADD SWAP1 POP SWAP2 SWAP1 POP JUMP JUMPDEST PUSH0 PUSH1 0x20 DUP3 ADD SWAP1 POP DUP2 DUP2 SUB PUSH0 DUP4 ADD MSTORE PUSH2 0x2981 DUP2 PUSH2 0x2948 JUMP JUMPDEST SWAP1 POP SWAP2 SWAP1 POP JUMP JUMPDEST PUSH32 0x436F6E73656E74207265717565737420697320616C72656164792070656E6469 PUSH0 DUP3 ADD MSTORE PUSH32 0x6E672E0000000000000000000000000000000000000000000000000000000000 PUSH1 0x20 DUP3 ADD MSTORE POP JUMP JUMPDEST PUSH0 PUSH2 0x29E2 PUSH1 0x23 DUP4 PUSH2 0x218A JUMP JUMPDEST SWAP2 POP PUSH2 0x29ED DUP3 PUSH2 0x2988 JUMP JUMPDEST PUSH1 0x40 DUP3 ADD SWAP1 POP SWAP2 SWAP1 POP JUMP JUMPDEST PUSH0 PUSH1 0x20 DUP3 ADD SWAP1 POP DUP2 DUP2 SUB PUSH0 DUP4 ADD MSTORE PUSH2 0x2A0F DUP2 PUSH2 0x29D6 JUMP JUMPDEST SWAP1 POP SWAP2 SWAP1 POP JUMP JUMPDEST PUSH32 0x4E487B7100000000000000000000000000000000000000000000000000000000 PUSH0 MSTORE PUSH1 0x22 PUSH1 0x4 MSTORE PUSH1 0x24 PUSH0 REVERT JUMPDEST PUSH0 PUSH1 0x2 DUP3 DIV SWAP1 POP PUSH1 0x1 DUP3 AND DUP1 PUSH2 0x2A5A JUMPI PUSH1 0x7F DUP3 AND SWAP2 POP JUMPDEST PUSH1 0x20 DUP3 LT DUP2 SUB PUSH2 0x2A6D JUMPI PUSH2 0x2A6C PUSH2 0x2A16 JUMP JUMPDEST JUMPDEST POP SWAP2 SWAP1 POP JUMP JUMPDEST PUSH32 0x4F6E6C79206F776E65722063616E20706572666F726D20746869732061637469 PUSH0 DUP3 ADD MSTORE PUSH32 0x6F6E000000000000000000000000000000000000000000000000000000000000 PUSH1 0x20 DUP3 ADD MSTORE POP JUMP JUMPDEST PUSH0 PUSH2 0x2ACD PUSH1 0x22 DUP4 PUSH2 0x218A JUMP JUMPDEST SWAP2 POP PUSH2 0x2AD8 DUP3 PUSH2 0x2A73 JUMP JUMPDEST PUSH1 0x40 DUP3 ADD SWAP1 POP SWAP2 SWAP1 POP JUMP JUMPDEST PUSH0 PUSH1 0x20 DUP3 ADD SWAP1 POP DUP2 DUP2 SUB PUSH0 DUP4 ADD MSTORE PUSH2 0x2AFA DUP2 PUSH2 0x2AC1 JUMP JUMPDEST SWAP1 POP SWAP2 SWAP1 POP JUMP JUMPDEST PUSH32 0x446F63746F7220697320616C7265616479207265676973746572656400000000 PUSH0 DUP3 ADD MSTORE POP JUMP JUMPDEST PUSH0 PUSH2 0x2B35 PUSH1 0x1C DUP4 PUSH2 0x218A JUMP JUMPDEST SWAP2 POP PUSH2 0x2B40 DUP3 PUSH2 0x2B01 JUMP JUMPDEST PUSH1 0x20 DUP3 ADD SWAP1 POP SWAP2 SWAP1 POP JUMP JUMPDEST PUSH0 PUSH1 0x20 DUP3 ADD SWAP1 POP DUP2 DUP2 SUB PUSH0 DUP4 ADD MSTORE PUSH2 0x2B62 DUP2 PUSH2 0x2B29 JUMP JUMPDEST SWAP1 POP SWAP2 SWAP1 POP JUMP JUMPDEST PUSH32 0x4164647265737320697320616C72656164792072656769737465726564206173 PUSH0 DUP3 ADD MSTORE PUSH32 0x20612070617469656E7400000000000000000000000000000000000000000000 PUSH1 0x20 DUP3 ADD MSTORE POP JUMP JUMPDEST PUSH0 PUSH2 0x2BC3 PUSH1 0x2A DUP4 PUSH2 0x218A JUMP JUMPDEST SWAP2 POP PUSH2 0x2BCE DUP3 PUSH2 0x2B69 JUMP JUMPDEST PUSH1 0x40 DUP3 ADD SWAP1 POP SWAP2 SWAP1 POP JUMP JUMPDEST PUSH0 PUSH1 0x20 DUP3 ADD SWAP1 POP DUP2 DUP2 SUB PUSH0 DUP4 ADD MSTORE PUSH2 0x2BF0 DUP2 PUSH2 0x2BB7 JUMP JUMPDEST SWAP1 POP SWAP2 SWAP1 POP JUMP JUMPDEST PUSH0 DUP2 SWAP1 POP DUP2 PUSH0 MSTORE PUSH1 0x20 PUSH0 KECCAK256 SWAP1 POP SWAP2 SWAP1 POP JUMP JUMPDEST PUSH0 PUSH1 0x20 PUSH1 0x1F DUP4 ADD DIV SWAP1 POP SWAP2 SWAP1 POP JUMP JUMPDEST PUSH0 DUP3 DUP3 SHL SWAP1 POP SWAP3 SWAP2 POP POP JUMP JUMPDEST PUSH0 PUSH1 0x8 DUP4 MUL PUSH2 0x2C53 PUSH32 0xFFFFFFFFFFFFFFFFFFFFFFFFFFFFFFFFFFFFFFFFFFFFFFFFFFFFFFFFFFFFFFFF DUP3 PUSH2 0x2C18 JUMP JUMPDEST PUSH2 0x2C5D DUP7 DUP4 PUSH2 0x2C18 JUMP JUMPDEST SWAP6 POP DUP1 NOT DUP5 AND SWAP4 POP DUP1 DUP7 AND DUP5 OR SWAP3 POP POP POP SWAP4 SWAP3 POP POP POP JUMP JUMPDEST PUSH0 DUP2 SWAP1 POP SWAP2 SWAP1 POP JUMP JUMPDEST PUSH0 DUP2 SWAP1 POP SWAP2 SWAP1 POP JUMP JUMPDEST PUSH0 PUSH2 0x2CA1 PUSH2 0x2C9C PUSH2 0x2C97 DUP5 PUSH2 0x2C75 JUMP JUMPDEST PUSH2 0x2C7E JUMP JUMPDEST PUSH2 0x2C75 JUMP JUMPDEST SWAP1 POP SWAP2 SWAP1 POP JUMP JUMPDEST PUSH0 DUP2 SWAP1 POP SWAP2 SWAP1 POP JUMP JUMPDEST PUSH2 0x2CBA DUP4 PUSH2 0x2C87 JUMP JUMPDEST PUSH2 0x2CCE PUSH2 0x2CC6 DUP3 PUSH2 0x2CA8 JUMP JUMPDEST DUP5 DUP5 SLOAD PUSH2 0x2C24 JUMP JUMPDEST DUP3 SSTORE POP POP POP POP JUMP JUMPDEST PUSH0 SWAP1 JUMP JUMPDEST PUSH2 0x2CE2 PUSH2 0x2CD6 JUMP JUMPDEST PUSH2 0x2CED DUP2 DUP5 DUP5 PUSH2 0x2CB1 JUMP JUMPDEST POP POP POP JUMP JUMPDEST JUMPDEST DUP2 DUP2 LT ISZERO PUSH2 0x2D10 JUMPI PUSH2 0x2D05 PUSH0 DUP3 PUSH2 0x2CDA JUMP JUMPDEST PUSH1 0x1 DUP2 ADD SWAP1 POP PUSH2 0x2CF3 JUMP JUMPDEST POP POP JUMP JUMPDEST PUSH1 0x1F DUP3 GT ISZERO PUSH2 0x2D55 JUMPI PUSH2 0x2D26 DUP2 PUSH2 0x2BF7 JUMP JUMPDEST PUSH2 0x2D2F DUP5 PUSH2 0x2C09 JUMP JUMPDEST DUP2 ADD PUSH1 0x20 DUP6 LT ISZERO PUSH2 0x2D3E JUMPI DUP2 SWAP1 POP JUMPDEST PUSH2 0x2D52 PUSH2 0x2D4A DUP6 PUSH2 0x2C09 JUMP JUMPDEST DUP4 ADD DUP3 PUSH2 0x2CF2 JUMP JUMPDEST POP POP JUMPDEST POP POP POP JUMP JUMPDEST PUSH0 DUP3 DUP3 SHR SWAP1 POP SWAP3 SWAP2 POP POP JUMP JUMPDEST PUSH0 PUSH2 0x2D75 PUSH0 NOT DUP5 PUSH1 0x8 MUL PUSH2 0x2D5A JUMP JUMPDEST NOT DUP1 DUP4 AND SWAP2 POP POP SWAP3 SWAP2 POP POP JUMP JUMPDEST PUSH0 PUSH2 0x2D8D DUP4 DUP4 PUSH2 0x2D66 JUMP JUMPDEST SWAP2 POP DUP3 PUSH1 0x2 MUL DUP3 OR SWAP1 POP SWAP3 SWAP2 POP POP JUMP JUMPDEST PUSH2 0x2DA6 DUP3 PUSH2 0x2180 JUMP JUMPDEST PUSH8 0xFFFFFFFFFFFFFFFF DUP2 GT ISZERO PUSH2 0x2DBF JUMPI PUSH2 0x2DBE PUSH2 0x227F JUMP JUMPDEST JUMPDEST PUSH2 0x2DC9 DUP3 SLOAD PUSH2 0x2A43 JUMP JUMPDEST PUSH2 0x2DD4 DUP3 DUP3 DUP6 PUSH2 0x2D14 JUMP JUMPDEST PUSH0 PUSH1 0x20 SWAP1 POP PUSH1 0x1F DUP4 GT PUSH1 0x1 DUP2 EQ PUSH2 0x2E05 JUMPI PUSH0 DUP5 ISZERO PUSH2 0x2DF3 JUMPI DUP3 DUP8 ADD MLOAD SWAP1 POP JUMPDEST PUSH2 0x2DFD DUP6 DUP3 PUSH2 0x2D82 JUMP JUMPDEST DUP7 SSTORE POP PUSH2 0x2E64 JUMP JUMPDEST PUSH1 0x1F NOT DUP5 AND PUSH2 0x2E13 DUP7 PUSH2 0x2BF7 JUMP JUMPDEST PUSH0 JUMPDEST DUP3 DUP2 LT ISZERO PUSH2 0x2E3A JUMPI DUP5 DUP10 ADD MLOAD DUP3 SSTORE PUSH1 0x1 DUP3 ADD SWAP2 POP PUSH1 0x20 DUP6 ADD SWAP5 POP PUSH1 0x20 DUP2 ADD SWAP1 POP PUSH2 0x2E15 JUMP JUMPDEST DUP7 DUP4 LT ISZERO PUSH2 0x2E57 JUMPI DUP5 DUP10 ADD MLOAD PUSH2 0x2E53 PUSH1 0x1F DUP10 AND DUP3 PUSH2 0x2D66 JUMP JUMPDEST DUP4 SSTORE POP JUMPDEST PUSH1 0x1 PUSH1 0x2 DUP9 MUL ADD DUP9 SSTORE POP POP POP JUMPDEST POP POP POP POP POP POP JUMP JUMPDEST PUSH0 PUSH1 0x40 DUP3 ADD SWAP1 POP DUP2 DUP2 SUB PUSH0 DUP4 ADD MSTORE PUSH2 0x2E84 DUP2 DUP6 PUSH2 0x21D2 JUMP JUMPDEST SWAP1 POP DUP2 DUP2 SUB PUSH1 0x20 DUP4 ADD MSTORE PUSH2 0x2E98 DUP2 DUP5 PUSH2 0x21D2 JUMP JUMPDEST SWAP1 POP SWAP4 SWAP3 POP POP POP JUMP JUMPDEST PUSH32 0x4E6F74206120726567697374657265642070617469656E742E00000000000000 PUSH0 DUP3 ADD MSTORE POP JUMP JUMPDEST PUSH0 PUSH2 0x2ED5 PUSH1 0x19 DUP4 PUSH2 0x218A JUMP JUMPDEST SWAP2 POP PUSH2 0x2EE0 DUP3 PUSH2 0x2EA1 JUMP JUMPDEST PUSH1 0x20 DUP3 ADD SWAP1 POP SWAP2 SWAP1 POP JUMP JUMPDEST PUSH0 PUSH1 0x20 DUP3 ADD SWAP1 POP DUP2 DUP2 SUB PUSH0 DUP4 ADD MSTORE PUSH2 0x2F02 DUP2 PUSH2 0x2EC9 JUMP JUMPDEST SWAP1 POP SWAP2 SWAP1 POP JUMP JUMPDEST PUSH32 0x416C7265616479207265676973746572656420617320612070617469656E742E PUSH0 DUP3 ADD MSTORE POP JUMP JUMPDEST PUSH0 PUSH2 0x2F3D PUSH1 0x20 DUP4 PUSH2 0x218A JUMP JUMPDEST SWAP2 POP PUSH2 0x2F48 DUP3 PUSH2 0x2F09 JUMP JUMPDEST PUSH1 0x20 DUP3 ADD SWAP1 POP SWAP2 SWAP1 POP JUMP JUMPDEST PUSH0 PUSH1 0x20 DUP3 ADD SWAP1 POP DUP2 DUP2 SUB PUSH0 DUP4 ADD MSTORE PUSH2 0x2F6A DUP2 PUSH2 0x2F31 JUMP JUMPDEST SWAP1 POP SWAP2 SWAP1 POP JUMP JUMPDEST PUSH32 0x446F63746F72732063616E6E6F74207265676973746572206173207061746965 PUSH0 DUP3 ADD MSTORE PUSH32 0x6E74732E00000000000000000000000000000000000000000000000000000000 PUSH1 0x20 DUP3 ADD MSTORE POP JUMP JUMPDEST PUSH0 PUSH2 0x2FCB PUSH1 0x24 DUP4 PUSH2 0x218A JUMP JUMPDEST SWAP2 POP PUSH2 0x2FD6 DUP3 PUSH2 0x2F71 JUMP JUMPDEST PUSH1 0x40 DUP3 ADD SWAP1 POP SWAP2 SWAP1 POP JUMP JUMPDEST PUSH0 PUSH1 0x20 DUP3 ADD SWAP1 POP DUP2 DUP2 SUB PUSH0 DUP4 ADD MSTORE PUSH2 0x2FF8 DUP2 PUSH2 0x2FBF JUMP JUMPDEST SWAP1 POP SWAP2 SWAP1 POP JUMP JUMPDEST PUSH32 0x4E6F7420616E20617574686F72697A656420646F63746F722E00000000000000 PUSH0 DUP3 ADD MSTORE POP JUMP JUMPDEST PUSH0 PUSH2 0x3033 PUSH1 0x19 DUP4 PUSH2 0x218A JUMP JUMPDEST SWAP2 POP PUSH2 0x303E DUP3 PUSH2 0x2FFF JUMP JUMPDEST PUSH1 0x20 DUP3 ADD SWAP1 POP SWAP2 SWAP1 POP JUMP JUMPDEST PUSH0 PUSH1 0x20 DUP3 ADD SWAP1 POP DUP2 DUP2 SUB PUSH0 DUP4 ADD MSTORE PUSH2 0x3060 DUP2 PUSH2 0x3027 JUMP JUMPDEST SWAP1 POP SWAP2 SWAP1 POP JUMP JUMPDEST PUSH32 0x50617469656E7420686173206E6F74206772616E74656420636F6E73656E7420 PUSH0 DUP3 ADD MSTORE PUSH32 0x746F207468697320646F63746F722E0000000000000000000000000000000000 PUSH1 0x20 DUP3 ADD MSTORE POP JUMP JUMPDEST PUSH0 PUSH2 0x30C1 PUSH1 0x2F DUP4 PUSH2 0x218A JUMP JUMPDEST SWAP2 POP PUSH2 0x30CC DUP3 PUSH2 0x3067 JUMP JUMPDEST PUSH1 0x40 DUP3 ADD SWAP1 POP SWAP2 SWAP1 POP JUMP JUMPDEST PUSH0 PUSH1 0x20 DUP3 ADD SWAP1 POP DUP2 DUP2 SUB PUSH0 DUP4 ADD MSTORE PUSH2 0x30EE DUP2 PUSH2 0x30B5 JUMP JUMPDEST SWAP1 POP SWAP2 SWAP1 POP JUMP JUMPDEST PUSH32 0x456E6372797074656420646174612063616E6E6F7420626520656D7074792E00 PUSH0 DUP3 ADD MSTORE POP JUMP JUMPDEST PUSH0 PUSH2 0x3129 PUSH1 0x1F DUP4 PUSH2 0x218A JUMP JUMPDEST SWAP2 POP PUSH2 0x3134 DUP3 PUSH2 0x30F5 JUMP JUMPDEST PUSH1 0x20 DUP3 ADD SWAP1 POP SWAP2 SWAP1 POP JUMP JUMPDEST PUSH0 PUSH1 0x20 DUP3 ADD SWAP1 POP DUP2 DUP2 SUB PUSH0 DUP4 ADD MSTORE PUSH2 0x3156 DUP2 PUSH2 0x311D JUMP JUMPDEST SWAP1 POP SWAP2 SWAP1 POP JUMP JUMPDEST PUSH2 0x3166 DUP2 PUSH2 0x2C75 JUMP JUMPDEST DUP3 MSTORE POP POP JUMP JUMPDEST PUSH0 DUP2 MLOAD SWAP1 POP SWAP2 SWAP1 POP JUMP JUMPDEST PUSH0 DUP3 DUP3 MSTORE PUSH1 0x20 DUP3 ADD SWAP1 POP SWAP3 SWAP2 POP POP JUMP JUMPDEST PUSH0 PUSH2 0x3190 DUP3 PUSH2 0x316C JUMP JUMPDEST PUSH2 0x319A DUP2 DUP6 PUSH2 0x3176 JUMP JUMPDEST SWAP4 POP PUSH2 0x31AA DUP2 DUP6 PUSH1 0x20 DUP7 ADD PUSH2 0x219A JUMP JUMPDEST PUSH2 0x31B3 DUP2 PUSH2 0x21C2 JUMP JUMPDEST DUP5 ADD SWAP2 POP POP SWAP3 SWAP2 POP POP JUMP JUMPDEST PUSH0 PUSH1 0x40 DUP3 ADD SWAP1 POP PUSH2 0x31D1 PUSH0 DUP4 ADD DUP6 PUSH2 0x315D JUMP JUMPDEST DUP2 DUP2 SUB PUSH1 0x20 DUP4 ADD MSTORE PUSH2 0x31E3 DUP2 DUP5 PUSH2 0x3186 JUMP JUMPDEST SWAP1 POP SWAP4 SWAP3 POP POP POP JUMP JUMPDEST PUSH32 0x41646472657373206973206E6F74206120646F63746F722E0000000000000000 PUSH0 DUP3 ADD MSTORE POP JUMP JUMPDEST PUSH0 PUSH2 0x3220 PUSH1 0x18 DUP4 PUSH2 0x218A JUMP JUMPDEST SWAP2 POP PUSH2 0x322B DUP3 PUSH2 0x31EC JUMP JUMPDEST PUSH1 0x20 DUP3 ADD SWAP1 POP SWAP2 SWAP1 POP JUMP JUMPDEST PUSH0 PUSH1 0x20 DUP3 ADD SWAP1 POP DUP2 DUP2 SUB PUSH0 DUP4 ADD MSTORE PUSH2 0x324D DUP2 PUSH2 0x3214 JUMP JUMPDEST SWAP1 POP SWAP2 SWAP1 POP JUMP JUMPDEST PUSH32 0x43616E6E6F742072656D6F766520746865206F776E657220617320646F63746F PUSH0 DUP3 ADD MSTORE PUSH32 0x722E000000000000000000000000000000000000000000000000000000000000 PUSH1 0x20 DUP3 ADD MSTORE POP JUMP JUMPDEST PUSH0 PUSH2 0x32AE PUSH1 0x22 DUP4 PUSH2 0x218A JUMP JUMPDEST SWAP2 POP PUSH2 0x32B9 DUP3 PUSH2 0x3254 JUMP JUMPDEST PUSH1 0x40 DUP3 ADD SWAP1 POP SWAP2 SWAP1 POP JUMP JUMPDEST PUSH0 PUSH1 0x20 DUP3 ADD SWAP1 POP DUP2 DUP2 SUB PUSH0 DUP4 ADD MSTORE PUSH2 0x32DB DUP2 PUSH2 0x32A2 JUMP JUMPDEST SWAP1 POP SWAP2 SWAP1 POP JUMP JUMPDEST PUSH32 0x43616C6C6572206973206E6F7420612072656769737465726564207061746965 PUSH0 DUP3 ADD MSTORE PUSH32 0x6E74000000000000000000000000000000000000000000000000000000000000 PUSH1 0x20 DUP3 ADD MSTORE POP JUMP JUMPDEST PUSH0 PUSH2 0x333C PUSH1 0x22 DUP4 PUSH2 0x218A JUMP JUMPDEST SWAP2 POP PUSH2 0x3347 DUP3 PUSH2 0x32E2 JUMP JUMPDEST PUSH1 0x40 DUP3 ADD SWAP1 POP SWAP2 SWAP1 POP JUMP JUMPDEST PUSH0 PUSH1 0x20 DUP3 ADD SWAP1 POP DUP2 DUP2 SUB PUSH0 DUP4 ADD MSTORE PUSH2 0x3369 DUP2 PUSH2 0x3330 JUMP JUMPDEST SWAP1 POP SWAP2 SWAP1 POP JUMP JUMPDEST PUSH32 0x4E6F2070656E64696E6720636F6E73656E7420726571756573742066726F6D20 PUSH0 DUP3 ADD MSTORE PUSH32 0x7468697320646F63746F722E0000000000000000000000000000000000000000 PUSH1 0x20 DUP3 ADD MSTORE POP JUMP JUMPDEST PUSH0 PUSH2 0x33CA PUSH1 0x2C DUP4 PUSH2 0x218A JUMP JUMPDEST SWAP2 POP PUSH2 0x33D5 DUP3 PUSH2 0x3370 JUMP JUMPDEST PUSH1 0x40 DUP3 ADD SWAP1 POP SWAP2 SWAP1 POP JUMP JUMPDEST PUSH0 PUSH1 0x20 DUP3 ADD SWAP1 POP DUP2 DUP2 SUB PUSH0 DUP4 ADD MSTORE PUSH2 0x33F7 DUP2 PUSH2 0x33BE JUMP JUMPDEST SWAP1 POP SWAP2 SWAP1 POP JUMP JUMPDEST PUSH32 0x41646472657373206973206E6F7420616E20617574686F72697A656420646F63 PUSH0 DUP3 ADD MSTORE PUSH32 0x746F722E00000000000000000000000000000000000000000000000000000000 PUSH1 0x20 DUP3 ADD MSTORE POP JUMP JUMPDEST PUSH0 PUSH2 0x3458 PUSH1 0x24 DUP4 PUSH2 0x218A JUMP JUMPDEST SWAP2 POP PUSH2 0x3463 DUP3 PUSH2 0x33FE JUMP JUMPDEST PUSH1 0x40 DUP3 ADD SWAP1 POP SWAP2 SWAP1 POP JUMP JUMPDEST PUSH0 PUSH1 0x20 DUP3 ADD SWAP1 POP DUP2 DUP2 SUB PUSH0 DUP4 ADD MSTORE PUSH2 0x3485 DUP2 PUSH2 0x344C JUMP JUMPDEST SWAP1 POP SWAP2 SWAP1 POP JUMP INVALID LOG2 PUSH5 0x6970667358 0x22 SLT KECCAK256 POP PREVRANDAO PUSH30 0xACA009F0063732E798692D0A1DC687F87E85767B7B9C0A0FC6DB32771A64 PUSH20 0x6F6C634300081500330000000000000000000000 "
				},
				"gasEstimates": {
					"creation": {
						"codeDepositCost": "2701200",
						"executionCost": "infinite",
						"totalCost": "infinite"
					},
					"external": {
						"addDoctor(address,string,string,string,string,string)": "infinite",
						"addVisit(address,bytes)": "infinite",
						"doctors(address)": "infinite",
						"getDoctorProfile(address)": "infinite",
						"getPatientProfile(address)": "infinite",
						"grantConsent(address)": "55385",
						"owner()": "infinite",
						"patientConsent(address,address)": "infinite",
						"patients(address)": "infinite",
						"pendingConsent(address,address)": "infinite",
						"refuseConsent(address)": "31093",
						"registerPatient(string,string,string,string)": "infinite",
						"removeDoctor(address)": "infinite",
						"requestConsent(address)": "35607",
						"revokeConsent(address)": "28743"
					}
				},
				"methodIdentifiers": {
					"addDoctor(address,string,string,string,string,string)": "1128c9ea",
					"addVisit(address,bytes)": "87fee61c",
					"doctors(address)": "a9583c22",
					"getDoctorProfile(address)": "5cbcd8eb",
					"getPatientProfile(address)": "461a2082",
					"grantConsent(address)": "a79861f1",
					"owner()": "8da5cb5b",
					"patientConsent(address,address)": "f68b68f6",
					"patients(address)": "0869cfbc",
					"pendingConsent(address,address)": "53c1a042",
					"refuseConsent(address)": "a46aef40",
					"registerPatient(string,string,string,string)": "4ba0a020",
					"removeDoctor(address)": "98fc90e9",
					"requestConsent(address)": "037f8248",
					"revokeConsent(address)": "d1a48627"
				}
			},
			"storageLayout": {
				"storage": [
					{
						"astId": 32,
						"contract": "contracts/HealthRecords.sol:HealthRecords",
						"label": "patients",
						"offset": 0,
						"slot": "0",
						"type": "t_mapping(t_address,t_struct(Patient)27_storage)"
					},
					{
						"astId": 37,
						"contract": "contracts/HealthRecords.sol:HealthRecords",
						"label": "doctors",
						"offset": 0,
						"slot": "1",
						"type": "t_mapping(t_address,t_struct(Doctor)16_storage)"
					},
					{
						"astId": 43,
						"contract": "contracts/HealthRecords.sol:HealthRecords",
						"label": "patientConsent",
						"offset": 0,
						"slot": "2",
						"type": "t_mapping(t_address,t_mapping(t_address,t_bool))"
					},
					{
						"astId": 49,
						"contract": "contracts/HealthRecords.sol:HealthRecords",
						"label": "pendingConsent",
						"offset": 0,
						"slot": "3",
						"type": "t_mapping(t_address,t_mapping(t_address,t_bool))"
					}
				],
				"types": {
					"t_address": {
						"encoding": "inplace",
						"label": "address",
						"numberOfBytes": "20"
					},
					"t_bool": {
						"encoding": "inplace",
						"label": "bool",
						"numberOfBytes": "1"
					},
					"t_mapping(t_address,t_bool)": {
						"encoding": "mapping",
						"key": "t_address",
						"label": "mapping(address => bool)",
						"numberOfBytes": "32",
						"value": "t_bool"
					},
					"t_mapping(t_address,t_mapping(t_address,t_bool))": {
						"encoding": "mapping",
						"key": "t_address",
						"label": "mapping(address => mapping(address => bool))",
						"numberOfBytes": "32",
						"value": "t_mapping(t_address,t_bool)"
					},
					"t_mapping(t_address,t_struct(Doctor)16_storage)": {
						"encoding": "mapping",
						"key": "t_address",
						"label": "mapping(address => struct HealthRecords.Doctor)",
						"numberOfBytes": "32",
						"value": "t_struct(Doctor)16_storage"
					},
					"t_mapping(t_address,t_struct(Patient)27_storage)": {
						"encoding": "mapping",
						"key": "t_address",
						"label": "mapping(address => struct HealthRecords.Patient)",
						"numberOfBytes": "32",
						"value": "t_struct(Patient)27_storage"
					},
					"t_string_storage": {
						"encoding": "bytes",
						"label": "string",
						"numberOfBytes": "32"
					},
					"t_struct(Doctor)16_storage": {
						"encoding": "inplace",
						"label": "struct HealthRecords.Doctor",
						"members": [
							{
								"astId": 5,
								"contract": "contracts/HealthRecords.sol:HealthRecords",
								"label": "isRegistered",
								"offset": 0,
								"slot": "0",
								"type": "t_bool"
							},
							{
								"astId": 7,
								"contract": "contracts/HealthRecords.sol:HealthRecords",
								"label": "name",
								"offset": 0,
								"slot": "1",
								"type": "t_string_storage"
							},
							{
								"astId": 9,
								"contract": "contracts/HealthRecords.sol:HealthRecords",
								"label": "clinic",
								"offset": 0,
								"slot": "2",
								"type": "t_string_storage"
							},
							{
								"astId": 11,
								"contract": "contracts/HealthRecords.sol:HealthRecords",
								"label": "timezone",
								"offset": 0,
								"slot": "3",
								"type": "t_string_storage"
							},
							{
								"astId": 13,
								"contract": "contracts/HealthRecords.sol:HealthRecords",
								"label": "workingHoursStart",
								"offset": 0,
								"slot": "4",
								"type": "t_string_storage"
							},
							{
								"astId": 15,
								"contract": "contracts/HealthRecords.sol:HealthRecords",
								"label": "workingHoursEnd",
								"offset": 0,
								"slot": "5",
								"type": "t_string_storage"
							}
						],
						"numberOfBytes": "192"
					},
					"t_struct(Patient)27_storage": {
						"encoding": "inplace",
						"label": "struct HealthRecords.Patient",
						"members": [
							{
								"astId": 18,
								"contract": "contracts/HealthRecords.sol:HealthRecords",
								"label": "isRegistered",
								"offset": 0,
								"slot": "0",
								"type": "t_bool"
							},
							{
								"astId": 20,
								"contract": "contracts/HealthRecords.sol:HealthRecords",
								"label": "name",
								"offset": 0,
								"slot": "1",
								"type": "t_string_storage"
							},
							{
								"astId": 22,
								"contract": "contracts/HealthRecords.sol:HealthRecords",
								"label": "bloodType",
								"offset": 0,
								"slot": "2",
								"type": "t_string_storage"
							},
							{
								"astId": 24,
								"contract": "contracts/HealthRecords.sol:HealthRecords",
								"label": "phone",
								"offset": 0,
								"slot": "3",
								"type": "t_string_storage"
							},
							{
								"astId": 26,
								"contract": "contracts/HealthRecords.sol:HealthRecords",
								"label": "email",
								"offset": 0,
								"slot": "4",
								"type": "t_string_storage"
							}
						],
						"numberOfBytes": "160"
					}
				}
			},
			"userdoc": {
				"kind": "user",
				"methods": {},
				"version": 1
			}
		}
	}
}