{
  "contractName": "HealthRecords",
  "abi": [
    {
      "inputs": [],
      "stateMutability": "nonpayable",
      "type": "constructor"
    },
    {
      "anonymous": false,
      "inputs": [
        {
          "indexed": true,
          "internalType": "address",
          "name": "patient",
          "type": "address"
        },
        {
          "indexed": true,
          "internalType": "address",
          "name": "doctor",
          "type": "address"
        }
      ],
      "name": "ConsentGranted",
      "type": "event"
    },
    {
      "anonymous": false,
      "inputs": [
        {
          "indexed": true,
          "internalType": "address",
          "name": "patient",
          "type": "address"
        },
        {
          "indexed": true,
          "internalType": "address",
          "name": "doctor",
          "type": "address"
        }
      ],
      "name": "ConsentRefused",
      "type": "event"
    },
    {
      "anonymous": false,
      "inputs": [
        {
          "indexed": true,
          "internalType": "address",
          "name": "patient",
          "type": "address"
        },
        {
          "indexed": true,
          "internalType": "address",
          "name": "doctor",
          "type": "address"
        }
      ],
      "name": "ConsentRequested",
      "type": "event"
    },
    {
      "anonymous": false,
      "inputs": [
        {
          "indexed": true,
          "internalType": "address",
          "name": "patient",
          "type": "address"
        },
        {
          "indexed": true,
          "internalType": "address",
          "name": "doctor",
          "type": "address"
        }
      ],
      "name": "ConsentRevoked",
      "type": "event"
    },
    {
      "anonymous": false,
      "inputs": [
        {
          "indexed": true,
          "internalType": "address",
          "name": "doctor",
          "type": "address"
        },
        {
          "indexed": false,
          "internalType": "string",
          "name": "name",
          "type": "string"
        },
        {
          "indexed": false,
          "internalType": "string",
          "name": "clinic",
          "type": "string"
        }
      ],
      "name": "DoctorAdded",
      "type": "event"
    },
    {
      "anonymous": false,
      "inputs": [
        {
          "indexed": true,
          "internalType": "address",
          "name": "doctor",
          "type": "address"
        }
      ],
      "name": "DoctorRemoved",
      "type": "event"
    },
    {
      "anonymous": false,
      "inputs": [
        {
          "indexed": true,
          "internalType": "address",
          "name": "patient",
          "type": "address"
        },
        {
          "indexed": false,
          "internalType": "string",
          "name": "name",
          "type": "string"
        }
      ],
      "name": "PatientRegistered",
      "type": "event"
    },
    {
      "anonymous": false,
      "inputs": [
        {
          "indexed": true,
          "internalType": "address",
          "name": "patient",
          "type": "address"
        },
        {
          "indexed": true,
          "internalType": "address",
          "name": "doctor",
          "type": "address"
        },
        {
          "indexed": false,
          "internalType": "uint256",
          "name": "visitId",
          "type": "uint256"
        }
      ],
      "name": "VisitAdded",
      "type": "event"
    },
    {
      "inputs": [
        {
          "internalType": "address",
          "name": "",
          "type": "address"
        }
      ],
      "name": "doctors",
      "outputs": [
        {
          "internalType": "bool",
          "name": "isRegistered",
          "type": "bool"
        },
        {
          "internalType": "string",
          "name": "name",
          "type": "string"
        },
        {
          "internalType": "string",
          "name": "clinic",
          "type": "string"
        },
        {
          "internalType": "string",
          "name": "timezone",
          "type": "string"
        },
        {
          "internalType": "string",
          "name": "workingHoursStart",
          "type": "string"
        },
        {
          "internalType": "string",
          "name": "workingHoursEnd",
          "type": "string"
        }
      ],
      "stateMutability": "view",
      "type": "function",
      "constant": true
    },
    {
      "inputs": [],
      "name": "owner",
      "outputs": [
        {
          "internalType": "address",
          "name": "",
          "type": "address"
        }
      ],
      "stateMutability": "view",
      "type": "function",
      "constant": true
    },
    {
      "inputs": [
        {
          "internalType": "address",
          "name": "",
          "type": "address"
        },
        {
          "internalType": "address",
          "name": "",
          "type": "address"
        }
      ],
      "name": "patientConsent",
      "outputs": [
        {
          "internalType": "bool",
          "name": "",
          "type": "bool"
        }
      ],
      "stateMutability": "view",
      "type": "function",
      "constant": true
    },
    {
      "inputs": [
        {
          "internalType": "address",
          "name": "",
          "type": "address"
        }
      ],
      "name": "patients",
      "outputs": [
        {
          "internalType": "bool",
          "name": "isRegistered",
          "type": "bool"
        },
        {
          "internalType": "string",
          "name": "name",
          "type": "string"
        },
        {
          "internalType": "string",
          "name": "bloodType",
          "type": "string"
        },
        {
          "internalType": "string",
          "name": "phone",
          "type": "string"
        },
        {
          "internalType": "string",
          "name": "email",
          "type": "string"
        }
      ],
      "stateMutability": "view",
      "type": "function",
      "constant": true
    },
    {
      "inputs": [
        {
          "internalType": "address",
          "name": "",
          "type": "address"
        },
        {
          "internalType": "address",
          "name": "",
          "type": "address"
        }
      ],
      "name": "pendingConsent",
      "outputs": [
        {
          "internalType": "bool",
          "name": "",
          "type": "bool"
        }
      ],
      "stateMutability": "view",
      "type": "function",
      "constant": true
    },
    {
      "inputs": [
        {
          "internalType": "string",
          "name": "_name",
          "type": "string"
        },
        {
          "internalType": "string",
          "name": "_bloodType",
          "type": "string"
        },
        {
          "internalType": "string",
          "name": "_phone",
          "type": "string"
        },
        {
          "internalType": "string",
          "name": "_email",
          "type": "string"
        }
      ],
      "name": "registerPatient",
      "outputs": [],
      "stateMutability": "nonpayable",
      "type": "function"
    },
    {
      "inputs": [
        {
          "internalType": "address",
          "name": "_doctor",
          "type": "address"
        },
        {
          "internalType": "string",
          "name": "_name",
          "type": "string"
        },
        {
          "internalType": "string",
          "name": "_clinic",
          "type": "string"
        },
        {
          "internalType": "string",
          "name": "_timezone",
          "type": "string"
        },
        {
          "internalType": "string",
          "name": "_workingHoursStart",
          "type": "string"
        },
        {
          "internalType": "string",
          "name": "_workingHoursEnd",
          "type": "string"
        }
      ],
      "name": "addDoctor",
      "outputs": [],
      "stateMutability": "nonpayable",
      "type": "function"
    },
    {
      "inputs": [
        {
          "internalType": "address",
          "name": "_doctor",
          "type": "address"
        }
      ],
      "name": "removeDoctor",
      "outputs": [],
      "stateMutability": "nonpayable",
      "type": "function"
    },
    {
      "inputs": [
        {
          "internalType": "address",
          "name": "_doctor",
          "type": "address"
        }
      ],
      "name": "getDoctorProfile",
      "outputs": [
        {
          "internalType": "string",
          "name": "name",
          "type": "string"
        }
      ],
      "stateMutability": "view",
      "type": "function",
      "constant": true
    },
    {
      "inputs": [
        {
          "internalType": "address",
          "name": "_patient",
          "type": "address"
        }
      ],
      "name": "getPatientProfile",
      "outputs": [
        {
          "internalType": "string",
          "name": "name",
          "type": "string"
        },
        {
          "internalType": "string",
          "name": "bloodType",
          "type": "string"
        },
        {
          "internalType": "string",
          "name": "phone",
          "type": "string"
        },
        {
          "internalType": "string",
          "name": "email",
          "type": "string"
        }
      ],
      "stateMutability": "view",
      "type": "function",
      "constant": true
    },
    {
      "inputs": [
        {
          "internalType": "address",
          "name": "_patient",
          "type": "address"
        }
      ],
      "name": "requestConsent",
      "outputs": [],
      "stateMutability": "nonpayable",
      "type": "function"
    },
    {
      "inputs": [
        {
          "internalType": "address",
          "name": "_doctor",
          "type": "address"
        }
      ],
      "name": "grantConsent",
      "outputs": [],
      "stateMutability": "nonpayable",
      "type": "function"
    },
    {
      "inputs": [
        {
          "internalType": "address",
          "name": "_doctor",
          "type": "address"
        }
      ],
      "name": "refuseConsent",
      "outputs": [],
      "stateMutability": "nonpayable",
      "type": "function"
    },
    {
      "inputs": [
        {
          "internalType": "address",
          "name": "_doctor",
          "type": "address"
        }
      ],
      "name": "revokeConsent",
      "outputs": [],
      "stateMutability": "nonpayable",
      "type": "function"
    },
    {
      "inputs": [
        {
          "internalType": "address",
          "name": "_patient",
          "type": "address"
        },
        {
          "internalType": "bytes",
          "name": "_encryptedData",
          "type": "bytes"
        }
      ],
      "name": "addVisit",
      "outputs": [],
      "stateMutability": "nonpayable",
      "type": "function"
    },
    {
      "inputs": [
        {
          "internalType": "address",
          "name": "_patient",
          "type": "address"
        },
        {
          "internalType": "uint256",
          "name": "_offset",
          "type": "uint256"
        },
        {
          "internalType": "uint256",
          "name": "_limit",
          "type": "uint256"
        }
      ],
      "name": "getHistory",
      "outputs": [
        {
          "components": [
            {
              "internalType": "uint256",
              "name": "id",
              "type": "uint256"
            },
            {
              "internalType": "uint256",
              "name": "timestamp",
              "type": "uint256"
            },
            {
              "internalType": "address",
              "name": "doctor",
              "type": "address"
            },
            {
              "internalType": "bytes",
              "name": "encryptedData",
              "type": "bytes"
            }
          ],
          "internalType": "struct HealthRecords.Visit[]",
          "name": "",
          "type": "tuple[]"
        }
      ],
      "stateMutability": "view",
      "type": "function",
      "constant": true
    },
    {
      "inputs": [
        {
          "internalType": "address",
          "name": "_patient",
          "type": "address"
        }
      ],
      "name": "getVisitCount",
      "outputs": [
        {
          "internalType": "uint256",
          "name": "",
          "type": "uint256"
        }
      ],
      "stateMutability": "view",
      "type": "function",
      "constant": true
    }
  ],
  "bytecode": "0x608060405234801561001057600080fd5b50336000806101000a81548173ffffffffffffffffffffffffffffffffffffffff021916908373ffffffffffffffffffffffffffffffffffffffff1602179055506141c0806100606000396000f3fe608060405234801561001057600080fd5b506004361061010b5760003560e01c80638da5cb5b116100a2578063a9583c2211610071578063a9583c22146102b9578063ac440a9f146102ee578063d1a486271461031e578063ec29f4e91461033a578063f68b68f61461036a5761010b565b80638da5cb5b1461024757806398fc90e914610265578063a46aef4014610281578063a79861f11461029d5761010b565b80634ba0a020116100de5780634ba0a020146101af57806353c1a042146101cb5780635cbcd8eb146101fb57806387fee61c1461022b5761010b565b8063037f8248146101105780630869cfbc1461012c5780631128c9ea14610160578063461a20821461017c575b600080fd5b61012a6004803603810190610125919061290c565b61039a565b005b6101466004803603810190610141919061290c565b61073e565b6040516101579594939291906129e4565b60405180910390f35b61017a60048036038101906101759190612b88565b6109a1565b005b6101966004803603810190610191919061290c565b610ca7565b6040516101a69493929190612ca1565b60405180910390f35b6101c960048036038101906101c49190612d02565b611011565b005b6101e560048036038101906101e09190612dd9565b611269565b6040516101f29190612e19565b60405180910390f35b6102156004803603810190610210919061290c565b611298565b6040516102229190612e34565b60405180910390f35b61024560048036038101906102409190612ef7565b6113fb565b005b61024f61175a565b60405161025c9190612f62565b60405180910390f35b61027f600480360381019061027a919061290c565b61177e565b005b61029b6004803603810190610296919061290c565b6119ca565b005b6102b760048036038101906102b2919061290c565b611c14565b005b6102d360048036038101906102ce919061290c565b611eb9565b6040516102e596959493929190612f7d565b60405180910390f35b6103086004803603810190610303919061290c565b6121aa565b604051610315919061301a565b60405180910390f35b6103386004803603810190610333919061290c565b6122f5565b005b610354600480360381019061034f9190613061565b612476565b604051610361919061324c565b60405180910390f35b610384600480360381019061037f9190612dd9565b61282d565b6040516103919190612e19565b60405180910390f35b600260003373ffffffffffffffffffffffffffffffffffffffff1673ffffffffffffffffffffffffffffffffffffffff16815260200190815260200160002060000160009054906101000a900460ff16610429576040517f08c379a0000000000000000000000000000000000000000000000000000000008152600401610420906132e0565b60405180910390fd5b600160008273ffffffffffffffffffffffffffffffffffffffff1673ffffffffffffffffffffffffffffffffffffffff16815260200190815260200160002060000160009054906101000a900460ff166104b8576040517f08c379a00000000000000000000000000000000000000000000000000000000081526004016104af90613372565b60405180910390fd5b600460008273ffffffffffffffffffffffffffffffffffffffff1673ffffffffffffffffffffffffffffffffffffffff16815260200190815260200160002060003373ffffffffffffffffffffffffffffffffffffffff1673ffffffffffffffffffffffffffffffffffffffff16815260200190815260200160002060009054906101000a900460ff1615610582576040517f08c379a0000000000000000000000000000000000000000000000000000000008152600401610579906133de565b60405180910390fd5b600560008273ffffffffffffffffffffffffffffffffffffffff1673ffffffffffffffffffffffffffffffffffffffff16815260200190815260200160002060003373ffffffffffffffffffffffffffffffffffffffff1673ffffffffffffffffffffffffffffffffffffffff16815260200190815260200160002060009054906101000a900460ff161561064c576040517f08c379a000000000000000000000000000000000000000000000000000000000815260040161064390613470565b60405180910390fd5b6001600560008373ffffffffffffffffffffffffffffffffffffffff1673ffffffffffffffffffffffffffffffffffffffff16815260200190815260200160002060003373ffffffffffffffffffffffffffffffffffffffff1673ffffffffffffffffffffffffffffffffffffffff16815260200190815260200160002060006101000a81548160ff0219169083151502179055503373ffffffffffffffffffffffffffffffffffffffff168173ffffffffffffffffffffffffffffffffffffffff167f2836b27da25b9b18fc3a89b2e06ebbe3b7268f8291437c0bb6923b2b19212bcb60405160405180910390a350565b60016020528060005260406000206000915090508060000160009054906101000a900460ff1690806001018054610774906134bf565b80601f01602080910402602001604051908101604052809291908181526020018280546107a0906134bf565b80156107ed5780601f106107c2576101008083540402835291602001916107ed565b820191906000526020600020905b8154815290600101906020018083116107d057829003601f168201915b505050505090806002018054610802906134bf565b80601f016020809104026020016040519081016040528092919081815260200182805461082e906134bf565b801561087b5780601f106108505761010080835404028352916020019161087b565b820191906000526020600020905b81548152906001019060200180831161085e57829003601f168201915b505050505090806003018054610890906134bf565b80601f01602080910402602001604051908101604052809291908181526020018280546108bc906134bf565b80156109095780601f106108de57610100808354040283529160200191610909565b820191906000526020600020905b8154815290600101906020018083116108ec57829003601f168201915b50505050509080600401805461091e906134bf565b80601f016020809104026020016040519081016040528092919081815260200182805461094a906134bf565b80156109975780601f1061096c57610100808354040283529160200191610997565b820191906000526020600020905b81548152906001019060200180831161097a57829003601f168201915b5050505050905085565b60008054906101000a900473ffffffffffffffffffffffffffffffffffffffff1673ffffffffffffffffffffffffffffffffffffffff163373ffffffffffffffffffffffffffffffffffffffff1614610a2f576040517f08c379a0000000000000000000000000000000000000000000000000000000008152600401610a2690613562565b60405180910390fd5b600260008773ffffffffffffffffffffffffffffffffffffffff1673ffffffffffffffffffffffffffffffffffffffff16815260200190815260200160002060000160009054906101000a900460ff1615610abf576040517f08c379a0000000000000000000000000000000000000000000000000000000008152600401610ab6906135ce565b60405180910390fd5b600160008773ffffffffffffffffffffffffffffffffffffffff1673ffffffffffffffffffffffffffffffffffffffff16815260200190815260200160002060000160009054906101000a900460ff1615610b4f576040517f08c379a0000000000000000000000000000000000000000000000000000000008152600401610b4690613660565b60405180910390fd5b6040518060c0016040528060011515815260200186815260200185815260200184815260200183815260200182815250600260008873ffffffffffffffffffffffffffffffffffffffff1673ffffffffffffffffffffffffffffffffffffffff16815260200190815260200160002060008201518160000160006101000a81548160ff0219169083151502179055506020820151816001019081610bf3919061382c565b506040820151816002019081610c09919061382c565b506060820151816003019081610c1f919061382c565b506080820151816004019081610c35919061382c565b5060a0820151816005019081610c4b919061382c565b509050508573ffffffffffffffffffffffffffffffffffffffff167f9388661dcd7dc6cff9b4e22ab9459ac0a2682f86cb52fc7a669a6e7f062bce4c8686604051610c979291906138fe565b60405180910390a2505050505050565b606080606080600160008673ffffffffffffffffffffffffffffffffffffffff1673ffffffffffffffffffffffffffffffffffffffff16815260200190815260200160002060000160009054906101000a900460ff16610d3c576040517f08c379a0000000000000000000000000000000000000000000000000000000008152600401610d3390613981565b60405180910390fd5b6000600160008773ffffffffffffffffffffffffffffffffffffffff1673ffffffffffffffffffffffffffffffffffffffff1681526020019081526020016000206040518060a00160405290816000820160009054906101000a900460ff16151515158152602001600182018054610db3906134bf565b80601f0160208091040260200160405190810160405280929190818152602001828054610ddf906134bf565b8015610e2c5780601f10610e0157610100808354040283529160200191610e2c565b820191906000526020600020905b815481529060010190602001808311610e0f57829003601f168201915b50505050508152602001600282018054610e45906134bf565b80601f0160208091040260200160405190810160405280929190818152602001828054610e71906134bf565b8015610ebe5780601f10610e9357610100808354040283529160200191610ebe565b820191906000526020600020905b815481529060010190602001808311610ea157829003601f168201915b50505050508152602001600382018054610ed7906134bf565b80601f0160208091040260200160405190810160405280929190818152602001828054610f03906134bf565b8015610f505780601f10610f2557610100808354040283529160200191610f50565b820191906000526020600020905b815481529060010190602001808311610f3357829003601f168201915b50505050508152602001600482018054610f69906134bf565b80601f0160208091040260200160405190810160405280929190818152602001828054610f95906134bf565b8015610fe25780601f10610fb757610100808354040283529160200191610fe2565b820191906000526020600020905b815481529060010190602001808311610fc557829003601f168201915b505050505081525050905080602001518160400151826060015183608001519450945094509450509193509193565b600160003373ffffffffffffffffffffffffffffffffffffffff1673ffffffffffffffffffffffffffffffffffffffff16815260200190815260200160002060000160009054906101000a900460ff16156110a1576040517f08c379a0000000000000000000000000000000000000000000000000000000008152600401611098906139ed565b60405180910390fd5b600260003373ffffffffffffffffffffffffffffffffffffffff1673ffffffffffffffffffffffffffffffffffffffff16815260200190815260200160002060000160009054906101000a900460ff1615611131576040517f08c379a000000000000000000000000000000000000000000000000000000000815260040161112890613a7f565b60405180910390fd5b6040518060a0016040528060011515815260200185815260200184815260200183815260200182815250600160003373ffffffffffffffffffffffffffffffffffffffff1673ffffffffffffffffffffffffffffffffffffffff16815260200190815260200160002060008201518160000160006101000a81548160ff02191690831515021790555060208201518160010190816111cf919061382c565b5060408201518160020190816111e5919061382c565b5060608201518160030190816111fb919061382c565b506080820151816004019081611211919061382c565b509050503373ffffffffffffffffffffffffffffffffffffffff167fc85b128388b9c331a2a5485dce4cd0f3db9f7c279d327ce95d6d39d6c94644c78560405161125b9190612e34565b60405180910390a250505050565b60056020528160005260406000206020528060005260406000206000915091509054906101000a900460ff1681565b6060600260008373ffffffffffffffffffffffffffffffffffffffff1673ffffffffffffffffffffffffffffffffffffffff16815260200190815260200160002060000160009054906101000a900460ff16611329576040517f08c379a000000000000000000000000000000000000000000000000000000000815260040161132090613aeb565b60405180910390fd5b600260008373ffffffffffffffffffffffffffffffffffffffff1673ffffffffffffffffffffffffffffffffffffffff1681526020019081526020016000206001018054611376906134bf565b80601f01602080910402602001604051908101604052809291908181526020018280546113a2906134bf565b80156113ef5780601f106113c4576101008083540402835291602001916113ef565b820191906000526020600020905b8154815290600101906020018083116113d257829003601f168201915b50505050509050919050565b600260003373ffffffffffffffffffffffffffffffffffffffff1673ffffffffffffffffffffffffffffffffffffffff16815260200190815260200160002060000160009054906101000a900460ff1661148a576040517f08c379a0000000000000000000000000000000000000000000000000000000008152600401611481906132e0565b60405180910390fd5b600460008373ffffffffffffffffffffffffffffffffffffffff1673ffffffffffffffffffffffffffffffffffffffff16815260200190815260200160002060003373ffffffffffffffffffffffffffffffffffffffff1673ffffffffffffffffffffffffffffffffffffffff16815260200190815260200160002060009054906101000a900460ff16611553576040517f08c379a000000000000000000000000000000000000000000000000000000000815260040161154a90613b7d565b60405180910390fd5b6000815111611597576040517f08c379a000000000000000000000000000000000000000000000000000000000815260040161158e90613be9565b60405180910390fd5b60006040518060800160405280600360008673ffffffffffffffffffffffffffffffffffffffff1673ffffffffffffffffffffffffffffffffffffffff1681526020019081526020016000208054905081526020014281526020013373ffffffffffffffffffffffffffffffffffffffff168152602001838152509050600360008473ffffffffffffffffffffffffffffffffffffffff1673ffffffffffffffffffffffffffffffffffffffff168152602001908152602001600020819080600181540180825580915050600190039060005260206000209060040201600090919091909150600082015181600001556020820151816001015560408201518160020160006101000a81548173ffffffffffffffffffffffffffffffffffffffff021916908373ffffffffffffffffffffffffffffffffffffffff16021790555060608201518160030190816116ed9190613c64565b5050503373ffffffffffffffffffffffffffffffffffffffff168373ffffffffffffffffffffffffffffffffffffffff167ff298554cada977a5e7c458fcf4673a28bfd9cb79e7c65a4f0ba7eec601eafbdc4260405161174d919061301a565b60405180910390a3505050565b60008054906101000a900473ffffffffffffffffffffffffffffffffffffffff1681565b60008054906101000a900473ffffffffffffffffffffffffffffffffffffffff1673ffffffffffffffffffffffffffffffffffffffff163373ffffffffffffffffffffffffffffffffffffffff161461180c576040517f08c379a000000000000000000000000000000000000000000000000000000000815260040161180390613562565b60405180910390fd5b600260008273ffffffffffffffffffffffffffffffffffffffff1673ffffffffffffffffffffffffffffffffffffffff16815260200190815260200160002060000160009054906101000a900460ff1661189b576040517f08c379a000000000000000000000000000000000000000000000000000000000815260040161189290613d82565b60405180910390fd5b60008054906101000a900473ffffffffffffffffffffffffffffffffffffffff1673ffffffffffffffffffffffffffffffffffffffff168173ffffffffffffffffffffffffffffffffffffffff1603611929576040517f08c379a000000000000000000000000000000000000000000000000000000000815260040161192090613e14565b60405180910390fd5b6000600260008373ffffffffffffffffffffffffffffffffffffffff1673ffffffffffffffffffffffffffffffffffffffff16815260200190815260200160002060000160006101000a81548160ff0219169083151502179055508073ffffffffffffffffffffffffffffffffffffffff167f493d7cf6a7c880406a55654d6727464ea088bd01d40498e1987a327e68961ab860405160405180910390a250565b600160003373ffffffffffffffffffffffffffffffffffffffff1673ffffffffffffffffffffffffffffffffffffffff16815260200190815260200160002060000160009054906101000a900460ff16611a59576040517f08c379a0000000000000000000000000000000000000000000000000000000008152600401611a5090613ea6565b60405180910390fd5b600560003373ffffffffffffffffffffffffffffffffffffffff1673ffffffffffffffffffffffffffffffffffffffff16815260200190815260200160002060008273ffffffffffffffffffffffffffffffffffffffff1673ffffffffffffffffffffffffffffffffffffffff16815260200190815260200160002060009054906101000a900460ff16611b22576040517f08c379a0000000000000000000000000000000000000000000000000000000008152600401611b1990613f38565b60405180910390fd5b6000600560003373ffffffffffffffffffffffffffffffffffffffff1673ffffffffffffffffffffffffffffffffffffffff16815260200190815260200160002060008373ffffffffffffffffffffffffffffffffffffffff1673ffffffffffffffffffffffffffffffffffffffff16815260200190815260200160002060006101000a81548160ff0219169083151502179055508073ffffffffffffffffffffffffffffffffffffffff163373ffffffffffffffffffffffffffffffffffffffff167fee666520c6fbc392d1a1e9c8845f759abf986e12b9927e3a452c94ce2c05d1df60405160405180910390a350565b600160003373ffffffffffffffffffffffffffffffffffffffff1673ffffffffffffffffffffffffffffffffffffffff16815260200190815260200160002060000160009054906101000a900460ff16611ca3576040517f08c379a0000000000000000000000000000000000000000000000000000000008152600401611c9a90613ea6565b60405180910390fd5b600260008273ffffffffffffffffffffffffffffffffffffffff1673ffffffffffffffffffffffffffffffffffffffff16815260200190815260200160002060000160009054906101000a900460ff16611d32576040517f08c379a0000000000000000000000000000000000000000000000000000000008152600401611d2990613fca565b60405180910390fd5b6000600560003373ffffffffffffffffffffffffffffffffffffffff1673ffffffffffffffffffffffffffffffffffffffff16815260200190815260200160002060008373ffffffffffffffffffffffffffffffffffffffff1673ffffffffffffffffffffffffffffffffffffffff16815260200190815260200160002060006101000a81548160ff0219169083151502179055506001600460003373ffffffffffffffffffffffffffffffffffffffff1673ffffffffffffffffffffffffffffffffffffffff16815260200190815260200160002060008373ffffffffffffffffffffffffffffffffffffffff1673ffffffffffffffffffffffffffffffffffffffff16815260200190815260200160002060006101000a81548160ff0219169083151502179055508073ffffffffffffffffffffffffffffffffffffffff163373ffffffffffffffffffffffffffffffffffffffff167f8105c574d2239a3a4f73f5efc5bc253cffb275647df535adfa2c240739cc922060405160405180910390a350565b60026020528060005260406000206000915090508060000160009054906101000a900460ff1690806001018054611eef906134bf565b80601f0160208091040260200160405190810160405280929190818152602001828054611f1b906134bf565b8015611f685780601f10611f3d57610100808354040283529160200191611f68565b820191906000526020600020905b815481529060010190602001808311611f4b57829003601f168201915b505050505090806002018054611f7d906134bf565b80601f0160208091040260200160405190810160405280929190818152602001828054611fa9906134bf565b8015611ff65780601f10611fcb57610100808354040283529160200191611ff6565b820191906000526020600020905b815481529060010190602001808311611fd957829003601f168201915b50505050509080600301805461200b906134bf565b80601f0160208091040260200160405190810160405280929190818152602001828054612037906134bf565b80156120845780601f1061205957610100808354040283529160200191612084565b820191906000526020600020905b81548152906001019060200180831161206757829003601f168201915b505050505090806004018054612099906134bf565b80601f01602080910402602001604051908101604052809291908181526020018280546120c5906134bf565b80156121125780601f106120e757610100808354040283529160200191612112565b820191906000526020600020905b8154815290600101906020018083116120f557829003601f168201915b505050505090806005018054612127906134bf565b80601f0160208091040260200160405190810160405280929190818152602001828054612153906134bf565b80156121a05780601f10612175576101008083540402835291602001916121a0565b820191906000526020600020905b81548152906001019060200180831161218357829003601f168201915b5050505050905086565b60008173ffffffffffffffffffffffffffffffffffffffff163373ffffffffffffffffffffffffffffffffffffffff16148061226c5750600460008373ffffffffffffffffffffffffffffffffffffffff1673ffffffffffffffffffffffffffffffffffffffff16815260200190815260200160002060003373ffffffffffffffffffffffffffffffffffffffff1673ffffffffffffffffffffffffffffffffffffffff16815260200190815260200160002060009054906101000a900460ff165b6122ab576040517f08c379a00000000000000000000000000000000000000000000000000000000081526004016122a29061405c565b60405180910390fd5b600360008373ffffffffffffffffffffffffffffffffffffffff1673ffffffffffffffffffffffffffffffffffffffff168152602001908152602001600020805490509050919050565b600160003373ffffffffffffffffffffffffffffffffffffffff1673ffffffffffffffffffffffffffffffffffffffff16815260200190815260200160002060000160009054906101000a900460ff16612384576040517f08c379a000000000000000000000000000000000000000000000000000000000815260040161237b90613ea6565b60405180910390fd5b6000600460003373ffffffffffffffffffffffffffffffffffffffff1673ffffffffffffffffffffffffffffffffffffffff16815260200190815260200160002060008373ffffffffffffffffffffffffffffffffffffffff1673ffffffffffffffffffffffffffffffffffffffff16815260200190815260200160002060006101000a81548160ff0219169083151502179055508073ffffffffffffffffffffffffffffffffffffffff163373ffffffffffffffffffffffffffffffffffffffff167febecee2d3f2ea272f73dd9d9ccc0bacd11280d61240332cbcd8a68173ae5cc2c60405160405180910390a350565b60608373ffffffffffffffffffffffffffffffffffffffff163373ffffffffffffffffffffffffffffffffffffffff1614806125385750600460008573ffffffffffffffffffffffffffffffffffffffff1673ffffffffffffffffffffffffffffffffffffffff16815260200190815260200160002060003373ffffffffffffffffffffffffffffffffffffffff1673ffffffffffffffffffffffffffffffffffffffff16815260200190815260200160002060009054906101000a900460ff165b612577576040517f08c379a000000000000000000000000000000000000000000000000000000000815260040161256e9061405c565b60405180910390fd5b6000600360008673ffffffffffffffffffffffffffffffffffffffff1673ffffffffffffffffffffffffffffffffffffffff16815260200190815260200160002090508080549050841061262257600067ffffffffffffffff8111156125e0576125df612a5d565b5b60405190808252806020026020018201604052801561261957816020015b61260661285c565b8152602001906001900390816125fe5790505b50915050612826565b6000838561263091906140ab565b9050818054905081111561264657818054905090505b6000858261265491906140df565b905060008167ffffffffffffffff81111561267257612671612a5d565b5b6040519080825280602002602001820160405280156126ab57816020015b61269861285c565b8152602001906001900390816126905790505b50905060005b8281101561281d578481896126c691906140ab565b815481106126d7576126d6614113565b5b906000526020600020906004020160405180608001604052908160008201548152602001600182015481526020016002820160009054906101000a900473ffffffffffffffffffffffffffffffffffffffff1673ffffffffffffffffffffffffffffffffffffffff1673ffffffffffffffffffffffffffffffffffffffff16815260200160038201805461276a906134bf565b80601f0160208091040260200160405190810160405280929190818152602001828054612796906134bf565b80156127e35780601f106127b8576101008083540402835291602001916127e3565b820191906000526020600020905b8154815290600101906020018083116127c657829003601f168201915b5050505050815250508282815181106127ff576127fe614113565b5b6020026020010181905250808061281590614142565b9150506126b1565b50809450505050505b9392505050565b60046020528160005260406000206020528060005260406000206000915091509054906101000a900460ff1681565b60405180608001604052806000815260200160008152602001600073ffffffffffffffffffffffffffffffffffffffff168152602001606081525090565b6000604051905090565b600080fd5b600080fd5b600073ffffffffffffffffffffffffffffffffffffffff82169050919050565b60006128d9826128ae565b9050919050565b6128e9816128ce565b81146128f457600080fd5b50565b600081359050612906816128e0565b92915050565b600060208284031215612922576129216128a4565b5b6000612930848285016128f7565b91505092915050565b60008115159050919050565b61294e81612939565b82525050565b600081519050919050565b600082825260208201905092915050565b60005b8381101561298e578082015181840152602081019050612973565b60008484015250505050565b6000601f19601f8301169050919050565b60006129b682612954565b6129c0818561295f565b93506129d0818560208601612970565b6129d98161299a565b840191505092915050565b600060a0820190506129f96000830188612945565b8181036020830152612a0b81876129ab565b90508181036040830152612a1f81866129ab565b90508181036060830152612a3381856129ab565b90508181036080830152612a4781846129ab565b90509695505050505050565b600080fd5b600080fd5b7f4e487b7100000000000000000000000000000000000000000000000000000000600052604160045260246000fd5b612a958261299a565b810181811067ffffffffffffffff82111715612ab457612ab3612a5d565b5b80604052505050565b6000612ac761289a565b9050612ad38282612a8c565b919050565b600067ffffffffffffffff821115612af357612af2612a5d565b5b612afc8261299a565b9050602081019050919050565b82818337600083830152505050565b6000612b2b612b2684612ad8565b612abd565b905082815260208101848484011115612b4757612b46612a58565b5b612b52848285612b09565b509392505050565b600082601f830112612b6f57612b6e612a53565b5b8135612b7f848260208601612b18565b91505092915050565b60008060008060008060c08789031215612ba557612ba46128a4565b5b6000612bb389828a016128f7565b965050602087013567ffffffffffffffff811115612bd457612bd36128a9565b5b612be089828a01612b5a565b955050604087013567ffffffffffffffff811115612c0157612c006128a9565b5b612c0d89828a01612b5a565b945050606087013567ffffffffffffffff811115612c2e57612c2d6128a9565b5b612c3a89828a01612b5a565b935050608087013567ffffffffffffffff811115612c5b57612c5a6128a9565b5b612c6789828a01612b5a565b92505060a087013567ffffffffffffffff811115612c8857612c876128a9565b5b612c9489828a01612b5a565b9150509295509295509295565b60006080820190508181036000830152612cbb81876129ab565b90508181036020830152612ccf81866129ab565b90508181036040830152612ce381856129ab565b90508181036060830152612cf781846129ab565b905095945050505050565b60008060008060808587031215612d1c57612d1b6128a4565b5b600085013567ffffffffffffffff811115612d3a57612d396128a9565b5b612d4687828801612b5a565b945050602085013567ffffffffffffffff811115612d6757612d666128a9565b5b612d7387828801612b5a565b935050604085013567ffffffffffffffff811115612d9457612d936128a9565b5b612da087828801612b5a565b925050606085013567ffffffffffffffff811115612dc157612dc06128a9565b5b612dcd87828801612b5a565b91505092959194509250565b60008060408385031215612df057612def6128a4565b5b6000612dfe858286016128f7565b9250506020612e0f858286016128f7565b9150509250929050565b6000602082019050612e2e6000830184612945565b92915050565b60006020820190508181036000830152612e4e81846129ab565b905092915050565b600067ffffffffffffffff821115612e7157612e70612a5d565b5b612e7a8261299a565b9050602081019050919050565b6000612e9a612e9584612e56565b612abd565b905082815260208101848484011115612eb657612eb5612a58565b5b612ec1848285612b09565b509392505050565b600082601f830112612ede57612edd612a53565b5b8135612eee848260208601612e87565b91505092915050565b60008060408385031215612f0e57612f0d6128a4565b5b6000612f1c858286016128f7565b925050602083013567ffffffffffffffff811115612f3d57612f3c6128a9565b5b612f4985828601612ec9565b9150509250929050565b612f5c816128ce565b82525050565b6000602082019050612f776000830184612f53565b92915050565b600060c082019050612f926000830189612945565b8181036020830152612fa481886129ab565b90508181036040830152612fb881876129ab565b90508181036060830152612fcc81866129ab565b90508181036080830152612fe081856129ab565b905081810360a0830152612ff481846129ab565b9050979650505050505050565b6000819050919050565b61301481613001565b82525050565b600060208201905061302f600083018461300b565b92915050565b61303e81613001565b811461304957600080fd5b50565b60008135905061305b81613035565b92915050565b60008060006060848603121561307a576130796128a4565b5b6000613088868287016128f7565b93505060206130998682870161304c565b92505060406130aa8682870161304c565b9150509250925092565b600081519050919050565b600082825260208201905092915050565b6000819050602082019050919050565b6130e981613001565b82525050565b6130f8816128ce565b82525050565b600081519050919050565b600082825260208201905092915050565b6000613125826130fe565b61312f8185613109565b935061313f818560208601612970565b6131488161299a565b840191505092915050565b600060808301600083015161316b60008601826130e0565b50602083015161317e60208601826130e0565b50604083015161319160408601826130ef565b50606083015184820360608601526131a9828261311a565b9150508091505092915050565b60006131c28383613153565b905092915050565b6000602082019050919050565b60006131e2826130b4565b6131ec81856130bf565b9350836020820285016131fe856130d0565b8060005b8581101561323a578484038952815161321b85826131b6565b9450613226836131ca565b925060208a01995050600181019050613202565b50829750879550505050505092915050565b6000602082019050818103600083015261326681846131d7565b905092915050565b7f43616c6c6572206973206e6f7420616e20617574686f72697a656420646f637460008201527f6f72000000000000000000000000000000000000000000000000000000000000602082015250565b60006132ca60228361295f565b91506132d58261326e565b604082019050919050565b600060208201905081810360008301526132f9816132bd565b9050919050565b7f41646472657373206973206e6f7420612072656769737465726564207061746960008201527f656e742e00000000000000000000000000000000000000000000000000000000602082015250565b600061335c60248361295f565b915061336782613300565b604082019050919050565b6000602082019050818103600083015261338b8161334f565b9050919050565b7f436f6e73656e7420697320616c7265616479206772616e7465642e0000000000600082015250565b60006133c8601b8361295f565b91506133d382613392565b602082019050919050565b600060208201905081810360008301526133f7816133bb565b9050919050565b7f436f6e73656e74207265717565737420697320616c72656164792070656e646960008201527f6e672e0000000000000000000000000000000000000000000000000000000000602082015250565b600061345a60238361295f565b9150613465826133fe565b604082019050919050565b600060208201905081810360008301526134898161344d565b9050919050565b7f4e487b7100000000000000000000000000000000000000000000000000000000600052602260045260246000fd5b600060028204905060018216806134d757607f821691505b6020821081036134ea576134e9613490565b5b50919050565b7f4f6e6c79206f776e65722063616e20706572666f726d2074686973206163746960008201527f6f6e000000000000000000000000000000000000000000000000000000000000602082015250565b600061354c60228361295f565b9150613557826134f0565b604082019050919050565b6000602082019050818103600083015261357b8161353f565b9050919050565b7f446f63746f7220697320616c7265616479207265676973746572656400000000600082015250565b60006135b8601c8361295f565b91506135c382613582565b602082019050919050565b600060208201905081810360008301526135e7816135ab565b9050919050565b7f4164647265737320697320616c7265616479207265676973746572656420617360008201527f20612070617469656e7400000000000000000000000000000000000000000000602082015250565b600061364a602a8361295f565b9150613655826135ee565b604082019050919050565b600060208201905081810360008301526136798161363d565b9050919050565b60008190508160005260206000209050919050565b60006020601f8301049050919050565b600082821b905092915050565b6000600883026136e27fffffffffffffffffffffffffffffffffffffffffffffffffffffffffffffffff826136a5565b6136ec86836136a5565b95508019841693508086168417925050509392505050565b6000819050919050565b600061372961372461371f84613001565b613704565b613001565b9050919050565b6000819050919050565b6137438361370e565b61375761374f82613730565b8484546136b2565b825550505050565b600090565b61376c61375f565b61377781848461373a565b505050565b5b8181101561379b57613790600082613764565b60018101905061377d565b5050565b601f8211156137e0576137b181613680565b6137ba84613695565b810160208510156137c9578190505b6137dd6137d585613695565b83018261377c565b50505b505050565b600082821c905092915050565b6000613803600019846008026137e5565b1980831691505092915050565b600061381c83836137f2565b9150826002028217905092915050565b61383582612954565b67ffffffffffffffff81111561384e5761384d612a5d565b5b61385882546134bf565b61386382828561379f565b600060209050601f8311600181146138965760008415613884578287015190505b61388e8582613810565b8655506138f6565b601f1984166138a486613680565b60005b828110156138cc578489015182556001820191506020850194506020810190506138a7565b868310156138e957848901516138e5601f8916826137f2565b8355505b6001600288020188555050505b505050505050565b6000604082019050818103600083015261391881856129ab565b9050818103602083015261392c81846129ab565b90509392505050565b7f4e6f74206120726567697374657265642070617469656e742e00000000000000600082015250565b600061396b60198361295f565b915061397682613935565b602082019050919050565b6000602082019050818103600083015261399a8161395e565b9050919050565b7f416c7265616479207265676973746572656420617320612070617469656e742e600082015250565b60006139d760208361295f565b91506139e2826139a1565b602082019050919050565b60006020820190508181036000830152613a06816139ca565b9050919050565b7f446f63746f72732063616e6e6f7420726567697374657220617320706174696560008201527f6e74732e00000000000000000000000000000000000000000000000000000000602082015250565b6000613a6960248361295f565b9150613a7482613a0d565b604082019050919050565b60006020820190508181036000830152613a9881613a5c565b9050919050565b7f4e6f7420616e20617574686f72697a656420646f63746f722e00000000000000600082015250565b6000613ad560198361295f565b9150613ae082613a9f565b602082019050919050565b60006020820190508181036000830152613b0481613ac8565b9050919050565b7f50617469656e7420686173206e6f74206772616e74656420636f6e73656e742060008201527f746f207468697320646f63746f722e0000000000000000000000000000000000602082015250565b6000613b67602f8361295f565b9150613b7282613b0b565b604082019050919050565b60006020820190508181036000830152613b9681613b5a565b9050919050565b7f456e6372797074656420646174612063616e6e6f7420626520656d7074792e00600082015250565b6000613bd3601f8361295f565b9150613bde82613b9d565b602082019050919050565b60006020820190508181036000830152613c0281613bc6565b9050919050565b60008190508160005260206000209050919050565b601f821115613c5f57613c3081613c09565b613c3984613695565b81016020851015613c48578190505b613c5c613c5485613695565b83018261377c565b50505b505050565b613c6d826130fe565b67ffffffffffffffff811115613c8657613c85612a5d565b5b613c9082546134bf565b613c9b828285613c1e565b600060209050601f831160018114613cce5760008415613cbc578287015190505b613cc68582613810565b865550613d2e565b601f198416613cdc86613c09565b60005b82811015613d0457848901518255600182019150602085019450602081019050613cdf565b86831015613d215784890151613d1d601f8916826137f2565b8355505b6001600288020188555050505b505050505050565b7f41646472657373206973206e6f74206120646f63746f722e0000000000000000600082015250565b6000613d6c60188361295f565b9150613d7782613d36565b602082019050919050565b60006020820190508181036000830152613d9b81613d5f565b9050919050565b7f43616e6e6f742072656d6f766520746865206f776e657220617320646f63746f60008201527f722e000000000000000000000000000000000000000000000000000000000000602082015250565b6000613dfe60228361295f565b9150613e0982613da2565b604082019050919050565b60006020820190508181036000830152613e2d81613df1565b9050919050565b7f43616c6c6572206973206e6f742061207265676973746572656420706174696560008201527f6e74000000000000000000000000000000000000000000000000000000000000602082015250565b6000613e9060228361295f565b9150613e9b82613e34565b604082019050919050565b60006020820190508181036000830152613ebf81613e83565b9050919050565b7f4e6f2070656e64696e6720636f6e73656e7420726571756573742066726f6d2060008201527f7468697320646f63746f722e0000000000000000000000000000000000000000602082015250565b6000613f22602c8361295f565b9150613f2d82613ec6565b604082019050919050565b60006020820190508181036000830152613f5181613f15565b9050919050565b7f41646472657373206973206e6f7420616e20617574686f72697a656420646f6360008201527f746f722e00000000000000000000000000000000000000000000000000000000602082015250565b6000613fb460248361295f565b9150613fbf82613f58565b604082019050919050565b60006020820190508181036000830152613fe381613fa7565b9050919050565b7f4e6f7420617574686f72697a656420746f20766965772074686973206869737460008201527f6f72792e00000000000000000000000000000000000000000000000000000000602082015250565b600061404660248361295f565b915061405182613fea565b604082019050919050565b6000602082019050818103600083015261407581614039565b9050919050565b7f4e487b7100000000000000000000000000000000000000000000000000000000600052601160045260246000fd5b60006140b682613001565b91506140c183613001565b92508282019050808211156140d9576140d861407c565b5b92915050565b60006140ea82613001565b91506140f583613001565b925082820390508181111561410d5761410c61407c565b5b92915050565b7f4e487b7100000000000000000000000000000000000000000000000000000000600052603260045260246000fd5b600061414d82613001565b91507fffffffffffffffffffffffffffffffffffffffffffffffffffffffffffffffff820361417f5761417e61407c565b5b60018201905091905056fea26469706673582212203c71bbf073063078adc66feb32ba7aa3bb7312c42e9dc1c608ab818dbe58da6764736f6c63430008150033",
  "immutableReferences": {},
  "source": "// SPDX-License-Identifier: MIT\r\npragma solidity ^0.8.0;\r\n\r\ncontract HealthRecords {\r\n    address public owner;\r\n\r\n    struct Visit {\r\n        uint256 id;\r\n        uint256 timestamp;\r\n        address doctor;     // Doctor who added it\r\n        bytes encryptedData; // Encrypted IPFS CID or symmetric encrypted blob\r\n    }\r\n\r\n    struct Doctor {\r\n        bool isRegistered;\r\n        string name;\r\n        string clinic;\r\n        string timezone;\r\n        string workingHoursStart;\r\n        string workingHoursEnd;\r\n    }\r\n\r\n    struct Patient {\r\n        bool isRegistered;\r\n        string name;\r\n        string bloodType;\r\n        string phone;\r\n        string email;\r\n    }\r\n\r\n    // State Variables\r\n    mapping(address => Patient) public patients;\r\n    mapping(address => Doctor) public doctors;\r\n    mapping(address => Visit[]) private patientHistory;\r\n\r\n    // Consent mappings: mapping(patient => mapping(doctor => state))\r\n    mapping(address => mapping(address => bool)) public patientConsent;\r\n    mapping(address => mapping(address => bool)) public pendingConsent;\r\n\r\n    // Events\r\n    event ConsentRequested(address indexed patient, address indexed doctor);\r\n    event ConsentGranted(address indexed patient, address indexed doctor);\r\n    event ConsentRefused(address indexed patient, address indexed doctor);\r\n    event ConsentRevoked(address indexed patient, address indexed doctor);\r\n    event PatientRegistered(address indexed patient, string name);\r\n    event DoctorAdded(address indexed doctor, string name, string clinic);\r\n    event DoctorRemoved(address indexed doctor);\r\n    event VisitAdded(address indexed patient, address indexed doctor, uint256 visitId);\r\n\r\n    // Modifiers\r\n    modifier onlyOwner() {\r\n        require(msg.sender == owner, \"Only owner can perform this action\");\r\n        _;\r\n    }\r\n\r\n    modifier onlyDoctor() {\r\n        require(doctors[msg.sender].isRegistered, \"Caller is not an authorized doctor\");\r\n        _;\r\n    }\r\n\r\n    modifier onlyPatient() {\r\n        require(patients[msg.sender].isRegistered, \"Caller is not a registered patient\");\r\n        _;\r\n    }\r\n\r\n    constructor() {\r\n        owner = msg.sender;\r\n    }\r\n\r\n    // --- Identity Registration ---\r\n\r\n    function registerPatient(string memory _name, string memory _bloodType, string memory _phone, string memory _email) public {\r\n        require(!patients[msg.sender].isRegistered, \"Already registered as a patient.\");\r\n        require(!doctors[msg.sender].isRegistered, \"Doctors cannot register as patients.\");\r\n        \r\n        patients[msg.sender] = Patient({\r\n            isRegistered: true,\r\n            name: _name,\r\n            bloodType: _bloodType,\r\n            phone: _phone,\r\n            email: _email\r\n        });\r\n        emit PatientRegistered(msg.sender, _name);\r\n    }\r\n\r\n    function addDoctor(\r\n        address _doctor, \r\n        string memory _name,\r\n        string memory _clinic,\r\n        string memory _timezone,\r\n        string memory _workingHoursStart,\r\n        string memory _workingHoursEnd\r\n    ) public onlyOwner {\r\n        require(!doctors[_doctor].isRegistered, \"Doctor is already registered\");\r\n        require(!patients[_doctor].isRegistered, \"Address is already registered as a patient\");\r\n\r\n        doctors[_doctor] = Doctor({\r\n            isRegistered: true,\r\n            name: _name,\r\n            clinic: _clinic,\r\n            timezone: _timezone,\r\n            workingHoursStart: _workingHoursStart,\r\n            workingHoursEnd: _workingHoursEnd\r\n        });\r\n\r\n        emit DoctorAdded(_doctor, _name, _clinic);\r\n    }\r\n\r\n    function removeDoctor(address _doctor) public onlyOwner {\r\n        require(doctors[_doctor].isRegistered, \"Address is not a doctor.\");\r\n        require(_doctor != owner, \"Cannot remove the owner as doctor.\");\r\n        doctors[_doctor].isRegistered = false;\r\n        // Optional: clear the name as well\r\n        emit DoctorRemoved(_doctor);\r\n    }\r\n\r\n    // --- Metadata Getters ---\r\n\r\n    function getDoctorProfile(address _doctor) public view returns (string memory name) {\r\n        require(doctors[_doctor].isRegistered, \"Not an authorized doctor.\");\r\n        return doctors[_doctor].name;\r\n    }\r\n\r\n    function getPatientProfile(address _patient) public view returns (string memory name, string memory bloodType, string memory phone, string memory email) {\r\n        require(patients[_patient].isRegistered, \"Not a registered patient.\");\r\n        Patient memory p = patients[_patient];\r\n        return (p.name, p.bloodType, p.phone, p.email);\r\n    }\r\n\r\n    // --- Patient Consent ---\r\n\r\n    function requestConsent(address _patient) public onlyDoctor {\r\n        require(patients[_patient].isRegistered, \"Address is not a registered patient.\");\r\n        require(!patientConsent[_patient][msg.sender], \"Consent is already granted.\");\r\n        require(!pendingConsent[_patient][msg.sender], \"Consent request is already pending.\");\r\n        \r\n        pendingConsent[_patient][msg.sender] = true;\r\n        emit ConsentRequested(_patient, msg.sender);\r\n    }\r\n\r\n    function grantConsent(address _doctor) public onlyPatient {\r\n        require(doctors[_doctor].isRegistered, \"Address is not an authorized doctor.\");\r\n        \r\n        pendingConsent[msg.sender][_doctor] = false; // clear if existed\r\n        patientConsent[msg.sender][_doctor] = true;\r\n        emit ConsentGranted(msg.sender, _doctor);\r\n    }\r\n\r\n    function refuseConsent(address _doctor) public onlyPatient {\r\n        require(pendingConsent[msg.sender][_doctor], \"No pending consent request from this doctor.\");\r\n        \r\n        pendingConsent[msg.sender][_doctor] = false;\r\n        emit ConsentRefused(msg.sender, _doctor);\r\n    }\r\n\r\n    function revokeConsent(address _doctor) public onlyPatient {\r\n        patientConsent[msg.sender][_doctor] = false;\r\n        emit ConsentRevoked(msg.sender, _doctor);\r\n    }\r\n\r\n    // --- Medical Records ---\r\n\r\n    function addVisit(address _patient, bytes memory _encryptedData) public onlyDoctor {\r\n        require(patientConsent[_patient][msg.sender], \"Patient has not granted consent to this doctor.\");\r\n        require(_encryptedData.length > 0, \"Encrypted data cannot be empty.\");\r\n\r\n        Visit memory newVisit = Visit({\r\n            id: patientHistory[_patient].length,\r\n            timestamp: block.timestamp,\r\n            doctor: msg.sender,\r\n            encryptedData: _encryptedData\r\n        });\r\n\r\n        patientHistory[_patient].push(newVisit);\r\n        emit VisitAdded(_patient, msg.sender, block.timestamp);\r\n    }\r\n\r\n    function getHistory(address _patient, uint256 _offset, uint256 _limit) public view returns (Visit[] memory) {\r\n        require(msg.sender == _patient || patientConsent[_patient][msg.sender], \"Not authorized to view this history.\");\r\n\r\n        Visit[] storage allVisits = patientHistory[_patient];\r\n\r\n        if (_offset >= allVisits.length) {\r\n            return new Visit[](0);\r\n        }\r\n\r\n        uint256 end = _offset + _limit;\r\n        if (end > allVisits.length) {\r\n            end = allVisits.length;\r\n        }\r\n\r\n        uint256 resultLength = end - _offset;\r\n        Visit[] memory result = new Visit[](resultLength);\r\n        for (uint256 i = 0; i < resultLength; i++) {\r\n            result[i] = allVisits[_offset + i];\r\n        }\r\n        return result;\r\n    }\r\n\r\n    function getVisitCount(address _patient) public view returns (uint256) {\r\n        require(msg.sender == _patient || patientConsent[_patient][msg.sender], \"Not authorized to view this history.\");\r\n        return patientHistory[_patient].length;\r\n    }\r\n}",
  "sourcePath": "C:\\Users\\abdoi\\OneDrive\\Documents\\Studies\\master ai\\Securite blockchain\\Project\\Blockchain\\contracts\\HealthRecords.sol",
  "compiler": {
    "name": "solc",
    "version": "0.8.21+commit.d9974bed.Emscripten.clang"
  },
  "schemaVersion": "3.4.16",
  "updatedAt": "2026-03-13T23:43:51.809Z",
  "networkType": "ethereum",
  "devdoc": {
    "kind": "dev",
    "methods": {},
    "version": 1
  },
  "userdoc": {
    "kind": "user",
    "methods": {},
    "version": 1
  }
}