{
  "contractName": "HealthRecords",
  "abi": [
    {
      "inputs": [],
      "stateMutability": "nonpayable",
      "type": "constructor"
    },
    {
      "anonymous": false,
      "inputs": [
        {
          "indexed": true,
          "internalType": "address",
          "name": "patient",
          "type": "address"
        },
        {
          "indexed": true,
          "internalType": "address",
          "name": "doctor",
          "type": "address"
        }
      ],
      "name": "ConsentGranted",
      "type": "event"
    },
    {
      "anonymous": false,
      "inputs": [
        {
          "indexed": true,
          "internalType": "address",
          "name": "patient",
          "type": "address"
        },
        {
          "indexed": true,
          "internalType": "address",
          "name": "doctor",
          "type": "address"
        }
      ],
      "name": "ConsentRefused",
      "type": "event"
    },
    {
      "anonymous": false,
      "inputs": [
        {
          "indexed": true,
          "internalType": "address",
          "name": "patient",
          "type": "address"
        },
        {
          "indexed": true,
          "internalType": "address",
          "name": "doctor",
          "type": "address"
        }
      ],
      "name": "ConsentRequested",
      "type": "event"
    },
    {
      "anonymous": false,
      "inputs": [
        {
          "indexed": true,
          "internalType": "address",
          "name": "patient",
          "type": "address"
        },
        {
          "indexed": true,
          "internalType": "address",
          "name": "doctor",
          "type": "address"
        }
      ],
      "name": "ConsentRevoked",
      "type": "event"
    },
    {
      "anonymous": false,
      "inputs": [
        {
          "indexed": true,
          "internalType": "address",
          "name": "doctor",
          "type": "address"
        },
        {
          "indexed": true,
          "internalType": "address",
          "name": "patient",
          "type": "address"
        },
        {
          "indexed": false,
          "internalType": "string",
          "name": "primaryCondition",
          "type": "string"
        },
        {
          "indexed": false,
          "internalType": "uint8",
          "name": "status",
          "type": "uint8"
        }
      ],
      "name": "DirectoryMetadataUpdated",
      "type": "event"
    },
    {
      "anonymous": false,
      "inputs": [
        {
          "indexed": true,
          "internalType": "address",
          "name": "doctor",
          "type": "address"
        },
        {
          "indexed": false,
          "internalType": "string",
          "name": "name",
          "type": "string"
        },
        {
          "indexed": false,
          "internalType": "string",
          "name": "clinic",
          "type": "string"
        }
      ],
      "name": "DoctorAdded",
      "type": "event"
    },
    {
      "anonymous": false,
      "inputs": [
        {
          "indexed": true,
          "internalType": "address",
          "name": "doctor",
          "type": "address"
        }
      ],
      "name": "DoctorRemoved",
      "type": "event"
    },
    {
      "anonymous": false,
      "inputs": [
        {
          "indexed": true,
          "internalType": "address",
          "name": "patient",
          "type": "address"
        },
        {
          "indexed": false,
          "internalType": "string",
          "name": "name",
          "type": "string"
        }
      ],
      "name": "PatientRegistered",
      "type": "event"
    },
    {
      "anonymous": false,
      "inputs": [
        {
          "indexed": true,
          "internalType": "address",
          "name": "patient",
          "type": "address"
        },
        {
          "indexed": true,
          "internalType": "address",
          "name": "doctor",
          "type": "address"
        },
        {
          "indexed": false,
          "internalType": "uint256",
          "name": "timestamp",
          "type": "uint256"
        },
        {
          "indexed": false,
          "internalType": "bytes",
          "name": "encryptedData",
          "type": "bytes"
        }
      ],
      "name": "VisitAdded",
      "type": "event"
    },
    {
      "inputs": [
        {
          "internalType": "address",
          "name": "",
          "type": "address"
        }
      ],
      "name": "doctors",
      "outputs": [
        {
          "internalType": "bool",
          "name": "isRegistered",
          "type": "bool"
        },
        {
          "internalType": "string",
          "name": "name",
          "type": "string"
        },
        {
          "internalType": "string",
          "name": "clinic",
          "type": "string"
        },
        {
          "internalType": "string",
          "name": "timezone",
          "type": "string"
        },
        {
          "internalType": "string",
          "name": "workingHoursStart",
          "type": "string"
        },
        {
          "internalType": "string",
          "name": "workingHoursEnd",
          "type": "string"
        }
      ],
      "stateMutability": "view",
      "type": "function",
      "constant": true
    },
    {
      "inputs": [],
      "name": "owner",
      "outputs": [
        {
          "internalType": "address",
          "name": "",
          "type": "address"
        }
      ],
      "stateMutability": "view",
      "type": "function",
      "constant": true
    },
    {
      "inputs": [
        {
          "internalType": "address",
          "name": "",
          "type": "address"
        },
        {
          "internalType": "address",
          "name": "",
          "type": "address"
        }
      ],
      "name": "patientConsent",
      "outputs": [
        {
          "internalType": "bool",
          "name": "",
          "type": "bool"
        }
      ],
      "stateMutability": "view",
      "type": "function",
      "constant": true
    },
    {
      "inputs": [
        {
          "internalType": "address",
          "name": "",
          "type": "address"
        }
      ],
      "name": "patients",
      "outputs": [
        {
          "internalType": "bool",
          "name": "isRegistered",
          "type": "bool"
        },
        {
          "internalType": "string",
          "name": "name",
          "type": "string"
        },
        {
          "internalType": "string",
          "name": "bloodType",
          "type": "string"
        },
        {
          "internalType": "string",
          "name": "phone",
          "type": "string"
        },
        {
          "internalType": "string",
          "name": "email",
          "type": "string"
        }
      ],
      "stateMutability": "view",
      "type": "function",
      "constant": true
    },
    {
      "inputs": [
        {
          "internalType": "address",
          "name": "",
          "type": "address"
        },
        {
          "internalType": "address",
          "name": "",
          "type": "address"
        }
      ],
      "name": "pendingConsent",
      "outputs": [
        {
          "internalType": "bool",
          "name": "",
          "type": "bool"
        }
      ],
      "stateMutability": "view",
      "type": "function",
      "constant": true
    },
    {
      "inputs": [
        {
          "internalType": "string",
          "name": "_name",
          "type": "string"
        },
        {
          "internalType": "string",
          "name": "_bloodType",
          "type": "string"
        },
        {
          "internalType": "string",
          "name": "_phone",
          "type": "string"
        },
        {
          "internalType": "string",
          "name": "_email",
          "type": "string"
        }
      ],
      "name": "registerPatient",
      "outputs": [],
      "stateMutability": "nonpayable",
      "type": "function"
    },
    {
      "inputs": [
        {
          "internalType": "address",
          "name": "_doctor",
          "type": "address"
        },
        {
          "internalType": "string",
          "name": "_name",
          "type": "string"
        },
        {
          "internalType": "string",
          "name": "_clinic",
          "type": "string"
        },
        {
          "internalType": "string",
          "name": "_timezone",
          "type": "string"
        },
        {
          "internalType": "string",
          "name": "_workingHoursStart",
          "type": "string"
        },
        {
          "internalType": "string",
          "name": "_workingHoursEnd",
          "type": "string"
        }
      ],
      "name": "addDoctor",
      "outputs": [],
      "stateMutability": "nonpayable",
      "type": "function"
    },
    {
      "inputs": [
        {
          "internalType": "address",
          "name": "_doctor",
          "type": "address"
        }
      ],
      "name": "removeDoctor",
      "outputs": [],
      "stateMutability": "nonpayable",
      "type": "function"
    },
    {
      "inputs": [
        {
          "internalType": "address",
          "name": "_doctor",
          "type": "address"
        }
      ],
      "name": "getDoctorProfile",
      "outputs": [
        {
          "internalType": "string",
          "name": "name",
          "type": "string"
        }
      ],
      "stateMutability": "view",
      "type": "function",
      "constant": true
    },
    {
      "inputs": [
        {
          "internalType": "address",
          "name": "_patient",
          "type": "address"
        }
      ],
      "name": "getPatientProfile",
      "outputs": [
        {
          "internalType": "string",
          "name": "name",
          "type": "string"
        },
        {
          "internalType": "string",
          "name": "bloodType",
          "type": "string"
        },
        {
          "internalType": "string",
          "name": "phone",
          "type": "string"
        },
        {
          "internalType": "string",
          "name": "email",
          "type": "string"
        }
      ],
      "stateMutability": "view",
      "type": "function",
      "constant": true
    },
    {
      "inputs": [
        {
          "internalType": "address",
          "name": "_patient",
          "type": "address"
        },
        {
          "internalType": "string",
          "name": "_primaryCondition",
          "type": "string"
        },
        {
          "internalType": "uint8",
          "name": "_status",
          "type": "uint8"
        }
      ],
      "name": "setDirectoryMetadata",
      "outputs": [],
      "stateMutability": "nonpayable",
      "type": "function"
    },
    {
      "inputs": [
        {
          "internalType": "address",
          "name": "_doctor",
          "type": "address"
        },
        {
          "internalType": "address",
          "name": "_patient",
          "type": "address"
        }
      ],
      "name": "getDirectoryMetadata",
      "outputs": [
        {
          "internalType": "string",
          "name": "primaryCondition",
          "type": "string"
        },
        {
          "internalType": "uint8",
          "name": "status",
          "type": "uint8"
        },
        {
          "internalType": "bool",
          "name": "isSet",
          "type": "bool"
        }
      ],
      "stateMutability": "view",
      "type": "function",
      "constant": true
    },
    {
      "inputs": [
        {
          "internalType": "address",
          "name": "_patient",
          "type": "address"
        }
      ],
      "name": "requestConsent",
      "outputs": [],
      "stateMutability": "nonpayable",
      "type": "function"
    },
    {
      "inputs": [
        {
          "internalType": "address",
          "name": "_doctor",
          "type": "address"
        }
      ],
      "name": "grantConsent",
      "outputs": [],
      "stateMutability": "nonpayable",
      "type": "function"
    },
    {
      "inputs": [
        {
          "internalType": "address",
          "name": "_doctor",
          "type": "address"
        }
      ],
      "name": "refuseConsent",
      "outputs": [],
      "stateMutability": "nonpayable",
      "type": "function"
    },
    {
      "inputs": [
        {
          "internalType": "address",
          "name": "_doctor",
          "type": "address"
        }
      ],
      "name": "revokeConsent",
      "outputs": [],
      "stateMutability": "nonpayable",
      "type": "function"
    },
    {
      "inputs": [
        {
          "internalType": "address",
          "name": "_patient",
          "type": "address"
        },
        {
          "internalType": "bytes",
          "name": "_encryptedData",
          "type": "bytes"
        }
      ],
      "name": "addVisit",
      "outputs": [],
      "stateMutability": "nonpayable",
      "type": "function"
    }
  ],
  "bytecode": "0x60a06040523480156200001157600080fd5b503373ffffffffffffffffffffffffffffffffffffffff1660808173ffffffffffffffffffffffffffffffffffffffff16815250506040518060c001604052806001151581526020016040518060400160405280600581526020017f41646d696e00000000000000000000000000000000000000000000000000000081525081526020016040518060400160405280600b81526020017f436c696e69632053616c6500000000000000000000000000000000000000000081525081526020016040518060400160405280600d81526020017f4d6f726f63636f2f52616261740000000000000000000000000000000000000081525081526020016040518060400160405280600581526020017f30383a303000000000000000000000000000000000000000000000000000000081525081526020016040518060400160405280600581526020017f31383a30300000000000000000000000000000000000000000000000000000008152508152506001600060805173ffffffffffffffffffffffffffffffffffffffff1673ffffffffffffffffffffffffffffffffffffffff16815260200190815260200160002060008201518160000160006101000a81548160ff0219169083151502179055506020820151816001019081620001f791906200052b565b5060408201518160020190816200020f91906200052b565b5060608201518160030190816200022791906200052b565b5060808201518160040190816200023f91906200052b565b5060a08201518160050190816200025791906200052b565b5090505060805173ffffffffffffffffffffffffffffffffffffffff167f9388661dcd7dc6cff9b4e22ab9459ac0a2682f86cb52fc7a669a6e7f062bce4c604051620002a390620006c3565b60405180910390a2620006fa565b600081519050919050565b7f4e487b7100000000000000000000000000000000000000000000000000000000600052604160045260246000fd5b7f4e487b7100000000000000000000000000000000000000000000000000000000600052602260045260246000fd5b600060028204905060018216806200033357607f821691505b602082108103620003495762000348620002eb565b5b50919050565b60008190508160005260206000209050919050565b60006020601f8301049050919050565b600082821b905092915050565b600060088302620003b37fffffffffffffffffffffffffffffffffffffffffffffffffffffffffffffffff8262000374565b620003bf868362000374565b95508019841693508086168417925050509392505050565b6000819050919050565b6000819050919050565b60006200040c620004066200040084620003d7565b620003e1565b620003d7565b9050919050565b6000819050919050565b6200042883620003eb565b62000440620004378262000413565b84845462000381565b825550505050565b600090565b6200045762000448565b620004648184846200041d565b505050565b5b818110156200048c57620004806000826200044d565b6001810190506200046a565b5050565b601f821115620004db57620004a5816200034f565b620004b08462000364565b81016020851015620004c0578190505b620004d8620004cf8562000364565b83018262000469565b50505b505050565b600082821c905092915050565b60006200050060001984600802620004e0565b1980831691505092915050565b60006200051b8383620004ed565b9150826002028217905092915050565b6200053682620002b1565b67ffffffffffffffff811115620005525762000551620002bc565b5b6200055e82546200031a565b6200056b82828562000490565b600060209050601f831160018114620005a357600084156200058e578287015190505b6200059a85826200050d565b8655506200060a565b601f198416620005b3866200034f565b60005b82811015620005dd57848901518255600182019150602085019450602081019050620005b6565b86831015620005fd5784890151620005f9601f891682620004ed565b8355505b6001600288020188555050505b505050505050565b600082825260208201905092915050565b7f41646d696e000000000000000000000000000000000000000000000000000000600082015250565b60006200065b60058362000612565b9150620006688262000623565b602082019050919050565b7f436c696e69632053616c65000000000000000000000000000000000000000000600082015250565b6000620006ab600b8362000612565b9150620006b88262000673565b602082019050919050565b60006040820190508181036000830152620006de816200064c565b90508181036020830152620006f3816200069c565b9050919050565b608051613c406200072b600039600081816109900152818161176301528181611a4e0152611b6b0152613c406000f3fe608060405234801561001057600080fd5b506004361061010b5760003560e01c806387fee61c116100a2578063a46aef4011610071578063a46aef40146102cf578063a79861f1146102eb578063a9583c2214610307578063d1a486271461033c578063f68b68f6146103585761010b565b806387fee61c1461025d5780638da5cb5b146102795780639897cf961461029757806398fc90e9146102b35761010b565b8063461a2082116100de578063461a2082146101ae5780634ba0a020146101e157806353c1a042146101fd5780635cbcd8eb1461022d5761010b565b8063037f8248146101105780630869cfbc1461012c5780631128c9ea146101605780631e6a315c1461017c575b600080fd5b61012a60048036038101906101259190612697565b610388565b005b61014660048036038101906101419190612697565b61072b565b60405161015795949392919061276f565b60405180910390f35b61017a60048036038101906101759190612913565b61098e565b005b61019660048036038101906101919190612a2c565b610c93565b6040516101a593929190612a88565b60405180910390f35b6101c860048036038101906101c39190612697565b610e0a565b6040516101d89493929190612ac6565b60405180910390f35b6101fb60048036038101906101f69190612b27565b611172565b005b61021760048036038101906102129190612a2c565b6113c8565b6040516102249190612bfe565b60405180910390f35b61024760048036038101906102429190612697565b6113f7565b6040516102549190612c19565b60405180910390f35b61027760048036038101906102729190612cdc565b61155a565b005b610281611761565b60405161028e9190612d47565b60405180910390f35b6102b160048036038101906102ac9190612d8e565b611785565b005b6102cd60048036038101906102c89190612697565b611a4c565b005b6102e960048036038101906102e49190612697565b611c98565b005b61030560048036038101906103009190612697565b611ee1565b005b610321600480360381019061031c9190612697565b612185565b60405161033396959493929190612dfd565b60405180910390f35b61035660048036038101906103519190612697565b612476565b005b610372600480360381019061036d9190612a2c565b6125f6565b60405161037f9190612bfe565b60405180910390f35b600160003373ffffffffffffffffffffffffffffffffffffffff1673ffffffffffffffffffffffffffffffffffffffff16815260200190815260200160002060000160009054906101000a900460ff16610417576040517f08c379a000000000000000000000000000000000000000000000000000000000815260040161040e90612ef3565b60405180910390fd5b6000808273ffffffffffffffffffffffffffffffffffffffff1673ffffffffffffffffffffffffffffffffffffffff16815260200190815260200160002060000160009054906101000a900460ff166104a5576040517f08c379a000000000000000000000000000000000000000000000000000000000815260040161049c90612f85565b60405180910390fd5b600360008273ffffffffffffffffffffffffffffffffffffffff1673ffffffffffffffffffffffffffffffffffffffff16815260200190815260200160002060003373ffffffffffffffffffffffffffffffffffffffff1673ffffffffffffffffffffffffffffffffffffffff16815260200190815260200160002060009054906101000a900460ff161561056f576040517f08c379a000000000000000000000000000000000000000000000000000000000815260040161056690612ff1565b60405180910390fd5b600460008273ffffffffffffffffffffffffffffffffffffffff1673ffffffffffffffffffffffffffffffffffffffff16815260200190815260200160002060003373ffffffffffffffffffffffffffffffffffffffff1673ffffffffffffffffffffffffffffffffffffffff16815260200190815260200160002060009054906101000a900460ff1615610639576040517f08c379a000000000000000000000000000000000000000000000000000000000815260040161063090613083565b60405180910390fd5b6001600460008373ffffffffffffffffffffffffffffffffffffffff1673ffffffffffffffffffffffffffffffffffffffff16815260200190815260200160002060003373ffffffffffffffffffffffffffffffffffffffff1673ffffffffffffffffffffffffffffffffffffffff16815260200190815260200160002060006101000a81548160ff0219169083151502179055503373ffffffffffffffffffffffffffffffffffffffff168173ffffffffffffffffffffffffffffffffffffffff167f2836b27da25b9b18fc3a89b2e06ebbe3b7268f8291437c0bb6923b2b19212bcb60405160405180910390a350565b60006020528060005260406000206000915090508060000160009054906101000a900460ff1690806001018054610761906130d2565b80601f016020809104026020016040519081016040528092919081815260200182805461078d906130d2565b80156107da5780601f106107af576101008083540402835291602001916107da565b820191906000526020600020905b8154815290600101906020018083116107bd57829003601f168201915b5050505050908060020180546107ef906130d2565b80601f016020809104026020016040519081016040528092919081815260200182805461081b906130d2565b80156108685780601f1061083d57610100808354040283529160200191610868565b820191906000526020600020905b81548152906001019060200180831161084b57829003601f168201915b50505050509080600301805461087d906130d2565b80601f01602080910402602001604051908101604052809291908181526020018280546108a9906130d2565b80156108f65780601f106108cb576101008083540402835291602001916108f6565b820191906000526020600020905b8154815290600101906020018083116108d957829003601f168201915b50505050509080600401805461090b906130d2565b80601f0160208091040260200160405190810160405280929190818152602001828054610937906130d2565b80156109845780601f1061095957610100808354040283529160200191610984565b820191906000526020600020905b81548152906001019060200180831161096757829003601f168201915b5050505050905085565b7f000000000000000000000000000000000000000000000000000000000000000073ffffffffffffffffffffffffffffffffffffffff163373ffffffffffffffffffffffffffffffffffffffff1614610a1c576040517f08c379a0000000000000000000000000000000000000000000000000000000008152600401610a1390613175565b60405180910390fd5b600160008773ffffffffffffffffffffffffffffffffffffffff1673ffffffffffffffffffffffffffffffffffffffff16815260200190815260200160002060000160009054906101000a900460ff1615610aac576040517f08c379a0000000000000000000000000000000000000000000000000000000008152600401610aa3906131e1565b60405180910390fd5b6000808773ffffffffffffffffffffffffffffffffffffffff1673ffffffffffffffffffffffffffffffffffffffff16815260200190815260200160002060000160009054906101000a900460ff1615610b3b576040517f08c379a0000000000000000000000000000000000000000000000000000000008152600401610b3290613273565b60405180910390fd5b6040518060c0016040528060011515815260200186815260200185815260200184815260200183815260200182815250600160008873ffffffffffffffffffffffffffffffffffffffff1673ffffffffffffffffffffffffffffffffffffffff16815260200190815260200160002060008201518160000160006101000a81548160ff0219169083151502179055506020820151816001019081610bdf9190613449565b506040820151816002019081610bf59190613449565b506060820151816003019081610c0b9190613449565b506080820151816004019081610c219190613449565b5060a0820151816005019081610c379190613449565b509050508573ffffffffffffffffffffffffffffffffffffffff167f9388661dcd7dc6cff9b4e22ab9459ac0a2682f86cb52fc7a669a6e7f062bce4c8686604051610c8392919061351b565b60405180910390a2505050505050565b60606000806000600260008773ffffffffffffffffffffffffffffffffffffffff1673ffffffffffffffffffffffffffffffffffffffff16815260200190815260200160002060008673ffffffffffffffffffffffffffffffffffffffff1673ffffffffffffffffffffffffffffffffffffffff168152602001908152602001600020604051806060016040529081600082018054610d31906130d2565b80601f0160208091040260200160405190810160405280929190818152602001828054610d5d906130d2565b8015610daa5780601f10610d7f57610100808354040283529160200191610daa565b820191906000526020600020905b815481529060010190602001808311610d8d57829003601f168201915b505050505081526020016001820160009054906101000a900460ff1660ff1660ff1681526020016001820160019054906101000a900460ff1615151515815250509050806000015181602001518260400151935093509350509250925092565b6060806060806000808673ffffffffffffffffffffffffffffffffffffffff1673ffffffffffffffffffffffffffffffffffffffff16815260200190815260200160002060000160009054906101000a900460ff16610e9e576040517f08c379a0000000000000000000000000000000000000000000000000000000008152600401610e959061359e565b60405180910390fd5b60008060008773ffffffffffffffffffffffffffffffffffffffff1673ffffffffffffffffffffffffffffffffffffffff1681526020019081526020016000206040518060a00160405290816000820160009054906101000a900460ff16151515158152602001600182018054610f14906130d2565b80601f0160208091040260200160405190810160405280929190818152602001828054610f40906130d2565b8015610f8d5780601f10610f6257610100808354040283529160200191610f8d565b820191906000526020600020905b815481529060010190602001808311610f7057829003601f168201915b50505050508152602001600282018054610fa6906130d2565b80601f0160208091040260200160405190810160405280929190818152602001828054610fd2906130d2565b801561101f5780601f10610ff45761010080835404028352916020019161101f565b820191906000526020600020905b81548152906001019060200180831161100257829003601f168201915b50505050508152602001600382018054611038906130d2565b80601f0160208091040260200160405190810160405280929190818152602001828054611064906130d2565b80156110b15780601f10611086576101008083540402835291602001916110b1565b820191906000526020600020905b81548152906001019060200180831161109457829003601f168201915b505050505081526020016004820180546110ca906130d2565b80601f01602080910402602001604051908101604052809291908181526020018280546110f6906130d2565b80156111435780601f1061111857610100808354040283529160200191611143565b820191906000526020600020905b81548152906001019060200180831161112657829003601f168201915b505050505081525050905080602001518160400151826060015183608001519450945094509450509193509193565b6000803373ffffffffffffffffffffffffffffffffffffffff1673ffffffffffffffffffffffffffffffffffffffff16815260200190815260200160002060000160009054906101000a900460ff1615611201576040517f08c379a00000000000000000000000000000000000000000000000000000000081526004016111f89061360a565b60405180910390fd5b600160003373ffffffffffffffffffffffffffffffffffffffff1673ffffffffffffffffffffffffffffffffffffffff16815260200190815260200160002060000160009054906101000a900460ff1615611291576040517f08c379a00000000000000000000000000000000000000000000000000000000081526004016112889061369c565b60405180910390fd5b6040518060a00160405280600115158152602001858152602001848152602001838152602001828152506000803373ffffffffffffffffffffffffffffffffffffffff1673ffffffffffffffffffffffffffffffffffffffff16815260200190815260200160002060008201518160000160006101000a81548160ff021916908315150217905550602082015181600101908161132e9190613449565b5060408201518160020190816113449190613449565b50606082015181600301908161135a9190613449565b5060808201518160040190816113709190613449565b509050503373ffffffffffffffffffffffffffffffffffffffff167fc85b128388b9c331a2a5485dce4cd0f3db9f7c279d327ce95d6d39d6c94644c7856040516113ba9190612c19565b60405180910390a250505050565b60046020528160005260406000206020528060005260406000206000915091509054906101000a900460ff1681565b6060600160008373ffffffffffffffffffffffffffffffffffffffff1673ffffffffffffffffffffffffffffffffffffffff16815260200190815260200160002060000160009054906101000a900460ff16611488576040517f08c379a000000000000000000000000000000000000000000000000000000000815260040161147f90613708565b60405180910390fd5b600160008373ffffffffffffffffffffffffffffffffffffffff1673ffffffffffffffffffffffffffffffffffffffff16815260200190815260200160002060010180546114d5906130d2565b80601f0160208091040260200160405190810160405280929190818152602001828054611501906130d2565b801561154e5780601f106115235761010080835404028352916020019161154e565b820191906000526020600020905b81548152906001019060200180831161153157829003601f168201915b50505050509050919050565b600160003373ffffffffffffffffffffffffffffffffffffffff1673ffffffffffffffffffffffffffffffffffffffff16815260200190815260200160002060000160009054906101000a900460ff166115e9576040517f08c379a00000000000000000000000000000000000000000000000000000000081526004016115e090612ef3565b60405180910390fd5b600360008373ffffffffffffffffffffffffffffffffffffffff1673ffffffffffffffffffffffffffffffffffffffff16815260200190815260200160002060003373ffffffffffffffffffffffffffffffffffffffff1673ffffffffffffffffffffffffffffffffffffffff16815260200190815260200160002060009054906101000a900460ff166116b2576040517f08c379a00000000000000000000000000000000000000000000000000000000081526004016116a99061379a565b60405180910390fd5b60008151116116f6576040517f08c379a00000000000000000000000000000000000000000000000000000000081526004016116ed90613806565b60405180910390fd5b3373ffffffffffffffffffffffffffffffffffffffff168273ffffffffffffffffffffffffffffffffffffffff167f8fed6a2b6c4b373ec8518dd42cb708c88beb55d8806492942025f2d86118bcb7428460405161175592919061388a565b60405180910390a35050565b7f000000000000000000000000000000000000000000000000000000000000000081565b600160003373ffffffffffffffffffffffffffffffffffffffff1673ffffffffffffffffffffffffffffffffffffffff16815260200190815260200160002060000160009054906101000a900460ff16611814576040517f08c379a000000000000000000000000000000000000000000000000000000000815260040161180b90612ef3565b60405180910390fd5b6000808473ffffffffffffffffffffffffffffffffffffffff1673ffffffffffffffffffffffffffffffffffffffff16815260200190815260200160002060000160009054906101000a900460ff166118a2576040517f08c379a000000000000000000000000000000000000000000000000000000000815260040161189990612f85565b60405180910390fd5b60028160ff1611156118e9576040517f08c379a00000000000000000000000000000000000000000000000000000000081526004016118e090613906565b60405180910390fd5b60405180606001604052808381526020018260ff16815260200160011515815250600260003373ffffffffffffffffffffffffffffffffffffffff1673ffffffffffffffffffffffffffffffffffffffff16815260200190815260200160002060008573ffffffffffffffffffffffffffffffffffffffff1673ffffffffffffffffffffffffffffffffffffffff168152602001908152602001600020600082015181600001908161199b9190613449565b5060208201518160010160006101000a81548160ff021916908360ff16021790555060408201518160010160016101000a81548160ff0219169083151502179055509050508273ffffffffffffffffffffffffffffffffffffffff163373ffffffffffffffffffffffffffffffffffffffff167f2c82a2c170dc5e4dab70455f69309153b0feae1684efcfab731978937b34d7cf8484604051611a3f929190613926565b60405180910390a3505050565b7f000000000000000000000000000000000000000000000000000000000000000073ffffffffffffffffffffffffffffffffffffffff163373ffffffffffffffffffffffffffffffffffffffff1614611ada576040517f08c379a0000000000000000000000000000000000000000000000000000000008152600401611ad190613175565b60405180910390fd5b600160008273ffffffffffffffffffffffffffffffffffffffff1673ffffffffffffffffffffffffffffffffffffffff16815260200190815260200160002060000160009054906101000a900460ff16611b69576040517f08c379a0000000000000000000000000000000000000000000000000000000008152600401611b60906139a2565b60405180910390fd5b7f000000000000000000000000000000000000000000000000000000000000000073ffffffffffffffffffffffffffffffffffffffff168173ffffffffffffffffffffffffffffffffffffffff1603611bf7576040517f08c379a0000000000000000000000000000000000000000000000000000000008152600401611bee90613a34565b60405180910390fd5b6000600160008373ffffffffffffffffffffffffffffffffffffffff1673ffffffffffffffffffffffffffffffffffffffff16815260200190815260200160002060000160006101000a81548160ff0219169083151502179055508073ffffffffffffffffffffffffffffffffffffffff167f493d7cf6a7c880406a55654d6727464ea088bd01d40498e1987a327e68961ab860405160405180910390a250565b6000803373ffffffffffffffffffffffffffffffffffffffff1673ffffffffffffffffffffffffffffffffffffffff16815260200190815260200160002060000160009054906101000a900460ff16611d26576040517f08c379a0000000000000000000000000000000000000000000000000000000008152600401611d1d90613ac6565b60405180910390fd5b600460003373ffffffffffffffffffffffffffffffffffffffff1673ffffffffffffffffffffffffffffffffffffffff16815260200190815260200160002060008273ffffffffffffffffffffffffffffffffffffffff1673ffffffffffffffffffffffffffffffffffffffff16815260200190815260200160002060009054906101000a900460ff16611def576040517f08c379a0000000000000000000000000000000000000000000000000000000008152600401611de690613b58565b60405180910390fd5b6000600460003373ffffffffffffffffffffffffffffffffffffffff1673ffffffffffffffffffffffffffffffffffffffff16815260200190815260200160002060008373ffffffffffffffffffffffffffffffffffffffff1673ffffffffffffffffffffffffffffffffffffffff16815260200190815260200160002060006101000a81548160ff0219169083151502179055508073ffffffffffffffffffffffffffffffffffffffff163373ffffffffffffffffffffffffffffffffffffffff167fee666520c6fbc392d1a1e9c8845f759abf986e12b9927e3a452c94ce2c05d1df60405160405180910390a350565b6000803373ffffffffffffffffffffffffffffffffffffffff1673ffffffffffffffffffffffffffffffffffffffff16815260200190815260200160002060000160009054906101000a900460ff16611f6f576040517f08c379a0000000000000000000000000000000000000000000000000000000008152600401611f6690613ac6565b60405180910390fd5b600160008273ffffffffffffffffffffffffffffffffffffffff1673ffffffffffffffffffffffffffffffffffffffff16815260200190815260200160002060000160009054906101000a900460ff16611ffe576040517f08c379a0000000000000000000000000000000000000000000000000000000008152600401611ff590613bea565b60405180910390fd5b6000600460003373ffffffffffffffffffffffffffffffffffffffff1673ffffffffffffffffffffffffffffffffffffffff16815260200190815260200160002060008373ffffffffffffffffffffffffffffffffffffffff1673ffffffffffffffffffffffffffffffffffffffff16815260200190815260200160002060006101000a81548160ff0219169083151502179055506001600360003373ffffffffffffffffffffffffffffffffffffffff1673ffffffffffffffffffffffffffffffffffffffff16815260200190815260200160002060008373ffffffffffffffffffffffffffffffffffffffff1673ffffffffffffffffffffffffffffffffffffffff16815260200190815260200160002060006101000a81548160ff0219169083151502179055508073ffffffffffffffffffffffffffffffffffffffff163373ffffffffffffffffffffffffffffffffffffffff167f8105c574d2239a3a4f73f5efc5bc253cffb275647df535adfa2c240739cc922060405160405180910390a350565b60016020528060005260406000206000915090508060000160009054906101000a900460ff16908060010180546121bb906130d2565b80601f01602080910402602001604051908101604052809291908181526020018280546121e7906130d2565b80156122345780601f1061220957610100808354040283529160200191612234565b820191906000526020600020905b81548152906001019060200180831161221757829003601f168201915b505050505090806002018054612249906130d2565b80601f0160208091040260200160405190810160405280929190818152602001828054612275906130d2565b80156122c25780601f10612297576101008083540402835291602001916122c2565b820191906000526020600020905b8154815290600101906020018083116122a557829003601f168201915b5050505050908060030180546122d7906130d2565b80601f0160208091040260200160405190810160405280929190818152602001828054612303906130d2565b80156123505780601f1061232557610100808354040283529160200191612350565b820191906000526020600020905b81548152906001019060200180831161233357829003601f168201915b505050505090806004018054612365906130d2565b80601f0160208091040260200160405190810160405280929190818152602001828054612391906130d2565b80156123de5780601f106123b3576101008083540402835291602001916123de565b820191906000526020600020905b8154815290600101906020018083116123c157829003601f168201915b5050505050908060050180546123f3906130d2565b80601f016020809104026020016040519081016040528092919081815260200182805461241f906130d2565b801561246c5780601f106124415761010080835404028352916020019161246c565b820191906000526020600020905b81548152906001019060200180831161244f57829003601f168201915b5050505050905086565b6000803373ffffffffffffffffffffffffffffffffffffffff1673ffffffffffffffffffffffffffffffffffffffff16815260200190815260200160002060000160009054906101000a900460ff16612504576040517f08c379a00000000000000000000000000000000000000000000000000000000081526004016124fb90613ac6565b60405180910390fd5b6000600360003373ffffffffffffffffffffffffffffffffffffffff1673ffffffffffffffffffffffffffffffffffffffff16815260200190815260200160002060008373ffffffffffffffffffffffffffffffffffffffff1673ffffffffffffffffffffffffffffffffffffffff16815260200190815260200160002060006101000a81548160ff0219169083151502179055508073ffffffffffffffffffffffffffffffffffffffff163373ffffffffffffffffffffffffffffffffffffffff167febecee2d3f2ea272f73dd9d9ccc0bacd11280d61240332cbcd8a68173ae5cc2c60405160405180910390a350565b60036020528160005260406000206020528060005260406000206000915091509054906101000a900460ff1681565b6000604051905090565b600080fd5b600080fd5b600073ffffffffffffffffffffffffffffffffffffffff82169050919050565b600061266482612639565b9050919050565b61267481612659565b811461267f57600080fd5b50565b6000813590506126918161266b565b92915050565b6000602082840312156126ad576126ac61262f565b5b60006126bb84828501612682565b91505092915050565b60008115159050919050565b6126d9816126c4565b82525050565b600081519050919050565b600082825260208201905092915050565b60005b838110156127195780820151818401526020810190506126fe565b60008484015250505050565b6000601f19601f8301169050919050565b6000612741826126df565b61274b81856126ea565b935061275b8185602086016126fb565b61276481612725565b840191505092915050565b600060a08201905061278460008301886126d0565b81810360208301526127968187612736565b905081810360408301526127aa8186612736565b905081810360608301526127be8185612736565b905081810360808301526127d28184612736565b90509695505050505050565b600080fd5b600080fd5b7f4e487b7100000000000000000000000000000000000000000000000000000000600052604160045260246000fd5b61282082612725565b810181811067ffffffffffffffff8211171561283f5761283e6127e8565b5b80604052505050565b6000612852612625565b905061285e8282612817565b919050565b600067ffffffffffffffff82111561287e5761287d6127e8565b5b61288782612725565b9050602081019050919050565b82818337600083830152505050565b60006128b66128b184612863565b612848565b9050828152602081018484840111156128d2576128d16127e3565b5b6128dd848285612894565b509392505050565b600082601f8301126128fa576128f96127de565b5b813561290a8482602086016128a3565b91505092915050565b60008060008060008060c087890312156129305761292f61262f565b5b600061293e89828a01612682565b965050602087013567ffffffffffffffff81111561295f5761295e612634565b5b61296b89828a016128e5565b955050604087013567ffffffffffffffff81111561298c5761298b612634565b5b61299889828a016128e5565b945050606087013567ffffffffffffffff8111156129b9576129b8612634565b5b6129c589828a016128e5565b935050608087013567ffffffffffffffff8111156129e6576129e5612634565b5b6129f289828a016128e5565b92505060a087013567ffffffffffffffff811115612a1357612a12612634565b5b612a1f89828a016128e5565b9150509295509295509295565b60008060408385031215612a4357612a4261262f565b5b6000612a5185828601612682565b9250506020612a6285828601612682565b9150509250929050565b600060ff82169050919050565b612a8281612a6c565b82525050565b60006060820190508181036000830152612aa28186612736565b9050612ab16020830185612a79565b612abe60408301846126d0565b949350505050565b60006080820190508181036000830152612ae08187612736565b90508181036020830152612af48186612736565b90508181036040830152612b088185612736565b90508181036060830152612b1c8184612736565b905095945050505050565b60008060008060808587031215612b4157612b4061262f565b5b600085013567ffffffffffffffff811115612b5f57612b5e612634565b5b612b6b878288016128e5565b945050602085013567ffffffffffffffff811115612b8c57612b8b612634565b5b612b98878288016128e5565b935050604085013567ffffffffffffffff811115612bb957612bb8612634565b5b612bc5878288016128e5565b925050606085013567ffffffffffffffff811115612be657612be5612634565b5b612bf2878288016128e5565b91505092959194509250565b6000602082019050612c1360008301846126d0565b92915050565b60006020820190508181036000830152612c338184612736565b905092915050565b600067ffffffffffffffff821115612c5657612c556127e8565b5b612c5f82612725565b9050602081019050919050565b6000612c7f612c7a84612c3b565b612848565b905082815260208101848484011115612c9b57612c9a6127e3565b5b612ca6848285612894565b509392505050565b600082601f830112612cc357612cc26127de565b5b8135612cd3848260208601612c6c565b91505092915050565b60008060408385031215612cf357612cf261262f565b5b6000612d0185828601612682565b925050602083013567ffffffffffffffff811115612d2257612d21612634565b5b612d2e85828601612cae565b9150509250929050565b612d4181612659565b82525050565b6000602082019050612d5c6000830184612d38565b92915050565b612d6b81612a6c565b8114612d7657600080fd5b50565b600081359050612d8881612d62565b92915050565b600080600060608486031215612da757612da661262f565b5b6000612db586828701612682565b935050602084013567ffffffffffffffff811115612dd657612dd5612634565b5b612de2868287016128e5565b9250506040612df386828701612d79565b9150509250925092565b600060c082019050612e1260008301896126d0565b8181036020830152612e248188612736565b90508181036040830152612e388187612736565b90508181036060830152612e4c8186612736565b90508181036080830152612e608185612736565b905081810360a0830152612e748184612736565b9050979650505050505050565b7f43616c6c6572206973206e6f7420616e20617574686f72697a656420646f637460008201527f6f72000000000000000000000000000000000000000000000000000000000000602082015250565b6000612edd6022836126ea565b9150612ee882612e81565b604082019050919050565b60006020820190508181036000830152612f0c81612ed0565b9050919050565b7f41646472657373206973206e6f7420612072656769737465726564207061746960008201527f656e742e00000000000000000000000000000000000000000000000000000000602082015250565b6000612f6f6024836126ea565b9150612f7a82612f13565b604082019050919050565b60006020820190508181036000830152612f9e81612f62565b9050919050565b7f436f6e73656e7420697320616c7265616479206772616e7465642e0000000000600082015250565b6000612fdb601b836126ea565b9150612fe682612fa5565b602082019050919050565b6000602082019050818103600083015261300a81612fce565b9050919050565b7f436f6e73656e74207265717565737420697320616c72656164792070656e646960008201527f6e672e0000000000000000000000000000000000000000000000000000000000602082015250565b600061306d6023836126ea565b915061307882613011565b604082019050919050565b6000602082019050818103600083015261309c81613060565b9050919050565b7f4e487b7100000000000000000000000000000000000000000000000000000000600052602260045260246000fd5b600060028204905060018216806130ea57607f821691505b6020821081036130fd576130fc6130a3565b5b50919050565b7f4f6e6c79206f776e65722063616e20706572666f726d2074686973206163746960008201527f6f6e000000000000000000000000000000000000000000000000000000000000602082015250565b600061315f6022836126ea565b915061316a82613103565b604082019050919050565b6000602082019050818103600083015261318e81613152565b9050919050565b7f446f63746f7220697320616c7265616479207265676973746572656400000000600082015250565b60006131cb601c836126ea565b91506131d682613195565b602082019050919050565b600060208201905081810360008301526131fa816131be565b9050919050565b7f4164647265737320697320616c7265616479207265676973746572656420617360008201527f20612070617469656e7400000000000000000000000000000000000000000000602082015250565b600061325d602a836126ea565b915061326882613201565b604082019050919050565b6000602082019050818103600083015261328c81613250565b9050919050565b60008190508160005260206000209050919050565b60006020601f8301049050919050565b600082821b905092915050565b6000600883026132f57fffffffffffffffffffffffffffffffffffffffffffffffffffffffffffffffff826132b8565b6132ff86836132b8565b95508019841693508086168417925050509392505050565b6000819050919050565b6000819050919050565b600061334661334161333c84613317565b613321565b613317565b9050919050565b6000819050919050565b6133608361332b565b61337461336c8261334d565b8484546132c5565b825550505050565b600090565b61338961337c565b613394818484613357565b505050565b5b818110156133b8576133ad600082613381565b60018101905061339a565b5050565b601f8211156133fd576133ce81613293565b6133d7846132a8565b810160208510156133e6578190505b6133fa6133f2856132a8565b830182613399565b50505b505050565b600082821c905092915050565b600061342060001984600802613402565b1980831691505092915050565b6000613439838361340f565b9150826002028217905092915050565b613452826126df565b67ffffffffffffffff81111561346b5761346a6127e8565b5b61347582546130d2565b6134808282856133bc565b600060209050601f8311600181146134b357600084156134a1578287015190505b6134ab858261342d565b865550613513565b601f1984166134c186613293565b60005b828110156134e9578489015182556001820191506020850194506020810190506134c4565b868310156135065784890151613502601f89168261340f565b8355505b6001600288020188555050505b505050505050565b600060408201905081810360008301526135358185612736565b905081810360208301526135498184612736565b90509392505050565b7f4e6f74206120726567697374657265642070617469656e742e00000000000000600082015250565b60006135886019836126ea565b915061359382613552565b602082019050919050565b600060208201905081810360008301526135b78161357b565b9050919050565b7f416c7265616479207265676973746572656420617320612070617469656e742e600082015250565b60006135f46020836126ea565b91506135ff826135be565b602082019050919050565b60006020820190508181036000830152613623816135e7565b9050919050565b7f446f63746f72732063616e6e6f7420726567697374657220617320706174696560008201527f6e74732e00000000000000000000000000000000000000000000000000000000602082015250565b60006136866024836126ea565b91506136918261362a565b604082019050919050565b600060208201905081810360008301526136b581613679565b9050919050565b7f4e6f7420616e20617574686f72697a656420646f63746f722e00000000000000600082015250565b60006136f26019836126ea565b91506136fd826136bc565b602082019050919050565b60006020820190508181036000830152613721816136e5565b9050919050565b7f50617469656e7420686173206e6f74206772616e74656420636f6e73656e742060008201527f746f207468697320646f63746f722e0000000000000000000000000000000000602082015250565b6000613784602f836126ea565b915061378f82613728565b604082019050919050565b600060208201905081810360008301526137b381613777565b9050919050565b7f456e6372797074656420646174612063616e6e6f7420626520656d7074792e00600082015250565b60006137f0601f836126ea565b91506137fb826137ba565b602082019050919050565b6000602082019050818103600083015261381f816137e3565b9050919050565b61382f81613317565b82525050565b600081519050919050565b600082825260208201905092915050565b600061385c82613835565b6138668185613840565b93506138768185602086016126fb565b61387f81612725565b840191505092915050565b600060408201905061389f6000830185613826565b81810360208301526138b18184613851565b90509392505050565b7f496e76616c6964207374617475732076616c75652e0000000000000000000000600082015250565b60006138f06015836126ea565b91506138fb826138ba565b602082019050919050565b6000602082019050818103600083015261391f816138e3565b9050919050565b600060408201905081810360008301526139408185612736565b905061394f6020830184612a79565b9392505050565b7f41646472657373206973206e6f74206120646f63746f722e0000000000000000600082015250565b600061398c6018836126ea565b915061399782613956565b602082019050919050565b600060208201905081810360008301526139bb8161397f565b9050919050565b7f43616e6e6f742072656d6f766520746865206f776e657220617320646f63746f60008201527f722e000000000000000000000000000000000000000000000000000000000000602082015250565b6000613a1e6022836126ea565b9150613a29826139c2565b604082019050919050565b60006020820190508181036000830152613a4d81613a11565b9050919050565b7f43616c6c6572206973206e6f742061207265676973746572656420706174696560008201527f6e74000000000000000000000000000000000000000000000000000000000000602082015250565b6000613ab06022836126ea565b9150613abb82613a54565b604082019050919050565b60006020820190508181036000830152613adf81613aa3565b9050919050565b7f4e6f2070656e64696e6720636f6e73656e7420726571756573742066726f6d2060008201527f7468697320646f63746f722e0000000000000000000000000000000000000000602082015250565b6000613b42602c836126ea565b9150613b4d82613ae6565b604082019050919050565b60006020820190508181036000830152613b7181613b35565b9050919050565b7f41646472657373206973206e6f7420616e20617574686f72697a656420646f6360008201527f746f722e00000000000000000000000000000000000000000000000000000000602082015250565b6000613bd46024836126ea565b9150613bdf82613b78565b604082019050919050565b60006020820190508181036000830152613c0381613bc7565b905091905056fea26469706673582212202ea867abb5e72e9b3823410fc8e754f5f29bff0c0ea4499e9db564be9711754e64736f6c63430008150033",
  "immutableReferences": {
    "3": [
      {
        "length": 32,
        "start": 2448
      },
      {
        "length": 32,
        "start": 5987
      },
      {
        "length": 32,
        "start": 6734
      },
      {
        "length": 32,
        "start": 7019
      }
    ]
  },
  "source": "// SPDX-License-Identifier: MIT\r\npragma solidity ^0.8.0;\r\n\r\ncontract HealthRecords {\r\n    address public immutable owner;\r\n\r\n    struct Doctor {\r\n        bool isRegistered;\r\n        string name;\r\n        string clinic;\r\n        string timezone;\r\n        string workingHoursStart;\r\n        string workingHoursEnd;\r\n    }\r\n\r\n    struct Patient {\r\n        bool isRegistered;\r\n        string name;\r\n        string bloodType;\r\n        string phone;\r\n        string email;\r\n    }\r\n\r\n    struct DirectoryMetadata {\r\n        string primaryCondition;\r\n        uint8 status;\r\n        bool isSet;\r\n    }\r\n\r\n    // State Variables\r\n    mapping(address => Patient) public patients;\r\n    mapping(address => Doctor) public doctors;\r\n    mapping(address => mapping(address => DirectoryMetadata)) private directoryMetadata;\r\n\r\n    // Consent mappings: mapping(patient => mapping(doctor => state))\r\n    mapping(address => mapping(address => bool)) public patientConsent;\r\n    mapping(address => mapping(address => bool)) public pendingConsent;\r\n\r\n    // Events\r\n    event ConsentRequested(address indexed patient, address indexed doctor);\r\n    event ConsentGranted(address indexed patient, address indexed doctor);\r\n    event ConsentRefused(address indexed patient, address indexed doctor);\r\n    event ConsentRevoked(address indexed patient, address indexed doctor);\r\n    event PatientRegistered(address indexed patient, string name);\r\n    event DoctorAdded(address indexed doctor, string name, string clinic);\r\n    event DoctorRemoved(address indexed doctor);\r\n    event DirectoryMetadataUpdated(address indexed doctor, address indexed patient, string primaryCondition, uint8 status);\r\n    event VisitAdded(address indexed patient, address indexed doctor, uint256 timestamp, bytes encryptedData);\r\n\r\n    // Modifiers\r\n    modifier onlyOwner() {\r\n        require(msg.sender == owner, \"Only owner can perform this action\");\r\n        _;\r\n    }\r\n\r\n    modifier onlyDoctor() {\r\n        require(doctors[msg.sender].isRegistered, \"Caller is not an authorized doctor\");\r\n        _;\r\n    }\r\n\r\n    modifier onlyPatient() {\r\n        require(patients[msg.sender].isRegistered, \"Caller is not a registered patient\");\r\n        _;\r\n    }\r\n\r\n    constructor() {\r\n        owner = msg.sender;\r\n        doctors[owner] = Doctor({\r\n            isRegistered: true,\r\n            name: \"Admin\",\r\n            clinic: \"Clinic Sale\",\r\n            timezone: \"Morocco/Rabat\",\r\n            workingHoursStart: \"08:00\",\r\n            workingHoursEnd: \"18:00\"\r\n        });\r\n        emit DoctorAdded(owner, \"Admin\", \"Clinic Sale\");\r\n    }\r\n\r\n    // --- Identity Registration ---\r\n\r\n    function registerPatient(string memory _name, string memory _bloodType, string memory _phone, string memory _email) public {\r\n        require(!patients[msg.sender].isRegistered, \"Already registered as a patient.\");\r\n        require(!doctors[msg.sender].isRegistered, \"Doctors cannot register as patients.\");\r\n        \r\n        patients[msg.sender] = Patient({\r\n            isRegistered: true,\r\n            name: _name,\r\n            bloodType: _bloodType,\r\n            phone: _phone,\r\n            email: _email\r\n        });\r\n        emit PatientRegistered(msg.sender, _name);\r\n    }\r\n\r\n    function addDoctor(\r\n        address _doctor, \r\n        string memory _name,\r\n        string memory _clinic,\r\n        string memory _timezone,\r\n        string memory _workingHoursStart,\r\n        string memory _workingHoursEnd\r\n    ) public onlyOwner {\r\n        require(!doctors[_doctor].isRegistered, \"Doctor is already registered\");\r\n        require(!patients[_doctor].isRegistered, \"Address is already registered as a patient\");\r\n\r\n        doctors[_doctor] = Doctor({\r\n            isRegistered: true,\r\n            name: _name,\r\n            clinic: _clinic,\r\n            timezone: _timezone,\r\n            workingHoursStart: _workingHoursStart,\r\n            workingHoursEnd: _workingHoursEnd\r\n        });\r\n\r\n        emit DoctorAdded(_doctor, _name, _clinic);\r\n    }\r\n\r\n    function removeDoctor(address _doctor) public onlyOwner {\r\n        require(doctors[_doctor].isRegistered, \"Address is not a doctor.\");\r\n        require(_doctor != owner, \"Cannot remove the owner as doctor.\");\r\n        doctors[_doctor].isRegistered = false;\r\n        // Optional: clear the name as well\r\n        emit DoctorRemoved(_doctor);\r\n    }\r\n\r\n    // --- Metadata Getters ---\r\n\r\n    function getDoctorProfile(address _doctor) public view returns (string memory name) {\r\n        require(doctors[_doctor].isRegistered, \"Not an authorized doctor.\");\r\n        return doctors[_doctor].name;\r\n    }\r\n\r\n    function getPatientProfile(address _patient) public view returns (string memory name, string memory bloodType, string memory phone, string memory email) {\r\n        require(patients[_patient].isRegistered, \"Not a registered patient.\");\r\n        Patient memory p = patients[_patient];\r\n        return (p.name, p.bloodType, p.phone, p.email);\r\n    }\r\n\r\n    function setDirectoryMetadata(address _patient, string memory _primaryCondition, uint8 _status) public onlyDoctor {\r\n        require(patients[_patient].isRegistered, \"Address is not a registered patient.\");\r\n        require(_status <= 2, \"Invalid status value.\");\r\n\r\n        directoryMetadata[msg.sender][_patient] = DirectoryMetadata({\r\n            primaryCondition: _primaryCondition,\r\n            status: _status,\r\n            isSet: true\r\n        });\r\n\r\n        emit DirectoryMetadataUpdated(msg.sender, _patient, _primaryCondition, _status);\r\n    }\r\n\r\n    function getDirectoryMetadata(address _doctor, address _patient) public view returns (string memory primaryCondition, uint8 status, bool isSet) {\r\n        DirectoryMetadata memory metadata = directoryMetadata[_doctor][_patient];\r\n        return (metadata.primaryCondition, metadata.status, metadata.isSet);\r\n    }\r\n\r\n    // --- Patient Consent ---\r\n\r\n    function requestConsent(address _patient) public onlyDoctor {\r\n        require(patients[_patient].isRegistered, \"Address is not a registered patient.\");\r\n        require(!patientConsent[_patient][msg.sender], \"Consent is already granted.\");\r\n        require(!pendingConsent[_patient][msg.sender], \"Consent request is already pending.\");\r\n        \r\n        pendingConsent[_patient][msg.sender] = true;\r\n        emit ConsentRequested(_patient, msg.sender);\r\n    }\r\n\r\n    function grantConsent(address _doctor) public onlyPatient {\r\n        require(doctors[_doctor].isRegistered, \"Address is not an authorized doctor.\");\r\n        \r\n        pendingConsent[msg.sender][_doctor] = false; // clear if existed\r\n        patientConsent[msg.sender][_doctor] = true;\r\n        emit ConsentGranted(msg.sender, _doctor);\r\n    }\r\n\r\n    function refuseConsent(address _doctor) public onlyPatient {\r\n        require(pendingConsent[msg.sender][_doctor], \"No pending consent request from this doctor.\");\r\n        \r\n        pendingConsent[msg.sender][_doctor] = false;\r\n        emit ConsentRefused(msg.sender, _doctor);\r\n    }\r\n\r\n    function revokeConsent(address _doctor) public onlyPatient {\r\n        patientConsent[msg.sender][_doctor] = false;\r\n        emit ConsentRevoked(msg.sender, _doctor);\r\n    }\r\n\r\n    // --- Medical Records ---\r\n\r\n    function addVisit(address _patient, bytes memory _encryptedData) public onlyDoctor {\r\n        require(patientConsent[_patient][msg.sender], \"Patient has not granted consent to this doctor.\");\r\n        require(_encryptedData.length > 0, \"Encrypted data cannot be empty.\");\r\n\r\n        emit VisitAdded(_patient, msg.sender, block.timestamp, _encryptedData);\r\n    }\r\n\r\n}",
  "sourcePath": "C:\\Users\\abdoi\\OneDrive\\Documents\\Studies\\master ai\\Securite blockchain\\Project\\Blockchain\\contracts\\HealthRecords.sol",
  "compiler": {
    "name": "solc",
    "version": "0.8.21+commit.d9974bed.Emscripten.clang"
  },
  "schemaVersion": "3.4.16",
  "updatedAt": "2026-03-22T13:02:24.133Z",
  "networkType": "ethereum",
  "devdoc": {
    "kind": "dev",
    "methods": {},
    "version": 1
  },
  "userdoc": {
    "kind": "user",
    "methods": {},
    "version": 1
  }
}