{
  "contractName": "HealthRecords",
  "abi": [
    {
      "inputs": [],
      "stateMutability": "nonpayable",
      "type": "constructor"
    },
    {
      "anonymous": false,
      "inputs": [
        {
          "indexed": true,
          "internalType": "address",
          "name": "patient",
          "type": "address"
        },
        {
          "indexed": true,
          "internalType": "address",
          "name": "doctor",
          "type": "address"
        }
      ],
      "name": "ConsentGranted",
      "type": "event"
    },
    {
      "anonymous": false,
      "inputs": [
        {
          "indexed": true,
          "internalType": "address",
          "name": "patient",
          "type": "address"
        },
        {
          "indexed": true,
          "internalType": "address",
          "name": "doctor",
          "type": "address"
        }
      ],
      "name": "ConsentRefused",
      "type": "event"
    },
    {
      "anonymous": false,
      "inputs": [
        {
          "indexed": true,
          "internalType": "address",
          "name": "patient",
          "type": "address"
        },
        {
          "indexed": true,
          "internalType": "address",
          "name": "doctor",
          "type": "address"
        }
      ],
      "name": "ConsentRequested",
      "type": "event"
    },
    {
      "anonymous": false,
      "inputs": [
        {
          "indexed": true,
          "internalType": "address",
          "name": "patient",
          "type": "address"
        },
        {
          "indexed": true,
          "internalType": "address",
          "name": "doctor",
          "type": "address"
        }
      ],
      "name": "ConsentRevoked",
      "type": "event"
    },
    {
      "anonymous": false,
      "inputs": [
        {
          "indexed": true,
          "internalType": "address",
          "name": "doctor",
          "type": "address"
        },
        {
          "indexed": false,
          "internalType": "string",
          "name": "name",
          "type": "string"
        },
        {
          "indexed": false,
          "internalType": "string",
          "name": "clinic",
          "type": "string"
        }
      ],
      "name": "DoctorAdded",
      "type": "event"
    },
    {
      "anonymous": false,
      "inputs": [
        {
          "indexed": true,
          "internalType": "address",
          "name": "doctor",
          "type": "address"
        }
      ],
      "name": "DoctorRemoved",
      "type": "event"
    },
    {
      "anonymous": false,
      "inputs": [
        {
          "indexed": true,
          "internalType": "address",
          "name": "patient",
          "type": "address"
        },
        {
          "indexed": false,
          "internalType": "string",
          "name": "name",
          "type": "string"
        }
      ],
      "name": "PatientRegistered",
      "type": "event"
    },
    {
      "anonymous": false,
      "inputs": [
        {
          "indexed": true,
          "internalType": "address",
          "name": "patient",
          "type": "address"
        },
        {
          "indexed": true,
          "internalType": "address",
          "name": "doctor",
          "type": "address"
        },
        {
          "indexed": false,
          "internalType": "uint256",
          "name": "timestamp",
          "type": "uint256"
        },
        {
          "indexed": false,
          "internalType": "bytes",
          "name": "encryptedData",
          "type": "bytes"
        }
      ],
      "name": "VisitAdded",
      "type": "event"
    },
    {
      "inputs": [
        {
          "internalType": "address",
          "name": "",
          "type": "address"
        }
      ],
      "name": "doctors",
      "outputs": [
        {
          "internalType": "bool",
          "name": "isRegistered",
          "type": "bool"
        },
        {
          "internalType": "string",
          "name": "name",
          "type": "string"
        },
        {
          "internalType": "string",
          "name": "clinic",
          "type": "string"
        },
        {
          "internalType": "string",
          "name": "timezone",
          "type": "string"
        },
        {
          "internalType": "string",
          "name": "workingHoursStart",
          "type": "string"
        },
        {
          "internalType": "string",
          "name": "workingHoursEnd",
          "type": "string"
        }
      ],
      "stateMutability": "view",
      "type": "function",
      "constant": true
    },
    {
      "inputs": [],
      "name": "owner",
      "outputs": [
        {
          "internalType": "address",
          "name": "",
          "type": "address"
        }
      ],
      "stateMutability": "view",
      "type": "function",
      "constant": true
    },
    {
      "inputs": [
        {
          "internalType": "address",
          "name": "",
          "type": "address"
        },
        {
          "internalType": "address",
          "name": "",
          "type": "address"
        }
      ],
      "name": "patientConsent",
      "outputs": [
        {
          "internalType": "bool",
          "name": "",
          "type": "bool"
        }
      ],
      "stateMutability": "view",
      "type": "function",
      "constant": true
    },
    {
      "inputs": [
        {
          "internalType": "address",
          "name": "",
          "type": "address"
        }
      ],
      "name": "patients",
      "outputs": [
        {
          "internalType": "bool",
          "name": "isRegistered",
          "type": "bool"
        },
        {
          "internalType": "string",
          "name": "name",
          "type": "string"
        },
        {
          "internalType": "string",
          "name": "bloodType",
          "type": "string"
        },
        {
          "internalType": "string",
          "name": "phone",
          "type": "string"
        },
        {
          "internalType": "string",
          "name": "email",
          "type": "string"
        }
      ],
      "stateMutability": "view",
      "type": "function",
      "constant": true
    },
    {
      "inputs": [
        {
          "internalType": "address",
          "name": "",
          "type": "address"
        },
        {
          "internalType": "address",
          "name": "",
          "type": "address"
        }
      ],
      "name": "pendingConsent",
      "outputs": [
        {
          "internalType": "bool",
          "name": "",
          "type": "bool"
        }
      ],
      "stateMutability": "view",
      "type": "function",
      "constant": true
    },
    {
      "inputs": [
        {
          "internalType": "string",
          "name": "_name",
          "type": "string"
        },
        {
          "internalType": "string",
          "name": "_bloodType",
          "type": "string"
        },
        {
          "internalType": "string",
          "name": "_phone",
          "type": "string"
        },
        {
          "internalType": "string",
          "name": "_email",
          "type": "string"
        }
      ],
      "name": "registerPatient",
      "outputs": [],
      "stateMutability": "nonpayable",
      "type": "function"
    },
    {
      "inputs": [
        {
          "internalType": "address",
          "name": "_doctor",
          "type": "address"
        },
        {
          "internalType": "string",
          "name": "_name",
          "type": "string"
        },
        {
          "internalType": "string",
          "name": "_clinic",
          "type": "string"
        },
        {
          "internalType": "string",
          "name": "_timezone",
          "type": "string"
        },
        {
          "internalType": "string",
          "name": "_workingHoursStart",
          "type": "string"
        },
        {
          "internalType": "string",
          "name": "_workingHoursEnd",
          "type": "string"
        }
      ],
      "name": "addDoctor",
      "outputs": [],
      "stateMutability": "nonpayable",
      "type": "function"
    },
    {
      "inputs": [
        {
          "internalType": "address",
          "name": "_doctor",
          "type": "address"
        }
      ],
      "name": "removeDoctor",
      "outputs": [],
      "stateMutability": "nonpayable",
      "type": "function"
    },
    {
      "inputs": [
        {
          "internalType": "address",
          "name": "_doctor",
          "type": "address"
        }
      ],
      "name": "getDoctorProfile",
      "outputs": [
        {
          "internalType": "string",
          "name": "name",
          "type": "string"
        }
      ],
      "stateMutability": "view",
      "type": "function",
      "constant": true
    },
    {
      "inputs": [
        {
          "internalType": "address",
          "name": "_patient",
          "type": "address"
        }
      ],
      "name": "getPatientProfile",
      "outputs": [
        {
          "internalType": "string",
          "name": "name",
          "type": "string"
        },
        {
          "internalType": "string",
          "name": "bloodType",
          "type": "string"
        },
        {
          "internalType": "string",
          "name": "phone",
          "type": "string"
        },
        {
          "internalType": "string",
          "name": "email",
          "type": "string"
        }
      ],
      "stateMutability": "view",
      "type": "function",
      "constant": true
    },
    {
      "inputs": [
        {
          "internalType": "address",
          "name": "_patient",
          "type": "address"
        }
      ],
      "name": "requestConsent",
      "outputs": [],
      "stateMutability": "nonpayable",
      "type": "function"
    },
    {
      "inputs": [
        {
          "internalType": "address",
          "name": "_doctor",
          "type": "address"
        }
      ],
      "name": "grantConsent",
      "outputs": [],
      "stateMutability": "nonpayable",
      "type": "function"
    },
    {
      "inputs": [
        {
          "internalType": "address",
          "name": "_doctor",
          "type": "address"
        }
      ],
      "name": "refuseConsent",
      "outputs": [],
      "stateMutability": "nonpayable",
      "type": "function"
    },
    {
      "inputs": [
        {
          "internalType": "address",
          "name": "_doctor",
          "type": "address"
        }
      ],
      "name": "revokeConsent",
      "outputs": [],
      "stateMutability": "nonpayable",
      "type": "function"
    },
    {
      "inputs": [
        {
          "internalType": "address",
          "name": "_patient",
          "type": "address"
        },
        {
          "internalType": "bytes",
          "name": "_encryptedData",
          "type": "bytes"
        }
      ],
      "name": "addVisit",
      "outputs": [],
      "stateMutability": "nonpayable",
      "type": "function"
    }
  ],
  "bytecode": "0x60a06040523480156200001157600080fd5b503373ffffffffffffffffffffffffffffffffffffffff1660808173ffffffffffffffffffffffffffffffffffffffff16815250506040518060c001604052806001151581526020016040518060400160405280600581526020017f41646d696e00000000000000000000000000000000000000000000000000000081525081526020016040518060400160405280600b81526020017f436c696e69632053616c6500000000000000000000000000000000000000000081525081526020016040518060400160405280600d81526020017f4d6f726f63636f2f52616261740000000000000000000000000000000000000081525081526020016040518060400160405280600581526020017f30383a303000000000000000000000000000000000000000000000000000000081525081526020016040518060400160405280600581526020017f31383a30300000000000000000000000000000000000000000000000000000008152508152506001600060805173ffffffffffffffffffffffffffffffffffffffff1673ffffffffffffffffffffffffffffffffffffffff16815260200190815260200160002060008201518160000160006101000a81548160ff0219169083151502179055506020820151816001019081620001f791906200052b565b5060408201518160020190816200020f91906200052b565b5060608201518160030190816200022791906200052b565b5060808201518160040190816200023f91906200052b565b5060a08201518160050190816200025791906200052b565b5090505060805173ffffffffffffffffffffffffffffffffffffffff167f9388661dcd7dc6cff9b4e22ab9459ac0a2682f86cb52fc7a669a6e7f062bce4c604051620002a390620006c3565b60405180910390a2620006fa565b600081519050919050565b7f4e487b7100000000000000000000000000000000000000000000000000000000600052604160045260246000fd5b7f4e487b7100000000000000000000000000000000000000000000000000000000600052602260045260246000fd5b600060028204905060018216806200033357607f821691505b602082108103620003495762000348620002eb565b5b50919050565b60008190508160005260206000209050919050565b60006020601f8301049050919050565b600082821b905092915050565b600060088302620003b37fffffffffffffffffffffffffffffffffffffffffffffffffffffffffffffffff8262000374565b620003bf868362000374565b95508019841693508086168417925050509392505050565b6000819050919050565b6000819050919050565b60006200040c620004066200040084620003d7565b620003e1565b620003d7565b9050919050565b6000819050919050565b6200042883620003eb565b62000440620004378262000413565b84845462000381565b825550505050565b600090565b6200045762000448565b620004648184846200041d565b505050565b5b818110156200048c57620004806000826200044d565b6001810190506200046a565b5050565b601f821115620004db57620004a5816200034f565b620004b08462000364565b81016020851015620004c0578190505b620004d8620004cf8562000364565b83018262000469565b50505b505050565b600082821c905092915050565b60006200050060001984600802620004e0565b1980831691505092915050565b60006200051b8383620004ed565b9150826002028217905092915050565b6200053682620002b1565b67ffffffffffffffff811115620005525762000551620002bc565b5b6200055e82546200031a565b6200056b82828562000490565b600060209050601f831160018114620005a357600084156200058e578287015190505b6200059a85826200050d565b8655506200060a565b601f198416620005b3866200034f565b60005b82811015620005dd57848901518255600182019150602085019450602081019050620005b6565b86831015620005fd5784890151620005f9601f891682620004ed565b8355505b6001600288020188555050505b505050505050565b600082825260208201905092915050565b7f41646d696e000000000000000000000000000000000000000000000000000000600082015250565b60006200065b60058362000612565b9150620006688262000623565b602082019050919050565b7f436c696e69632053616c65000000000000000000000000000000000000000000600082015250565b6000620006ab600b8362000612565b9150620006b88262000673565b602082019050919050565b60006040820190508181036000830152620006de816200064c565b90508181036020830152620006f3816200069c565b9050919050565b60805161360d6200072b6000396000818161092c01528181611588015281816115ac01526116c9015261360d6000f3fe608060405234801561001057600080fd5b50600436106100f55760003560e01c806387fee61c11610097578063a79861f111610066578063a79861f114610287578063a9583c22146102a3578063d1a48627146102d8578063f68b68f6146102f4576100f5565b806387fee61c146102155780638da5cb5b1461023157806398fc90e91461024f578063a46aef401461026b576100f5565b8063461a2082116100d3578063461a2082146101665780634ba0a0201461019957806353c1a042146101b55780635cbcd8eb146101e5576100f5565b8063037f8248146100fa5780630869cfbc146101165780631128c9ea1461014a575b600080fd5b610114600480360381019061010f91906121f5565b610324565b005b610130600480360381019061012b91906121f5565b6106c7565b6040516101419594939291906122cd565b60405180910390f35b610164600480360381019061015f9190612471565b61092a565b005b610180600480360381019061017b91906121f5565b610c2f565b604051610190949392919061258a565b60405180910390f35b6101b360048036038101906101ae91906125eb565b610f97565b005b6101cf60048036038101906101ca91906126c2565b6111ed565b6040516101dc9190612702565b60405180910390f35b6101ff60048036038101906101fa91906121f5565b61121c565b60405161020c919061271d565b60405180910390f35b61022f600480360381019061022a91906127e0565b61137f565b005b610239611586565b604051610246919061284b565b60405180910390f35b610269600480360381019061026491906121f5565b6115aa565b005b610285600480360381019061028091906121f5565b6117f6565b005b6102a1600480360381019061029c91906121f5565b611a3f565b005b6102bd60048036038101906102b891906121f5565b611ce3565b6040516102cf96959493929190612866565b60405180910390f35b6102f260048036038101906102ed91906121f5565b611fd4565b005b61030e600480360381019061030991906126c2565b612154565b60405161031b9190612702565b60405180910390f35b600160003373ffffffffffffffffffffffffffffffffffffffff1673ffffffffffffffffffffffffffffffffffffffff16815260200190815260200160002060000160009054906101000a900460ff166103b3576040517f08c379a00000000000000000000000000000000000000000000000000000000081526004016103aa9061295c565b60405180910390fd5b6000808273ffffffffffffffffffffffffffffffffffffffff1673ffffffffffffffffffffffffffffffffffffffff16815260200190815260200160002060000160009054906101000a900460ff16610441576040517f08c379a0000000000000000000000000000000000000000000000000000000008152600401610438906129ee565b60405180910390fd5b600260008273ffffffffffffffffffffffffffffffffffffffff1673ffffffffffffffffffffffffffffffffffffffff16815260200190815260200160002060003373ffffffffffffffffffffffffffffffffffffffff1673ffffffffffffffffffffffffffffffffffffffff16815260200190815260200160002060009054906101000a900460ff161561050b576040517f08c379a000000000000000000000000000000000000000000000000000000000815260040161050290612a5a565b60405180910390fd5b600360008273ffffffffffffffffffffffffffffffffffffffff1673ffffffffffffffffffffffffffffffffffffffff16815260200190815260200160002060003373ffffffffffffffffffffffffffffffffffffffff1673ffffffffffffffffffffffffffffffffffffffff16815260200190815260200160002060009054906101000a900460ff16156105d5576040517f08c379a00000000000000000000000000000000000000000000000000000000081526004016105cc90612aec565b60405180910390fd5b6001600360008373ffffffffffffffffffffffffffffffffffffffff1673ffffffffffffffffffffffffffffffffffffffff16815260200190815260200160002060003373ffffffffffffffffffffffffffffffffffffffff1673ffffffffffffffffffffffffffffffffffffffff16815260200190815260200160002060006101000a81548160ff0219169083151502179055503373ffffffffffffffffffffffffffffffffffffffff168173ffffffffffffffffffffffffffffffffffffffff167f2836b27da25b9b18fc3a89b2e06ebbe3b7268f8291437c0bb6923b2b19212bcb60405160405180910390a350565b60006020528060005260406000206000915090508060000160009054906101000a900460ff16908060010180546106fd90612b3b565b80601f016020809104026020016040519081016040528092919081815260200182805461072990612b3b565b80156107765780601f1061074b57610100808354040283529160200191610776565b820191906000526020600020905b81548152906001019060200180831161075957829003601f168201915b50505050509080600201805461078b90612b3b565b80601f01602080910402602001604051908101604052809291908181526020018280546107b790612b3b565b80156108045780601f106107d957610100808354040283529160200191610804565b820191906000526020600020905b8154815290600101906020018083116107e757829003601f168201915b50505050509080600301805461081990612b3b565b80601f016020809104026020016040519081016040528092919081815260200182805461084590612b3b565b80156108925780601f1061086757610100808354040283529160200191610892565b820191906000526020600020905b81548152906001019060200180831161087557829003601f168201915b5050505050908060040180546108a790612b3b565b80601f01602080910402602001604051908101604052809291908181526020018280546108d390612b3b565b80156109205780601f106108f557610100808354040283529160200191610920565b820191906000526020600020905b81548152906001019060200180831161090357829003601f168201915b5050505050905085565b7f000000000000000000000000000000000000000000000000000000000000000073ffffffffffffffffffffffffffffffffffffffff163373ffffffffffffffffffffffffffffffffffffffff16146109b8576040517f08c379a00000000000000000000000000000000000000000000000000000000081526004016109af90612bde565b60405180910390fd5b600160008773ffffffffffffffffffffffffffffffffffffffff1673ffffffffffffffffffffffffffffffffffffffff16815260200190815260200160002060000160009054906101000a900460ff1615610a48576040517f08c379a0000000000000000000000000000000000000000000000000000000008152600401610a3f90612c4a565b60405180910390fd5b6000808773ffffffffffffffffffffffffffffffffffffffff1673ffffffffffffffffffffffffffffffffffffffff16815260200190815260200160002060000160009054906101000a900460ff1615610ad7576040517f08c379a0000000000000000000000000000000000000000000000000000000008152600401610ace90612cdc565b60405180910390fd5b6040518060c0016040528060011515815260200186815260200185815260200184815260200183815260200182815250600160008873ffffffffffffffffffffffffffffffffffffffff1673ffffffffffffffffffffffffffffffffffffffff16815260200190815260200160002060008201518160000160006101000a81548160ff0219169083151502179055506020820151816001019081610b7b9190612eb2565b506040820151816002019081610b919190612eb2565b506060820151816003019081610ba79190612eb2565b506080820151816004019081610bbd9190612eb2565b5060a0820151816005019081610bd39190612eb2565b509050508573ffffffffffffffffffffffffffffffffffffffff167f9388661dcd7dc6cff9b4e22ab9459ac0a2682f86cb52fc7a669a6e7f062bce4c8686604051610c1f929190612f84565b60405180910390a2505050505050565b6060806060806000808673ffffffffffffffffffffffffffffffffffffffff1673ffffffffffffffffffffffffffffffffffffffff16815260200190815260200160002060000160009054906101000a900460ff16610cc3576040517f08c379a0000000000000000000000000000000000000000000000000000000008152600401610cba90613007565b60405180910390fd5b60008060008773ffffffffffffffffffffffffffffffffffffffff1673ffffffffffffffffffffffffffffffffffffffff1681526020019081526020016000206040518060a00160405290816000820160009054906101000a900460ff16151515158152602001600182018054610d3990612b3b565b80601f0160208091040260200160405190810160405280929190818152602001828054610d6590612b3b565b8015610db25780601f10610d8757610100808354040283529160200191610db2565b820191906000526020600020905b815481529060010190602001808311610d9557829003601f168201915b50505050508152602001600282018054610dcb90612b3b565b80601f0160208091040260200160405190810160405280929190818152602001828054610df790612b3b565b8015610e445780601f10610e1957610100808354040283529160200191610e44565b820191906000526020600020905b815481529060010190602001808311610e2757829003601f168201915b50505050508152602001600382018054610e5d90612b3b565b80601f0160208091040260200160405190810160405280929190818152602001828054610e8990612b3b565b8015610ed65780601f10610eab57610100808354040283529160200191610ed6565b820191906000526020600020905b815481529060010190602001808311610eb957829003601f168201915b50505050508152602001600482018054610eef90612b3b565b80601f0160208091040260200160405190810160405280929190818152602001828054610f1b90612b3b565b8015610f685780601f10610f3d57610100808354040283529160200191610f68565b820191906000526020600020905b815481529060010190602001808311610f4b57829003601f168201915b505050505081525050905080602001518160400151826060015183608001519450945094509450509193509193565b6000803373ffffffffffffffffffffffffffffffffffffffff1673ffffffffffffffffffffffffffffffffffffffff16815260200190815260200160002060000160009054906101000a900460ff1615611026576040517f08c379a000000000000000000000000000000000000000000000000000000000815260040161101d90613073565b60405180910390fd5b600160003373ffffffffffffffffffffffffffffffffffffffff1673ffffffffffffffffffffffffffffffffffffffff16815260200190815260200160002060000160009054906101000a900460ff16156110b6576040517f08c379a00000000000000000000000000000000000000000000000000000000081526004016110ad90613105565b60405180910390fd5b6040518060a00160405280600115158152602001858152602001848152602001838152602001828152506000803373ffffffffffffffffffffffffffffffffffffffff1673ffffffffffffffffffffffffffffffffffffffff16815260200190815260200160002060008201518160000160006101000a81548160ff02191690831515021790555060208201518160010190816111539190612eb2565b5060408201518160020190816111699190612eb2565b50606082015181600301908161117f9190612eb2565b5060808201518160040190816111959190612eb2565b509050503373ffffffffffffffffffffffffffffffffffffffff167fc85b128388b9c331a2a5485dce4cd0f3db9f7c279d327ce95d6d39d6c94644c7856040516111df919061271d565b60405180910390a250505050565b60036020528160005260406000206020528060005260406000206000915091509054906101000a900460ff1681565b6060600160008373ffffffffffffffffffffffffffffffffffffffff1673ffffffffffffffffffffffffffffffffffffffff16815260200190815260200160002060000160009054906101000a900460ff166112ad576040517f08c379a00000000000000000000000000000000000000000000000000000000081526004016112a490613171565b60405180910390fd5b600160008373ffffffffffffffffffffffffffffffffffffffff1673ffffffffffffffffffffffffffffffffffffffff16815260200190815260200160002060010180546112fa90612b3b565b80601f016020809104026020016040519081016040528092919081815260200182805461132690612b3b565b80156113735780601f1061134857610100808354040283529160200191611373565b820191906000526020600020905b81548152906001019060200180831161135657829003601f168201915b50505050509050919050565b600160003373ffffffffffffffffffffffffffffffffffffffff1673ffffffffffffffffffffffffffffffffffffffff16815260200190815260200160002060000160009054906101000a900460ff1661140e576040517f08c379a00000000000000000000000000000000000000000000000000000000081526004016114059061295c565b60405180910390fd5b600260008373ffffffffffffffffffffffffffffffffffffffff1673ffffffffffffffffffffffffffffffffffffffff16815260200190815260200160002060003373ffffffffffffffffffffffffffffffffffffffff1673ffffffffffffffffffffffffffffffffffffffff16815260200190815260200160002060009054906101000a900460ff166114d7576040517f08c379a00000000000000000000000000000000000000000000000000000000081526004016114ce90613203565b60405180910390fd5b600081511161151b576040517f08c379a00000000000000000000000000000000000000000000000000000000081526004016115129061326f565b60405180910390fd5b3373ffffffffffffffffffffffffffffffffffffffff168273ffffffffffffffffffffffffffffffffffffffff167f8fed6a2b6c4b373ec8518dd42cb708c88beb55d8806492942025f2d86118bcb7428460405161157a9291906132f3565b60405180910390a35050565b7f000000000000000000000000000000000000000000000000000000000000000081565b7f000000000000000000000000000000000000000000000000000000000000000073ffffffffffffffffffffffffffffffffffffffff163373ffffffffffffffffffffffffffffffffffffffff1614611638576040517f08c379a000000000000000000000000000000000000000000000000000000000815260040161162f90612bde565b60405180910390fd5b600160008273ffffffffffffffffffffffffffffffffffffffff1673ffffffffffffffffffffffffffffffffffffffff16815260200190815260200160002060000160009054906101000a900460ff166116c7576040517f08c379a00000000000000000000000000000000000000000000000000000000081526004016116be9061336f565b60405180910390fd5b7f000000000000000000000000000000000000000000000000000000000000000073ffffffffffffffffffffffffffffffffffffffff168173ffffffffffffffffffffffffffffffffffffffff1603611755576040517f08c379a000000000000000000000000000000000000000000000000000000000815260040161174c90613401565b60405180910390fd5b6000600160008373ffffffffffffffffffffffffffffffffffffffff1673ffffffffffffffffffffffffffffffffffffffff16815260200190815260200160002060000160006101000a81548160ff0219169083151502179055508073ffffffffffffffffffffffffffffffffffffffff167f493d7cf6a7c880406a55654d6727464ea088bd01d40498e1987a327e68961ab860405160405180910390a250565b6000803373ffffffffffffffffffffffffffffffffffffffff1673ffffffffffffffffffffffffffffffffffffffff16815260200190815260200160002060000160009054906101000a900460ff16611884576040517f08c379a000000000000000000000000000000000000000000000000000000000815260040161187b90613493565b60405180910390fd5b600360003373ffffffffffffffffffffffffffffffffffffffff1673ffffffffffffffffffffffffffffffffffffffff16815260200190815260200160002060008273ffffffffffffffffffffffffffffffffffffffff1673ffffffffffffffffffffffffffffffffffffffff16815260200190815260200160002060009054906101000a900460ff1661194d576040517f08c379a000000000000000000000000000000000000000000000000000000000815260040161194490613525565b60405180910390fd5b6000600360003373ffffffffffffffffffffffffffffffffffffffff1673ffffffffffffffffffffffffffffffffffffffff16815260200190815260200160002060008373ffffffffffffffffffffffffffffffffffffffff1673ffffffffffffffffffffffffffffffffffffffff16815260200190815260200160002060006101000a81548160ff0219169083151502179055508073ffffffffffffffffffffffffffffffffffffffff163373ffffffffffffffffffffffffffffffffffffffff167fee666520c6fbc392d1a1e9c8845f759abf986e12b9927e3a452c94ce2c05d1df60405160405180910390a350565b6000803373ffffffffffffffffffffffffffffffffffffffff1673ffffffffffffffffffffffffffffffffffffffff16815260200190815260200160002060000160009054906101000a900460ff16611acd576040517f08c379a0000000000000000000000000000000000000000000000000000000008152600401611ac490613493565b60405180910390fd5b600160008273ffffffffffffffffffffffffffffffffffffffff1673ffffffffffffffffffffffffffffffffffffffff16815260200190815260200160002060000160009054906101000a900460ff16611b5c576040517f08c379a0000000000000000000000000000000000000000000000000000000008152600401611b53906135b7565b60405180910390fd5b6000600360003373ffffffffffffffffffffffffffffffffffffffff1673ffffffffffffffffffffffffffffffffffffffff16815260200190815260200160002060008373ffffffffffffffffffffffffffffffffffffffff1673ffffffffffffffffffffffffffffffffffffffff16815260200190815260200160002060006101000a81548160ff0219169083151502179055506001600260003373ffffffffffffffffffffffffffffffffffffffff1673ffffffffffffffffffffffffffffffffffffffff16815260200190815260200160002060008373ffffffffffffffffffffffffffffffffffffffff1673ffffffffffffffffffffffffffffffffffffffff16815260200190815260200160002060006101000a81548160ff0219169083151502179055508073ffffffffffffffffffffffffffffffffffffffff163373ffffffffffffffffffffffffffffffffffffffff167f8105c574d2239a3a4f73f5efc5bc253cffb275647df535adfa2c240739cc922060405160405180910390a350565b60016020528060005260406000206000915090508060000160009054906101000a900460ff1690806001018054611d1990612b3b565b80601f0160208091040260200160405190810160405280929190818152602001828054611d4590612b3b565b8015611d925780601f10611d6757610100808354040283529160200191611d92565b820191906000526020600020905b815481529060010190602001808311611d7557829003601f168201915b505050505090806002018054611da790612b3b565b80601f0160208091040260200160405190810160405280929190818152602001828054611dd390612b3b565b8015611e205780601f10611df557610100808354040283529160200191611e20565b820191906000526020600020905b815481529060010190602001808311611e0357829003601f168201915b505050505090806003018054611e3590612b3b565b80601f0160208091040260200160405190810160405280929190818152602001828054611e6190612b3b565b8015611eae5780601f10611e8357610100808354040283529160200191611eae565b820191906000526020600020905b815481529060010190602001808311611e9157829003601f168201915b505050505090806004018054611ec390612b3b565b80601f0160208091040260200160405190810160405280929190818152602001828054611eef90612b3b565b8015611f3c5780601f10611f1157610100808354040283529160200191611f3c565b820191906000526020600020905b815481529060010190602001808311611f1f57829003601f168201915b505050505090806005018054611f5190612b3b565b80601f0160208091040260200160405190810160405280929190818152602001828054611f7d90612b3b565b8015611fca5780601f10611f9f57610100808354040283529160200191611fca565b820191906000526020600020905b815481529060010190602001808311611fad57829003601f168201915b5050505050905086565b6000803373ffffffffffffffffffffffffffffffffffffffff1673ffffffffffffffffffffffffffffffffffffffff16815260200190815260200160002060000160009054906101000a900460ff16612062576040517f08c379a000000000000000000000000000000000000000000000000000000000815260040161205990613493565b60405180910390fd5b6000600260003373ffffffffffffffffffffffffffffffffffffffff1673ffffffffffffffffffffffffffffffffffffffff16815260200190815260200160002060008373ffffffffffffffffffffffffffffffffffffffff1673ffffffffffffffffffffffffffffffffffffffff16815260200190815260200160002060006101000a81548160ff0219169083151502179055508073ffffffffffffffffffffffffffffffffffffffff163373ffffffffffffffffffffffffffffffffffffffff167febecee2d3f2ea272f73dd9d9ccc0bacd11280d61240332cbcd8a68173ae5cc2c60405160405180910390a350565b60026020528160005260406000206020528060005260406000206000915091509054906101000a900460ff1681565b6000604051905090565b600080fd5b600080fd5b600073ffffffffffffffffffffffffffffffffffffffff82169050919050565b60006121c282612197565b9050919050565b6121d2816121b7565b81146121dd57600080fd5b50565b6000813590506121ef816121c9565b92915050565b60006020828403121561220b5761220a61218d565b5b6000612219848285016121e0565b91505092915050565b60008115159050919050565b61223781612222565b82525050565b600081519050919050565b600082825260208201905092915050565b60005b8381101561227757808201518184015260208101905061225c565b60008484015250505050565b6000601f19601f8301169050919050565b600061229f8261223d565b6122a98185612248565b93506122b9818560208601612259565b6122c281612283565b840191505092915050565b600060a0820190506122e2600083018861222e565b81810360208301526122f48187612294565b905081810360408301526123088186612294565b9050818103606083015261231c8185612294565b905081810360808301526123308184612294565b90509695505050505050565b600080fd5b600080fd5b7f4e487b7100000000000000000000000000000000000000000000000000000000600052604160045260246000fd5b61237e82612283565b810181811067ffffffffffffffff8211171561239d5761239c612346565b5b80604052505050565b60006123b0612183565b90506123bc8282612375565b919050565b600067ffffffffffffffff8211156123dc576123db612346565b5b6123e582612283565b9050602081019050919050565b82818337600083830152505050565b600061241461240f846123c1565b6123a6565b9050828152602081018484840111156124305761242f612341565b5b61243b8482856123f2565b509392505050565b600082601f8301126124585761245761233c565b5b8135612468848260208601612401565b91505092915050565b60008060008060008060c0878903121561248e5761248d61218d565b5b600061249c89828a016121e0565b965050602087013567ffffffffffffffff8111156124bd576124bc612192565b5b6124c989828a01612443565b955050604087013567ffffffffffffffff8111156124ea576124e9612192565b5b6124f689828a01612443565b945050606087013567ffffffffffffffff81111561251757612516612192565b5b61252389828a01612443565b935050608087013567ffffffffffffffff81111561254457612543612192565b5b61255089828a01612443565b92505060a087013567ffffffffffffffff81111561257157612570612192565b5b61257d89828a01612443565b9150509295509295509295565b600060808201905081810360008301526125a48187612294565b905081810360208301526125b88186612294565b905081810360408301526125cc8185612294565b905081810360608301526125e08184612294565b905095945050505050565b600080600080608085870312156126055761260461218d565b5b600085013567ffffffffffffffff81111561262357612622612192565b5b61262f87828801612443565b945050602085013567ffffffffffffffff8111156126505761264f612192565b5b61265c87828801612443565b935050604085013567ffffffffffffffff81111561267d5761267c612192565b5b61268987828801612443565b925050606085013567ffffffffffffffff8111156126aa576126a9612192565b5b6126b687828801612443565b91505092959194509250565b600080604083850312156126d9576126d861218d565b5b60006126e7858286016121e0565b92505060206126f8858286016121e0565b9150509250929050565b6000602082019050612717600083018461222e565b92915050565b600060208201905081810360008301526127378184612294565b905092915050565b600067ffffffffffffffff82111561275a57612759612346565b5b61276382612283565b9050602081019050919050565b600061278361277e8461273f565b6123a6565b90508281526020810184848401111561279f5761279e612341565b5b6127aa8482856123f2565b509392505050565b600082601f8301126127c7576127c661233c565b5b81356127d7848260208601612770565b91505092915050565b600080604083850312156127f7576127f661218d565b5b6000612805858286016121e0565b925050602083013567ffffffffffffffff81111561282657612825612192565b5b612832858286016127b2565b9150509250929050565b612845816121b7565b82525050565b6000602082019050612860600083018461283c565b92915050565b600060c08201905061287b600083018961222e565b818103602083015261288d8188612294565b905081810360408301526128a18187612294565b905081810360608301526128b58186612294565b905081810360808301526128c98185612294565b905081810360a08301526128dd8184612294565b9050979650505050505050565b7f43616c6c6572206973206e6f7420616e20617574686f72697a656420646f637460008201527f6f72000000000000000000000000000000000000000000000000000000000000602082015250565b6000612946602283612248565b9150612951826128ea565b604082019050919050565b6000602082019050818103600083015261297581612939565b9050919050565b7f41646472657373206973206e6f7420612072656769737465726564207061746960008201527f656e742e00000000000000000000000000000000000000000000000000000000602082015250565b60006129d8602483612248565b91506129e38261297c565b604082019050919050565b60006020820190508181036000830152612a07816129cb565b9050919050565b7f436f6e73656e7420697320616c7265616479206772616e7465642e0000000000600082015250565b6000612a44601b83612248565b9150612a4f82612a0e565b602082019050919050565b60006020820190508181036000830152612a7381612a37565b9050919050565b7f436f6e73656e74207265717565737420697320616c72656164792070656e646960008201527f6e672e0000000000000000000000000000000000000000000000000000000000602082015250565b6000612ad6602383612248565b9150612ae182612a7a565b604082019050919050565b60006020820190508181036000830152612b0581612ac9565b9050919050565b7f4e487b7100000000000000000000000000000000000000000000000000000000600052602260045260246000fd5b60006002820490506001821680612b5357607f821691505b602082108103612b6657612b65612b0c565b5b50919050565b7f4f6e6c79206f776e65722063616e20706572666f726d2074686973206163746960008201527f6f6e000000000000000000000000000000000000000000000000000000000000602082015250565b6000612bc8602283612248565b9150612bd382612b6c565b604082019050919050565b60006020820190508181036000830152612bf781612bbb565b9050919050565b7f446f63746f7220697320616c7265616479207265676973746572656400000000600082015250565b6000612c34601c83612248565b9150612c3f82612bfe565b602082019050919050565b60006020820190508181036000830152612c6381612c27565b9050919050565b7f4164647265737320697320616c7265616479207265676973746572656420617360008201527f20612070617469656e7400000000000000000000000000000000000000000000602082015250565b6000612cc6602a83612248565b9150612cd182612c6a565b604082019050919050565b60006020820190508181036000830152612cf581612cb9565b9050919050565b60008190508160005260206000209050919050565b60006020601f8301049050919050565b600082821b905092915050565b600060088302612d5e7fffffffffffffffffffffffffffffffffffffffffffffffffffffffffffffffff82612d21565b612d688683612d21565b95508019841693508086168417925050509392505050565b6000819050919050565b6000819050919050565b6000612daf612daa612da584612d80565b612d8a565b612d80565b9050919050565b6000819050919050565b612dc983612d94565b612ddd612dd582612db6565b848454612d2e565b825550505050565b600090565b612df2612de5565b612dfd818484612dc0565b505050565b5b81811015612e2157612e16600082612dea565b600181019050612e03565b5050565b601f821115612e6657612e3781612cfc565b612e4084612d11565b81016020851015612e4f578190505b612e63612e5b85612d11565b830182612e02565b50505b505050565b600082821c905092915050565b6000612e8960001984600802612e6b565b1980831691505092915050565b6000612ea28383612e78565b9150826002028217905092915050565b612ebb8261223d565b67ffffffffffffffff811115612ed457612ed3612346565b5b612ede8254612b3b565b612ee9828285612e25565b600060209050601f831160018114612f1c5760008415612f0a578287015190505b612f148582612e96565b865550612f7c565b601f198416612f2a86612cfc565b60005b82811015612f5257848901518255600182019150602085019450602081019050612f2d565b86831015612f6f5784890151612f6b601f891682612e78565b8355505b6001600288020188555050505b505050505050565b60006040820190508181036000830152612f9e8185612294565b90508181036020830152612fb28184612294565b90509392505050565b7f4e6f74206120726567697374657265642070617469656e742e00000000000000600082015250565b6000612ff1601983612248565b9150612ffc82612fbb565b602082019050919050565b6000602082019050818103600083015261302081612fe4565b9050919050565b7f416c7265616479207265676973746572656420617320612070617469656e742e600082015250565b600061305d602083612248565b915061306882613027565b602082019050919050565b6000602082019050818103600083015261308c81613050565b9050919050565b7f446f63746f72732063616e6e6f7420726567697374657220617320706174696560008201527f6e74732e00000000000000000000000000000000000000000000000000000000602082015250565b60006130ef602483612248565b91506130fa82613093565b604082019050919050565b6000602082019050818103600083015261311e816130e2565b9050919050565b7f4e6f7420616e20617574686f72697a656420646f63746f722e00000000000000600082015250565b600061315b601983612248565b915061316682613125565b602082019050919050565b6000602082019050818103600083015261318a8161314e565b9050919050565b7f50617469656e7420686173206e6f74206772616e74656420636f6e73656e742060008201527f746f207468697320646f63746f722e0000000000000000000000000000000000602082015250565b60006131ed602f83612248565b91506131f882613191565b604082019050919050565b6000602082019050818103600083015261321c816131e0565b9050919050565b7f456e6372797074656420646174612063616e6e6f7420626520656d7074792e00600082015250565b6000613259601f83612248565b915061326482613223565b602082019050919050565b600060208201905081810360008301526132888161324c565b9050919050565b61329881612d80565b82525050565b600081519050919050565b600082825260208201905092915050565b60006132c58261329e565b6132cf81856132a9565b93506132df818560208601612259565b6132e881612283565b840191505092915050565b6000604082019050613308600083018561328f565b818103602083015261331a81846132ba565b90509392505050565b7f41646472657373206973206e6f74206120646f63746f722e0000000000000000600082015250565b6000613359601883612248565b915061336482613323565b602082019050919050565b600060208201905081810360008301526133888161334c565b9050919050565b7f43616e6e6f742072656d6f766520746865206f776e657220617320646f63746f60008201527f722e000000000000000000000000000000000000000000000000000000000000602082015250565b60006133eb602283612248565b91506133f68261338f565b604082019050919050565b6000602082019050818103600083015261341a816133de565b9050919050565b7f43616c6c6572206973206e6f742061207265676973746572656420706174696560008201527f6e74000000000000000000000000000000000000000000000000000000000000602082015250565b600061347d602283612248565b915061348882613421565b604082019050919050565b600060208201905081810360008301526134ac81613470565b9050919050565b7f4e6f2070656e64696e6720636f6e73656e7420726571756573742066726f6d2060008201527f7468697320646f63746f722e0000000000000000000000000000000000000000602082015250565b600061350f602c83612248565b915061351a826134b3565b604082019050919050565b6000602082019050818103600083015261353e81613502565b9050919050565b7f41646472657373206973206e6f7420616e20617574686f72697a656420646f6360008201527f746f722e00000000000000000000000000000000000000000000000000000000602082015250565b60006135a1602483612248565b91506135ac82613545565b604082019050919050565b600060208201905081810360008301526135d081613594565b905091905056fea2646970667358221220083eb35d930dfa51c9c5f64d119fc6721981440bcbc18d2ea797e13ec242a3e964736f6c63430008150033",
  "immutableReferences": {
    "3": [
      {
        "length": 32,
        "start": 2348
      },
      {
        "length": 32,
        "start": 5512
      },
      {
        "length": 32,
        "start": 5548
      },
      {
        "length": 32,
        "start": 5833
      }
    ]
  },
  "source": "// SPDX-License-Identifier: MIT\r\npragma solidity ^0.8.0;\r\n\r\ncontract HealthRecords {\r\n    address public immutable owner;\r\n\r\n    struct Doctor {\r\n        bool isRegistered;\r\n        string name;\r\n        string clinic;\r\n        string timezone;\r\n        string workingHoursStart;\r\n        string workingHoursEnd;\r\n    }\r\n\r\n    struct Patient {\r\n        bool isRegistered;\r\n        string name;\r\n        string bloodType;\r\n        string phone;\r\n        string email;\r\n    }\r\n\r\n    // State Variables\r\n    mapping(address => Patient) public patients;\r\n    mapping(address => Doctor) public doctors;\r\n\r\n    // Consent mappings: mapping(patient => mapping(doctor => state))\r\n    mapping(address => mapping(address => bool)) public patientConsent;\r\n    mapping(address => mapping(address => bool)) public pendingConsent;\r\n\r\n    // Events\r\n    event ConsentRequested(address indexed patient, address indexed doctor);\r\n    event ConsentGranted(address indexed patient, address indexed doctor);\r\n    event ConsentRefused(address indexed patient, address indexed doctor);\r\n    event ConsentRevoked(address indexed patient, address indexed doctor);\r\n    event PatientRegistered(address indexed patient, string name);\r\n    event DoctorAdded(address indexed doctor, string name, string clinic);\r\n    event DoctorRemoved(address indexed doctor);\r\n    event VisitAdded(address indexed patient, address indexed doctor, uint256 timestamp, bytes encryptedData);\r\n\r\n    // Modifiers\r\n    modifier onlyOwner() {\r\n        require(msg.sender == owner, \"Only owner can perform this action\");\r\n        _;\r\n    }\r\n\r\n    modifier onlyDoctor() {\r\n        require(doctors[msg.sender].isRegistered, \"Caller is not an authorized doctor\");\r\n        _;\r\n    }\r\n\r\n    modifier onlyPatient() {\r\n        require(patients[msg.sender].isRegistered, \"Caller is not a registered patient\");\r\n        _;\r\n    }\r\n\r\n    constructor() {\r\n        owner = msg.sender;\r\n        doctors[owner] = Doctor({\r\n            isRegistered: true,\r\n            name: \"Admin\",\r\n            clinic: \"Clinic Sale\",\r\n            timezone: \"Morocco/Rabat\",\r\n            workingHoursStart: \"08:00\",\r\n            workingHoursEnd: \"18:00\"\r\n        });\r\n        emit DoctorAdded(owner, \"Admin\", \"Clinic Sale\");\r\n    }\r\n\r\n    // --- Identity Registration ---\r\n\r\n    function registerPatient(string memory _name, string memory _bloodType, string memory _phone, string memory _email) public {\r\n        require(!patients[msg.sender].isRegistered, \"Already registered as a patient.\");\r\n        require(!doctors[msg.sender].isRegistered, \"Doctors cannot register as patients.\");\r\n        \r\n        patients[msg.sender] = Patient({\r\n            isRegistered: true,\r\n            name: _name,\r\n            bloodType: _bloodType,\r\n            phone: _phone,\r\n            email: _email\r\n        });\r\n        emit PatientRegistered(msg.sender, _name);\r\n    }\r\n\r\n    function addDoctor(\r\n        address _doctor, \r\n        string memory _name,\r\n        string memory _clinic,\r\n        string memory _timezone,\r\n        string memory _workingHoursStart,\r\n        string memory _workingHoursEnd\r\n    ) public onlyOwner {\r\n        require(!doctors[_doctor].isRegistered, \"Doctor is already registered\");\r\n        require(!patients[_doctor].isRegistered, \"Address is already registered as a patient\");\r\n\r\n        doctors[_doctor] = Doctor({\r\n            isRegistered: true,\r\n            name: _name,\r\n            clinic: _clinic,\r\n            timezone: _timezone,\r\n            workingHoursStart: _workingHoursStart,\r\n            workingHoursEnd: _workingHoursEnd\r\n        });\r\n\r\n        emit DoctorAdded(_doctor, _name, _clinic);\r\n    }\r\n\r\n    function removeDoctor(address _doctor) public onlyOwner {\r\n        require(doctors[_doctor].isRegistered, \"Address is not a doctor.\");\r\n        require(_doctor != owner, \"Cannot remove the owner as doctor.\");\r\n        doctors[_doctor].isRegistered = false;\r\n        // Optional: clear the name as well\r\n        emit DoctorRemoved(_doctor);\r\n    }\r\n\r\n    // --- Metadata Getters ---\r\n\r\n    function getDoctorProfile(address _doctor) public view returns (string memory name) {\r\n        require(doctors[_doctor].isRegistered, \"Not an authorized doctor.\");\r\n        return doctors[_doctor].name;\r\n    }\r\n\r\n    function getPatientProfile(address _patient) public view returns (string memory name, string memory bloodType, string memory phone, string memory email) {\r\n        require(patients[_patient].isRegistered, \"Not a registered patient.\");\r\n        Patient memory p = patients[_patient];\r\n        return (p.name, p.bloodType, p.phone, p.email);\r\n    }\r\n\r\n    // --- Patient Consent ---\r\n\r\n    function requestConsent(address _patient) public onlyDoctor {\r\n        require(patients[_patient].isRegistered, \"Address is not a registered patient.\");\r\n        require(!patientConsent[_patient][msg.sender], \"Consent is already granted.\");\r\n        require(!pendingConsent[_patient][msg.sender], \"Consent request is already pending.\");\r\n        \r\n        pendingConsent[_patient][msg.sender] = true;\r\n        emit ConsentRequested(_patient, msg.sender);\r\n    }\r\n\r\n    function grantConsent(address _doctor) public onlyPatient {\r\n        require(doctors[_doctor].isRegistered, \"Address is not an authorized doctor.\");\r\n        \r\n        pendingConsent[msg.sender][_doctor] = false; // clear if existed\r\n        patientConsent[msg.sender][_doctor] = true;\r\n        emit ConsentGranted(msg.sender, _doctor);\r\n    }\r\n\r\n    function refuseConsent(address _doctor) public onlyPatient {\r\n        require(pendingConsent[msg.sender][_doctor], \"No pending consent request from this doctor.\");\r\n        \r\n        pendingConsent[msg.sender][_doctor] = false;\r\n        emit ConsentRefused(msg.sender, _doctor);\r\n    }\r\n\r\n    function revokeConsent(address _doctor) public onlyPatient {\r\n        patientConsent[msg.sender][_doctor] = false;\r\n        emit ConsentRevoked(msg.sender, _doctor);\r\n    }\r\n\r\n    // --- Medical Records ---\r\n\r\n    function addVisit(address _patient, bytes memory _encryptedData) public onlyDoctor {\r\n        require(patientConsent[_patient][msg.sender], \"Patient has not granted consent to this doctor.\");\r\n        require(_encryptedData.length > 0, \"Encrypted data cannot be empty.\");\r\n\r\n        emit VisitAdded(_patient, msg.sender, block.timestamp, _encryptedData);\r\n    }\r\n\r\n}",
  "sourcePath": "C:\\Users\\abdoi\\OneDrive\\Documents\\Studies\\master ai\\Securite blockchain\\Project\\Blockchain\\contracts\\HealthRecords.sol",
  "compiler": {
    "name": "solc",
    "version": "0.8.21+commit.d9974bed.Emscripten.clang"
  },
  "schemaVersion": "3.4.16",
  "updatedAt": "2026-03-14T11:55:39.784Z",
  "networkType": "ethereum",
  "devdoc": {
    "kind": "dev",
    "methods": {},
    "version": 1
  },
  "userdoc": {
    "kind": "user",
    "methods": {},
    "version": 1
  }
}