{
  "contractName": "HealthRecords",
  "abi": [
    {
      "inputs": [],
      "stateMutability": "nonpayable",
      "type": "constructor"
    },
    {
      "anonymous": false,
      "inputs": [
        {
          "indexed": true,
          "internalType": "address",
          "name": "patient",
          "type": "address"
        },
        {
          "indexed": true,
          "internalType": "address",
          "name": "doctor",
          "type": "address"
        }
      ],
      "name": "ConsentGranted",
      "type": "event"
    },
    {
      "anonymous": false,
      "inputs": [
        {
          "indexed": true,
          "internalType": "address",
          "name": "patient",
          "type": "address"
        },
        {
          "indexed": true,
          "internalType": "address",
          "name": "doctor",
          "type": "address"
        }
      ],
      "name": "ConsentRefused",
      "type": "event"
    },
    {
      "anonymous": false,
      "inputs": [
        {
          "indexed": true,
          "internalType": "address",
          "name": "patient",
          "type": "address"
        },
        {
          "indexed": true,
          "internalType": "address",
          "name": "doctor",
          "type": "address"
        }
      ],
      "name": "ConsentRequested",
      "type": "event"
    },
    {
      "anonymous": false,
      "inputs": [
        {
          "indexed": true,
          "internalType": "address",
          "name": "patient",
          "type": "address"
        },
        {
          "indexed": true,
          "internalType": "address",
          "name": "doctor",
          "type": "address"
        }
      ],
      "name": "ConsentRevoked",
      "type": "event"
    },
    {
      "anonymous": false,
      "inputs": [
        {
          "indexed": true,
          "internalType": "address",
          "name": "doctor",
          "type": "address"
        }
      ],
      "name": "DoctorAdded",
      "type": "event"
    },
    {
      "anonymous": false,
      "inputs": [
        {
          "indexed": true,
          "internalType": "address",
          "name": "doctor",
          "type": "address"
        }
      ],
      "name": "DoctorRemoved",
      "type": "event"
    },
    {
      "anonymous": false,
      "inputs": [
        {
          "indexed": true,
          "internalType": "address",
          "name": "patient",
          "type": "address"
        }
      ],
      "name": "PatientRegistered",
      "type": "event"
    },
    {
      "anonymous": false,
      "inputs": [
        {
          "indexed": true,
          "internalType": "address",
          "name": "patient",
          "type": "address"
        },
        {
          "indexed": true,
          "internalType": "address",
          "name": "doctor",
          "type": "address"
        },
        {
          "indexed": false,
          "internalType": "uint256",
          "name": "timestamp",
          "type": "uint256"
        }
      ],
      "name": "VisitAdded",
      "type": "event"
    },
    {
      "inputs": [
        {
          "internalType": "address",
          "name": "",
          "type": "address"
        }
      ],
      "name": "isDoctor",
      "outputs": [
        {
          "internalType": "bool",
          "name": "",
          "type": "bool"
        }
      ],
      "stateMutability": "view",
      "type": "function",
      "constant": true
    },
    {
      "inputs": [
        {
          "internalType": "address",
          "name": "",
          "type": "address"
        }
      ],
      "name": "isPatient",
      "outputs": [
        {
          "internalType": "bool",
          "name": "",
          "type": "bool"
        }
      ],
      "stateMutability": "view",
      "type": "function",
      "constant": true
    },
    {
      "inputs": [],
      "name": "owner",
      "outputs": [
        {
          "internalType": "address",
          "name": "",
          "type": "address"
        }
      ],
      "stateMutability": "view",
      "type": "function",
      "constant": true
    },
    {
      "inputs": [
        {
          "internalType": "address",
          "name": "",
          "type": "address"
        },
        {
          "internalType": "address",
          "name": "",
          "type": "address"
        }
      ],
      "name": "patientConsent",
      "outputs": [
        {
          "internalType": "bool",
          "name": "",
          "type": "bool"
        }
      ],
      "stateMutability": "view",
      "type": "function",
      "constant": true
    },
    {
      "inputs": [
        {
          "internalType": "address",
          "name": "",
          "type": "address"
        },
        {
          "internalType": "address",
          "name": "",
          "type": "address"
        }
      ],
      "name": "pendingConsent",
      "outputs": [
        {
          "internalType": "bool",
          "name": "",
          "type": "bool"
        }
      ],
      "stateMutability": "view",
      "type": "function",
      "constant": true
    },
    {
      "inputs": [],
      "name": "registerPatient",
      "outputs": [],
      "stateMutability": "nonpayable",
      "type": "function"
    },
    {
      "inputs": [
        {
          "internalType": "address",
          "name": "_doctor",
          "type": "address"
        }
      ],
      "name": "addDoctor",
      "outputs": [],
      "stateMutability": "nonpayable",
      "type": "function"
    },
    {
      "inputs": [
        {
          "internalType": "address",
          "name": "_doctor",
          "type": "address"
        }
      ],
      "name": "removeDoctor",
      "outputs": [],
      "stateMutability": "nonpayable",
      "type": "function"
    },
    {
      "inputs": [
        {
          "internalType": "address",
          "name": "_patient",
          "type": "address"
        }
      ],
      "name": "requestConsent",
      "outputs": [],
      "stateMutability": "nonpayable",
      "type": "function"
    },
    {
      "inputs": [
        {
          "internalType": "address",
          "name": "_doctor",
          "type": "address"
        }
      ],
      "name": "grantConsent",
      "outputs": [],
      "stateMutability": "nonpayable",
      "type": "function"
    },
    {
      "inputs": [
        {
          "internalType": "address",
          "name": "_doctor",
          "type": "address"
        }
      ],
      "name": "refuseConsent",
      "outputs": [],
      "stateMutability": "nonpayable",
      "type": "function"
    },
    {
      "inputs": [
        {
          "internalType": "address",
          "name": "_doctor",
          "type": "address"
        }
      ],
      "name": "revokeConsent",
      "outputs": [],
      "stateMutability": "nonpayable",
      "type": "function"
    },
    {
      "inputs": [
        {
          "internalType": "address",
          "name": "_patient",
          "type": "address"
        },
        {
          "internalType": "bytes",
          "name": "_encryptedData",
          "type": "bytes"
        }
      ],
      "name": "addVisit",
      "outputs": [],
      "stateMutability": "nonpayable",
      "type": "function"
    },
    {
      "inputs": [
        {
          "internalType": "address",
          "name": "_patient",
          "type": "address"
        },
        {
          "internalType": "uint256",
          "name": "_offset",
          "type": "uint256"
        },
        {
          "internalType": "uint256",
          "name": "_limit",
          "type": "uint256"
        }
      ],
      "name": "getHistory",
      "outputs": [
        {
          "components": [
            {
              "internalType": "address",
              "name": "doctor",
              "type": "address"
            },
            {
              "internalType": "bytes",
              "name": "encryptedData",
              "type": "bytes"
            },
            {
              "internalType": "uint256",
              "name": "timestamp",
              "type": "uint256"
            }
          ],
          "internalType": "struct HealthRecords.Visit[]",
          "name": "",
          "type": "tuple[]"
        }
      ],
      "stateMutability": "view",
      "type": "function",
      "constant": true
    },
    {
      "inputs": [
        {
          "internalType": "address",
          "name": "_patient",
          "type": "address"
        }
      ],
      "name": "getVisitCount",
      "outputs": [
        {
          "internalType": "uint256",
          "name": "",
          "type": "uint256"
        }
      ],
      "stateMutability": "view",
      "type": "function",
      "constant": true
    }
  ],
  "bytecode": "0x608060405234801561001057600080fd5b50336000806101000a81548173ffffffffffffffffffffffffffffffffffffffff021916908373ffffffffffffffffffffffffffffffffffffffff1602179055506001600260003373ffffffffffffffffffffffffffffffffffffffff1673ffffffffffffffffffffffffffffffffffffffff16815260200190815260200160002060006101000a81548160ff0219169083151502179055503373ffffffffffffffffffffffffffffffffffffffff167f69908b2e63170aa89ef89719bbe3b4c92cccc38653968ab25f4464eff7c28ac860405160405180910390a2612db3806100fb6000396000f3fe608060405234801561001057600080fd5b50600436106100f55760003560e01c806398fc90e911610097578063ac440a9f11610066578063ac440a9f1461025a578063d1a486271461028a578063ec29f4e9146102a6578063f68b68f6146102d6576100f5565b806398fc90e9146101d6578063996440c6146101f2578063a46aef4014610222578063a79861f11461023e576100f5565b8063822d3885116100d3578063822d38851461016257806387fee61c1461016c5780638da5cb5b146101885780638f9c79ed146101a6576100f5565b8063037f8248146100fa5780634780468f1461011657806353c1a04214610132575b600080fd5b610114600480360381019061010f9190611c2b565b610306565b005b610130600480360381019061012b9190611c2b565b6106a4565b005b61014c60048036038101906101479190611c58565b61085d565b6040516101599190611cb3565b60405180910390f35b61016a61088c565b005b61018660048036038101906101819190611e14565b610a43565b005b610190610d4d565b60405161019d9190611e7f565b60405180910390f35b6101c060048036038101906101bb9190611c2b565b610d71565b6040516101cd9190611cb3565b60405180910390f35b6101f060048036038101906101eb9190611c2b565b610d91565b005b61020c60048036038101906102079190611c2b565b610fd7565b6040516102199190611cb3565b60405180910390f35b61023c60048036038101906102379190611c2b565b610ff7565b005b61025860048036038101906102539190611c2b565b61123e565b005b610274600480360381019061026f9190611c2b565b6114dd565b6040516102819190611eb3565b60405180910390f35b6102a4600480360381019061029f9190611c2b565b611628565b005b6102c060048036038101906102bb9190611efa565b6117a6565b6040516102cd91906120fc565b60405180910390f35b6102f060048036038101906102eb9190611c58565b611b53565b6040516102fd9190611cb3565b60405180910390f35b600260003373ffffffffffffffffffffffffffffffffffffffff1673ffffffffffffffffffffffffffffffffffffffff16815260200190815260200160002060009054906101000a900460ff16610392576040517f08c379a0000000000000000000000000000000000000000000000000000000008152600401610389906121a1565b60405180910390fd5b600360008273ffffffffffffffffffffffffffffffffffffffff1673ffffffffffffffffffffffffffffffffffffffff16815260200190815260200160002060009054906101000a900460ff1661041e576040517f08c379a000000000000000000000000000000000000000000000000000000000815260040161041590612233565b60405180910390fd5b600460008273ffffffffffffffffffffffffffffffffffffffff1673ffffffffffffffffffffffffffffffffffffffff16815260200190815260200160002060003373ffffffffffffffffffffffffffffffffffffffff1673ffffffffffffffffffffffffffffffffffffffff16815260200190815260200160002060009054906101000a900460ff16156104e8576040517f08c379a00000000000000000000000000000000000000000000000000000000081526004016104df9061229f565b60405180910390fd5b600560008273ffffffffffffffffffffffffffffffffffffffff1673ffffffffffffffffffffffffffffffffffffffff16815260200190815260200160002060003373ffffffffffffffffffffffffffffffffffffffff1673ffffffffffffffffffffffffffffffffffffffff16815260200190815260200160002060009054906101000a900460ff16156105b2576040517f08c379a00000000000000000000000000000000000000000000000000000000081526004016105a990612331565b60405180910390fd5b6001600560008373ffffffffffffffffffffffffffffffffffffffff1673ffffffffffffffffffffffffffffffffffffffff16815260200190815260200160002060003373ffffffffffffffffffffffffffffffffffffffff1673ffffffffffffffffffffffffffffffffffffffff16815260200190815260200160002060006101000a81548160ff0219169083151502179055503373ffffffffffffffffffffffffffffffffffffffff168173ffffffffffffffffffffffffffffffffffffffff167f2836b27da25b9b18fc3a89b2e06ebbe3b7268f8291437c0bb6923b2b19212bcb60405160405180910390a350565b60008054906101000a900473ffffffffffffffffffffffffffffffffffffffff1673ffffffffffffffffffffffffffffffffffffffff163373ffffffffffffffffffffffffffffffffffffffff1614610732576040517f08c379a0000000000000000000000000000000000000000000000000000000008152600401610729906123c3565b60405180910390fd5b600260008273ffffffffffffffffffffffffffffffffffffffff1673ffffffffffffffffffffffffffffffffffffffff16815260200190815260200160002060009054906101000a900460ff16156107bf576040517f08c379a00000000000000000000000000000000000000000000000000000000081526004016107b69061242f565b60405180910390fd5b6001600260008373ffffffffffffffffffffffffffffffffffffffff1673ffffffffffffffffffffffffffffffffffffffff16815260200190815260200160002060006101000a81548160ff0219169083151502179055508073ffffffffffffffffffffffffffffffffffffffff167f69908b2e63170aa89ef89719bbe3b4c92cccc38653968ab25f4464eff7c28ac860405160405180910390a250565b60056020528160005260406000206020528060005260406000206000915091509054906101000a900460ff1681565b600360003373ffffffffffffffffffffffffffffffffffffffff1673ffffffffffffffffffffffffffffffffffffffff16815260200190815260200160002060009054906101000a900460ff1615610919576040517f08c379a00000000000000000000000000000000000000000000000000000000081526004016109109061249b565b60405180910390fd5b600260003373ffffffffffffffffffffffffffffffffffffffff1673ffffffffffffffffffffffffffffffffffffffff16815260200190815260200160002060009054906101000a900460ff16156109a6576040517f08c379a000000000000000000000000000000000000000000000000000000000815260040161099d9061252d565b60405180910390fd5b6001600360003373ffffffffffffffffffffffffffffffffffffffff1673ffffffffffffffffffffffffffffffffffffffff16815260200190815260200160002060006101000a81548160ff0219169083151502179055503373ffffffffffffffffffffffffffffffffffffffff167fc9fa2003fca4ce0dfc8cb0deae32266b715536df6685365b05b5be96ede8e49c60405160405180910390a2565b600260003373ffffffffffffffffffffffffffffffffffffffff1673ffffffffffffffffffffffffffffffffffffffff16815260200190815260200160002060009054906101000a900460ff16610acf576040517f08c379a0000000000000000000000000000000000000000000000000000000008152600401610ac6906121a1565b60405180910390fd5b600460008373ffffffffffffffffffffffffffffffffffffffff1673ffffffffffffffffffffffffffffffffffffffff16815260200190815260200160002060003373ffffffffffffffffffffffffffffffffffffffff1673ffffffffffffffffffffffffffffffffffffffff16815260200190815260200160002060009054906101000a900460ff16610b98576040517f08c379a0000000000000000000000000000000000000000000000000000000008152600401610b8f906125bf565b60405180910390fd5b6000815111610bdc576040517f08c379a0000000000000000000000000000000000000000000000000000000008152600401610bd39061262b565b60405180910390fd5b600060405180606001604052803373ffffffffffffffffffffffffffffffffffffffff168152602001838152602001428152509050600160008473ffffffffffffffffffffffffffffffffffffffff1673ffffffffffffffffffffffffffffffffffffffff16815260200190815260200160002081908060018154018082558091505060019003906000526020600020906003020160009091909190915060008201518160000160006101000a81548173ffffffffffffffffffffffffffffffffffffffff021916908373ffffffffffffffffffffffffffffffffffffffff1602179055506020820151816001019081610cd69190612857565b506040820151816002015550503373ffffffffffffffffffffffffffffffffffffffff168373ffffffffffffffffffffffffffffffffffffffff167ff298554cada977a5e7c458fcf4673a28bfd9cb79e7c65a4f0ba7eec601eafbdc42604051610d409190611eb3565b60405180910390a3505050565b60008054906101000a900473ffffffffffffffffffffffffffffffffffffffff1681565b60036020528060005260406000206000915054906101000a900460ff1681565b60008054906101000a900473ffffffffffffffffffffffffffffffffffffffff1673ffffffffffffffffffffffffffffffffffffffff163373ffffffffffffffffffffffffffffffffffffffff1614610e1f576040517f08c379a0000000000000000000000000000000000000000000000000000000008152600401610e16906123c3565b60405180910390fd5b600260008273ffffffffffffffffffffffffffffffffffffffff1673ffffffffffffffffffffffffffffffffffffffff16815260200190815260200160002060009054906101000a900460ff16610eab576040517f08c379a0000000000000000000000000000000000000000000000000000000008152600401610ea290612975565b60405180910390fd5b60008054906101000a900473ffffffffffffffffffffffffffffffffffffffff1673ffffffffffffffffffffffffffffffffffffffff168173ffffffffffffffffffffffffffffffffffffffff1603610f39576040517f08c379a0000000000000000000000000000000000000000000000000000000008152600401610f3090612a07565b60405180910390fd5b6000600260008373ffffffffffffffffffffffffffffffffffffffff1673ffffffffffffffffffffffffffffffffffffffff16815260200190815260200160002060006101000a81548160ff0219169083151502179055508073ffffffffffffffffffffffffffffffffffffffff167f493d7cf6a7c880406a55654d6727464ea088bd01d40498e1987a327e68961ab860405160405180910390a250565b60026020528060005260406000206000915054906101000a900460ff1681565b600360003373ffffffffffffffffffffffffffffffffffffffff1673ffffffffffffffffffffffffffffffffffffffff16815260200190815260200160002060009054906101000a900460ff16611083576040517f08c379a000000000000000000000000000000000000000000000000000000000815260040161107a90612a99565b60405180910390fd5b600560003373ffffffffffffffffffffffffffffffffffffffff1673ffffffffffffffffffffffffffffffffffffffff16815260200190815260200160002060008273ffffffffffffffffffffffffffffffffffffffff1673ffffffffffffffffffffffffffffffffffffffff16815260200190815260200160002060009054906101000a900460ff1661114c576040517f08c379a000000000000000000000000000000000000000000000000000000000815260040161114390612b2b565b60405180910390fd5b6000600560003373ffffffffffffffffffffffffffffffffffffffff1673ffffffffffffffffffffffffffffffffffffffff16815260200190815260200160002060008373ffffffffffffffffffffffffffffffffffffffff1673ffffffffffffffffffffffffffffffffffffffff16815260200190815260200160002060006101000a81548160ff0219169083151502179055508073ffffffffffffffffffffffffffffffffffffffff163373ffffffffffffffffffffffffffffffffffffffff167fee666520c6fbc392d1a1e9c8845f759abf986e12b9927e3a452c94ce2c05d1df60405160405180910390a350565b600360003373ffffffffffffffffffffffffffffffffffffffff1673ffffffffffffffffffffffffffffffffffffffff16815260200190815260200160002060009054906101000a900460ff166112ca576040517f08c379a00000000000000000000000000000000000000000000000000000000081526004016112c190612a99565b60405180910390fd5b600260008273ffffffffffffffffffffffffffffffffffffffff1673ffffffffffffffffffffffffffffffffffffffff16815260200190815260200160002060009054906101000a900460ff16611356576040517f08c379a000000000000000000000000000000000000000000000000000000000815260040161134d90612bbd565b60405180910390fd5b6000600560003373ffffffffffffffffffffffffffffffffffffffff1673ffffffffffffffffffffffffffffffffffffffff16815260200190815260200160002060008373ffffffffffffffffffffffffffffffffffffffff1673ffffffffffffffffffffffffffffffffffffffff16815260200190815260200160002060006101000a81548160ff0219169083151502179055506001600460003373ffffffffffffffffffffffffffffffffffffffff1673ffffffffffffffffffffffffffffffffffffffff16815260200190815260200160002060008373ffffffffffffffffffffffffffffffffffffffff1673ffffffffffffffffffffffffffffffffffffffff16815260200190815260200160002060006101000a81548160ff0219169083151502179055508073ffffffffffffffffffffffffffffffffffffffff163373ffffffffffffffffffffffffffffffffffffffff167f8105c574d2239a3a4f73f5efc5bc253cffb275647df535adfa2c240739cc922060405160405180910390a350565b60008173ffffffffffffffffffffffffffffffffffffffff163373ffffffffffffffffffffffffffffffffffffffff16148061159f5750600460008373ffffffffffffffffffffffffffffffffffffffff1673ffffffffffffffffffffffffffffffffffffffff16815260200190815260200160002060003373ffffffffffffffffffffffffffffffffffffffff1673ffffffffffffffffffffffffffffffffffffffff16815260200190815260200160002060009054906101000a900460ff165b6115de576040517f08c379a00000000000000000000000000000000000000000000000000000000081526004016115d590612c4f565b60405180910390fd5b600160008373ffffffffffffffffffffffffffffffffffffffff1673ffffffffffffffffffffffffffffffffffffffff168152602001908152602001600020805490509050919050565b600360003373ffffffffffffffffffffffffffffffffffffffff1673ffffffffffffffffffffffffffffffffffffffff16815260200190815260200160002060009054906101000a900460ff166116b4576040517f08c379a00000000000000000000000000000000000000000000000000000000081526004016116ab90612a99565b60405180910390fd5b6000600460003373ffffffffffffffffffffffffffffffffffffffff1673ffffffffffffffffffffffffffffffffffffffff16815260200190815260200160002060008373ffffffffffffffffffffffffffffffffffffffff1673ffffffffffffffffffffffffffffffffffffffff16815260200190815260200160002060006101000a81548160ff0219169083151502179055508073ffffffffffffffffffffffffffffffffffffffff163373ffffffffffffffffffffffffffffffffffffffff167febecee2d3f2ea272f73dd9d9ccc0bacd11280d61240332cbcd8a68173ae5cc2c60405160405180910390a350565b60608373ffffffffffffffffffffffffffffffffffffffff163373ffffffffffffffffffffffffffffffffffffffff1614806118685750600460008573ffffffffffffffffffffffffffffffffffffffff1673ffffffffffffffffffffffffffffffffffffffff16815260200190815260200160002060003373ffffffffffffffffffffffffffffffffffffffff1673ffffffffffffffffffffffffffffffffffffffff16815260200190815260200160002060009054906101000a900460ff165b6118a7576040517f08c379a000000000000000000000000000000000000000000000000000000000815260040161189e90612c4f565b60405180910390fd5b6000600160008673ffffffffffffffffffffffffffffffffffffffff1673ffffffffffffffffffffffffffffffffffffffff16815260200190815260200160002090508080549050841061195257600067ffffffffffffffff8111156119105761190f611ce9565b5b60405190808252806020026020018201604052801561194957816020015b611936611b82565b81526020019060019003908161192e5790505b50915050611b4c565b600083856119609190612c9e565b9050818054905081111561197657818054905090505b600085826119849190612cd2565b905060008167ffffffffffffffff8111156119a2576119a1611ce9565b5b6040519080825280602002602001820160405280156119db57816020015b6119c8611b82565b8152602001906001900390816119c05790505b50905060005b82811015611b43578481896119f69190612c9e565b81548110611a0757611a06612d06565b5b90600052602060002090600302016040518060600160405290816000820160009054906101000a900473ffffffffffffffffffffffffffffffffffffffff1673ffffffffffffffffffffffffffffffffffffffff1673ffffffffffffffffffffffffffffffffffffffff168152602001600182018054611a869061267a565b80601f0160208091040260200160405190810160405280929190818152602001828054611ab29061267a565b8015611aff5780601f10611ad457610100808354040283529160200191611aff565b820191906000526020600020905b815481529060010190602001808311611ae257829003601f168201915b50505050508152602001600282015481525050828281518110611b2557611b24612d06565b5b60200260200101819052508080611b3b90612d35565b9150506119e1565b50809450505050505b9392505050565b60046020528160005260406000206020528060005260406000206000915091509054906101000a900460ff1681565b6040518060600160405280600073ffffffffffffffffffffffffffffffffffffffff16815260200160608152602001600081525090565b6000604051905090565b600080fd5b600080fd5b600073ffffffffffffffffffffffffffffffffffffffff82169050919050565b6000611bf882611bcd565b9050919050565b611c0881611bed565b8114611c1357600080fd5b50565b600081359050611c2581611bff565b92915050565b600060208284031215611c4157611c40611bc3565b5b6000611c4f84828501611c16565b91505092915050565b60008060408385031215611c6f57611c6e611bc3565b5b6000611c7d85828601611c16565b9250506020611c8e85828601611c16565b9150509250929050565b60008115159050919050565b611cad81611c98565b82525050565b6000602082019050611cc86000830184611ca4565b92915050565b600080fd5b600080fd5b6000601f19601f8301169050919050565b7f4e487b7100000000000000000000000000000000000000000000000000000000600052604160045260246000fd5b611d2182611cd8565b810181811067ffffffffffffffff82111715611d4057611d3f611ce9565b5b80604052505050565b6000611d53611bb9565b9050611d5f8282611d18565b919050565b600067ffffffffffffffff821115611d7f57611d7e611ce9565b5b611d8882611cd8565b9050602081019050919050565b82818337600083830152505050565b6000611db7611db284611d64565b611d49565b905082815260208101848484011115611dd357611dd2611cd3565b5b611dde848285611d95565b509392505050565b600082601f830112611dfb57611dfa611cce565b5b8135611e0b848260208601611da4565b91505092915050565b60008060408385031215611e2b57611e2a611bc3565b5b6000611e3985828601611c16565b925050602083013567ffffffffffffffff811115611e5a57611e59611bc8565b5b611e6685828601611de6565b9150509250929050565b611e7981611bed565b82525050565b6000602082019050611e946000830184611e70565b92915050565b6000819050919050565b611ead81611e9a565b82525050565b6000602082019050611ec86000830184611ea4565b92915050565b611ed781611e9a565b8114611ee257600080fd5b50565b600081359050611ef481611ece565b92915050565b600080600060608486031215611f1357611f12611bc3565b5b6000611f2186828701611c16565b9350506020611f3286828701611ee5565b9250506040611f4386828701611ee5565b9150509250925092565b600081519050919050565b600082825260208201905092915050565b6000819050602082019050919050565b611f8281611bed565b82525050565b600081519050919050565b600082825260208201905092915050565b60005b83811015611fc2578082015181840152602081019050611fa7565b60008484015250505050565b6000611fd982611f88565b611fe38185611f93565b9350611ff3818560208601611fa4565b611ffc81611cd8565b840191505092915050565b61201081611e9a565b82525050565b600060608301600083015161202e6000860182611f79565b50602083015184820360208601526120468282611fce565b915050604083015161205b6040860182612007565b508091505092915050565b60006120728383612016565b905092915050565b6000602082019050919050565b600061209282611f4d565b61209c8185611f58565b9350836020820285016120ae85611f69565b8060005b858110156120ea57848403895281516120cb8582612066565b94506120d68361207a565b925060208a019950506001810190506120b2565b50829750879550505050505092915050565b600060208201905081810360008301526121168184612087565b905092915050565b600082825260208201905092915050565b7f4f6e6c7920617574686f72697a656420646f63746f72732063616e207065726660008201527f6f726d207468697320616374696f6e2e00000000000000000000000000000000602082015250565b600061218b60308361211e565b91506121968261212f565b604082019050919050565b600060208201905081810360008301526121ba8161217e565b9050919050565b7f41646472657373206973206e6f7420612072656769737465726564207061746960008201527f656e742e00000000000000000000000000000000000000000000000000000000602082015250565b600061221d60248361211e565b9150612228826121c1565b604082019050919050565b6000602082019050818103600083015261224c81612210565b9050919050565b7f436f6e73656e7420697320616c7265616479206772616e7465642e0000000000600082015250565b6000612289601b8361211e565b915061229482612253565b602082019050919050565b600060208201905081810360008301526122b88161227c565b9050919050565b7f436f6e73656e74207265717565737420697320616c72656164792070656e646960008201527f6e672e0000000000000000000000000000000000000000000000000000000000602082015250565b600061231b60238361211e565b9150612326826122bf565b604082019050919050565b6000602082019050818103600083015261234a8161230e565b9050919050565b7f4f6e6c79206f776e65722063616e20706572666f726d2074686973206163746960008201527f6f6e2e0000000000000000000000000000000000000000000000000000000000602082015250565b60006123ad60238361211e565b91506123b882612351565b604082019050919050565b600060208201905081810360008301526123dc816123a0565b9050919050565b7f4164647265737320697320616c7265616479206120646f63746f722e00000000600082015250565b6000612419601c8361211e565b9150612424826123e3565b602082019050919050565b600060208201905081810360008301526124488161240c565b9050919050565b7f416c7265616479207265676973746572656420617320612070617469656e742e600082015250565b600061248560208361211e565b91506124908261244f565b602082019050919050565b600060208201905081810360008301526124b481612478565b9050919050565b7f446f63746f72732063616e6e6f7420726567697374657220617320706174696560008201527f6e74732e00000000000000000000000000000000000000000000000000000000602082015250565b600061251760248361211e565b9150612522826124bb565b604082019050919050565b600060208201905081810360008301526125468161250a565b9050919050565b7f50617469656e7420686173206e6f74206772616e74656420636f6e73656e742060008201527f746f207468697320646f63746f722e0000000000000000000000000000000000602082015250565b60006125a9602f8361211e565b91506125b48261254d565b604082019050919050565b600060208201905081810360008301526125d88161259c565b9050919050565b7f456e6372797074656420646174612063616e6e6f7420626520656d7074792e00600082015250565b6000612615601f8361211e565b9150612620826125df565b602082019050919050565b6000602082019050818103600083015261264481612608565b9050919050565b7f4e487b7100000000000000000000000000000000000000000000000000000000600052602260045260246000fd5b6000600282049050600182168061269257607f821691505b6020821081036126a5576126a461264b565b5b50919050565b60008190508160005260206000209050919050565b60006020601f8301049050919050565b600082821b905092915050565b60006008830261270d7fffffffffffffffffffffffffffffffffffffffffffffffffffffffffffffffff826126d0565b61271786836126d0565b95508019841693508086168417925050509392505050565b6000819050919050565b600061275461274f61274a84611e9a565b61272f565b611e9a565b9050919050565b6000819050919050565b61276e83612739565b61278261277a8261275b565b8484546126dd565b825550505050565b600090565b61279761278a565b6127a2818484612765565b505050565b5b818110156127c6576127bb60008261278f565b6001810190506127a8565b5050565b601f82111561280b576127dc816126ab565b6127e5846126c0565b810160208510156127f4578190505b612808612800856126c0565b8301826127a7565b50505b505050565b600082821c905092915050565b600061282e60001984600802612810565b1980831691505092915050565b6000612847838361281d565b9150826002028217905092915050565b61286082611f88565b67ffffffffffffffff81111561287957612878611ce9565b5b612883825461267a565b61288e8282856127ca565b600060209050601f8311600181146128c157600084156128af578287015190505b6128b9858261283b565b865550612921565b601f1984166128cf866126ab565b60005b828110156128f7578489015182556001820191506020850194506020810190506128d2565b868310156129145784890151612910601f89168261281d565b8355505b6001600288020188555050505b505050505050565b7f41646472657373206973206e6f74206120646f63746f722e0000000000000000600082015250565b600061295f60188361211e565b915061296a82612929565b602082019050919050565b6000602082019050818103600083015261298e81612952565b9050919050565b7f43616e6e6f742072656d6f766520746865206f776e657220617320646f63746f60008201527f722e000000000000000000000000000000000000000000000000000000000000602082015250565b60006129f160228361211e565b91506129fc82612995565b604082019050919050565b60006020820190508181036000830152612a20816129e4565b9050919050565b7f4f6e6c7920726567697374657265642070617469656e74732063616e2070657260008201527f666f726d207468697320616374696f6e2e000000000000000000000000000000602082015250565b6000612a8360318361211e565b9150612a8e82612a27565b604082019050919050565b60006020820190508181036000830152612ab281612a76565b9050919050565b7f4e6f2070656e64696e6720636f6e73656e7420726571756573742066726f6d2060008201527f7468697320646f63746f722e0000000000000000000000000000000000000000602082015250565b6000612b15602c8361211e565b9150612b2082612ab9565b604082019050919050565b60006020820190508181036000830152612b4481612b08565b9050919050565b7f41646472657373206973206e6f7420616e20617574686f72697a656420646f6360008201527f746f722e00000000000000000000000000000000000000000000000000000000602082015250565b6000612ba760248361211e565b9150612bb282612b4b565b604082019050919050565b60006020820190508181036000830152612bd681612b9a565b9050919050565b7f4e6f7420617574686f72697a656420746f20766965772074686973206869737460008201527f6f72792e00000000000000000000000000000000000000000000000000000000602082015250565b6000612c3960248361211e565b9150612c4482612bdd565b604082019050919050565b60006020820190508181036000830152612c6881612c2c565b9050919050565b7f4e487b7100000000000000000000000000000000000000000000000000000000600052601160045260246000fd5b6000612ca982611e9a565b9150612cb483611e9a565b9250828201905080821115612ccc57612ccb612c6f565b5b92915050565b6000612cdd82611e9a565b9150612ce883611e9a565b9250828203905081811115612d0057612cff612c6f565b5b92915050565b7f4e487b7100000000000000000000000000000000000000000000000000000000600052603260045260246000fd5b6000612d4082611e9a565b91507fffffffffffffffffffffffffffffffffffffffffffffffffffffffffffffffff8203612d7257612d71612c6f565b5b60018201905091905056fea2646970667358221220e34f2c2800488403069776023279e7c1c69296ebbc1bd9fb3f502c949a48474264736f6c63430008150033",
  "immutableReferences": {},
  "source": "// SPDX-License-Identifier: MIT\r\npragma solidity ^0.8.0;\r\n\r\ncontract HealthRecords {\r\n    address public owner;\r\n\r\n    struct Visit {\r\n        address doctor;\r\n        bytes encryptedData; // AES-encrypted medical record\r\n        uint256 timestamp;\r\n    }\r\n\r\n    mapping(address => Visit[]) private patientHistory;\r\n    mapping(address => bool) public isDoctor;\r\n    mapping(address => bool) public isPatient;\r\n    mapping(address => mapping(address => bool)) public patientConsent;\r\n    mapping(address => mapping(address => bool)) public pendingConsent;\r\n\r\n    // You can have up to three indexed parameters per event\r\n    event DoctorAdded(address indexed doctor);\r\n    event DoctorRemoved(address indexed doctor);\r\n    event PatientRegistered(address indexed patient);\r\n    event VisitAdded(address indexed patient, address indexed doctor, uint256 timestamp);\r\n    event ConsentRequested(address indexed patient, address indexed doctor);\r\n    event ConsentGranted(address indexed patient, address indexed doctor);\r\n    event ConsentRefused(address indexed patient, address indexed doctor);\r\n    event ConsentRevoked(address indexed patient, address indexed doctor);\r\n\r\n    modifier onlyOwner() {\r\n        require(msg.sender == owner, \"Only owner can perform this action.\");\r\n        _;\r\n    }\r\n\r\n    modifier onlyDoctor() {\r\n        require(isDoctor[msg.sender], \"Only authorized doctors can perform this action.\");\r\n        _;\r\n    }\r\n\r\n    modifier onlyPatient() {\r\n        require(isPatient[msg.sender], \"Only registered patients can perform this action.\");\r\n        _;\r\n    }\r\n\r\n    constructor() {\r\n        owner = msg.sender;\r\n        isDoctor[msg.sender] = true;\r\n        emit DoctorAdded(msg.sender);\r\n    }\r\n\r\n    // --- Registration & Management ---\r\n\r\n    function registerPatient() public {\r\n        require(!isPatient[msg.sender], \"Already registered as a patient.\");\r\n        require(!isDoctor[msg.sender], \"Doctors cannot register as patients.\");\r\n        isPatient[msg.sender] = true;\r\n        emit PatientRegistered(msg.sender);\r\n    }\r\n\r\n    function addDoctor(address _doctor) public onlyOwner {\r\n        require(!isDoctor[_doctor], \"Address is already a doctor.\");\r\n        isDoctor[_doctor] = true;\r\n        emit DoctorAdded(_doctor);\r\n    }\r\n\r\n    function removeDoctor(address _doctor) public onlyOwner {\r\n        require(isDoctor[_doctor], \"Address is not a doctor.\");\r\n        require(_doctor != owner, \"Cannot remove the owner as doctor.\");\r\n        isDoctor[_doctor] = false;\r\n        emit DoctorRemoved(_doctor);\r\n    }\r\n\r\n    // --- Patient Consent ---\r\n\r\n    function requestConsent(address _patient) public onlyDoctor {\r\n        require(isPatient[_patient], \"Address is not a registered patient.\");\r\n        require(!patientConsent[_patient][msg.sender], \"Consent is already granted.\");\r\n        require(!pendingConsent[_patient][msg.sender], \"Consent request is already pending.\");\r\n        \r\n        pendingConsent[_patient][msg.sender] = true;\r\n        emit ConsentRequested(_patient, msg.sender);\r\n    }\r\n\r\n    function grantConsent(address _doctor) public onlyPatient {\r\n        require(isDoctor[_doctor], \"Address is not an authorized doctor.\");\r\n        \r\n        pendingConsent[msg.sender][_doctor] = false; // clear if existed\r\n        patientConsent[msg.sender][_doctor] = true;\r\n        emit ConsentGranted(msg.sender, _doctor);\r\n    }\r\n\r\n    function refuseConsent(address _doctor) public onlyPatient {\r\n        require(pendingConsent[msg.sender][_doctor], \"No pending consent request from this doctor.\");\r\n        \r\n        pendingConsent[msg.sender][_doctor] = false;\r\n        emit ConsentRefused(msg.sender, _doctor);\r\n    }\r\n\r\n    function revokeConsent(address _doctor) public onlyPatient {\r\n        patientConsent[msg.sender][_doctor] = false;\r\n        emit ConsentRevoked(msg.sender, _doctor);\r\n    }\r\n\r\n    // --- Medical Records ---\r\n\r\n    function addVisit(address _patient, bytes memory _encryptedData) public onlyDoctor {\r\n        require(patientConsent[_patient][msg.sender], \"Patient has not granted consent to this doctor.\");\r\n        require(_encryptedData.length > 0, \"Encrypted data cannot be empty.\");\r\n\r\n        Visit memory newVisit = Visit({\r\n            doctor: msg.sender,\r\n            encryptedData: _encryptedData,\r\n            timestamp: block.timestamp\r\n        });\r\n\r\n        patientHistory[_patient].push(newVisit);\r\n        emit VisitAdded(_patient, msg.sender, block.timestamp);\r\n    }\r\n\r\n    function getHistory(address _patient, uint256 _offset, uint256 _limit) public view returns (Visit[] memory) {\r\n        require(msg.sender == _patient || patientConsent[_patient][msg.sender], \"Not authorized to view this history.\");\r\n\r\n        Visit[] storage allVisits = patientHistory[_patient];\r\n\r\n        if (_offset >= allVisits.length) {\r\n            return new Visit[](0);\r\n        }\r\n\r\n        uint256 end = _offset + _limit;\r\n        if (end > allVisits.length) {\r\n            end = allVisits.length;\r\n        }\r\n\r\n        uint256 resultLength = end - _offset;\r\n        Visit[] memory result = new Visit[](resultLength);\r\n        for (uint256 i = 0; i < resultLength; i++) {\r\n            result[i] = allVisits[_offset + i];\r\n        }\r\n        return result;\r\n    }\r\n\r\n    function getVisitCount(address _patient) public view returns (uint256) {\r\n        require(msg.sender == _patient || patientConsent[_patient][msg.sender], \"Not authorized to view this history.\");\r\n        return patientHistory[_patient].length;\r\n    }\r\n}",
  "sourcePath": "C:\\Users\\abdoi\\OneDrive\\Documents\\Studies\\master ai\\Securite blockchain\\Project\\Blockchain\\contracts\\HealthRecords.sol",
  "compiler": {
    "name": "solc",
    "version": "0.8.21+commit.d9974bed.Emscripten.clang"
  },
  "schemaVersion": "3.4.16",
  "updatedAt": "2026-03-13T11:58:00.000Z"
}